:020000040000FA
:1000000070200020F5040000FD040000150300002E
:1000100001050000030500000505000000000000C8
:1000200000000000000000000000000007050000C4
:1000300009050000000000000B0500000D05000090
:10004000A90F00000F0500005D1100000F05000062
:100050000F05000000000000DD0C000000000000A3
:100060000F0500000F0500000F0500000F05000040
:100070000F0500000F0500000F0500000F05000030
:100080000F050000B90F00000F0500000F0500006C
:100090000F0500000F0500000F0500000F05000010
:1000A0000F0500000F0500000F0500000000000014
:1000B0000000000000000000000000000000000040
:1000C0000000000000000000000000000000000030
:1000D000000000000000000000000000B51100005A
:1000E0000000000000000000000000000000000010
:1000F0000000000000000000000000000000000000
:1001000000000000000000000000000000000000EF
:1001100000000000000000000000000000000000DF
:1001200000000000000000000000000000000000CF
:1001300000000000000000000000000000000000BF
:1001400000000000000000000000000000000000AF
:10015000000000000000000000000000000000009F
:10016000000000000000000000000000000000008F
:10017000000000000000000000000000000000007F
:10018000000000000000000000000000000000006F
:10019000000000000000000000000000000000005F
:1001A000000000000000000000000000000000004F
:1001B000000000000000000000000000000000003F
:1001C000000000000000000000000000000000002F
:1001D000000000000000000000000000000000001F
:1001E000000000000000000000000000000000000F
:1001F00000000000000000000000000000000000FF
:10020000DFF80CD000F096FB004800474D5100008D
:100210007020002030B4044654E8000F0D4644E836
:100220000053002BF8D1156030BC704730B4044641
:1002300054E8000F40EA010544E80053002BF7D1D1
:10024000156030BC704730B4044654E8000F00EA33
:10025000010544E80053002BF7D1156030BC70470E
:1002600030B4044654E8000F80EA010544E8005326
:10027000002BF7D1156030BC704730B4044654E809
:10028000000F00EB010544E80053002BF7D1156087
:1002900030BC704730B4044654E8000FA0EB0105B1
:1002A00044E80053002BF7D1156030BC704770B4A0
:1002B00004464FF0000054E8006F0D68AE4207BFDF
:1002C00044E80023012044E800630E60002B1CBFBB
:1002D0000020F0E770BC704730B4044654E8000FCB
:1002E00088422CBF451A054644E80053002BF5D13F
:1002F000156030BC7047000000B583B002900091DB
:10030000019244F2010071466A4601F02DF803B0F3
:1003100000BD0000094B1EF0040F1CBFEFF3098065
:100320001847EFF308800649064A884201D89042F0
:1003300002D88D464FF0000018470000810D0000E4
:10034000702000207010002030B450E8012F93B2CC
:10035000C48923448489A34228BF1B1B0489A34268
:1003600002BFBFF32F8F002007E0C3EA020340E87B
:100370000134002CE9D14FF001000A6030BC704715
:1003800050E8012FC2EA024240E801210029F7D1DA
:10039000704730B450E8022F1FFAA2F3C488A3427A
:1003A00002BFBFF32F8F00200DE0C489234484894E
:1003B000A34228BF1B1BC2EA034340E80234002CBF
:1003C000E8D14FF001000A6030BC704750E8022FBE
:1003D000C2EA224240E802210029F7D170470346D1
:1003E00053E8022FD988B2EB324F4FF0000017BF0D
:1003F00092B241EA014142EA014104E05A68B2EB9B
:10040000324F08BF012043E80212002AE8D17047AA
:1004100030B4044654E8000F0D4644E80053002B66
:10042000F8D1156030BC704730B4044654E8000F72
:1004300040EA010544E80053002BF7D1156030BCB9
:10044000704730B4044654E8000F00EA010544E860
:100450000053002BF7D1156030BC704730B4044610
:1004600054E8000F80EA010544E80053002BF7D15F
:10047000156030BC704730B4044654E8000F00EB00
:10048000010544E80053002BF7D1156030BC7047DC
:1004900030B4044654E8000FA0EB010544E80053D3
:1004A000002BF7D1156030BC704770B404464FF094
:1004B000000054E8006F0D68AE4207BF44E8002317
:1004C000012044E800630E60002B1CBF0020F0E711
:1004D00070BC704730B4044654E8000F88422CBF0B
:1004E000451A054644E80053002BF5D1156030BC91
:1004F000704700000648804706480047FEE7FEE7D1
:10050000FEE7FEE7FEE7FEE7FEE7FEE7FEE7FEE7C3
:10051000C90F0000010200002DE9F05F0546002030
:1005200092469B4688460646814640241BE0284664
:1005300041464746224600F0ABF953465A46C01A98
:10054000914110D311461846224600F016F82D1A94
:1005500067EB01084F4622460120002100F00DF80C
:1005600017EB00094E41201EA4F10104DFDC4846D0
:1005700031462A464346BDE8F09F202A04DB203A54
:1005800000FA02F1002070479140C2F1200320FAE6
:1005900003F3194390407047004870474CCE000069
:1005A00010B50446FFF7F8FF0068005D00F0010099
:1005B00010BD2DE9FE43994615468846074601AC15
:1005C000022942D3002D40D000200290A8F1010062
:1005D0004FF0FF36009022E000FB057201FB057032
:1005E00011464A469047002805DC54F8260030445E
:1005F00044F8260013E060682A4600FB057154F8B1
:10060000040C00FB057007E00B7890F800C001F8BF
:1006100001CB00F8013B521E002AF5D1764254F876
:10062000040C61688842D7DC4B462A463846FFF7FF
:10063000C0FF54F8040C4B46A8EB0001401C00FB23
:1006400005702A46491EFFF7B4FFBDE8FE8310B5CA
:10065000431A934209D28318881803E010F8011D49
:1006600003F8011D521EF9D210BD40EA01039B0799
:1006700003D009E008C9121F08C0042AFAD203E017
:1006800011F8013B00F8013B521EF9D210BDD2B265
:1006900001E000F8012B491EFBD270470022F6E76B
:1006A00010B513460A4604461946FFF7F0FF2046E8
:1006B00010BD421C10F8011B0029FBD1801A7047A5
:1006C00010B5002200E0521C835C8C5CA34201D177
:1006D000002BF8D1D8B2E1B2401A10BD034611F890
:1006E000012B00F8012B002AF9D11846704730B5CC
:1006F00005460020034600E05B1C934205D2EC5CFB
:10070000C85C201A01D1002CF6D130BD0FB400B561
:100710008DB010A909900B9000914FF0FF300A9016
:1007200000200C9005480690054807906A4609A8E5
:100730000F9900F0D1F80DB05DF814FBF50800003A
:10074000130900002DE9FF5F1D464FF0FF3BD5E97F
:10075000014691465F464FF00008A9697F1C019849
:100760008847296A824688470028F6D1BAF1FF3FB8
:100770000CD024F4C064002E19DD600614D5BAF143
:100780002B0F09D0BAF12D0F0ED103E0584604B05B
:10079000BDE8F09F44F48064A9697F1C01988847F4
:1007A000761E8246002E02DDBAF1300F03D0B9F179
:1007B000000F26D032E0A969761E44F400747F1C35
:1007C000019888478246002E05DDBAF1780F06D0E1
:1007D000BAF1580F03D0B9F1000F10D01EE0B9F1F3
:1007E000000F02D0B9F1100F18D1A969761E24F4B8
:1007F00000747F1C019888478246102002E0082080
:1008000000E00A20814609E008FB0908A969761E74
:1008100044F400747F1C019888478246002E05DD51
:100820004946504600F044F80028EDDAE96901989D
:100830008847A00502D46FF00100A8E7E00725D1A2
:10084000600613D5600502D5C8F1000000E04046FF
:1008500029680A1D2A600968220501D5087015E07B
:10086000220701D5088011E008600FE02868011D0B
:1008700029600068210502D580F8008006E0210784
:1008800002D5A0F8008001E0C0F8008038467EE77D
:10089000202A04DB203A21FA02F00021704721FAD5
:1008A00002F3D040C2F1200291400843194670473C
:1008B0003A2800D2303820F02002412A01D3A2F198
:1008C0003700884201D34FF0FF307047026811446F
:1008D0001378016018467047D1600449516104499A
:1008E000116200211161114600F036B8CD080000F8
:1008F000A1050000426842B1016811F8013B23B133
:10090000521EC0E90012184670470121C160881EBE
:10091000704742685AB1C368016843B983688B4223
:1009200005D0491E521CC0E90012002070474FF04C
:10093000FF307047064C074D06E0E06840F00103C9
:1009400094E8070098471034AC42F6D3FFF75CFCFC
:1009500038E1000058E100002DE9F34F8BB04FF073
:10096000000801F10C000C464FF0010B46460DF15A
:10097000080A01906269012101989047051E2DD057
:10098000252D2CD0216A8847C0B1626901210198C8
:100990009047216A88470028F7D1411E6269019873
:1009A000904700E0761CA1690B988847216A884728
:1009B0000028F7D1E1690B988847DBE7A1690B981C
:1009C00088470746A84201D1761CD3E7E1690B9816
:1009D00088477F1C02D1B8F1000F6FD046E1002795
:1009E00062693D463946019890472A2804D16269D8
:1009F0000121019890470125DFF884926269012165
:100A000001989047A0F130010A290AD24F45E5DC50
:100A100007EB870100EB4107303FDFD445F01005BD
:100A2000ECE7E90601D46FF000476C280AD04C28A7
:100A300014D0682815D06A280DD074281CD07A28C4
:100A40001AD01DE062690121019890476C2802D0FC
:100A500045F0040514E045F002050DE045F02005E1
:100A60000AE06269012101989047682802D045F0A8
:100A7000080505E045F40065626901210198904789
:100A8000C4E9015765283DD019DC58287AD00CDC20
:100A9000452837D004DC252826D0412831D131E043
:100AA00046282FD047282CD12CE05B2877D061280E
:100AB00028D063287CD0642823D15AE0D0E06F2866
:100AC00048D008DC66281DD067281BD0692821D0B3
:100AD0006E2816D127E0702845D0732868D0752875
:100AE00047D078280DD14DE0A1690B98884705467D
:100AF00025283FF469AFE1690B9888476D1C3FF4E6
:100B00006AAFB3E023466A466FF001000B99AFF37A
:100B100000809EE045F040006060A80723464FF04B
:100B2000000236D43EE0E8077FF447AF2068011D9D
:100B300021600068290501D506701BE7290701D54A
:100B4000068017E7A90703D5F117C0E9006111E78F
:100B500006600FE745F040006060A80723464FF0AD
:100B6000080216D41EE040F60E0125EA010060607E
:100B700016E045F040006060A80723464FF00A02E7
:100B800007D40FE045F040006060A80708D5234671
:100B900010226FF001000B99AFF3008059E007E0DD
:100BA000234610226FF001000B99FFF7CBFD50E0B8
:100BB0004FF000094F464B46632802D05B2806D011
:100BC00040E0E80601D40120A06001273AE0626914
:100BD0000121019890475E2805D14FF00109626913
:100BE000494601989047216939B900210A46534680
:100BF00043F82120491C0829FADBB0B3216969B9FF
:100C0000C11700EBD16253110AEB830122F01F02DE
:100C1000821A01200B68904003430B606269012136
:100C2000019890475D28E8D1B9F1000F09D0002064
:100C3000514651F82020D24341F82020401C08287A
:100C4000F7DB02AB224600976FF001000B99AFF380
:100C5000008000280CDA401C08D1BBF1000F05D041
:100C60004FF0FF300DB0BDE8F08FFFE74046F9E7E9
:100C7000E90701D108F1010806444FF0000B79E6BD
:100C8000CCCCCC0C70B58C1810F8015B15F00703B8
:100C900001D110F8013B2A1106D110F8012B03E015
:100CA00010F8016B01F8016B5B1EF9D12B0705D41D
:100CB0000023521E0DD401F8013BFAE710F8013B66
:100CC000CB1A921C03E013F8015B01F8015B521E82
:100CD000F9D5A142D8D3002070BD00002DE9F8431A
:100CE0000025DFF894804FF4807601242F4600958C
:100CF000304606F089FB38B1D8F80403204203D00F
:100D0000304606F077FB2543361D64007F1CB6B2E3
:100D1000082FEDD34FF4BE74204606F075FB48B1A2
:100D2000204606F067FB45F000456A460121002099
:100D300006F018FA15F0FF0F16D0012600242E42F7
:100D40000ED008EB8401D1F81005D1F81015C0F3CE
:100D500004200A4AC1F3014152F8242002B190470D
:100D60007600641C082CEAD3002D02DA684609F0EC
:100D7000FFFEBDE8F8830000006000404C07002043
:100D80001CB5824606F0E6FE06F06AFC0028FBD1A0
:100D900039485FEA0A05076839483A49374EA0EBF7
:100DA00001004FEAD0004FF0010808EB00447088C2
:100DB0001ED0002821D0204633A1AA6906F08EFD5E
:100DC0007088002819D0D5E90201CDE90001D5E9E4
:100DD0000023204632A106F099FD708868B1E869C9
:100DE0000090D5E9042320463BA106F086FD04E0EF
:100DF00018B1204642A106F06DFD1F48001D006895
:100E0000800705D5708818B120464A4906F062FD72
:100E1000DFF82491002500BF08FA05F0384208D019
:100E200059F825202AB1708818B1204643A106F050
:100E300055FD6D1C1A2DEFD3380608D5708830B1DA
:100E40000D480C30026820463FA106F047FD3804EB
:100E500008D5708830B1084810300268204642A199
:100E600006F03CFD0448C8300068C00700D000BE52
:100E7000504600F087F8000028ED00E02003002035
:100E800040E20000B8E1000048415244204641558C
:100E90004C54206174203078253038580000000010
:100EA000202052303A2020307825303858202052E7
:100EB000313A2020307825303858202052323A20DC
:100EC00020307825303858202052333A202030788E
:100ED000253038580000000020205231323A2030AE
:100EE000782530385820204C523A20203078253050
:100EF000385820205053523A203078253038580046
:100F0000537461636B2076696F6C6174696F6E3ABC
:100F100020737461636B20706F696E746572206FEB
:100F200075747369646520737461636B20617265A5
:100F3000612E0000B0CF0000B00100204361757346
:100F4000653A2025732E00004D656D4D616E616719
:100F500065204661756C7420416464726573733AF0
:100F60002030782530385800427573204661756C02
:100F70007420416464726573733A20307825303888
:100F800058000000BFF34F8F05480168054A01F47F
:100F9000E06111430160BFF34F8F00BFFDE7000028
:100FA0000CED00E00400FA0510B508F041F9BDE8C9
:100FB000104007F0F7BE000002490248091F096807
:100FC00000680847A801002000B54FF080500022BB
:100FD000D0E94C100D2901D0102907D14FF08043E2
:100FE000C3F80C21C3F81021534B1A600D2901D00E
:100FF000102955D1514A1268514B1A604F4A121D9F
:1010000012681B1D1A604D4A083212681B1D1A60B7
:101010004A4A0C3212681B1D1A60484A1032126884
:101020001B1D1A60454A143212681B1D1A60434A80
:1010300018321268424B20331A60404A1C32126840
:101040001B1D1A603D4A203212681B1D1A603B4A64
:10105000243212681B1D1A60384A283212681B1D80
:101060001A60364A2C3212681B1D1A60334A30321D
:101070001268334B40331A60304A343212681B1DF9
:101080001A602E4A383212681B1D1A602B4A3C32F5
:1010900012681B1D1A60294A403212681B1D1A6013
:1010A0000D2901D0102906D1264A1368DB0702D08A
:1010B0006FF0010313604FF010220D2902D01029A8
:1010C00004D00DE060B1012805D109E040B101284C
:1010D00006D0022804D0D2F808021749203108604F
:1010E000D2F80002002803DBD2F8040200281EDA3E
:1010F000012009F079FC1221C2F80012124803689D
:10110000002BFCD0C2F8041201680029FCD000209A
:1011100009F06AFCBFF34F8F0C4801680C4A01F4D8
:10112000E06111430160BFF34F8F00BFFDE70A4943
:101130000848086000BD00003805004004040010A5
:1011400020C500400004004000E401400CED00E038
:101150000400FA050090D003B802002010B5054C39
:10116000206818B904A1252000F0A6FB2068BDE87E
:1011700010400047100100202E2E5C2E2E5C2E2EDB
:101180005C2E2E5C2E2E5C2E2E5C6D6F64756C6555
:10119000735C6E7266785C647269766572735C7398
:1011A00072635C7072735C6E7266785F7072732EBD
:1011B000630000002DE9F0411A48D0F804530026DE
:1011C00001240FE095FAA5F0B0FA80F7B80000F519
:1011D000807007F019FD10B104FA07F0064304FA15
:1011E00007F08543002DEDD1C6F3C05726F4000566
:1011F000DFF834800AE000BF95FAA5F0B0FA80F677
:1012000058F82600804704FA06F08543002DF3D1F4
:101210000AF046FC002F03D0BDE8F04102F05EBEAC
:10122000BDE8F08100700240F4C70000C11700EB78
:10123000D161074B4A1153F8222021F01F01411AB6
:1012400001208840024201D00120704700207047F1
:1012500000E100E002E008C8121F08C1002AFAD12C
:1012600070477047002001E001C1121F002AFBD126
:101270007047022000F080BB70B50B4D686820B944
:101280000AA140F20F1000F017FB002406E0686886
:10129000012110F8340007F0E9FD641C287884422D
:1012A000F5D3002070BD0000300100202E2E5C2EF2
:1012B0002E5C2E2E5C2E2E5C2E2E5C2E2E5C636FF2
:1012C0006D706F6E656E74735C6C69627261726969
:1012D00065735C627574746F6E5C6170705F62756B
:1012E00074746F6E2E630000F8B516460C46054602
:1012F0000A2A01D20720F8BD07F028FF18B907F025
:10130000EBFE0028F7D1134F102113487D603C708D
:10131000BE60FFF7C3F90020C7E904000F4E0DE0DF
:1013200005EBC4003168009181788DF801100078D8
:101330000B4A694607F016FE0028DCD1641EE4B2B1
:10134000EED2BDE8F84005480021064A001D00F035
:10135000D7B8000030010020300A002090C80000FB
:101360007D430000993700002DE9FE4314460F46E7
:10137000804672B606F0EEFB06F072F90028FBD14B
:101380002448254A6FF48041A0EB0200204E4FEA2A
:10139000D0004FF0010218EB010102EB00451ED016
:1013A0007088012912D020B128463A461BA106F0C8
:1013B00095FA20480068C00700D000BE224603B05E
:1013C00039464046BDE8F04300F062B80028F0D04E
:1013D000D4E90032284618A106F087FAE9E77088B8
:1013E0000028E6D0A06807F00BFA0346D4E9000114
:1013F000CDE900100297284616A1A26806F090FADF
:1014000070880028D5D028461CA106F063FAD0E7E2
:101410003403002068E20000B8E10000554E4B4E56
:101420004F574E204641554C54206174203078254A
:1014300030385800F0ED00E0415353455254494FC5
:101440004E204641494C45442061742025733A257D
:10145000750000004552524F52202575205B2573C0
:101460005D2061742025733A25750D0A5043206173
:10147000743A20307825303878000000456E6420BA
:101480006F66206572726F72207265706F72740081
:1014900008B501238DF800309DF80030144B18601A
:1014A00059609A606FF48041401807D001280FD12D
:1014B000DA60D86800689861D86807E01A6118692E
:1014C0008068586118690068986118694068D86137
:1014D000186858689868D868186958699869D86908
:1014E00072B600BF9DF800000028FBD162B608BDAF
:1014F000400A0020014802F0DBB900007001002022
:1015000070B514460E46050004D10DA14FF40D70C0
:1015100000F0D2F95CB128684FF0FF32012E44612F
:10152000C0E902220AD000210161002070BD04A19F
:1015300040F2352000F0C0F9072070BD0121F3E72B
:101540002E2E5C2E2E5C2E2E5C2E2E5C2E2E5C2ED5
:101550002E5C636F6D706F6E656E74735C6C696228
:101560007261726965735C74696D65725C617070DB
:101570005F74696D6572322E6300000038B51148E2
:1015800008235822416800910F49006804F074F85C
:10159000002815D10D4A69460D4802F08DF9040066
:1015A0000ED101210A4802F080FA0123094A1946A6
:1015B000074802F033F9064901200839087020462F
:1015C00038BD000098C80000600A0020E5AE0000A9
:1015D00070010020FFFF7F0070B516460D46040025
:1015E00004D113A140F2452000F066F9002000F07C
:1015F0007FF8D4E90201C04370EA010004D0002062
:1016000000F0A4F8002070BD02F09EFE401941F1E8
:101610000001C4E90201002000F098F8A6612069E9
:1016200000B125612146BDE87040002009F084BF6B
:101630002E2E5C2E2E5C2E2E5C2E2E5C2E2E5C2EE4
:101640002E5C636F6D706F6E656E74735C6C696237
:101650007261726965735C74696D65725C617070EA
:101660005F74696D6572322E6300000010B504006E
:1016700004D110A140F26D2000F01EF9002000F00E
:1016800037F8D4E90201C04370EA01000CD04FF0F2
:10169000FF30C4E90200002000F058F82146BDE800
:1016A0001040012009F048BF002000F04FF8002052
:1016B00010BD00002E2E5C2E2E5C2E2E5C2E2E5C7D
:1016C0002E2E5C2E2E5C636F6D706F6E656E747364
:1016D0005C6C69627261726965735C74696D657274
:1016E0005C6170705F74696D6572322E630000001A
:1016F00010B509F08FFB012803D004A11D2000F0D4
:10170000DBF8BDE8104000F04FB800002E2E5C2E34
:101710002E5C2E2E5C2E2E5C2E2E5C2E2E5C636F8D
:101720006D706F6E656E74735C6C69627261726904
:1017300065735C7574696C5C6170705F7574696CFD
:101740005F706C6174666F726D2E630010B509F086
:1017500061FB012803D004A12B2000F0ADF8BDE807
:10176000104000F029B800002E2E5C2E2E5C2E2E8C
:101770005C2E2E5C2E2E5C2E2E5C636F6D706F6E59
:10178000656E74735C6C69627261726965735C75B5
:1017900074696C5C6170705F7574696C5F706C61AA
:1017A00074666F726D2E630072B602480168491C40
:1017B00001607047A001002003490868401E0860CE
:1017C00000D162B670470000A001002070B5054648
:1017D00008680C46411C04D005F0E5FD206805F0C2
:1017E00095FC6068411C02D0002105F07DFC296851
:1017F000A069C1F82405607D227D29681043C1F8E5
:101800006C05D4E900122868C0F81425C0F80C153E
:10181000207D012814D1A068411C02D0002105F0D0
:1018200063FCE068411C04D005F0BDFDE06805F0F4
:101830006DFCD4E902122868C0F80825C0F810151C
:1018400070BD70B5054608680C46411C04D005F013
:10185000B4FD206805F064FC6068411C02D00021E2
:1018600005F04BFC2968A069C1F82405607D217D45
:101870002A680843C2F86C05D4E900122868C0F849
:101880000C15C0F81425207D012814D1A068411C36
:1018900002D0002105F031FCE068411C04D005F0C5
:1018A0008CFDE06805F03CFCD4E902122868C0F821
:1018B0000825C0F8101570BD1CB56A46CDE90001B9
:1018C000002144F20200FFF74FFD1CBDF0B50022DD
:1018D0000D4BCA60C1E901230C4B0D4D1446EE1AA5
:1018E0000A600CE003EB0215EF683F79FF2F05D08B
:1018F000A04202D1A8680860F0BD641C521CB2EB83
:10190000161FEFD3F0BD000064CC000098E100008A
:10191000B8E10000102802D31038C0B2704740F080
:10192000800070472DE9FC410646C0074FF00005D6
:101930000ED0104F00240122385D0095002311467F
:10194000019505F05BFB641C042CF4D300F0D2F885
:10195000B0070DD5074E0024361D0022305D03234D
:1019600000951146019505F049FB641C042CF4D345
:10197000BDE8FC8134C7000038B50446042803D311
:101980000BA13920FFF798FF1548005D00906846CD
:1019900005F0FEFBD0F80425009B0121994021EAC7
:1019A0000203C0F808351140C0F80C1538BD00001E
:1019B0002E2E5C2E2E5C2E2E5C2E2E5C2E2E5C2E61
:1019C0002E5C636F6D706F6E656E74735C626F61B9
:1019D0007264735C626F617264732E630000000056
:1019E00034C7000010B50446042803D305A1212004
:1019F000FFF762FF0F480121005DBDE8104005F0D0
:101A0000E6BC00002E2E5C2E2E5C2E2E5C2E2E5C54
:101A10002E2E5C2E2E5C636F6D706F6E656E747310
:101A20005C626F617264735C626F617264732E6377
:101A30000000000034C7000010B50446042803D39A
:101A400005A11B20FFF738FF0F480021005DBDE80E
:101A5000104005F0BCBC00002E2E5C2E2E5C2E2EFD
:101A60005C2E2E5C2E2E5C2E2E5C636F6D706F6E66
:101A7000656E74735C626F617264735C626F6172D5
:101A800064732E630000000034C7000038B50446BC
:101A9000042803D30AA11420FFF70EFF1448005DA9
:101AA0000090684605F074FBD0F804050099C84022
:101AB00010F0010000D0012080F0010038BD0000CE
:101AC0002E2E5C2E2E5C2E2E5C2E2E5C2E2E5C2E50
:101AD0002E5C636F6D706F6E656E74735C626F61A8
:101AE0007264735C626F617264732E630000000045
:101AF00034C7000010B500242046FFF773FF641CB4
:101B0000042CF9D310BD10B500242046FFF794FF34
:101B1000641C042CF9D310BD10B50246064B4FF0DF
:101B2000FF3000215C5C944201D1084610BD491C85
:101B30000429F7D310BD000038C700002DE9F04795
:101B40000D468146FFF7E8FF0446042836D2DFF849
:101B500074801B481C4EA8F10C0725B3012D0ED034
:101B6000022D2BD104EB440030444578002D25D0C4
:101B7000B968002922D02846BDE8F047084704EBA1
:101B80004401755C0E44717849B10E4A4FF48041AE
:101B9000093A8068FFF720FD08B987F80390B1780B
:101BA00008F80410E2E78068FFF760FD04EB4401E9
:101BB000314418F804008D78A842D7D0BDE8F087EA
:101BC0003CC70000780000202C0700200149086075
:101BD00000207047E000002070B50023042810D2D8
:101BE0000D4D00EB4004012A02D101290CD0002246
:101BF000094E00EB4000304461B1012906D00229B2
:101C000006D00723184670BD0E30C2B22A55F9E738
:101C10004270F7E78270F5E72C07002001220749A0
:101C20000C2806D00E2806D0162801D100200870F6
:101C30007047CA7170470A70704700004C0000205E
:101C400070B506461E480024C0E90161B00720D5E2
:101C50000025012211462846FFF7BEFF6D1C0446F1
:101C6000042D02D2002CF4D013E094B940F23332A8
:101C700004211448FFF738FB04000AD1FFF7FCFAEF
:101C8000040006D10F48104A0021001FFFF738FC5E
:101C90000446F00712D00120FFF744FE74B909484A
:101CA0000A4A00210C38FFF72BFC040006D1054836
:101CB000074A01210838FFF723FC0446204670BD7F
:101CC0006C00002048C70000DD1F0000454A0000EE
:101CD000731200002DE9F05F6E4C05460026607817
:101CE000B34618B184F801B002F094FE6A4F4FF485
:101CF0007A694FF4C87A4FF00108182D69D2DFE8ED
:101D000005F00C1313384754696E727B727BC584DF
:101D100084848484B3B6B9BCC5C502F07BFE386840
:101D2000FFF7A4FC06465CE00020FFF7AFFE0028AA
:101D30004FF0000008D0FFF755FE022D02D14FF4FE
:101D4000E16008E0484606E0FFF776FE022D01D18B
:101D5000C82000E05046410CC0034FF47A7280184E
:101D600041F10001257052000023FEF7D5FB01462A
:101D70002AE00020FFF78AFE00284FF0000004D080
:101D8000FFF730FE4FF44870E5E7FFF755FEDFE759
:101D90000020FFF77BFE00284FF0000002D0FFF785
:101DA00021FECFE7FFF748FED4E70020FFF76EFEE5
:101DB00000284FF0000002D0FFF714FE01E0FFF70B
:101DC0003BFE257040F6CD4100223868FFF704FC49
:101DD000064646E00020FFF7CFFD257008E0002012
:101DE00051E025703DE084F801800120FFF7C4FD3B
:101DF000002240F26661E8E784F801800120FFF7E5
:101E0000BBFD00224FF40051DFE77868FFF72EFC9E
:101E10000646D5F1110000D02EB10220FFF7E2FDF9
:101E200084F802B01DE0012816D980B2C8214843C9
:101E3000C117C90341EA5041C0034FF47A728018B8
:101E400041F1000152000023FEF766FB014600222B
:101E50007868FFF7C1FB06460220FFF7EDFD84F826
:101E600002803046BDE8F09F02F0D4FDB9E702F0F1
:101E7000D1FDB4E702F0CEFD04E002F0CBFD00207E
:101E8000FFF7DAFD0120FFF7D7FDAAE7FFF73BFEDA
:101E9000A7E700006C0000203CC700002DE9F047D8
:101EA0000546861C91460F464FF0010A0020FFF7B9
:101EB0001FFC1B4C04F21C4860683860D4E9010127
:101EC000184F401A3968081A0EE00121404603F005
:101ED0001EFC03F041F80146404603F018FCD4E92B
:101EE0000101401A3968081A401C8642EDD8B9F140
:101EF000000F03D0052065F3891002E0062065F38A
:101F00009F5061683A68114004EB8101C8606068C5
:101F1000304460600020FFF719FC5046BDE8F087B0
:101F2000500C00203C02002070B50D4604460A29E2
:101F300002D10D21FFF7F8FFA0682268411CA160C3
:101F40001554D4E90101814204D32046BDE8704014
:101F500004F0FEBE70BD0000044881684068814204
:101F600001D101207047002070470000500C002074
:101F700070B50346094800210478426806E000BFB6
:101F800002EBC10005789D4207D0491CA142F7DB56
:101F900003A16220FFF790FC002070BD30010020FB
:101FA0002E2E5C2E2E5C2E2E5C2E2E5C2E2E5C2E6B
:101FB0002E5C636F6D706F6E656E74735C6C6962BE
:101FC0007261726965735C627574746F6E5C617066
:101FD000705F627574746F6E2E630000007802216A
:101FE000FFF7ACBD05494FF0FF32082841F820202B
:101FF00002D3084480F84820704700004C070020B6
:10200000F0B54FF0FF3512B10023082601E0082398
:102010000C260C4C05E000BF54F823707F1C04D044
:102020005B1CB342F8D32846F0BD26185DB286F893
:10203000305044F82310002AF5D1E11881F8480007
:10204000F1E700004C0700200249084490F93000F5
:10205000704700004C07002070B5816804468A7FF5
:10206000002A4DD0C87F00284AD0121A0844D5B2A1
:1020700000F120016A1C1F30FEF7E9FAA068C17F59
:10208000491EC177A068817F491E81778DB30822E0
:102090001C49206904F01CFE204603F0C5FA817833
:1020A000C078814211D1A06817A2C17F43180821CE
:1020B0002046203304F0ECF8204600F03DF9294694
:1020C0002046BDE8704001F075BA204600F0A0F946
:1020D000204600F031F9A0680BA2C17F4318082107
:1020E0002046203304F0D4F82046BDE8704000F0CC
:1020F00059B92069BDE87040044A03A104F0E8BD65
:1021000070BD0000342300002573000071CA000078
:1021100070B504468068827FC17F521A12F0FF05B5
:1021200048D0084400F121012A462030FEF78FFAFA
:10213000A068817F491E8177204603F075FA817877
:10214000C07881420CD1A0681BA2C17F431808212E
:102150002046203304F09CF840F26946C4B913E0ED
:10216000204600F055F9204600F0E6F8A06812A2DB
:10217000C17F431808212046203304F089F8204607
:10218000BDE8704000F00EB90CA13046FFF794FB9B
:10219000206918B909A13046FFF78EFB154A06A140
:1021A000206904F095FD6D1EE9B22046BDE870403F
:1021B00001F000BA70BD0000257300002E2E5C2EC9
:1021C0002E5C2E2E5C2E2E5C2E2E5C2E2E5C636FD3
:1021D0006D706F6E656E74735C6C6962726172694A
:1021E00065735C636C695C6E72665F636C692E63B9
:1021F0000000000075CA00002DE9F0410446806827
:102200000F46D0F84811C27F11F00106817FA1EB83
:102210000203DDB20BD07F2901D3002D7ED0A06850
:10222000C17F0844002180F8207066B113E07F2947
:102230007CD2002DF3D0831803F120012A46481CDC
:10224000FEF705FAEBE7A068827F521CD2B28277D4
:10225000A068203281544DB3204603F0E5F981781F
:10226000C07881420ED1A06831A2C17F43180821F5
:102270002046203304F00CF8A81BC1B2204601F020
:1022800099F921E0204600F0C3F8A06828A2C17F98
:10229000431808212046203303F0FAFF204600F0BF
:1022A00081F80121204601F05FFA0DE03EB1A068FF
:1022B000827F521CD2B28277A068203281543A4683
:1022C0001CA1206904F004FDA168C87F401CC877E8
:1022D000204601F05CF90028204603D0BDE8F0411B
:1022E00001F074B902F01DF800281FD0204603F059
:1022F0009BF90546C078A978401A401EC1B2204615
:1023000001F0E6F8204601F061F9E878A978401A72
:10231000C1B2204601F034FA287800E006E0401E01
:10232000C1B22046BDE8F04101F01EBABDE8F0811F
:10233000257300002563000070B504004FF4D775C5
:1023400003D108A12846FFF7B7FA206918B905A1FB
:102350002846FFF7B1FA2069BDE870400F4A10A186
:1023600004F0B6BC2E2E5C2E2E5C2E2E5C2E2E5C27
:102370002E2E5C2E2E5C636F6D706F6E656E7473A7
:102380005C6C69627261726965735C636C695C6ED6
:1023900072665F636C692E630000000069CA00000A
:1023A0002573000070B504004FF4DD7503D108A15A
:1023B0002846FFF781FA206918B905A12846FFF7DA
:1023C0007BFA2069BDE870400F4A10A104F080BC80
:1023D0002E2E5C2E2E5C2E2E5C2E2E5C2E2E5C2E37
:1023E0002E5C636F6D706F6E656E74735C6C69628A
:1023F0007261726965735C636C695C6E72665F635F
:102400006C692E630000000063CA000025730000A1
:1024100070B504004FF4DA7503D108A12846FFF720
:102420004BFA206918B905A12846FFF745FA20693B
:10243000BDE870400F4A10A104F04ABC2E2E5C2E5D
:102440002E5C2E2E5C2E2E5C2E2E5C2E2E5C636F50
:102450006D706F6E656E74735C6C696272617269C7
:1024600065735C636C695C6E72665F636C692E6336
:102470000000000060CA0000257300002DE9F04F45
:102480004FF0000995B005464F464C4600F05AFF04
:10249000284602F0ABF8284601F026F8284601F05D
:1024A00076F810B9284601F091F8AA680C2301A922
:1024B0000EA8203202F010FF03460E9840B15BB127
:1024C0004CA20221284603F0E3FE15B0BDE8F08FD0
:1024D000284601F07BF8F8E74C484B490026A1EB71
:1024E00000080DF1040A834613E008D348A00090C9
:1024F0004CA202212846019B03F0CAFEE5E70BEB44
:10250000C604606801685AF82900FEF7D9F818B1C6
:10251000761CB6EBD80FE8D9207820B143A140F65D
:102520007F10FFF7C9F900200F90A9684860886004
:10253000C86008616168C86828B14AC9AA68C2E968
:102540000360C2E90113606809F101040026D0F8B4
:1025500008800E98844235D25AF8240041A1FEF733
:10256000AFF840B35AF824003FA1FEF7A9F810B322
:1025700010A832460090761C0FAB2146404600F072
:1025800073FEFEB10F98E8B101685AF82400FEF717
:1025900097F80028DDD10F98C16839B190E848104C
:1025A000AA682746C2E903C1C2E901360026641CB5
:1025B000D0F80880CDE7A868D0F8481141F00201B2
:1025C000C0F84811A868036933B10E980AEB870276
:1025D000C11B2846984704E025A20221284603F0A3
:1025E00057FEA868D0F8481121F00201C0F8481140
:1025F0006BE700006E6F74207465726D696E6174B4
:1026000065643A2025630A0098E1000058E1000063
:102610003A20636F6D6D616E64206E6F7420666F1B
:10262000756E6400257325730A0000002E2E5C2E43
:102630002E5C2E2E5C2E2E5C2E2E5C2E2E5C636F5E
:102640006D706F6E656E74735C6C696272617269D5
:1026500065735C636C695C6E72665F636C692E6344
:10266000000000002D6800002D2D68656C700000D2
:10267000506C65617365207370656369667920616C
:1026800020737562636F6D6D616E642E0A000000C9
:102690008068D0F84801C0F3C00070472DE9F041D0
:1026A0000446C0688EB00D46406800263246006879
:1026B00001A905F089FB18B100200EB0BDE8F0813A
:1026C0006DB1019805F004FBA168D1F83801401CF8
:1026D000C1F8380100F0070001287AD10126204610
:1026E00002F0A2FF05468078012804D9401EC1B23D
:1026F000204601F045F82878012804D9401EC1B2CF
:10270000204600F057FF2046FFF716FE2EB132A2FA
:102710000221204603F0BCFD5BE04FF000080023DF
:10272000082202A9019805F0E3FA04980590BDF883
:102730000C00ADF81800BDF80E00ADF81A008DF8C9
:102740001D800298082700F00300012802D002280B
:1027500018D032E002983B46860AC0F3C2008DF8DA
:102760001C00029808A9C0F38315AA00019805F07F
:10277000BFFA2069009005AB2A4608A9304605F04B
:10278000FDF91AE00298850DC0F3C2008DF81C0017
:10279000082D01D22E4600E008263B46324608A905
:1027A000019805F0A5FA3744AD1B05AA314608A8E3
:1027B000236905F0C3F8002DEAD1019805F088FAE5
:1027C000E068002201A94068006805F0FDFA0028D1
:1027D000A5D0012071E700004C6F7374206C6F6707
:1027E00073202D20696E637265617365206C6F675D
:1027F000206261636B656E64207175657565207319
:10280000697A652E0A0000002DE9F0411E46174640
:102810000D46040000D01DB909A1FD20FFF74CF8BA
:10282000606818B906A1FE20FFF746F860683346D5
:102830003A4601680C692946A446BDE8F041604764
:102840002E2E5C2E2E5C2E2E5C2E2E5C2E2E5C2EC2
:102850002E5C636F6D706F6E656E74735C6C696215
:102860007261726965735C636C695C6E72665F63EA
:102870006C692E63000000002DE9FC41002604462F
:102880000127019601AB012269462046FFF7BCFFF4
:102890000198002836D09DF800007F28F2D805F076
:1028A00091FAA068417821B101296FD002296ED137
:1028B0008DE09DF800500D2D09D00A2D07D0D0F8DD
:1028C0004821002161F38D12C0F8482122E0D0F8A0
:1028D0004811C1F3871129B1D0F84811C1F387110C
:1028E000A94217D1D0F8481165F38D11C0F84811ED
:1028F000A068817F41B12046FFF7C0FD022120463C
:1029000000F0F4F8BDE8FC81C0F84461204600F016
:102910005DFEF3E7092D1ED004DC002DB2D0082D9A
:1029200004D121E01B2D12D07F2D26D0FDF734FEDF
:102930000068405D10F03E0FA4D02046FFF7A8FECF
:1029400030B39DF800102046FFF756FC9AE7A168C7
:102950000120487096E72046FFF79AFE002891D0A4
:10296000204600F0DDF88DE72046FFF791FE0028B5
:1029700088D02046FFF770FB84E72046FFF788FEEB
:102980000028E3D02046FFF7C3FB7BE716E019E001
:10299000A1689DF80020887F7F28D7D2C87F0B18B8
:1029A000401CC87783F82020A068C17F084480F8C5
:1029B0002060A168887F401C887763E79DF800103D
:1029C0005B2901D0002100E0022141705AE700217B
:1029D00041702046FFF75CFE002893D09DF8000070
:1029E000422840D01BDC33287CD012DC312872D046
:1029F0003228ABD1A16803204870A068D0F84811F4
:102A0000D0F8482127EA010161F30002C0F848210B
:102A100038E7342856D0412898D1012124E04628AF
:102A200053D01BDC432823D044288FD1204602F00A
:102A3000FBFD05460078A979491C884202D1A97896
:102A4000012987D001284FF0010120462FD000F046
:102A5000B1FDA168C87F401EC87713E748283DD064
:102A60004C2889D1C9E70021204601F0A5FC09E7DF
:102A7000204602F0D9FD054600786978884203D1E6
:102A8000A978EA78914298D0697988424FF001019B
:102A9000204606D100F01CFD6979204600F08AFD31
:102AA00001E000F061FEA168C87F401CD4E700F09F
:102AB00067FE6979204600F057FEA068C17F491E75
:102AC000C177DFE6A16803204870204600F00CFDC6
:102AD000D8E607E0FFE7A16803204870204600F031
:102AE0002CFDCFE6A1680320487046E782680229E2
:102AF00011700CD18268002182F820108268D17791
:102B00008268917702A20321036803F0C1BB70477A
:102B100025730000002801D0FDF7CBBD70470000F1
:102B20002DE9F04F05460020A7B007461590064650
:102B300020900690A868817FC1F17F01C9B25FEA49
:102B4000010970D0C27F00F12001A030FDF77FFDA8
:102B5000A8680024C17F084480F8A040FDF71CFD50
:102B600021900168A8680C23C27F0244D27F895C4F
:102B7000C0F84441AA6801F0010A07A916A8A032CA
:102B800002F0AAFB0798FFF7C5FF00F0FF08A34675
:102B900017941894169818B15044401EB0426CD83F
:102BA000BAF1000F01D0002005E007A850F8260078
:102BB000FFF7B0FFC0B28046002419A8224600905B
:102BC000641C17AB3146584600F04EFB179800289E
:102BD0006CD0016807A8424650F8260001F006FFB5
:102BE0000028EAD018987F1CF0B117980068FFF70A
:102BF00091FF0699C0B2884200D90690B9F1000F42
:102C00002ED022A8009018AB31465846159A00F0F5
:102C10002BFB17980168189801EB08020168002047
:102C200001EB080316E08DE0601E20901798006805
:102C3000FFF770FFC0B20690A0EB080048450FDA1E
:102C4000C0B20CE013F800C0614506D1401C10F082
:102C5000FF0010D0115C0029F4D1814500D98146D4
:102C6000601E159017981890A7D266A204212846D6
:102C700003F00EFB1AE0FF20EFE7002419A822461C
:102C80000090641C17AB3146584600F0EDFAECB3E7
:102C90001798002856D0016807A850F82600FDF7BD
:102CA0000FFD0028EAD11798D0F808B0BBF1000F4B
:102CB00009D0179838B11699761CF6B201EB0A00C4
:102CC0008642FFF467AF002F3CD0012F43D0002194
:102CD0002846069A07F0D4FE209C0DF11C0A19A87C
:102CE00022460090641C17AB3146584600F0BCFAEF
:102CF0001798424601685AF8260001F077FE40B165
:102D000017987F1E069A0168284600E01DE007F02C
:102D1000B7FE002FE3D146A2032128462B6803F01B
:102D2000B7FAAB6843A208212846203303F0B0FA73
:102D3000284600F0E3FC18984A46016828464144BA
:102D400000F05AFB27B0BDE8F08F2EA204212846E0
:102D500003F09EFAF6E79BF8000038B119A800903E
:102D600018AB31465846159A00F07EFA189800685C
:102D7000FFF7D0FE404506D018984A46016828461D
:102D8000414400F039FB2198A9680268C87F0B18FC
:102D900093F82030D25CD20715D0897F8842D1D2F7
:102DA000284602F041FC8478A868C17F491CC1779D
:102DB000284602F039FC8078A0421FD10121284624
:102DC00000F0D2FCBEE7D1F84801C00711D0D1F81D
:102DD000480120F00100C1F8480120212846FFF7F2
:102DE0000BFAA868D0F8481141F00101C0F8481169
:102DF000A8E720212846FFF7FFF9A3E7284600F0BF
:102E0000E5FB9FE75461622066756E6374696F6EBF
:102E10003A20636F6D6D616E647320636F756E74BD
:102E20006572206F766572666C6F7765642E0A0036
:102E30000A2573002573000070B505460C0004D107
:102E400007A140F60B20FEF737FD002D06D0A06845
:102E5000D0F8481141F02001C0F8481170BD0000C1
:102E60002E2E5C2E2E5C2E2E5C2E2E5C2E2E5C2E9C
:102E70002E5C636F6D706F6E656E74735C6C6962EF
:102E80007261726965735C636C695C6E72665F63C4
:102E90006C692E630000000070B5044640680D4662
:102EA00090F8280030B1A0680068FEF7DFFB08B199
:102EB00008280CD1012685B1606903F0FDFE616828
:102EC00000220831606903F0B3FE08B1062070BD2E
:102ED000606880F82960002070BD606890F8280064
:102EE00048B9074A0021A068FEF70AFB616800287C
:102EF00081F82860F0D12046BDE8704008F0DEB8C7
:102F00009DB4000070B5044640680D4602606068DC
:102F100000224360606880F82820606880F82920DB
:102F2000606820220830FDF792FB2C61074A294691
:102F3000606903F07DFE050005D1E06805F048FBFF
:102F4000206905F045FB284670BD0000DDB5000096
:102F50002DE9F0411C0016460F46054603D106A197
:102F6000D220FEF7A9FC266022463946E868BDE873
:102F7000F04105F0E5B900002E2E5C2E2E5C2E2EC1
:102F80005C2E2E5C2E2E5C2E2E5C636F6D706F6E31
:102F9000656E74735C6C69627261726965735C639F
:102FA0006C695C756172745C6E72665F636C695F9C
:102FB000756172742E63000010B50446406903F019
:102FC0007BFEA0680068BDE81040FEF74FBB000024
:102FD0002DE9FC411D0016460F46044603D11AA1F7
:102FE000E620FEF769FC2E602A463946206905F086
:102FF00013FA050025D16069234A0178515C19B1A3
:10300000001D06F01BFE02E00C3006F0E3FBC0B929
:10301000FF20009001236A4601A9206905F076FA95
:1030200078B900980199C2B2606903F035FE05468F
:10303000606890F8290020B11DB92069009905F059
:1030400051FA2846BDE8FC812E2E5C2E2E5C2E2ED9
:103050005C2E2E5C2E2E5C2E2E5C636F6D706F6E60
:10306000656E74735C6C69627261726965735C63CE
:103070006C695C756172745C6E72665F636C695FCB
:10308000756172742E630000E80000202DE9F8439A
:103090001F4614468846050002D0B8F1000F03D140
:1030A0001EA1CE20FEF708FC6868006818B91BA1B5
:1030B000CF20FEF701FC002628E000BF686808EB7F
:1030C00006016B460268D2F80CC02246E04718B1F0
:1030D00012A1D920FEF7F0FB0098844203D20FA181
:1030E000DA20FEF7E9FB00980644241A70B9A868B4
:1030F000017803290AD000BFD0F848118906FBD512
:10310000D0F8481121F02001C0F84811002CD5D189
:10311000002F01D000983860BDE8F8832E2E5C2E79
:103120002E5C2E2E5C2E2E5C2E2E5C2E2E5C636F63
:103130006D706F6E656E74735C6C696272617269DA
:1031400065735C636C695C6E72665F636C692E6349
:103150000000000070B5084C050009D0103421684B
:10316000002907D008682060496828468847F6E7A4
:103170000834F4E770BD000038070020054A01213B
:1031800020B1012805D19170FFF7E4BF51700020F4
:10319000FAE770473807002038B5094C1546206813
:1031A00018B908A10920FEF787FB6A4613A16868D1
:1031B000FDF7ACFA009821680E30C0B2884738BDE0
:1031C000E00000202E2E5C2E2E5C2E2E5C2E2E5C1F
:1031D0002E2E5C2E2E5C636F6D706F6E656E747339
:1031E0005C6C69627261726965735C6273705C6267
:1031F00073705F636C692E6300000000257500002A
:1032000038B5094C1546206818B908A11320FEF7F7
:1032100053FB6A4613A16868FDF778FA00982168A5
:10322000C0B2884738BD0000E00000202E2E5C2E82
:103230002E5C2E2E5C2E2E5C2E2E5C2E2E5C636F52
:103240006D706F6E656E74735C6C696272617269C9
:1032500065735C6273705C6273705F636C692E632C
:1032600000000000257500002DE9F05F1C000A9F9A
:1032700015468846064604D121A14FF48970FEF711
:103280001BFB27B91EA140F21310FEF715FB4FF0F0
:103290000009B8F1000F0BD01EB3307838B3726854
:1032A0003946284690473868D8B12760BDE8F09F76
:1032B00021492248A1EB0008B5EBD80F14D2DFF862
:1032C00080A00026834609E00BEBC60778680168FA
:1032D0005AF82500FDF7F4F920B1761CB6EBD80FAB
:1032E000F2D301E0786808E0C4F80090DEE7706887
:1032F00000EB051001680029F6D02060D6E7000039
:103300002E2E5C2E2E5C2E2E5C2E2E5C2E2E5C2EF7
:103310002E5C636F6D706F6E656E74735C6C69624A
:103320007261726965735C636C695C6E72665F631F
:103330006C692E630000000098E1000058E1000075
:10334000BC0200202DE9F04185680646002495F86E
:103350002000002811D0A046FDF71EF9074600689E
:1033600004F1200104F10104695CE4B2415CC90785
:1033700005D0002CF4D185F82080BDE8F081641ED2
:1033800014F0FF040FD0A87F021B04F120002918BD
:1033900005F12000521CFDF75AF9B168887F001B27
:1033A0008877B168C877B2683D68937FD0181F30BE
:1033B0000446002102E0491CC9B2401E0778EF5DB7
:1033C000FF07F8D18442D8D05B1A203302F803807B
:1033D000B268907F401A9077B168C877CDE710B592
:1033E000D0E90234D1E90220D11AA04101D3012051
:1033F00010BD002010BD00002DE9F04115460F0062
:10340000044604D123A140F22D60FEF755FAA068CE
:10341000817FC27F8B1A2944DEB27F2937D8002DE5
:1034200035D0104400F1200105F120021044721C37
:10343000FDF70DF9A0682A46C17F084439462030BF
:10344000FDF705F9A0682030FFF764FBA1681FA213
:103450008877A068C17F431808212046203302F0F6
:1034600017FFA068C17F2944C177204600F08FF87C
:1034700018B9204600F055FF10B1204600F0A6F81C
:10348000002E04D02046BDE8F04100F037B9BDE879
:10349000F08100002E2E5C2E2E5C2E2E5C2E2E5CDB
:1034A0002E2E5C2E2E5C636F6D706F6E656E747366
:1034B0005C6C69627261726965735C636C695C6E95
:1034C00072665F636C692E63000000002573000064
:1034D000002904D00A46006901A103F0F9BB704736
:1034E0001B5B25644200000070B5054602F09CF8A5
:1034F000044600786178884203D1A078E178884258
:103500001AD0E178A078814204D9081AC1B22846BD
:10351000FFF7DEFF20786178884205D9401AC1B2F2
:10352000284600F047F804E0081AC1B2284600F027
:103530001BF9A868817FC17770BD70B5054602F0A0
:1035400073F8044601788079401C814202D1A0784A
:1035500001281BD0A078012804D9401EC1B22846FA
:1035600000F00EF92078A179884206D9401A401E51
:10357000C1B2284600F01EF805E0081A401CC1B28E
:10358000284600F0F1F8A9680020C87770BD10B592
:1035900004460068FFF7BEFA0146A068C27F407E7D
:1035A0001144B1FBF0F200FB121008B1002010BD75
:1035B000012010BD002904D00A46006901A103F0D2
:1035C00087BB70471B5B256444000000006901A1B4
:1035D00003F07EBB0A0000002DE9FC4700260446EC
:1035E0008DF8046080683546B146B0468021A03031
:1035F000FDF754F84049206903F06AFB206903F0A5
:10360000A7FB00276B46012201A92046FFF7FCF823
:103610000098D8B19DF804001B2806D0A16891F845
:10362000A0101B29EED152281FD0A26808F1A001DA
:10363000505408F1010000F0FF08B8F1090F0AD951
:10364000A168042081F8A090BDE8FC872A494FF6C4
:10365000C0101031884700980028D3D17F1CBFB21A
:10366000B7F57A7FCED30D20EEE7A16808F1A00070
:103670004A4601F80090A16891F8A1005B2803D0A8
:1036800081F8A0200B20DFE702206FF02F0309E074
:1036900005EB850503EB4505401C3D44C0B2ADB2CA
:1036A000802808D200F1A007CF5D3B2FF0D1401C4D
:1036B000C0B2802809D30C20C6E700BF06EB8606FF
:1036C00003EB46063E44B6B2F1E700F1A007CF5D3A
:1036D000002FF3D1FA20FA2E01D9087500E00E75FB
:1036E000FA2D02D9A168887501E0A0688575A068E7
:1036F00080F8A0200020A7E781CA000070B5054629
:1037000001F092FF04468078E178884201D10126D9
:1037100000E000262846FFF73AFF18B9284600F0D7
:1037200000FE10B12846FFF751FF1EB160782178E6
:10373000401A12E0E078A178401AC1B2284600F0A1
:103740001FF820786178884206D9401AC1B228460D
:10375000BDE8704000F008B8081AC1B22846BDE8BC
:103760007040FFF727BF0000002904D00A46006917
:1037700001A103F0ADBA70471B5B25644300000054
:10378000002904D00A46006901A103F0A1BA7047DC
:103790001B5B25644100000070B500240F4D10E054
:1037A000686800EBC406307805F066FC7178012982
:1037B00001D0012100E000214140307800F09EFC62
:1037C000641C28788442EBDBD5E90401084303D06C
:1037D000BDE8704007F0CCBE70BD00003001002095
:1037E00010B50021024801F0A8FF80F3100010BDC1
:1037F0006C1000204FF4803202FA01F100F03EBC60
:1038000000684FF4A86202EB8101405870474FF402
:10381000A07202EB810189B200F0DCBC2DE9F0411D
:10382000984617460E46050003D113A17020FEF7F7
:1038300043F84FF4A07000EB860081B228684FF483
:103840008034B44027F07F47C0F808432868C0F8A8
:103850004843286804F0E2FE286800EB8600C0F8C0
:1038600040752868C0F84443B8F1000F02D02868BA
:10387000C0F80443BDE8F0812E2E5C2E2E5C2E2E67
:103880005C2E2E5C2E2E5C2E2E5C636F6D706F6E28
:10389000656E74735C6C69627261726965735C7485
:1038A000696D65725C6472765F7274632E6300008A
:1038B0000068D0F8040570472DE9F04715460E461C
:1038C000040003D139A12F20FDF7F6FF1EB937A15F
:1038D0003020FDF7F1FF1DB934A13120FDF7ECFFD9
:1038E00060794049DFF8FC90DFF804A141F82050EE
:1038F000617909F1040909EBC1003B4902793B48B0
:10390000081AC7084AB1BAF80200082402284AD3A4
:10391000022000EB074037A143E03588D4F800804F
:10392000B5F5805F04D33CA14FF4AB70FDF7C4FF45
:10393000C8F80855B67894F90450082E03D342A16C
:103940004520FDF7B9FF002D4FEA461004DB05F1D5
:10395000E02585F8000405E005F00F0101F1E02104
:1039600081F8140D94F904000121002809DB00F00E
:103970001F0201FA02F24009800000F1E020C0F8C5
:103980000021627909EBC2021171617949F8314075
:10399000BAF802000024032805D3032000EB0740F7
:1039A00035A103F097FF2046BDE8F0872E2E5C2E50
:1039B0002E5C2E2E5C2E2E5C2E2E5C2E2E5C636FCB
:1039C0006D706F6E656E74735C6C69627261726942
:1039D00065735C74696D65725C6472765F72746342
:1039E0002E630000A401002030E20000B8E10000D6
:1039F0001803002052544320696E7374616E63652E
:103A000020616C726561647920696E697469616CAA
:103A1000697A65642E0000002E2E5C2E2E5C2E2E00
:103A20005C2E2E5C2E2E5C2E2E5C6D6F64756C658C
:103A3000735C6E7266785C68616C2F6E72665F7222
:103A400074632E68000000002E2E5C2E2E5C2E2E3D
:103A50005C2E2E5C2E2E5C2E2E5C696E7465677259
:103A60006174696F6E5C6E7266785C6E7266785FA8
:103A7000676C75652E6800005254433A20696E6980
:103A80007469616C697A65642E00000090F9040025
:103A9000002809DB00F01F0201219140400980004D
:103AA00000F1E020C0F8001270470A46022100F041
:103AB000F7BA4FF4827100F08DBB000010B504001E
:103AC00003D104A16120FDF7F7FE20680121016008
:103AD00010BD00002E2E5C2E2E5C2E2E5C2E2E5C39
:103AE0002E2E5C2E2E5C636F6D706F6E656E747320
:103AF0005C6C69627261726965735C74696D657230
:103B00005C6472765F7274632E63000010B504000B
:103B100003D104A16720FDF7CFFE20680121416099
:103B200010BD00002E2E5C2E2E5C2E2E5C2E2E5CE8
:103B30002E2E5C2E2E5C636F6D706F6E656E7473CF
:103B40005C6C69627261726965735C74696D6572DF
:103B50005C6472765F7274632E6300002DE9F05F1F
:103B60009B4615460C46060003D136A1A720FDF75B
:103B7000A3FE4FF4803000FA04F84FF4A07000EB7D
:103B800084001FFA80FA25F07F454146304600F058
:103B900075FA3068D0F8047500EB8401D1F84095CF
:103BA000C1F840755146306804F038FDA9EB0700B4
:103BB00020F07F40012806D1102005F04FF9514632
:103BC000306804F02BFD3068D0F80475C0F84483E9
:103BD000E91B21F07F423068012A00EB840010D0FD
:103BE000C0F840553068D0F804156FF07F476A1A66
:103BF000521E22F07F42A7EB0B03934217D362B110
:103C000018E06D1CC0F84055102005F027F9306809
:103C1000D0F80405B8420AD10CE000EB84006D1C1A
:103C2000C0F840553068D0F80405884202D00D2015
:103C3000BDE8F09F01224146304600F031FA0020F5
:103C4000F6E700002E2E5C2E2E5C2E2E5C2E2E5CB7
:103C50002E2E5C2E2E5C636F6D706F6E656E7473AE
:103C60005C6C69627261726965735C74696D6572BE
:103C70005C6472765F7274632E63000010B5044654
:103C8000010600F00F00092804D3064940F28F20F6
:103C9000FDF712FE6FEA0460C10F204661F31F10AA
:103CA00010BD00001CBC000010B50D4C012802D056
:103CB00060B1072010BD812006F066F9812006F072
:103CC00055FA812006F084F9012003E0812006F0F6
:103CD0002BF90020607006F01BFD002010BD0000D5
:103CE0004C00002070B50546000605F00F0402D513
:103CF000092C09D301E0092C08D307A14FF41F7048
:103D0000FDF7DAFD280601D5114801E0104890388A
:103D100000EB041070BD00002E2E5C2E2E5C2E2EAB
:103D20005C2E2E5C2E2E5C2E2E5C6D6F64756C6589
:103D3000735C6E7266785C647269766572735C73CC
:103D400072635C6E7266785F757362642E630000E6
:103D50008808002010B50446010600F00F0009286D
:103D600004D3034940F25F20FDF7A6FD204610BDB5
:103D70001CBC000004F074BD812004F0EDBD822065
:103D800004F0EABD832004F0E7BD842004F0E4BD24
:103D9000852004F0E1BD862004F0DEBD872004F01C
:103DA000DBBD882004F028BE38B5154D00202871F1
:103DB000FFF798FF817B0124032906D0006878B1C2
:103DC000BDE838404C2004F041BF0020FFF756FF0B
:103DD0008440E143BDE838400948103004F04ABF50
:103DE0000020FFF74BFF84400548E143103004F00A
:103DF00041FF0448C0680090A9686846884738BDFC
:103E000018010020C0C70000012004F063BE02209A
:103E100004F060BE032004F05DBE042004F05ABE2E
:103E2000052004F057BE062004F054BE072004F01D
:103E300051BE000038B5104D0020082428712046DE
:103E4000FFF750FF817B032914D00068002811D1AF
:103E50002046FFF713FF01218140C94305F11000FF
:103E600004F008FF0548406900908DF80240A968F9
:103E70006846884738BD000018010020C0C7000010
:103E800070B50E4804680460BFF36F8FBFF34F8FA7
:103E900001260CE094FAA4F0B0FA80F52846FDF76C
:103EA00039FD06FA05F18C43294607F09BFF002CEB
:103EB000F0D1BDE8704007F0F3BD00006C74024023
:103EC00010B5054CE078FFF7D9FE0146E078BDE873
:103ED000104007F087BF000018010020F8B51A480D
:103EE00000681A4DC6B2E878FFF7C8FE012404FA4C
:103EF00000F1A8892A69C04380B21043014202D070
:103F0000E87807F0C9FE06F08000E8700020FFF7AF
:103F1000B5FE04FA00F68020FFF7B0FE04FA00F0C8
:103F200006430A48F143103004F0A4FE8020FFF756
:103F3000A5FE8440E86804430548EC60006A0090F0
:103F4000A96868468847F8BD8074024018010020BF
:103F5000C0C7000038B5002000900E480068ADF8DA
:103F600002008820FFF78AFE012505FA00F40820E8
:103F700004F084FD401C04D00820FFF77FFE85403C
:103F80002C430549C8682043C8608968684688474B
:103F900038BD000020750240180100207047000065
:103FA000F8B51C480568284604F03EFEBFF36F8F45
:103FB000BFF34F8F184E194CE80506D50120A070AD
:103FC000706A0090A16868468847A8054FF000070E
:103FD00005D5A770B06A0090A16868468847680553
:103FE00016D5A078002813D004F028FE20B10CA12B
:103FF00040F2CF40FDF760FCA77017490120086030
:10400000582004F023FEF06A0090A16868468847B3
:10401000F8BD000000740240C0C700001801002075
:104020002E2E5C2E2E5C2E2E5C2E2E5C2E2E5C2ECA
:104030002E5C6D6F64756C65735C6E7266785C6423
:104040007269766572735C7372635C6E7266785FB8
:10405000757362642E63000008750240054908B557
:1040600000208870C87004484068009089686846DD
:10407000884708BD18010020C0C7000070B50C4675
:10408000050003D105498D20FDF716FC2868C0F80E
:1040900048432868C0F8084370BD0000C4400000D1
:1040A00070B516460C46050003D106A18320FDF726
:1040B00003FC2868C0F84443002E02D02868C0F8EA
:1040C000044370BD2E2E5C2E2E5C2E2E5C2E2E5C9C
:1040D0002E2E5C2E2E5C636F6D706F6E656E74732A
:1040E0005C6C69627261726965735C74696D65723A
:1040F0005C6472765F7274632E6300002DE9F04792
:104100000E463249804601EB5001C007097801D0C4
:104110000F0901E001F00F07424601200021FCF7E2
:104120002CFADFF8AC9004460D46052F4BD2DFE8A1
:1041300007F0031419262A00002E44D0012140461E
:1041400007F048F80020FDF7D3FA4846D0E90412FA
:104150000C431543C9E9044530E00EB1022114E0D7
:10416000002112E04EB10321404607F033F84046EB
:10417000BDE8F047012108F0CDB9012105E0002E8E
:1041800021D1042101E02EB103214046BDE8F047D2
:1041900007F020B80021404607F01CF800214046F7
:1041A00008F0B8F90020FDF7A3FA4A46E043D2E947
:1041B0000434184024EA0501C9E90401BDE8F047C8
:1041C0000020FDF7C3BABDE8F0870000300A0020E8
:1041D0003001002070B50C46050003D106A19420E3
:1041E000FDF76AFB2868015921B1214604F016FA4F
:1041F000012070BD002070BD2E2E5C2E2E5C2E2E58
:104200005C2E2E5C2E2E5C2E2E5C636F6D706F6E9E
:10421000656E74735C6C69627261726965735C74FB
:10422000696D65725C6472765F7274632E63000000
:104230002DE9F05F17460E00814670D013B1F9B238
:10424000FFF792FA0024FCF7A7F98246006800E025
:10425000641C315D415CC907FAD100253046FEF788
:1042600059FCD9F80810001B4A7ED11B814228D383
:1042700006EB040805E000BF18F805100A290CD069
:104280006D1C8542F8D33119D9F8100002F020FDD9
:104290004846BDE8F05FFFF799B9D9F8100002F081
:1042A00057FD414600232A464846FEF7EFFE2C44C0
:1042B0004846641CFFF78AF9F9B24846FFF754FAFA
:1042C000E1E78B46DAF8001006EB040818F8050061
:1042D0000B5CDB0702D0AB460A2804D0E8199042F9
:1042E00001D26D1CF2E7D9F8100002F031FD414611
:1042F00000235A464846FEF7C9FE5C44DAF800003F
:1043000000E0641C315D415CC907FAD14846FFF703
:104310005DF9F9B24846FFF727FA9EE7FFE7BDE8E7
:10432000F09F10B504460068FEF7F4FB0146A06854
:10433000827F407E1144B1FBF0F200FB121008B105
:10434000002010BD012010BD10B50B48FFF7B0FADA
:10435000094A083AD2E90434C018D2E9063244F1D5
:104360000001C31A71EB020204D24FF08072801870
:1043700041F1000110BD00007001002010B5C0B275
:10438000FDF7F6FD0446007804F076FE01466078FD
:10439000012801D0012000E0002090EA010F08D0A0
:1043A0000449D1E90401084303D1BDE8104007F0F6
:1043B000DFB810BD30010020FEB50026044600968F
:1043C000019602968068E9B3D0E950128A4272D011
:1043D000D0F83C0100286ED02046FFF7AEF8A06868
:1043E000D0F84451002D69D000230922694628469F
:1043F00003F07EFCA1689DF808500098C1F84401C4
:10440000A06800230922D0F84401694603F070FC3B
:10441000A1689DF808200923D1F844012031521CDD
:1044200003F066FCA1689DF80800C877A1689DF8B4
:10443000080088779DF80800A84202D22046FDF7C0
:104440007BFF00E00BE0A3682BA20821204620336D
:1044500001F01EFF2046FFF79AF868BB43E0D0F852
:104460004401002847D02046FFF767F8A0680023E2
:104470000922D0F84401694603F03AFCA06801998A
:10448000C0F84411A0680029857FB9D1A030FEF79B
:1044900041FB0028A06805D000F1A0012030FCF706
:1044A0001DF901E080F82060A0682030FEF732FBA3
:1044B0008DF80800B6E71EE01AE0FFE72030FEF7AF
:1044C00029FB10F0FF05A068D0F83C11C0F844119A
:1044D000A06805D000F12001A030FCF7FFF88FE7BD
:1044E00080F8A0608CE72046FFF71BFF002802D071
:1044F0002046FFF76BF8FEBD25730000FEB50D00EA
:10450000044604D11E4940F28450FDF7D5F9A16854
:104510000026D1F83C0138B300230922694603F094
:10452000E7FB0195A06800230922D0F83C01694609
:1045300003F00CFC0196A068D0F83C110091807F3C
:104540008DF80800A068C0F83C5100230922694694
:10455000284603F0FBFBA168092328468A7F203107
:10456000521C03F0F3FBFEBDC1F83C51A068C0F83B
:10457000405100960196A068807F8DF80800E4E71E
:1045800094B30000FEB504468068D0F84061002E68
:1045900028D0002309226946304603F0A9FBA16810
:1045A00001980025C1F84001009501952B4609228C
:1045B00069463046029503F0C9FB304603F069FBBB
:1045C000A168D1F8400170B100230922694603F0C7
:1045D0008FFB0095A06800230922D0F840016946AE
:1045E00003F0B4FBFEBDC1F83C51FEBDFEB5044670
:1045F00080682030FEF78EFA10F0FF05A0684FF0BB
:104600000006C0F8446133D0A068D0F83C01E0B1A6
:1046100000230922694603F06BFB9DF80820AA429B
:1046200013D1A068092300F1A001D0F83C01521C6D
:1046300003F05EFBA06800F1A0012030FCF740F819
:104640000028A06880F8A06012D000260A3529460C
:10465000606903F0EEFA0100204604D003B0BDE823
:10466000F040FFF74BBFFFF78DFF761C082EEED30F
:10467000FEBD000010B512490220FDF7E1FA20B19D
:10468000104A40F22641FBF737FE0C2200210120A0
:10469000FDF7A2FA20B10B4A40F22C41FBF72CFEA9
:1046A000002116220846FDF797FA002806D0BDE83B
:1046B0001040044A4FF48661FBF71EBE10BD000097
:1046C0001D1C00009447000000B589B01848FDF794
:1046D0007DFA20B1174A40F23941FBF70DFE202246
:1046E000154901A8FBF7B3FF0620019008200290AE
:1046F00000208DF81800032000900F4801231A466F
:1047000001A9F83801F092FF20B10A4A40F23F4176
:10471000FBF7F2FD0848F83802F0DEF8002804D074
:10472000044A40F24141FBF7E7FD09B000BD00003B
:104730001D1C00009447000014C7000010B502F0D3
:10474000B3F920B113A24FF48261FBF7D5FD00202D
:1047500002F048FA20B10FA240F21241FBF7CCFD63
:10476000002002F04FF9002002F0ECF902F014F9F9
:104770000028FBD002F0B6F90028F7D0FCF7FEFEC7
:10478000002806D0BDE8104002A240F21C41FBF711
:10479000B3BD10BD2E2E5C2E2E5C2E2E5C6D61697D
:1047A0006E2E63002DE9FC5F0E008346DDE90C47A9
:1047B000C6F1000098469246814600D4084601257D
:1047C00003E000BF90FBFAF06D1C5045FADAA845F3
:1047D00000D9454624B1002E01DB780700D5641EC0
:1047E000B80702D5B8F1000F0AD0F80708D13CB1DC
:1047F000A54205D220215846641EFDF795FBF6E739
:10480000002E02DA4E462D2102E0780703D52B2137
:104810005846FDF789FB07F0030002280BD1B8F1D9
:10482000000F08D13CB1A54205D230215846641E84
:10483000FDF77AFBF6E7CDE900474346524631469D
:10484000584607F0D3F8BDE8FC9F000070B50E464F
:10485000054600684FF48E7103F0E1FF4FF4A2713A
:10486000286803F0DCFF28681549C0F8041328689D
:10487000082E40F3073403D312A14520FDF71CF89E
:104880007007000E002C04DB04F1E02484F800041F
:1048900005E004F00F0101F1E02181F8140D286812
:1048A00040F30730002809DB00F01F02012191408E
:1048B0004009800000F1E020C0F8001170BD000048
:1048C000800002002E2E5C2E2E5C2E2E5C2E2E5C86
:1048D0002E2E5C2E2E5C696E746567726174696F32
:1048E0006E5C6E7266785C6E7266785F676C75651A
:1048F0002E68000070B50E46044600684FF48871BB
:1049000003F09EFF4FF49071206803F099FF4FF47D
:104910009271206803F094FF4FF4A271206803F0B5
:104920008FFF4FF4AC71206803F08AFF20681549AF
:10493000C0F804132068082E40F3073503D312A1F2
:104940004520FCF7B9FF7007000E002D04DB05F1D0
:10495000E02585F8000405E005F00F0101F1E021F4
:1049600081F8140D206840F30730002809DB00F0BF
:104970001F02012191404009800000F1E020C0F8B1
:10498000001170BD100342002E2E5C2E2E5C2E2EC8
:104990005C2E2E5C2E2E5C2E2E5C696E746567720A
:1049A0006174696F6E5C6E7266785C6E7266785F59
:1049B000676C75652E680000024600201268530778
:1049C00013D502F00300012802D002280CD105E023
:1049D000C2F383100B68801C184404E002230868AB
:1049E00003EB9252104408600120704710B5FBF7AA
:1049F0007EFE08B1002010BD012010BD02681346E4
:104A000002E08A4204D01268002AFAD10B600160E9
:104A1000704700000A4810B5807860B1002401E0BA
:104A2000022C06D02046FCF7DDFF641C042CF7D3D3
:104A300010BD0324F6E7BDE81040FDF75BB80000A9
:104A40006C00002003480179C90702D00078FDF707
:104A500041B970476C000020014B01F019B800000B
:104A6000254C0000014B01F013B80000F14D00008F
:104A7000014B01F00DB80000F94D0000014B01F0B1
:104A800007B800000D5000007CB51446054601290A
:104A900002D001F0C5FD38B102B02846BDE8704033
:104AA0000022114601F052BC616805A0CDE9000169
:104AB00009A202212846236801F0EAFB7CBD000020
:104AC00020756E6B6E6F776E20706172616D6574AC
:104AD00065723A200000000025733A257325730D96
:104AE0000A0000002DE9FC41074601F099FD38B1AC
:104AF00002B03846BDE8F0410022114601F026BC64
:104B00001248134E801B050900241AE006EB04101E
:104B1000C2681179FF2903D0527942B10DA207E092
:104B200083680EA20821384601F0B2FB08E013A208
:104B3000CDE90021836814A20821384601F0A8FBC2
:104B4000641CAC42E2D3BDE8FC810000B8E1000087
:104B500098E10000656E61626C65640025730D0A62
:104B6000092D205374617475733A20646561637410
:104B70006976617465640D0A0D0A000064697361E9
:104B8000626C65640000000025730D0A092D205336
:104B900074617475733A2025730D0A092D204944F8
:104BA0003A2025640D0A0D0A0000000010B50446E5
:104BB00001F036FD30B120460022BDE8104011461C
:104BC00001F0C4BB2046BDE8104002A2022101F062
:104BD0005FBB00004E6F7420737570706F727465E8
:104BE000642E0D0A0000000010B5044601F018FD07
:104BF00030B120460022BDE81040114601F0A6BBAE
:104C00002046BDE8104002A2022101F041BB000095
:104C10004E6F7420737570706F727465642E0D0A18
:104C2000000000002DE9FF4FC86881B01D460079E3
:104C300017004FF00006009057D0072245A12868C2
:104C4000FBF755FD78B1082244A12868FBF74FFD1A
:104C500000282FD02B6843A2019805B00221BDE89F
:104C6000F04F01F015BB012F02D0022F08D008E051
:104C7000019805B041A2BDE8F04F022101F008BB48
:104C80000126DFF8108100240A2258F824106868F1
:104C9000FBF72DFD10B1641C052CF5D3052C06D0B7
:104CA00004F0FF090224002E51D0002419E03AA29A
:104CB0006B68D1E7012F4FF00009F6D0012446E0E0
:104CC0004A462146009800F049FC48B90021204698
:104CD00002F032FF034638A20221019801F0D8FA0F
:104CE000641C02F0D3FEA042EAD805B0BDE8F08F04
:104CF0004FF0000A55F824B002F0C8FE80460026A6
:104D000009E00021304602F017FF20225946FBF748
:104D1000EEFC58B1761C4645F3D3464508D04A46CA
:104D20005146009800F01AFC30B10FE0B246F4E7AB
:104D300055F8243029A205E00021504602F0FCFE7F
:104D400003461DA20221019801F0A2FA641CBC4294
:104D5000CED3CAE7656E61626C65000064697361F9
:104D6000626C6500556E6B6E6F776E206F70746944
:104D70006F6E3A2025730D0A000000004261642026
:104D8000706172616D6574657220636F756E742EEB
:104D90000D0A000040020020556E6B6E6F776E208A
:104DA0007365766572697479206C6576656C3A20F6
:104DB00025730D0A000000004C6576656C20756E49
:104DC000617661696C61626C6520666F72206D6FDF
:104DD00064756C653A2025730D0A0000556E6B6E84
:104DE0006F776E206D6F64756C653A25730D0A00E0
:104DF000C968012048717047C96800204871704730
:104E00007047000070B52D4805682E482E4A2C4E7C
:104E1000801AC0087188032202EB0044032903D3DF
:104E200020462AA102F056FD35B97088032803D325
:104E300020462AA102F04EFDE80706D0708803281C
:104E400003D3204627A102F045FDA80706D57088A8
:104E5000032803D3204626A102F03CFD680706D5AF
:104E60007088032803D3204623A102F033FD2807CE
:104E700006D57088032803D3204621A102F02AFD1D
:104E8000E80306D57088032803D320461FA102F04B
:104E900021FD680306D57088032803D320461DA191
:104EA00002F018FDE80208D57088032805D32046D3
:104EB000BDE8704019A102F00DBD70BD00040040B6
:104EC0003403002068E20000B8E100005265736519
:104ED0007420726561736F6E733A00002D204E4F1F
:104EE0004E4500002D20524553455450494E000078
:104EF0002D20444F470000002D2053524551000003
:104F00002D204C4F434B5550000000002D204F46A4
:104F1000460000002D204449460000002D20564246
:104F20005553000030B41346C4680A46214630BCCD
:104F3000FFF778BEC0680121C06841717047C06842
:104F40000021C0684171704730B41346C4680A46F6
:104F5000214630BC00F05AB82DE9FF410026274811
:104F600000F0CFFB2548001F074600F0CAFB244C89
:104F70002449A06800900D6800E000986946284028
:104F800004EB80000C30FFF717FD0028F5D101AAD3
:104F9000009901EA050304EB8303491CDB6842F82E
:104FA0002030401C00910228F2D3019800F0030049
:104FB00001281AD002280ED013494FF4AF70FCF725
:104FC0007BFC384600F09AFB08B10098A06004B062
:104FD0003046BDE8F0810198032101EB9050009923
:104FE000BDF80A6001EB900005E00198BDF80A6089
:104FF000C0F3831008440090E3E70000681000202D
:10500000500C00203C0200203CDC00002DE9FE4F4B
:105010008846824602F03AFD0746D8F80C004079EF
:1050200020B922A20221504601F032F924A327A27E
:105030000821504601F02CF92CA20821504601F01D
:1050400027F900242DE000BFD8F80C0001231A46F0
:1050500005792146284602F023FD814600230122DE
:105060002146284602F01CFD0546032801D20646CB
:1050700000E003260121204602F05EFD0346AE4219
:1050800001D22AA200E028A2294850F8261050F8A0
:1050900029008DE8070027A20821504601F0F8F802
:1050A000641CBC42D0D3BDE8FE8F00004C6F677318
:1050B000206172652068616C746564210D0A0000CE
:1050C0006D6F64756C655F6E616D6500252D3430A4
:1050D00073207C2063757272656E74207C2062750B
:1050E000696C742D696E200D0A0000002D2D2D2D88
:1050F0002D2D2D2D2D2D2D2D2D2D2D2D2D2D2D2DE0
:105100002D2D2D2D2D2D2D2D2D2D2D2D2D2D2D2DCF
:105110002D2D2D2D2D2D2D2D2D2D2D2D2D2D2D2DBF
:105120002D2D2D2D2D2D0D0A000000002A00000030
:1051300040020020252D343073207C20252D37732C
:10514000207C20257325730D0A0000004FF4804158
:10515000002002F04BFCFFF7F1FAFFF78BFAFFF7A4
:10516000B3FA43484349414E401AC00872880321AC
:1051700001EB0045032A03D328463FA102F0AAFB16
:10518000FFF740FE424908680860424805F048FAC7
:1051900020B141A240F28641FBF7AEF84021002049
:1051A00004F066FF4021802004F062FF0120FCF73C
:1051B000B9FB0220FCF740FC0320FCF73DFC3A4819
:1051C00001F024FD20B134A240F29941FBF794F89C
:1051D000364CE079B8B17088032803D3284634A14F
:1051E00002F078FB02F03CFA0028FBD10220FCF729
:1051F000F9FB0320FCF7F6FB324901200860BFF3FE
:105200004F8F20BFFDE7A078A17988420AD0A0790E
:1052100030B105F045FBA07020B1FCF76BFC01E05C
:105220000020A070607888B1207878B1A07820B193
:10523000E07858B105F0C0FB08E07088032803D37C
:10524000284621A102F046FB00F0C2F91648001DD5
:1052500001F0DCFA02F004FA0220FCF7C3FB20BFE5
:1052600040BF20BF0220FCF7E7FBB2E73403002079
:1052700068E20000B8E100005553444220657861BF
:105280006D706C6520737461727465642E0000002B
:1052900000040040A9BE00002E2E5C2E2E5C2E2E97
:1052A0005C6D61696E2E630018C600004C00002022
:1052B000476F696E6720746F2073797374656D2012
:1052C0004F46460000050040202020545820706FB3
:1052D000696E7465720000002DE9FF4F4FF0000801
:1052E00081B014468B468146C246C0F800802578BE
:1052F000002D71D0FBF750F900900068405DC007A9
:1053000002D004F801AB84E0D9F800008300401C0F
:10531000C9F800004BF8034015E02678002E78D03D
:10532000B8F1000F05D1222E10D0272E0ED05C2E02
:105330001ED0B04514D12046FDF7ECFB0246611C9F
:105340002046FBF784F94FF00008E6E72046FDF71A
:10535000E1FB0246611C2046FBF779F9B046DCE729
:10536000B8F1000F50D05C2E6AD16078404508D16A
:105370002046FDF7CFFB0246611C2046FBF767F98C
:105380005EE030281CD100270225605DA0F13001CD
:10539000072906D86D1C41EAC701EDB2CFB2052D31
:1053A000F3D3022D0CD92046FDF7B4FB421B611943
:1053B0002046491E921CFBF74AF904F8017BACE732
:1053C00078281ED100270225605DA0F1300109294F
:1053D00003D841EA07100DE021E0A0F161010529A1
:1053E00001D8573804E0A0F14101052907D8373822
:1053F00040EA07106D1CEDB2C7B2042DE4D3022DB4
:10540000D1D8B8F1000F1BD100980068805DC007AB
:1054100016D0D9F8001004988142FFF468AFD9F88B
:1054200000000C2804D907A140F20450FCF744FA0C
:10543000D9F8002040464BF822A005B0BDE8F08F17
:10544000641C6AE72E2E5C2E2E5C2E2E5C2E2E5CAB
:105450002E2E5C2E2E5C636F6D706F6E656E747396
:105460005C6C69627261726965735C636C695C6EC5
:1054700072665F636C692E63000000002DE9F05FC7
:105480001E46DDF828B091468A46040003D124A1C7
:105490009020FCF711FAB4F80680607908FB00F858
:1054A000A8F10408464503D31DA19E20FCF704FA89
:1054B000E788301DB0FBF7F1B0FBF7F207FB1200F5
:1054C000D9F80050AA19424501D9A8EB0605C9F838
:1054D000005001E02468491E0029FBD13E1A88468D
:1054E000AE4215D817E000BF2044001D0AEB0803A8
:1054F000BBF1000F324602D00146184600E01946C3
:10550000FBF7A5F800202468AD1BB044AF4201D9D9
:105510002E4600E03E46002DE6D1BDE8F09F00009B
:105520002E2E5C2E2E5C2E2E5C2E2E5C2E2E5C2EB5
:105530002E5C636F6D706F6E656E74735C6C696208
:105540007261726965735C6D656D6F626A5C6E72C3
:10555000665F6D656D6F626A2E63000070B51446FC
:1055600000230D4606461A4602F09AFA844201D9F3
:10557000002070BD22462946304602F0B5FA0120CF
:1055800070BD000030B5024651B102F07FFA002133
:10559000074C08E034F821301568AB4202D11160A5
:1055A000002030BD491C8142F4D3052030BD0000ED
:1055B000DC02002010B50C460021E1606160034967
:1055C000A160012102F0B8FA206010BD5CCC00009F
:1055D00013484178002922D0417900291FD101794F
:1055E00011F0030106D0012907D0022908D00329B0
:1055F0000CD108E04FF4206107E04FF4202104E0D3
:105600004FF4764101E04FF47601C1600179491C05
:105610000171012141710349812004F03BBE7047B3
:105620004C00002008C7000070B58468006804F1D1
:105630001405FDF76FFAC1B2A971E07F6A790844D9
:10564000B0FBF2F302FB13035B1C2B70E07F0844FA
:10565000B0FBF2F35B1CAB70A07F0844B0FBF2F32D
:105660005B1CEB70A07F0844B0FBF2F102FB110160
:10567000491C6970284670BD10B531B1B2FBF3F416
:1056800003FB14241CB1092010BD0E2010BD0160C5
:105690000021416081608281C381084610BD70B5E0
:1056A0000C460546FAF750FE002802D021882868EB
:1056B000084470BD10B50A8849888A4203D1FAF7B8
:1056C00085FE012010BD002010BD70B50C460546BA
:1056D000FAF75FFE002802D061882868084470BD90
:1056E00010B50A8849888A4203D1FAF749FE012099
:1056F00010BD002010BD002100F00FB8002100F007
:1057000012B8012100F01EB8012100F011B808B54F
:105710006A46FAF7B0FE009808BD08B56A46FAF77F
:1057200090FE009808BD08B56A46FAF78AFE08BDE3
:1057300008B56A46FAF778FE08BD08B56A46FAF772
:1057400067FE08BD08B56A46FAF76EFE009808BD08
:1057500008B56A46FAF79CFE009808BD70B50400CB
:1057600003D113A1FE20FCF7A7F800252846FBF77C
:10577000BFFF206862680168914214D9491E016028
:105780000D781CB919A1C220FCF796F8208BE168AE
:1057900005FB00152068217A0278891A0279C9B2BE
:1057A0008A4200D201710020FBF7D0FF284670BD6D
:1057B0002E2E5C2E2E5C2E2E5C2E2E5C2E2E5C2E23
:1057C0002E5C636F6D706F6E656E74735C6C696276
:1057D0007261726965735C62616C6C6F635C6E723E
:1057E000665F62616C6C6F632E6300002E2E5C2E10
:1057F0002E5C2E2E5C2E2E5C2E2E5C2E2E5C636F6D
:105800006D706F6E656E74735C6C696272617269E3
:1058100065735C62616C6C6F635C6E72665F626123
:105820006C6C6F632E63000070B50C46050004D1EC
:1058300010A140F22110FCF73FF824B90DA14FF45C
:105840009170FCF739F80020FBF752FF1DB9184999
:10585000CF20FCF731F8E8682A68211A288BB1FBC1
:10586000F0F11068431C13600170BDE87040002027
:10587000FBF76CBF2E2E5C2E2E5C2E2E5C2E2E5C2B
:105880002E2E5C2E2E5C636F6D706F6E656E747362
:105890005C6C69627261726965735C62616C6C6F89
:1058A000635C6E72665F62616C6C6F632E63000096
:1058B000EC57000010B5040002D0206830B901E0B8
:1058C0000E2010BD17A1D920FBF7F6FF606818B9AC
:1058D00014A1DA20FBF7F0FFA06818B911A1DB20B2
:1058E000FBF7EAFFE06818B90EA1DC20FBF7E4FF44
:1058F000208B18B90BA1DD20FBF7DEFF207A616851
:105900002268401AC0B2116004E0226811684B1C82
:1059100013600870401EC0B2F7D2216800200871E1
:1059200010BD00002E2E5C2E2E5C2E2E5C2E2E5CCA
:105930002E2E5C2E2E5C636F6D706F6E656E7473B1
:105940005C6C69627261726965735C62616C6C6FD8
:10595000635C6E72665F62616C6C6F632E630000E5
:105960002DE9F04F8146806889B0D0F84801C0F336
:10597000400038B109B04846BDE8F04F002211465A
:1059800000F0E4BC012907D909B04846BDE8F04F52
:1059900024A2022100F07CBC27492848081A1C21B7
:1059A000B0FBF1F8002538E02448C5EBC50110EB49
:1059B00081044FF0000AB4F818B0D4E90101A1EB5A
:1059C000000604D11EA140F21F10FBF775FF2068EE
:1059D000077924B91AA140F22F10FBF76DFF206858
:1059E000217A0078081AC0B2642117FB01F1B1FBDB
:1059F000F6F2642110FB01F1B1FBF6F16369CDE928
:105A00000210CDE90462CDE90676CDE900BA1B4A61
:105A10000821484600F03CFC6D1C4545C4D309B044
:105A2000BDE8F08F42616420617267756D656E74C8
:105A300020636F756E740000A8E2000070E2000041
:105A40002E2E5C2E2E5C2E2E5C2E2E5C2E2E5C2E90
:105A50002E5C636F6D706F6E656E74735C6C6962E3
:105A60007261726965735C62616C6C6F635C6E72AB
:105A7000665F62616C6C6F632E68000044D4000046
:105A8000C20800F007030120895C98400840704775
:105A90002DE9FF5F8B46164814499A46091A0F09EB
:105AA000914652F8046C0025804607E008EB051487
:105AB0003046A168FAF704FE18B16D1CBD42F5D35B
:105AC0000BE0210009D0009804B04B465A46D4465A
:105AD000BDE8F04F5DF804EB6047009804B0334632
:105AE000BDE8F05F03A2022100F0D2BBB8E10000E4
:105AF00098E10000496E76616C6964206261636BB5
:105B0000656E643A2025730D0A00000070B51546D5
:105B10008268D2F84841C4F3400424B11A462946A9
:105B200000F014FC05E031B1536804A2022100F03A
:105B3000AFFB012070BD002070BD000025733A202E
:105B400077726F6E6720706172616D657465722027
:105B5000636F756E740A000070B50D46040004D1C1
:105B600022A140F63950FBF7A7FEA06818B1606883
:105B700008B1206820B91DA140F63A50FBF79CFE01
:105B8000022D0CD1A068D0F84801C0F3400030B11C
:105B90002046BDE870400022114600F0D7BB40F619
:105BA00042551CB911A12846FBF786FE206918B999
:105BB0000EA12846FBF780FE1A4A1BA1206901F0BE
:105BC00087F840F643551CB908A12846FBF774FE38
:105BD000206918B905A12846FBF76EFE2069BDE8CB
:105BE0007040104A10A1093201F072B82E2E5C2EBE
:105BF0002E5C2E2E5C2E2E5C2E2E5C2E2E5C636F69
:105C00006D706F6E656E74735C6C696272617269DF
:105C100065735C636C695C6E72665F636C692E634E
:105C2000000000007DCA00002573000070B50D461D
:105C3000040004D113A140F64850FBF73DFEA068D4
:105C400018B1606808B1206820B90EA140F649502B
:105C5000FBF732FE012D07D0022D0CD1A068D0F841
:105C60004801C0F3400030B12046BDE8704000223A
:105C7000114600F06BBB2046BDE870400FA2022128
:105C800000F006BB2E2E5C2E2E5C2E2E5C2E2E5C83
:105C90002E2E5C2E2E5C636F6D706F6E656E74734E
:105CA0005C6C69627261726965735C636C695C6E7D
:105CB00072665F636C692E6300000000506C656162
:105CC00073652073706563696679206120737562FE
:105CD000636F6D6D616E642E0A0000001CB50129B2
:105CE00005D002290BD014D94FF0010112E002B007
:105CF0004FF00002BDE81040114600F027BB53688A
:105D000008A1CDE9001313680CA2022100F0C0FA2B
:105D10001CBD002102B00023BDE810401A46FFF769
:105D2000F5BE000020756E6B6E6F776E207061722D
:105D3000616D657465723A200000000025733A2594
:105D40007325730A0000000010B50446012901D034
:105D5000012100E0002100231A46FFF7D7FE0028AA
:105D600009D1A168C1F83801E06840680068BDE861
:105D7000104002F023B910BD3EB50546012901D0FF
:105D8000012100E0002100231A46FFF7BFFE002892
:105D900018D1E86840680468204602F0E5F8C0B20F
:105DA000642110FB01F2A168B2FBF1F2D2B20092C1
:105DB000CDE90101A86804A20021D0F838312846B5
:105DC00000F066FA3EBD00004C6F7374206C6F6784
:105DD000733A2025750A4D6178206C6F67207175C4
:105DE000657565207574696C697A6174696F6E3A5E
:105DF0002025752525205B25752F25755D0A00005A
:105E00007CB515460E46040004D118A140F6695031
:105E1000FBF752FDA06818B1606808B1206820B98E
:105E200012A140F66A50FBF747FD012E03D0022E67
:105E300009D0012108E002B02046BDE870400022F0
:105E4000114600F083BA002100231A462046FFF7CE
:105E50005DFE002809D1696812A0CDE9000117A2F2
:105E6000022120462B6800F013FA7CBD2E2E5C2EFA
:105E70002E5C2E2E5C2E2E5C2E2E5C2E2E5C636FE6
:105E80006D706F6E656E74735C6C6962726172695D
:105E900065735C636C695C6E72665F636C692E63CC
:105EA0000000000020756E6B6E6F776E207061725F
:105EB000616D657465723A200000000025733A2513
:105EC0007325730A0000000010B50446012901D0B3
:105ED000012100E0002100231A46FFF717FE0028E9
:105EE00006D1A068D0F8481121F00401C0F848118B
:105EF00010BD10B50446012901D0012100E00021A8
:105F000000231A46FFF702FE002806D1A068D0F849
:105F1000481141F00401C0F8481110BD7CB5144689
:105F20000D460646022901D9012100E00021002387
:105F30001A46FFF7EBFD002811D1022D05D030469F
:105F4000FCF7A6FB60B10BA30BE061680AA0CDE9EA
:105F500000010FA202213046236800F099F97CBDB0
:105F60000EA302B03046BDE870400DA2002100F043
:105F70008FB900006F6E000020756E6B6E6F776ECC
:105F800020706172616D657465723A2000000000D6
:105F900025733A257325730A000000006F666600BA
:105FA0004563686F207374617475733A2025730AB2
:105FB0000000000010B50446012901D0012100E0D5
:105FC000002100231A46FFF7A1FD002806D1A06892
:105FD000D0F8481121F00801C0F8481110BD10B5E3
:105FE0000446012901D0012100E0002100231A46C6
:105FF000FFF78CFD002806D1A068D0F8481141F0C9
:106000000801C0F8481110BD7FB50D46040004D149
:1060100022A140F6A150FBF74FFCA06818B16068C0
:1060200008B1206820B91DA140F6A250FBF744FC3E
:10603000012D01D0012100E0002100231A46204655
:10604000FFF764FD002827D1A0680026D0F8405152
:10605000F5B101E0082E1BD20023092201A9284630
:1060600001F046FE9DF80C20A16809232846A031C6
:10607000521C01F03DFEA0683346A0300090029D06
:10608000761C14A20021204600F002F9002DE1D177
:10609000A168002081F8A0007FBD00002E2E5C2E9C
:1060A0002E5C2E2E5C2E2E5C2E2E5C2E2E5C636FB4
:1060B0006D706F6E656E74735C6C6962726172692B
:1060C00065735C636C695C6E72665F636C692E639A
:1060D000000000005B2533645D2025730A0000008A
:1060E0007CB515460E46040004D120A140F602609E
:1060F000FBF7E2FBA06818B1606808B1206820B91E
:106100001AA140F60360FBF7D7FB012E03D0022E45
:1061100018D9012117E0A168204601F118021931B0
:1061200005F0FAF800281FD0A16850201DA248767B
:10613000A1681820087602B02046BDE8704004210E
:1061400000F0A6B8002100231A462046FFF7DEFC27
:10615000002809D1696822A0CDE9000126A2022108
:1061600020462B6800F094F87CBD00002E2E5C2E9B
:106170002E5C2E2E5C2E2E5C2E2E5C2E2E5C636FE3
:106180006D706F6E656E74735C6C6962726172695A
:1061900065735C636C695C6E72665F636C692E63C9
:1061A000000000004E6F20726573706F6E73652083
:1061B00066726F6D20746865207465726D696E61BA
:1061C0006C2C20617373756D6564203830783234BF
:1061D0002073637265656E2073697A650A0000003A
:1061E00020756E6B6E6F776E20706172616D657475
:1061F00065723A200000000025733A257325730A62
:106200000000000070B50446012901D0012100E022
:10621000002100231A46FFF779FC002817D140F629
:10622000FB551CB90AA12846FBF746FB206918B9A3
:1062300007A12846FBF740FB134A14A1206900F090
:1062400047FDA16850204876A1681820087670BDE7
:106250002E2E5C2E2E5C2E2E5C2E2E5C2E2E5C2E78
:106260002E5C636F6D706F6E656E74735C6C6962CB
:106270007261726965735C636C695C6E72665F63A0
:106280006C692E630000000096CA000025730000B0
:106290000FB4F8B5044608980E4620B91DA140F683
:1062A0003B30FBF709FB24B91AA140F63C30FBF761
:1062B00003FBA06818B1606808B1206820B915A177
:1062C00040F63D30FBF7F8FA09A80090A068D0F836
:1062D0004811490718D5C17EB14215D0B0F81B50FE
:1062E0003146204606F044F96A462069089900F0D4
:1062F0005BFDE9B2204606F03BF9290A204606F08C
:1063000019F9F8BC5DF814FB6A462069089900F099
:106310004BFDF6E72E2E5C2E2E5C2E2E5C2E2E5C78
:106320002E2E5C2E2E5C636F6D706F6E656E7473B7
:106330005C6C69627261726965735C636C695C6EE6
:1063400072665F636C692E63000000002DE9F04FF8
:1063500089B090460D46040004D18EA140F6BC30B1
:10636000FBF7AAFAA06818B1606808B1206820B9E4
:1063700088A140F6BD30FBF79FFA9448FCF7CAFBB2
:10638000064692483638FCF7C5FB301A1FFA80F9EA
:106390008E488FA223380090A068082143682046C9
:1063A000FFF776FFA0684068FCF7B4FB0646874815
:1063B0002338FCF7AFFB304482B2A0680023816829
:1063C0002046FDF735FF84A200212046FFF760FF3D
:1063D000B8F1000F21D005B300261CE006EB460AF9
:1063E00005EB8A0BDBF80400FCF794FB074655F835
:1063F0002A00FCF78FFB391849450BD9DBF804005C
:10640000FCF788FB074655F82A00FCF783FB384465
:106410001FFA80F9761C4645E0D36C483638FCF705
:1064200079FB4844801C1FFA80F9684800904B466D
:106430006CA208212046FFF72BFF09F1030087B269
:10644000079000233A4669A12046FDF7F1FE002D92
:1064500051D000264DE000BF06EB460A05EB8A0B43
:1064600055F82A00DBF8043063B348B3574964A2F7
:106470003639CDE9001008212046FFF709FF09F160
:1064800002000090DBF80400FCF744FB074655F8D7
:106490002A00FCF73FFB07444C483638FCF73AFB30
:1064A00039180098401A801EC1B22046FDF75CF9E9
:1064B0003A225649206900F00BFC0098401C0AE083
:1064C000009301E040B100904B4646A208212046CF
:1064D000FFF7DEFE079887B2DBF8081029B100232A
:1064E0003A462046FDF7A4FE02E02046FDF76EF88E
:1064F000761C4645B0D3A068C068002847D08146C6
:1065000000200646054603AF02902A466D1C02ABEA
:10651000012148460097FCF7A7FE029850B1006899
:10652000FCF7F8FAB042F0D902980068FCF7F2FAEA
:1065300086B2EAE7012D2AD035A200212046FFF7D6
:10654000A7FE0025B8462A466D1C02AB012148462D
:10655000CDF80080FCF788FE0298002817D0B11C07
:106560008FB2006800903B461EA208212046FFF72C
:106570008FFE0298FF1CBAB2416821B10023204669
:10658000FDF756FEDFE72046FDF720F8DBE709B010
:10659000BDE8F08F2E2E5C2E2E5C2E2E5C2E2E5CF7
:1065A0002E2E5C2E2E5C636F6D706F6E656E747335
:1065B0005C6C69627261726965735C636C695C6E64
:1065C00072665F636C692E63000000009CCA000065
:1065D00025732573000000004F7074696F6E733A65
:1065E0000A0000002020252D2A733A0053686F7797
:1065F00020636F6D6D616E642068656C702E0000A5
:10660000202025732573257300000000342300002B
:10661000537562636F6D6D616E64733A0A000000BA
:106620008068D0F84801C0F3400070472DE9F04180
:106630001E46DDF8188015460F46040004D10EA151
:1066400040F67E20FBF738F92A463946204600F00E
:106650002FF805000DD166B14146E06800F0DCFE80
:10666000002802DA0420BDE8F081E0680121C0685A
:1066700041712846F7E700002E2E5C2E2E5C2E2E50
:106680005C2E2E5C2E2E5C2E2E5C636F6D706F6EFA
:10669000656E74735C6C69627261726965735C6368
:1066A0006C695C6E72665F636C692E63000000004B
:1066B0002DE9F04715460E46040004D13EA140F6F0
:1066C0002120FBF7F9F8A06818B1606808B12068CC
:1066D00020B939A140F62220FBF7EEF8E068234606
:1066E000434A40688460606801680F683146B84773
:1066F00000285ED1606920B92FA140F63120FBF758
:10670000DBF8606901F0E2FA002852D1A168C1F813
:106710003C01A168C1F840014FF4A671A068F9F7E7
:10672000BDFFA068D0F8481141F02001C0F8481121
:10673000A068D0F8481165F38201C0F84811A0683C
:10674000D0F8481141F00801C0F84811A1680120B3
:10675000284F0870A168502040F64D294876A1685E
:106760001820002408762448244940F64E2A0D1AA1
:10677000804612E018EBC40603D10FA14846FBF790
:106780009BF87068006818B90BA15046FBF794F8A5
:106790007068006847F82400641CB4EBD50FE9D397
:1067A000072D05D9E908164B04223846F9F701FFF1
:1067B0000020BDE8F08700002E2E5C2E2E5C2E2ED1
:1067C0005C2E2E5C2E2E5C2E2E5C636F6D706F6EB9
:1067D000656E74735C6C69627261726965735C6327
:1067E0006C695C6E72665F636C692E63000000000A
:1067F000392E0000BC02002058E1000098E10000A2
:10680000B5B200000023FCF741BC000010B5040045
:1068100004D122A140F60530FBF74EF8A06818B16C
:10682000606808B1206820B91CA140F60630FBF76B
:1068300043F8A068102100F5A470FEF783FFA0685C
:106840000078F8B101281DD002281BD12046FCF7A2
:1068500013F800212046FBF721FF98B11DA2032168
:1068600020462368FFF714FD2046FBF711FF48B1CF
:10687000A36818A2082120462033FFF709FD20460F
:10688000FCF73CFF206900F063FAA068BDE8104007
:106890006FF0100100F5A470FEF73FBF2E2E5C2EA6
:1068A0002E5C2E2E5C2E2E5C2E2E5C2E2E5C636FAC
:1068B0006D706F6E656E74735C6C69627261726923
:1068C00065735C636C695C6E72665F636C692E6392
:1068D000000000002573000070B5040004D117A16A
:1068E00040F6D420FAF7E8FFA06818B1606808B154
:1068F000206820B911A140F6D520FAF7DDFFA06885
:106900000078012801D0082070BD606801688A689D
:106910000021904705000FD10821204605F028FEF0
:106920000121204605F006FE12A1206900F0D0F9F1
:1069300002212046FCF7DAF8284670BD2E2E5C2E88
:106940002E5C2E2E5C2E2E5C2E2E5C2E2E5C636F0B
:106950006D706F6E656E74735C6C69627261726982
:1069600065735C636C695C6E72665F636C692E63F1
:10697000000000000A0A000000F1804000680028C2
:1069800000D00120704708B500F18040002101606F
:106990000068009008BD0000094810B5007820B9D3
:1069A00008A14FF49E70FAF787FF1548006800F0C1
:1069B0000110B0F1011F01D0002010BD012010BD59
:1069C000380700202E2E5C2E2E5C2E2E5C2E2E5C88
:1069D0002E2E5C2E2E5C696E746567726174696F11
:1069E0006E5C6E7266785C6C65676163795C6E7212
:1069F000665F6472765F636C6F636B2E630000008A
:106A00000C04004070B5184C0546207820B917A139
:106A100040F20D10FAF750FF607838B115B169688F
:106A2000002088470020FAF763FE0CE00020FAF708
:106A30005FFE25B10C4829460830FDF7DFFF60688E
:106A400008B902F04FF96068401C60600020FAF756
:106A50007DFE6068002806D1BDE8704003A140F2C9
:106A60002910FAF729BF70BD380700202E2E5C2EA2
:106A70002E5C2E2E5C2E2E5C2E2E5C2E2E5C696ED5
:106A8000746567726174696F6E5C6E7266785C6C57
:106A900065676163795C6E72665F6472765F636C72
:106AA0006F636B2E6300000070B50C4C01252078DD
:106AB00008B185260BE00020A06060602061E060E6
:106AC000074802F03FF9064602F0DAF8257002F0B6
:106AD000C9F800B1A570304670BD0000380700202D
:106AE0007D310000064810B5007818B905A1FF20D7
:106AF000FAF7E2FE12480068C0F3004010BD000043
:106B0000380700202E2E5C2E2E5C2E2E5C2E2E5C46
:106B10002E2E5C2E2E5C696E746567726174696FCF
:106B20006E5C6E7266785C6C65676163795C6E72D0
:106B3000665F6472765F636C6F636B2E6300000048
:106B40001804004070B5174C0546207818B916A1F6
:106B5000D020FAF7B1FEA07838B115B169680120EC
:106B600088470020FAF7C4FD0CE00020FAF7C0FDCA
:106B700025B10C4829461030FDF740FFE06808B900
:106B800002F038F9E068401CE0600020FAF7DEFD12
:106B9000E068002805D1BDE8704003A1EC20FAF7B9
:106BA0008BBE70BD380700202E2E5C2E2E5C2E2E44
:106BB0005C2E2E5C2E2E5C2E2E5C696E74656772C8
:106BC0006174696F6E5C6E7266785C6C6567616338
:106BD000795C6E72665F6472765F636C6F636B2E56
:106BE0006300000010B5074C217809B1852010BD65
:106BF00000B9054802F0E4FA0028F8D1012121701B
:106C000010BD0000E4000020B0C7000010B504462D
:106C100000F007F8204602F0A5FB02F09CFB0020E4
:106C200010BD10B502F090FBBDE8104002F0C8BBEB
:106C3000F0B505460478154889B0164640F824207A
:106C4000124A0869121DA2F1080742F82400487F81
:106C5000385520226846F9F7FAFC04942878385C05
:106C600048B10EB10A4A00E000226946281D02F030
:106C700029FE09B0F0BD0EB1064A00E000226946C7
:106C800005F10C0002F016FCF3E70000EC00002018
:106C9000A9B80000E9B6000030B40378054CE35C05
:106CA0001BB130BC001D02F039BF30BC0C3002F00B
:106CB0000FBD0000E80000200178044A515C11B1CA
:106CC000001D02F0C9BF0C3002F094BDE8000020A6
:106CD0000FB438B5040003D110A11C20FAF7ECFD65
:106CE000606918B90DA11D20FAF7E6FD206818B9F2
:106CF0000AA11E20FAF7E0FD606818B907A11F205D
:106D0000FAF7DAFD0599002905D006A800906A4631
:106D1000204600F049F838BC5DF814FB2E2E5C2E9E
:106D20002E5C2E2E5C2E2E5C2E2E5C2E2E5C65781C
:106D30007465726E616C5C667072696E74665C6EAE
:106D400072665F667072696E74662E630000000082
:106D500010B5040003D107A10B20FAF7ADFDA2681E
:106D6000002A05D0D4E90403216898470020A060D8
:106D700010BD00002E2E5C2E2E5C2E2E5C2E2E5C66
:106D80002E2E5C2E2E5C65787465726E616C5C666E
:106D90007072696E74665C6E72665F667072696E40
:106DA00074662E63000000002DE9FC4791460C46F6
:106DB0005FEA000804D183A140F25220FAF77CFD7B
:106DC000D8F8140020B97FA14FF41570FAF774FDBC
:106DD000D8F8000020B97BA140F25520FAF76CFDED
:106DE000D8F8040020B977A140F25620FAF764FDE4
:106DF000002C76D014F8011B39B125290ED040465D
:106E0000FBF792F820780028F4D198F80C000028BD
:106E100067D04046BDE8FC47FFF79ABF002001223B
:106E200021782B291BD02D2902D0302908D102E04E
:106E300040F0010001E040F00200641C002AEFD1A4
:106E400000252A290ED02178A1F130020A2A11D278
:106E500005EB850201EB4205641C303DF1E740F093
:106E60000400EAE7D9F800100B1DC9F800300968E2
:106E7000641C0D44217800232E290BD114F8011F26
:106E8000A1F130020A2A05D203EB830201EB42038F
:106E9000303BF3E76C290DD068290BD0692921D04C
:106EA0000BDC252918D0582931D063290ED064294C
:106EB00015D117E014F8011FECE7702969D0732988
:106EC00032D075291BD0782909D120E0D9F80000EB
:106ED000011DC9F8001001784046FBF725F8641C35
:106EE00090E76CE0D9F800100A1DC9F80020096885
:106EF000CDE900500A224046FDF754FCEFE7D9F8EF
:106F000000100A1DC9F8002009680A2206E0D9F815
:106F100000100A1DC9F8002009681022CDE90050B0
:106F2000404604F063FDDAE7D9F8001000270A1D97
:106F3000C9F800200E68C00705D112E04046761C53
:106F40007F1CFAF7F1FF31780029F7D104E0202106
:106F500040466D1EFAF7E8FFBD42C0D9002DF6D1BC
:106F6000BDE74EB13046F9F7A4FB074604E0202107
:106F700040466D1EFAF7D8FFBD4206D9002DF6D166
:106F800003E04046761CFAF7CFFF31780029F8D1AC
:106F9000A5E7D9F80000011DC9F8001005683021E7
:106FA0004046FAF7C1FF78214046FAF7BDFF0820B6
:106FB0000021CDE90001034610222946B0E7BDE8D3
:106FC000FC8700002E2E5C2E2E5C2E2E5C2E2E5C5E
:106FD0002E2E5C2E2E5C65787465726E616C5C661C
:106FE0007072696E74665C6E72665F667072696EEE
:106FF00074665F666F726D61742E63002DE9FF41E8
:107000001C46DDE90A7815460E46684600F0C0F8D1
:1070100046EA450141EA840141EA072242EA084181
:10702000009A00EB8200C0F80017BDE8FF812DE94F
:10703000FF411C46DDE90A7815460E46684600F019
:10704000E5F846EA450141EA840141EA072242EABD
:107050000841009A00EB8200C0F80017BDE8FF81EC
:107060002DE9FF411C46DDE90A7815460E466846C3
:1070700000F0F2F846EA450141EA840141EA0722BC
:1070800042EA0841009A00EB8200C0F80017BDE810
:10709000FF812DE9FF411C46DDE90A7815460E46C1
:1070A000684600F017F946EA450141EA840141EAE1
:1070B000072242EA0841009A00EB8200C0F800175C
:1070C000BDE8FF811CB5002100910B460122019112
:1070D000FFF7C6FF1CBD1CB5002100910B46012225
:1070E0000191FFF7D6FF1CBD1CB500220B46009294
:1070F00011460192FFF7B4FF1CBD1CB500220B46E0
:10710000009211460192FFF7C4FF1CBD1CB500217F
:1071100000910B46012201911146FFF7A1FF1CBD12
:107120001CB5002100910B46012201911146FFF789
:10713000B0FF1CBD13B50C46684600F067F8009917
:1071400000EB8101D1F8002722F44032C1F800277A
:10715000009900EB8100D0F8001741EA0441C0F823
:1071600000171CBD38B5094B44181B6800936B46CB
:1071700008E000BF53F82010D1F8205520C2C1F814
:107180002055401C8442F5D838BD0000B4C700002B
:1071900010B502684FF0000053094FF0010108D10B
:1071A0000B07D3E94C03102800D17BB10848094BE9
:1071B000184302F01F029140014204D106A14FF48E
:1071C000E370FAF779FB4FF0A04010BD0E48EEE7F0
:1071D000FFC11770003800032E2E5C2E2E5C2E2E61
:1071E0005C2E2E5C2E2E5C2E2E5C6D6F64756C6595
:1071F000735C6E7266785C68616C5C6E72665F6709
:1072000070696F2E680000003F8E16F010B50068A0
:1072100000F09EF820B904A14FF4E370FAF74CFB9C
:107220004FF0A04010BD00002E2E5C2E2E5C2E2EA6
:107230005C2E2E5C2E2E5C2E2E5C6D6F64756C6544
:10724000735C6E7266785C68616C2F6E72665F67E5
:1072500070696F2E6800000010B502684FF00000E2
:1072600053094FF0010108D10B07D3E94C03102853
:1072700000D17BB10848094B184302F01F0291402E
:10728000014204D106A14FF4E370FAF715FB4FF069
:10729000A04010BD0E48EEE7FFC117700038000394
:1072A0002E2E5C2E2E5C2E2E5C2E2E5C2E2E5C2E18
:1072B0002E5C6D6F64756C65735C6E7266785C686D
:1072C000616C2F6E72665F6770696F2E68000000D8
:1072D0003F8E16F010B502684FF0000053094FF0D2
:1072E000010108D10B07D3E94C03102800D17BB171
:1072F0000848094B184302F01F029140014204D193
:1073000006A14FF4E370FAF7D7FA4FF0A04010BD92
:107310000E48EEE7FFC11770003800032E2E5C2EDA
:107320002E5C2E2E5C2E2E5C2E2E5C2E2E5C6D6F17
:1073300064756C65735C6E7266785C68616C2F6EE8
:1073400072665F6770696F2E680000003F8E16F0EE
:1073500043094FF000014FF0010208D11307D3E9B0
:107360004C13102900D14BB10649074B194300F0CB
:107370001F0082400A4203D0012070470349F4E70E
:1073800000207047FFC11770003800033F8E16F0D1
:1073900001B56846FFF73AFFD0F810050099C840DC
:1073A00000F0010008BD01B56846FFF755FF009ADF
:1073B00001219140C0F8081508BD01B56846FFF7E6
:1073C00089FF009A01219140C0F8081508BD38B521
:1073D00001240090684631B1FFF7DAFE00998C4035
:1073E000C0F8084538BDFFF7D3FE00998C40C0F8BF
:1073F0000C4538BD034908B5084400210160006808
:10740000009008BD0060004002494058012800D0AB
:1074100000207047006000402DE9F04105462048FB
:107420000E460024D0F8103419460AE0CA681179D3
:10743000A14205D1641C0A2CF6DB4FF0FF342BE08F
:1074400011680029F2D1611C26D0E9680C71D0F8CE
:10745000101459B1C968EA6809681160D0F81004BD
:10746000C06805600027DFF83C8011E0C0F81054C8
:10747000E96800200860F5E708EBC700C279B2426E
:1074800000D33246E8683946007900F02DFB7F1CB6
:1074900000F0FCFAB842EFD82046BDE8F0810000C9
:1074A000500C0020B8E10000406801218068FBF723
:1074B000F5B810B540688468606801688A68012181
:1074C000904718B10420A168087010BD0320FAE7A6
:1074D0002DE9F3414468A668B068007804281ED0FE
:1074E000032807D0002501A9206800F0A3FD85F03E
:1074F000010709E00125F6E739463046FBF7CEF8EB
:1075000001A9206800F096FD0028F5D1019800F04F
:10751000D9FB002D03D000213046FBF7BFF8BDE8B2
:10752000FC81F0B595B01C4615460F4608461A9EDC
:1075300000F0C8FB182109A8F9F7B0F80E96CDE9BC
:1075400009540023082203A9384600F0D1FB05980E
:107550000690BDF81000ADF81C00BDF81200ADF8A3
:107560001E0000208DF821000398082600F003007B
:10757000012802D0022818D032E003983346850A49
:10758000C0F3C2008DF8200003980FA9C0F3831444
:10759000A200384600F0ACFB09A8009006AB2246DA
:1075A0000FA9284600F0EAFA1AE00398840DC0F308
:1075B000C2008DF82000082C01D2254600E00825E5
:1075C00033462A460FA9384600F092FB2E44641B2E
:1075D00009AB06AA29460FA800F0B0F9002CEAD1A1
:1075E000384600F075FB15B0F0BD7047084810B57F
:1075F0000178084A515C19B1001D02F02DFB02E030
:107600000C3002F0F7F8BDE81040002004F08AB812
:1076100020020020E800002008B5034A0092402321
:10762000024AFFF77EFF08BD5DB10000B80A0020E6
:107630000A4A012902EBC00007D0022907D003291A
:1076400007D0042907D0002070470220704704208B
:10765000704700797047407970470000B8E100003A
:107660002DE9FF5FFAF778FC18B1002004B0BDE8FF
:10767000F09F8C4C0020C4F81804BFF34F8F8A4948
:10768000A06800900D684FF00009284004EB8000CE
:107690000CE000BFD4F8180470B96168009881420A
:1076A00001D8A160E1E7284004EB80000C30694676
:1076B000FDF782F90028EDD1002001A9A046009A2B
:1076C00002EA050308EB8303521CDB6841F8203013
:1076D000401C00920228F2D3019800F00300022817
:1076E00002D0012850D0BEE001985022810D8A4678
:1076F000B2EB905F00D850210C4664F39F50C0F36A
:10770000C20701900831694800F093FA0600EAD0F8
:1077100000F0D8FA4B46082201A9304600F016FBCB
:10772000009909F1080B2940681A8000001D844265
:1077300023D95C4D0C3530B1C2B208EB8101201A5F
:1077400091460C3104E02946E2B2002591462846D4
:10775000C4B25B46304600F0F9FA0BEB09032DB1D9
:10776000224629464FEA060000F0F0FA00990AF195
:10777000030001EB900000903DE008EB81015B46C7
:10778000224630460C31EFE70198C0F383100628FB
:1077900000D30620019960F38911C1F38310C1F36E
:1077A000C207801C01918100404800F042FA0600A7
:1077B00059D000F087FA4B46082201A9304600F064
:1077C000C5FA09F1080900240FE000984B4600EAC9
:1077D0000501401C08EB81010090042230460C3169
:1077E00000F0B4FA09F10409641C0198C0F3831095
:1077F000A042EAD8B6B3D8F81044D8F818044546E1
:10780000F8B1304600F064FA46E0E06841790129B9
:1078100015D10179BDF80800254A01EB410152F864
:10782000200007228A401040C840052F00D10327BE
:10783000B84204D322682046314612689047E06877
:107840000468002CE1D1304600F042FA0020F9F73C
:107850004FFFD5F8180408B90098A8600020F9F780
:1078600075FF19E0FFE7D8F8104405E021682046CD
:1078700089688847E0680468002CF7D10D48408883
:10788000022809D30C480D49401AC008022101EB17
:1078900000400BA100F01EF8FAF75EFB80F001003B
:1078A000E4E60000500C00203C0200208CE20000C6
:1078B000380300203403002068E20000B8E1000033
:1078C0004261636B656E647320666C757368656492
:1078D0000000000000231A4603F094BC08B5012301
:1078E00000926A4603F08EFC08BD1CB5CDE900236A
:1078F00002236A4603F086FC1CBD3EB5069C8DE85B
:107900001C0003236A4603F07DFC3EBD7FB5DDE924
:1079100008458DE83C0004236A4603F073FC7FBDF4
:1079200070B586B00DF1280C9CE870008DE87C00E5
:1079300005236A4603F066FC06B070BD2DE9F047EA
:107940000E4680461C469246082940D894F80C9072
:10795000002020731946104603F010FA0025B542A6
:1079600006D218F805201BA12046FFF7B1F903E065
:107970001AA12046FFF7ACF96D1C082DEFD318A112
:107980002046FFF7A5F90025B54212D218F8057078
:107990007E2F08D8F8F700FE0068C05D10F03E0F9B
:1079A00001D03A4600E02E220EA12046FFF790F9C2
:1079B00003E00DA12046FFF78BF96D1C082DE3D3E2
:1079C00001222146504603F03DF984F80C90BDE8B1
:1079D000F0870000202530327800000020202000B1
:1079E0007C00000025630000200000002DE9F04726
:1079F0001F494FF000081F4881F8008000F066F929
:107A0000002832D11C4800F0E3FD1C49DFF87090DB
:107A1000DFF870A0A1EB0900C608002414E00027DD
:107A20003D460CE0AC4209D059F8340059F8351005
:107A30001422F8F75CFE002800DD7F1C6D1CB542A7
:107A4000F0D32AF82470641CB442E8D300204146E5
:107A500054460D4D06E000BF04EB8002518045F80E
:107A60002010401CB042F7D30020BDE8F087000092
:107A7000500C00208CE200006CCC000070E2000092
:107A8000B8E10000DC02002038030020024803496E
:107A9000401AC0087047000070E20000B8E1000022
:107AA0007FB505461146002401A873B1FDF76AFDB4
:107AB00098B90B480199072250F8210005EB4501C0
:107AC0008A401040C840C4B207E0FDF75BFD20B912
:107AD0000448019900EBC100847904B0204670BDD0
:107AE00038030020B8E1000070B5114B00EB4000F6
:107AF00003EB81040F4B02F0070203EB8101072324
:107B000003FA00F60D688240B5432A4300200A605C
:107B10004FEA000103FA01F51540CD40ADB28542B0
:107B200000D92846C91C0A29F4D3608070BD000022
:107B3000DC0200203803002013B56846FDF722FD63
:107B400008B100201CBD0248009950F831001CBD4E
:107B5000B8E1000070B508480125D0F81044057060
:107B600007E0E06845712168204649688847E06879
:107B70000468002CF5D170BD500C00202DE9FF47A2
:107B800081460C9D00200C462F7B28739846164694
:107B90002946184603F0F2F8072E42D2DFE806F035
:107BA00004090F161F2A360049462846FFF790F8A9
:107BB00037E0494628462268FFF78AF831E0D4E9E1
:107BC000002349462846FFF783F82AE0A068009082
:107BD000D4E9002349462846FFF77AF821E0D4E9A2
:107BE0000201CDE90001D4E9002349462846FFF708
:107BF0006FF816E004F1080007C88DE80700D4E923
:107C0000002349462846FFF763F80AE004F108001C
:107C10000FC88DE80F00D4E9002349462846FFF736
:107C200057F800222946404603F00CF82F73BDE8B0
:107C3000FF872DE9F041058B80462D1F4819C01C98
:107C4000B0FBF5F0C6B24046FDF788FD041E19D022
:107C50000020207101206071E58000272546761EF6
:107C6000C4F800800BE04046FDF778FD60B1617913
:107C7000491C6171286005467F1CC0F80080B7422E
:107C8000F1D32046BDE8F081204600F002F8002044
:107C9000F8E72DE9F041457901466B1E002201E02D
:107CA0000968521C9A42FBD30F680146002605E082
:107CB00038460C68FDF7B8FD2146761CAE42F7D376
:107CC000BDE8F0810121001DFDF721BDFDF7F2BDEA
:107CD00010B504460121001DFDF73AFD10F0FF0F1D
:107CE00004D12046BDE81040FFF7D3BF10BD00000F
:107CF0001CB514460122CDE9002401AAFDF7BEFB04
:107D00000198A04203D002A1DA20F9F7D5FD1CBDED
:107D10002E2E5C2E2E5C2E2E5C2E2E5C2E2E5C2E9D
:107D20002E5C636F6D706F6E656E74735C6C6962F0
:107D30007261726965735C6D656D6F626A5C6E72AB
:107D4000665F6D656D6F626A2E6300001CB5144638
:107D50000022CDE9002401AAFDF790FB0198A04282
:107D600003D002A1D020F9F7A7FD1CBD2E2E5C2E5A
:107D70002E5C2E2E5C2E2E5C2E2E5C2E2E5C636FC7
:107D80006D706F6E656E74735C6C6962726172693E
:107D900065735C6D656D6F626A5C6E72665F6D6562
:107DA0006D6F626A2E63000008B500F180400146E5
:107DB0000068002220B101200A600968009108BD16
:107DC000104608BD704700002DE9F04190460D4671
:107DD00004004FF0000703D123A1C120F9F76CFD87
:107DE0001DB921A1C220F9F767FD0020F9F780FC39
:107DF000204600F057F830B105270020F9F7A6FC1F
:107E00003846BDE8F08120680668B8F1000F05D15A
:107E10000168204600F0FCF821680860E268012A49
:107E20000CD0022A0ED0042A11D06068082A13D080
:107E300006FB02012846F8F70AFCDEE76068805D71
:107E40002870DAE7606830F816002880D5E76068A7
:107E500050F826002860D0E700EBC601D1E9000108
:107E6000C5E90001C9E700002E2E5C2E2E5C2E2EE7
:107E70005C2E2E5C2E2E5C2E2E5C636F6D706F6EF2
:107E8000656E74735C6C69627261726965735C7152
:107E9000756575655C6E72665F71756575652E6377
:107EA0000000000010B5040004D107A140F2052035
:107EB000F9F702FD216808684968884201D101206C
:107EC00010BD002010BD00002E2E5C2E2E5C2E2E2C
:107ED0005C2E2E5C2E2E5C2E2E5C636F6D706F6E92
:107EE000656E74735C6C69627261726965735C71F2
:107EF000756575655C6E72665F71756575652E6317
:107F00000000000070B5040003D108A17220F9F749
:107F1000D3FC206805684168204600F079F8A84243
:107F200001D1012070BD002070BD00002E2E5C2EFE
:107F30002E5C2E2E5C2E2E5C2E2E5C2E2E5C636F05
:107F40006D706F6E656E74735C6C6962726172697C
:107F500065735C71756575655C6E72665F7175657C
:107F600075652E630000000010B5040004D104A163
:107F700040F21320F9F7A0FC2068806810BD0000D3
:107F80002E2E5C2E2E5C2E2E5C2E2E5C2E2E5C2E2B
:107F90002E5C636F6D706F6E656E74735C6C69627E
:107FA0007261726965735C71756575655C6E726628
:107FB0005F71756575652E630000000010B50400E3
:107FC00004D104A140F21920F9F776FC21680020C1
:107FD000886010BD2E2E5C2E2E5C2E2E5C2E2E5C0C
:107FE0002E2E5C2E2E5C636F6D706F6E656E7473DB
:107FF0005C6C69627261726965735C7175657565E7
:108000005C6E72665F71756575652E6300000000B9
:1080100070B50C46050003D105495D20F9F74CFC0D
:10802000A868A04201D9601C70BD002070BD00008E
:10803000807F00002DE9F0410E4604004FF000085B
:1080400003D12CA17D20F9F737FC1EB929A17E2090
:10805000F9F732FC0020F9F74BFB2046FFF752FFFF
:10806000070009D0207C38B14FF004080020F9F750
:108070006DFB4046BDE8F0812068456841682046B8
:10808000FFF7C6FF2168486037B1206801682046C5
:10809000FFF7BEFF21680860E268012A14D0022AB7
:1080A00016D0042A19D0082A1CD06068314605FB76
:1080B0000200F8F7CCFA204602F0C6FE21688A6872
:1080C0008242D3D28860D1E7616830784855F2E7C0
:1080D0006168308821F81500EDE76168306841F883
:1080E0002500E8E7D6E90001626802EBC502C2E9B3
:1080F0000001E0E72E2E5C2E2E5C2E2E5C2E2E5CD8
:108100002E2E5C2E2E5C636F6D706F6E656E7473B9
:108110005C6C69627261726965735C7175657565C5
:108120005C6E72665F71756575652E630000000098
:108130002DE9F04F8046806889B0D0F84801C0F33F
:10814000400038B109B04046BDE8F04F002211466A
:10815000FEF7FCB8012907D909B04046BDE8F04F49
:108160001FA20221FEF794B82249DFF88CB0A1EBE0
:108170000B001C21B0FBF1F7002529E0C5EBC50180
:108180000BEB81042046D4E9026AFFF7EDFE81463D
:10819000204600F041F8642209FB02F14243B1FBA2
:1081A000F6F1B2FBF6F26369247CB4B10FF24C0C29
:1081B000CDF81CC0CDF800A0CDE90596CDE9012091
:1081C000CDE90361104A08214046FEF761F86D1CB5
:1081D000BD42D3D309B0BDE8F08F0FF2300CE7E712
:1081E00042616420617267756D656E7420636F759E
:1081F0006E740000C4E20000A8E200004E6F206F21
:10820000766572666C6F7700B8D700004F7665723E
:10821000666C6F770000000010B5040004D108A15F
:108220004FF4FC70F9F748FB0020F9F761FA20469B
:1082300002F00AFE04460020F9F788FA204610BD35
:108240002E2E5C2E2E5C2E2E5C2E2E5C2E2E5C2E68
:108250002E5C636F6D706F6E656E74735C6C6962BB
:108260007261726965735C71756575655C6E726665
:108270005F71756575652E63000000002DE9F041A2
:108280001F4615460E00044603D11DA11520F9F71F
:1082900013FB1DB91AA11620F9F70EFB37B1A06820
:1082A000FDF732FA10B11120BDE8F081A068D0E9E5
:1082B00003316068A3EB010C421C944507D10020F8
:1082C000286017B1A068FDF716FA0020ECE703EA72
:1082D000000201EA0007BA4201D3831A01E0181A2A
:1082E0000B1A28685B1C984200D203462B6020685A
:1082F00010443060A0682A68C1681144C160E4E796
:108300002E2E5C2E2E5C2E2E5C2E2E5C2E2E5C2EA7
:108310002E5C636F6D706F6E656E74735C6C6962FA
:108320007261726965735C72696E676275665C6EB4
:1083300072665F72696E676275662E630000000088
:108340002DE9F04117465FEA0108054603D122A155
:108350009C20F9F7B1FA1FB91FA19D20F9F7ACFADB
:10836000A868001DFDF7D0F910B11120BDE8F0811B
:10837000A868816800690C1A3868A04200D20446D7
:108380003C60AA6869681069926808400A408242A5
:1083900001D9161A01E00E1A761CB44208D92968D0
:1083A000324601444046F8F752F9A41B0020B0447D
:1083B0002968224601444046F8F749F9A8683A6816
:1083C000016911440161A8684161A868001DFDF7B9
:1083D00092F90020CAE700002E2E5C2E2E5C2E2E75
:1083E0005C2E2E5C2E2E5C2E2E5C636F6D706F6E7D
:1083F000656E74735C6C69627261726965735C72DC
:10840000696E676275665C6E72665F72696E6762DE
:1084100075662E63000000002DE9F04117465FEA03
:108420000108054603D11FA14C20F9F745FA1FB9F1
:108430001CA14D20F9F740FAA868FDF765F910B1C5
:108440001120BDE8F081A8683C6881680069081ABD
:108450006968081A401C844200D304463C60A8683E
:108460006968806808400E1A761CB44208D92968E9
:10847000324608444146F8F7EAF8A41B0020B0440D
:108480002968224608444146F8F7E1F8A9683A68A5
:10849000886810448860A968C860A868FDF72BF94F
:1084A0000020CEE72E2E5C2E2E5C2E2E5C2E2E5C17
:1084B0002E2E5C2E2E5C636F6D706F6E656E747306
:1084C0005C6C69627261726965735C72696E676225
:1084D00075665C6E72665F72696E676275662E6342
:1084E0000000000010B5826894681369E41AA14284
:1084F00001D9042010BD194411618268516180685E
:10850000001DFDF7F8F8002010BD00002DE9F04136
:108510001E4614460F00054603D11DA16D20F9F734
:10852000CBF91CB91AA16E20F9F7C6F93EB1A868BB
:10853000001DFDF7E9F810B11120BDE8F081A96830
:1085400088684969421A09D06B6819401840884206
:108550000DD9266896420AD9226010E000202060DA
:108560001EB1A868001DFDF7C6F80020E5E78842A7
:1085700005D8581A2268401C824200D92060286819
:1085800008443860A8682268416911444161ECE7F9
:108590002E2E5C2E2E5C2E2E5C2E2E5C2E2E5C2E15
:1085A0002E5C636F6D706F6E656E74735C6C696268
:1085B0007261726965735C72696E676275665C6E22
:1085C00072665F72696E676275662E6300000000F6
:1085D00082680021916082681161826851618268BD
:1085E000D1608268516080680160704770B58268B0
:1085F000456894681369E31AEB1A5B1C994201D928
:10860000042070BD214491608268D1608068FDF7CC
:1086100075F808B1002070BD082070BD08B50022B3
:1086200042504058009008BD70B50D46060003D179
:108630000BA11420F9F740F91DB909A11520F9F78C
:108640003BF9746804E0B2682946904718B1246881
:1086500020680028F7D120682860256070BD0000E0
:108660002E2E5C2E2E5C2E2E5C2E2E5C2E2E5C2E44
:108670002E5C636F6D706F6E656E74735C6C696297
:108680007261726965735C736F72746C6973745C28
:108690006E72665F736F72746C6973742E63000020
:1086A00010B5040003D103A13720F9F705F960687C
:1086B000006810BD2E2E5C2E2E5C2E2E5C2E2E5CA5
:1086C0002E2E5C2E2E5C636F6D706F6E656E7473F4
:1086D0005C6C69627261726965735C736F72746CF1
:1086E0006973745C6E72665F736F72746C697374B5
:1086F0002E63000010B5040003D105A12B20F9F76B
:10870000DBF861680868002801D002680A6010BDC3
:108710002E2E5C2E2E5C2E2E5C2E2E5C2E2E5C2E93
:108720002E5C636F6D706F6E656E74735C6C6962E6
:108730007261726965735C736F72746C6973745C77
:108740006E72665F736F72746C6973742E6300006F
:1087500070B50C46050003D10BA14320F9F7ACF826
:108760001CB909A14420F9F7A7F80021686806E0C0
:10877000A24203D121680160012103E01046026892
:10878000002AF5D1084670BD2E2E5C2E2E5C2E2EB2
:108790005C2E2E5C2E2E5C2E2E5C636F6D706F6EC9
:1087A000656E74735C6C69627261726965735C7327
:1087B0006F72746C6973745C6E72665F736F7274DF
:1087C0006C6973742E6300000C4A10B502F58C734B
:1087D0000EE0991AC91001EBD171491002EBC101E9
:1087E0000C68844201D90B4602E005D201F108026F
:1087F0009A42EED3002010BD486810BD18CB00008F
:1088000000B5FFF7E1FF002800D1014800BD0000DE
:1088100004CB00004058002800D00120704708B564
:10882000002242504058009008BDD0F80403084090
:1088300000D0012070474058002800D00120704728
:1088400008B5002242504058009008BD034900205E
:108850000860BFF36F8FBFF34F8F70470075024002
:108860000C4910B5002008718020FBF73BFA817B92
:108870000124032902D0006800280AD18020FBF7D8
:10888000FDF98440E1430348BDE81040103000F09A
:10889000F1B910BD1801002030B5050600F00F0336
:1088A0000E4C03EB830004EB80000AD5082B03D3A6
:1088B0000B480160001D09E0C0F80016C0F804264E
:1088C00030BD082B04D307480160001D026030BD95
:1088D000C0F80017C0F8042730BD00000070024047
:1088E000A0760240A077024010B5044600F00F00C9
:1088F000092804D30BA140F29140F8F7DDFF2106CF
:108900004FF0010004F00F0200FA02F001D5114906
:1089100001E01049091D0968014201D0012010BD84
:10892000002010BD2E2E5C2E2E5C2E2E5C2E2E5C7A
:108930002E2E5C2E2E5C6D6F64756C65735C6E7292
:1089400066785C68616C2F6E72665F757362642E08
:10895000680000001075024070B50446000604D49B
:1089600016A14FF46470F8F7A7FF04F00F00082871
:1089700004D312A140F29130F8F79EFF200704D1F2
:108980000EA140F29230F8F797FF1A4900200871C3
:108990002046FBF7A7F9817B0125032902D0006857
:1089A00000280AD12046FBF769F98540E943BDE874
:1089B00070401048103000F05DB970BD2E2E5C2E56
:1089C0002E5C2E2E5C2E2E5C2E2E5C2E2E5C6D6F61
:1089D00064756C65735C6E7266785C6472697665EA
:1089E00072735C7372635C6E7266785F75736264D7
:1089F0002E63000018010020F8B50446000604D4D8
:108A00001B4940F2AE30F8F757FF04F00F0008287A
:108A100004D2174940F2AF30F8F74EFF154E002050
:108A200030712046FBF75EF9817B0125032914D0C4
:108A30000068002810D12046FBF720F98540E94363
:108A400006F1100000F016F90B48806800908DF8D0
:108A50000240B16868468847F8BD2046FBF70EF92A
:108A60008540E943BDE8F8400248103000F002B903
:108A70001CBC000018010020C0C7000070B50546EE
:108A8000000605F00F0402D5092C09D301E0092CDA
:108A90000BD30E4940F24B40F8F70EFF280604D5E1
:108AA0000A4940F24C40F8F707FF082C04D2074966
:108AB00040F24D40F8F700FF0548006818B1C103C7
:108AC00000D5002070BD4FF0FF3070BD84A90000BC
:108AD000C0740240F8B50446000604D520A140F257
:108AE000EE30F8F7E9FE04F00F00082804D31CA1CB
:108AF00040F2EF30F8F7E0FE200704D118A14FF460
:108B00007C70F8F7D9FE244E002030712046FBF728
:108B1000E9F8817B0125032902D0006850B11AE0F1
:108B20002046FBF7ABF885401B48E943103000F0C6
:108B3000A1F810E02046FBF7A1F885401648E9436C
:108B4000103000F097F81548006900908DF8024049
:108B5000B16868468847BDE8F84002F0A1BF000050
:108B60002E2E5C2E2E5C2E2E5C2E2E5C2E2E5C2E3F
:108B70002E5C6D6F64756C65735C6E7266785C6498
:108B80007269766572735C7372635C6E7266785F2D
:108B9000757362642E63000018010020C0C70000D6
:108BA00070B50546000605F00F0402D5092C09D35F
:108BB00001E0092C0BD30D4940F23940F8F77CFE57
:108BC000280604D5094940F23A40F8F775FE082C0A
:108BD00005D307480068C10300D5002070BD0549D2
:108BE00001EB8400D0F8A00470BD000084A900004F
:108BF000C07402400070024002494058002800D072
:108C0000012070470070024010B50446FFF7F4FFE2
:108C1000002806D0034900226250BFF36F8FBFF3D4
:108C20004F8F10BD0070024003490860BFF36F8F83
:108C3000BFF34F8F70470000007402400248006885
:108C4000002800D0012070472C75024004490844D8
:108C500001210160BFF36F8FBFF34F8F704700009A
:108C60000070024002480068002800D001207047D0
:108C70000004014008B56A46F7F7E5FA08BD0000B0
:108C8000084810B5007918B907A19720F8F714FE25
:108C900000F076FA1249012008600249091F0870A5
:108CA00010BD0000F80000202E2E5C2E2E5C2E2E13
:108CB0005C2E2E5C2E2E5C2E2E5C6D6F64756C65AA
:108CC000735C6E7266785C647269766572735C73ED
:108CD00072635C6E7266785F636C6F636B2E6300A9
:108CE00018050040084810B5007918B907A1DC2024
:108CF000F8F7E2FD4FF48070FDF745FE0120810793
:108D0000C1F80403086010BDF80000202E2E5C2E70
:108D10002E5C2E2E5C2E2E5C2E2E5C2E2E5C6D6F0D
:108D200064756C65735C6E7266785C647269766596
:108D300072735C7372635C6E7266785F636C6F6390
:108D40006B2E630010B5040003D107A17E20F8F755
:108D5000B3FD134900200A790AB1852010BD012214
:108D60000C600A7110BD00002E2E5C2E2E5C2E2E83
:108D70005C2E2E5C2E2E5C2E2E5C6D6F64756C65E9
:108D8000735C6E7266785C647269766572735C732C
:108D900072635C6E7266785F636C6F636B2E6300E8
:108DA000F800002070B54FF480763046FDF7E4FD02
:108DB0000F4DB40540B13046FDF7E5FD0120C4F884
:108DC00008032968002088474FF482763046FDF773
:108DD000D3FD00280AD03046FDF7D5FD0220C4F8A7
:108DE00008032968BDE870400120084770BD0000F5
:108DF000F8000020094810B5007918B908A1C4206E
:108E0000F8F75AFD4FF48270FDF7BDFD02204107CF
:108E1000C1F8040310490120086010BDF8000020CB
:108E20002E2E5C2E2E5C2E2E5C2E2E5C2E2E5C2E7C
:108E30002E5C6D6F64756C65735C6E7266785C64D5
:108E40007269766572735C7372635C6E7266785F6A
:108E5000636C6F636B2E630008000040002802D033
:108E60000149800108477047B1C800002DE9F04171
:108E70000D460646FEF76CFA20B929A140F23A20C9
:108E8000F8F71AFD304601F051FE20B924A140F256
:108E90003B20F8F711FD304601F052FE0028304625
:108EA00015D0F9F7D1F8083801F0C4FE032802D034
:108EB00001280AD003E03046FEF76AFA28B1032100
:108EC0003046BDE8F041FEF735B90221F8E701F080
:108ED00043FE002822D03046F9F7B6F804464FF496
:108EE000807000EB84001D4F81B207EB8400D0F846
:108EF000102542F00102C0F810250846FEF77AFA64
:108F0000002D0BD03046F9F79FF8154951F8200095
:108F1000002803D00120A040C7F80403BDE8F08179
:108F20002E2E5C2E2E5C2E2E5C2E2E5C2E2E5C2E7B
:108F30002E5C6D6F64756C65735C6E7266785C64D4
:108F40007269766572735C7372635C6E7266785F69
:108F50006770696F74652E63000000000060004058
:108F60004C0700202DE9FC4114460D460646FEF74D
:108F7000EFF920B92EA140F20A20F8F79DFC002756
:108F8000304601F0D3FD08B108274DE0A87821460E
:108F9000C0F340023046F9F733F80446401C42D093
:108FA000A87841071AD4C0070DD068460096FEF78E
:108FB0002DF9009900EB8100D0F8001721F0020193
:108FC000C0F8001707E000216B78304600910A4690
:108FD0000191FEF72CF8304601F09AFDA878800741
:108FE00018D52248297800EB8400D0F81025204BB2
:108FF0001A40C0F810254FF4F8524FF4403302EAFB
:10900000062203EA01410A43D0F810150A43C0F8CA
:10901000102509E017482A78204410F8481F41EA33
:109020008211017000E004273846BDE8FC81000091
:109030002E2E5C2E2E5C2E2E5C2E2E5C2E2E5C2E6A
:109040002E5C6D6F64756C65735C6E7266785C64C3
:109050007269766572735C7372635C6E7266785F58
:109060006770696F74652E63000000000060004047
:10907000FFE0FCFF4C07002010B50446FEF768F93E
:1090800020B906A14FF42370F8F716FC2046FEF72E
:109090007FF9002800D0012010BD00002E2E5C2E8C
:1090A0002E5C2E2E5C2E2E5C2E2E5C2E2E5C6D6F7A
:1090B00064756C65735C6E7266785C647269766503
:1090C00072735C7372635C6E7266785F6770696FEF
:1090D00074652E630000000070B5194D95F85800B6
:1090E00008B1082070BD0024661E2046FEF730F946
:1090F00010B1281980F83060641CE4B2202CF4D33D
:1091000000242046F8F76EFF641CE4B20C2CF8D360
:1091100000200D4968650B4CC02081F80004012631
:109120004020891FC1F800014FF4BE70FEF762F9BC
:10913000A004C4F8040385F85860002070BD000046
:109140004C0700200060004006E000E0034890F873
:109150005800002800D00120704700004C07002074
:109160000121B1EB507F01D10120704700207047F1
:109170000121B1EB507F01D10120704700207047E1
:1091800006480068012110F0010F06D14FF0E020E1
:10919000C02280F800248430C167704700E100E0FD
:1091A00006480068012110F0010F06D14FF0E020C1
:1091B000C02280F800248430C167704700E100E0DD
:1091C00070B5040003D10AA14A20F8F775FB164DCB
:1091D000287808B1852070BD2078144900F001007E
:1091E0000860FFF7DDFF01202870002070BD00003F
:1091F0002E2E5C2E2E5C2E2E5C2E2E5C2E2E5C2EA9
:109200002E5C6D6F64756C65735C6E7266785C6401
:109210007269766572735C7372635C6E7266785F96
:10922000706F7765722E63000001002078050040A2
:1092300070B54FF08040D0F80453344C68070CD51B
:109240004FF48470FEF7B0FD38B1606818B930A1F2
:10925000F020F8F731FB60688047A8060DD54FF481
:109260008A70FEF7A1FD40B1A06818B928A1F920C5
:10927000F8F722FBA1680020884768060ED54FF456
:109280008C70FEF791FD48B1A06820B920A14FF481
:109290008070F8F711FBA1680120884728060ED5D9
:1092A0004FF48E70FEF780FD48B1E06820B918A138
:1092B00040F20910F8F700FBE16800208847E80554
:1092C0000ED54FF49070FEF76FFD48B1E06820B9FD
:1092D0000FA14FF48870F8F7EFFAE1680120884792
:1092E000A80511D54FF49270FEF75EFD00280BD053
:1092F000E06820B906A140F21710F8F7DDFAE1683E
:10930000BDE870400220084770BD00000001002049
:109310002E2E5C2E2E5C2E2E5C2E2E5C2E2E5C2E87
:109320002E5C6D6F64756C65735C6E7266785C64E0
:109330007269766572735C7372635C6E7266785F75
:10934000706F7765722E63004FF080414FF460704C
:10935000C1F8080370474FF080414FF46070C1F8C6
:109360000403704710B5040003D106A1C720F8F725
:10937000A3FA12480021C1602168002900D0C16011
:1093800010BD00002E2E5C2E2E5C2E2E5C2E2E5C30
:109390002E2E5C2E2E5C6D6F64756C65735C6E7228
:1093A00066785C647269766572735C7372635C6E16
:1093B0007266785F706F7765722E6300000100201F
:1093C00001490020C86070470001002070B50D46BB
:1093D000040003D10DA15120F8F76EFA204601F0E8
:1093E00027FD04000FD00020F8F782F9207920B182
:1093F0000020F8F7ABF9112070BD01202560207125
:109400000020F8F7A3F9002070BD00002E2E5C2E7E
:109410002E5C2E2E5C2E2E5C2E2E5C2E2E5C6D6F06
:1094200064756C65735C6E7266785C64726976658F
:1094300072735C7372635C7072735C6E7266785F79
:109440007072732E6300000010B5040003D106A1F2
:109450007520F8F731FA204601F0EAFC002802D026
:1094600000210160017110BD2E2E5C2E2E5C2E2E6F
:109470005C2E2E5C2E2E5C2E2E5C6D6F64756C65E2
:10948000735C6E7266785C647269766572735C7325
:1094900072635C7072735C6E7266785F7072732E4A
:1094A000630000000149024802F068B9A8070020E3
:1094B000002000402DE9F04117460D00064603D17B
:1094C0001AA18420F8F7F8F93079264A00EB400118
:1094D00001EBC00102EB810494F82A1011B10820BD
:1094E000BDE8F081204951F820103068FFF76EFF89
:1094F00008B11120F4E729463046F8F767F96760AC
:10950000286920601FB1297F3046FBF79FF930683A
:109510000421C0F800150020A061E06184F8290052
:1095200044F8140F0121A175DAE700002E2E5C2EFD
:109530002E5C2E2E5C2E2E5C2E2E5C2E2E5C6D6FE5
:1095400064756C65735C6E7266785C64726976656E
:1095500072735C7372635C6E7266785F756172744D
:109560002E630000A8070020B8C700002DE9F05FB7
:10957000054600790F4600EB400101EBC001404871
:10958000164600EB810494F82A00012804D03DA17E
:109590004FF4A370F8F790F927B93AA140F24710B9
:1095A000F8F78AF926B937A14FF4A470F8F784F9CF
:1095B000616800204FF4017811B12A68C2F808836D
:1095C000A1694FF0000969B1E06938B1606810B174
:1095D0002868C0F804831120BDE8F09F27610120AE
:1095E000E66105E0C4F82490E760A661C4F81C9029
:1095F00094F82910014302D1284601F04EFD60681D
:109600000028286803D0C0F804830020E4E74FF462
:10961000A2763146FFF703F9B2464FF4927B5946E2
:109620002868FFF7F7F806464FF484712868FFF7BB
:10963000F1F8804651462868FFF7ECF8074648EAFB
:1096400007003043EBD056EA070007D121462868CF
:1096500001F0F4FC616AA0698842E0D8C4F818906F
:109660000EB10320B8E70FB10F20B5E794F8291029
:1096700001200029296801D00860C6E74860C4E7D6
:10968000A80700202E2E5C2E2E5C2E2E5C2E2E5C2B
:109690002E2E5C2E2E5C6D6F64756C65735C6E7225
:1096A00066785C647269766572735C7372635C6E13
:1096B0007266785F756172742E63000001684FF402
:1096C0000172C1F808230068012141607047000061
:1096D0002DE9F05F054600790F4600EB400101EBF4
:1096E000C0002D49164601EB800494F82A00012899
:1096F00003D02AA1F220F8F7DFF81FB927A1F32041
:10970000F8F7DAF81EB925A1F420F8F7D5F82846BD
:1097100000F060F810B11120BDE8F09F66614FF0D5
:109720000009C4F82090A76084F828904FF48E7840
:109730004E4641462868FFF772F828684FF0010A44
:10974000C0F808A02146286801F01EFF606800BB31
:10975000D5F800B067690EE094F8280008B10F262C
:1097600015E041465846FFF755F80028F4D0214649
:10977000584601F009FF206AB842F2D357464146E5
:109780002868FFF747F80028F9D02868C760C4F8B0
:1097900014903046C0E70000A80700202E2E5C2E53
:1097A0002E5C2E2E5C2E2E5C2E2E5C2E2E5C6D6F73
:1097B00064756C65735C6E7266785C6472697665FC
:1097C00072735C7372635C6E7266785F75617274DB
:1097D0002E630000007900EB400101EBC00004495A
:1097E00001EB80004069002800D001207047000094
:1097F000A80700202DE9F047044600794FF0000942
:1098000000EB400101EBC000284901EB8007206814
:10981000C0F800957868B0B120682549C0F80813F1
:10982000206840F3073000280DDB00F01F02012103
:1098300091404009800000F1E020C0F88011BFF3A2
:109840004F8FBFF36F8F2068D0F80C25D0F81485A8
:10985000D0F80865D0F810554FF0FF31C0F8141556
:10986000C0F80C152068C0F80815C0F81015501C79
:1098700002D01046FDF726FCB8F1FF3F02D040466B
:10988000FDF720FC681C02D02846FDF71BFC701C6D
:1098900002D03046FDF716FC2068FFF7D5FD87F8AB
:1098A0002A90C7F80490BDE8F0870000A8070020C0
:1098B000840202000149024802F00EB8D4070020D9
:1098C000002000402DE9F04117460D00064603D167
:1098D00018A1A920F7F7F0FF3079244A00EBC00166
:1098E00002EB810494F8201011B10820BDE8F0814A
:1098F0001F4951F820103068FFF768FD08B11120AA
:10990000F4E729463046F7F79CFF67602869206036
:109910001FB1297F3046FAF7EDFF30680821C0F803
:1099200000150020A061E0616061012184F8201031
:10993000DCE700002E2E5C2E2E5C2E2E5C2E2E5C84
:109940002E2E5C2E2E5C6D6F64756C65735C6E7272
:1099500066785C647269766572735C7372635C6E60
:109960007266785F75617274652E6300D40700209B
:10997000BCC700002DE9F05F044600790F46DFF810
:1099800034A100EBC0010AEB8105164695F82000D2
:10999000012804D048A14FF4C070F7F78DFF27B914
:1099A00045A140F28110F7F787FF26B942A14FF495
:1099B000C170F7F781FF207910B9B6F5004F04D3D5
:1099C0003DA140F28310F7F777FF3846FFF7C8FB59
:1099D000B0B168684FF000084FF4047910B1216805
:1099E000C1F80893A8694FF0000B80B1E86948B14D
:1099F000686810B12068C0F804931120BDE8F09F9A
:109A00001020FBE72F614FF00108EE6102E0EF60EC
:109A1000C5E9066B00254FF488712068FEF710FF3A
:109A20004FF4A2712068FEF70BFF2068C0F8347570
:109A3000C0F838652068B8F1000F12D0D0F80012D5
:109A400041F02001C0F800122079D04600EBC0019F
:109A50000AEB8100406838B12168C1F804932846B8
:109A6000CCE701210160EFE74FF4887A4FF4A27947
:109A700051462068FEF7DFFE074649462068FEF79C
:109A8000DAFE06464FF492712068FEF7D4FE0146D6
:109A900047EA06000843EBD0227902EBC20308EB49
:109AA0008302C2F818B001B10325002ED7D00F25CC
:109AB000D5E70000D40700202E2E5C2E2E5C2E2E23
:109AC0005C2E2E5C2E2E5C2E2E5C6D6F64756C658C
:109AD000735C6E7266785C647269766572735C73CF
:109AE00072635C6E7266785F75617274652E630076
:109AF0000179094A01EBC10102EB8101C96931B168
:109B00000168D1F8002222F02002C1F8002200688A
:109B10000121416070470000D40700202DE9F04783
:109B200004460F460079364900EBC00001EB800582
:109B3000164695F82000012804D032A140F22D10DD
:109B4000F7F7BAFE27B92FA14FF49770F7F7B4FED5
:109B500026B92CA140F22F10F7F7AEFE207910B9EC
:109B6000B6F5004F04D327A14FF49870F7F7A4FE81
:109B70003846FFF7F5FA30B1204600F05FF820B123
:109B80001120BDE8F0871020FBE76E61AF604FF455
:109B900090774FF0000839462068FEF751FE4FF4E9
:109BA000AC7631462068FEF74BFE2068AA686969EA
:109BB000C0F84425C0F8481520684FF00109C0F8E6
:109BC00008906868D0B9BA4651462068FEF733FE5F
:109BD000074631462068FEF72EFE0743F4D010B149
:109BE0004FF00F0808E02068C0F80C90314620685C
:109BF000FEF721FE0028F9D0002068614046C0E74A
:109C0000D40700202E2E5C2E2E5C2E2E5C2E2E5C79
:109C10002E2E5C2E2E5C6D6F64756C65735C6E729F
:109C200066785C647269766572735C7372635C6E8D
:109C30007266785F75617274652E630000790549FC
:109C400000EBC00001EB80004069002800D001203B
:109C500070470000D40700202DE9F0470646007940
:109C60003D4900EBC00001EB8005346868680127BE
:109C7000A8B13A49C4F80813306840F30730002807
:109C80000DDB00F01F0107FA01F14009800000F12F
:109C9000E020C0F88011BFF34F8FBFF36F8FD4F86F
:109CA000000220F02000C4F80002A8694FF4A27856
:109CB00020B141462046FEF7C3FD67604FF4AC7902
:109CC00049462046FEF7BCFDE76047464946204628
:109CD000FEF7B1FD0028F9D0A86928B13946204621
:109CE000FEF7A9FD0028F1D04FF0000AC4F800A546
:109CF0003068D0F80C25D0F81495D0F80885D0F845
:109D000010754FF0FF31C0F80C15C0F8141530680D
:109D1000C0F80815C0F81015501C02D01046FDF709
:109D2000DAF9B9F1FF3F02D04846FDF7D4F9781CC3
:109D300002D03846FDF7CFF9B8F1FF3F02D04046D8
:109D4000FDF7C9F92046FFF77FFB85F820A0C5F88D
:109D500004A0BDE8F0870000D407002010034200F3
:109D60002DE9F0411D46174606460C46AA4204D28C
:109D700013A14FF4D670F7F79FFD206838B1FFF7B5
:109D8000F7F920B90EA140F2AD10F7F795FD606824
:109D9000A84204D2002171602168316007E075603B
:109DA0002168401B31606060216829442160AF4216
:109DB00003D110B10120BDE8F0810020FBE70000D5
:109DC0002E2E5C2E2E5C2E2E5C2E2E5C2E2E5C2ECD
:109DD0002E5C6D6F64756C65735C6E7266785C6426
:109DE0007269766572735C7372635C6E7266785FBB
:109DF000757362642E63000010B50B4C207820B997
:109E00000AA140F2CC60F7F757FD00F0FDFC1549C0
:109E1000D1F80403C1F80803FEF718FD00202071F3
:109E20000120207010BD0000180100202E2E5C2E95
:109E30002E5C2E2E5C2E2E5C2E2E5C2E2E5C6D6FDC
:109E400064756C65735C6E7266785C647269766565
:109E500072735C7372635C6E7266785F7573626452
:109E60002E6300000070024070B51F4C207801285E
:109E700004D01EA140F28D60F7F71EFD4FF4006084
:109E8000FEF7D2FE01F0E6FE4FF080500025D0E94B
:109E90004C2101200D2A02D0102A00D028466178DA
:109EA000084204D0FEF7D2FC01F0D4FE657000F049
:109EB0008CFA08B101F0C4FF1A49802008601949E2
:109EC00000201431086040F2FF10C4E90305257139
:109ED000E5700220207000F078FA002803D0BDE879
:109EE000704001F0C7BF70BD180100202E2E5C2EFF
:109EF0002E5C2E2E5C2E2E5C2E2E5C2E2E5C6D6F1C
:109F000064756C65735C6E7266785C6472697665A4
:109F100072735C7372635C6E7266785F7573626491
:109F20002E6300001C75024070B5054601F0B4FEBA
:109F30002846F9F70FFF044600F00F00092804D364
:109F40000E4940F2B140F7F7B7FC04F00F012206CA
:109F50004FF0010001D50A4A01E0094A121D1368B9
:109F6000884083431360BFF36F8FBFF34F8F284642
:109F700000F058F90349C1F8080370BD84A9000036
:109F8000107502400070024070B5010600F00F0528
:109F90000446092D04D30C4940F27D40F7F78CFCB0
:109FA000082D04D3084940F27E40F7F785FC0748A6
:109FB0000460BFF34F8F44F480710160BFF36F8F73
:109FC000BFF34F8F70BD000084A900000C750240E4
:109FD00070B5054600F026F92149C1F8040328466A
:109FE000FEF782FC00283AD12846F9F7B3FE044672
:109FF00000F00F00092804D31A494FF49460F7F7D2
:10A000005BFC04F00F0021064FF0010401D5164956
:10A0100001E01549091D0A6804FA00F002430A60CC
:10A02000BFF36F8FBFF34F8F280718D0280616D4C1
:10A0300005F00F00082812D20020F7F759FB284638
:10A0400000F052FC2846F9F719FE844007480169E0
:10A05000A1430161BDE870400020F7F777BB70BDF8
:10A060000070024084A90000107502401801002011
:10A0700070B505460C46C80704D014A140F27970AB
:10A08000F7F71AFC05F00F015CB1082912D31D483F
:10A090000068C1B280290AD04FF48060A04210D27B
:10A0A0000AE00829F3D209A140F27B7007E04FF4DF
:10A0B0000070F3E7402C04D904A140F27D70F7F75B
:10A0C000FBFB2846F9F70EFE848170BD2E2E5C2E18
:10A0D0002E5C2E2E5C2E2E5C2E2E5C2E2E5C6D6F3A
:10A0E00064756C65735C6E7266785C6472697665C3
:10A0F00072735C7372635C6E7266785F75736264B0
:10A100002E6300001C75024010B5F9F723FE0446CB
:10A1100000F00F00082804D3064940F2CA40F7F7C0
:10A12000CBFB054944F480700860BFF36F8FBFF329
:10A130004F8F10BD84A900001875024010B5F9F7C3
:10A1400009FE00F00F01082901D3002010BD02060E
:10A15000054800EB810002D5D0F8200401E0D0F8DA
:10A1600044040128F1D110BD0070024010B504462E
:10A17000000606D42046FFF7E1FF10B1204600F0AC
:10A18000B3FB2046F9F7E6FD044600F00F0008286F
:10A1900004D3064940F2D240F7F78EFB044804602E
:10A1A000BFF36F8FBFF34F8F10BD000084A9000075
:10A1B0001875024070B50446000604F00F0502D57C
:10A1C000092D09D301E0092D08D307A14FF4A6708A
:10A1D000F7F772FB200601D5114801E01048123054
:10A1E00030F8150070BD00002E2E5C2E2E5C2E2E39
:10A1F0005C2E2E5C2E2E5C2E2E5C6D6F64756C6555
:10A20000735C6E7266785C647269766572735C7397
:10A2100072635C6E7266785F757362642E630000B1
:10A2200058C8000070B50546000605F00F0402D5B9
:10A23000092C09D301E0092C08D307A140F27510BD
:10A24000F7F73AFB280601D5114801E0104809301C
:10A25000015D0120884070BD2E2E5C2E2E5C2E2EBE
:10A260005C2E2E5C2E2E5C2E2E5C6D6F64756C65E4
:10A27000735C6E7266785C647269766572735C7327
:10A2800072635C6E7266785F757362642E63000041
:10A290007CC800002DE9F0410D460646F9F7EEFCBA
:10A2A000044625B930A14FF4F960F7F705FB00200B
:10A2B000F7F71EFA3A48310704D1C1788E4201D02F
:10A2C000102438E081898046C943006989B201279A
:10A2D0000143A740394201D011242CE03046F9F760
:10A2E00001FD044606F00F00310600EB40002AD5C0
:10A2F0002C4901EB80062868FEF73AFF0028287AEF
:10A300004FEAC07004D008B1274803E0274801E0B5
:10A31000B8B12748206095E8070086E807000020CC
:10A32000C4E90160A073D8F8101004460F43C8F8C0
:10A33000107001F041FF0020F7F708FA2046BDE851
:10A34000F0811C48E6E717496C3101EB800628686C
:10A3500038B1FEF70DFF20B903A140F62200F7F750
:10A36000ABFA1548D6E700002E2E5C2E2E5C2E2E62
:10A370005C2E2E5C2E2E5C2E2E5C6D6F64756C65D3
:10A38000735C6E7266785C647269766572735C7316
:10A3900072635C6E7266785F757362642E63000030
:10A3A000180100201809002095A5000019A500003B
:10A3B00079A40000E1A30000619D000010B5F9F749
:10A3C000C9FCBDE81040FEF7EBBB4FF08050D0E970
:10A3D0004C2101200D2A02D0102A00D00020704705
:10A3E0002DE9F041804616460C460868FEF7C0FE8F
:10A3F00020B112A140F21220F7F75EFA65681D4FF6
:10A40000B54200D93546402D04D90CA14FF4077050
:10A41000F7F752FA2A4638462168F6F718F9C8E9DC
:10A4200000756068401B6060206828442060606898
:10A43000002800D00120BDE8F08100002E2E5C2E07
:10A440002E5C2E2E5C2E2E5C2E2E5C2E2E5C6D6FC6
:10A4500064756C65735C6E7266785C64726976654F
:10A4600072735C7372635C6E7266785F757362643C
:10A470002E630000F00900202DE9F04106469046C9
:10A480000D460868FEF774FE20B114A140F2352095
:10A49000F7F712FA6C681F4F4046444500D904464E
:10A4A000402C04D90DA140F23F20F7F705FA34B152
:10A4B000224638462968F6F7CAF8376001E00020DE
:10A4C000306074606868001B6860286820442860F9
:10A4D00014B10120BDE8F0810020FBE72E2E5C2E98
:10A4E0002E5C2E2E5C2E2E5C2E2E5C2E2E5C6D6F26
:10A4F00064756C65735C6E7266785C6472697665AF
:10A5000072735C7372635C6E7266785F757362649B
:10A510002E630000F00900202DE9F04107461646A1
:10A520000C460868FEF724FE20B90CA140F2D310B7
:10A53000F7F7C2F96568B54200D935462068C7E922
:10A5400000056068401B60602068284420606068E7
:10A55000002800D00120BDE8F08100002E2E5C2EE6
:10A560002E5C2E2E5C2E2E5C2E2E5C2E2E5C6D6FA5
:10A5700064756C65735C6E7266785C64726976652E
:10A5800072735C7372635C6E7266785F757362641B
:10A590002E6300002DE9F041074616460C46086878
:10A5A000FEF7E6FD20B910A14FF4FA70F7F784F931
:10A5B0006568B54200D93546002D0FD0D4F80000AB
:10A5C000C7E900056068A0EB0500606020682844CA
:10A5D000206006D04FF00100BDE8F0814FF0000090
:10A5E000EEE74FF00000F7E72E2E5C2E2E5C2E2EAD
:10A5F0005C2E2E5C2E2E5C2E2E5C6D6F64756C6551
:10A60000735C6E7266785C647269766572735C7393
:10A6100072635C6E7266785F757362642E630000AD
:10A620002DE9F041040004D11FA140F25F60F7F76B
:10A6300043F92B49087810B10820BDE8F0818C60FF
:10A6400001200024087046024FEA040544F0800708
:10A6500007F00F00082801D3314600E040213846BA
:10A66000FFF706FD3846F9F73DFB8573641C05606E
:10A67000E4B28560092CE9D35FF0000404F00F0018
:10A68000082801D3314600E040212046FFF7F0FCC6
:10A690002046F9F727FB8573641C0560E4B28560EA
:10A6A000092CEBD30020C8E72E2E5C2E2E5C2E2E1C
:10A6B0005C2E2E5C2E2E5C2E2E5C6D6F64756C6590
:10A6C000735C6E7266785C647269766572735C73D3
:10A6D00072635C6E7266785F757362642E630000ED
:10A6E0001801002003480078022801D30120704798
:10A6F000002070471801002010B5FFF7F3FF28B1C4
:10A700002720F6F793FD08B1012010BD002010BDF1
:10A710005020FEF79BBA0000002101604160114902
:10A72000096801700F49091D096841700D49083118
:10A7300009680C4A0C32126841EA02214180094939
:10A7400010310968074A1432126841EA02218180F7
:10A75000044918310968034A1C32126841EA02218F
:10A76000C1807047807402405420FEF76FBA000029
:10A7700070B5114D04462878022804D00FA140F28C
:10A78000E160F7F799F80020A8701A4904B11A4956
:10A790001A48C0F804131A49C02081F80004184A66
:10A7A00001208021233AC2F8001116490860BFF346
:10A7B0006F8FBFF34F8F70BD180100202E2E5C2EBF
:10A7C0002E5C2E2E5C2E2E5C2E2E5C2E2E5C6D6F43
:10A7D00064756C65735C6E7266785C6472697665CC
:10A7E00072735C7372635C6E7266785F75736264B9
:10A7F0002E6300000714C0010714E001007002403E
:10A8000027E000E00475024070B513480078022884
:10A8100004D012A14FF4E060F7F74EF81D4D8024EC
:10A82000C5F880422720F6F701FD002812D001F07C
:10A83000B3FA194900200860BFF36F8FBFF34F8F41
:10A84000C5F88041BFF34F8FBFF36F8F1349401E90
:10A85000C1F8080370BD0000180100202E2E5C2EE8
:10A860002E5C2E2E5C2E2E5C2E2E5C2E2E5C6D6FA2
:10A8700064756C65735C6E7266785C64726976652B
:10A8800072735C7372635C6E7266785F7573626418
:10A890002E63000004E000E00475024000700240F6
:10A8A00010B500242046F6F723FF0C48807878B1D5
:10A8B00001F072FA0A480168890509D409490122A0
:10A8C0000A600068800502D50020086000E00124CD
:10A8D0000020F6F73BFF204610BD000018010020C5
:10A8E000007402402C75024070B50446000604D581
:10A8F00015A140F6B900F6F7DFFF0020F6F7F8FEE5
:10A900002046F9F7BBF9012181401D4804F00F05ED
:10A91000C2688A43C260082D10D2200604D519A14E
:10A9200040F25D40F6F7C8FF224A002002EB8501A5
:10A93000C1F8A004BFF36F8FBFF34F8FBDE8704025
:10A940000020F6F703BF00002E2E5C2E2E5C2E2E6C
:10A950005C2E2E5C2E2E5C2E2E5C6D6F64756C65ED
:10A96000735C6E7266785C647269766572735C7330
:10A9700072635C6E7266785F757362642E6300004A
:10A98000180100202E2E5C2E2E5C2E2E5C2E2E5CAE
:10A990002E2E5C2E2E5C6D6F64756C65735C6E7212
:10A9A00066785C68616C2F6E72665F757362642E88
:10A9B000680000000070024010B500242046F6F741
:10A9C00097FE0748807830B1FEF738F918B105498D
:10A9D0000020086001240020F6F7B8FE204610BDD4
:10A9E000180100202C7502400349086003480168E3
:10A9F0000029FCD07047000004E5014000E401405C
:10AA000070B50F4C06466068002817D03046F8F73E
:10AA10004FFF054600213046F8F7F2FE281A20F0D5
:10AA20007F40B0F5960F04D306A140F21B10F6F755
:10AA300043FF606800F0CAFC0020606070BD000049
:10AA4000680100202E2E5C2E2E5C2E2E5C2E2E5C9D
:10AA50002E2E5C2E2E5C636F6D706F6E656E747340
:10AA60005C6C69627261726965735C74696D657250
:10AA70005C6170705F74696D6572322E63000000F6
:10AA80002DE9F84317460C0005462BD0DFF87080FF
:10AA90004646D8F80000F8F73DF83844C7B23068A9
:10AAA000F8F738F8A968497E081AB0FBF7F0C6B283
:10AAB0002046F8F72FF8A968381AC7B2487FB0FBCC
:10AAC000F6F206FB1202401C487782B123460DA223
:10AAD00007212846FBF7DCFB39462846BDE8F8434A
:10AAE000F8F742BEA96800204877BDE8F8830094D3
:10AAF00005A207212846D8F80030FBF7C9FBEBE791
:10AB000018020020257300000A2573257300000039
:10AB100010B50549C20800F00703885C01249C4079
:10AB20002043885410BD0000A007002003490844BA
:10AB300090F93000C017401C704700004C070020FF
:10AB40000449084490F93000082801DB01207047CF
:10AB5000002070474C0700200449084490F9300059
:10AB6000082801D201207047002070474C070020C0
:10AB70002DE9F84F2E4E05464FF0010900243119FA
:10AB800091F95000401C46D091F85000294620F021
:10AB9000C0073846FAF774FF70B3204600F04AF851
:10ABA000824668460097FCF731FB009900EB810074
:10ABB000D0F80007C0F30148B8F1020F1DD0022100
:10ABC0003846FCF7B7FA68460097FCF71FFB009A77
:10ABD00009FA02F1C0F820153846F7F735FA56F8A9
:10ABE00020204AB15046BAF1030F11D0B8F1020F3C
:10ABF00005D0B8F1030F07D00DE00321E0E7504680
:10AC0000BAF1010F04D006E05046BAF1020F02D1AA
:10AC1000014638469047641C042CB0D32A460121D3
:10AC20000020FCF79FFA28680028A7D1BDE8F88F1C
:10AC30004C0700200249084490F8500080097047F2
:10AC40004C07002010B50C46017A052908D0407A3F
:10AC500038B1084808A102682046FCF739F800E03E
:10AC60001AB106A12046FCF733F82046BDE8104093
:10AC7000FCF76EB894020020257300000D0A000056
:10AC80002A492B4A284B891AC90810B5032202EB1E
:10AC90000142598850B1012816D0022830D0BDE8B1
:10ACA000104024A140F2EE30F6F706BE032903D38C
:10ACB000104624A1FCF70EFEFFF714FD002831D149
:10ACC000BDE81040FFF7D0B8032903D3104622A1F6
:10ACD000FCF700FE2549002048704871FFF70CFD85
:10ACE00008B1FFF791FDFFF7FDFC08B1FFF784F80D
:10ACF0000020F6F777FEBDE810400120F6F772BE9F
:10AD0000032903D310461AA1FCF7E4FD0120F6F74E
:10AD100093FEFFF7F1FC002804D1BDE810400120AC
:10AD2000FFF726BD10BD00003403002068E20000DC
:10AD3000B8E100002E2E5C2E2E5C2E2E5C6D61691B
:10AD40006E2E630055534220706F776572206465E4
:10AD5000746563746564000055534220706F7765B5
:10AD6000722072656D6F7665640000004C000020F3
:10AD700055534220726561647900000038B5C3887C
:10AD80000D46044633B114A0009015A216A1284622
:10AD9000FBF79EFF217A05291CD0607A48B1A08874
:10ADA000FCF746FC164951F8202016A12846FBF76F
:10ADB0008FFFA0880021FCF7BFFE03461049207AD0
:10ADC000143951F8202001B02846BDE830400EA1CA
:10ADD000FBF77EBF38BD00001B5B306D000000003C
:10ADE0001B5B313B33316D0025734C6F67732064FF
:10ADF000726F70706564202825642925730D0A0020
:10AE000094020020257300003C25733E2025733AF0
:10AE100020000000EFF30580C005C00D01D0012027
:10AE20007047EFF3148040F30000401C70470000AF
:10AE30000349884201D10348704700207047000051
:10AE4000002000401001002001680A684968914212
:10AE500001D3881A70478068801A0844401C7047E4
:10AE60000EB50023009301930293C088904200D254
:10AE70000246CDE9001269468020FFF70BFA020076
:10AE800011D00948408848B108480949401AC0080B
:10AE9000012101EB004007A1FCF720FD0DA14FF4BB
:10AEA000E570F6F709FD0EBD3403002068E20000EE
:10AEB000B8E100005472616E73666572207374614C
:10AEC0007274696E67206661696C65643A202564F6
:10AED000000000002E2E5C2E2E5C2E2E5C6D616913
:10AEE0006E2E630070B50546F8F7E3FD114C40B1D6
:10AEF000D4E904024FF08071411842F10000C4E926
:10AF0000041000212846F8F782FC10B12846FFF70C
:10AF100077FD01212846F8F77AFC18B1F9F714FA01
:10AF2000C4E90601284600F0C7FA2846BDE870408B
:10AF300000F03EB8680100202DE9F04100260E70B7
:10AF4000D0E902740D468046F9F7FEF9381A00235D
:10AF500064EB01011A461B1A8A411ADAB0F5350F63
:10AF600004D3F6F7C7FA0F49421800E03A464FF407
:10AF7000960300210C48F8F7F1FD40B10D280CD0E4
:10AF80000A49E620F6F798FC0020BDE8F081012090
:10AF9000FBE700210448F8F72DFC404600F016FAC4
:10AFA0002870F1E7FFFFB4007001002044AA000000
:10AFB000F8B5204C064600251F48FDF771FB10B37D
:10AFC000D0E90210CA4372EA000224D0626882B15A
:10AFD0006368D3E90223891A984127D26068D0E9CF
:10AFE0000210C94371EA000103D061681248FDF7FD
:10AFF0001BFB00F0E9F807466946FFF79DFFB0B17B
:10B00000606858B10DE0606800280FD13046BDE897
:10B01000F840F8F77BBD00F0D7F8CDE73046F8F7F9
:10B020004DFD67609DF800000028C5D1F8BD656042
:10B03000C2E7000068010020A0C8000070B5054606
:10B0400088690C4600284FF4847128460AD0FDF721
:10B05000E6FBD5F81805626AE1688854606A401C0E
:10B06000606270BDFDF7DBFBD5F8180570BD1FB53C
:10B0700001238DF80030CDE90121D0E900126846A6
:10B0800090471FBD1FB501238DF80030CDE9012188
:10B09000D0E90012684690471FBD10B5044600680D
:10B0A0004FF49271FDF7BBFB4FF484712068FDF7FC
:10B0B000B6FB20680121016010BD00007CB505468B
:10B0C000FF20009001236A4601A9E868FDF7D6F841
:10B0D000040004D010A11A20F6F7EEFB19E0009A44
:10B0E000BAB168691C4C01990378D2B2E35C1BB118
:10B0F000001DFEF73FFC02E00C30FEF737FA0400BB
:10B1000007D1A8682A4640F266610068F6F764FA3B
:10B11000044620467CBD00002E2E5C2E2E5C2E2E7A
:10B120005C2E2E5C2E2E5C2E2E5C636F6D706F6E0F
:10B13000656E74735C6C69627261726965735C637D
:10B140006C695C756172745C6E72665F636C695F7A
:10B15000756172742E630000E800002070B50E4C1B
:10B160000020D2B22070201D0C4D0378EB5C1BB187
:10B17000001DFEF7D3FC02E00C30FEF7A9FA18B16F
:10B18000074A2D21F5F7B8F86078002802D0217819
:10B190000029FAD070BD00001C020020E800002049
:10B1A000F4DB00000022CA604A60054A8A60052874
:10B1B00003D2044A52F8200000E0002008607047E3
:10B1C0005CCC0000540200200148FDF793BA000057
:10B1D000A0C80000C207002A03D000BF4FF00F0232
:10B1E00001E04FF0F00201D04FEA0111044B03EBF4
:10B1F0005003187800EA020040EA01001870704716
:10B20000300A00202DE9F84F054627489146884628
:10B2100006681F46012269461846F6F73FFEDFF82A
:10B220008CA0B0B3009800210446801C0AE000BF47
:10B2300000EA060259F821C00AEB8202401C491CB0
:10B24000C2F80CC0B942F3D3B9462F0CF8F7C8FACC
:10B250008346FCF71BFCB84204D8154940F2831022
:10B26000F6F72AFB601C30400AEB800047EA0B42ED
:10B270003440C2600AEB8400C16865F3C50169F31C
:10B28000891168F39F2121F00301491C21F0040179
:10B29000C1609AF8000001E0FCF7E2F90028FBD158
:10B2A000F9F7AEFDBDE8F88F3C020020500C0020FD
:10B2B0003CDC000070B50C46050004D108A140F646
:10B2C000FF10F6F7F9FA24B905A14FF42060F6F75C
:10B2D000F3FA21682868BDE87040F5F7F1B900007D
:10B2E0002E2E5C2E2E5C2E2E5C2E2E5C2E2E5C2E98
:10B2F0002E5C636F6D706F6E656E74735C6C6962EB
:10B300007261726965735C636C695C6E72665F63BF
:10B310006C692E63000000002DE9F04114460D0019
:10B32000064604D11BA140F22330F6F7C5FA24B932
:10B3300018A14FF44970F6F7BFFA3046F8F74CF908
:10B3400078B9B068FA21077D90F816803046F8F792
:10B350000BFAFA213046F8F7BBF83046F8F73CF91B
:10B3600010B10620BDE8F081B068007D2870B0689B
:10B37000807D20702878C01BC1B23046F8F71AF9DA
:10B380002178A1EB0800C1B23046F8F7F9F90020A6
:10B39000E8E700002E2E5C2E2E5C2E2E5C2E2E5CFE
:10B3A0002E2E5C2E2E5C636F6D706F6E656E7473E7
:10B3B0005C6C69627261726965735C636C695C6E16
:10B3C00072665F636C692E630000000070B504460E
:10B3D000406918B920A17F20F6F76EFA2D480025A4
:10B3E000007860B35CB3F8F7AFFFD4E90223801AAA
:10B3F000994125D30020F6F77BF9206910B9681E22
:10B40000C4E902000020F6F7A1F9D4E90510884745
:10B410000020F6F76DF9226972B1D4E90210CB432E
:10B4200073EA000308D0891840F10000C4E9021053
:10B430000020F6F78BF907E00020F6F787F908E01F
:10B44000D04370EA030004D021461348FDF7ECF81E
:10B450000125284670BD00002E2E5C2E2E5C2E2E5F
:10B460005C2E2E5C2E2E5C2E2E5C636F6D706F6ECC
:10B47000656E74735C6C69627261726965735C7429
:10B48000696D65725C6170705F74696D6572322E92
:10B490006300000068010020A0C800004069054A60
:10B4A0000178515C11B1001DFEF722BB0C30FEF794
:10B4B00005B90000E800002038B51D4D6946286830
:10B4C000FAF703F91B4C30E0017821B101290ED0C5
:10B4D000022922D117E04168D1E90220D24372EA61
:10B4E00000021AD012480830FDF79EF815E04168B6
:10B4F0006068814202D1002060600EE00C48083094
:10B50000FDF726F909E0FFF75FFE20B14FF0FF31AC
:10B51000C0E90211F7E70120207069462868FAF7B0
:10B52000C9F869462868FAF7D0F80028CCD138BDA8
:10B5300098C8000068010020F8B50B4C0D4606467F
:10B5400069462068FAF7ABF858B10670456069465D
:10B550002068FAF7C5F810B10448F8F797FA002008
:10B56000F8BD0420F8BD000098C80000700100205C
:10B57000034880684108034800224068F6F72CB869
:10B580003001002090C8000070B50C4605464FF40D
:10B590008E71FDF744F9216AA068415C206A401C65
:10B5A0002062C5F81C1570BD1FB500228DF8002063
:10B5B0000291816801914261D0E90012684690478A
:10B5C0001FBD1FB500228DF80020029181680191F6
:10B5D0004261D0E90012684690471FBD7CB5FF2646
:10B5E0000546009600780C46002835D0012819D071
:10B5F000022802D02CA1652011E0297AE068FCF72E
:10B60000F5FF28B1042803D027A13920F6F754F913
:10B610002046FFF753FD002803D023A13B20F6F777
:10B620004BF97CBD297AE068FCF7E0FF28B10428DB
:10B6300003D01DA14120F6F73FF9287A20B16068B8
:10B64000D0E90021002090472046FFF737FD002871
:10B65000E7D015A14D20E2E7297A2069FCF742FFE7
:10B6600018B111A15320F6F727F9009601236A4675
:10B6700001A92069FCF74AFF18B10BA15620F6F783
:10B680001BF9009848B1C2B260690199FBF704FB4D
:10B6900018B105A15B20F6F70FF96068D0E9002129
:10B6A000012090477CBD00002E2E5C2E2E5C2E2E9D
:10B6B0005C2E2E5C2E2E5C2E2E5C636F6D706F6E7A
:10B6C000656E74735C6C69627261726965735C63E8
:10B6D0006C695C756172745C6E72665F636C695FE5
:10B6E000756172742E6300001FB50A4601788DF8EB
:10B6F000001041680191017A8DF80810C06803902C
:10B70000044850F82210001F50F822206846904745
:10B710001FBD0000F00000200149012008707047A3
:10B720001C02002010B588B0044620220F4968464C
:10B73000F4F78DFF06200090C01F01900290039047
:10B740004FF0EB7006900CB1094A00E00022694608
:10B750000848FBF76DFA18B1074A1D21F4F7CCFD34
:10B760000448001F447008B010BD00003CCC00002D
:10B7700019B7000020020020F4DB00002DE9FF478C
:10B780000C4605464FF40071FDF74FF801274FF4C2
:10B790000178002618B34FF4927949462846FDF700
:10B7A00039F8E0B149462846FDF739F8C5F808836D
:10B7B00094F8290000B96F6002208DF80000D5F8D8
:10B7C0008004C5F880040390A0690290E0680190AD
:10B7D000A661E661D4E900126846904728E004219A
:10B7E0002846FDF722F818B34FF484712846FDF778
:10B7F00011F8E8B121462846FFF720FC616AA069EC
:10B80000884215D1E06938B1E268616AA0612069B7
:10B81000E6616662E06008E094F8290000B96F60B4
:10B82000C5F80883A661E268616A2046FFF71FFC3D
:10B830004FF48E7841462846FCF7ECFF80B16069F2
:10B84000216A814202D294F8280028B34146284652
:10B85000FCF7E5FF606918B161692046FFF7A4FEB7
:10B860004FF4A27841462846FCF7D4FF002818D0B0
:10B8700041462846FCF7D3FF94F8290000B12F6019
:10B88000A06900280DD0A661E268616A04B0204674
:10B89000BDE8F047FFF7EBBB21462846FFF774FEF3
:10B8A000DEE7BDE8FF8700001FB50A4601788DF886
:10B8B000001041680191017A8DF80810C06803906A
:10B8C000044850F82210001F50F822206846904784
:10B8D0001FBD0000F00000202DE9FF410C464FF491
:10B8E000927705463946FCF7A6FF0026B8B13946DF
:10B8F0002846FCF7A5FF02208DF80000D5F880044B
:10B90000C5F880040390D5F83C050290E0680190EA
:10B91000A661E661D4E900126846904723E04FF43F
:10B92000887739462846FCF786FFE0B13946284635
:10B93000FCF786FFD5F83C15A069884213D1E06971
:10B9400060B1E268D5F8000220F02000C5F80002DE
:10B95000E069A0612069E661E06001E0A661E2685B
:10B960002046FFF78FFB4FF4A27739462846FCF7B5
:10B9700062FF68B139462846FCF762FFA06938B11A
:10B98000A661E661D5F83C152046E268FFF77AFB30
:10B990004FF4907631462846FCF74DFF60B13146B2
:10B9A0002846FCF74DFF0120E860606920B1D5F81A
:10B9B0004C152046FFF705FE4FF4AC76314628467D
:10B9C000FCF739FF00280ED031462846FCF738FF37
:10B9D0006069002807D0D5F84C1504B02046BDE8B2
:10B9E000F041FFF7EEBDBDE8FF8100002DE9F05FFB
:10B9F0008346DDE90A4A994690460D4608460127E6
:10BA000003E000BFB0FBF8F07F1C4045FAD2B94517
:10BA100000D94F465FEACA7012D18CB15FEA8A70D2
:10BA200002D5B9F1000F01D0202607E0302605E04D
:10BA300031465846641EF6F777FA0CB1A742F7D3A1
:10BA40005FF00106B9F1010F02D9A9F1010903E084
:10BA5000B5FBF6F0404502D306FB08F6F2E7DFF847
:10BA60003C9000BFB5FBF6F000FB165519F800102E
:10BA70005846F6F759FAB6FBF8F6002EF2D15FEA0F
:10BA8000CA7009D0002C07D0A74205D22021584601
:10BA9000641EF6F749FAF5E7BDE8F09FBCCA00005E
:10BAA0002DE9F04F4D4D89B0287900284AD18146C3
:10BAB0004FF0010A42E000BF10F0012F01D000F06A
:10BAC000012090FAA0F0B0FA80F08046F5F722FF4E
:10BAD0000646F8F707F90446006820B940A140F28D
:10BAE0003B50F5F7E9FE300607D5D4E90031A289CD
:10BAF00002A89847002836D037E03046FEF75EFCB3
:10BB0000D4E9007183460346A28902A8B8470746D4
:10BB10000298D0B1039959451DD20220A0730AFAA8
:10BB200008F0C1432D481030FDF7A4F83A48006BE7
:10BB300000908DF80260A96868468847D5E903102F
:10BB40000840B9D109B0BDE8F08F039850B124A1E5
:10BB500040F2575004E0594504D021A140F266500C
:10BB6000F5F7AAFE0FB9C4F8009085F804A0E968BB
:10BB70000AFA08F08143E960A06803990844A060CC
:10BB8000DDE902123046FCF787FE300606F00F00B2
:10BB900002D5092809D301E0092808D31FA14FF4D1
:10BBA0001B70F5F789FE300601D5042100E028213D
:10BBB00006F00F0001EB8000FDF748F84FF48074A9
:10BBC0003046FEF7F7FAFDF717F80028BAD12046FD
:10BBD000FDF712F80028F3D0B4E7000018010020A8
:10BBE0002E2E5C2E2E5C2E2E5C2E2E5C2E2E5C2E8F
:10BBF0002E5C6D6F64756C65735C6E7266785C64E8
:10BC00007269766572735C7372635C6E7266785F7C
:10BC1000757362642E630000C0C700002E2E5C2E78
:10BC20002E5C2E2E5C2E2E5C2E2E5C2E2E5C6D6FCE
:10BC300064756C65735C6E7266785C647269766557
:10BC400072735C7372635C6E7266785F7573626444
:10BC50002E63000010B5FEF7B8FB08B100F0F0F855
:10BC60000B4901200860BFF36F8FBFF34F8F094A64
:10BC7000C00211680142FCD0FCF7D6FFFEF7A5FB1D
:10BC8000002803D0BDE8104000F0F4B810BD00005B
:10BC900000750240007402402DE9F8430746002079
:10BCA000F5F726FD3846F8F71DF80646374D3806F5
:10BCB0004FF000084FF003094FF001041FD438463D
:10BCC000F7F7DCFF296904FA00F0884303D038460F
:10BCD000FEF70AFE10E03846C6F80080F7F7CEFF00
:10BCE000296904FA00F0814338462961F7F7C6FF55
:10BCF0008440E868A043E86086F80E9040E007F0D2
:10BD00000F01082916D2224B40F2B472181D802F61
:10BD100007D002EB410119600168C9B241F002018C
:10BD200004E01A600168C9B241F0040102680A43E4
:10BD3000026000683846F7F7A1FFD5E9032104FA4D
:10BD400000F061EA020108421AD03846F7F796FF80
:10BD5000296904FA00F0814338462961F7F78EFF1C
:10BD60008440E8680443EC600A48C6F8008086F81E
:10BD70000E90006800908DF80270A96868468847A8
:10BD8000BDE8F8430020F5F7E1BC000018010020F1
:10BD900000780240C0C700002DE9F041104EF06865
:10BDA000040C306924040443012712E094FAA4F03F
:10BDB000B0FA80F52846F5F7ADFD00F00F00082831
:10BDC00004D22846F5F7A6FDFFF766FF07FA05F04F
:10BDD0008443002CEAD140F2FF10F060BDE8F0810E
:10BDE00018010020F8B5144C05460126E0688E4085
:10BDF0003043E060114F280612D52846FEF7DAF9E5
:10BE0000FCF702FF38B1802D03D02846FCF7A4FDD3
:10BE100001E0FCF725FD206906420BD1B86903E07B
:10BE20002069064206D1F86900908DF80250A16899
:10BE300068468847F8BD000018010020C0C7000010
:10BE400010B50020F5F754FC08480368084A0321A0
:10BE50002BB11160BDE810400020F5F777BC49F226
:10BE60007533036011600360F4E7000000EC0640E6
:10BE700014ED064010B50020F5F73AFC08480368B9
:10BE8000084A00212BB11160BDE810400020F5F7F1
:10BE90005DBC49F27533036011600360F4E7000094
:10BEA00000EC064014ED06402DE9FC410246037803
:10BEB000684869490324401A654EC1084FF00108DB
:10BEC00004EB014008EB014400277188634D072B08
:10BED0000CD2DFE803F02217040D116335000329AB
:10BEE00002D35FA1FBF7F6FC85F80680BDE8FC8174
:10BEF000032910D360A102E003290CD364A1FBF74E
:10BF0000E9FC08E00020F7F7CFFE20B165A14FF46F
:10BF10004970F5F7D1FCAF71E8E7A868401CA8604C
:10BF2000697811B14FF4FA7100E06421B0FBF1F2CD
:10BF300001FB12000028D9D1BDE8FC41F5F71CBD7A
:10BF40009378812B10D0802B10D0002BCED1D278BB
:10BF5000CAB1032A1BD019B1204656A1FBF7BEFC7B
:10BF6000BDE8FC41FEF700BC6F71BFE7D27852B16B
:10BF7000032A04D00029F3D0204656A1EEE7032976
:10BF8000B4D35CA106E0BDE8FC41FEF7C1BB0329C8
:10BF9000ACD360A1BDE8FC41FBF79CBC6846FEF752
:10BFA000BBFB9DF801200C2A49D2DFE802F0070B09
:10BFB000480F480613481723273097E7684600F0D4
:10BFC000C5F993E7684600F0FFF88FE7684600F090
:10BFD00065FA8BE7684600F037F987E769786846C5
:10BFE0004FF0010209B1544901E05349491CFEF7E1
:10BFF00037FF7BE7684600F00BFA77E79DF80020F3
:10C00000212A16D07088B8B120464CA11CE09DF8BA
:10C010000020012A06D0212A0BD0708860B120466A
:10C020004DA111E0708838B1204654A1FBF752FCB5
:10C0300002E0FEF76DFB59E7FEF796FB56E77088C6
:10C040000028F9D0204656A1FBF748FCF4E7000091
:10C050003403002068E20000B8E100004C0000203A
:10C0600053555350454E4420737461746520646584
:10C070007465637465640000524553554D494E47DD
:10C080002066726F6D2073757370656E64000000BA
:10C0900052656D6F7465575520696E697469617476
:10C0A000656400002E2E5C2E2E5C2E2E5C6D616968
:10C0B0006E2E63005472616E7366657220666169EC
:10C0C0006C6564206F6E2045504F5554303A2025E2
:10C0D000640000005472616E736665722066616967
:10C0E0006C6564206F6E204550494E303A202564BF
:10C0F000000000005472616E736665722061626FA9
:10C1000072746564206576656E74206F6E2045508C
:10C11000494E30005472616E736665722061626FC1
:10C1200072746564206576656E74206F6E2045506C
:10C130004F5554300000000008C6000053657420BD
:10C1400049646C652077726F6E6720747970653A08
:10C150002030782532782E00436F6D6D616E64203B
:10C160003078422E20556E6B6E6F776E207265713F
:10C17000756573743A203078253278004E6F2061EF
:10C180006C7465726E61746520696E746572666147
:10C1900063657320737570706F727465642E000030
:10C1A000556E6B6E6F776E20726571756573743A3C
:10C1B000203078253278000002498020C1F8000242
:10C1C0007047000004E000E010B50178022901D0BA
:10C1D00041B10AE0418841B98088812805D1FDF745
:10C1E000C5FF16E04088012810D00C48408848B1AF
:10C1F0000B480C49401AC008012101EB00400AA17C
:10C20000FBF768FBBDE81040FEF7AEBA0D49002011
:10C21000C870BDE81040FEF77BBA00003403002070
:10C2200068E20000B8E10000556E6B6E6F776E201B
:10C230006665617475726520746F20636C656172E8
:10C24000000000004C00002008B541880A0A042ABA
:10C2500032D006DC012A0BD0022A0FD0032A4FD19C
:10C2600013E0052A32D0212A3AD0222A48D141E0CF
:10C270000378802B44D112222F4958E00378802B79
:10C280003ED12D492222123151E00378802B37D143
:10C2900011F0FF0304D0012B06D0022B30D107E0B0
:10C2A00025490422203942E023492A2234313EE044
:10C2B000214948225E313AE00378802B20D111F0E9
:10C2C000FF0F1DD11C4909221B3130E00378802B60
:10C2D00016D1CBB2012B13D1174907222D3126E0FD
:10C2E0000378812B0CD111F0FF0F09D112490922DB
:10C2F00024311CE00378812B02D111F0FF0F13D001
:10C300000E4B5B8863B1C9B2009103780C480D49AC
:10C31000401AC008012101EB00400B49FBF7EDFA80
:10C32000BDE80840FEF720BA03492E22A631BDE839
:10C330000840FEF795BD000034C60000340300201D
:10C3400068E20000B8E1000060CE000010B50446CD
:10C3500002782448802A04D0812A0ED0822A1FD154
:10C3600015E0217911F0FF0F1AD1C07808B11E49EC
:10C3700001E01D49891E02222FE0407880B120791A
:10C3800010F0FF0F0CD118490222891C25E0A1886A
:10C3900011F0FF0F15D0407810B1C8B2812814D029
:10C3A0001248408848B112481249401AC008012179
:10C3B00001EB004010A1FBF791FABDE81040FEF739
:10C3C000D3B909490222891D07E08120FDF7B6FE95
:10C3D0000028F6D004490222091D2046BDE810407D
:10C3E000FEF73EBD4C0000200CC6000034030020C8
:10C3F00068E20000B8E10000556E6B6E6F776E204A
:10C400007374617475733A203078253278000000B7
:10C4100010B50446007850B9A08840B9E08830B91A
:10C420006088FF2803D8C0B2F7F73EFC90B10B48F4
:10C43000408858B10A480B496388401AC008012156
:10C4400001EB0040A28808A1FBF74FFABDE81040BD
:10C45000FEF78AB9BDE81040FEF75AB93403002050
:10C4600068E20000B8E1000057726F6E6720636FEA
:10C470006E66696775726174696F6E3A20496E64A1
:10C4800065783A2030782532782C2056616C7565B5
:10C490003A2030782532782E0000000010B501785F
:10C4A0000122022901D041B10AE0418841B98088C6
:10C4B000812805D1FDF728FE14E0408801280FD01F
:10C4C0000A48408840B10A480A49401AC00802EBAD
:10C4D000004009A1FBF7FEF9BDE81040FEF744B9A2
:10C4E0000B48C270BDE81040FEF712B934030020BB
:10C4F00068E20000B8E10000556E6B6E6F776E2049
:10C500006665617475726520746F207365740000D0
:10C510004C00002070B50C460546F5F729FD0028B3
:10C5200007D04268002A04D021462846BDE8704062
:10C53000104770BD1CB5002913D08268127F8A4253
:10C540000FD008A3D3E90023CDE9002301F12F0286
:10C550008DF803208268117700696A4603A1FAF713
:10C56000B7FB1CBD1B5B34006D0000002573000091
:10C570001CB5826899B1D27E8A420FD00CA2D2E952
:10C580000032CDE9003201F12F028DF805208268DA
:10C59000D17600696A4608A1FAF79AFB1CBDD176EC
:10C5A000006902B0054ABDE8104003A1FAF790BB4C
:10C5B0001B5B313B33006D00257300006DCA00002A
:10C5C00000000020940300203F000000D40300205E
:10C5D000EC0300200F000000FC030020000000001E
:10C5E000002000400000000000200040000000008B
:10C5F000A8CA000014040020C0C50000D0C5000077
:10C60000C4C50000DCC500000100010003000000FB
:10C61000010000000403090481AC000050CE0000BA
:10C62000F0C500004004002098E100002000002038
:10C6300070E20000120100020000004015190A52C9
:10C6400001010102000109022200010100E031099B
:10C650000400000103000200092111010001222E43
:10C6600000070581030800082A034E006F007200CE
:10C670006400690063002000530065006D006900DC
:10C6800063006F006E0064007500630074006F004B
:10C69000720048036E005200460035003200200050
:10C6A000550053004200200048004900440020008B
:10C6B0006D006F0075007300650020006F006E0054
:10C6C00020006E00720066005F0064007200760059
:10C6D0002000440065006D006F0005010902A10102
:10C6E0000901A1000509190129081500250195086E
:10C6F0007501810205011581257F75080930093111
:10C70000093895038106C0C05800002004000000CD
:10C7100000000000FFFFFFFFFFFFFFFFFFFFFFFF25
:10C72000FFFFFFFF00000000000000000000D60136
:10C73000060100000D0E0F100B0C181980000020D0
:10C74000A0000020C00000200B0003003D1B0000E3
:10C750000C0003003D1B0000180003003D1B0000FF
:10C76000190003003D1B00000000000070C700001E
:10C77000B4CE0000BCCE00000000000099310000E3
:10C78000B8CE0000A4CE000000000000013200007E
:10C790000000000000000000000000000000000099
:10C7A000D4CE0000D4CE000068C700000000000016
:10C7B0000000000000000050A5940000B5980000A3
:10C7C0000600000301000000060000000600000053
:10C7D0000600000006000000060000000600000140
:10C7E000050000000200000003000000040000003B
:10C7F000060000025D4000009D3F0000753D000006
:10C80000793D00007F3D0000853D00008B3D00002C
:10C81000913D0000973D00009D3D0000C13E00009D
:10C82000A33D0000A93D0000093E00000F3E0000AE
:10C83000153E00001B3E0000213E0000273E000088
:10C840002D3E0000353E0000553F0000A13F000096
:10C85000DD3E0000813E000008010C0110011401C2
:10C8600018011C01200124012C0130013401380180
:10C870003C014001440148014C0150010203040500
:10C88000060708090B0C0D0E0F10111213140000EF
:10C89000030000004801002088010020010006007C
:10C8A000000000009C010020DF33000000000000B9
:10C8B0000338FDD87047000000000000C0C8000029
:10C8C00014D40000F0D30000000000006159000003
:10C8D0000000000000000000000000000000000058
:10C8E0001CD4000024D40000B8C800006159000026
:10C8F000D1740000B3740000A974000000000000AF
:10C9000004C9000004D50000ECD4000000000000C1
:10C91000C95E000008D50000D4D40000000000006B
:10C92000F35E0000000000000000000000000000B6
:10C9300000000000000000003CC9000004D5000019
:10C940000CD5000000000000B55F000008D5000015
:10C9500068D5000000000000DF5F0000000000005C
:10C9600000000000000000000000000000000000C7
:10C9700074C90000D4D50000A8D500000000000054
:10C98000495D0000DCD500007CD5000000000000FF
:10C99000795D0000000000000000000000000000C1
:10C9A0000000000000000000ACC9000028D6000014
:10C9B00008D60000FCC80000015E000020D6000080
:10C9C000E4D5000034C900001D5F000030D600002F
:10C9D000F8D500006CC90000DD5C0000000000001C
:10C9E0000000000000000000000000000000000047
:10C9F000F4C900007CD6000038D60000000000001A
:10CA000005620000000000000000000000000000BF
:10CA10000000000094D6000084D600000000000052
:10CA2000595B0000C0D600009CD60000A4C90000DD
:10CA30002D5C0000D8D60000C4D600000000000025
:10CA40000960000080D70000E0D60000ECC90000BB
:10CA5000E160000000000000000000000000000095
:10CA60001B37001B38002C20001B5B4A001B5B6D32
:10CA700000082008001B5B4B00202D20001B5B489A
:10CA8000001B5B366E001B5B324A0000000000009A
:10CA90000338FDD870471B5B3F336C002D682C209A
:10CAA0002D2D68656C700000052F0000B92F000067
:10CAB000992E0000D12F0000512F00003031323369
:10CAC000343536373839414243444546000000008A
:10CAD000D4CA000014D400008CD70000000000006D
:10CAE0003181000000000000000000000000000094
:10CAF00000000000B0D7000024D40000CCCA000021
:10CB000031810000556E6B6E6F776E206572726FAB
:10CB10007220636F646500000000000098DB000075
:10CB20000100000058DA0000020000004CD80000AC
:10CB300003000000CCDA00000400000020DB00004D
:10CB40000500000000DA0000060000009CD900008B
:10CB50000700000008DB00000800000014DA0000F5
:10CB60000900000078DA00000A00000080DB000005
:10CB70000B00000034D800000C0000002CDA00008C
:10CB80000D000000D0DB00000E000000F8DA00000D
:10CB90000F00000034DB00001000000068DB000024
:10CBA00011000000E4DB000080000000B4D90000A8
:10CBB00081000000F0D8000082000000B0D8000022
:10CBC0008300000090D8000084000000CCD8000052
:10CBD00085000000D8D9000086000000E0DA0000DF
:10CBE000900000007CD900009100000070D8000087
:10CBF0009200000040DA00000082000048DB0000E4
:10CC00000182000094DA000002820000B0DA000025
:10CC1000008400000CD9000001840000A4DB0000A7
:10CC20000284000054D900000384000030D90000C1
:10CC300019760000ED750000EB750000FFFFFFFFA7
:10CC4000FFFFFFFFFFFFFFFFFFFFFFFF00000000F0
:10CC5000000000000000D6010601000001000000F5
:10CC6000B55500000000000080CC0000B80B00208B
:10CC70007F000000380C002001000000A5B100007A
:10CC800098DD000024DD00005CCC0000594A000063
:10CC900090DD0000A0DC000078CC0000594A0000C4
:10CCA000C0DD0000A0DD000000000000654A0000BB
:10CCB000D4DD0000B0DD000000000000714A00007B
:10CCC00014D40000C4DD0000000000007D4A000014
:10CCD0000000000000000000000000000000000054
:10CCE00001000000CD18000000000000F0CC0000A2
:10CCF00044DE0000DCDD000000000000AD4B000061
:10CD00004CDE000010DE000000000000E94B0000D7
:10CD10000000000000000000000000000000000013
:10CD20000000000028CD000088DE000054DE000076
:10CD3000E0CC00000000000090DE000098DE000063
:10CD4000E8CC00000000000098DD000024DD0000B9
:10CD50005CCC0000254F000090DD0000A0DC00004E
:10CD600078CC0000254F0000C0DD0000A0DD0000F1
:10CD700000000000354F0000D4DD0000B0DD0000F1
:10CD8000000000003F4F0000B4DE000070DE000035
:10CD900000000000E54A000014D40000C4DD0000DB
:10CDA00000000000494F00000000000000000000EB
:10CDB0000000000000000000C4DE0000C8DE00002B
:10CDC00020CD0000894A00000040404040404040E3
:10CDD000404041414141414040404040404040404E
:10CDE00040404040404040404005020202020202F2
:10CDF0000202020202020202022020202020202041
:10CE00002020200202020202020290909090909054
:10CE10001010101010101010101010101010101012
:10CE20001010101002020202020288888888888886
:10CE30000808080808080808080808080808080872
:10CE4000080808080202020240000000C9CD0000E4
:10CE5000756172745F636C693A7E24200000000083
:10CE6000556E6B6E6F776E20646573637269707454
:10CE70006F72207265717565737465643A203078DD
:10CE80002532782C20747970653A203078253278F4
:10CE9000206F722076616C75653A20307825327883
:10CEA00000000000425350206576656E742069646E
:10CEB0000000000062746E006576740042535020DA
:10CEC000627574746F6E206576656E74206B65791B
:10CED0000000000062737000446174612062757329
:10CEE000206572726F72202872657475726E20618F
:10CEF00064647265737320696E207468652073744E
:10CF000061636B206672616D65206973206E6F745A
:10CF10002072656C6174656420746F20746865208C
:10CF2000696E737472756374696F6E20746861746E
:10CF30002063617573656420746865206572726F23
:10CF400072290000446174612062757320657272F9
:10CF50006F72202850432076616C75652073746170
:10CF6000636B656420666F72207468652065786302
:10CF7000657074696F6E2072657475726E20706F63
:10CF8000696E747320746F2074686520696E7374A1
:10CF900072756374696F6E20746861742063617563
:10CFA00073656420746865206661756C742900007F
:10CFB00043617573653A204275734661756C7420E0
:10CFC0006F6E206120766563746F72207461626C8D
:10CFD00065207265616420647572696E672065788A
:10CFE00063657074696F6E2070726F6365737369C7
:10CFF0006E672E005468652070726F636573736F7F
:10D00000722068617320657865637574656420615A
:10D010006E2053444956206F72205544495620696A
:10D020006E737472756374696F6E207769746820AB
:10D03000612064697669736F72206F66203000002A
:10D040005468652070726F636573736F72206861D6
:10D050007320617474656D7074656420746F2065ED
:10D0600078656375746520616E20696E737472757E
:10D070006374696F6E2074686174206D616B657391
:10D0800020696C6C6567616C20757365206F662024
:10D0900074686520455053520000000054686520B4
:10D0A00070726F636573736F72206861732061744F
:10D0B00074656D7074656420616E20696C6C656761
:10D0C000616C206C6F6164206F66204558435F522D
:10D0D000455455524E20746F207468652050432C7F
:10D0E000206173206120726573756C74206F6620F7
:10D0F000616E20696E76616C696420636F6E746521
:10D1000078742C206F7220616E20696E76616C6974
:10D1100064204558435F52455455524E2076616C09
:10D12000756500005468652070726F636573736F76
:10D130007220617474656D707465642061206C6F19
:10D140006164206F722073746F7265206174206156
:10D15000206C6F636174696F6E2074686174206401
:10D160006F6573206E6F74207065726D69742074C2
:10D170006865206F7065726174696F6E00000000F1
:10D1800041204D656D4D616E616765206661756C0E
:10D1900074206F6363757272656420647572696E62
:10D1A0006720666C6F6174696E672D706F696E744D
:10D1B000206C617A79207374617465207072657374
:10D1C0006572766174696F6E0000000041206275BF
:10D1D00073206661756C74206F6363757272656429
:10D1E00020647572696E6720666C6F6174696E6722
:10D1F0002D706F696E74206C617A7920737461741C
:10D200006520707265736572766174696F6E000077
:10D210005468652070726F636573736F7220686104
:10D220007320617474656D7074656420746F20651B
:10D2300078656375746520616E20756E64656669D6
:10D240006E656420696E737472756374696F6E00C5
:10D25000496E737472756374696F6E2062757320A2
:10D260006572726F720000005468652070726F639F
:10D270006573736F722068617320617474656D707B
:10D2800074656420746F206163636573732061202B
:10D29000636F70726F636573736F7200556E737432
:10D2A00061636B20666F7220616E206578636570C4
:10D2B00074696F6E2072657475726E206861732078
:10D2C000636175736564206F6E65206F72206D6F8A
:10D2D0007265206163636573732076696F6C617436
:10D2E000696F6E7300000000537461636B696E6751
:10D2F00020666F7220616E20657863657074696F57
:10D300006E20656E74727920686173206361757335
:10D310006564206F6E65206F72206D6F726520618D
:10D3200063636573732076696F6C6174696F6E7384
:10D33000000000005468652070726F636573736F3E
:10D340007220686173206D61646520616E20756E66
:10D35000616C69676E6564206D656D6F72792061BF
:10D360006363657373000000556E737461636B20B3
:10D37000666F7220616E20657863657074696F6E88
:10D380002072657475726E206861732063617573B5
:10D390006564206F6E65206F72206D6F726520422C
:10D3A00075734661756C747300000000537461639B
:10D3B0006B696E6720666F7220616E2065786365A9
:10D3C0007074696F6E20656E747279206861732065
:10D3D000636175736564206F6E65206F72206D6F79
:10D3E0007265204275734661756C747300000000AD
:10D3F0005072696E7420737461747573206F662047
:10D4000062616C6C6F6320696E7374616E636573C7
:10D410002E000000737461747573000062616C6C9F
:10D420006F630000436F6D6D616E647320666F7291
:10D430002042414C4C4F43206D616E6167656D65C4
:10D440006E74000025730D0A092D20456C656D650D
:10D450006E742073697A653A092564202B2025644F
:10D46000206279746573206F662064656275672039
:10D47000696E666F726D6174696F6E0D0A092D2099
:10D4800055736167653A092575252520282575207E
:10D490006F7574206F6620257520656C656D656EEF
:10D4A0007473290D0A092D204D6178696D756D3AE7
:10D4B000092575252520282575206F7574206F6630
:10D4C00020257520656C656D656E7473290D0A0DD8
:10D4D0000A000000456E61626C6520636F6C6F72BC
:10D4E00065642073796E7461782E000044697361FD
:10D4F000626C6520636F6C6F7265642073796E7403
:10D5000061782E006F6666006F6E0000446973617B
:10D51000626C6520434C49206563686F2E20417220
:10D52000726F777320616E6420627574746F6E73AE
:10D530003A204261636B73706163652C2044656CB3
:10D540006574652C20456E642C20486F6D652C2019
:10D55000496E7365727420617265206E6F74206805
:10D56000616E646C65642E00456E61626C6520437B
:10D570004C49206563686F2E0000000047657420E9
:10D58000434C4920737461746973746963732066D2
:10D590006F7220746865204C6F67676572206D6FCD
:10D5A00064756C652E000000526573657420434CF1
:10D5B00049207374617469737469637320666F7250
:10D5C00020746865204C6F67676572206D6F6475A5
:10D5D0006C652E00726573657400000073686F7768
:10D5E00000000000546F67676C6520434C4920655C
:10D5F00063686F2E00000000434C4920737461740F
:10D600006973746963732E00546F67676C65206378
:10D610006F6C6F7265642073796E7461782E000090
:10D620006563686F00000000636F6C6F72730000C9
:10D630007374617473000000417373756D652038F5
:10D64000302063686172732073637265656E207742
:10D650006964746820616E642073656E6420746808
:10D6600069732073657474696E6720746F207468C1
:10D6700065207465726D696E616C2E00646566610B
:10D68000756C7400436C6561722073637265656EBE
:10D690002E000000636C65617200000055736566C2
:10D6A000756C2C206E6F7420556E69782D6C696BCB
:10D6B0006520434C4920636F6D6D616E64732E006D
:10D6C000636C6900436F6D6D616E6420686973748B
:10D6D0006F72792E00000000686973746F727900B0
:10D6E000436F6E736F6C6520676574732074657229
:10D6F0006D696E616C2073637265656E2073697A03
:10D7000065206F7220617373756D657320383020EA
:10D71000696E206361736520746865207265616459
:10D720006F7574206661696C732E204974206D7565
:10D730007374206265206578656375746564206123
:10D74000667465722065616368207465726D696EC8
:10D75000616C207769647468206368616E67652016
:10D76000746F20656E7375726520636F7272656386
:10D7700074207465787420646973706C61792E000C
:10D78000726573697A650000202000005072696E2E
:10D790007420737461747573206F6620717565757C
:10D7A0006520696E7374616E6365732E00000000FE
:10D7B000717565756500000025730D0A092D2045FA
:10D7C0006C656D656E742073697A653A0925640D20
:10D7D0000A092D2055736167653A092575252520AD
:10D7E000282575206F7574206F6620257520656C5F
:10D7F000656D656E7473290D0A092D204D61786978
:10D800006D756D3A092575252520282575206F75BC
:10D8100074206F6620257520656C656D656E747368
:10D82000290D0A092D204D6F64653A090925730DEC
:10D830000A0D0A004E52465F4552524F525F494E02
:10D8400056414C49445F4441544100004E52465FAA
:10D850004552524F525F534F4654444556494345F3
:10D860005F4E4F545F454E41424C4544000000001E
:10D870004E52465F4552524F525F464541545552B3
:10D88000455F4E4F545F454E41424C4544000000B9
:10D890004E52465F4552524F525F4D555445585F68
:10D8A000554E4C4F434B5F4641494C4544000000A8
:10D8B0004E52465F4552524F525F4D555445585F48
:10D8C0004C4F434B5F4641494C4544004E52465FE6
:10D8D0004552524F525F4D555445585F434F4E4449
:10D8E0005F494E49545F4641494C454400000000A1
:10D8F0004E52465F4552524F525F4D555445585F08
:10D90000494E49545F4641494C4544004E52465F9A
:10D910004552524F525F424C455F495053505F52FF
:10D92000585F504B545F5452554E43415445440048
:10D930004E52465F4552524F525F424C455F4950EE
:10D9400053505F504545525F52454A454354454404
:10D95000000000004E52465F4552524F525F424C0B
:10D96000455F495053505F4C494E4B5F44495343C8
:10D970004F4E4E4543544544000000004E52465F12
:10D980004552524F525F4150495F4E4F545F494D8F
:10D99000504C454D454E5445440000004E52465FA4
:10D9A0004552524F525F4E4F545F535550504F5255
:10D9B000544544004E52465F4552524F525F4D4FC0
:10D9C00044554C455F4E4F545F494E495449414C74
:10D9D000495A4544000000004E52465F4552524F9E
:10D9E000525F4D4F44554C455F414C52454144595F
:10D9F0005F494E495449414C495A45440000000092
:10DA00004E52465F4552524F525F4E4F545F464F03
:10DA1000554E44004E52465F4552524F525F494E5A
:10DA200056414C49445F5354415445004E52465F61
:10DA30004552524F525F444154415F53495A450049
:10DA40004E52465F4552524F525F494F5F50454ECE
:10DA500044494E47000000004E52465F4552524F27
:10DA6000525F5356435F48414E444C45525F4D49C7
:10DA70005353494E470000004E52465F4552524FA5
:10DA8000525F494E56414C49445F4C454E475448BD
:10DA9000000000004E52465F4552524F525F4452C2
:10DAA000565F5457495F4552525F414E41434B00C8
:10DAB0004E52465F4552524F525F4452565F545742
:10DAC000495F4552525F444E41434B004E52465FC0
:10DAD0004552524F525F494E5445524E414C000000
:10DAE0004E52465F4552524F525F53544F52414738
:10DAF000455F46554C4C00004E52465F4552524FD2
:10DB0000525F4E554C4C00004E52465F4552524FAC
:10DB1000525F494E56414C49445F504152414D007D
:10DB20004E52465F4552524F525F4E4F5F4D454DEC
:10DB3000000000004E52465F4552524F525F464F22
:10DB40005242494444454E004E52465F4552524F60
:10DB5000525F4452565F5457495F4552525F4F5689
:10DB6000455252554E0000004E52465F4552524FAC
:10DB7000525F494E56414C49445F41444452000073
:10DB80004E52465F4552524F525F494E56414C49A4
:10DB9000445F464C414753004E52465F5355434302
:10DBA000455353004E52465F4552524F525F424CCE
:10DBB000455F495053505F4348414E4E454C5F418D
:10DBC0004C52454144595F45584953545300000055
:10DBD0004E52465F4552524F525F54494D454F5544
:10DBE000540000004E52465F4552524F525F42551C
:10DBF000535900002E2E5C2E2E5C2E2E5C2E2E5C99
:10DC00002E2E5C2E2E5C636F6D706F6E656E74735E
:10DC10005C6C69627261726965735C6C6F675C737E
:10DC200072635C6E72665F6C6F675F6261636B6587
:10DC30006E645F756172742E630000002E2E5C2E80
:10DC40002E5C2E2E5C2E2E5C2E2E5C2E2E5C636F98
:10DC50006D706F6E656E74735C6C6962726172690F
:10DC600065735C6C6F675C7372635C6E72665F6C2D
:10DC70006F675F66726F6E74656E642E630000007E
:10DC80006E6F6E65000000007761726E696E6700EE
:10DC90006465627567000000696E666F00000000D1
:10DCA000276C6F6720656E61626C65203C6C6576E1
:10DCB000656C3E203C6D6F64756C655F303E202E58
:10DCC0002E2E20203C6D6F64756C655F6E3E2720A4
:10DCD000656E61626C6573206C6F67732075702070
:10DCE000746F20676976656E206C6576656C206957
:10DCF0006E20737065636966696564206D6F647515
:10DD00006C65732028616C6C206966206E6F206DD5
:10DD10006F64756C657320737065636966696564AB
:10DD2000292E0000276C6F672064697361626C653F
:10DD3000203C6D6F64756C655F303E202E2E203C5C
:10DD40006D6F64756C655F6E3E27206469736162F8
:10DD50006C6573206C6F677320696E2073706563E8
:10DD60006966696564206D6F64756C6573202861F0
:10DD70006C6C206966206E6F206D6F64756C6573C6
:10DD800020737065636966696564292E0000000070
:10DD9000656E61626C65000064697361626C650048
:10DDA000526573756D65206C6F6767696E670000FB
:10DDB00048616C74206C6F6767696E6700000000D3
:10DDC000676F00004C6F67676572207374617475CC
:10DDD0007300000068616C74000000004C6F6164A7
:10DDE00020636F6E66696775726174696F6E207308
:10DDF000746F72656420696E206E6F6E2D766F6C25
:10DE00006174696C65206D656D6F72792E0000001C
:10DE100053746F72652063757272656E7420636FE0
:10DE20006E66696775726174696F6E20696E206EC7
:10DE30006F6E2D766F6C6174696C65206D656D6FAA
:10DE400072792E006C6F61640000000073746F7251
:10DE5000650000004C6F67676572206261636B65E7
:10DE60006E647320636F6D6D616E64732E000000CD
:10DE70004C69737473206C6F6767657220626163AD
:10DE80006B656E64732E00006261636B656E640087
:10DE9000636F6E66696700004D616E616765206C37
:10DEA0006F6767657220636F6E666967757261740C
:10DEB000696F6E006C6973745F6261636B656E6439
:10DEC000730000006C6F6700436F6D6D616E64736B
:10DED00020666F7220636F6E74726F6C6C696E6710
:10DEE000206C6F67676572001B5B313B33306D00E0
:10DEF0001B5B306D000000001B5B313B33316D005C
:10DF00001B5B313B33326D001B5B313B33336D00A8
:10DF10001B5B313B33346D001B5B313B33356D0094
:10DF20001B5B313B33366D001B5B313B33376D0080
:10DF30006170705F74696D65722E6D5F636C695F8F
:10DF4000756172745F7472616E73706F72745F74F6
:10DF5000696D65720000000071756575652E6D5FF5
:10DF6000636C695F756172745F6C6F675F62616338
:10DF70006B656E645F7175657565000062616C6CE0
:10DF80006F632E6D5F636C695F756172745F636D43
:10DF9000645F686973745F6D656D6F626A0000002D
:10DFA0006D5F636C695F756172745F6C6F675F62F0
:10DFB00061636B656E645F71756575650000000077
:10DFC0006D5F636C695F756172745F6C6F675F62D0
:10DFD00061636B656E6400006D5F636C695F7561A2
:10DFE00072745F636D645F686973745F6D656D6F94
:10DFF000626A00006170705F74696D65722E6D5F9A
:10E000006273705F6C6564735F746D720000000012
:10E010006170705F74696D65722E6D5F6273705FA1
:10E02000616C6572745F746D720000006170705F86
:10E0300074696D65722E6D5F6273705F6275747462
:10E040006F6E5F746D720000636C6F636B00000035
:10E05000434C4F434B0000004750494F544500008C
:10E060005052530055415254000000005541525443
:10E070004500000055534244000000006170705F8D
:10E08000627574746F6E00006170705F74696D65A5
:10E09000722E6D5F646574656374696F6E5F64652D
:10E0A0006C61795F74696D65725F6964000000007E
:10E0B0006170705F74696D657200000061746669FB
:10E0C000666F2E6D5F7265715F6669666F00000036
:10E0D000686172646661756C74000000636C695FEE
:10E0E00075617274000000007077725F6D676D7407
:10E0F00000000000736F72746C697374000000009C
:10E10000756172745F6C6F675F6261636B656E648B
:10E110000000000062616C6C6F632E6C6F675F6D56
:10E12000656D706F6F6C0000617070006C6F675F81
:10E130006D656D706F6F6C00C4E200000000002020
:10E1400094030000840C000084E30000940300208A
:10E15000DC1C00006412000000000000A0C70000EA
:10E1600000000000E0C800000000000014CA000029
:10E170000000000024CA00000000000034CA0000B3
:10E180000000000044CA000000000000F4CA0000C3
:10E1900000000000B8CD0000F0C8000038000020EA
:10E1A000C0DF00004400002030CC00000000000070
:10E1B00000E100003402002030DF00000000000316
:10E1C00058DF0000000000037CDF000000000003B7
:10E1D000F4DF00000000000310E000000000000376
:10E1E0002CE000000000000348E0000000000000F8
:10E1F00050E000000000000058E0000000000000B7
:10E2000060E000000000000064E00000000000008A
:10E210006CE000000000000074E00000000000005E
:10E220007CE000000000000088E000000000000327
:10E23000B0E0000000000000BCE0000000000003AF
:10E24000D0E0000000000303DCE00000000000005C
:10E25000E8E0000000000000F4E000000000000022
:10E2600014E100000000000328E1000000000303A7
:10E27000640000205C00002064000020AC05002049
:10E28000E4020020D8DF000030000000700200200F
:10E290006802002070020020F80A002030030020ED
:10E2A0002CE1000018000000A00500208C050020D3
:10E2B000040000000400000001000000A0DF0000D6
:10E2C000E0020020815AFF01C113DC021420600526
:10E2D000B32017231CC6230568E3A8E2B93901332C
:10E2E0000912801AE880091A200A1DEC209AF020F1
:10E2F00001310A4801C89B1403881510014011021E
:10E300002104AA1C34B12310D26324D11A9C0C1A04
:10E31000E8045A8010411A50102344CF23D8CE234A
:10E3200068D31AAC049ACC2029401B40D03C190475
:10E330001A680C01101A34301AF440B388D712202E
:10E34000BA400829E859042380DC1A60481A880872
:10E350001A98045A9004291429102920291C011CF8
:10E36000E9401BF0DED819041AF8041122DF1A085C
:10E37000041A10041A18041A20041A28041104D8C4
:04E3800090D0030036
:0400000500000201F4
:00000001FF
