:020000040000FA
:10000000F0210020DD020000E5020000E702000010
:10001000E9020000EB020000ED0200000000000019
:10002000000000000000000000000000EF020000DF
:10003000F102000000000000F3020000F5020000E1
:100040008D040000F7020000F7020000F702000034
:10005000F7020000F7020000E9030000F7020000C9
:10006000F7020000F7020000F7020000F7020000AC
:10007000F7020000F7020000F7020000F70200009C
:10008000CD070000E5040000F7020000F7020000C1
:10009000F7020000F7020000F7020000F70200007C
:1000A000F7020000F7020000F7020000F70200006C
:1000B000F7020000F702000000000000000000004E
:1000C000F7020000F7020000F7020000F70200004C
:1000D000F7020000F7020000F70200000000000035
:1000E0000000000000000000000000000000000010
:1000F0000000000000000000000000000000000000
:1001000000000000000000000000000000000000EF
:1001100000000000000000000000000000000000DF
:1001200000000000000000000000000000000000CF
:1001300000000000000000000000000000000000BF
:1001400000000000000000000000000000000000AF
:10015000000000000000000000000000000000009F
:10016000000000000000000000000000000000008F
:10017000000000000000000000000000000000007F
:10018000000000000000000000000000000000006F
:10019000000000000000000000000000000000005F
:1001A000000000000000000000000000000000004F
:1001B000000000000000000000000000000000003F
:1001C000000000000000000000000000000000002F
:1001D000000000000000000000000000000000001F
:1001E000000000000000000000000000000000000F
:1001F00000000000000000000000000000000000FF
:10020000DFF80CD000F0DEF8004800478113000052
:10021000F021002030B450E8012F93B2C489234468
:100220008489A34228BF1B1B0489A34202BFBFF3DA
:100230002F8F002007E0C3EA020340E80134002CBE
:10024000E9D14FF001000A6030BC704750E8012F3F
:10025000C2EA024240E801210029F7D1704730B4D8
:1002600050E8022F1FFAA2F3C488A34202BFBFF3D3
:100270002F8F00200DE0C48923448489A34228BF26
:100280001B1BC2EA034340E80234002CE8D14FF0C4
:1002900001000A6030BC704750E8022FC2EA2242D7
:1002A00040E802210029F7D17047034653E8022FA6
:1002B000D988B2EB324F4FF0000017BF92B241EA3B
:1002C000014142EA014104E05A68B2EB324F08BFF3
:1002D000012043E80212002AE8D17047064880470F
:1002E00006480047FEE7FEE7FEE7FEE7FEE7FEE71B
:1002F000FEE7FEE7FEE7FEE7F5040000010200006E
:100300002DE9F05F0546002092469B46884606464A
:10031000814640241BE0284641464746224600F0DD
:1003200041F853465A46C01A914110D31146184617
:10033000224600F016F82D1A67EB01084F462246B8
:100340000120002100F00DF817EB00094E41201E9E
:10035000A4F10104DFDC484631462A464346BDE8A5
:10036000F09F202A04DB203A00FA02F100207047B7
:100370009140C2F1200320FA03F3194390407047E3
:10038000D2B201E000F8012B491EFBD270470022D7
:10039000F6E710B513460A4604461946FFF7F0FF84
:1003A000204610BD202A04DB203A21FA02F0002169
:1003B000704721FA02F3D040C2F120029140084375
:1003C00019467047064C074D06E0E06840F001030F
:1003D00094E8070098471034AC42F6D3FFF714FFB7
:1003E000E81E0000081F00002DE9F8430025DFF893
:1003F00094804FF4807601242F460095304601F01A
:1004000015F938B1D8F80403204203D0304601F082
:1004100003F92543361D64007F1CB6B2082FEDD3C7
:100420004FF4BE74204601F001F948B1204601F0B6
:10043000F3F845F000456A460121002001F0BCF8C0
:1004400015F0FF0F16D0012600242E420ED008EB27
:100450008401D1F81005D1F81015C0F304200A4A20
:10046000C1F3014152F8242002B190477600641C88
:10047000082CEAD3002D02DA684601F005FBBDE83E
:10048000F8830000006000401801002070B54FF4B0
:100490008076304601F009F8114CB50560B1304660
:1004A00001F00AF80120C5F80803607920B901209D
:1004B00060712168002088474FF48276304600F052
:1004C000F4FF00280AD0304600F0F6FF0220C5F8FD
:1004D00008032168BDE870400120084770BD000096
:1004E0007800002002490248091F0968006808478F
:1004F000EC000020F0B5A449A4484FF080540B68EC
:10050000D4F830210078D4F83411551CC0F303100E
:1005100006D0944601270026BCF1060F03D00AE05E
:1005200003F0FF0CF6E7B4F82453DFF864C2C5F318
:100530000425CCF80050DDB2062D06D1032804D1E5
:10054000DFF854C2934DCCF87450551C04D0944637
:10055000BCF1060F03D00AE003F0FF0CF8E7D4F873
:100560004452DFF838C2C5F34235CCF80050DDB252
:10057000062D08D1032806D1894DD5F800C02CF0EE
:10058000807CC5F800C0551C04D09446BCF1060F11
:1005900003D00BE003F0FF0CF8E74FF08045C5F8FF
:1005A0000C61C5F810617D4D2D1F2E60DDB2062D4A
:1005B00008D1032806D1DFF8E4C103250CF1640C4F
:1005C000CCF80050DDB2062D10D103280ED1DFF893
:1005D000D4C10525CCF80050724D78352F60714D8F
:1005E00008352E600CF104063F253560551C04D0FB
:1005F00016460D46062E03D05BE0DEB20546F9E74F
:10060000ED1E012D55D9684D2D68684E3560664D3B
:100610002D1D2D68361D3560634D08352D68361D3E
:100620003560614D0C352D68361D35605E4D1035D9
:100630002D68361D35605C4D14352D68361D3560CE
:10064000594D18352D68594E20363560564D1C359C
:100650002D68361D3560544D20352D68361D3560AA
:10066000514D24352D68361D35604F4D28352D6888
:10067000361D35604C4D2C352D68361D35604A4D84
:1006800030352D68494E40363560474D34352D683C
:10069000361D3560444D38352D68361D3560424D68
:1006A0003C352D68361D35603F4D40352D68361D73
:1006B0003560551C03D01646062E02D007E0DEB288
:1006C000FAE7D4F858523A4E05F04F053560551CFC
:1006D00003D01346062B02D008E0DBB2FAE7354818
:1006E0000368DB0702D06FF001030360062A07D11D
:1006F000C91E022904D93048016841F480610160B3
:1007000027487438016841F470010160BFF34F8FCE
:10071000BFF36F8FD4E94C104FF01022062907D198
:10072000C01E032804D9D2F808021C491C310860F5
:10073000D2F80002002803DBD2F8040200281FDAF6
:10074000012001F06FF91521C2F800121B4803685F
:10075000002BFCD0C2F8041201680029FCD0002054
:1007600001F060F9BFF34F8F0D48F0380168144A6B
:1007700001F4E06111430160BFF34F8F00BFFDE75B
:10078000114910480860F0BDE00F00F0E80F00F0DC
:10079000403501400DF0ADBA00C007403C050040B7
:1007A000FCED00E0105600400404001020C500409D
:1007B000E40E0040000400403C17004000E401400B
:1007C0000400FA050090D003F400002038B5064C70
:1007D00020680025002805D004484068804725602F
:1007E0002068009038BD000000010140800000201A
:1007F00002E008C8121F08C1002AFAD170477047EA
:10080000002001E001C1121F002AFBD17047022025
:1008100000F028B970B50024064D06E06868012193
:1008200010F8340000F096FF641C28788442F5D359
:10083000002070BD88000020F8B516460C4605461D
:100840000A2A01D20720F8BD01F07EF818B901F09C
:1008500041F80028F7D1134F102113487D603C70F8
:10086000BE60FFF794FD0020C7E904000F4E0DE0C5
:1008700005EBC4003168009181788DF80110007893
:100880000B4A694600F0B6FF0028DCD1641EE4B2D2
:10089000EED2BDE8F84005480021064A001D00F0F0
:1008A0001FB800008800002074010020B81E00005E
:1008B000E9120000590F000000F006F9FEE70EB53E
:1008C00000210091CDE901106A4644F20100FFF7D2
:1008D000F3FF0EBD014800F09CBB0000C8000020E3
:1008E00010B55AB100684FF0FF3401294261C0E9E8
:1008F000024400D000210161002010BD072010BD7E
:1009000038B5114808235822416800910F49006802
:1009100000F084FD002815D10D4A69460D4800F00D
:100920007DFB04000ED101210A4800F0C4FB012325
:10093000094A1946074800F044FB064901200839D6
:100940000870204638BD0000C01E00009401002041
:100950004D1B0000C8000020FFFF7F0070B504465B
:1009600016460D46002000F03CF8D4E90201C043D1
:1009700070EA010004D0002000F035F8002070BDBE
:1009800000F098FC401941F10001C4E90201002087
:1009900000F029F8A661206900B125612146BDE873
:1009A0007040002001F01EBA10B50446002000F08F
:1009B00018F8D4E90201C04370EA01000CD04FF0EE
:1009C000FF30C4E90200002000F00DF82146BDE828
:1009D0001040012001F006BA002000F004F80020C9
:1009E00010BD00F003B800F009B8000072B602486C
:1009F0000168491C01607047E40000200349086851
:100A0000401E086000D162B670470000E40000207C
:100A10002DE9FC410646C0074FF000050ED0104FEF
:100A200000240122385D009500231146019500F055
:100A30008DFD641C042CF4D300F046F8B0070DD5EE
:100A4000074E0024361D0022305D03230095114619
:100A5000019500F07BFD641C042CF4D3BDE8FC81FF
:100A6000801E000007490B5C4FF0A041D1F804251F
:100A70000120984020EA0203C1F808351040C1F86F
:100A80000C057047801E00000249085C012100F03F
:100A9000B8BD0000801E00000249085C002100F083
:100AA000B0BD0000801E00000649095C4FF0A04068
:100AB000D0F80405C84010F0010000D0012080F0FB
:100AC00001007047801E000010B500242046FFF78B
:100AD000DBFF641C042CF9D310BD10B500242046A4
:100AE000FFF7DAFF641C042CF9D310BD10B50246E1
:100AF000064B4FF0FF3000215C5C944201D1084668
:100B000010BD491C0429F7D310BD0000841E00004D
:100B10002DE9F0470D468146FFF7E8FF044604281B
:100B200036D2DFF874801B481C4EA8F10C0725B3A1
:100B3000012D0ED0022D2BD104EB4400304445781A
:100B4000002D25D0B968002922D02846BDE8F047FD
:100B5000084704EB4401755C0E44717849B10E4AB4
:100B60004FF48041093A8068FFF7F8FE08B987F82A
:100B70000390B17808F80410E2E78068FFF714FFEB
:100B800004EB4401314418F804008D78A842D7D012
:100B9000BDE8F087881E000010000020F80000204B
:100BA000FFF738BE0E2803D10248007800F0F4BEEB
:100BB000704700000000002070B50023042810D208
:100BC0000D4D00EB4004012A02D101290CD0002276
:100BD000094E00EB4000304461B1012906D00229E2
:100BE00006D00723184670BD0E30C2B22A55F9E769
:100BF0004270F7E78270F5E7F800002070B506460E
:100C00001E480024C0E90161B00720D5002501225B
:100C100011462846FFF7D0FF6D1C0446042D02D272
:100C2000002CF4D013E094B940F23332042114487C
:100C3000FFF702FE04000AD1FFF7ECFD040006D125
:100C40000F48104A0021001FFFF74AFE0446F00734
:100C500012D00120FFF7DCFE74B909480A4A0021CE
:100C60000C38FFF73DFE040006D10548074A012174
:100C70000838FFF735FE0446204670BD040000200A
:100C8000941E0000810E00006D1300000F0800008C
:100C90002DE9F05F6E4C054600266078B34618B12A
:100CA00084F801B000F04AFB6A4F4FF47A694FF4C0
:100CB000C87A4FF00108182D69D2DFE805F00C134F
:100CC00013384754696E727B727BC5848484848434
:100CD000B3B6B9BCC5C500F031FB3868FFF764FE98
:100CE00006465CE00020FFF7DFFE00284FF0000022
:100CF00008D0FFF7C9FE022D02D14FF4E16008E0F1
:100D0000484606E0FFF7C8FE022D01D1C82000E0EA
:100D10005046410CC0034FF47A72801841F1000133
:100D2000257052000023FFF7EBFA01462AE000206D
:100D3000FFF7BAFE00284FF0000004D0FFF7A4FE32
:100D40004FF44870E5E7FFF7A7FEDFE70020FFF765
:100D5000ABFE00284FF0000002D0FFF795FECFE772
:100D6000FFF79AFED4E70020FFF79EFE00284FF021
:100D7000000002D0FFF788FE01E0FFF78DFE25702E
:100D800040F6CD4100223868FFF7E8FD064646E010
:100D90000020FFF767FE257008E0002051E0257075
:100DA0003DE084F801800120FFF75CFE002240F264
:100DB0006661E8E784F801800120FFF753FE002216
:100DC0004FF40051DFE77868FFF7EEFD0646D5F1F6
:100DD000110000D02EB10220FFF756FE84F802B0B9
:100DE0001DE0012816D980B2C8214843C117C903A4
:100DF00041EA5041C0034FF47A72801841F100017A
:100E000052000023FFF77CFA014600227868FFF7C2
:100E1000A5FD06460220FFF73FFE84F8028030461B
:100E2000BDE8F09F00F08AFAB9E700F087FAB4E76E
:100E300000F084FA04E000F081FA0020FFF72CFEB5
:100E40000120FFF729FEAAE7FFF747FEA7E700000A
:100E500004000020881E0000034630B5074800212A
:100E60000478426806E000BF02EBC10005789D42AD
:100E700003D0491CA142F7DB002030BD88000020D0
:100E800000780221FFF744BE05494FF0FF320828E1
:100E900041F8202002D3084480F848207047000021
:100EA00018010020F0B54FF0FF3512B100230826DD
:100EB00001E008230C260C4C05E000BF54F8237019
:100EC0007F1C04D05B1CB342F8D32846F0BD261823
:100ED0005DB286F8305044F82310002AF5D1E118AD
:100EE00081F84800F1E70000180100200249084499
:100EF00090F93000704700001801002070B5084CD0
:100F0000050009D010342168002907D00868206046
:100F1000496828468847F6E70834F4E770BD0000C2
:100F200004010020054A012120B1012805D191705A
:100F3000FFF7E4BF51700020FAE77047040100207A
:100F400010B5D0E90234D1E90220D11AA04101D371
:100F5000012010BD002010BD70B500240F4D10E021
:100F6000686800EBC406307800F0AAFC71780129AB
:100F700001D0012100E000214140307800F024F947
:100F8000641C28788442EBDBD5E90401084303D0D4
:100F9000BDE8704000F042BF70BD00008800002036
:100FA0004FF480328A400168C1F848230068C0F8D5
:100FB000082370474FF4A07202EB810189B200F060
:100FC0006FB92DE9F04105460E464FF4A07000EBD5
:100FD000860081B228684FF48034B440984622F0ED
:100FE0007F47C0F808432868C0F84843286800F0E5
:100FF00025FB286800EB8600C0F840752868C0F81B
:101000004443B8F1000F02D02868C0F80443BDE89B
:10101000F0810068D0F804057047000010B54379EE
:101020001C4C44F823204279231D03EBC2021279A1
:101030000AB1082010BD02680C88C2F8084590F972
:1010400004208978002A4FEA411104DB02F1E022F2
:1010500082F8001405E002F00F0202F1E02282F8AB
:10106000141D90F904100122002909DB01F01F046E
:1010700002FA04F44909890001F1E021C1F80041B4
:10108000417903EBC1010A71417943F83100002035
:1010900010BD0000E800002090F90400002809DBE2
:1010A00000F01F02012191404009800000F1E02082
:1010B000C0F8001270470A46022100F07BB84FF4D6
:1010C000827100F0EDB8006801210160704700688E
:1010D0000121416070472DE9F05F07460C464FF44F
:1010E000A07000EB84001FFA80FA38684FF4803655
:1010F000A6409B4622F07F45C0F848633868C0F898
:1011000008633868D0F8048500EB8402D2F8409573
:10111000C2F840855146386800F090FAA9EB080003
:1011200020F07F40012806D1102000F00BFB514633
:10113000386800F083FA3868D0F80485C0F8446352
:10114000A5EB080121F07F413868012900EB8400FC
:1011500010D0C0F840553868D0F804156FF07F4CB7
:101160006A1A521E22F07F42ACEB0B03934217D354
:1011700062B118E06D1CC0F84055102000F0E2FA92
:101180003868D0F8040540450AD10CE000EB840033
:101190006D1CC0F840553868D0F80405884202D06C
:1011A0000D20BDE8F09F01223146384600F002F8DC
:1011B0000020F6E70368C3F84413002A02D0006851
:1011C000C0F80413704700002DE9F0470E4632497D
:1011D000804601EB5001C007097801D00F0901E0FA
:1011E00001F00F07424601200021FFF7BAF8DFF8AF
:1011F000AC9004460D46052F4BD2DFE807F00314F0
:1012000019262A00002E44D00121404600F04EFD50
:101210000020FFF7E6FB4846D0E904120C431543D3
:10122000C9E9044530E00EB1022114E0002112E0CA
:101230004EB10321404600F039FD4046BDE8F0477D
:10124000012100F0F7BD012105E0002E21D104218C
:1012500001E02EB103214046BDE8F04700F026BD75
:101260000021404600F022FD0021404600F0E2FD52
:101270000020FFF7B6FB4A46E043D2E904341840A9
:1012800024EA0501C9E90401BDE8F0470020FFF7A1
:10129000AABBBDE8F0870000740100208800002090
:1012A00010B5006842581AB100F0C8F9012010BD0D
:1012B000002010BD10B50B48FFF7ABFE094A083AF5
:1012C000D2E90434C018D2E9063244F10001C31A4D
:1012D00071EB020204D24FF08072801841F10001DC
:1012E00010BD0000C800002010B5C0B2FFF7B4FD6B
:1012F0000446007800F0E4FA01466078012801D045
:10130000012000E0002090EA010F08D00449D1E953
:101310000401084303D1BDE8104000F07FBD10BDBB
:10132000880000200268134602E08A4204D0126856
:10133000002AFAD10B600160704700000A4810B51E
:10134000807860B1002401E0022C06D02046FFF72F
:101350009BFB641C042CF7D310BD0324F6E7BDE807
:101360001040FFF7B1BB00000400002003480179E2
:10137000C90702D00078FFF78BBC7047040000203B
:101380000EB500F0A1F808B1FFF799FA002000F0BF
:10139000B9F8FFF7B5FA08B1FFF791FA1B49022037
:1013A000FFF72CFC08B1FFF78AFA0120FFF730FBAA
:1013B000174A07CA8DE807006846164900F006FB81
:1013C00008B1FFF77CFA144800F0C8FA08B1FFF73B
:1013D00076FA00F0EDFA0E4D0024143D4FF47A47F2
:1013E000C826691C38468847761EFAD12046FFF782
:1013F00053FB641C042CF3D3FFF7D2FB08B1FFF7B7
:101400005EFA40BF20BF20BFFBE70000A50B000035
:10141000741E0000551E00000000002010B531B100
:10142000B2FBF3F403FB14241CB1092010BD0E2001
:1014300010BD01600021416081608281C381084646
:1014400010BD70B50C460546FEF7E4FE002802D03C
:1014500021882868084470BD10B50A8849888A42E6
:1014600003D1FEF719FF012010BD002010BD70B59B
:101470000C460546FEF7F3FE002802D06188286876
:10148000084470BD10B50A8849888A4203D1FEF726
:10149000DDFE012010BD002010BDC20800F00703D2
:1014A0000120895C98400840704700F18040006846
:1014B000002800D00120704708B500F180400021CD
:1014C00001600068009008BD70B50C4C01252078C3
:1014D00008B185260BE00020A06060602061E0601C
:1014E000074800F0F9F8064600F0E0F8257000F033
:1014F000D5F800B1A570304670BD00000401002091
:10150000250F000070B5104D0446A87838B114B10D
:101510006168012088470020FFF763FA0CE0002093
:10152000FFF75FFA24B1084821461030FFF7FAFEB2
:10153000E86808B900F0E0F8E868401CE860BDE839
:1015400070400020FFF74FBA0401002070B541EA57
:101550004201DDE904564FF0A04441EA830141EA2B
:10156000052104EB800041EA0641C0F8001770BD78
:1015700070B541EA4201DDE904564FF0A04441EA6A
:10158000830141EA052104EB800041EA0641C0F8ED
:10159000001770BD4FF0A04202EB8000D0F800278A
:1015A00022F44032C0F80027D0F8002742EA014177
:1015B000C0F800177047000038B5094B44181B6885
:1015C00000936B4608E000BF53F82010D1F8205577
:1015D00020C2C1F82055401C8442F5D838BD000017
:1015E000B41E000042094FF0000100D1491E00F076
:1015F0001F00012282400A4201D0012070470020D2
:10160000704701224FF0A043824011B1C3F8082572
:101610007047C3F80C257047034908B508440021FA
:1016200001600068009008BD006000400249405819
:10163000012800D0002070470060004008B500225B
:1016400042504058009008BD70B50D4606464468AB
:1016500004E0B2682946904718B124682068002841
:10166000F7D120682860256070BD40680068704729
:1016700041680868002801D002680A607047024685
:101680000020526806E08B4203D1086810600120F8
:1016900070471A461368002BF5D17047024800685E
:1016A000002800D00120704700040140084800686D
:1016B000012110F0010F06D14FF0E020C02280F888
:1016C00000248430C167034901200860704700008E
:1016D00000E100E0180500400649024600200B79B1
:1016E0000BB1852070470A6001220A7100224A71FD
:1016F000704700007800002070B54FF48270FFF74B
:10170000DBFE02204107C1F804030B4B196841F0CE
:10171000807018600948026842F00104046044685F
:101720004FF40A554668361BAE42FBD3026019607F
:1017300003490120086070BDFCED00E0001000E0EE
:1017400008000040002802D0014980010847704786
:10175000E11E00002DE9F0410E46054600F07CF93F
:101760000028284619D0FFF7C1FB083800F0E6F939
:10177000032802D001280ED007E04FF0A040D0F897
:101780001005E84010F0010F05D003212846BDE800
:10179000F041FFF7FFBE0221F8E700F069F90028E9
:1017A00022D02846FFF7A2FB04464FF4807000EBDE
:1017B00084000E4F81B207EB8400D0F8102542F070
:1017C0000102C0F810250846FFF726FF002E0BD0B7
:1017D0002846FFF78BFB064951F82000002803D06C
:1017E0000120A040C7F80403BDE8F081006000407C
:1017F000180100202DE9FC41DFF8B880044608EB11
:101800000400002790F930001346C0170E46401C14
:1018100001D008274AE0B0781946C0F340022046BC
:10182000FFF740FB0546401C3FD0B078410717D476
:10183000C0070AD04FF0A04000EB8400D0F800179A
:1018400021F00201C0F8001707E00021737820465C
:1018500000910A460191FFF78BFE204600F0EEF85A
:10186000B078800718D51448317800EB8500D0F89F
:101870001025124B1A40C0F810254FF4F8524FF4BF
:10188000403302EA042203EA01410A43D0F810156A
:101890000A43C0F8102509E008EB0500327810F87B
:1018A000481F41EA8211017000E004273846BDE874
:1018B000FC8100001801002000600040FFE0FCFFF8
:1018C0004FF0A041D1F81015C14011F0010000D037
:1018D0000120704770B5194D95F8580008B10820DF
:1018E00070BD0024661E2046FFF77CFE10B128194B
:1018F00080F83060641CE4B2202CF4D3002420462D
:10190000FFF7C2FA641CE4B20C2CF8D300200D4996
:1019100068650B4CC02081F8000401264020891F17
:10192000C1F800014FF4BE70FFF776FEA004C4F8C2
:10193000040385F85860002070BD000018010020E5
:101940000060004006E000E0034890F858000028DE
:1019500000D00120704700001801002010B5044697
:101960000020FFF73EF80A4A517808290AD2217070
:10197000481C50700748026801238B401A430260DC
:10198000002400E004240020FFF72DF8204610BDBD
:101990008000002008050140044A034902EB800052
:1019A000C0F80016704700003546526E0000014036
:1019B00004490120C1F804030860034902200870AB
:1019C00070470000000001408000002070B5044610
:1019D00011484160017809B1082070BD01210170F2
:1019E0000E492078086060680025410CC0034FF460
:1019F0007A722B46FEF784FC084908390860207A81
:101A00000749400181F800044FF0E0214FF4803095
:101A1000C1F80001284670BD800000200C0501407F
:101A200010E000E003490860034801680029FCD089
:101A30007047000004E5014000E4014010B505498D
:101A4000C20800F00703885C01249C4020438854AE
:101A500010BD00006C0100200449084490F93000DA
:101A6000082801DB01207047002070471801002082
:101A70000449084490F93000082801D20120704739
:101A800000207047180100202DE9F05F2A4F06461C
:101A90004FF0A04A4FF0010B0024381990F9501074
:101AA000491C3CD090F85000314620F0C005284633
:101AB000FFF7F3FC20B3204600F040F881460AEB24
:101AC0008500D0F80007C0F30148B8F1020F18D024
:101AD00002212846FFF75EFD0BFA05F1CAF8201532
:101AE0002846FFF703FA57F820204AB14846B9F1D3
:101AF000030F11D0B8F1020F05D0B8F1030F07D0D2
:101B00000DE00321E5E74846B9F1010F04D006E0F6
:101B10004846B9F1020F02D1014628469047641C9D
:101B2000042CBAD3324601210020FFF745FD30686E
:101B30000028B1D1BDE8F09F1801002002490844F7
:101B400090F85000800970471801002070B50546D4
:101B5000FFF7B5FA134C40B1D4E904024FF080719D
:101B6000411842F10000C4E9041000212846FFF7A3
:101B700021FA30B1606820B1606800F0AFF8002051
:101B8000606001212846FFF715FA18B1FFF792FBB4
:101B9000C4E90601284600F0E5F82846BDE8704093
:101BA00000F038B8C00000202DE9F04100260E708A
:101BB000D0E902740D468046FFF77CFB381A0023FB
:101BC00064EB01011A461B1A8A4115DAB0F5350F8C
:101BD00004D3FEF77FFE0D49421800E03A464FF469
:101BE000960300210A48FFF776FA10B10D2807D0B6
:101BF0000AE00120BDE8F08100210548FFF7D0F997
:101C0000404600F06BF828700020F3E7FFFFB400B7
:101C1000C8000020F8B5204C064600251F48FFF7F5
:101C200024FD10B3D0E90210CA4372EA000224D0A6
:101C3000626882B16368D3E90223891A984127D286
:101C40006068D0E90210C94371EA000103D06168FD
:101C50001248FFF7F9FC00F023F807466946FFF742
:101C6000A3FFB0B1606858B10DE0606800280FD1E3
:101C70003046BDE8F840FFF72ABA00F011F8CDE78A
:101C80003046FFF720FA67609DF800000028C5D1B4
:101C9000F8BD6560C2E70000C0000020C81E00005B
:101CA0000148FFF7E5BC0000C81E0000C207002A7B
:101CB00003D000BF4FF00F0201E04FF0F00201D05F
:101CC0004FEA0111044B03EB5003187800EA0200BD
:101CD00040EA0100187070477401002070B5044696
:101CE0001E480025007860B35CB3FFF7E3FAD4E93F
:101CF0000223801A994125D30020FEF772FE206945
:101D000010B9681EC4E902000020FEF76CFED4E999
:101D1000051088470020FEF764FE226972B1D4E9FD
:101D20000210CB4373EA000308D0891840F1000089
:101D3000C4E902100020FEF756FE07E00020FEF77F
:101D400052FE08E0D04370EA030004D02146044864
:101D5000FFF77AFC0125284670BD0000C000002076
:101D6000C81E000038B51D4D69462868FFF77FFB87
:101D70001B4C30E0017821B101290ED0022922D17B
:101D800017E04168D1E90220D24372EA00021AD07A
:101D900012480830FFF758FC15E04168606881423E
:101DA00002D1002060600EE00C480830FFF767FCAD
:101DB00009E0FFF775FF20B14FF0FF31C0E90211D4
:101DC000F7E70120207069462868FFF745FB694660
:101DD0002868FFF74CFB0028CCD138BDC01E00009E
:101DE000C0000020F8B50B4C0D4606466946206839
:101DF000FFF727FB58B10670456069462068FFF77A
:101E000041FB10B10448FFF747F90020F8BD04205A
:101E1000F8BD0000C01E0000C80000200348806814
:101E20004108034800224068FEF798BD8800002062
:101E3000B81E000070B50C460546FFF70DF80028E7
:101E400007D04268002A04D021462846BDE87040E9
:101E5000104770BDFEF738BE000000000000000013
:101E60000338FDD87047000001000000D0070000D3
:101E70000600000001000000D0070000060000007E
:101E8000111213140D0E0F1018000020380000203E
:101E9000580000200D000300110B00000E0003008D
:101EA000110B00000F000300110B000010000300D5
:101EB000110B00000000005003000000A0000020F3
:101EC000840100200100060000000000E000002066
:101ED000410F0000000000000000000000000000B2
:101EE0000338FDD870470000081F000000000020E4
:101EF000F8000000F007000000200000F8000020BB
:101F0000F8200000000800000000000000000000B1
:101F100000000000000000000000000000000000C1
:101F20000000000000000000FFFFFFFFFFFFFFFFB9
:101F300000000000000000000000000000000000A1
:101F40000000000000000000FFFFFFFFFFFFFFFF99
:101F50000000000000000000000000000000000081
:101F60000000000000000000FFFFFFFFFFFFFFFF79
:101F70000000000000000000000000000000000061
:101F80000000000000000000000000000000000051
:101F90000000000000000000000000000000000041
:101FA0000000000000000000000000000000000031
:101FB000FFFFFFFFFFFFFFFF000000000000000029
:101FC0000000000000000000000000000000000011
:101FD000001001401100040000000000000000009B
:101FE00000000000000000000000000000000000F1
:101FF0000000000000000000000000000090D0037E
:0400000500000201F4
:00000001FF
