:020000040000FA
:10000000D8330020F5040000FD04000015030000B3
:1000100001050000030500000505000000000000C8
:1000200000000000000000000000000007050000C4
:1000300009050000000000000B0500000D05000090
:10004000A90F00000F050000A51100000F0500001A
:100050000F0500000F050000DD0C00000F0500007B
:100060000F0500000F0500000F0500000F05000040
:100070000F0500000F0500000F0500000F05000030
:100080000F050000B90F00000F0500000F0500006C
:100090000F0500000F0500000F0500000F05000010
:1000A0000F0500000F0500000F0500000F05000000
:1000B0000F0500000F050000000000000000000018
:1000C0000F0500000F0500000F0500000F050000E0
:1000D0000F0500000F0500000F050000FD110000D6
:1000E0000F0500000F0500000F05000000000000D4
:1000F000000000000F050000000000000F050000D8
:1001000000000000000000000000000000000000EF
:1001100000000000000000000000000000000000DF
:1001200000000000000000000000000000000000CF
:1001300000000000000000000000000000000000BF
:1001400000000000000000000000000000000000AF
:10015000000000000000000000000000000000009F
:10016000000000000000000000000000000000008F
:10017000000000000000000000000000000000007F
:10018000000000000000000000000000000000006F
:10019000000000000000000000000000000000005F
:1001A000000000000000000000000000000000004F
:1001B000000000000000000000000000000000003F
:1001C000000000000000000000000000000000002F
:1001D000000000000000000000000000000000001F
:1001E000000000000000000000000000000000000F
:1001F00000000000000000000000000000000000FF
:10020000DFF80CD000F096FB00480047AD7200000C
:10021000D833002030B4044654E8000F0D4644E8BB
:100220000053002BF8D1156030BC704730B4044641
:1002300054E8000F40EA010544E80053002BF7D1D1
:10024000156030BC704730B4044654E8000F00EA33
:10025000010544E80053002BF7D1156030BC70470E
:1002600030B4044654E8000F80EA010544E8005326
:10027000002BF7D1156030BC704730B4044654E809
:10028000000F00EB010544E80053002BF7D1156087
:1002900030BC704730B4044654E8000FA0EB0105B1
:1002A00044E80053002BF7D1156030BC704770B4A0
:1002B00004464FF0000054E8006F0D68AE4207BFDF
:1002C00044E80023012044E800630E60002B1CBFBB
:1002D0000020F0E770BC704730B4044654E8000FCB
:1002E00088422CBF451A054644E80053002BF5D13F
:1002F000156030BC7047000000B583B002900091DB
:10030000019244F2010071466A4601F051F803B0CF
:1003100000BD0000094B1EF0040F1CBFEFF3098065
:100320001847EFF308800649064A884201D89042F0
:1003300002D88D464FF0000018470000810D0000E4
:10034000D8330020D813002030B450E8012F93B2E6
:10035000C48923448489A34228BF1B1B0489A34268
:1003600002BFBFF32F8F002007E0C3EA020340E87B
:100370000134002CE9D14FF001000A6030BC704715
:1003800050E8012FC2EA024240E801210029F7D1DA
:10039000704730B450E8022F1FFAA2F3C488A3427A
:1003A00002BFBFF32F8F00200DE0C489234484894E
:1003B000A34228BF1B1BC2EA034340E80234002CBF
:1003C000E8D14FF001000A6030BC704750E8022FBE
:1003D000C2EA224240E802210029F7D170470346D1
:1003E00053E8022FD988B2EB324F4FF0000017BF0D
:1003F00092B241EA014142EA014104E05A68B2EB9B
:10040000324F08BF012043E80212002AE8D17047AA
:1004100030B4044654E8000F0D4644E80053002B66
:10042000F8D1156030BC704730B4044654E8000F72
:1004300040EA010544E80053002BF7D1156030BCB9
:10044000704730B4044654E8000F00EA010544E860
:100450000053002BF7D1156030BC704730B4044610
:1004600054E8000F80EA010544E80053002BF7D15F
:10047000156030BC704730B4044654E8000F00EB00
:10048000010544E80053002BF7D1156030BC7047DC
:1004900030B4044654E8000FA0EB010544E80053D3
:1004A000002BF7D1156030BC704770B404464FF094
:1004B000000054E8006F0D68AE4207BF44E8002317
:1004C000012044E800630E60002B1CBF0020F0E711
:1004D00070BC704730B4044654E8000F88422CBF0B
:1004E000451A054644E80053002BF5D1156030BC91
:1004F000704700000648804706480047FEE7FEE7D1
:10050000FEE7FEE7FEE7FEE7FEE7FEE7FEE7FEE7C3
:10051000C90F0000010200002DE9F05F0546002030
:1005200092469B4688460646814640241BE0284664
:1005300041464746224600F0ABF953465A46C01A98
:10054000914110D311461846224600F016F82D1A94
:1005500067EB01084F4622460120002100F00DF80C
:1005600017EB00094E41201EA4F10104DFDC4846D0
:1005700031462A464346BDE8F09F202A04DB203A54
:1005800000FA02F1002070479140C2F1200320FAE6
:1005900003F3194390407047004870471CF5000072
:1005A00010B50446FFF7F8FF0068005D00F0010099
:1005B00010BD2DE9FE43994615468846074601AC15
:1005C000022942D3002D40D000200290A8F1010062
:1005D0004FF0FF36009022E000FB057201FB057032
:1005E00011464A469047002805DC54F8260030445E
:1005F00044F8260013E060682A4600FB057154F8B1
:10060000040C00FB057007E00B7890F800C001F8BF
:1006100001CB00F8013B521E002AF5D1764254F876
:10062000040C61688842D7DC4B462A463846FFF7FF
:10063000C0FF54F8040C4B46A8EB0001401C00FB23
:1006400005702A46491EFFF7B4FFBDE8FE8310B5CA
:10065000431A934209D28318881803E010F8011D49
:1006600003F8011D521EF9D210BD40EA01039B0799
:1006700003D009E008C9121F08C0042AFAD203E017
:1006800011F8013B00F8013B521EF9D210BDD2B265
:1006900001E000F8012B491EFBD270470022F6E76B
:1006A00010B513460A4604461946FFF7F0FF2046E8
:1006B00010BD421C10F8011B0029FBD1801A7047A5
:1006C00010B5002200E0521C835C8C5CA34201D177
:1006D000002BF8D1D8B2E1B2401A10BD034611F890
:1006E000012B00F8012B002AF9D11846704730B5CC
:1006F00005460020034600E05B1C934205D2EC5CFB
:10070000C85C201A01D1002CF6D130BD0FB400B561
:100710008DB010A909900B9000914FF0FF300A9016
:1007200000200C9005480690054807906A4609A8E5
:100730000F9900F0D1F80DB05DF814FBF50800003A
:10074000130900002DE9FF5F1D464FF0FF3BD5E97F
:10075000014691465F464FF00008A9697F1C019849
:100760008847296A824688470028F6D1BAF1FF3FB8
:100770000CD024F4C064002E19DD600614D5BAF143
:100780002B0F09D0BAF12D0F0ED103E0584604B05B
:10079000BDE8F09F44F48064A9697F1C01988847F4
:1007A000761E8246002E02DDBAF1300F03D0B9F179
:1007B000000F26D032E0A969761E44F400747F1C35
:1007C000019888478246002E05DDBAF1780F06D0E1
:1007D000BAF1580F03D0B9F1000F10D01EE0B9F1F3
:1007E000000F02D0B9F1100F18D1A969761E24F4B8
:1007F00000747F1C019888478246102002E0082080
:1008000000E00A20814609E008FB0908A969761E74
:1008100044F400747F1C019888478246002E05DD51
:100820004946504600F044F80028EDDAE96901989D
:100830008847A00502D46FF00100A8E7E00725D1A2
:10084000600613D5600502D5C8F1000000E04046FF
:1008500029680A1D2A600968220501D5087015E07B
:10086000220701D5088011E008600FE02868011D0B
:1008700029600068210502D580F8008006E0210784
:1008800002D5A0F8008001E0C0F8008038467EE77D
:10089000202A04DB203A21FA02F00021704721FAD5
:1008A00002F3D040C2F1200291400843194670473C
:1008B0003A2800D2303820F02002412A01D3A2F198
:1008C0003700884201D34FF0FF307047026811446F
:1008D0001378016018467047D1600449516104499A
:1008E000116200211161114600F036B8CD080000F8
:1008F000A1050000426842B1016811F8013B23B133
:10090000521EC0E90012184670470121C160881EBE
:10091000704742685AB1C368016843B983688B4223
:1009200005D0491E521CC0E90012002070474FF04C
:10093000FF307047064C074D06E0E06840F00103C9
:1009400094E8070098471034AC42F6D3FFF75CFCFC
:10095000C0090100E00901002DE9F34F8BB04FF011
:10096000000801F10C000C464FF0010B46460DF15A
:10097000080A01906269012101989047051E2DD057
:10098000252D2CD0216A8847C0B1626901210198C8
:100990009047216A88470028F7D1411E6269019873
:1009A000904700E0761CA1690B988847216A884728
:1009B0000028F7D1E1690B988847DBE7A1690B981C
:1009C00088470746A84201D1761CD3E7E1690B9816
:1009D00088477F1C02D1B8F1000F6FD046E1002795
:1009E00062693D463946019890472A2804D16269D8
:1009F0000121019890470125DFF884926269012165
:100A000001989047A0F130010A290AD24F45E5DC50
:100A100007EB870100EB4107303FDFD445F01005BD
:100A2000ECE7E90601D46FF000476C280AD04C28A7
:100A300014D0682815D06A280DD074281CD07A28C4
:100A40001AD01DE062690121019890476C2802D0FC
:100A500045F0040514E045F002050DE045F02005E1
:100A60000AE06269012101989047682802D045F0A8
:100A7000080505E045F40065626901210198904789
:100A8000C4E9015765283DD019DC58287AD00CDC20
:100A9000452837D004DC252826D0412831D131E043
:100AA00046282FD047282CD12CE05B2877D061280E
:100AB00028D063287CD0642823D15AE0D0E06F2866
:100AC00048D008DC66281DD067281BD0692821D0B3
:100AD0006E2816D127E0702845D0732868D0752875
:100AE00047D078280DD14DE0A1690B98884705467D
:100AF00025283FF469AFE1690B9888476D1C3FF4E6
:100B00006AAFB3E023466A466FF001000B99AFF37A
:100B100000809EE045F040006060A80723464FF04B
:100B2000000236D43EE0E8077FF447AF2068011D9D
:100B300021600068290501D506701BE7290701D54A
:100B4000068017E7A90703D5F117C0E9006111E78F
:100B500006600FE745F040006060A80723464FF0AD
:100B6000080216D41EE040F60E0125EA010060607E
:100B700016E045F040006060A80723464FF00A02E7
:100B800007D40FE045F040006060A80708D5234671
:100B900010226FF001000B99AFF3008059E007E0DD
:100BA000234610226FF001000B99FFF7CBFD50E0B8
:100BB0004FF000094F464B46632802D05B2806D011
:100BC00040E0E80601D40120A06001273AE0626914
:100BD0000121019890475E2805D14FF00109626913
:100BE000494601989047216939B900210A46534680
:100BF00043F82120491C0829FADBB0B3216969B9FF
:100C0000C11700EBD16253110AEB830122F01F02DE
:100C1000821A01200B68904003430B606269012136
:100C2000019890475D28E8D1B9F1000F09D0002064
:100C3000514651F82020D24341F82020401C08287A
:100C4000F7DB02AB224600976FF001000B99AFF380
:100C5000008000280CDA401C08D1BBF1000F05D041
:100C60004FF0FF300DB0BDE8F08FFFE74046F9E7E9
:100C7000E90701D108F1010806444FF0000B79E6BD
:100C8000CCCCCC0C70B58C1810F8015B15F00703B8
:100C900001D110F8013B2A1106D110F8012B03E015
:100CA00010F8016B01F8016B5B1EF9D12B0705D41D
:100CB0000023521E0DD401F8013BFAE710F8013B66
:100CC000CB1A921C03E013F8015B01F8015B521E82
:100CD000F9D5A142D8D3002070BD00002DE9FC4118
:100CE0000025DFF8948000954FF4807601242F468C
:100CF0000195304608F05CFC38B1D8F80403204276
:100D000003D0304608F04AFC2543361D64007F1CA2
:100D1000B6B2082FEDD34FF4BE74204608F048FC5D
:100D200048B1204608F03AFC45F000456A460221E9
:100D3000002008F0E3FA15F0FF0F16D0012600247A
:100D40002E420ED008EB8401D1F81005D1F8101511
:100D5000C0F30520094AC1F3014152F8242002B131
:100D600090477600641C082CEAD3002D02DA68460E
:100D70000CF002F9BDE8FC8100600040880800200A
:100D80001CB5824608F0BAFF08F03EFD0028FBD1F2
:100D900039485FEA0A05076839483A49374EA0EBF7
:100DA00001004FEAD0004FF0010808EB00447088C2
:100DB0001ED0002821D0204633A1AA6908F062FE87
:100DC0007088002819D0D5E90201CDE90001D5E9E4
:100DD0000023204632A108F06DFE708868B1E869F2
:100DE0000090D5E9042320463BA108F05AFE04E018
:100DF00018B1204642A108F041FE1F48001D0068BE
:100E0000800705D5708818B120464A4908F036FE9B
:100E1000DFF82491002500BF08FA05F0384208D019
:100E200059F825202AB1708818B1204643A108F04E
:100E300029FE6D1C1A2DEFD3380608D5708830B105
:100E40000D480C30026820463FA108F01BFE380414
:100E500008D5708830B1084810300268204642A199
:100E600008F010FE0448C8300068C00700D000BE7B
:100E7000504600F087F8000028ED00E0D403002081
:100E8000F00A0100400A0100484152442046415501
:100E90004C54206174203078253038580000000010
:100EA000202052303A2020307825303858202052E7
:100EB000313A2020307825303858202052323A20DC
:100EC00020307825303858202052333A202030788E
:100ED000253038580000000020205231323A2030AE
:100EE000782530385820204C523A20203078253050
:100EF000385820205053523A203078253038580046
:100F0000537461636B2076696F6C6174696F6E3ABC
:100F100020737461636B20706F696E746572206FEB
:100F200075747369646520737461636B20617265A5
:100F3000612E0000ACF70000500200204361757381
:100F4000653A2025732E00004D656D4D616E616719
:100F500065204661756C7420416464726573733AF0
:100F60002030782530385800427573204661756C02
:100F70007420416464726573733A20307825303888
:100F800058000000BFF34F8F05480168054A01F47F
:100F9000E06111430160BFF34F8F00BFFDE7000028
:100FA0000CED00E00400FA0510B50AF053FABDE8B4
:100FB000104009F0FDBF000002490248091F0968FE
:100FC000006808474802002030B54FF080520023E7
:100FD000D2E94C10082906D1CC06C4F80C31C4F86B
:100FE0001031624C2360082955D1614B1B68614C5C
:100FF00023605F4B1B1D1B68241D23605C4B083363
:101000001B68241D23605A4B0C331B68241D23606E
:10101000574B10331B68241D2360554B14331B683A
:10102000241D2360524B18331B68524C203423601C
:101030004F4B1C331B68241D23604D4B20331B6812
:10104000241D23604A4B24331B68241D2360484B16
:1010500028331B68241D2360454B2C331B68241D3B
:101060002360434B30331B68424C40342360404B79
:1010700034331B68241D23603D4B38331B68241D0B
:1010800023603B4B3C331B68241D2360384B4033AB
:101090001B68241D2360082904D1030002D1374CAA
:1010A000354B2360082904D1030002D1344CFB23C3
:1010B0002360082908D1030006D1324B92F8585218
:1010C0001C6865F303041C60082904D1030002D1E5
:1010D0002D4C8B012360082906D12C480168C907D3
:1010E00002D06FF0010101602948016841F47001EC
:1010F0000160BFF34F8FBFF36F8FD2E94C104FF0F9
:101100001022082906D1032804D9D2F80802174969
:1011100020310860D2F80002002803DBD2F8040274
:1011200000281FDA01200BF063FE1221C2F8001222
:1011300018480368002BFCD0C2F80412016800298B
:10114000FCD000200BF054FEBFF34F8F10487C38CA
:101150000168114A01F4E06111430160BFF34F8F50
:1011600000BFFDE70E490D48086030BD380500405E
:101170000404001020C50040488103008C56004044
:1011800018F50040E40E0040409602400004004084
:1011900088ED00E000E401400400FA050090D0036F
:1011A0005803002010B5054C206818B904A12B2065
:1011B00001F060FF2068BDE81040004748010020B2
:1011C0002E2E5C2E2E5C2E2E5C2E2E5C2E2E5C2E59
:1011D0002E5C6D6F64756C65735C6E7266785C64B2
:1011E0007269766572735C7372635C7072735C6E45
:1011F0007266785F7072732E630000002DE9F04113
:101200001A48D0F80453002601240FE095FAA5F0FF
:10121000B0FA80F7B80000F5807009F0B9FD10B1A0
:1012200004FA07F0064304FA07F08543002DEDD1D8
:10123000C6F3C05726F40005DFF834800AE000BF8B
:1012400095FAA5F0B0FA80F658F82600804704FA1F
:1012500006F08543002DF3D10DF088F9002F03D05F
:10126000BDE8F04104F0BABABDE8F0810070024078
:1012700074ED0000C11700EBD161074B4A1153F820
:10128000222021F01F01411A01208840024201D092
:10129000012070470020704700E100E002E008C82C
:1012A000121F08C1002AFAD170477047002001E0E0
:1012B00001C1121F002AFBD17047022001F06EBF4E
:1012C00070B50B4D686820B90AA140F20F1001F00B
:1012D000D1FE002406E06868012110F8340009F00E
:1012E000CFFE641C28788442F5D3002070BD000036
:1012F000600100202E2E5C2E2E5C2E2E5C2E2E5C8D
:101300002E2E5C2E2E5C636F6D706F6E656E747327
:101310005C6C69627261726965735C627574746F2A
:101320006E5C6170705F627574746F6E2E63000026
:10133000F8B516460C4605460A2A01D20720F8BD24
:101340000AF010F818B909F0D1FF0028F7D1134FAF
:10135000202113487D603C70BE60FFF79FF900209C
:10136000C7E904000F4E0DE005EBC40031680091A1
:1013700081788DF8011000780B4A694609F0FCFE6F
:101380000028DCD1641EE4B2EED2BDE8F840054886
:101390000021064A001D00F0D7B8000060010020BF
:1013A0007C0B002010EE00007D5C0000D55000009A
:1013B0002DE9FE4314460F46804672B608F09EFCA7
:1013C00008F022FA0028FBD12448254A6FF4804116
:1013D000A0EB0200204E4FEAD0004FF0010218EBC4
:1013E000010102EB00451ED07088012912D020B106
:1013F00028463A461BA108F045FB20480068C00774
:1014000000D000BE224603B039464046BDE8F04356
:1014100000F062B80028F0D0D4E90032284618A1C4
:1014200008F037FBE9E770880028E6D0A06809F0EB
:10143000BBFA0346D4E90001CDE900100297284623
:1014400016A1A26808F040FB70880028D5D0284675
:101450001CA108F013FBD0E7E8030020180B0100E3
:10146000400A0100554E4B4E4F574E204641554CB9
:10147000542061742030782530385800F0ED00E0B9
:10148000415353455254494F4E204641494C4544DF
:101490002061742025733A25750000004552524F93
:1014A00052202575205B25735D2061742025733AD9
:1014B00025750D0A50432061743A20307825303864
:1014C00078000000456E64206F66206572726F724E
:1014D000207265706F72740008B501238DF80030BA
:1014E0009DF80030144B186059609A606FF4804189
:1014F000401807D001280FD1DA60D86800689861D9
:10150000D86807E01A61186980685861186900682E
:10151000986118694068D861186858689868D868F0
:10152000186958699869D86972B600BF9DF80000BB
:101530000028FBD162B608BD9C0B0020014803F0D7
:1015400055BE0000A001002070B514460E460500EF
:1015500004D10DA14FF40D7001F08CFD5CB1286831
:101560004FF0FF32012E4461C0E902220AD000216F
:101570000161002070BD04A140F2352001F07AFD28
:10158000072070BD0121F3E72E2E5C2E2E5C2E2E3F
:101590005C2E2E5C2E2E5C2E2E5C636F6D706F6E3B
:1015A000656E74735C6C69627261726965735C7498
:1015B000696D65725C6170705F74696D6572322E01
:1015C0006300000038B51148082358224168009193
:1015D0000F49006806F0D6F8002815D10D4A694673
:1015E0000D4803F007FE04000ED101210A4803F064
:1015F000FAFE0123094A1946074803F0ADFD0649E2
:10160000012008390870204638BD000018EE00009F
:10161000BC0B002079D10000A0010020FFFF7F005B
:1016200070B516460D46040004D113A140F24520C2
:1016300001F020FD002001F039FCD4E90201C04393
:1016400070EA010004D0002001F05EFC002070BDB3
:1016500004F0FAFA401941F10001C4E90201002046
:1016600001F052FCA661206900B125612146BDE868
:10167000704000200CF0FCBB2E2E5C2E2E5C2E2E1B
:101680005C2E2E5C2E2E5C2E2E5C636F6D706F6E4A
:10169000656E74735C6C69627261726965735C74A7
:1016A000696D65725C6170705F74696D6572322E10
:1016B0006300000010B5040004D110A140F26D20B9
:1016C00001F0D8FC002001F0F1FBD4E90201C04395
:1016D00070EA01000CD04FF0FF30C4E90200002096
:1016E00001F012FC2146BDE8104001200CF0C0BB07
:1016F000002001F009FC002010BD00002E2E5C2E01
:101700002E5C2E2E5C2E2E5C2E2E5C2E2E5C636F9D
:101710006D706F6E656E74735C6C69627261726914
:1017200065735C74696D65725C6170705F74696D1E
:101730006572322E6300000070B5054606480469E4
:1017400007E02946204602F027FA204600F0BEF9BD
:101750000446002CF5D170BDE401002070B50A48A4
:1017600005690EE02E7A002405E02146284601F0A6
:101770001BF9641CE4B2B442F7D3284600F0A6F982
:101780000546002DEED170BDE40100202DE9F041A9
:101790000E4840F24477056914E02E7A00240BE0ED
:1017A00000222146284601F063F918B108A1384605
:1017B00001F060FC641CE4B2B442F1D3284600F0AE
:1017C00085F90546002DE8D1BDE8F081E40100204F
:1017D0002E2E5C2E2E5C2E2E5C2E2E5C2E2E5C2E43
:1017E0002E5C636F6D706F6E656E74735C6C696296
:1017F0007261726965735C757362645C6170705F5D
:10180000757362642E63000070B5064609480625AC
:1018100004690AE03146204602F0BEF90546062872
:1018200005D1204600F052F90446002CF2D128469A
:1018300070BD0000E4010020F8B5040004D138A117
:1018400040F2445001F016FC606820B934A140F227
:10185000455001F00FFC6068006820B930A140F2EB
:10186000465001F007FC2068006820B12CA140F22E
:10187000475001F0FFFB0BF0E1F810B90BF0E8F86E
:1018800020B927A140F24B5001F0F4FB00250FE0F6
:10189000002705E0007800F09BFC08B11120F8BD9E
:1018A0003946781CC7B2304600F0C0F80028F1D1A4
:1018B0002946681CC5B2204600F0E0F80600E7D1D2
:1018C00000250DE0002703E00078214600F086FCAB
:1018D0003946781CC7B2304600F0A8F80028F3D18A
:1018E0002946681CC5B2204600F0C8F80600E9D1B8
:1018F000194D40F2715607E0A04203D108A13046CD
:1019000001F0B8FB2868056828680028F4D113485E
:101910002C60694680690090204602F03DF9F8BDD0
:101920002E2E5C2E2E5C2E2E5C2E2E5C2E2E5C2EF1
:101930002E5C636F6D706F6E656E74735C6C696244
:101940007261726965735C757362645C6170705F0B
:10195000757362642E630000F40100202CEE000019
:101960002DE9F04F87B04FF000081D469346894699
:101970000446DDF840A04646CDF80C8000E0761C19
:101980006068012300224768214603A8B847002861
:10199000F5D140468DF800800027B84601903BE025
:1019A000606801236A46D0F804C0214601A8E047D8
:1019B0006068012305AAD0F804C0214601A8E047C9
:1019C0009DF8141049451AD1D84514D19DF800004E
:1019D000CAF8000005F8010B6A1C85F800906068E1
:1019E0009DF800302146456801A89B1EA8470020AD
:1019F00007B0BDE8F08F08F1010000F0FF08606853
:101A00009DF800300022D0F804C0214601A89B1E9A
:101A1000E0479DF800000744B742C1D30520E7E73F
:101A20000148006970470000E401002070B50D46D0
:101A3000040004D1064940F21D1001F01BFB607840
:101A4000A84201D8002070BDA0782044284470BD71
:101A500064F5000070B50D46040004D1064940F25B
:101A60001D1001F007FB6078A84201D8002070BD6E
:101A7000A0782044284470BD64F5000070B50D4680
:101A8000040003D10649EA2001F0F4FA207AA842C2
:101A900001D8002070BD05EB45000934204470BD1D
:101AA00064F5000070B50D46040003D10649EA2034
:101AB00001F0E0FA207AA84201D8002070BD05EBC1
:101AC00045000934204470BD64F5000010B50400E1
:101AD00004D1044940F21D2001F0CCFA20680068CE
:101AE00010BD00003023000010B5040004D104A193
:101AF00040F21D2001F0BEFA2068006810BD000011
:101B00002E2E5C2E2E5C2E2E5C2E2E5C2E2E5C2E0F
:101B10002E5C636F6D706F6E656E74735C6C696262
:101B20007261726965735C757362645C6170705F29
:101B3000757362642E68000002484078002800D067
:101B400001207047E401002010B520B909A14FF42D
:101B5000C96001F08FFA15494878401C10F0FF0069
:101B6000487004D103A140F24B6001F083FA0020D9
:101B700010BD00002E2E5C2E2E5C2E2E5C2E2E5CB8
:101B80002E2E5C2E2E5C636F6D706F6E656E74739F
:101B90005C6C69627261726965735C757362645CC6
:101BA0006170705F757362642E630000E401002051
:101BB00010B520B908A140F2536001F05BFA144C53
:101BC000607820B904A140F2556001F053FA6078C2
:101BD000401E6070002010BD2E2E5C2E2E5C2E2E1E
:101BE0005C2E2E5C2E2E5C2E2E5C636F6D706F6EE5
:101BF000656E74735C6C69627261726965735C7541
:101C00007362645C6170705F757362642E63000060
:101C1000E401002070B5040004D125A140F2D950A0
:101C200001F028FA606820B921A140F2DA5001F0F1
:101C300021FA6068006820B91DA140F2DB5001F074
:101C400019FA0AF0FBFE10B90AF002FF20B918A138
:101C500040F2DD5001F00EFA234D40F2E35608E069
:101C6000A04203D112A1304601F004FA28680568A9
:101C70002D1D28680028F3D12068406820B10CA1F0
:101C80004FF4BD6001F0F6F9174D40F2EE562D1FEE
:101C900008E0A04203D106A1304601F0EBF9286824
:101CA00005682D1D28680028F3D12C6070BD000048
:101CB0002E2E5C2E2E5C2E2E5C2E2E5C2E2E5C2E5E
:101CC0002E5C636F6D706F6E656E74735C6C6962B1
:101CD0007261726965735C757362645C6170705F78
:101CE000757362642E630000FC01002010B50400CF
:101CF00004D111A140F2F95001F0BCF90AF09EFEA6
:101D000010B90AF0A5FE20B90BA140F2FB5001F07A
:101D1000B1F917480BE0A14207D121684968016079
:101D2000206800214160084610BD0868001D016858
:101D30000029F0D1052010BD2E2E5C2E2E5C2E2EFB
:101D40005C2E2E5C2E2E5C2E2E5C636F6D706F6E83
:101D5000656E74735C6C69627261726965735C75DF
:101D60007362645C6170705F757362642E630000FF
:101D7000F801002010B500210A464FF40063441812
:101D8000227200EB8104491CC9B263610429F6D3B5
:101D900080F8292080F8282010BD10B5002000F020
:101DA000EFF9BDE81040802000F0EAB910B500203E
:101DB00000F0E8F9BDE81040802000F0E3B9000031
:101DC00070B5444E0D4602460978062430780B293A
:101DD00033D007DC07296ED2DFE801F06D0D0F115B
:101DE0006D2A52000C2930D00D2937D00E293ED053
:101DF000852960D116E0032017E000245BE0354818
:101E0000001D05F001FD30B1334801210160BFF331
:101E10006F8FBFF34F8F30780028EED12FA140F2A3
:101E20001C400FE0032846D104200CF0DDFA42E00C
:101E3000104600F095F804463DE00028DDD027A1CB
:101E40004FF4866001F016F9D7E7012804D023A1EA
:101E500040F2364001F00EF9002005E02E480068FF
:101E600010F0010F0AD002200CF0BEFAC5E70228DC
:101E700004D21AA140F24A4001F0FCF80120F3E735
:101E8000E878032817D0A87830B1802804D013A1AF
:101E90004FF48B6001F0EEF80E49E87808310A68DB
:101EA00032B100230B6049689047040005D000E080
:101EB0000E240AF015FE204670BD0CF08DFA28B1F4
:101EC000A8780028F7D10AF0E0FDF4E70AF0DAFD7F
:101ED000F1E70000080200205C7002402E2E5C2E0C
:101EE0002E5C2E2E5C2E2E5C2E2E5C2E2E5C636FB6
:101EF0006D706F6E656E74735C6C6962726172692D
:101F000065735C757362645C6170705F7573626445
:101F10005F636F72652E63003804004002494978A0
:101F2000C14001F00100704708020020024A01464A
:101F3000D2E9000210470000640D002070B50C4685
:101F400005460AF099FDA84201D0102070BD034853
:101F5000D4E90012C0E90212002070BD080200207E
:101F60007FB5054605208DF8000006240DF101001F
:101F70000AF08EFD0CF030FA2949002008609DF827
:101F8000010010F01F0006D001280FD0022826D033
:101F9000032833D106E0694628460BF04BFB044684
:101FA00006282AD16846FFF72FFC25E09DF805009A
:101FB00003A900F039FD050008D06A469DF80C1011
:101FC00000F0EEFC0446062802D016E0102415E0CE
:101FD0006A469DF80C1028460BF078FC0CE09DF842
:101FE0000500010705D0694600F080F80446062880
:101FF00003D168460BF0C0FB044624B10AF070FD23
:1020000004B0204670BD0CF0E7F930B10AF034FDA1
:102010000028F5D10AF039FDF2E70AF033FDEFE7C9
:1020200010020020FEB5C08814460E46A04201D220
:10203000054600E01546844207D280200AF09EF94A
:10204000B4FBF0F100FB114068B100200096CDE92F
:102050000150002000F02AFF6946802000F0F0F8CF
:10206000040002D006E00120F0E705498020FFF7D8
:1020700065FF0446002000F047FF2046FEBD00003B
:1020800074EE000008B14021016001487047000073
:10209000B80D002010B50AF0E3FC20B104A140F215
:1020A000AB3000F0E7FFBDE8104009F0C1BF000011
:1020B0002E2E5C2E2E5C2E2E5C2E2E5C2E2E5C2E5A
:1020C0002E5C636F6D706F6E656E74735C6C6962AD
:1020D0007261726965735C757362645C6170705F74
:1020E000757362642E63000009F0E0BF10B50C4602
:1020F000010600F00F02092A08D200F009F8006872
:1021000020B12146BDE8104001F046BD102010BDB1
:1021100010B5010600F00F0408D5092C04D309A15D
:102120004FF4B97000F0A6FF144808E0092C04D35E
:1021300004A14FF4BC7000F09DFF1048483000EB44
:10214000C40010BD2E2E5C2E2E5C2E2E5C2E2E5C1E
:102150002E2E5C2E2E5C636F6D706F6E656E7473C9
:102160005C6C69627261726965735C757362645CF0
:102170006170705F757362642E6300001C0D002037
:1021800009F0F8BF10B5044600F00F00082805D28A
:1021900020460AF01FF820460AF074F92046BDE8F0
:1021A00010400AF03BB8000070B50C4605460AF036
:1021B00085F818B105480078022801D0082070BDC4
:1021C00021462846BDE870400AF080B8E4010020AE
:1021D00010B5FFF79DFF006810BD000070B50D46FB
:1021E0000646FFF795FF0446056015B1686800686C
:1021F00008E00EB1802E04D103A14FF4CE7000F0A0
:1022000039FF0020606070BD2E2E5C2E2E5C2E2EBD
:102210005C2E2E5C2E2E5C2E2E5C636F6D706F6EAE
:10222000656E74735C6C69627261726965735C750A
:102230007362645C6170705F757362642E6300002A
:1022400070B50C4605460AF039F818B10548007813
:10225000022801D0082070BD21462846BDE8704004
:102260000AF0A4B9E4010020F8B5044600782D4D29
:1022700005280BD12C4800682B49C0B2091F0968FA
:1022800011F0FF0F04D1052802D1284C207818B393
:10229000264F6946243F386A05F087FA06001AD0AF
:1022A00020683060002000F001FE6888E968401A6C
:1022B000401CF0801B4800210C3005F0C4FAB080AF
:1022C000002000F021FE6946386A05F08FFA0146C9
:1022D00020460CF0F5FBF8BD40F25527AE690AE048
:1022E0002146304601F090FC1EB911A1384600F09D
:1022F000C1FE30684668002EF2D1002000F0D6FD05
:10230000E86808B960886880064801210C3005F04B
:1023100084FA002000F0F8FD012120460CF0D0FBEB
:10232000E868F8BDE40100208474024050EE00002B
:102330002E2E5C2E2E5C2E2E5C2E2E5C2E2E5C2ED7
:102340002E5C636F6D706F6E656E74735C6C69622A
:102350007261726965735C757362645C6170705FF1
:10236000757362642E68000070B58A4C054620695A
:1023700020B989A140F2FF3000F07CFE02F02EFD72
:10238000062804D284A140F2064000F073FE2878AB
:10239000092877D008DC092818D2DFE800F0749308
:1023A000C29CAFCBD017F30082282DD008DC0A28BE
:1023B000EFD00F28EDD0802841D0812806D10CE045
:1023C000832847D084284ED085287AD0BDE8704035
:1023D00071A14FF4A06000F04DBE7D48FFF7A6FD4F
:1023E0007B48FFF7A9F90D200CF078FBFFF7B6F951
:1023F000FFF7D3FC606910B97648007A00B101207C
:102400000AF072FB012088E0FFF7A8F90AF0B8FB98
:1024100000200BF0F1FB6E48401CFFF78DF96C4873
:10242000401CFFF783FD0E200CF058FB207800F0D5
:10243000EFFC002844D0BDE8704006F039BB20789E
:10244000052803D0062803D0072839D1022064E0EC
:10245000082062E02078032832D10AF0DDFB002852
:102460002ED0042059E02078032805D10AF0D4FBAF
:1024700010B104200BF0C0FB0AF090FC00281FD024
:1024800006204AE07FE02078032801D0082803D105
:102490004F48801CFFF768FF00200CF01FFB6469A9
:1024A00040F239260AE02946204601F075FB1CB9A6
:1024B0004949304600F0DEFD20684468002CF2D126
:1024C00070BD37E0FFF74AF9FFF770FC02200BF010
:1024D00093FB012006E02078082809D005200BF0A6
:1024E0008BFB03200CF0FAFA2846FFF71FFD4CE0A7
:1024F00002200BF081FB0AF039FAF2E703200CF01E
:10250000EDFA3348C01CFFF711FD3148C01CFFF73E
:1025100013F92078062899D10720BDE870400BF008
:102520006BBB03200BF068FB02200CF0D7FA2846A7
:10253000FFF702F92846BDE87040FFF7F7BCA8781E
:10254000FFF7E6FD0446006820B913A140F2DC4025
:1025500000F090FD606820B90FA140F2DD4000F06E
:1025600089FDD4E90002294690470028A8D0A87820
:102570000107A5D000F00F010829A1D2BDE87040E5
:1025800009F04EBF08200CF0A9FA2846BDE87040BB
:10259000FFF7D2B8E40100202E2E5C2E2E5C2E2EEA
:1025A0005C2E2E5C2E2E5C2E2E5C636F6D706F6E1B
:1025B000656E74735C6C69627261726965735C7577
:1025C0007362645C6170705F757362642E63000097
:1025D0003DEE0000AC0D002030230000FFF744BEAC
:1025E000F8B5214C00250095204EA0684FF40067F7
:1025F00028B9211D306A05F0EEF8A060C0B18188CD
:1026000069B1C188B94200D3C580C188ADF8021054
:10261000C188491CC1808188491E81801FE0FFF765
:10262000A3FE1149306A091D05F0CAF8A56019E03A
:10263000E068002817D0002000F038FC6088B8421D
:1026400000D365806088ADF80200401C60800648B9
:1026500001210C3005F008F9002000F055FC684617
:10266000FFF782FE0120F8BDE40100202CEE0000FF
:1026700010B520B104A140F2552000F0FBFCBDE8EC
:1026800010400F48FFF7F0BD2E2E5C2E2E5C2E2E34
:102690005C2E2E5C2E2E5C2E2E5C636F6D706F6E2A
:1026A000656E74735C6C69627261726965735C7586
:1026B0007362645C6170705F757362642E630000A6
:1026C0002CEE000010B50021FFF7ECF90021FFF718
:1026D000C1F9007810BD00002DE9F04780460024C4
:1026E00018780E461F461546A2464FF001090F28DE
:1026F0006AD2DFE800F0082B7F8169353A696969A1
:1027000069899CAEB1007988104603F017FF014635
:10271000A0F57F40FF3822D0002053462A1892F8B7
:10272000244034B105EB800C7C88CCF8144082F84E
:10273000243095F829201AB1401CC0B20428EDD3EA
:10274000B069C9B2C2694046904751E003211046C2
:1027500000F012F985F80C902846FFF70BFB75E0A6
:10276000314640460BF052F842E0B8784446000645
:1027700024D5D87820B90322314640460CF0A8F978
:10278000686828B10321284600F0F6F800245DE0CF
:1027900000204FF40062494605EB80035B699342D9
:1027A00002D12B1883F8241095F829301BB1401C56
:1027B000C0B20428F0D3B069816817E0B069C0687E
:1027C00010B1D87810B106E006243FE0022231466D
:1027D00040460CF07DF930694068402804D9204912
:1027E0004FF4E87000F046FCB069C16820468847A5
:1027F00004462BE002212DE00221104600F0BCF837
:10280000B06981684046F2E74046FFF703FA0400EA
:102810001CD14046FFF798F9040017D12846FFF76E
:10282000A9FA00214FEA050000F0B0F80EE040469A
:10283000FFF75CFA040009D14046FFF7B9F904003C
:1028400004D100214FEA050000F096F82046BDE8CB
:10285000F08701211046E7E701211046F4E7000068
:10286000A8F50000426A52680A60406A0068704732
:10287000FEB515460F46044603F07EFA064620468E
:10288000FFF720FF04460321304600F07AF80020CD
:102890000097CDE9015000F009FB69462046FFF79B
:1028A000CFFC040003D10321304600F074F800206F
:1028B00000F02AFB2046FEBDC26952680A60C0696A
:1028C000006870472DE9FC4117460D46064603F0A7
:1028D00053FA0446706BCDE90057694607F07EFC59
:1028E00010B11120BDE8FC81206800256FEA90003E
:1028F00040F30000401C02D000F0A4FA0FE0206872
:102900006FEAD00040F30000401C90F0010F06D0A9
:1029100094F8280018B9304603F0D2FD0546284641
:10292000E0E7026A52680A60006A006870470000C7
:1029300010B5040004D1034940F2532000F09AFB83
:10294000606910BDA8F5000010B5040004D103496A
:1029500040F24D2000F08EFBE06810BDA8F50000AD
:1029600010B5040004D1034940F2F51000F082FBD9
:10297000206910BD48F6000001228A40D14304F0CE
:1029800052BF01228A40D14304F04DBF012202FA16
:1029900001F104F05DBF012202FA01F104F058BF19
:1029A000114601F0F9B8000070B5044640680D46C4
:1029B000C2680AB120469047207AA84204D20CA1EE
:1029C00040F2F22000F056FB29462046FFF756F869
:1029D00005464678002408E021462846FFF726F8F9
:1029E000007809F0C7FB641CE4B2B442F4D370BDB4
:1029F0002E2E5C2E2E5C2E2E5C2E2E5C2E2E5C2E11
:102A00002E5C636F6D706F6E656E74735C6C696263
:102A10007261726965735C757362645C6170705F2A
:102A2000757362642E6300002DE9F04180460F4803
:102A30000E46056916E02F7A00240DE0214628464F
:102A4000FFF71CF80178414504D106B134702846DF
:102A5000BDE8F081641CE4B2BC42EFD32846FFF726
:102A600035F80546002DE6D10020F1E7E40100200D
:102A700070B50446406815460E4683681BB1204673
:102A80009847062809D1207AB04204D20E4940F274
:102A9000D32000F0EFFA0DB1072070BD314620467B
:102AA000FEF7ECFF05464678002408E0214628465C
:102AB000FEF7BCFF0078FFF765FB641CE4B2B4428C
:102AC000F4D3002070BD0000F02900000346002070
:102AD0005A681269002A01D0184610477047000052
:102AE0002DE9F843054606F095F820B930A140F2EB
:102AF0000B3000F0BFFA3D4C08234FF484723A4982
:102B0000206A04F03FFE10B10320BDE8F883384886
:102B100009F032FF0028F8D1364908700861486191
:102B200048213548FDF7BAFD334848214830FDF7C4
:102B3000B5FD3148783095B195E80E00183080E841
:102B40000E00002006F0ECF830B1852804D018A261
:102B500040F23931FDF7D0FB284D002611E004F199
:102B600038010EC9EAE7002703E000782946FFF79D
:102B700035FB3946781CC7B24046FEF757FF0028A0
:102B8000F3D13146701CC6B22846FEF777FF5FEAE4
:102B90000008E8D1606800906946284600F0FCFF14
:102BA000040003D00AF0CEF82046AEE70020ACE7E0
:102BB0002E2E5C2E2E5C2E2E5C2E2E5C2E2E5C2E4F
:102BC0002E5C636F6D706F6E656E74735C6C6962A2
:102BD0007261726965735C757362645C6170705F69
:102BE000757362642E630000140C00202CEE00004C
:102BF000DD250000E40100201C0D0020B4EE0000E3
:102C000040B1012808D0022809D007A14FF40F7065
:102C100000F030BA124804E01148001D01E01048ED
:102C20000830FFF721BB00002E2E5C2E2E5C2E2ECE
:102C30005C2E2E5C2E2E5C2E2E5C636F6D706F6E84
:102C4000656E74735C6C69627261726965735C75E0
:102C50007362645C6170705F757362642E63000000
:102C600054EE000010B509F0F3FE10B109F0E6FED5
:102C700008B1082010BD054806F066F820B104A28E
:102C80004FF46771FDF738FB002010BD60EE0000C7
:102C90002E2E5C2E2E5C2E2E5C2E2E5C2E2E5C2E6E
:102CA0002E5C636F6D706F6E656E74735C6C6962C1
:102CB0007261726965735C757362645C6170705F88
:102CC000757362642E6300002DE9F0410D461649CC
:102CD00001EB800757F82500017849B10020FFF784
:102CE000D1F957F8255006460024287848B911E054
:102CF000801CBDE8F0811F2C03D30C49D62000F0C6
:102D0000B9F9641CE4B215F8010B26F81400287810
:102D10000028F0D1022000EB4400C0B240F4407023
:102D200030803046E5E700002802002090F60000E1
:102D300010B509F083FE20B909A140F2B23000F0CD
:102D400099F915480168C1F3400121B1BDE810406F
:102D50001248FFF789BA016811F0010FF2D110BDD6
:102D60002E2E5C2E2E5C2E2E5C2E2E5C2E2E5C2E9D
:102D70002E5C636F6D706F6E656E74735C6C6962F0
:102D80007261726965735C757362645C6170705FB7
:102D9000757362642E6300003804004031EE000059
:102DA000034808B5806800906846FFF75DFA08BDE3
:102DB0002CEE000030B44FF0000180B10D4B00222A
:102DC00013F8124084420ED103EB4200407870B1F8
:102DD000094A02EB800252F8212042B100E00020B3
:102DE00030BCFFF771BF521CD2B2062AE8D330BC08
:102DF000002070476CEF000028020020034808B54F
:102E0000C06800906846FFF72FFA08BD2CEE00005E
:102E1000092808D2DFE800F00707050707050505C0
:102E200005000120704700207047092808D2DFE81C
:102E300000F007070507070707070500012070478F
:102E40000020704708B5FEF777FE20B908A140F2D0
:102E5000ED3000F00FF90120FFF760F8002806D0F0
:102E60001148006900906846FFF7FEF9012008BD8F
:102E70002E2E5C2E2E5C2E2E5C2E2E5C2E2E5C2E8C
:102E80002E5C636F6D706F6E656E74735C6C6962DF
:102E90007261726965735C757362645C6170705FA6
:102EA000757362642E6300002CEE000010B50AF00A
:102EB0003DF9012803D004A11D2000F0DBF8BDE896
:102EC000104000F04FB800002E2E5C2E2E5C2E2EEF
:102ED0005C2E2E5C2E2E5C2E2E5C636F6D706F6EE2
:102EE000656E74735C6C69627261726965735C753E
:102EF00074696C5C6170705F7574696C5F706C6133
:102F000074666F726D2E630010B50AF00FF9012818
:102F100003D004A12B2000F0ADF8BDE8104000F074
:102F200029B800002E2E5C2E2E5C2E2E5C2E2E5CE0
:102F30002E2E5C2E2E5C636F6D706F6E656E7473DB
:102F40005C6C69627261726965735C7574696C5CF2
:102F50006170705F7574696C5F706C6174666F72BC
:102F60006D2E630072B602480168491C016070470B
:102F70004002002003490868401E086000D162B684
:102F8000704700004002002070B5054608680C46F6
:102F9000411C04D006F0DBFA206806F083F9606873
:102FA000411C02D0002106F06BF92968A069C1F824
:102FB0002405607D227D29681043C1F86C05D4E9A1
:102FC00000122868C0F81425C0F80C15207D0128CF
:102FD00014D1A068411C02D0002106F051F9E0682C
:102FE000411C04D006F0B3FAE06806F05BF9D4E9BE
:102FF00002122868C0F80825C0F8101570BD70B519
:10300000054608680C46411C04D006F0AAFA206860
:1030100006F052F96068411C02D0002106F039F92F
:103020002968A069C1F82405607D217D2A680843CC
:10303000C2F86C05D4E900122868C0F80C15C0F875
:103040001425207D012814D1A068411C02D0002144
:1030500006F01FF9E068411C04D006F082FAE0682F
:1030600006F02AF9D4E902122868C0F80825C0F849
:10307000101570BD1CB56A46CDE90001002144F26F
:103080000200FEF795F91CBDF0B500220D4BCA6099
:10309000C1E901230C4B0D4D1446EE1A0A600CE0F9
:1030A00003EB0215EF683F79FF2F05D0A04202D154
:1030B000A8680860F0BD641C521CB2EB161FEFD369
:1030C000F0BD000034F30000200A0100400A0100B6
:1030D000102802D31038C0B2704740F0800070470B
:1030E00038B50446042803D30AA18620FFF7C2FF9F
:1030F0001448005D0090684606F018F9D0F81005F5
:103100000099C84010F0010000D0012080F00100BB
:1031100038BD00002E2E5C2E2E5C2E2E5C2E2E5CDA
:103120002E2E5C2E2E5C636F6D706F6E656E7473E9
:103130005C626F617264735C626F617264732E6350
:1031400000000000B4EC00002DE9FC410646C00779
:103150004FF000050ED0104F00240122385D00957D
:1031600000231146019506F015F8641C042CF4D3D5
:1031700000F0D2F8B0070DD5074E0024361D00220E
:10318000305D032300951146019506F003F8641C99
:10319000042CF4D3BDE8FC81B0EC000038B5044643
:1031A000042803D30BA13920FFF764FF1548005D05
:1031B0000090684606F0BAF8D0F80425009B01217B
:1031C000994021EA0203C0F808351140C0F80C15F7
:1031D00038BD00002E2E5C2E2E5C2E2E5C2E2E5C1A
:1031E0002E2E5C2E2E5C636F6D706F6E656E747329
:1031F0005C626F617264735C626F617264732E6390
:1032000000000000B0EC000010B50446042803D311
:1032100005A12120FFF72EFF0F480121005DBDE829
:10322000104006F0A8B900002E2E5C2E2E5C2E2E2B
:103230005C2E2E5C2E2E5C2E2E5C636F6D706F6E7E
:10324000656E74735C626F617264735C626F6172ED
:1032500064732E6300000000B0EC000010B504465B
:10326000042803D305A11B20FFF704FF0F4800210A
:10327000005DBDE8104006F07EB900002E2E5C2EE9
:103280002E5C2E2E5C2E2E5C2E2E5C2E2E5C636F02
:103290006D706F6E656E74735C626F617264735C87
:1032A000626F617264732E6300000000B0EC000076
:1032B00038B50446042803D30AA11420FFF7DAFE28
:1032C0001448005D0090684606F030F8D0F8040518
:1032D0000099C84010F0010000D0012080F00100EA
:1032E00038BD00002E2E5C2E2E5C2E2E5C2E2E5C09
:1032F0002E2E5C2E2E5C636F6D706F6E656E747318
:103300005C626F617264735C626F617264732E637E
:1033100000000000B0EC000010B500242046FFF7CC
:1033200073FF641C042CF9D310BD10B50024204693
:10333000FFF794FF641C042CF9D310BD10B50246AE
:10334000064B4FF0FF3000215C5C944201D10846EF
:1033500010BD491C0429F7D310BD0000B4EC0000D7
:103360002DE9F0470D468146FFF7E8FF04460428A3
:1033700036D2DFF874801B481C4EA8F10C0725B329
:10338000012D0ED0022D2BD104EB440030444578A2
:10339000002D25D0B968002922D02846BDE8F04785
:1033A000084704EB4401755C0E44717849B10E4A3C
:1033B0004FF48041093A8068FEF732F908B987F87E
:1033C0000390B17808F80410E2E78068FEF772F91C
:1033D00004EB4401314418F804008D78A842D7D09A
:1033E000BDE8F087B8EC0000AC00002068080020C1
:1033F000042801D2FFF774BE00207047014908601D
:10340000002070471001002010B5134C0E384FF00B
:10341000FF310C281ED2DFE800F0060917141D1D2D
:103420001D1D1D1D18150321002001E00321012091
:1034300002F02EFF20680022BDE810405221FEF766
:10344000EFB80121032001E001210220BDE8104076
:1034500002F01EBF10BD0000E0EB000070B50023BD
:10346000042810D20D4D00EB4004012A02D101299D
:103470000CD00022094E00EB4000304461B101291C
:1034800006D0022906D00723184670BD0E30C2B2FE
:103490002A55F9E74270F7E78270F5E768080020DF
:1034A00070B506461E480024C0E90161B00720D56A
:1034B0000025012211462846FFF7D0FF6D1C044667
:1034C000042D02D2002CF4D013E094B940F2333230
:1034D00004211448FDF72CFF04000AD1FDF7F0FE8B
:1034E000040006D10F48104A0021001FFEF72CF8F7
:1034F0000446F00712D00120FFF726FE74B90948F0
:103500000A4A00210C38FEF71FF8040006D10548CE
:10351000074A01210838FEF717F80446204670BD17
:10352000A0000020C4EC00003D380000C56C000085
:10353000BB1200002DE9F05F6E4C05460026607856
:10354000B34618B184F801B003F0A4FB6A4F4FF4FE
:103550007A694FF4C87A4FF00108182D69D2DFE874
:1035600005F00C1313384754696E727B727BC58467
:1035700084848484B3B6B9BCC5C503F08BFB3868BA
:10358000FEF798F806465CE00020FFF791FE002861
:103590004FF0000008D0FFF737FE022D02D14FF4A4
:1035A000E16008E0484606E0FFF758FE022D01D131
:1035B000C82000E05046410CC0034FF47A728018D6
:1035C00041F10001257052000023FCF7A5FF0146E0
:1035D0002AE00020FFF76CFE00284FF0000004D026
:1035E000FFF712FE4FF44870E5E7FFF737FEDFE71D
:1035F0000020FFF75DFE00284FF0000002D0FFF72B
:1036000003FECFE7FFF72AFED4E70020FFF750FEC6
:1036100000284FF0000002D0FFF7F6FD01E0FFF7B1
:103620001DFE257040F6CD4100223868FDF7F8FFF9
:10363000064646E00020FFF7B1FD257008E00020B7
:1036400051E025703DE084F801800120FFF7A6FDE0
:10365000002240F26661E8E784F801800120FFF76C
:103660009DFD00224FF40051DFE77868FEF722F855
:103670000646D5F1110000D02EB10220FFF7C4FD9F
:1036800084F802B01DE0012816D980B2C821484351
:10369000C117C90341EA5041C0034FF47A72801840
:1036A00041F1000152000023FCF736FF01460022E1
:1036B0007868FDF7B5FF06460220FFF7CFFD84F8D6
:1036C00002803046BDE8F09F03F0E4FAB9E703F06A
:1036D000E1FAB4E703F0DEFA04E003F0DBFA0020DD
:1036E000FFF7BCFD0120FFF7B9FDAAE7FFF71DFEBC
:1036F000A7E70000A0000020B8EC00002DE9F0478B
:103700000546861C91460F464FF0010A0020FFF740
:10371000CDFB1B4C04F21C4860683860D4E9010101
:10372000184F401A3968081A0EE00121404604F08B
:1037300074F803F0C1FC0146404604F06EF8D4E989
:103740000101401A3968081A401C8642EDD8B9F1C7
:10375000000F03D0052065F3891002E0062065F311
:103760009F5061683A68114004EB8101C86060684D
:10377000304460600020FFF7C7FB5046BDE8F0878B
:10378000B40F0020DC02002070B50D4604460A2963
:1037900002D10D21FFF7F8FFA0682268411CA1604B
:1037A0001554D4E90101814204D32046BDE870409C
:1037B00005F09ABB70BD00000448816840688142F2
:1037C00001D101207047002070470000B40F002095
:1037D00070B50346094800210478426806E000BF3E
:1037E00002EBC10005789D4207D0491CA142F7DBDE
:1037F00003A16220FFF73EFC002070BD60010020A5
:103800002E2E5C2E2E5C2E2E5C2E2E5C2E2E5C2EF2
:103810002E5C636F6D706F6E656E74735C6C696245
:103820007261726965735C627574746F6E5C6170ED
:10383000705F627574746F6E2E63000000780221F1
:10384000FFF78EBD05494FF0FF32082841F82020D0
:1038500002D3084480F858207047000088080020F0
:10386000F0B54FF0FF3512B10023082601E0082320
:103870000C260C4C05E000BF54F823707F1C04D0CC
:103880005B1CB342F8D32846F0BD26185DB286F81B
:10389000305044F82310002AF5D1E11881F858007F
:1038A000F1E70000880800200249084490F9300040
:1038B000704700008808002070B5816804468A7F40
:1038C000002A4DD0C87F00284AD0121A0844D5B229
:1038D00000F120016A1C1F30FCF7B9FEA068C17F0F
:1038E000491EC177A068817F491E81778DB3082268
:1038F0001C49206905F0B8FA204603F01BFF8178C7
:10390000C078814211D1A06817A2C17F4318082155
:103910002046203304F048FD204600F093F9294664
:103920002046BDE8704001F0E3BA204600F0F6F909
:10393000204600F087F9A0680BA2C17F4318082138
:103940002046203304F030FD2046BDE8704000F0F2
:10395000AFB92069BDE87040044A03A105F084BAFC
:1039600070BD0000943B00002573000041F1000091
:1039700070B504468068827FC17F521A12F0FF053D
:1039800048D0084400F121012A462030FCF75FFEB0
:10399000A068817F491E8177204603F0CBFE8178A5
:1039A000C07881420CD1A0681BA2C17F43180821B6
:1039B0002046203304F0F8FC40F26946C4B913E015
:1039C000204600F0ABF9204600F03CF9A06812A2B6
:1039D000C17F431808212046203304F0E5FC20462F
:1039E000BDE8704000F064B90CA13046FFF742FB1F
:1039F000206918B909A13046FFF73CFB154A06A11A
:103A0000206905F031FA6D1EE9B22046BDE870402C
:103A100001F06EBA70BD0000257300002E2E5C2EE2
:103A20002E5C2E2E5C2E2E5C2E2E5C2E2E5C636F5A
:103A30006D706F6E656E74735C6C696272617269D1
:103A400065735C636C695C6E72665F636C692E6340
:103A50000000000045F100002DE9F04104468068B7
:103A60000F46D0F84811C27F11F00106817FA1EB0B
:103A70000203DDB20BD07F2901D3002D7ED0A068D8
:103A8000C17F0844002180F8207066B113E07F29CF
:103A90007CD2002DF3D0831803F120012A46481C64
:103AA000FCF7D5FDEBE7A068827F521CD2B282778B
:103AB000A068203281544DB3204603F03BFE81784C
:103AC000C07881420ED1A06831A2C17F431808217D
:103AD0002046203304F068FCA81BC1B2204601F048
:103AE00007FA21E0204600F019F9A06828A2C17F5A
:103AF000431808212046203304F056FC204600F0ED
:103B0000D7F80121204601F0CDFA0DE03EB1A068C2
:103B1000827F521CD2B28277A068203281543A460A
:103B20001CA1206905F0A0F9A168C87F401CC877D6
:103B3000204601F0CAF90028204603D0BDE8F04134
:103B400001F0E2B902F06DF800281FD0204603F022
:103B5000F1FD0546C078A978401A401EC1B2204642
:103B600001F054F9204601F0CFF9E878A978401A1D
:103B7000C1B2204601F0A2FA287800E006E0401E1B
:103B8000C1B22046BDE8F04101F08CBABDE8F08139
:103B9000257300002563000070B50D46040003D1B5
:103BA0000BA1E920FFF766FA606818B908A1EA20BE
:103BB000FFF760FA6068006818B905A1EB20FFF70D
:103BC00059FA6068294602682046BDE870401047EF
:103BD0002E2E5C2E2E5C2E2E5C2E2E5C2E2E5C2E1F
:103BE0002E5C636F6D706F6E656E74735C6C696272
:103BF0007261726965735C757362645C6170705F39
:103C0000757362642E63000070B50D46040003D125
:103C10000B49F320FFF72EFA206818B90849F42061
:103C2000FFF728FA2068806818B90549F520FFF7E2
:103C300021FA216868888968BDE87040084700005B
:103C4000F029000070B504004FF4D77503D108A126
:103C50002846FFF70FFA206918B905A12846FFF793
:103C600009FA2069BDE870400F4A10A105F0FCB8C0
:103C70002E2E5C2E2E5C2E2E5C2E2E5C2E2E5C2E7E
:103C80002E5C636F6D706F6E656E74735C6C6962D1
:103C90007261726965735C636C695C6E72665F63A6
:103CA0006C692E630000000039F1000025730000EC
:103CB00070B504004FF4DD7503D108A12846FFF765
:103CC000D9F9206918B905A12846FFF7D3F9206969
:103CD000BDE870400F4A10A105F0C6B82E2E5C2E2C
:103CE0002E5C2E2E5C2E2E5C2E2E5C2E2E5C636F98
:103CF0006D706F6E656E74735C6C6962726172690F
:103D000065735C636C695C6E72665F636C692E637D
:103D10000000000033F100002573000070B50400BE
:103D20004FF4DA7503D108A12846FFF7A3F92069FB
:103D300018B905A12846FFF79DF92069BDE8704034
:103D40000F4A10A105F090B82E2E5C2E2E5C2E2E60
:103D50005C2E2E5C2E2E5C2E2E5C636F6D706F6E53
:103D6000656E74735C6C69627261726965735C63C1
:103D70006C695C6E72665F636C692E6300000000A4
:103D800030F10000257300002DE9F04F4FF00009DD
:103D900095B005464F464C4600F05AFF284602F0C3
:103DA00081FD284601F03EF8284601F08EF810B952
:103DB000284601F0A9F8AA680C2301A90EA8203210
:103DC00003F01CFB03460E9840B15BB14CA20221EC
:103DD000284604F0E9FA15B0BDE8F08F284601F056
:103DE00093F8F8E74C484B490026A1EB00080DF189
:103DF000040A834613E008D348A000904CA2022195
:103E00002846019B04F0D0FAE5E70BEBC604606896
:103E100001685AF82900FCF753FC18B1761CB6EB80
:103E2000D80FE8D9207820B143A140F67F10FFF7E2
:103E300021F900200F90A96848608860C860086177
:103E40006168C86828B14AC9AA68C2E90360C2E9C2
:103E50000113606809F101040026D0F808800E986B
:103E6000844235D25AF8240041A1FCF729FC40B322
:103E70005AF824003FA1FCF723FC10B310A83246E7
:103E80000090761C0FAB2146404600F073FEFEB159
:103E90000F98E8B101685AF82400FCF711FC0028DB
:103EA000DDD10F98C16839B190E84810AA6827465B
:103EB000C2E903C1C2E901360026641CD0F80880BB
:103EC000CDE7A868D0F8481141F00201C0F84811C8
:103ED000A868036933B10E980AEB8702C11B284614
:103EE000984704E025A20221284604F05DFAA8685C
:103EF000D0F8481121F00201C0F848116BE700002A
:103F00006E6F74207465726D696E617465643A20B9
:103F100025630A00200A0100E00901003A20636FCE
:103F20006D6D616E64206E6F7420666F756E6400D7
:103F3000257325730A0000002E2E5C2E2E5C2E2E7B
:103F40005C2E2E5C2E2E5C2E2E5C636F6D706F6E61
:103F5000656E74735C6C69627261726965735C63CF
:103F60006C695C6E72665F636C692E6300000000B2
:103F70002D6800002D2D68656C700000506C656127
:103F8000736520737065636966792061207375625B
:103F9000636F6D6D616E642E0A0000008068D0F85A
:103FA0004801C0F3C00070472DE9F0410446C068E5
:103FB0008EB00D46406800263246006801A905F023
:103FC000D7FF18B100200EB0BDE8F0816DB10198A7
:103FD00005F052FFA168D1F83801401CC1F8380142
:103FE00000F0070001287AD10126204603F0A2FB49
:103FF00005468078012804D9401EC1B2204601F050
:104000005DF82878012804D9401EC1B2204600F08E
:104010006FFF2046FFF716FE2EB132A20221204686
:1040200004F0C2F95BE04FF000080023082202A967
:10403000019805F031FF04980590BDF80C00ADF82B
:104040001800BDF80E00ADF81A008DF81D8002981A
:10405000082700F00300012802D0022818D032E01F
:1040600002983B46860AC0F3C2008DF81C000298F5
:1040700008A9C0F38315AA00019805F00DFF206977
:10408000009005AB2A4608A9304605F04BFE1AE021
:104090000298850DC0F3C2008DF81C00082D01D2D6
:1040A0002E4600E008263B46324608A9019805F056
:1040B000F3FE3744AD1B05AA314608A8236905F075
:1040C00011FD002DEAD1019805F0D6FEE06800222E
:1040D00001A94068006805F04BFF0028A5D0012029
:1040E00071E700004C6F7374206C6F6773202D2094
:1040F000696E637265617365206C6F6720626163CE
:104100006B656E642071756575652073697A652EBF
:104110000A0000002DE9F0411E4617460D46040036
:1041200000D01DB909A1FD20FEF7A4FF606818B9F1
:1041300006A1FE20FEF79EFF606833463A460168FE
:104140000C692946A446BDE8F04160472E2E5C2E3E
:104150002E5C2E2E5C2E2E5C2E2E5C2E2E5C636F23
:104160006D706F6E656E74735C6C6962726172699A
:1041700065735C636C695C6E72665F636C692E6309
:10418000000000002DE9FC410026044601270196AD
:1041900001AB012269462046FFF7BCFF01980028C9
:1041A00036D09DF800007F28F2D805F0DFFEA06829
:1041B000417821B101296FD002296ED18DE09DF89F
:1041C00000500D2D09D00A2D07D0D0F8482100212C
:1041D00061F38D12C0F8482122E0D0F84811C1F3F4
:1041E000871129B1D0F84811C1F38711A94217D11D
:1041F000D0F8481165F38D11C0F84811A068817F8F
:1042000041B12046FFF7C0FD0221204600F0F4F83E
:10421000BDE8FC81C0F84461204600F075FEF3E77C
:10422000092D1ED004DC002DB2D0082D04D121E0D0
:104230001B2D12D07F2D26D0FCF7AEF90068405D13
:1042400010F03E0FA4D02046FFF7A8FE30B39DF833
:1042500000102046FFF700FC9AE7A1680120487093
:1042600096E72046FFF79AFE002891D0204600F0FE
:10427000DDF88DE72046FFF791FE002888D0204624
:10428000FFF71AFB84E72046FFF788FE0028E3D0FB
:104290002046FFF76DFB7BE716E019E0A1689DF86B
:1042A0000020887F7F28D7D2C87F0B18401CC87792
:1042B00083F82020A068C17F084480F82060A168AE
:1042C000887F401C887763E79DF800105B2901D048
:1042D000002100E0022141705AE700214170204690
:1042E000FFF75CFE002893D09DF80000422840D0E4
:1042F0001BDC33287CD012DC312872D03228ABD1C1
:10430000A16803204870A068D0F84811D0F848216F
:1043100027EA010161F30002C0F8482138E7342898
:1043200056D0412898D1012124E0462853D01BDCE7
:10433000432823D044288FD1204603F0FBF90546BB
:104340000078A979491C884202D1A978012987D02F
:1043500001284FF0010120462FD000F0C9FDA168CF
:10436000C87F401EC87713E748283DD04C2889D124
:10437000C9E70021204602F07BF909E7204603F057
:10438000D9F9054600786978884203D1A978EA7896
:10439000914298D0697988424FF00101204606D1B8
:1043A00000F034FD6979204600F0A2FD01E000F044
:1043B00079FEA168C87F401CD4E700F07FFE6979D0
:1043C000204600F06FFEA068C17F491EC177DFE67E
:1043D000A16803204870204600F024FDD8E607E0DD
:1043E000FFE7A16803204870204600F044FDCFE6B7
:1043F000A1680320487046E78268022911700CD139
:104400008268002182F820108268D17782689177D3
:1044100002A20321036803F0C7BF704725730000A1
:10442000002801D0FCF745B9704700002DE9F04F96
:1044300005460020A7B00746159006462090069036
:10444000A868817FC1F17F01C9B25FEA010970D01C
:10445000C27F00F12001A030FCF7F9F8A868002421
:10446000C17F084480F8A040FCF796F821900168CD
:10447000A8680C23C27F0244D27F895CC0F8444103
:10448000AA6801F0010A07A916A8A03202F0B6FF37
:104490000798FFF7C5FF00F0FF08A346179418948C
:1044A000169818B15044401EB0426CD8BAF1000FB3
:1044B00001D0002005E007A850F82600FFF7B0FF64
:1044C000C0B28046002419A822460090641C17AB95
:1044D0003146584600F04EFB179800286CD0016812
:1044E00007A8424650F8260002F0C0FB0028EAD098
:1044F00018987F1CF0B117980068FFF791FF069994
:10450000C0B2884200D90690B9F1000F2ED022A87F
:10451000009018AB31465846159A00F02BFB1798BF
:104520000168189801EB08020168002001EB0803FC
:1045300016E08DE0601E209017980068FFF770FF6E
:10454000C0B20690A0EB080048450FDAC0B20CE0FC
:1045500013F800C0614506D1401C10F0FF0010D0D8
:10456000115C0029F4D1814500D98146601E159067
:1045700017981890A7D266A20421284603F014FFCA
:104580001AE0FF20EFE7002419A822460090641CDF
:1045900017AB3146584600F0EDFAECB317980028F7
:1045A00056D0016807A850F82600FCF789F80028C3
:1045B000EAD11798D0F808B0BBF1000F09D01798CE
:1045C00038B11699761CF6B201EB0A008642FFF468
:1045D00067AF002F3CD0012F43D000212846069A18
:1045E00008F052FC209C0DF11C0A19A822460090EC
:1045F000641C17AB3146584600F0BCFA1798424687
:1046000001685AF8260002F031FB40B117987F1E6E
:10461000069A0168284600E01DE008F035FC002FEE
:10462000E3D146A2032128462B6803F0BDFEAB6808
:1046300043A208212846203303F0B6FE284600F0A6
:10464000FBFC18984A4601682846414400F05AFB92
:1046500027B0BDE8F08F2EA20421284603F0A4FE67
:10466000F6E79BF8000038B119A8009018AB314666
:104670005846159A00F07EFA18980068FFF7D0FEA9
:10468000404506D018984A4601682846414400F043
:1046900039FB2198A9680268C87F0B1893F820306D
:1046A000D25CD20715D0897F8842D1D2284603F048
:1046B00041F88478A868C17F491CC177284603F077
:1046C00039F88078A0421FD10121284600F0EAFC89
:1046D000BEE7D1F84801C00711D0D1F8480120F059
:1046E0000100C1F8480120212846FFF7B5F9A86864
:1046F000D0F8481141F00101C0F84811A8E7202185
:104700002846FFF7A9F9A3E7284600F0FDFB9FE73D
:104710005461622066756E6374696F6E3A20636FD0
:104720006D6D616E647320636F756E746572206F5A
:10473000766572666C6F7765642E0A000A257300D1
:104740002573000070B505460C0004D107A140F6A2
:104750000B20FEF78FFC002D06D0A068D0F8481182
:1047600041F02001C0F8481170BD00002E2E5C2ED3
:104770002E5C2E2E5C2E2E5C2E2E5C2E2E5C636FFD
:104780006D706F6E656E74735C6C69627261726974
:1047900065735C636C695C6E72665F636C692E63E3
:1047A0000000000070B5044640680D4690F82800EF
:1047B00030B1A0680068FCF77DFF08B108280CD173
:1047C000012685B1606904F043FB6168002208316D
:1047D000606904F0CBFA08B1062070BD606880F80B
:1047E0002960002070BD606890F8280048B9074A29
:1047F0000021A068FCF7A8FE6168002881F8286005
:10480000F0D12046BDE8704008F0A2BDD5DD000023
:1048100070B5044640680D4602606068002243603F
:10482000606880F82820606880F82920606820226D
:104830000830FBF70CFF2C61074A2946606904F039
:1048400095FA050005D1E06805F096FF206905F0AE
:1048500093FF284670BD000015DF00002DE9F041F0
:104860001C0016460F46054603D106A1D220FEF7CE
:1048700001FC266022463946E868BDE8F04105F0B3
:1048800033BE00002E2E5C2E2E5C2E2E5C2E2E5C57
:104890002E2E5C2E2E5C636F6D706F6E656E747362
:1048A0005C6C69627261726965735C636C695C758A
:1048B0006172745C6E72665F636C695F756172745D
:1048C0002E63000010B50446406904F0C1FAA068E8
:1048D0000068BDE81040FCF7EDBE00002DE9FC418A
:1048E0001D0016460F46044603D11AA1E620FEF726
:1048F000C1FB2E602A463946206905F061FE05009D
:1049000025D16069234A0178515C19B1001D07F077
:10491000A7FA02E00C3007F06FF8C0B9FF20009052
:1049200001236A4601A9206905F0C4FE78B9009800
:104930000199C2B2606904F07BFA0546606890F89C
:10494000290020B11DB92069009905F09FFE284675
:10495000BDE8FC812E2E5C2E2E5C2E2E5C2E2E5C55
:104960002E2E5C2E2E5C636F6D706F6E656E747391
:104970005C6C69627261726965735C636C695C75B9
:104980006172745C6E72665F636C695F756172748C
:104990002E630000180100202DE9F8431F4614463D
:1049A0008846050002D0B8F1000F03D11EA1CE2029
:1049B000FEF760FB6868006818B91BA1CF20FEF7FE
:1049C00059FB002628E000BF686808EB06016B462B
:1049D0000268D2F80CC02246E04718B112A1D920D3
:1049E000FEF748FB0098844203D20FA1DA20FEF7BD
:1049F00041FB00980644241A70B9A868017803297D
:104A00000AD000BFD0F848118906FBD5D0F848116C
:104A100021F02001C0F84811002CD5D1002F01D081
:104A200000983860BDE8F8832E2E5C2E2E5C2E2E6A
:104A30005C2E2E5C2E2E5C2E2E5C636F6D706F6E66
:104A4000656E74735C6C69627261726965735C63D4
:104A50006C695C6E72665F636C692E6300000000B7
:104A600070B5084C050009D010342168002907D022
:104A700008682060496828468847F6E70834F4E764
:104A800070BD000074080020054A012120B10128F2
:104A900005D19170FFF7E4BF51700020FAE770472D
:104AA0007408002038B5094C1546206818B908A1CB
:104AB0000920FEF7DFFA6A4613A16868FBF726FEB5
:104AC000009821680E30C0B2884738BD1001002020
:104AD0002E2E5C2E2E5C2E2E5C2E2E5C2E2E5C2E10
:104AE0002E5C636F6D706F6E656E74735C6C696263
:104AF0007261726965735C6273705C6273705F632C
:104B00006C692E63000000002575000038B5094C63
:104B10001546206818B908A11320FEF7ABFA6A46BB
:104B200013A16868FBF7F2FD00982168C0B28847BE
:104B300038BD0000100100202E2E5C2E2E5C2E2E83
:104B40005C2E2E5C2E2E5C2E2E5C636F6D706F6E55
:104B5000656E74735C6C69627261726965735C62C4
:104B600073705C6273705F636C692E630000000099
:104B7000257500002DE9F05F1C000A9F1546884648
:104B8000064604D121A14FF48970FEF773FA27B9C4
:104B90001EA140F21310FEF76DFA4FF00009B8F1B4
:104BA000000F0BD01EB3307838B3726839462846F0
:104BB00090473868D8B12760BDE8F09F2149224866
:104BC000A1EB0008B5EBD80F14D2DFF880A00026C7
:104BD000834609E00BEBC607786801685AF82500A0
:104BE000FBF76EFD20B1761CB6EBD80FF2D301E0D7
:104BF000786808E0C4F80090DEE7706800EB051004
:104C000001680029F6D02060D6E700002E2E5C2E29
:104C10002E5C2E2E5C2E2E5C2E2E5C2E2E5C636F58
:104C20006D706F6E656E74735C6C696272617269CF
:104C300065735C636C695C6E72665F636C692E633E
:104C400000000000200A0100E00901005C030020D0
:104C50002DE9F04185680646002495F820000028DB
:104C600011D0A046FBF798FC0746006804F120012C
:104C700004F10104695CE4B2415CC90705D0002C71
:104C8000F4D185F82080BDE8F081641E14F0FF04A3
:104C90000FD0A87F021B04F12000291805F1200085
:104CA000521CFBF7D4FCB168887F001B8877B16881
:104CB000C877B2683D68937FD0181F300446002142
:104CC00002E0491CC9B2401E0778EF5DFF07F8D12A
:104CD0008442D8D05B1A203302F80380B268907FF8
:104CE000401A9077B168C877CDE710B5D0E90234A3
:104CF000D1E90220D11AA04101D3012010BD00202A
:104D000010BD00002DE9F04115460F00044604D106
:104D100023A140F22D60FEF7ADF9A068817FC27F2C
:104D20008B1A2944DEB27F2937D8002D35D01044A4
:104D300000F1200105F120021044721CFBF787FCF2
:104D4000A0682A46C17F084439462030FBF77FFC23
:104D5000A0682030FFF764FBA1681FA28877A068D5
:104D6000C17F431808212046203303F01DFBA068B3
:104D7000C17F2944C177204600F0A7F818B9204622
:104D800000F04FFF10B1204600F0BEF8002E04D016
:104D90002046BDE8F04100F04FB9BDE8F0810000C9
:104DA0002E2E5C2E2E5C2E2E5C2E2E5C2E2E5C2E3D
:104DB0002E5C636F6D706F6E656E74735C6C696290
:104DC0007261726965735C636C695C6E72665F6365
:104DD0006C692E630000000025730000EFF305806E
:104DE000C005C00D10D0103840B2002804DB00F11F
:104DF000E02090F8000405E000F00F0000F1E02052
:104E000090F8140D400970470F207047002904D016
:104E10000A46006901A104F027B870471B5B2564AE
:104E20004200000070B5054602F084FC044600789C
:104E30006178884203D1A078E17888421AD0E1787D
:104E4000A078814204D9081AC1B22846FFF7DEFFD4
:104E500020786178884205D9401AC1B2284600F00E
:104E600047F804E0081AC1B2284600F01BF9A86808
:104E7000817FC17770BD70B5054602F05BFC0446CA
:104E800001788079401C814202D1A07801281BD092
:104E9000A078012804D9401EC1B2284600F00EF9BE
:104EA0002078A179884206D9401A401EC1B228460E
:104EB00000F01EF805E0081A401CC1B2284600F0B8
:104EC000F1F8A9680020C87770BD10B504460068E5
:104ED000FFF7A6FA0146A068C27F407E1144B1FBED
:104EE000F0F200FB121008B1002010BD012010BD2F
:104EF000002904D00A46006901A103F0B5BF70473C
:104F00001B5B256444000000006901A103F0ACBFF5
:104F10000A0000002DE9FC47002604468DF80460D5
:104F200080683546B146B0468021A030FBF7B6FB1D
:104F30004049206903F098FF206903F0D5FF00275E
:104F40006B46012201A92046FFF7E4F80098D8B18A
:104F50009DF804001B2806D0A16891F8A0101B2919
:104F6000EED152281FD0A26808F1A001505408F1D8
:104F7000010000F0FF08B8F1090F0AD9A168042068
:104F800081F8A090BDE8FC872A494FF6C010103187
:104F9000884700980028D3D17F1CBFB2B7F57A7F2D
:104FA000CED30D20EEE7A16808F1A0004A4601F833
:104FB0000090A16891F8A1005B2803D081F8A0209F
:104FC0000B20DFE702206FF02F0309E005EB8505DA
:104FD00003EB4505401C3D44C0B2ADB2802808D269
:104FE00000F1A007CF5D3B2FF0D1401CC0B280285C
:104FF00009D30C20C6E700BF06EB860603EB460686
:105000003E44B6B2F1E700F1A007CF5D002FF3D127
:10501000FA20FA2E01D9087500E00E75FA2D02D992
:10502000A168887501E0A0688575A06880F8A02057
:105030000020A7E751F1000070B5054602F07AFBA9
:1050400004468078E178884201D1012600E00026FC
:105050002846FFF73AFF18B9284600F0E2FD10B1E4
:105060002846FFF751FF1EB160782178401A12E000
:10507000E078A178401AC1B2284600F01FF82078E5
:105080006178884206D9401AC1B22846BDE870400E
:1050900000F008B8081AC1B22846BDE87040FFF712
:1050A00027BF0000002904D00A46006901A103F0CF
:1050B000DBBE70471B5B256443000000002904D061
:1050C0000A46006901A103F0CFBE70471B5B25644F
:1050D0004100000070B500240F4D10E0686800EB3F
:1050E000C406307806F0D2F87178012901D0012188
:1050F00000E000214140307800F080FC641C2878FA
:105100008442EBDBD5E90401084303D0BDE87040DD
:1051100008F0CABE70BD00006001002010B500217B
:10512000024802F090FB80F3100010BDD013002065
:105130004FF4803202FA01F100F020BC00684FF415
:10514000A86202EB8101405870474FF4A07202EB55
:10515000810189B200F0BEBC2DE9F04198461746A6
:105160000E46050003D113A17020FDF783FF4FF415
:10517000A07000EB860081B228684FF48034B44000
:1051800027F07F47C0F808432868C0F848432868DC
:1051900005F018FB286800EB8600C0F84075286809
:1051A000C0F84443B8F1000F02D02868C0F80443A7
:1051B000BDE8F0812E2E5C2E2E5C2E2E5C2E2E5CF9
:1051C0002E2E5C2E2E5C636F6D706F6E656E747329
:1051D0005C6C69627261726965735C74696D657239
:1051E0005C6472765F7274632E6300000068D0F8AE
:1051F000040570472DE9F04715460E46040003D11B
:1052000039A12F20FDF736FF1EB937A13020FDF759
:1052100031FF1DB934A13120FDF72CFF60794049E1
:10522000DFF8FC90DFF804A141F82050617909F122
:10523000040909EBC1003B4902793B48081AC70839
:105240004AB1BAF80200082402284AD3022000EB2F
:10525000074037A143E03588D4F80080B5F5805F7A
:1052600004D33CA14FF4AB70FDF704FFC8F8085518
:10527000B67894F90450082E03D342A14520FDF7D7
:10528000F9FE002D4FEA461004DB05F1E02585F814
:10529000000405E005F00F0101F1E02181F8140D93
:1052A00094F904000121002809DB00F01F0201FA33
:1052B00002F24009800000F1E020C0F8002162798C
:1052C00009EBC2021171617949F83140BAF8020064
:1052D0000024032805D3032000EB074035A104F088
:1052E000CDFB2046BDE8F0872E2E5C2E2E5C2E2EA8
:1052F0005C2E2E5C2E2E5C2E2E5C636F6D706F6E9E
:10530000656E74735C6C69627261726965735C74FA
:10531000696D65725C6472765F7274632E630000FF
:1053200044020020C80A0100400A0100C003002016
:1053300052544320696E7374616E636520616C72B0
:105340006561647920696E697469616C697A656404
:105350002E0000002E2E5C2E2E5C2E2E5C2E2E5C3F
:105360002E2E5C2E2E5C6D6F64756C65735C6E7298
:1053700066785C68616C2F6E72665F7274632E680B
:10538000000000002E2E5C2E2E5C2E2E5C2E2E5C3D
:105390002E2E5C2E2E5C696E746567726174696F67
:1053A0006E5C6E7266785C6E7266785F676C75654F
:1053B0002E6800005254433A20696E697469616C2A
:1053C000697A65642E00000090F90400002809DB6A
:1053D00000F01F02012191404009800000F1E0200F
:1053E000C0F8001270470A46022100F0D9BA4FF403
:1053F000827100F06FBB000010B5040003D104A15E
:105400006120FDF737FE20680121016010BD00001A
:105410002E2E5C2E2E5C2E2E5C2E2E5C2E2E5C2EC6
:105420002E5C636F6D706F6E656E74735C6C696219
:105430007261726965735C74696D65725C647276C1
:105440005F7274632E63000010B5040003D104A1E1
:105450006720FDF70FFE20680121416010BD0000AC
:105460002E2E5C2E2E5C2E2E5C2E2E5C2E2E5C2E76
:105470002E5C636F6D706F6E656E74735C6C6962C9
:105480007261726965735C74696D65725C64727671
:105490005F7274632E6300002DE9F05F9B46154632
:1054A0000C46060003D136A1A720FDF7E3FD4FF41B
:1054B000803000FA04F84FF4A07000EB84001FFA6B
:1054C00080FA25F07F454146304600F057FA3068B3
:1054D000D0F8047500EB8401D1F84095C1F840750F
:1054E0005146306805F06EF9A9EB070020F07F40C7
:1054F000012806D1102005F0BBFD5146306805F0AB
:1055000061F93068D0F80475C0F84483E91B21F0D4
:105510007F423068012A00EB840010D0C0F840556B
:105520003068D0F804156FF07F476A1A521E22F0D7
:105530007F42A7EB0B03934217D362B118E06D1CB7
:10554000C0F84055102005F093FD3068D0F80405F0
:10555000B8420AD10CE000EB84006D1CC0F8405545
:105560003068D0F80405884202D00D20BDE8F09FD5
:1055700001224146304600F013FA0020F6E7000011
:105580002E2E5C2E2E5C2E2E5C2E2E5C2E2E5C2E55
:105590002E5C636F6D706F6E656E74735C6C6962A8
:1055A0007261726965735C74696D65725C64727650
:1055B0005F7274632E63000010B50446010600F0AC
:1055C0000F00092804D3064940F28F20FDF752FD51
:1055D0006FEA0460C10F204661F31F1010BD000088
:1055E000F8E6000070B50546000605F00F0402D588
:1055F000092C09D301E0092C08D307A14FF41F702F
:10560000FDF738FD280601D5114801E01048903813
:1056100000EB041070BD00002E2E5C2E2E5C2E2E92
:105620005C2E2E5C2E2E5C2E2E5C6D6F64756C6570
:10563000735C6E7266785C647269766572735C73B3
:1056400072635C6E7266785F757362642E630000CD
:10565000D409002010B50446010600F00F00092807
:1056600004D3034940F25F20FDF704FD204610BD3E
:10567000F8E6000005F0BEB9812005F035BA8220B9
:1056800005F032BA832005F02FBA842005F02CBA39
:10569000852005F029BA862005F026BA872005F076
:1056A00023BA882005F06EBA38B508F051FF002003
:1056B000FFF798FF817B0124032906D0006870B1B1
:1056C000BDE838404C2005F085BB0020FFF774FF93
:1056D0008440E143BDE83840094805F08FBB002015
:1056E000FFF76AFF8440E143054805F087FB054862
:1056F0000349C0680C39009049686846884738BD3E
:105700005C01002040ED0000012005F0A9BA022054
:1057100005F0A6BA032005F0A3BA042005F0A0BA4C
:10572000052005F09DBA062005F09ABA072005F07D
:1057300097BA000038B5082408F00AFF2046FFF7A2
:1057400051FF817B032915D00068002812D1204623
:10575000FFF732FF01218140C943074805F04EFBA6
:1057600006480549406900900C398DF802404968A7
:105770006846884738BD00005C01002040ED00000D
:1057800070B50E4804680460BFF36F8FBFF34F8F8E
:1057900001260CE094FAA4F0B0FA80F52846FDF753
:1057A00097FC06FA05F18C43294609F0B1F8002C64
:1057B000F0D1BDE8704008F0D9BE00006C74024022
:1057C00010B5054CA078FFF7F7FE0146A078BDE8BC
:1057D000104009F09DB8000050010020F8B51A48AB
:1057E00000681A4DC6B2A878FFF7E6FE012404FA55
:1057F00000F12889EA68C04380B21043014202D018
:10580000A87808F0DFFF06F08000A8700020FFF7FE
:10581000D3FE04FA00F68020FFF7CEFE04FA00F073
:1058200006430A48F1430C3005F0E8FA8020FFF700
:10583000C3FE8440A86804430548AC60006A009039
:10584000696868468847F8BD8074024050010020AE
:1058500040ED000038B5002000900E480068ADF81B
:1058600002008820FFF7A8FE012505FA00F40820B1
:1058700005F0CAF9401C04D00820FFF79DFE8540C2
:105880002C430549886820438860496868468847F2
:1058900038BD000020750240500100207047000014
:1058A000F8B51C480568284605F082FABFF36F8FEB
:1058B000BFF34F8F184E194CE80506D501206070D4
:1058C000706A0090616868468847A8054FF0000735
:1058D00005D56770B06A00906168684688476805BA
:1058E00016D56078002813D005F06CFA20B10CA111
:1058F00040F2CF40FDF7BEFB6770174901200860FA
:10590000582005F067FAF06A009061686846884799
:10591000F8BD00000074024040ED0000500100207E
:105920002E2E5C2E2E5C2E2E5C2E2E5C2E2E5C2EB1
:105930002E5C6D6F64756C65735C6E7266785C640A
:105940007269766572735C7372635C6E7266785F9F
:10595000757362642E63000008750240054908B53E
:105960000020487088700448406800904968684684
:10597000884708BD5001002040ED000070B50C467E
:10598000050003D105498D20FDF774FB2868C0F898
:1059900048432868C0F8084370BD0000C45900009F
:1059A00070B516460C46050003D106A18320FDF70D
:1059B00061FB2868C0F84443002E02D02868C0F874
:1059C000044370BD2E2E5C2E2E5C2E2E5C2E2E5C83
:1059D0002E2E5C2E2E5C636F6D706F6E656E747311
:1059E0005C6C69627261726965735C74696D657221
:1059F0005C6472765F7274632E6300002DE9F04779
:105A00000E463249804601EB5001C007097801D0AB
:105A10000F0901E001F00F07424601200021FAF7CB
:105A2000ACFDDFF8AC9004460D46052F4BD2DFE805
:105A300007F0031419262A00002E44D00121404605
:105A400008F038F80020FDF731FA4846D0E9041292
:105A50000C431543C9E9044530E00EB1022114E0BE
:105A6000002112E04EB10321404608F023F84046E1
:105A7000BDE8F047012109F039B8012105E0002E09
:105A800021D1042101E02EB103214046BDE8F047B9
:105A900008F010B80021404608F00CF800214046FC
:105AA00009F024F80020FDF701FA4A46E043D2E964
:105AB0000434184024EA0501C9E90401BDE8F047AF
:105AC0000020FDF721BABDE8F08700007C0B002024
:105AD0006001002070B50C46050003D106A194209A
:105AE000FDF7C8FA2868015921B1214604F06AFE81
:105AF000012070BD002070BD2E2E5C2E2E5C2E2E3F
:105B00005C2E2E5C2E2E5C2E2E5C636F6D706F6E85
:105B1000656E74735C6C69627261726965735C74E2
:105B2000696D65725C6472765F7274632E630000E7
:105B30002DE9F05F17460E00814670D013B1F9B21F
:105B4000FFF7B0FA0024FAF727FD8246006800E06C
:105B5000641C315D415CC907FAD100253046FEF76F
:105B60005FFCD9F80810001B4A7ED11B814228D364
:105B700006EB040805E000BF18F805100A290CD050
:105B80006D1C8542F8D33119D9F8100003F06CF977
:105B90004846BDE8F05FFFF7B7B9D9F8100003F049
:105BA000A3F9414600232A464846FEF7F5FE2C4459
:105BB0004846641CFFF7A8F9F9B24846FFF772FAA5
:105BC000E1E78B46DAF8001006EB040818F8050048
:105BD0000B5CDB0702D0AB460A2804D0E8199042E0
:105BE00001D26D1CF2E7D9F8100003F07DF94146AF
:105BF00000235A464846FEF7CFFE5C44DAF8000020
:105C000000E0641C315D415CC907FAD14846FFF7EA
:105C10007BF9F9B24846FFF745FA9EE7FFE7BDE892
:105C2000F09F10B504460068FEF7FAFB0146A06835
:105C3000827F407E1144B1FBF0F200FB121008B1EC
:105C4000002010BD012010BD10B50B48FFF7CEFAA3
:105C5000094A083AD2E90434C018D2E9063244F1BC
:105C60000001C31A71EB020204D24FF08072801857
:105C700041F1000110BD0000A001002010B5C0B22C
:105C8000FDF7A6FD0446007805F000FB01466078AC
:105C9000012801D0012000E0002090EA010F08D087
:105CA0000449D1E90401084303D1BDE8104008F0DC
:105CB000FBB810BD600100207F2801DD7F20704708
:105CC0006FF07F01884201DA0846704740B27047A2
:105CD0002DE9F84F5FEA000B03D126497C20FDF740
:105CE000C9F9584600F09AFA054600F045F80090C8
:105CF000284600F0D5FB6D6B04460022214628465D
:105D000004F036F907460528F7D10020FDF7CEF854
:105D10009BF80890002521E029465846FBF7C2FE73
:105D2000824690F80180002414E021465046FBF79B
:105D300091FE0646007800F00F00082803D30D49B5
:105D40009920FDF797F93078010601D506F010FA91
:105D5000641CE4B24445E8D36D1CEDB24D45DBD381
:105D600003210098FCF70DFE0020FDF7CDF8384622
:105D7000BDE8F88FF0F5000010B5040003D1064926
:105D80001B20FDF777F9206818B903491C20FDF79F
:105D900071F920680C3010BDF0F5000070B50646B2
:105DA00000F03CFA0446FFF7E7FF0546606B04F09D
:105DB0004DF928B103212846FCF7E3FD002070BD12
:105DC0003046BDE8704000F07BBB3EB5044600F0B5
:105DD00025FA054620460021FBF764FE0121FBF76A
:105DE00039FE047805F11000FCF7BAFD002100919E
:105DF0000191029101680091406801906946204636
:105E0000FCF71EFA3EBD000070B50D46060004D139
:105E10000C4940F2AB10FDF72DF925B909494FF4B3
:105E2000D670FDF727F9304600F0F8F900F11004BC
:105E3000FFF7A2FF02462B4621463046BDE87040E0
:105E4000FCF74ABCF0F500002DE9F84F8B46DFF86F
:105E5000C4830546097A1F46164688F8001058463E
:105E600000F0DCF9824625B9EB4940F2ED10FDF770
:105E700001F929684FF0000940F206224C46A1F2D0
:105E80000620914271D024DC40F2FD12A1F2FD10F7
:105E900091426BD014DC40F2F910A1F2F912814268
:105EA00058D008DC79B3B1F5FA7F36D0A1F580710E
:105EB000F53974D13CE0022A59D0032AF9D163E0C4
:105EC00009286CD2DFE800F06B7D89946B6B9FAA88
:105ED000B500192870D00EDC0E286ED006DC012823
:105EE0006CD002286BD00B28E3D1E0E00F2867D0FC
:105EF0001828DED11CE11D380528E2D2DFE800F0C9
:105F0000F9F8F7F6F50088F8019074E10920287196
:105F1000BC4202D34FF4FA7057E10EB128793055E4
:105F20000420641C2871BC4202D340F2F5104CE1FD
:105F30000EB12879305598F801105846641CFBF7CB
:105F4000B1FDC8F8080000782871BC4202D340F2C5
:105F5000F9103AE10EB128793055641C85F80490A7
:105F6000BC4204D340F2FB102FE16DE018E00EB10B
:105F700028793055D8F80800641CBC424078287154
:105F800002D34FF4FE7020E10EB128793055032082
:105F9000641C2871BC4203D340F2FD1015E134E1CA
:105FA0000EB1287930559AF81800641C2871BC424B
:105FB00007D34FF4FF7008E1C5E089E04FE05BE0F4
:105FC00098E00EB1287930559AF81900641C2871B0
:105FD000BC4202D340F2FF10F7E00EB128793055F1
:105FE000641C85F80490BC4202D34FF40070ECE0CE
:105FF0000EB1287930550920641C2871BC4202D3A7
:1060000040F20320E1E00EB1287930552120641CD4
:106010002871BC4202D34FF40170D6E00EB128794A
:1060200030551120641C2871BC4202D340F2052077
:10603000CBE00EB1287930550120641C2871BC4298
:1060400002D340F20620C0E00EB128793055641C1E
:1060500085F80490BC4202D340F20720B5E00EB1AF
:10606000287930555846641C00F0E4F82871BC4289
:1060700002D34FF40270A8E00EB12879305558468B
:10608000641C00F0D7F888F8020088F803903AE022
:106090005846009100F0C2F800690099BC4250F8DF
:1060A00021000079287102D340F211208DE00EB159
:1060B0002879305598F803105846641C00F0CAF847
:1060C000A8F806002871BC4202D34FF405707CE0AA
:1060D0000EB128793055B8F80600641C000A287102
:1060E000BC4207D340F215206FE072E05FE053E05E
:1060F00047E03BE00EB12879305598F80310491C71
:1061000088F80310641C98F8031098F802204046A1
:106110009142BDD3816849780171494688F803905E
:1061200061E007202871BC4202D340F21E204CE0FF
:106130000EB1287930550520641C2871BC4202D369
:1061400040F21F2041E00EB12879305598F8031035
:10615000641CD8F80800FBF77DFCC8F80C00007838
:106160002871BC4202D340F223202EE00EB12879E0
:1061700030550320641C2871BC4202D34FF40970CF
:1061800023E00EB1287930554020641C2871BC42B0
:1061900002D340F2252018E00EB128793055641C56
:1061A00085F80490BC4202D340F226200DE00EB1E7
:1061B0002879305598F80300DAF83010641CBC4296
:1061C000085C287105D340F2272028600120BDE833
:1061D000F88F0EB12879305598F803104046491CC5
:1061E00088F80310641C0279C9B2914299D34178AE
:1061F000491C88F8011098F8011098F800008142B5
:10620000FFF484AE40F22B20DFE70020C5F80090B9
:10621000DDE7000018020020F0F5000010B50400D2
:1062200003D103492B20FCF725FF204610BD0000B9
:10623000F0F5000010B5FFF7F1FF007D10BD70B55F
:1062400014460D46FFF7EAFF006950F82500806804
:10625000204470BD10B50C46FFF7E0FF006950F810
:106260002400006810BD000070B50C00054604D184
:10627000064940F24320FCF7FDFE2846FFF7CEFF1B
:10628000FFF77AFD0461002070BD0000F0F500000A
:1062900070B505460C460020FCF708FE134A35B1E0
:1062A000012D08D0022D13D0032D17D107E010883F
:1062B0002044108012E05088204450800EE0107975
:1062C000012C02D020F0020007E040F0020004E0C0
:1062D0001079012C07D020F001001071BDE870404A
:1062E0000020FCF711BE40F00100F6E77E00002020
:1062F00070B51C4E3078002832D1B41D2146B4F957
:106300000000097920B9628812B96279914227D0D8
:10631000144D6D1C2970FFF7CFFC6870B4F90200B2
:10632000FFF7CAFCA870042229460F48FCF7CAFAF6
:10633000002815D101203070287860710020FCF70A
:10634000B5FD208895F90110401A2080608895F9E4
:106350000210401A6080BDE870400020FCF7D4BDF8
:1063600070BD000078000020FCEB000038B50C4642
:10637000FFF754FF0246002000902079012805D045
:10638000022808D003280BD0062038BD69461046E5
:10639000FCF792FA08E069461046FCF7C2FA03E0FF
:1063A00069461046FCF75EFA0146601C009AFBF74E
:1063B00039FE38BD70B50C460546FFF72FFFFFF7D5
:1063C000DBFC026922B121462846BDE87040104737
:1063D000062070BDF0B50D4609790026244F85B022
:1063E000022904D003291FD0062005B0F0BDFFF715
:1063F00015FF04461030FCF7B3FA0268E978117013
:106400000096019602960168491C00914068401E62
:1064100001900020FCF74AFD69460020FBF710FFC1
:1064200005001FD1386816E0FFF7F8FE044610306B
:10643000FCF77EFA0096019602960168009140688A
:1064400001900020FCF732FD69460020FBF7F8FEC2
:10645000050007D1B868CDE9030403A90020FBF7C4
:106460006DFD05460020FCF74FFD2846BDE7000006
:10647000FCEE000010B50200084601D0032010BD5C
:10648000C26A02219047002010BD10B502000846E4
:1064900001D0032010BDC26A04219047002010BD26
:1064A00010B5040003D105493A20FCF7E3FD04F1DF
:1064B0001000BDE81040FCF747BA0000F0F50000FE
:1064C000FEB50446FFF758FC06462046FCF7FAF8EE
:1064D000074603213046FCF754FA606B03F0B6FD23
:1064E00090F0010026D02046FFF7DAFF0546002293
:1064F0002946606B03F03CFD18B10F496B20FCF797
:10650000B9FD002000900190029028680090686812
:1065100001900020FCF7CAFC69463846FBF790FE64
:10652000040003D103213046FCF735FA0020FCF7C4
:10653000EBFC2046FEBD0000F0F500002DE9FC411B
:10654000024690F828004FF6FF7400B30020009038
:1065500040F2FF7C6F46019013181B7A9B0027F8CE
:10656000103061450DD102EB80067569B5F5006FFD
:1065700007D005F2FF75B5FBF3FE03FB1E556D1C3E
:106580007561556825B103211046FCF7F5F914E053
:1065900002EB80056D690D44B5FBF3F603FB165560
:1065A0000A26B3FBF6F39B1C9D4207D392F82930D1
:1065B0001BB1401CC0B20428CED32046BDE8FC81EC
:1065C00070B51B4A1B4C0323121B184DD20803EB5A
:1065D0000244B1B101291CD002290BD0032923D1D7
:1065E000154900200870FFF783FEBDE870400220C7
:1065F000FCF7D4BDBDE8704010A14FF4A670FCF7C5
:1066000039BDFFF765FB688803280DD320460FA12D
:1066100006E0FFF75DFB6888032805D320460FA13D
:10662000BDE8704003F02ABA70BD0000E803002006
:10663000180B0100400A0100780000202E2E5C2E6D
:106640002E5C2E2E5C6D61696E2E63005345545F87
:10665000424F4F545F50524F544F00005345545FC8
:106660005245504F52545F50524F544F000000005B
:10667000FEB5002604460096019602968068E9B3AE
:10668000D0E950128A4272D0D0F83C0100286ED076
:106690002046FEF7F0FBA068D0F84451002D69D0E9
:1066A000002309226946284603F0F6FBA1689DF8FD
:1066B00008500098C1F84401A06800230922D0F8CE
:1066C0004401694603F0E8FBA1689DF8082009230E
:1066D000D1F844012031521C03F0DEFBA1689DF883
:1066E0000800C877A1689DF8080088779DF8080021
:1066F000A84202D22046FDF7A5FA00E00BE0A3680D
:106700002BA208212046203301F04EFE2046FEF742
:10671000DCFB68BB43E0D0F84401002847D02046AA
:10672000FEF7A9FBA06800230922D0F844016946BE
:1067300003F0B2FBA0680199C0F84411A0680029D9
:10674000857FB9D1A030FDF76BFE0028A06805D089
:1067500000F1A0012030F9F7C1FF01E080F82060CE
:10676000A0682030FDF75CFE8DF80800B6E71EE05B
:106770001AE0FFE72030FDF753FE10F0FF05A06898
:10678000D0F83C11C0F84411A06805D000F12001F8
:10679000A030F9F7A3FF8FE780F8A0608CE72046D0
:1067A000FFF73FFA002802D02046FEF7ADFBFEBD02
:1067B00025730000FEB50D00044604D11E4940F2C9
:1067C0008450FCF757FCA1680026D1F83C0138B38F
:1067D00000230922694603F05FFB0195A0680023AE
:1067E0000922D0F83C01694603F084FB0196A068B9
:1067F000D0F83C110091807F8DF80800A068C0F8A7
:106800003C51002309226946284603F073FBA16826
:10681000092328468A7F2031521C03F06BFBFEBD02
:10682000C1F83C51A068C0F8405100960196A0689C
:10683000807F8DF80800E4E7CCDC0000FEB504465C
:106840008068D0F84061002E28D0002309226946D4
:10685000304603F021FBA16801980025C1F84001F2
:10686000009501952B46092269463046029503F0B2
:1068700041FB304603F0E1FAA168D1F8400170B164
:1068800000230922694603F007FB0095A068002356
:106890000922D0F84001694603F02CFBFEBDC1F887
:1068A0003C51FEBDFEB5044680682030FDF7B8FDC2
:1068B00010F0FF05A0684FF00006C0F8446133D027
:1068C000A068D0F83C01E0B100230922694603F03A
:1068D000E3FA9DF80820AA4213D1A068092300F129
:1068E000A001D0F83C01521C03F0D6FAA06800F1D8
:1068F000A0012030F9F7E4FE0028A06880F8A0602D
:1069000012D000260A352946606903F066FA0100B4
:10691000204604D003B0BDE8F040FFF74BBFFFF7BF
:106920008DFF761C082EEED3FEBD000008B509B120
:10693000062008BD04A002220068009069460348B2
:10694000FBF796FF08BD0000BEEF0000FCEB000067
:1069500010B512490220FCF7A3FD20B110A240F2AD
:10696000E311F9F7C9FC182200210220FCF776FD9B
:1069700020B10BA240F2E511F9F7BEFC192200216B
:106980000320FCF76BFD20B105A24FF4F371F9F77A
:10699000B3FCBDE810400120FCF7D6BB0934000071
:1069A0002E2E5C2E2E5C2E2E5C6D61696E2E630089
:1069B00000B589B01848FCF721FD20B1174A40F214
:1069C000F111F9F799FC2022154901A8F9F73FFECA
:1069D000062001900820029000208DF81800032066
:1069E00000900F4801231A4601A9503801F0AAFE71
:1069F00020B10A4A40F2F711F9F77EFC08485038F6
:106A000001F0F6FF002804D0044A40F2F911F9F72A
:106A100073FC09B000BD000009340000A06900004B
:106A200034EC00002DE9FC5F0E008346DDE90C47E5
:106A3000C6F1000098469246814600D408460125DA
:106A400003E000BF90FBFAF06D1C5045FADAA84550
:106A500000D9454624B1002E01DB780700D5641E1D
:106A6000B80702D5B8F1000F0AD0F80708D13CB139
:106A7000A54205D220215846641EFCF785FEF6E7A4
:106A8000002E02DA4E462D2102E0780703D52B2195
:106A90005846FCF779FE07F0030002280BD1B8F145
:106AA000000F08D13CB1A54205D230215846641EE2
:106AB000FCF76AFEF6E7CDE9004743465246314609
:106AC000584607F02FFCBDE8FC9F000070B50E464D
:106AD000054600684FF48E7103F075FF4FF4A27104
:106AE000286803F070FF28681549C0F80413286867
:106AF000082E40F3073403D312A14520FCF7BAFA5D
:106B00007007000E002C04DB04F1E02484F800047C
:106B100005E004F00F0101F1E02181F8140D28686F
:106B200040F30730002809DB00F01F0201219140EB
:106B30004009800000F1E020C0F8001170BD0000A5
:106B4000800002002E2E5C2E2E5C2E2E5C2E2E5CE3
:106B50002E2E5C2E2E5C696E746567726174696F8F
:106B60006E5C6E7266785C6E7266785F676C756577
:106B70002E68000070B50E46044600684FF4887118
:106B800003F032FF4FF49071206803F02DFF4FF4B3
:106B90009271206803F028FF4FF4A271206803F07F
:106BA00023FF4FF4AC71206803F01EFF20681549E5
:106BB000C0F804132068082E40F3073503D312A150
:106BC0004520FCF757FA7007000E002D04DB05F195
:106BD000E02585F8000405E005F00F0101F1E02152
:106BE00081F8140D206840F30730002809DB00F01D
:106BF0001F02012191404009800000F1E020C0F80F
:106C0000001170BD100342002E2E5C2E2E5C2E2E25
:106C10005C2E2E5C2E2E5C2E2E5C696E7465677267
:106C20006174696F6E5C6E7266785C6E7266785FB6
:106C3000676C75652E6800000246002012685307D5
:106C400013D502F00300012802D002280CD105E080
:106C5000C2F383100B68801C184404E00223086808
:106C600003EB9252104408600120704710B5F9F709
:106C70003EFD08B1002010BD012010BD0268134682
:106C800002E08A4204D01268002AFAD10B60016047
:106C9000704700000A4810B5807860B1002401E018
:106CA000022C06D02046FCF7AFFA641C042CF7D364
:106CB00010BD0324F6E7BDE81040FCF72DBB000033
:106CC000A000002003480179C90702D00078FCF732
:106CD00031BC7047A0000020014B00F065BF0000F0
:106CE000A56E0000014B00F05FBF00007170000056
:106CF000014B00F059BF000079700000014B00F01B
:106D000053BF00006D7100007CB514460546012993
:106D100002D001F011FD38B102B02846BDE8704044
:106D20000022114601F09EBB616805A0CDE900017B
:106D300009A202212846236801F036FB7CBD000031
:106D400020756E6B6E6F776E20706172616D657409
:106D500065723A200000000025733A257325730DF3
:106D60000A0000002DE9FC41074601F0E5FC38B1BE
:106D700002B03846BDE8F0410022114601F072BB76
:106D80001248134E801B050900241AE006EB04107C
:106D9000C2681179FF2903D0527942B10DA207E0F0
:106DA00083680EA20821384601F0FEFA08E013A21B
:106DB000CDE90021836814A20821384601F0F4FAD5
:106DC000641CAC42E2D3BDE8FC810000400A010033
:106DD000200A0100656E61626C65640025730D0A0E
:106DE000092D205374617475733A2064656163746E
:106DF0006976617465640D0A0D0A00006469736147
:106E0000626C65640000000025730D0A092D205393
:106E100074617475733A2025730D0A092D20494455
:106E20003A2025640D0A0D0A0000000010B5044642
:106E300001F082FC30B120460022BDE8104011462E
:106E400001F010BB2046BDE8104002A2022101F073
:106E5000ABBA00004E6F7420737570706F727465FA
:106E6000642E0D0A0000000010B5044601F064FC19
:106E700030B120460022BDE81040114601F0F2BAC0
:106E80002046BDE8104002A2022101F08DBA0000A8
:106E90004E6F7420737570706F727465642E0D0A76
:106EA000000000002DE9FF4FC86881B01D46007941
:106EB00017004FF00006009057D0072245A1286820
:106EC000F9F715FC78B1082244A12868F9F70FFCFE
:106ED00000282FD02B6843A2019805B00221BDE8FD
:106EE000F04F01F061BA012F02D0022F08D008E064
:106EF000019805B041A2BDE8F04F022101F054BA5B
:106F00000126DFF8108100240A2258F8241068684E
:106F1000F9F7EDFB10B1641C052CF5D3052C06D058
:106F200004F0FF090224002E51D0002419E03AA2F7
:106F30006B68D1E7012F4FF00009F6D0012446E03D
:106F40004A462146009800F09BFB48B900212046A4
:106F500002F0C6FE034638A20221019801F024FA8D
:106F6000641C02F067FEA042EAD805B0BDE8F08FCD
:106F70004FF0000A55F824B002F05CFE804600266F
:106F800009E00021304602F0ABFE20225946F9F715
:106F9000AEFB58B1761C4645F3D3464508D04A4669
:106FA0005146009800F06CFB30B10FE0B246F4E7B8
:106FB00055F8243029A205E00021504602F090FE49
:106FC00003461DA20221019801F0EEF9641CBC42A7
:106FD000CED3CAE7656E61626C6500006469736157
:106FE000626C6500556E6B6E6F776E206F707469A2
:106FF0006F6E3A2025730D0A000000004261642084
:10700000706172616D6574657220636F756E742E48
:107010000D0A0000E0020020556E6B6E6F776E2047
:107020007365766572697479206C6576656C3A2053
:1070300025730D0A000000004C6576656C20756EA6
:10704000617661696C61626C6520666F72206D6F3C
:1070500064756C653A2025730D0A0000556E6B6EE1
:107060006F776E206D6F64756C653A25730D0A003D
:10707000C968012048717047C9680020487170478D
:10708000704730B41346C4680A46214630BCFFF747
:1070900009BFC0680121C06841717047C068002104
:1070A000C0684171704730B41346C4680A4621462F
:1070B00030BC00F05BB800002DE9FF4100262748F6
:1070C00000F0A5FB2548001F074600F0A0FB244C5C
:1070D0002449A06800900D6800E0009869462840A7
:1070E00004EB80000C30FFF7A7FD0028F5D101AAC2
:1070F000009901EA050304EB8303491CDB6842F8AD
:107100002030401C00910228F2D3019800F00300C7
:1071100001281AD002280ED013494FF4AF70FBF7A4
:10712000A9FF384600F070FB08B10098A06004B0D9
:107130003046BDE8F0810198032101EB90500099A1
:10714000BDF80A6001EB900005E00198BDF80A6007
:10715000C0F3831008440090E3E70000CC13002044
:10716000B40F0020DC020020380401002DE9FE4F9E
:107170008846824602F05EFD0746D8F80C0040794A
:1071800020B922A20221504601F00EF924A327A221
:107190000821504601F008F92CA20821504601F0C0
:1071A00003F900242DE000BFD8F80C0001231A4693
:1071B00005792146284602F047FD81460023012239
:1071C0002146284602F040FD0546032801D2064626
:1071D00000E003260121204602F082FD0346AE4274
:1071E00001D22AA200E028A2294850F8261050F81F
:1071F00029008DE8070027A20821504601F0D4F8A5
:10720000641CBC42D0D3BDE8FE8F00004C6F677396
:10721000206172652068616C746564210D0A00004C
:107220006D6F64756C655F6E616D6500252D343022
:1072300073207C2063757272656E74207C20627589
:10724000696C742D696E200D0A0000002D2D2D2D06
:107250002D2D2D2D2D2D2D2D2D2D2D2D2D2D2D2D5E
:107260002D2D2D2D2D2D2D2D2D2D2D2D2D2D2D2D4E
:107270002D2D2D2D2D2D2D2D2D2D2D2D2D2D2D2D3E
:107280002D2D2D2D2D2D0D0A000000002A000000AF
:10729000E0020020252D343073207C20252D37730B
:1072A000207C20257325730D0A0000004FF48041D7
:1072B000002002F06FFC20B13AA240F21721F9F74A
:1072C0001BF801F089FC20B136A240F21A21F9F72F
:1072D00013F8002001F0D4FC01F0A2FC0028FBD040
:1072E000FAF770F920B12FA24FF40971F9F704F8F9
:1072F000304A01213048FAF727F920B129A240F29B
:107300002721F8F7F9FFFFF723FBFFF751FB2C4884
:107310002C4A2A4D801AC0086988032202EB0044D7
:10732000032903D3204628A102F0A8FB2248743089
:10733000FBF7D6FB20B11BA24FF40C71F8F7DCFF72
:107340006888032803D3204622A102F097FB1A4C39
:1073500029491C342046FEF787FF20B111A24FF4C3
:107360000E71F8F7C9FF2046FAF766FA20B10DA2B0
:1073700040F23B21F8F7C0FFFBF774FC20B109A2F3
:107380004FF41071F8F7B8FFFBF72AF90028FBD18A
:10739000FEF7AEFF0848001D01F0C4FA02F034FA0F
:1073A00020BFF1E72E2E5C2E2E5C2E2E5C6D6169C7
:1073B0006E2E6300F5760000E0EB0000E80300208D
:1073C000180B0100400A010048656C6C6F20555392
:1073D0004221000055534244204849442067656ECD
:1073E00065726963206578616D706C652073746186
:1073F000727465642E0000002D6900002DE9FF4FB6
:107400004FF0000881B014468B468146C246C0F852
:1074100000802578002D71D0F9F7BEF80090006843
:10742000405DC00702D004F801AB84E0D9F8000049
:107430008300401CC9F800004BF8034015E0267893
:10744000002E78D0B8F1000F05D1222E10D0272EB3
:107450000ED05C2E1ED0B04514D12046FCF7E0FFC4
:107460000246611C2046F9F7F2F84FF00008E6E703
:107470002046FCF7D5FF0246611C2046F9F7E7F8E5
:10748000B046DCE7B8F1000F50D05C2E6AD16078CE
:10749000404508D12046FCF7C3FF0246611C204648
:1074A000F9F7D5F85EE030281CD100270225605D91
:1074B000A0F13001072906D86D1C41EAC701EDB2E1
:1074C000CFB2052DF3D3022D0CD92046FCF7A8FF2F
:1074D000421B61192046491E921CF9F7B8F804F8BE
:1074E000017BACE778281ED100270225605DA0F162
:1074F0003001092903D841EA07100DE021E0A0F18D
:107500006101052901D8573804E0A0F1410105299E
:1075100007D8373840EA07106D1CEDB2C7B2042D0A
:10752000E4D3022DD1D8B8F1000F1BD10098006828
:10753000805DC00716D0D9F8001004988142FFF48E
:1075400068AFD9F800000C2804D907A140F2045014
:10755000FBF790FDD9F8002040464BF822A005B07B
:10756000BDE8F08F641C6AE72E2E5C2E2E5C2E2E5A
:107570005C2E2E5C2E2E5C2E2E5C636F6D706F6EFB
:10758000656E74735C6C69627261726965735C6369
:107590006C695C6E72665F636C692E63000000004C
:1075A0002DE9F05F1E46DDF828B091468A460400BA
:1075B00003D124A19020FBF75DFDB4F8068060792B
:1075C00008FB00F8A8F10408464503D31DA19E203E
:1075D000FBF750FDE788301DB0FBF7F1B0FBF7F289
:1075E00007FB1200D9F80050AA19424501D9A8EBAF
:1075F0000605C9F8005001E02468491E0029FBD1A6
:107600003E1A8846AE4215D817E000BF2044001D40
:107610000AEB0803BBF1000F324602D001461846C0
:1076200000E01946F9F713F800202468AD1BB044B8
:10763000AF4201D92E4600E03E46002DE6D1BDE81E
:10764000F09F00002E2E5C2E2E5C2E2E5C2E2E5CCB
:107650002E2E5C2E2E5C636F6D706F6E656E747374
:107660005C6C69627261726965735C6D656D6F6295
:107670006A5C6E72665F6D656D6F626A2E63000094
:1076800070B5144600230D4606461A4602F0DCFA91
:10769000844201D9002070BD22462946304602F0BE
:1076A000F7FA012070BD000030B5024651B102F07A
:1076B000C1FA0021074C08E034F821301568AB42CC
:1076C00002D11160002030BD491C8142F4D3052055
:1076D00030BD00007C03002010B50C460021E160A5
:1076E00061600349A160012102F0FAFA206010BD37
:1076F0002CF3000010B50020FBF77AFE40B1032107
:107700000020FEF7C5FD0120FBF772FE20B910BD79
:107710000120FBF76DFE28B10321BDE810400120D8
:10772000FEF7B6BD02480068BDE81040F9F7C2BFD9
:10773000E0EB000070B58468006804F11405FCF704
:107740006FFEC1B2A971E07F6A790844B0FBF2F321
:1077500002FB13035B1C2B70E07F0844B0FBF2F3C9
:107760005B1CAB70A07F0844B0FBF2F35B1CEB70BA
:10777000A07F0844B0FBF2F102FB1101491C6970C3
:10778000284670BD10B531B1B2FBF3F403FB1424ED
:107790001CB1092010BD0E2010BD01600021416008
:1077A00081608281C381084610BD70B50C460546D4
:1077B000F8F7CAFD002802D021882868084470BD67
:1077C00010B50A8849888A4203D1F8F7FFFD0120E5
:1077D00010BD002010BD70B50C460546F8F7D9FD68
:1077E000002802D061882868084470BD10B50A8856
:1077F00049888A4203D1F8F7C3FD012010BD00205B
:1078000010BD002100F00FB8002100F012B80121D6
:1078100000F01EB8012100F011B808B56A46F8F76B
:107820002AFE009808BD08B56A46F8F70AFE0098D7
:1078300008BD08B56A46F8F704FE08BD08B56A46F3
:10784000F8F7F2FD08BD08B56A46F8F7E1FD08BD96
:1078500008B56A46F8F7E8FD009808BD08B56A461D
:10786000F8F716FE009808BD08B56A46F8F732FE2C
:10787000009808BD70B5040003D113A1FE20FBF7EA
:10788000F9FB00252846FBF711FB206862680168B8
:10789000914214D9491E01600D781CB919A1C2206A
:1078A000FBF7E8FB208BE16805FB00152068217AD7
:1078B0000278891A0279C9B28A4200D20171002085
:1078C000FBF722FB284670BD2E2E5C2E2E5C2E2E42
:1078D0005C2E2E5C2E2E5C2E2E5C636F6D706F6E98
:1078E000656E74735C6C69627261726965735C6207
:1078F000616C6C6F635C6E72665F62616C6C6F630F
:107900002E6300002E2E5C2E2E5C2E2E5C2E2E5C06
:107910002E2E5C2E2E5C636F6D706F6E656E7473B1
:107920005C6C69627261726965735C62616C6C6FD8
:10793000635C6E72665F62616C6C6F632E630000E5
:1079400070B50C46050004D110A140F22110FBF7E0
:1079500091FB24B90DA14FF49170FBF78BFB002034
:10796000FBF7A4FA1DB91849CF20FBF783FBE868A1
:107970002A68211A288BB1FBF0F11068431C1360B0
:107980000170BDE870400020FBF7BEBA2E2E5C2EC1
:107990002E5C2E2E5C2E2E5C2E2E5C2E2E5C636FAB
:1079A0006D706F6E656E74735C6C69627261726922
:1079B00065735C62616C6C6F635C6E72665F626162
:1079C0006C6C6F632E6300000479000010B5040036
:1079D00002D0206830B901E00E2010BD17A1D920D7
:1079E000FBF748FB606818B914A1DA20FBF742FBEB
:1079F000A06818B911A1DB20FBF73CFBE06818B9BF
:107A00000EA1DC20FBF736FB208B18B90BA1DD2083
:107A1000FBF730FB207A61682268401AC0B211601F
:107A200004E0226811684B1C13600870401EC0B24D
:107A3000F7D221680020087110BD00002E2E5C2EA8
:107A40002E5C2E2E5C2E2E5C2E2E5C2E2E5C636FFA
:107A50006D706F6E656E74735C6C69627261726971
:107A600065735C62616C6C6F635C6E72665F6261B1
:107A70006C6C6F632E6300002DE9F04F81468068C7
:107A800089B0D0F84801C0F3400038B109B0484689
:107A9000BDE8F04F0022114600F0E4BC012907D9EF
:107AA00009B04846BDE8F04F24A2022100F07CBC9A
:107AB00027492848081A1C21B0FBF1F8002538E0B6
:107AC0002448C5EBC50110EB81044FF0000AB4F85F
:107AD00018B0D4E90101A1EB000604D11EA140F2C7
:107AE0001F10FBF7C7FA2068077924B91AA140F2E2
:107AF0002F10FBF7BFFA2068217A0078081AC0B26D
:107B0000642117FB01F1B1FBF6F2642110FB01F1D6
:107B1000B1FBF6F16369CDE90210CDE90462CDE96C
:107B20000676CDE900BA1B4A0821484600F03CFC25
:107B30006D1C4545C4D309B0BDE8F08F4261642097
:107B4000617267756D656E7420636F756E74000089
:107B5000580B0100200B01002E2E5C2E2E5C2E2EC9
:107B60005C2E2E5C2E2E5C2E2E5C636F6D706F6E05
:107B7000656E74735C6C69627261726965735C6274
:107B8000616C6C6F635C6E72665F62616C6C6F637C
:107B90002E68000040FC0000C20800F0070301202E
:107BA000895C9840084070472DE9FF5F8B46164876
:107BB00014499A46091A0F09914652F8046C002597
:107BC000804607E008EB05143046A168F8F778FD19
:107BD00018B16D1CBD42F5D30BE0210009D000980F
:107BE00004B04B465A46D446BDE8F04F5DF804EB6E
:107BF0006047009804B03346BDE8F05F03A202215D
:107C000000F0D2BB400A0100200A0100496E7661F3
:107C10006C6964206261636B656E643A2025730D44
:107C20000A00000070B515468268D2F84841C4F3D6
:107C3000400424B11A46294600F014FC05E031B195
:107C4000536804A2022100F0AFFB012070BD0020A8
:107C500070BD000025733A2077726F6E67207061E7
:107C600072616D6574657220636F756E740A0000D1
:107C700070B50D46040004D122A140F63950FBF73F
:107C8000F9F9A06818B1606808B1206820B91DA191
:107C900040F63A50FBF7EEF9022D0CD1A068D0F86F
:107CA0004801C0F3400030B12046BDE870400022DA
:107CB000114600F0D7BB40F642551CB911A1284629
:107CC000FBF7D8F9206918B90EA12846FBF7D2F9BD
:107CD0001A4A1BA1206901F0C7F840F643551CB9A8
:107CE00008A12846FBF7C6F9206918B905A128465E
:107CF000FBF7C0F92069BDE87040104A10A10932B5
:107D000001F0B2B82E2E5C2E2E5C2E2E5C2E2E5C38
:107D10002E2E5C2E2E5C636F6D706F6E656E7473AD
:107D20005C6C69627261726965735C636C695C6EDC
:107D300072665F636C692E63000000004DF1000005
:107D40002573000070B50D46040004D113A140F660
:107D50004850FBF78FF9A06818B1606808B1206837
:107D600020B90EA140F64950FBF784F9012D07D048
:107D7000022D0CD1A068D0F84801C0F3400030B10A
:107D80002046BDE870400022114600F06BBB204643
:107D9000BDE870400FA2022100F006BB2E2E5C2E23
:107DA0002E5C2E2E5C2E2E5C2E2E5C2E2E5C636F97
:107DB0006D706F6E656E74735C6C6962726172690E
:107DC00065735C636C695C6E72665F636C692E637D
:107DD00000000000506C6561736520737065636915
:107DE0006679206120737562636F6D6D616E642EBC
:107DF0000A0000001CB5012905D002290BD014D9B6
:107E00004FF0010112E002B04FF00002BDE8104057
:107E1000114600F027BB536808A1CDE90013136891
:107E20000CA2022100F0C0FA1CBD002102B0002308
:107E3000BDE810401A46FFF7F5BE000020756E6BD6
:107E40006E6F776E20706172616D657465723A2035
:107E50000000000025733A257325730A0000000016
:107E600010B50446012901D0012100E000210023C2
:107E70001A46FFF7D7FE002809D1A168C1F83801DA
:107E8000E06840680068BDE8104002F06BB910BDC2
:107E90003EB50546012901D0012100E00021002363
:107EA0001A46FFF7BFFE002818D1E868406804684A
:107EB000204602F02DF9C0B2642110FB01F2A16846
:107EC000B2FBF1F2D2B20092CDE90101A86804A29E
:107ED0000021D0F83831284600F066FA3EBD000097
:107EE0004C6F7374206C6F67733A2025750A4D616F
:107EF00078206C6F67207175657565207574696C85
:107F0000697A6174696F6E3A2025752525205B2595
:107F1000752F25755D0A00007CB515460E460400D8
:107F200004D118A140F66950FBF7A4F8A06818B175
:107F3000606808B1206820B912A140F66A50FBF7CA
:107F400099F8012E03D0022E09D0012108E002B0D9
:107F50002046BDE870400022114600F083BA00219F
:107F600000231A462046FFF75DFE002809D1696804
:107F700012A0CDE9000117A2022120462B6800F0D3
:107F800013FA7CBD2E2E5C2E2E5C2E2E5C2E2E5CCB
:107F90002E2E5C2E2E5C636F6D706F6E656E74732B
:107FA0005C6C69627261726965735C636C695C6E5A
:107FB00072665F636C692E630000000020756E6B53
:107FC0006E6F776E20706172616D657465723A20B4
:107FD0000000000025733A257325730A0000000095
:107FE00010B50446012901D0012100E00021002341
:107FF0001A46FFF717FE002806D1A068D0F84811EE
:1080000021F00401C0F8481110BD10B50446012943
:1080100001D0012100E0002100231A46FFF702FEF3
:10802000002806D1A068D0F8481141F00401C0F83A
:10803000481110BD7CB514460D460646022901D9EB
:10804000012100E0002100231A46FFF7EBFD002884
:1080500011D1022D05D03046FBF7A0FF60B10BA374
:108060000BE061680AA0CDE900010FA202213046B1
:10807000236800F099F97CBD0EA302B03046BDE83C
:1080800070400DA2002100F08FB900006F6E00005B
:1080900020756E6B6E6F776E20706172616D6574A6
:1080A00065723A200000000025733A257325730A93
:1080B000000000006F6666004563686F207374619E
:1080C0007475733A2025730A0000000010B5044649
:1080D000012901D0012100E0002100231A46FFF709
:1080E000A1FD002806D1A068D0F8481121F00801B0
:1080F000C0F8481110BD10B50446012901D0012176
:1081000000E0002100231A46FFF78CFD002806D16D
:10811000A068D0F8481141F00801C0F8481110BD1E
:108120007FB50D46040004D122A140F6A150FAF714
:10813000A1FFA06818B1606808B1206820B91DA12E
:1081400040F6A250FAF796FF012D01D0012100E080
:10815000002100231A462046FFF764FD002827D19E
:10816000A0680026D0F84051F5B101E0082E1BD2DE
:108170000023092201A9284601F08EFE9DF80C205B
:10818000A16809232846A031521C01F085FEA06891
:108190003346A0300090029D761C14A20021204698
:1081A00000F002F9002DE1D1A168002081F8A000C3
:1081B0007FBD00002E2E5C2E2E5C2E2E5C2E2E5CA3
:1081C0002E2E5C2E2E5C636F6D706F6E656E7473F9
:1081D0005C6C69627261726965735C636C695C6E28
:1081E00072665F636C692E63000000005B25336478
:1081F0005D2025730A0000007CB515460E4604007C
:1082000004D120A140F60260FAF734FFA06818B14B
:10821000606808B1206820B91AA140F60360FAF737
:1082200029FF012E03D0022E18D9012117E0A168E1
:10823000204601F11802193105F00AFD00281FD06F
:10824000A16850201DA24876A1681820087602B0C7
:108250002046BDE87040042100F0A6B800210023AC
:108260001A462046FFF7DEFC002809D1696822A0E3
:10827000CDE9000126A2022120462B6800F094F8E7
:108280007CBD00002E2E5C2E2E5C2E2E5C2E2E5CD5
:108290002E2E5C2E2E5C636F6D706F6E656E747328
:1082A0005C6C69627261726965735C636C695C6E57
:1082B00072665F636C692E63000000004E6F20726F
:1082C0006573706F6E73652066726F6D207468657C
:1082D000207465726D696E616C2C20617373756DAD
:1082E00065642038307832342073637265656E209F
:1082F00073697A650A00000020756E6B6E6F776E89
:1083000020706172616D657465723A200000000032
:1083100025733A257325730A0000000070B50446E2
:10832000012901D0012100E0002100231A46FFF7B6
:1083300079FC002817D140F6FB551CB90AA1284644
:10834000FAF798FE206918B907A12846FAF792FEB5
:10835000134A14A1206900F087FDA16850204876D7
:10836000A1681820087670BD2E2E5C2E2E5C2E2E55
:108370005C2E2E5C2E2E5C2E2E5C636F6D706F6EED
:10838000656E74735C6C69627261726965735C635B
:108390006C695C6E72665F636C692E63000000003E
:1083A00066F10000257300000FB4F8B50446089884
:1083B0000E4620B91DA140F63B30FAF75BFE24B90A
:1083C0001AA140F63C30FAF755FEA06818B1606873
:1083D00008B1206820B915A140F63D30FAF74AFEF1
:1083E00009A80090A068D0F84811490718D5C17EA7
:1083F000B14215D0B0F81B503146204606F0A4FB20
:108400006A462069089900F09BFDE9B2204606F013
:108410009BFB290A204606F079FBF8BC5DF814FBAB
:108420006A462069089900F08BFDF6E72E2E5C2E37
:108430002E5C2E2E5C2E2E5C2E2E5C2E2E5C636F00
:108440006D706F6E656E74735C6C69627261726977
:1084500065735C636C695C6E72665F636C692E63E6
:10846000000000002DE9F04F89B090460D46040051
:1084700004D18EA140F6BC30FAF7FCFDA06818B11B
:10848000606808B1206820B988A140F6BD30FAF7CD
:10849000F1FD9448FBF7C4FF064692483638FBF7D7
:1084A000BFFF301A1FFA80F98E488FA22338009040
:1084B000A068082143682046FFF776FFA06840685F
:1084C000FBF7AEFF064687482338FBF7A9FF304489
:1084D00082B2A068002381682046FDF729FB84A2B0
:1084E00000212046FFF760FFB8F1000F21D005B34F
:1084F00000261CE006EB460A05EB8A0BDBF80400BD
:10850000FBF78EFF074655F82A00FBF789FF39185D
:1085100049450BD9DBF80400FBF782FF074655F805
:108520002A00FBF77DFF38441FFA80F9761C464588
:10853000E0D36C483638FBF773FF4844801C1FFAC1
:1085400080F9684800904B466CA208212046FFF74E
:108550002BFF09F1030087B2079000233A4669A177
:108560002046FDF7E5FA002D51D000264DE000BF72
:1085700006EB460A05EB8A0B55F82A00DBF80430B7
:1085800063B348B3574964A23639CDE900100821D6
:108590002046FFF709FF09F102000090DBF8040014
:1085A000FBF73EFF074655F82A00FBF739FF074463
:1085B0004C483638FBF734FF39180098401A801EB3
:1085C000C1B22046FCF76EFD3A225649206900F000
:1085D0004BFC0098401C0AE0009301E040B1009081
:1085E0004B4646A208212046FFF7DEFE079887B2D9
:1085F000DBF8081029B100233A462046FDF798FA27
:1086000002E02046FCF780FC761C4645B0D3A0680B
:10861000C068002847D0814600200646054603AFC3
:1086200002902A466D1C02AB012148460097FCF7D8
:10863000A1FA029850B10068FBF7F2FEB042F0D9FF
:1086400002980068FBF7ECFE86B2EAE7012D2AD01B
:1086500035A200212046FFF7A7FE0025B8462A468E
:108660006D1C02AB01214846CDF80080FCF782FA70
:108670000298002817D0B11C8FB2006800903B46CA
:108680001EA208212046FFF78FFE0298FF1CBAB2F7
:10869000416821B100232046FDF74AFADFE7204672
:1086A000FCF732FCDBE709B0BDE8F08F2E2E5C2E24
:1086B0002E5C2E2E5C2E2E5C2E2E5C2E2E5C636F7E
:1086C0006D706F6E656E74735C6C696272617269F5
:1086D00065735C636C695C6E72665F636C692E6364
:1086E000000000006CF100002573257300000000FD
:1086F0004F7074696F6E733A0A0000002020252DB8
:108700002A733A0053686F7720636F6D6D616E64F2
:108710002068656C702E000020202573257325735A
:1087200000000000943B0000537562636F6D6D6143
:108730006E64733A0A0000008068D0F84801C0F304
:10874000400070472DE9F0411E46DDF818801546BF
:108750000F46040004D10EA140F67E20FAF78AFCF1
:108760002A463946204600F02FF805000DD166B1A3
:108770004146E06800F024FF002802DA0420BDE84A
:10878000F081E0680121C06841712846F7E70000E8
:108790002E2E5C2E2E5C2E2E5C2E2E5C2E2E5C2E13
:1087A0002E5C636F6D706F6E656E74735C6C696266
:1087B0007261726965735C636C695C6E72665F633B
:1087C0006C692E63000000002DE9F04715460E4647
:1087D000040004D13EA140F62120FAF74BFCA0682A
:1087E00018B1606808B1206820B939A140F622208C
:1087F000FAF740FCE0682346434A406884606068BA
:1088000001680F683146B84700285ED1606920B919
:108810002FA140F63120FAF72DFC606901F02AFB08
:10882000002852D1A168C1F83C01A168C1F84001FB
:108830004FF4A671A068F7F731FFA068D0F848118F
:1088400041F02001C0F84811A068D0F8481165F344
:108850008201C0F84811A068D0F8481141F0080121
:10886000C0F84811A1680120284F0870A168502065
:1088700040F64D294876A16818200024087624483F
:10888000244940F64E2A0D1A804612E018EBC40621
:1088900003D10FA14846FAF7EDFB7068006818B9DC
:1088A0000BA15046FAF7E6FB7068006847F8240011
:1088B000641CB4EBD50FE9D3072D05D9E908164B95
:1088C00004223846F7F775FE0020BDE8F087000067
:1088D0002E2E5C2E2E5C2E2E5C2E2E5C2E2E5C2ED2
:1088E0002E5C636F6D706F6E656E74735C6C696225
:1088F0007261726965735C636C695C6E72665F63FA
:108900006C692E6300000000454700005C030020F6
:10891000E0090100200A010095DB00000023FCF7BC
:108920003BB8000010B5040004D122A140F6053088
:10893000FAF7A0FBA06818B1606808B1206820B9F8
:108940001CA140F60630FAF795FBA068102100F54F
:10895000A470FEF77DFFA0680078F8B101281DD053
:1089600002281BD12046FBF70DFC00212046FBF717
:108970001BFB98B11DA2032120462368FFF714FDBD
:108980002046FBF70BFB48B1A36818A2082120463C
:108990002033FFF709FD2046FCF74EFB206900F06D
:1089A000A3FAA068BDE810406FF0100100F5A470B4
:1089B000FEF739BF2E2E5C2E2E5C2E2E5C2E2E5CEA
:1089C0002E2E5C2E2E5C636F6D706F6E656E7473F1
:1089D0005C6C69627261726965735C636C695C6E20
:1089E00072665F636C692E630000000025730000EF
:1089F00070B5040004D117A140F6D420FAF73AFB71
:108A0000A06818B1606808B1206820B911A140F6CB
:108A1000D520FAF72FFBA0680078012801D00820A4
:108A200070BD606801688A680021904705000FD119
:108A30000821204606F088F80121204606F066F855
:108A400012A1206900F010FA02212046FBF7D4FCA5
:108A5000284670BD2E2E5C2E2E5C2E2E5C2E2E5C9B
:108A60002E2E5C2E2E5C636F6D706F6E656E747350
:108A70005C6C69627261726965735C636C695C6E7F
:108A800072665F636C692E63000000000A0A0000D2
:108A900000F180400068002800D00120704708B530
:108AA00000F18040002101600068009008BD0000D6
:108AB00010B5104C207820B90FA14FF49770FAF739
:108AC000D9FA606820B90CA140F22F10FAF7D2FA57
:108AD0000020FAF7EBF96068401E6060606818B922
:108AE00002F0F4F900206070BDE810400020FAF7B1
:108AF0000BBA0000740800202E2E5C2E2E5C2E2E49
:108B00005C2E2E5C2E2E5C2E2E5C696E7465677258
:108B10006174696F6E5C6E7266785C6C65676163C8
:108B2000795C6E72665F6472765F636C6F636B2EE6
:108B30006300000070B5184C0546207820B917A1D5
:108B400040F20D10FAF796FA607838B115B16968FD
:108B5000002088470020FAF7A9F90CE00020FAF776
:108B6000A5F925B10C4829460830FEF787F860685A
:108B700008B902F07BF96068401C60600020FAF7D9
:108B8000C3F96068002806D1BDE8704003A140F237
:108B90002910FAF76FBA70BD740800202E2E5C2ED3
:108BA0002E5C2E2E5C2E2E5C2E2E5C2E2E5C696E84
:108BB000746567726174696F6E5C6E7266785C6C06
:108BC00065676163795C6E72665F6472765F636C21
:108BD0006F636B2E6300000070B50C4C012520788C
:108BE00008B185260BE00020A06060602061E06095
:108BF000074802F0ABF9064602F006F9257002F0CC
:108C0000F5F800B1A570304670BD00007408002072
:108C1000894A00000148007870470000740800206D
:108C2000064810B5007818B905A1FF20FAF722FA16
:108C300012480068C0F3004010BD00007408002016
:108C40002E2E5C2E2E5C2E2E5C2E2E5C2E2E5C2E5E
:108C50002E5C696E746567726174696F6E5C6E72AA
:108C600066785C6C65676163795C6E72665F64727E
:108C7000765F636C6F636B2E630000001804004026
:108C800070B5174C0546207818B916A1D020FAF710
:108C9000F1F9A07838B115B1696801208847002042
:108CA000FAF704F90CE00020FAF700F925B10C48B6
:108CB00029461030FDF7E2FFE06808B902F0A4F998
:108CC000E068401CE0600020FAF71EF9E068002828
:108CD00005D1BDE8704003A1EC20FAF7CBB970BD17
:108CE000740800202E2E5C2E2E5C2E2E5C2E2E5C08
:108CF0002E2E5C2E2E5C696E746567726174696FCE
:108D00006E5C6E7266785C6C65676163795C6E72CE
:108D1000665F6472765F636C6F636B2E6300000046
:108D200010B5074C217809B1852010BD00B9054860
:108D300002F052FB0028F8D10121217010BD000083
:108D4000140100202CED000010B5044600F007F8D7
:108D5000204602F019FC02F010FC002010BD10B5F6
:108D600002F004FCBDE8104002F03CBC2DE9F041EB
:108D7000054604781C4888B00F4640F8242008694E
:108D8000194916460831012C41F8240005D1787F95
:108D900018B916A15020FAF76DF9DFF84C80797FE9
:108DA000A8F10408202208F8041039466846F7F7AD
:108DB0004EFC0494297818F8010050B10EB11A4AFB
:108DC00000E000226946281D02F08EFE08B0BDE8D2
:108DD000F0810EB1154A00E00022694605F10C0051
:108DE00002F07AFCF2E700001C0100202E2E5C2E1F
:108DF0002E5C2E2E5C2E2E5C2E2E5C2E2E5C696E32
:108E0000746567726174696F6E5C6E7266785C6CB3
:108E100065676163795C6E72665F6472765F7561C7
:108E200072742E6300000000E1E1000021E0000008
:108E300030B40378054CE35C1BB130BC001D02F07C
:108E40007FBF30BC0C3002F055BD0000180100207F
:108E50000178044A515C11B1001D03F00FB80C30C9
:108E600002F0DABD180100200FB438B5040003D1B8
:108E700010A11C20FAF7FEF8606918B90DA11D2099
:108E8000FAF7F8F8206818B90AA11E20FAF7F2F8E4
:108E9000606818B907A11F20FAF7ECF805990029B6
:108EA00005D006A800906A46204600F049F838BC74
:108EB0005DF814FB2E2E5C2E2E5C2E2E5C2E2E5C6E
:108EC0002E2E5C2E2E5C65787465726E616C5C660D
:108ED0007072696E74665C6E72665F667072696EDF
:108EE00074662E630000000010B5040003D107A1D2
:108EF0000B20FAF7BFF8A268002A05D0D4E90403D2
:108F0000216898470020A06010BD00002E2E5C2E26
:108F10002E5C2E2E5C2E2E5C2E2E5C2E2E5C65780A
:108F20007465726E616C5C667072696E74665C6E9C
:108F300072665F667072696E74662E630000000070
:108F40002DE9FC4791460C465FEA000804D183A155
:108F500040F25220FAF78EF8D8F8140020B97FA119
:108F60004FF41570FAF786F8D8F8000020B97BA105
:108F700040F25520FAF77EF8D8F8040020B977A11E
:108F800040F25620FAF776F8002C76D014F8011B40
:108F900039B125290ED04046FAF7F6FB2078002893
:108FA000F4D198F80C00002867D04046BDE8FC4793
:108FB000FFF79ABF0020012221782B291BD02D29F1
:108FC00002D0302908D102E040F0010001E040F079
:108FD0000200641C002AEFD100252A290ED0217836
:108FE000A1F130020A2A11D205EB850201EB4205FC
:108FF000641C303DF1E740F00400EAE7D9F80010C6
:109000000B1DC9F800300968641C0D442178002349
:109010002E290BD114F8011FA1F130020A2A05D222
:1090200003EB830201EB4203303BF3E76C290DD0E5
:1090300068290BD0692921D00BDC252918D05829A3
:1090400031D063290ED0642915D117E014F8011F1F
:10905000ECE7702969D0732932D075291BD07829A3
:1090600009D120E0D9F80000011DC9F800100178ED
:109070004046FAF789FB641C90E76CE0D9F80010D1
:109080000A1DC9F800200968CDE900500A224046AF
:10909000FDF7C8FCEFE7D9F800100A1DC9F8002059
:1090A00009680A2206E0D9F800100A1DC9F8002054
:1090B00009681022CDE90050404605F033F9DAE79F
:1090C000D9F8001000270A1DC9F800200E68C00753
:1090D00005D112E04046761C7F1CFAF755FB31782B
:1090E0000029F7D104E0202140466D1EFAF74CFB21
:1090F000BD42C0D9002DF6D1BDE74EB13046F7F7DD
:10910000D8FA074604E0202140466D1EFAF73CFBE2
:10911000BD4206D9002DF6D103E04046761CFAF791
:1091200033FB31780029F8D1A5E7D9F80000011DFB
:10913000C9F80010056830214046FAF725FB782170
:109140004046FAF721FB08200021CDE90001034643
:1091500010222946B0E7BDE8FC8700002E2E5C2EC9
:109160002E5C2E2E5C2E2E5C2E2E5C2E2E5C6578B8
:109170007465726E616C5C667072696E74665C6E4A
:1091800072665F667072696E74665F666F726D613B
:10919000742E63002DE9FF411C46DDE90A7815466F
:1091A0000E46684600F0C2F846EA450141EA8401ED
:1091B00041EA072242EA0841009A00EB8200C0F827
:1091C0000017BDE8FF812DE9FF411C46DDE90A7863
:1091D00015460E46684600F0E9F846EA450141EAC0
:1091E000840141EA072242EA0841009A00EB82002A
:1091F000C0F80017BDE8FF812DE9FF411C46DDE9FD
:109200000A7815460E46684600F000F946EA450120
:1092100041EA840141EA072242EA0841009A00EB50
:109220008200C0F80017BDE8FF812DE9FF411C4610
:10923000DDE90A7815460E46684600F027F946EA49
:10924000450141EA840141EA072242EA0841009AC5
:1092500000EB8200C0F80017BDE8FF811CB50021BB
:1092600000910B4601220191FFF7C6FF1CBD1CB502
:10927000002100910B4601220191FFF7D6FF1CBD92
:109280001CB500220B46009211460192FFF7B4FF75
:109290001CBD1CB500220B46009211460192FFF73F
:1092A000C4FF1CBD1CB5002100910B460122019199
:1092B0001146FFF7A1FF1CBD1CB5002100910B4614
:1092C000012201911146FFF7B0FF1CBD13B50C46FA
:1092D000684600F06BF8009900EB8101D1F8002797
:1092E00022F44032C1F80027009900EB8100D0F849
:1092F000001741EA0441C0F800171CBD3CB50A4CF8
:10930000D4E90034CDE900346B46441808E000BFCE
:1093100053F82010D1F8205520C2C1F82055401C28
:109320008442F5D83CBD000030ED000010B5016866
:1093300004464A094FF0000002D0012A05D102E09C
:109340004FF0FF3001E04FF6FF7001F01F020121E6
:109350009140014204D108A14FF4E370F9F78AFE6D
:109360002068202802D24FF0A04010BD00F01F005E
:1093700020600D4810BD00002E2E5C2E2E5C2E2E7F
:109380005C2E2E5C2E2E5C2E2E5C6D6F64756C65D3
:10939000735C6E7266785C68616C5C6E72665F6747
:1093A00070696F2E680000000003005010B504467D
:1093B000006800F0ABF820B907A14FF4E370F9F7AB
:1093C00059FE2068202802D24FF0A04010BD00F0C6
:1093D0001F0020600C4810BD2E2E5C2E2E5C2E2E01
:1093E0005C2E2E5C2E2E5C2E2E5C6D6F64756C6573
:1093F000735C6E7266785C68616C2F6E72665F6714
:1094000070696F2E680000000003005010B50168FD
:1094100004464A094FF0000002D0012A05D102E0BB
:109420004FF0FF3001E04FF6FF7001F01F02012105
:109430009140014204D108A14FF4E370F9F71AFEFC
:109440002068202802D24FF0A04010BD00F01F007D
:1094500020600D4810BD00002E2E5C2E2E5C2E2E9E
:109460005C2E2E5C2E2E5C2E2E5C6D6F64756C65F2
:10947000735C6E7266785C68616C2F6E72665F6793
:1094800070696F2E680000000003005010B501687D
:1094900004464A094FF0000002D0012A05D102E03B
:1094A0004FF0FF3001E04FF6FF7001F01F02012185
:1094B0009140014204D108A14FF4E370F9F7DAFDBD
:1094C0002068202802D24FF0A04010BD00F01F00FD
:1094D00020600D4810BD00002E2E5C2E2E5C2E2E1E
:1094E0005C2E2E5C2E2E5C2E2E5C6D6F64756C6572
:1094F000735C6E7266785C68616C2F6E72665F6713
:1095000070696F2E680000000003005042094FF0A0
:10951000000102D0012A05D102E04FF0FF3101E045
:109520004FF6FF7100F01F00012282400A4201D075
:10953000012070470020704701B56846FFF736FFED
:10954000D0F810050099C84000F0010008BD01B531
:109550006846FFF75BFF009A01219140C0F80815AB
:1095600008BD01B56846FFF791FF009A01219140BF
:10957000C0F8081508BD38B501240090684631B11F
:10958000FFF7D4FE00998C40C0F8084538BDFFF7BE
:10959000CDFE00998C40C0F80C4538BD034908B594
:1095A0000844002101600068009008BD0060004090
:1095B00002494058012800D0002070470060004058
:1095C0002DE9F041054620480E460024D0F810341D
:1095D00019460AE0CA681179A14205D1641C0A2C17
:1095E000F6DB4FF0FF342BE011680029F2D1611C4B
:1095F00026D0E9680C71D0F8101459B1C968EA682E
:1096000009681160D0F81004C06805600027DFF811
:109610003C8011E0C0F81054E96800200860F5E7CC
:1096200008EBC700C279B24200D33246E868394637
:10963000007900F02DFB7F1C00F0FCFAB842EFD857
:109640002046BDE8F0810000B40F0020400A010070
:10965000406801218068FAF7A7BC10B540688468AB
:10966000606801688A680121904718B10420A168E8
:10967000087010BD0320FAE72DE9F3414468A6689D
:10968000B068007804281ED0032807D0002501A95F
:10969000206800F0A3FD85F0010709E00125F6E749
:1096A00039463046FAF780FC01A9206800F096FDA3
:1096B0000028F5D1019800F0D9FB002D03D000213E
:1096C0003046FAF771FCBDE8FC81F0B595B01C4658
:1096D00015460F4608461A9E00F0C8FB182109A837
:1096E000F6F7DCFF0E96CDE909540023082203A902
:1096F000384600F0D1FB05980690BDF81000ADF893
:109700001C00BDF81200ADF81E0000208DF82100ED
:109710000398082600F00300012802D0022818D080
:1097200032E003983346850AC0F3C2008DF820006A
:1097300003980FA9C0F38314A200384600F0ACFBD5
:1097400009A8009006AB22460FA9284600F0EAFAC5
:109750001AE00398840DC0F3C2008DF82000082C95
:1097600001D2254600E0082533462A460FA938468F
:1097700000F092FB2E44641B09AB06AA29460FA8F1
:1097800000F0B0F9002CEAD1384600F075FB15B0B6
:10979000F0BD7047084810B50178084A515C19B10E
:1097A000001D02F06BFB02E00C3002F035F9BDE861
:1097B0001040002004F052BCC0020020180100201C
:1097C00008B5034A00924023024AFFF77EFF08BD16
:1097D000F1D300001C0E00200A4A012902EBC00050
:1097E00007D0022907D0032907D0042907D0002079
:1097F0007047022070470420704700797047407915
:1098000070470000400A01002DE9FF5FF9F7D4FF1F
:1098100018B1002004B0BDE8F09F8C4C0020C4F8C3
:109820001804BFF34F8F8A49A06800900D684FF06D
:109830000009284004EB80000CE000BFD4F81804B5
:1098400070B961680098814201D8A160E1E72840C1
:1098500004EB80000C306946FDF7EEF90028EDD1ED
:10986000002001A9A046009A02EA050308EB830341
:10987000521CDB6841F82030401C00920228F2D3D1
:10988000019800F00300022802D0012850D0BEE069
:1098900001985022810D8A46B2EB905F00D850218A
:1098A0000C4664F39F50C0F3C20701900831694829
:1098B00000F093FA0600EAD000F0D8FA4B460822EE
:1098C00001A9304600F016FB009909F1080B294068
:1098D000681A8000001D844223D95C4D0C3530B1DC
:1098E000C2B208EB8101201A91460C3104E02946EE
:1098F000E2B2002591462846C4B25B46304600F0ED
:10990000F9FA0BEB09032DB1224629464FEA06006E
:1099100000F0F0FA00990AF1030001EB90000090CA
:109920003DE008EB81015B46224630460C31EFE713
:109930000198C0F38310062800D30620019960F334
:109940008911C1F38310C1F3C207801C019181000A
:10995000404800F042FA060059D000F087FA4B4622
:10996000082201A9304600F0C5FA09F108090024CF
:109970000FE000984B4600EA0501401C08EB81010E
:109980000090042230460C3100F0B4FA09F10409C9
:10999000641C0198C0F38310A042EAD8B6B3D8F88B
:1099A0001044D8F818044546F8B1304600F064FA7F
:1099B00046E0E0684179012915D10179BDF8080038
:1099C000254A01EB410152F8200007228A4010404D
:1099D000C840052F00D10327B84204D3226820468F
:1099E000314612689047E0680468002CE1D13046A7
:1099F00000F042FA0020F9F759FAD5F8180408B92E
:109A00000098A8600020F9F77FFA19E0FFE7D8F87E
:109A1000104405E02168204689688847E0680468AA
:109A2000002CF7D10D484088022809D30C480D4975
:109A3000401AC008022101EB00400BA100F01EF803
:109A4000F9F7BAFE80F00100E4E60000B40F002050
:109A5000DC0200203C0B0100EC030020E8030020A6
:109A6000180B0100400A01004261636B656E64736C
:109A700020666C75736865640000000000231A4658
:109A800004F030B808B5012300926A4604F02AF8C1
:109A900008BD1CB5CDE9002302236A4604F022F874
:109AA0001CBD3EB5069C8DE81C0003236A4604F0ED
:109AB00019F83EBD7FB5DDE908458DE83C0004237B
:109AC0006A4604F00FF87FBD70B586B00DF1280C22
:109AD0009CE870008DE87C0005236A4604F002F8DB
:109AE00006B070BD2DE9F0470E4680461C469246F2
:109AF000082940D894F80C9000202073194610468D
:109B000003F0C8FA0025B54206D218F805201BA1BB
:109B10002046FFF7A9F903E01AA12046FFF7A4F9B0
:109B20006D1C082DEFD318A12046FFF79DF90025E5
:109B3000B54212D218F805707E2F08D8F6F72CFD22
:109B40000068C05D10F03E0F01D03A4600E02E22C2
:109B50000EA12046FFF788F903E00DA12046FFF78C
:109B600083F96D1C082DE3D301222146504603F0F2
:109B700073FA84F80C90BDE8F0870000202530329D
:109B800078000000202020007C00000025630000F9
:109B9000200000002DE9F0471F494FF000081F4842
:109BA00081F8008000F066F9002832D11C4800F0EE
:109BB000E3FD1C49DFF87090DFF870A0A1EB09000D
:109BC000C608002414E000273D460CE0AC4209D052
:109BD00059F8340059F835101422F6F788FD00289A
:109BE00000DD7F1C6D1CB542F0D32AF82470641C84
:109BF000B442E8D30020414654460D4D06E000BF74
:109C000004EB8002518045F82010401CB042F7D38D
:109C10000020BDE8F0870000B40F00203C0B0100DD
:109C20003CF30000200B0100400A01007C030020EF
:109C3000EC03002002480349401AC00870470000A6
:109C4000200B0100400A01007FB5054611460024A3
:109C500001A873B1FDF728FD98B90B4801990722B7
:109C600050F8210005EB45018A401040C840C4B2BD
:109C700007E0FDF719FD20B90448019900EBC10088
:109C8000847904B0204670BDEC030020400A010036
:109C900070B5114B00EB400003EB81040F4B02F059
:109CA000070203EB8101072303FA00F60D688240E7
:109CB000B5432A4300200A604FEA000103FA01F588
:109CC0001540CD40ADB2854200D92846C91C0A29AD
:109CD000F4D3608070BD00007C030020EC03002002
:109CE00013B56846FDF7E0FC08B100201CBD024832
:109CF000009950F831001CBD400A010070B50848B9
:109D00000125D0F81044057007E0E068457121682E
:109D1000204649688847E0680468002CF5D170BD8A
:109D2000B40F00202DE9FF4781460C9D00200C4612
:109D30002F7B2873984616462946184603F0AAF941
:109D4000072E42D2DFE806F004090F161F2A36005C
:109D500049462846FFF788F837E0494628462268F2
:109D6000FFF782F831E0D4E9002349462846FFF79F
:109D70007BF82AE0A0680090D4E9002349462846F1
:109D8000FFF772F821E0D4E90201CDE90001D4E93E
:109D9000002349462846FFF767F816E004F108005B
:109DA00007C88DE80700D4E9002349462846FFF795
:109DB0005BF80AE004F108000FC88DE80F00D4E951
:109DC000002349462846FFF74FF80022294640461F
:109DD00003F042F92F73BDE8FF872DE9F041058BB1
:109DE00080462D1F4819C01CB0FBF5F0C6B2404696
:109DF000FDF740FD041E19D0002020710120607184
:109E0000E58000272546761EC4F800800BE040461A
:109E1000FDF730FD60B16179491C6171286005462C
:109E20007F1CC0F80080B742F1D32046BDE8F08126
:109E3000204600F002F80020F8E72DE9F0414579CE
:109E400001466B1E002201E00968521C9A42FBD3B6
:109E50000F680146002605E038460C68FDF770FDE6
:109E60002146761CAE42F7D3BDE8F0810121001DEA
:109E7000FDF7D3BCFDF7AABD10B504460121001DB6
:109E8000FDF7ECFC10F0FF0F04D12046BDE81040B8
:109E9000FFF7D3BF10BD00001CB514460122CDE969
:109EA000002401AAFDF77CFB0198A04203D002A187
:109EB000DA20F9F7DFF81CBD2E2E5C2E2E5C2E2E3C
:109EC0005C2E2E5C2E2E5C2E2E5C636F6D706F6E82
:109ED000656E74735C6C69627261726965735C6DE6
:109EE000656D6F626A5C6E72665F6D656D6F626AEA
:109EF0002E6300001CB514460022CDE9002401AAFF
:109F0000FDF74EFB0198A04203D002A1D020F9F743
:109F1000B1F81CBD2E2E5C2E2E5C2E2E5C2E2E5CDF
:109F20002E2E5C2E2E5C636F6D706F6E656E74737B
:109F30005C6C69627261726965735C6D656D6F629C
:109F40006A5C6E72665F6D656D6F626A2E6300009B
:109F500008B500F1804001460068002220B10120D0
:109F60000A600968009108BD104608BD70470000EE
:109F70002DE9F04190460D4604004FF0000703D153
:109F800023A1C120F9F776F81DB921A1C220F9F764
:109F900071F80020F8F78AFF204600F057F830B13A
:109FA00005270020F8F7B0FF3846BDE8F0812068AB
:109FB0000668B8F1000F05D10168204600F0FCF8F2
:109FC00021680860E268012A0CD0022A0ED0042A17
:109FD00011D06068082A13D006FB02012846F6F764
:109FE00036FBDEE76068805D2870DAE7606830F88D
:109FF00016002880D5E7606850F826002860D0E772
:10A0000000EBC601D1E90001C5E90001C9E7000084
:10A010002E2E5C2E2E5C2E2E5C2E2E5C2E2E5C2E7A
:10A020002E5C636F6D706F6E656E74735C6C6962CD
:10A030007261726965735C71756575655C6E726677
:10A040005F71756575652E630000000010B5040032
:10A0500004D107A140F20520F9F70CF8216808683F
:10A060004968884201D1012010BD002010BD0000C8
:10A070002E2E5C2E2E5C2E2E5C2E2E5C2E2E5C2E1A
:10A080002E5C636F6D706F6E656E74735C6C69626D
:10A090007261726965735C71756575655C6E726617
:10A0A0005F71756575652E630000000070B5040072
:10A0B00003D108A17220F8F7DDFF20680568416828
:10A0C000204600F079F8A84201D1012070BD00209F
:10A0D00070BD00002E2E5C2E2E5C2E2E5C2E2E5C73
:10A0E0002E2E5C2E2E5C636F6D706F6E656E7473BA
:10A0F0005C6C69627261726965735C7175657565C6
:10A100005C6E72665F71756575652E630000000098
:10A1100010B5040004D104A140F21320F8F7AAFFFF
:10A120002068806810BD00002E2E5C2E2E5C2E2E26
:10A130005C2E2E5C2E2E5C2E2E5C636F6D706F6E0F
:10A14000656E74735C6C69627261726965735C716F
:10A15000756575655C6E72665F71756575652E6394
:10A160000000000010B5040004D104A140F2192041
:10A17000F8F780FF21680020886010BD2E2E5C2E2D
:10A180002E5C2E2E5C2E2E5C2E2E5C2E2E5C636F93
:10A190006D706F6E656E74735C6C6962726172690A
:10A1A00065735C71756575655C6E72665F7175650A
:10A1B00075652E630000000070B50C46050003D1E4
:10A1C00005495D20F8F756FFA868A04201D9601C38
:10A1D00070BD002070BD000028A100002DE9F041F5
:10A1E0000E4604004FF0000803D12CA17D20F8F7A3
:10A1F00041FF1EB929A17E20F8F73CFF0020F8F7A7
:10A2000055FE2046FFF752FF070009D0207C38B1E9
:10A210004FF004080020F8F777FE4046BDE8F081D3
:10A220002068456841682046FFF7C6FF21684860FE
:10A2300037B1206801682046FFF7BEFF216808603B
:10A24000E268012A14D0022A16D0042A19D0082A5A
:10A250001CD06068314605FB0200F6F7F8F920468D
:10A2600002F07EFF21688A688242D3D28860D1E7FB
:10A27000616830784855F2E76168308821F8150048
:10A28000EDE76168306841F82500E8E7D6E90001AC
:10A29000626802EBC502C2E90001E0E72E2E5C2EE7
:10A2A0002E5C2E2E5C2E2E5C2E2E5C2E2E5C636F72
:10A2B0006D706F6E656E74735C6C696272617269E9
:10A2C00065735C71756575655C6E72665F717565E9
:10A2D00075652E63000000002DE9F04F8046806810
:10A2E00089B0D0F84801C0F3400038B109B0404609
:10A2F000BDE8F04F00221146FEF7B4B8012907D996
:10A3000009B04046BDE8F04F1FA20221FEF74CB84D
:10A310002249DFF88CB0A1EB0B001C21B0FBF1F758
:10A32000002529E0C5EBC5010BEB81042046D4E9EB
:10A33000026AFFF7EDFE8146204600F041F86422F4
:10A3400009FB02F14243B1FBF6F1B2FBF6F263699D
:10A35000247CB4B10FF24C0CCDF81CC0CDF800A099
:10A36000CDE90596CDE90120CDE90361104A082128
:10A370004046FEF719F86D1CBD42D3D309B0BDE8C5
:10A38000F08F0FF2300CE7E742616420617267756D
:10A390006D656E7420636F756E740000900B010024
:10A3A000580B01004E6F206F766572666C6F7700F8
:10A3B000B4FF00004F766572666C6F770000000096
:10A3C00010B5040004D108A14FF4FC70F8F752FE58
:10A3D0000020F8F76BFD204602F0C2FE0446002084
:10A3E000F8F792FD204610BD2E2E5C2E2E5C2E2EF0
:10A3F0005C2E2E5C2E2E5C2E2E5C636F6D706F6E4D
:10A40000656E74735C6C69627261726965735C71AC
:10A41000756575655C6E72665F71756575652E63D1
:10A42000000000002DE9F0411F4615460E000446CD
:10A4300003D11DA11520F8F71DFE1DB91AA1162084
:10A44000F8F718FE37B1A068FDF7E4F910B1112054
:10A45000BDE8F081A068D0E903316068A3EB010C8E
:10A46000421C944507D10020286017B1A068FDF771
:10A47000C8F90020ECE703EA000201EA0007BA424B
:10A4800001D3831A01E0181A0B1A28685B1C984242
:10A4900000D203462B60206810443060A0682A6810
:10A4A000C1681144C160E4E72E2E5C2E2E5C2E2E76
:10A4B0005C2E2E5C2E2E5C2E2E5C636F6D706F6E8C
:10A4C000656E74735C6C69627261726965735C72EB
:10A4D000696E676275665C6E72665F72696E6762EE
:10A4E00075662E63000000002DE9F04117465FEA13
:10A4F0000108054603D122A19C20F8F7BBFD1FB936
:10A500001FA19D20F8F7B6FDA868001DFDF782F990
:10A5100010B11120BDE8F081A868816800690C1AAB
:10A520003868A04200D204463C60AA686968106995
:10A53000926808400A40824201D9161A01E00E1AB8
:10A54000761CB44208D92968324601444046F6F7E1
:10A550007EF8A41B0020B0442968224601444046EE
:10A56000F6F775F8A8683A68016911440161A868AE
:10A570004161A868001DFDF744F90020CAE700000A
:10A580002E2E5C2E2E5C2E2E5C2E2E5C2E2E5C2E05
:10A590002E5C636F6D706F6E656E74735C6C696258
:10A5A0007261726965735C72696E676275665C6E12
:10A5B00072665F72696E676275662E6300000000E6
:10A5C0002DE9F04117465FEA0108054603D11FA1B6
:10A5D0004C20F8F74FFD1FB91CA14D20F8F74AFD9C
:10A5E000A868FDF717F910B11120BDE8F081A8683F
:10A5F0003C6881680069081A6968081A401C84422E
:10A6000000D304463C60A8686968806808400E1A58
:10A61000761CB44208D92968324608444146F6F708
:10A6200016F8A41B0020B04429682246084441467D
:10A63000F6F70DF8A9683A68886810448860A96838
:10A64000C860A868FDF7DDF80020CEE72E2E5C2E4E
:10A650002E5C2E2E5C2E2E5C2E2E5C2E2E5C636FBE
:10A660006D706F6E656E74735C6C69627261726935
:10A6700065735C72696E676275665C6E72665F7246
:10A68000696E676275662E630000000010B582680F
:10A6900094681369E41AA14201D9042010BD194439
:10A6A0001161826851618068001DFDF7AAF80020E1
:10A6B00010BD00002DE9F0411E4614460F0005466E
:10A6C00003D11DA16D20F8F7D5FC1CB91AA16E208D
:10A6D000F8F7D0FC3EB1A868001DFDF79BF810B15B
:10A6E0001120BDE8F081A96888684969421A09D03B
:10A6F0006B681940184088420DD9266896420AD9DD
:10A70000226010E0002020601EB1A868001DFDF747
:10A7100078F80020E5E7884205D8581A2268401CDE
:10A72000824200D92060286808443860A8682268FE
:10A73000416911444161ECE72E2E5C2E2E5C2E2ED9
:10A740005C2E2E5C2E2E5C2E2E5C636F6D706F6EF9
:10A75000656E74735C6C69627261726965735C7258
:10A76000696E676275665C6E72665F72696E67625B
:10A7700075662E6300000000826800219160826887
:10A780001161826851618268D1608268516080681D
:10A790000160704770B58268456894681369E31A70
:10A7A000EB1A5B1C994201D9042070BD21449160D1
:10A7B0008268D1608068FDF727F808B1002070BD7D
:10A7C000082070BD08B5002242504058009008BDD6
:10A7D00070B50D46060003D10BA11420F8F74AFC12
:10A7E0001DB909A11520F8F745FC746804E0B268AA
:10A7F0002946904718B1246820680028F7D12068BE
:10A800002860256070BD00002E2E5C2E2E5C2E2E42
:10A810005C2E2E5C2E2E5C2E2E5C636F6D706F6E28
:10A82000656E74735C6C69627261726965735C7386
:10A830006F72746C6973745C6E72665F736F72743E
:10A840006C6973742E63000010B5040003D103A17A
:10A850003720F8F70FFC6068006810BD2E2E5C2EC4
:10A860002E5C2E2E5C2E2E5C2E2E5C2E2E5C636FAC
:10A870006D706F6E656E74735C6C69627261726923
:10A8800065735C736F72746C6973745C6E72665F0F
:10A89000736F72746C6973742E63000010B50400DA
:10A8A00003D105A12B20F8F7E5FB616808680028B3
:10A8B00001D002680A6010BD2E2E5C2E2E5C2E2E5A
:10A8C0005C2E2E5C2E2E5C2E2E5C636F6D706F6E78
:10A8D000656E74735C6C69627261726965735C73D6
:10A8E0006F72746C6973745C6E72665F736F72748E
:10A8F0006C6973742E63000070B50C46050003D1BB
:10A900000BA14320F8F7B6FB1CB909A14420F8F7C6
:10A91000B1FB0021686806E0A24203D12168016012
:10A92000012103E010460268002AF5D1084670BDF7
:10A930002E2E5C2E2E5C2E2E5C2E2E5C2E2E5C2E51
:10A940002E5C636F6D706F6E656E74735C6C6962A4
:10A950007261726965735C736F72746C6973745C35
:10A960006E72665F736F72746C6973742E6300002D
:10A970000C4A10B502F58C730EE0991AC91001EB60
:10A98000D171491002EBC1010C68844201D90B4618
:10A9900002E005D201F108029A42EED3002010BD78
:10A9A000486810BDE8F1000000B5FFF7E1FF00289E
:10A9B00000D1014800BD0000D4F10000405800283B
:10A9C00000D00120704708B5002242504058009046
:10A9D00008BDD0F80403084000D00120704740585B
:10A9E000002800D00120704708B50022425040588E
:10A9F000009008BD10B503F0ABFD8020FAF7F2FD22
:10AA0000817B0124032902D00068002809D180201D
:10AA1000FAF7D2FD8440E143BDE81040014800F060
:10AA2000EDB910BD5C01002030B5050600F00F0344
:10AA30000E4C03EB830004EB80000AD5082B03D3F4
:10AA40000B480160001D09E0C0F80016C0F804269C
:10AA500030BD082B04D307480160001D026030BDE3
:10AA6000C0F80017C0F8042730BD00000070024095
:10AA7000A0760240A077024010B5044600F00F0017
:10AA8000092804D30BA140F29140F8F7F3FA21060C
:10AA90004FF0010004F00F0200FA02F001D5114955
:10AAA00001E01049091D0968014201D0012010BDD3
:10AAB000002010BD2E2E5C2E2E5C2E2E5C2E2E5CC9
:10AAC0002E2E5C2E2E5C6D6F64756C65735C6E72E1
:10AAD00066785C68616C2F6E72665F757362642E57
:10AAE000680000001075024070B50446000604D4EA
:10AAF00015A14FF46470F8F7BDFA04F00F000828B0
:10AB000004D311A140F29130F8F7B4FA200704D130
:10AB10000DA140F29230F8F7ADFA03F019FD20468E
:10AB2000FAF760FD817B0125032902D00068002827
:10AB300009D12046FAF740FD8540E943BDE8704061
:10AB40000F4800F05BB970BD2E2E5C2E2E5C2E2EB1
:10AB50005C2E2E5C2E2E5C2E2E5C6D6F64756C65EB
:10AB6000735C6E7266785C647269766572735C732E
:10AB700072635C6E7266785F757362642E63000048
:10AB80005C01002038B50446000604D41B4940F29D
:10AB9000AE30F8F76FFA04F00F00082804D2174916
:10ABA00040F2AF30F8F766FA03F0D2FC2046FAF72D
:10ABB00019FD817B0125032915D00068002811D1DA
:10ABC0002046FAF7F9FC8540E9430D4800F016F9F4
:10ABD0000C480B49806800900C398DF80240496898
:10ABE0006846884738BD2046FAF7E6FC8540E943C9
:10ABF000BDE83840024800F001B90000F8E6000066
:10AC00005C01002040ED000070B50546000605F02F
:10AC10000F0402D5092C09D301E0092C0BD30E49EE
:10AC200040F24B40F8F726FA280604D50A4940F2CC
:10AC30004C40F8F71FFA082C04D2074940F24D4067
:10AC4000F8F718FA0548006818B1C10300D50020CC
:10AC500070BD4FF0FF3070BD10CD0000C0740240D9
:10AC600038B50446000604D51FA140F2EE30F8F7CF
:10AC700001FA04F00F00082804D31BA140F2EF30C2
:10AC8000F8F7F8F9200704D117A14FF47C70F8F712
:10AC9000F1F903F05DFC2046FAF7A4FC817B012565
:10ACA000032902D0006848B11AE02046FAF784FC74
:10ACB0008540E9431A4800F0A1F811E02046FAF770
:10ACC0007BFC8540E943164800F098F81548144984
:10ACD000006900900C398DF8024049686846884741
:10ACE000BDE8384003F042BC2E2E5C2E2E5C2E2E8A
:10ACF0005C2E2E5C2E2E5C2E2E5C6D6F64756C654A
:10AD0000735C6E7266785C647269766572735C738C
:10AD100072635C6E7266785F757362642E630000A6
:10AD20005C01002040ED000070B50546000605F00E
:10AD30000F0402D5092C09D301E0092C0BD30D49CE
:10AD400040F23940F8F796F9280604D5094940F24F
:10AD50003A40F8F78FF9082C05D307480068C1037B
:10AD600000D5002070BD054901EB8400D0F8A00497
:10AD700070BD000010CD0000C074024000700240A1
:10AD800002494058002800D001207047007002405E
:10AD900010B50446FFF7F4FF002806D0034900224F
:10ADA0006250BFF36F8FBFF34F8F10BD0070024032
:10ADB00003490860BFF36F8FBFF34F8F70470000E8
:10ADC0000074024002480068002800D0012070474B
:10ADD0002C7502400449084401210160BFF36F8FC4
:10ADE000BFF34F8F704700000070024002480068B8
:10ADF000002800D0012070470004014008B56A46D1
:10AE0000F5F721FA08BD0000084810B5007918B917
:10AE100007A19720F8F72EF900F0BEFA1249012099
:10AE200008600249091F087010BD000030010020B1
:10AE30002E2E5C2E2E5C2E2E5C2E2E5C2E2E5C2E4C
:10AE40002E5C6D6F64756C65735C6E7266785C64A5
:10AE50007269766572735C7372635C6E7266785F3A
:10AE6000636C6F636B2E630018050040084810B5D3
:10AE7000007918B907A1DC20F8F7FCF84FF48070CE
:10AE8000FDF70DFE01208107C1F80403086010BD25
:10AE9000300100202E2E5C2E2E5C2E2E5C2E2E5C81
:10AEA0002E2E5C2E2E5C6D6F64756C65735C6E72FD
:10AEB00066785C647269766572735C7372635C6EEB
:10AEC0007266785F636C6F636B2E630010B50E4C17
:10AED000207918B90DA1E420F8F7CCF801208107FA
:10AEE000C1F808030002FDF7DAFD164901200860E9
:10AEF00015484FF00111026802F001128A42FAD09F
:10AF00000020607110BD0000300100202E2E5C2E4C
:10AF10002E5C2E2E5C2E2E5C2E2E5C2E2E5C6D6FEB
:10AF200064756C65735C6E7266785C647269766574
:10AF300072735C7372635C6E7266785F636C6F636E
:10AF40006B2E6300040000400C04004010B50400A8
:10AF500003D108A17E20F8F78DF8144900200A7962
:10AF60000AB1852010BD01220C600A7100224A71CD
:10AF700010BD00002E2E5C2E2E5C2E2E5C2E2E5C24
:10AF80002E2E5C2E2E5C6D6F64756C65735C6E721C
:10AF900066785C647269766572735C7372635C6E0A
:10AFA0007266785F636C6F636B2E63003001002004
:10AFB00070B54FF480763046FDF76AFD114CB5054B
:10AFC00060B13046FDF76BFD0120C5F808036079DC
:10AFD00020B9012060712168002088474FF48276F3
:10AFE0003046FDF755FD00280AD03046FDF757FDE5
:10AFF0000220C5F808032168BDE870400120084719
:10B0000070BD000030010020094810B5007918B962
:10B0100008A1C420F8F72EF84FF48270FDF73FFD29
:10B0200002204107C1F8040310490120086010BD47
:10B03000300100202E2E5C2E2E5C2E2E5C2E2E5CDF
:10B040002E2E5C2E2E5C6D6F64756C65735C6E725B
:10B0500066785C647269766572735C7372635C6E49
:10B060007266785F636C6F636B2E6300080000404C
:10B07000002802D0014980010847704781EF000095
:10B080002DE9F0410D460646FEF740FA20B929A108
:10B0900040F23A20F7F7EEFF304601F04BFF20B9BF
:10B0A00024A140F23B20F7F7E5FF304601F04CFFCA
:10B0B0000028304615D0F8F7F7FB083801F0C4FF38
:10B0C000032802D001280AD003E03046FEF734FA04
:10B0D00028B103213046BDE8F041FEF7F7B8022160
:10B0E000F8E701F03DFF002822D03046F8F7DCFBFE
:10B0F00004464FF4807000EB84001D4F81B207EBD3
:10B100008400D0F8102542F00102C0F8102508464E
:10B11000FEF744FA002D0BD03046F8F7C5FB154971
:10B1200051F82000002803D00120A040C7F80403F4
:10B13000BDE8F0812E2E5C2E2E5C2E2E5C2E2E5C19
:10B140002E2E5C2E2E5C6D6F64756C65735C6E725A
:10B1500066785C647269766572735C7372635C6E48
:10B160007266785F6770696F74652E630000000017
:10B1700000600040880800202DE9FC4114460D467F
:10B180000646FEF7C3F920B92EA140F20A20F7F7D0
:10B1900071FF0027304601F0CDFE08B108274DE0D1
:10B1A000A8782146C0F340023046F8F759FB044620
:10B1B000401C42D0A87841071AD4C0070DD0684679
:10B1C0000096FEF7F3F8009900EB8100D0F8001725
:10B1D00021F00201C0F8001707E000216B7830462B
:10B1E00000910A460191FDF7EEFF304601F094FE12
:10B1F000A878800718D52248297800EB8400D0F879
:10B200001025204B1A40C0F810254FF47C524FF403
:10B21000403302EA062203EA01410A43D0F810153E
:10B220000A43C0F8102509E017482A78204410F88E
:10B23000581F41EA8211017000E004273846BDE83A
:10B24000FC8100002E2E5C2E2E5C2E2E5C2E2E5CA1
:10B250002E2E5C2E2E5C6D6F64756C65735C6E7249
:10B2600066785C647269766572735C7372635C6E37
:10B270007266785F6770696F74652E630000000006
:10B2800000600040FFC0FCFF8808002010B50446A5
:10B29000FEF73CF920B906A14FF42370F7F7EAFE58
:10B2A0002046FEF749F9002800D0012010BD00001B
:10B2B0002E2E5C2E2E5C2E2E5C2E2E5C2E2E5C2EC8
:10B2C0002E5C6D6F64756C65735C6E7266785C6421
:10B2D0007269766572735C7372635C6E7266785FB6
:10B2E0006770696F74652E630000000070B51A4DB9
:10B2F00095F86A0008B1082070BD0024661E20463B
:10B30000FEF704F910B1281980F83060641CE4B22B
:10B31000302CF4D300242046F8F794FA641CE4B2ED
:10B320000C2CF8D30C4800210C4C4166A0F8681096
:10B330000B49C02081F8000401264020891FC1F874
:10B3400000014FF4BE70FEF729F9A004C4F804030D
:10B3500085F86A60002070BD880800200060004009
:10B3600006E000E0034890F86A00002800D00120C1
:10B3700070470000880800200121B1EB507F01D107
:10B3800001207047002070470121B1EB507F01D1AF
:10B39000012070470020704706480068012110F026
:10B3A000010F06D14FF0E020C02280F80024843045
:10B3B000C167704700E100E006480068012110F015
:10B3C000010F06D14FF0E020C02280F80024843025
:10B3D000C167704700E100E070B5040003D10DA122
:10B3E0004A20F7F747FE194D287808B1852070BD2F
:10B3F00020781749C0F340000860154920780839C3
:10B4000000F001000860FFF7D7FF0120287000203E
:10B4100070BD00002E2E5C2E2E5C2E2E5C2E2E5C1F
:10B420002E2E5C2E2E5C6D6F64756C65735C6E7277
:10B4300066785C647269766572735C7372635C6E65
:10B440007266785F706F7765722E63003801002036
:10B450008005004070B54FF08040D0F80453344C64
:10B4600068070CD54FF48470FEF772FD38B1606840
:10B4700018B930A1F020F7F7FDFD60688047A806F5
:10B480000DD54FF48A70FEF763FD40B1A06818B97E
:10B4900028A1F920F7F7EEFDA1680020884768068B
:10B4A0000ED54FF48C70FEF753FD48B1A06820B95B
:10B4B00020A14FF48070F7F7DDFDA16801208847D7
:10B4C00028060ED54FF48E70FEF742FD48B1E068B5
:10B4D00020B918A140F20910F7F7CCFDE16800206F
:10B4E0008847E8050ED54FF49070FEF731FD48B15E
:10B4F000E06820B90FA14FF48870F7F7BBFDE16851
:10B5000001208847A80511D54FF49270FEF720FD61
:10B5100000280BD0E06820B906A140F21710F7F719
:10B52000A9FDE168BDE870400220084770BD000039
:10B53000380100202E2E5C2E2E5C2E2E5C2E2E5CD2
:10B540002E2E5C2E2E5C6D6F64756C65735C6E7256
:10B5500066785C647269766572735C7372635C6E44
:10B560007266785F706F7765722E63004FF080416E
:10B570004FF46070C1F8080370474FF080414FF4FA
:10B580006070C1F80403704710B5040003D106A130
:10B59000C720F7F76FFD12480021C160216800291C
:10B5A00000D0C16010BD00002E2E5C2E2E5C2E2E11
:10B5B0005C2E2E5C2E2E5C2E2E5C6D6F64756C6581
:10B5C000735C6E7266785C647269766572735C73C4
:10B5D00072635C6E7266785F706F7765722E63005F
:10B5E0003801002001490020C86070473801002060
:10B5F00070B50D46040003D10DA15120F7F73AFDB7
:10B60000204601F0A1FD04000FD00020F7F74EFC0A
:10B61000207920B10020F7F777FC112070BD0120C0
:10B62000256020710020F7F76FFC002070BD00003E
:10B630002E2E5C2E2E5C2E2E5C2E2E5C2E2E5C2E44
:10B640002E5C6D6F64756C65735C6E7266785C649D
:10B650007269766572735C7372635C7072735C6E30
:10B660007266785F7072732E6300000010B504007C
:10B6700003D106A17520F7F7FDFC204601F064FD1B
:10B68000002802D000210160017110BD2E2E5C2E19
:10B690002E5C2E2E5C2E2E5C2E2E5C2E2E5C6D6F64
:10B6A00064756C65735C6E7266785C6472697665ED
:10B6B00072735C7372635C7072735C6E7266785FD7
:10B6C0007072732E630000000149024802F0F2BC60
:10B6D000F4080020002000402DE9F04117460D003D
:10B6E000064603D11AA18420F7F7C4FC3079264A14
:10B6F00000EB400101EBC00102EB810494F82A1039
:10B7000011B10820BDE8F081204951F820103068BF
:10B71000FFF76EFF08B11120F4E729463046F7F72E
:10B7200033FC6760286920601FB1297F3046FBF732
:10B73000CDF930680421C0F800150020A061E06157
:10B7400084F8290044F8140F0121A175DAE70000FC
:10B750002E2E5C2E2E5C2E2E5C2E2E5C2E2E5C2E23
:10B760002E5C6D6F64756C65735C6E7266785C647C
:10B770007269766572735C7372635C6E7266785F11
:10B78000756172742E630000F408002038ED00002B
:10B790002DE9F05F054600790F4600EB400101EB13
:10B7A000C0014048164600EB810494F82A000128A5
:10B7B00004D03DA14FF4A370F7F75CFC27B93AA180
:10B7C00040F24710F7F756FC26B937A14FF4A470A2
:10B7D000F7F750FC616800204FF4017811B12A6836
:10B7E000C2F80883A1694FF0000969B1E06938B176
:10B7F000606810B12868C0F804831120BDE8F09F8C
:10B8000027610120E66105E0C4F82490E760A661A5
:10B81000C4F81C9094F82910014302D1284601F085
:10B8200086FD60680028286803D0C0F804830020E3
:10B83000E4E74FF4A2763146FFF7C5F8B2464FF47D
:10B84000927B59462868FFF7B9F806464FF4847191
:10B850002868FFF7B3F8804651462868FFF7AEF82E
:10B86000074648EA07003043EBD056EA070007D105
:10B870002146286801F02CFD616AA0698842E0D861
:10B88000C4F818900EB10320B8E70FB10F20B5E748
:10B8900094F8291001200029296801D00860C6E722
:10B8A0004860C4E7F40800202E2E5C2E2E5C2E2E5D
:10B8B0005C2E2E5C2E2E5C2E2E5C6D6F64756C657E
:10B8C000735C6E7266785C647269766572735C73C1
:10B8D00072635C6E7266785F756172742E630000CD
:10B8E00001684FF40172C1F808230068012141602A
:10B8F000704700002DE9F05F054600790F4600EB28
:10B90000400101EBC0002D49164601EB800494F87C
:10B910002A00012803D02AA1F220F7F7ABFB1FB9B8
:10B9200027A1F320F7F7A6FB1EB925A1F420F7F70E
:10B93000A1FB284600F060F810B11120BDE8F09F8F
:10B9400066614FF00009C4F82090A76084F8289041
:10B950004FF48E784E4641462868FFF734F8286841
:10B960004FF0010AC0F808A02146286802F0A8FAA2
:10B97000606800BBD5F800B067690EE094F8280055
:10B9800008B10F2615E041465846FFF717F8002882
:10B99000F4D02146584602F093FA206AB842F2D316
:10B9A000574641462868FFF709F80028F9D028686B
:10B9B000C760C4F814903046C0E70000F4080020C7
:10B9C0002E2E5C2E2E5C2E2E5C2E2E5C2E2E5C2EB1
:10B9D0002E5C6D6F64756C65735C6E7266785C640A
:10B9E0007269766572735C7372635C6E7266785F9F
:10B9F000756172742E630000007900EB400101EB69
:10BA0000C000044901EB80004069002800D00120FB
:10BA100070470000F40800202DE9F0470446007943
:10BA20004FF0000900EB400101EBC000284901EB99
:10BA300080072068C0F800957868B0B12068254973
:10BA4000C0F80813206840F3073000280DDB00F031
:10BA50001F02012191404009800000F1E020C0F860
:10BA60008011BFF34F8FBFF36F8F2068D0F80C2584
:10BA7000D0F81485D0F80865D0F810554FF0FF3194
:10BA8000C0F81415C0F80C152068C0F80815C0F8E7
:10BA90001015501C02D01046FDF7E0FBB8F1FF3F37
:10BAA00002D04046FDF7DAFB681C02D02846FDF7BD
:10BAB000D5FB701C02D03046FDF7D0FB2068FFF7A5
:10BAC000D5FD87F82A90C7F80490BDE8F0870000FC
:10BAD000F4080020840202000149024802F098BBE9
:10BAE00020090020002000402DE9F04117460D00FC
:10BAF000064603D118A1A920F7F7BCFA3079244AE9
:10BB000000EBC00102EB810494F8201011B1082071
:10BB1000BDE8F0811F4951F820103068FFF768FD3B
:10BB200008B11120F4E729463046F7F768FA676054
:10BB3000286920601FB1297F3046FBF71BF8306869
:10BB40000821C0F800150020A061E06160610121BA
:10BB500084F82010DCE700002E2E5C2E2E5C2E2EAA
:10BB60005C2E2E5C2E2E5C2E2E5C6D6F64756C65CB
:10BB7000735C6E7266785C647269766572735C730E
:10BB800072635C6E7266785F75617274652E6300B5
:10BB9000200900203CED00002DE9F05F044600790B
:10BBA0000F46DFF834A100EBC0010AEB8105164611
:10BBB00095F82000012804D048A14FF4C070F7F791
:10BBC00059FA27B945A140F28110F7F753FA26B97F
:10BBD00042A14FF4C170F7F74DFA207910B9B6F5CC
:10BBE000803F04D33DA140F28310F7F743FA384673
:10BBF000FFF7C2FBB0B168684FF000084FF404795A
:10BC000010B12168C1F80893A8694FF0000B80B10A
:10BC1000E86948B1686810B12068C0F80493112041
:10BC2000BDE8F09F1020FBE72F614FF00108EE61A7
:10BC300002E0EF60C5E9066B00254FF488712068CB
:10BC4000FEF7D2FE4FF4A2712068FEF7CDFE206809
:10BC5000C0F83475C0F838652068B8F1000F12D00C
:10BC6000D0F8001241F02001C0F800122079D0462F
:10BC700000EBC0010AEB8100406838B12168C1F8CF
:10BC800004932846CCE701210160EFE74FF4887A5E
:10BC90004FF4A27951462068FEF7A1FE07464946B7
:10BCA0002068FEF79CFE06464FF492712068FEF76E
:10BCB00096FE014647EA06000843EBD0227902EBE4
:10BCC000C20308EB8302C2F818B001B10325002EAD
:10BCD000D7D00F25D5E70000200900202E2E5C2E9E
:10BCE0002E5C2E2E5C2E2E5C2E2E5C2E2E5C6D6F0E
:10BCF00064756C65735C6E7266785C647269766597
:10BD000072735C7372635C6E7266785F7561727475
:10BD1000652E63000179094A01EBC10102EB810143
:10BD2000C96931B10168D1F8002222F02002C1F8BE
:10BD300000220068012141607047000020090020B6
:10BD40002DE9F04704460F460079364900EBC00064
:10BD500001EB8005164695F82000012804D032A199
:10BD600040F22D10F7F786F927B92FA14FF49770FD
:10BD7000F7F780F926B92CA140F22F10F7F77AF9DE
:10BD8000207910B9B6F5803F04D327A14FF49870FD
:10BD9000F7F770F93846FFF7EFFA30B1204600F0B8
:10BDA0005FF820B11120BDE8F0871020FBE76E613D
:10BDB000AF604FF490774FF0000839462068FEF7E7
:10BDC00013FE4FF4AC7631462068FEF70DFE206876
:10BDD000AA686969C0F84425C0F8481520684FF082
:10BDE0000109C0F808906868D0B9BA465146206881
:10BDF000FEF7F5FD074631462068FEF7F0FD0743E4
:10BE0000F4D010B14FF00F0808E02068C0F80C9093
:10BE100031462068FEF7E3FD0028F9D00020686174
:10BE20004046C0E7200900202E2E5C2E2E5C2E2ED0
:10BE30005C2E2E5C2E2E5C2E2E5C6D6F64756C65F8
:10BE4000735C6E7266785C647269766572735C733B
:10BE500072635C6E7266785F75617274652E6300E2
:10BE60000079054900EBC00001EB80004069002823
:10BE700000D0012070470000200900202DE9F04784
:10BE8000064600793D4900EBC00001EB80053468AF
:10BE900068680127A8B13A49C4F80813306840F32C
:10BEA000073000280DDB00F01F0107FA01F14009FF
:10BEB000800000F1E020C0F88011BFF34F8FBFF386
:10BEC0006F8FD4F8000220F02000C4F80002A869A7
:10BED0004FF4A27820B141462046FEF785FD676009
:10BEE0004FF4AC7949462046FEF77EFDE7604746B1
:10BEF00049462046FEF773FD0028F9D0A86928B10D
:10BF000039462046FEF76BFD0028F1D04FF0000ABD
:10BF1000C4F800A53068D0F80C25D0F81495D0F8F6
:10BF20000885D0F810754FF0FF31C0F80C15C0F837
:10BF300014153068C0F80815C0F81015501C02D050
:10BF40001046FDF794F9B9F1FF3F02D04846FDF7DE
:10BF50008EF9781C02D03846FDF789F9B8F1FF3F19
:10BF600002D04046FDF783F92046FFF77FFB85F8B6
:10BF700020A0C5F804A0BDE8F0870000200900203B
:10BF80001003420003490248C1F80403704700004F
:10BF900004148001007002402DE9F0411D4617464F
:10BFA00006460C46AA4204D213A14FF4D670F7F706
:10BFB00061F8206838B1FFF7E7F920B90EA140F227
:10BFC000AD10F7F757F86068A84204D200217160FD
:10BFD0002168316007E075602168401B3160606056
:10BFE000216829442160AF4203D110B10120BDE88E
:10BFF000F0810020FBE700002E2E5C2E2E5C2E2E02
:10C000005C2E2E5C2E2E5C2E2E5C6D6F64756C6526
:10C01000735C6E7266785C647269766572735C7369
:10C0200072635C6E7266785F757362642E63000083
:10C0300010B50D4C207820B90CA140F2CC60F7F778
:10C0400019F800F09DFD1749D1F80403C1F8080361
:10C05000154900200860BFF36F8FBFF34F8F02F0C8
:10C0600077FA0120207010BD500100202E2E5C2E8A
:10C070002E5C2E2E5C2E2E5C2E2E5C2E2E5C6D6F7A
:10C0800064756C65735C6E7266785C647269766503
:10C0900072735C7372635C6E7266785F75736264F0
:10C0A0002E630000007002400075024070B51F4C06
:10C0B0002078012804D01EA140F28D60F6F7DAFF47
:10C0C0004FF40060FEF774FE02F032FB00F013FB49
:10C0D00008B102F04BFC4FF080500025D0E94C1025
:10C0E00008290AD1204940F2E37008604020091D68
:10C0F0000860BFF36F8FBFF34F8F1C49802008602B
:10C100001A4900201431086040F2FF10C4E902050A
:10C1100002F01EFAA5700220207000F0ECFA002850
:10C1200003D0BDE8704002F03BBC70BD5001002060
:10C130002E2E5C2E2E5C2E2E5C2E2E5C2E2E5C2E39
:10C140002E5C6D6F64756C65735C6E7266785C6492
:10C150007269766572735C7372635C6E7266785F27
:10C16000757362642E630000007802401C75024003
:10C1700002F028BB70B5054602F024FB2846F9F70B
:10C1800069FA044600F00F00092804D30E4940F272
:10C19000B140F6F76FFF04F00F0122064FF00100E7
:10C1A00001D50A4A01E0094A121D136888408343F9
:10C1B0001360BFF36F8FBFF34F8F284600F0BEF9B7
:10C1C0000349C1F8080370BD10CD0000107502408E
:10C1D0000070024070B5010600F00F050446092DFD
:10C1E00004D30C4940F27D40F6F744FF082D04D3F8
:10C1F000084940F27E40F6F73DFF07480460BFF370
:10C200004F8F44F480710160BFF36F8FBFF34F8F86
:10C2100070BD000010CD00000C75024070B50546E1
:10C2200000F08CF92149C1F804032846FEF724FCEC
:10C2300000283AD12846F9F70DFA044600F00F001D
:10C24000092804D31A494FF49460F6F713FF04F059
:10C250000F0021064FF0010401D5164901E01549F0
:10C26000091D0A6804FA00F002430A60BFF36F8FE9
:10C27000BFF34F8F280718D0280616D405F00F00FB
:10C28000082812D20020F6F711FE284600F0F2FC32
:10C290002846F9F791F984400748C168A143C16075
:10C2A000BDE870400020F6F72FBE70BD0070024060
:10C2B00010CD0000107502405001002010B5F9F7B4
:10C2C000C9F9BDE81040FEF7D7BB00002DE9F041E9
:10C2D0000E460746F9F770F9054626B918A140F64B
:10C2E0003800F6F7C7FE0020F6F7E0FD224C3807CD
:10C2F00004D1A078874201D010241BE02089E16896
:10C30000C04380B20843012101FA05F5284201D05B
:10C3100011240FE03846F9F765F900218160326891
:10C320000260726842608173E0680543E5600C4614
:10C3300002F050FB0020F6F7E7FD2046BDE8F08153
:10C340002E2E5C2E2E5C2E2E5C2E2E5C2E2E5C2E27
:10C350002E5C6D6F64756C65735C6E7266785C6480
:10C360007269766572735C7372635C6E7266785F15
:10C37000757362642E6300005001002010B5F9F758
:10C3800031F9808910BD000070B505460C46C8071C
:10C3900004D014A140F27970F6F76CFE05F00F019D
:10C3A0005CB1082912D31D480068C1B280290AD0A7
:10C3B0004FF48060A04210D20AE00829F3D209A10C
:10C3C00040F27B7007E04FF40070F3E7402C04D993
:10C3D00004A140F27D70F6F74DFE2846F9F702F908
:10C3E000848170BD2E2E5C2E2E5C2E2E5C2E2E5C3B
:10C3F0002E2E5C2E2E5C6D6F64756C65735C6E7298
:10C4000066785C647269766572735C7372635C6E85
:10C410007266785F757362642E6300001C7502405B
:10C4200010B5F9F717F9044600F00F00082804D3F7
:10C43000064940F2CA40F6F71DFE054944F48070F3
:10C440000860BFF36F8FBFF34F8F10BD10CD00009A
:10C450001875024010B5F9F7FDF800F00F01082932
:10C4600001D3002010BD0206054800EB810002D573
:10C47000D0F8200401E0D0F844040128F1D110BD27
:10C480000070024010B50446000606D42046FFF7AF
:10C49000E1FF10B1204600F0EDFB2046F9F7DAF895
:10C4A000044600F00F00082804D3064940F2D240A9
:10C4B000F6F7E0FD04480460BFF36F8FBFF34F8FC2
:10C4C00010BD000010CD00001875024070B5044684
:10C4D000000604F00F0502D5092D09D301E0092D4E
:10C4E00008D307A14FF4A670F6F7C4FD200601D5C6
:10C4F000114801E01048123030F8150070BD0000FE
:10C500002E2E5C2E2E5C2E2E5C2E2E5C2E2E5C2E65
:10C510002E5C6D6F64756C65735C6E7266785C64BE
:10C520007269766572735C7372635C6E7266785F53
:10C53000757362642E630000D8ED000070B5054687
:10C54000000605F00F0402D5092C09D301E0092CDF
:10C5500008D307A140F27510F6F78CFD280601D527
:10C56000114801E010480930015D0120884070BD8C
:10C570002E2E5C2E2E5C2E2E5C2E2E5C2E2E5C2EF5
:10C580002E5C6D6F64756C65735C6E7266785C644E
:10C590007269766572735C7372635C6E7266785FE3
:10C5A000757362642E630000FCED00002DE9F0411C
:10C5B0000D460646F9F700F8044625B930A14FF4B8
:10C5C000F960F6F757FD0020F6F770FC3A4831079E
:10C5D00004D181788E4201D0102438E00189804650
:10C5E000C943C06889B201270143A740394201D03D
:10C5F00011242CE03046F8F7F5FF044606F00F0052
:10C60000310600EB40002AD52C4901EB8006286852
:10C61000FEF7BAFE0028287A4FEAC07004D008B1AD
:10C62000274803E0274801E0B8B12748206095E893
:10C63000070086E807000020C4E90160A073D8F86D
:10C640000C1004460F43C8F80C7002F0C3F9002028
:10C65000F6F75AFC2046BDE8F0811C48E6E717498A
:10C660006C3101EB8006286838B1FEF78DFE20B9E9
:10C6700003A140F62200F6F7FDFC1548D6E70000BE
:10C680002E2E5C2E2E5C2E2E5C2E2E5C2E2E5C2EE4
:10C690002E5C6D6F64756C65735C6E7266785C643D
:10C6A0007269766572735C7372635C6E7266785FD2
:10C6B000757362642E63000050010020640A00203C
:10C6C000E1C8000065C80000C5C700002DC7000014
:10C6D00099BF000010B5F8F7BDFFBDE81040FEF7A8
:10C6E00023BB4FF08051D1E94C01082801D0002034
:10C6F0007047012070474FF08050D0E94C21002056
:10C70000082A03D10122002900D9104670474FF0B2
:10C710008051D1E94C01082801D000207047012048
:10C7200070470000004870473C0B00202DE9F041A5
:10C73000804616460C460868FEF726FE20B112A178
:10C7400040F21220F6F796FC65681D4FB54200D9FD
:10C750003546402D04D90CA14FF40770F6F78AFC3A
:10C760002A4638462168F3F772FFC8E90075606809
:10C77000401B60602068284420606068002800D06A
:10C780000120BDE8F08100002E2E5C2E2E5C2E2EA6
:10C790005C2E2E5C2E2E5C2E2E5C6D6F64756C658F
:10C7A000735C6E7266785C647269766572735C73D2
:10C7B00072635C6E7266785F757362642E630000EC
:10C7C0003C0B00202DE9F041064690460D460868D6
:10C7D000FEF7DAFD20B114A140F23520F6F74AFC4D
:10C7E0006C681F4F4046444500D90446402C04D98C
:10C7F0000DA140F23F20F6F73DFC34B12246384609
:10C800002968F3F724FF376001E00020306074608E
:10C810006868001B686028682044286014B1012003
:10C82000BDE8F0810020FBE72E2E5C2E2E5C2E2E24
:10C830005C2E2E5C2E2E5C2E2E5C6D6F64756C65EE
:10C84000735C6E7266785C647269766572735C7331
:10C8500072635C6E7266785F757362642E6300004B
:10C860003C0B00202DE9F041074616460C460868AF
:10C87000FEF78AFD20B90CA140F2D310F6F7FAFBBF
:10C880006568B54200D935462068C7E9000560688B
:10C89000401B60602068284420606068002800D049
:10C8A0000120BDE8F08100002E2E5C2E2E5C2E2E85
:10C8B0005C2E2E5C2E2E5C2E2E5C6D6F64756C656E
:10C8C000735C6E7266785C647269766572735C73B1
:10C8D00072635C6E7266785F757362642E630000CB
:10C8E0002DE9F041074616460C460868FEF74CFD58
:10C8F00020B910A14FF4FA70F6F7BCFB6568B54299
:10C9000000D93546002D0FD0D4F80000C7E9000546
:10C910006068A0EB0500606020682844206006D0B5
:10C920004FF00100BDE8F0814FF00000EEE74FF05E
:10C930000000F7E72E2E5C2E2E5C2E2E5C2E2E5C39
:10C940002E2E5C2E2E5C6D6F64756C65735C6E7242
:10C9500066785C647269766572735C7372635C6E30
:10C960007266785F757362642E630000014900206F
:10C9700048707047500100202DE9F041040004D1B7
:10C980001FA140F25F60F6F775FB2B49087810B1E4
:10C990000820BDE8F0814C600120002408704602A8
:10C9A0004FEA040544F0800707F00F00082801D380
:10C9B000314600E040213846FFF7E6FC3846F8F7FC
:10C9C00011FE8573641C0560E4B28560092CE9D30F
:10C9D0005FF0000404F00F00082801D3314600E0A6
:10C9E00040212046FFF7D0FC2046F8F7FBFD857379
:10C9F000641C0560E4B28560092CEBD30020C8E715
:10CA00002E2E5C2E2E5C2E2E5C2E2E5C2E2E5C2E60
:10CA10002E5C6D6F64756C65735C6E7266785C64B9
:10CA20007269766572735C7372635C6E7266785F4E
:10CA3000757362642E630000500100200348007883
:10CA4000022801D3012070470020704750010020C8
:10CA500002480078002800D00120704750010020D3
:10CA600010B5FFF7EBFF28B12720F4F703FC08B15E
:10CA7000012010BD002010BD0148807870470000E3
:10CA8000500100205020FEF7A5B94C20FEF7A2B9B6
:10CA90000021016041601149096801700F49091DB9
:10CAA000096841700D49083109680C4A0C32126856
:10CAB00041EA02214180094910310968074A1432CC
:10CAC000126841EA02218180044918310968034A49
:10CAD0001C32126841EA0221C18070478074024012
:10CAE0005420FEF777B9000070B5114D0446287840
:10CAF000022804D00FA140F2E160F6F7BBFA002053
:10CB000068701A4904B11A491A48C0F804131A493E
:10CB1000C02081F80004184A01208021233AC2F87D
:10CB2000001116490860BFF36F8FBFF34F8F70BDC0
:10CB3000500100202E2E5C2E2E5C2E2E5C2E2E5CA4
:10CB40002E2E5C2E2E5C6D6F64756C65735C6E7240
:10CB500066785C647269766572735C7372635C6E2E
:10CB60007266785F757362642E6300000714C001FB
:10CB70000714E0010070024027E000E00475024065
:10CB800070B513480078022804D012A14FF4E06079
:10CB9000F6F770FA1D4D8024C5F880422720F4F77F
:10CBA00069FB002812D001F08DFE194900200860B1
:10CBB000BFF36F8FBFF34F8FC5F88041BFF34F8F27
:10CBC000BFF36F8F1349401EC1F8080370BD00000A
:10CBD000500100202E2E5C2E2E5C2E2E5C2E2E5C04
:10CBE0002E2E5C2E2E5C6D6F64756C65735C6E72A0
:10CBF00066785C647269766572735C7372635C6E8E
:10CC00007266785F757362642E63000004E000E072
:10CC1000047502400070024010B500242046F6F76B
:10CC200045F90C48407878B101F04CFE0A4801689B
:10CC3000890509D4094901220A600068800502D5E6
:10CC40000020086000E001240020F6F75DF920468E
:10CC500010BD000050010020007402402C750240FD
:10CC600003490248C1F8080370470000041480011A
:10CC70000070024070B50446000604D515A140F6C8
:10CC8000B900F6F7F7F90020F6F710F92046F8F7A3
:10CC900093FC012181401D4804F00F0582688A43FE
:10CCA0008260082D10D2200604D519A140F25D4003
:10CCB000F6F7E0F9224A002002EB8501C1F8A00452
:10CCC000BFF36F8FBFF34F8FBDE870400020F6F7C2
:10CCD0001BB900002E2E5C2E2E5C2E2E5C2E2E5CA0
:10CCE0002E2E5C2E2E5C6D6F64756C65735C6E729F
:10CCF00066785C647269766572735C7372635C6E8D
:10CD00007266785F757362642E63000050010020C4
:10CD10002E2E5C2E2E5C2E2E5C2E2E5C2E2E5C2E4D
:10CD20002E5C6D6F64756C65735C6E7266785C68A2
:10CD3000616C2F6E72665F757362642E680000000E
:10CD40000070024010B5064C2078012804D005A1DF
:10CD500040F28460F6F78EF900206060207010BD0C
:10CD6000500100202E2E5C2E2E5C2E2E5C2E2E5C72
:10CD70002E2E5C2E2E5C6D6F64756C65735C6E720E
:10CD800066785C647269766572735C7372635C6EFC
:10CD90007266785F757362642E63000010B50024BC
:10CDA0002046F6F783F80F48407880B1FEF70AF87E
:10CDB00068B10D49002008600124FFF792FC30B1F2
:10CDC0000A490B68094AC02014322BB110600020B8
:10CDD000F6F79AF8204610BD49F275330B601060E3
:10CDE0000B60F4E7500100202C75024000EC064077
:10CDF00003490860034801680029FCD0704700001F
:10CE000004E5014000E4014070B50F4C064660683F
:10CE1000002817D03046F8F7E9F9054600213046DA
:10CE2000F8F78CF9281A20F07F40B0F5960F04D35C
:10CE300006A140F21B10F6F71DF9606800F062FFD2
:10CE40000020606070BD0000980100202E2E5C2E36
:10CE50002E5C2E2E5C2E2E5C2E2E5C2E2E5C636F96
:10CE60006D706F6E656E74735C6C6962726172690D
:10CE700065735C74696D65725C6170705F74696D17
:10CE80006572322E630000002DE9F84317460C004E
:10CE900005462BD0DFF870804646D8F80000F7F73B
:10CEA000BFFA3844C7B23068F7F7BAFAA968497EC2
:10CEB000081AB0FBF7F0C6B22046F7F7B1FAA96836
:10CEC000381AC7B2487FB0FBF6F206FB1202401CCC
:10CED000487782B123460DA207212846FBF764FA62
:10CEE00039462846BDE8F843F8F7DCB8A9680020C1
:10CEF0004877BDE8F883009405A207212846D8F8B2
:10CF00000030FBF751FAEBE7B80200202573000070
:10CF10000A2573257300000010B50549C20800F00A
:10CF20000703885C01249C402043885410BD000006
:10CF3000EC0800200349084490F93000C017401C59
:10CF400070470000880800200449084490F9300028
:10CF5000082801DB01207047002070478808002066
:10CF60000449084490F93000082801D20120704794
:10CF700000207047880800202DE9F84F314F054602
:10CF80004FF001090024381990F96010491C46D06F
:10CF900090F86000294620F0C0063046FAF7FCFD04
:10CFA00070B3204600F050F8824668460096FCF7C1
:10CFB000FDF9009900EB8100D0F80007C0F30148AB
:10CFC000B8F1020F1DD002213046FCF77FF9684608
:10CFD0000096FCF7EBF9009A09FA02F1C0F8201567
:10CFE0003046F6F761FC57F820204AB15046BAF1B6
:10CFF000030F11D0B8F1020F05D0B8F1030F07D01D
:10D000000DE00321E0E75046BAF1010F04D006E03D
:10D010005046BAF1020F02D1014630469047641CD7
:10D02000042CB0D32A4602210020FCF767F9002027
:10D0300055F820100029A5D1401C0228F8D3BDE8DE
:10D04000F88F0000880800200249084490F860002A
:10D05000800970478808002010B50C46017A052920
:10D0600008D0407A38B1084808A102682046FBF78A
:10D07000FBFE00E01AB106A12046FBF7F5FE2046B4
:10D08000BDE81040FBF730BF3403002025730000DB
:10D090000D0A000038B5C3880D46044633B114A00C
:10D0A000009015A216A12846FBF7DEFE217A05297D
:10D0B0001CD0607A48B1A088FCF78EFB164951F865
:10D0C000202016A12846FBF7CFFEA0880021FCF700
:10D0D00007FE03461049207A143951F8202001B088
:10D0E0002846BDE830400EA1FBF7BEBE38BD0000AB
:10D0F0001B5B306D000000001B5B313B33316D006A
:10D1000025734C6F67732064726F7070656420289C
:10D1100025642925730D0A003403002025730000BF
:10D120003C25733E2025733A20000000EFF3058074
:10D13000C005C00D01D001207047EFF3148040F30B
:10D140000000401C704700000349884201D1034899
:10D150007047002070470000002000404801002078
:10D1600001680A684968914201D3881A704780684B
:10D17000801A0844401C704770B50546F8F737F927
:10D18000114C40B1D4E904024FF08071411842F1D2
:10D190000000C4E9041000212846F7F7D6FF10B1BB
:10D1A0002846FFF731FE01212846F7F7CEFF18B1D8
:10D1B000F8F74AFDC4E90601284600F019FE2846A2
:10D1C000BDE8704000F03EB8980100202DE9F04124
:10D1D00000260E70D0E902740D468046F8F734FD43
:10D1E000381A002364EB01011A461B1A8A411ADA25
:10D1F000B0F5350F04D3F4F7A1F90F49421800E058
:10D200003A464FF4960300210C48F8F745F940B12F
:10D210000D280CD00A49E620F5F72CFF0020BDE8C8
:10D22000F0810120FBE700210448F7F781FF404629
:10D2300000F068FD2870F1E7FFFFB400A0010020B6
:10D240004CCE0000F8B5204C064600251F48FDF7DF
:10D25000FBFA10B3D0E90210CA4372EA000224D0EC
:10D26000626882B16368D3E90223891A984127D2A0
:10D270006068D0E90210C94371EA000103D0616817
:10D280001248FDF7A5FA00F00FFC07466946FFF7C4
:10D290009DFFB0B1606858B10DE0606800280FD103
:10D2A0003046BDE8F840F8F7CFB800F0FDFBCDE719
:10D2B0003046F8F7A1F867609DF800000028C5D156
:10D2C000F8BD6560C2E700009801002020EE000074
:10D2D00070B5054688690C4600284FF484712846CD
:10D2E0000AD0FDF770FBD5F81805626AE16888542A
:10D2F000606A401C606270BDFDF765FBD5F81805DB
:10D3000070BD1FB501238DF80030CDE90121D0E9B2
:10D310000012684690471FBD1FB501238DF80030ED
:10D32000CDE90121D0E90012684690471FBD10B534
:10D33000044600684FF49271FDF745FB4FF4847189
:10D340002068FDF740FB20680121016010BD00004E
:10D350007CB50546FF20009001236A4601A9E868D4
:10D36000FDF760F8040004D010A11A20F5F782FE42
:10D3700019E0009ABAB168691C4C01990378D2B2DD
:10D38000E35C1BB1001DFEF707FC02E00C30FEF76A
:10D39000FFF9040007D1A8682A4640F266610068D8
:10D3A000F4F73EF9044620467CBD00002E2E5C2E8C
:10D3B0002E5C2E2E5C2E2E5C2E2E5C2E2E5C636F31
:10D3C0006D706F6E656E74735C6C696272617269A8
:10D3D00065735C636C695C756172745C6E72665FC8
:10D3E000636C695F756172742E6300001801002020
:10D3F00070B50E4C0020D2B22070201D0C4D037869
:10D40000EB5C1BB1001DFEF79BFC02E00C30FEF74D
:10D4100071FA18B1074A2D21F2F76EFF60780028E3
:10D4200002D021780029FAD070BD0000BC02002093
:10D4300018010020F0030100002070472DE9FE4391
:10D4400008790C46012804D0022809D0032878D195
:10D4500078E0B4F80700002871D0122243497DE03B
:10D46000B4F8070000286AD0092800D909208146AD
:10D4700009264FF00008F4F7D3FA25E0686820B9D0
:10D480003BA140F2AB20F5F7F5FD6868406820B994
:10D4900037A14FF42B70F5F7EDFD0027009700E062
:10D4A0007F1C686801230022D0F804C02946684622
:10D4B000E0470028F4D1297A3E4401EB080000F04F
:10D4C000FF082846F4F710FB0500D7D102A8F4F7AF
:10D4D000D9FD02990546894504D925A140F2C1200C
:10D4E000F5F7C8FD21494A4612312846F3F7AFF84F
:10D4F00085F804806E80F4F71FFB18B1E87940F0DE
:10D500002000E871F4F78CFA0146284880E82202EE
:10D51000B4F80710C1600020F5F7C8FC134980205B
:10D520000839F4F741FE040005D110498020103974
:10D53000F4F704FD04460020F5F7E6FC2046BDE8BC
:10D54000FE8311E0B4F807000028F8D0E078B4F8C2
:10D550000510F5F72FFC010006D00A7803B0601C17
:10D56000BDE8F043F4F75EBD0620E8E784EE000076
:10D570002E2E5C2E2E5C2E2E5C2E2E5C2E2E5C2EE5
:10D580002E5C636F6D706F6E656E74735C6C696238
:10D590007261726965735C757362645C6170705FFF
:10D5A000757362645F636F72652E6300F80D00200F
:10D5B00038B50D466846F4F765FD04460098022824
:10D5C00004D20CA140F27920F5F754FD0020208010
:10D5D0002078174940F00100207049784908C907B0
:10D5E00002D040F00200207002222146681CF4F7AD
:10D5F00019FD38BD2E2E5C2E2E5C2E2E5C2E2E5C40
:10D600002E2E5C2E2E5C636F6D706F6E656E747364
:10D610005C6C69627261726965735C757362645C8B
:10D620006170705F757362645F636F72652E630013
:10D6300008020020F8B50C46070004D13EA140F2D4
:10D640004230F5F717FD24B93BA140F24330F5F71E
:10D6500011FD607810F0600F2AD10006454DA078CA
:10D660004FF0000626D520B1062808D008281FD183
:10D670000BE021463846BDE8F840FFF799BF214648
:10D680003846BDE8F840FFF7D9BE6846F4F7FAFC23
:10D6900001462878052802D0042803D008E001209C
:10D6A000087000E00E700122601CF4F7BBFCF8BDAE
:10D6B0000620F8BD0A28FBD2DFE800F00517050CAC
:10D6C000050605050526F3E71BA140F26630F5F7D0
:10D6D000D1FCEDE7B4F803000128E9D1F4F72CFA06
:10D6E00080B1687840F0020009E0B4F80300012836
:10D6F000DED1F4F721FA28B1687820F002006870D2
:10D700000020F8BD0F20F8BD2878052803D0042894
:10D7100001D00820F8BDE07818B1012805D0072015
:10D72000F8BDF4F71BF8042002E0F4F72FF8052009
:10D7300000F05AFE3046F8BD2E2E5C2E2E5C2E2EAA
:10D740005C2E2E5C2E2E5C2E2E5C636F6D706F6EC9
:10D75000656E74735C6C69627261726965735C7525
:10D760007362645C6170705F757362645F636F7233
:10D77000652E630008020020F8B50546407810F0D9
:10D78000600F3FD120486C79A978007821B1012938
:10D7900023D0032936D111E0052801D0200727D155
:10D7A0006846F4F76FFC06462046FEF753FE3080CD
:10D7B00002223146681CF4F735FCF8BD04F00F0175
:10D7C00008291FD2B5F80310E1B921071AD005289E
:10D7D0000ED12046FEF724FE12E004F00F010829C6
:10D7E00010D2B5F8031069B921070BD0052801D074
:10D7F0000820F8BD2046FEF7EDFC2046FEF742FE6D
:10D800000020F8BD0620F8BD080200202DE9F041F7
:10D810001E4617460C00054604D12B4940F2611004
:10D82000F5F728FC27B928494FF4B170F5F722FC29
:10D8300026B9254940F26310F5F71CFC7078010603
:10D84000C0F3411033D510B101282DD107E0334684
:10D850003A4621462846BDE8F04100F0C9B8B27802
:10D860003046012A04D0022A10D0032A1CD113E02A
:10D870000179012903D0022901D0032914D1A1691A
:10D8800028460A683146BDE8F0411047C27807F1E2
:10D8900008011144012202E0012207F10C01701C71
:10D8A000BDE8F041F4F7BEBB0620BDE8F0810028DA
:10D8B000FAD00128F8D133463A4621462846BDE839
:10D8C000F04100F047B80000A8F50000F8B50B469D
:10D8D00051780646144611F0600F25D11C48090600
:10D8E000A17800781ED511B10A291DD109E00528BB
:10D8F0001ED16846F4F7C6FB0146002008800222CC
:10D900000CE0052814D16846F4F7BCFB054619461F
:10D910003046F5F7DBF8287001222946601CF4F741
:10D9200081FBF8BD0B2901D00620F8BD052801D0E8
:10D930000820F8BDB4F80300FF2801D90720F8BD7E
:10D94000D27819463046BDE8F840F5F791B80000A6
:10D950000802002070B59E780D46092E06D00024DE
:10D9600001210A2E0ED00B2E40D131E01979022967
:10D9700001D003293AD1A9694A687AB3BDE8704059
:10D9800019461047DE7802F108001D793554DD781C
:10D990004FF4006002EB85056861187938B182F8B0
:10D9A0002810D87808B182F82910002070BD012015
:10D9B0001118097A0029F8D1401CC0B20428F7D305
:10D9C00082F82940107A0028EFD182F82840ECE74D
:10D9D000B3F803301BB10123117302E006E000230A
:10D9E00014731A46294601F073F8DEE7062070BD6D
:10D9F0002DE9FE43814658781C4600F01F000D4675
:10DA000001283AD1A078062837D100200190277943
:10DA1000E67802A8F4F736FB8046A7F12100022839
:10DA20002BD201A800904346324639464846F3F7C8
:10DA300097FFC0B1A869016948468847B0421CD920
:10DA4000A86931464269484690470746A8690022BE
:10DA5000314683694846984701463A46601CF4F7C8
:10DA6000E1FABDE8FE830198402803D304498920E8
:10DA7000F5F700FB4146019AF0E70620F1E70000C8
:10DA8000A8F500000022CA604A60054A8A6005289D
:10DA900003D2044A52F8200000E0002008607047DA
:10DAA0002CF30000F40200200148FCF7F7BE000050
:10DAB00020EE0000C207002A03D000BF4FF00F0283
:10DAC00001E04FF0F00201D04FEA0111044B03EBEB
:10DAD0005003187800EA020040EA0100187070470D
:10DAE0007C0B00202DE9F84F0546274891468846D3
:10DAF00006681F46012269461846F5F7FFFDDFF864
:10DB00008CA0B0B3009800210446801C0AE000BF3E
:10DB100000EA060259F821C00AEB8202401C491CA7
:10DB2000C2F80CC0B942F3D3B9462F0CF7F7F6FA96
:10DB30008346FCF77FF8B84204D8154940F28310B9
:10DB4000F5F798FA601C30400AEB800047EA0B4278
:10DB50003440C2600AEB8400C16865F3C50169F313
:10DB6000891168F39F2121F00301491C21F0040170
:10DB7000C1609AF8000001E0FBF746FE0028FBD1E7
:10DB8000F9F77EFABDE8F88FDC020020B40F002020
:10DB90003804010070B50C46050004D108A140F618
:10DBA000FF10F5F767FA24B905A14FF42060F5F7E7
:10DBB00061FA21682868BDE87040F2F781BD000075
:10DBC0002E2E5C2E2E5C2E2E5C2E2E5C2E2E5C2E8F
:10DBD0002E5C636F6D706F6E656E74735C6C6962E2
:10DBE0007261726965735C636C695C6E72665F63B7
:10DBF0006C692E630000000070B50546F5F708F962
:10DC0000124C06462078F5F703F986420AD02846DA
:10DC1000F5F7FEF820B104F11C00FAF78BFF01E0E4
:10DC2000FAF746FF2846F5F700F906462078F5F79B
:10DC3000FCF8864208D02846F5F7F7F810B1FEF751
:10DC4000A1F901E0FFF70CF8257070BDE401002098
:10DC50002DE9F04114460D00064604D11BA140F207
:10DC60002330F5F707FA24B918A14FF44970F5F7F6
:10DC700001FA3046F7F74EF978B9B068FA21077D16
:10DC800090F816803046F7F70DFAFA213046F7F78C
:10DC9000BDF83046F7F73EF910B10620BDE8F08137
:10DCA000B068007D2870B068807D20702878C01B27
:10DCB000C1B23046F7F71CF92178A1EB0800C1B2D8
:10DCC0003046F7F7FBF90020E8E700002E2E5C2E27
:10DCD0002E5C2E2E5C2E2E5C2E2E5C2E2E5C636F08
:10DCE0006D706F6E656E74735C6C6962726172697F
:10DCF00065735C636C695C6E72665F636C692E63EE
:10DD00000000000070B50446406918B920A17F20CA
:10DD1000F5F7B0F92D480025007860B35CB3F7F74C
:10DD200093FFD4E90223801A994125D30020F5F707
:10DD3000BDF8206910B9681EC4E902000020F5F79B
:10DD4000E3F8D4E9051088470020F5F7AFF8226919
:10DD500072B1D4E90210CB4373EA000308D08918EA
:10DD600040F10000C4E902100020F5F7CDF807E00B
:10DD70000020F5F7C9F808E0D04370EA030004D0AA
:10DD800021461348FCF724FD0125284670BD0000FC
:10DD90002E2E5C2E2E5C2E2E5C2E2E5C2E2E5C2EBD
:10DDA0002E5C636F6D706F6E656E74735C6C696210
:10DDB0007261726965735C74696D65725C617070C3
:10DDC0005F74696D6572322E630000009801002057
:10DDD00020EE00004069054A0178515C11B1001D38
:10DDE000FDF798BF0C30FDF77BBD00001801002047
:10DDF00038B51D4D69462868F9F7EDFC1B4C30E03D
:10DE0000017821B101290ED0022922D117E0416801
:10DE1000D1E90220D24372EA00021AD01248083037
:10DE2000FCF7D6FC15E041686068814202D1002011
:10DE300060600EE00C480830FCF75EFD09E0FFF77B
:10DE400033FE20B14FF0FF31C0E90211F7E70120A6
:10DE5000207069462868F9F7B3FC69462868F9F725
:10DE6000BAFC0028CCD138BD18EE00009801002083
:10DE7000F8B50B4C0D46064669462068F9F795FC47
:10DE800058B10670456069462068F9F7AFFC10B1DB
:10DE90000448F7F799FA0020F8BD0420F8BD000007
:10DEA00018EE0000A00100200348806841080348E4
:10DEB00000224068F3F7B4BB6001002010EE0000C0
:10DEC00070B50C4605464FF48E71FCF77CFD216A57
:10DED000A068415C206A401C2062C5F81C1570BD1A
:10DEE0001FB500228DF800200291816801914261E6
:10DEF000D0E90012684690471FBD1FB500228DF87B
:10DF000000200291816801914261D0E900126846C7
:10DF100090471FBD7CB5FF260546009600780C464D
:10DF2000002835D0012819D0022802D02CA1652064
:10DF300011E0297AE068FCF72DFC28B1042803D011
:10DF400027A13920F5F796F82046FFF701FA0028B7
:10DF500003D023A13B20F5F78DF87CBD297AE0683A
:10DF6000FCF718FC28B1042803D01DA14120F5F7C7
:10DF700081F8287A20B16068D0E90021002090471C
:10DF80002046FFF7E5F90028E7D015A14D20E2E78C
:10DF9000297A2069FCF77AFB18B111A15320F5F713
:10DFA00069F8009601236A4601A92069FCF782FB03
:10DFB00018B10BA15620F5F75DF8009848B1C2B230
:10DFC00060690199FAF734FF18B105A15B20F5F7F4
:10DFD00051F86068D0E90021012090477CBD000025
:10DFE0002E2E5C2E2E5C2E2E5C2E2E5C2E2E5C2E6B
:10DFF0002E5C636F6D706F6E656E74735C6C6962BE
:10E000007261726965735C636C695C756172745C82
:10E010006E72665F636C695F756172742E63000077
:10E020001FB50A4601788DF8001041680191017A08
:10E030008DF80810C0680390044850F82210083882
:10E0400050F82220684690471FBD000024010020A0
:10E050000149012008707047BC02002010B588B04B
:10E06000044620220F496846F2F7F1FA0620009094
:10E07000C01F0190029003904FF0EB7006900CB11E
:10E08000094A00E0002269460848FAF76FFE18B115
:10E09000074A1D21F2F730F90448001F447008B008
:10E0A00010BD00000CF3000051E00000C002002091
:10E0B000F00301002DE9FF470C4605464FF40071BF
:10E0C000FCF787FC01274FF40178002618B34FF4C2
:10E0D000927949462846FCF771FCE0B1494628464A
:10E0E000FCF771FCC5F8088394F8290000B96F604B
:10E0F00002208DF80000D5F88004C5F88004039054
:10E10000A0690290E0680190A661E661D4E900127E
:10E110006846904728E004212846FCF75AFC18B3CB
:10E120004FF484712846FCF749FCE8B121462846A3
:10E13000FFF7CEF8616AA069884215D1E06938B16D
:10E14000E268616AA0612069E6616662E06008E0F9
:10E1500094F8290000B96F60C5F80883A661E268E9
:10E16000616A2046FFF7CDF84FF48E784146284685
:10E17000FCF724FC80B16069216A814202D294F8E4
:10E18000280028B341462846FCF71DFC606918B1F9
:10E1900061692046FFF7A4FE4FF4A2784146284665
:10E1A000FCF70CFC002818D041462846FCF70BFC75
:10E1B00094F8290000B12F60A06900280DD0A66155
:10E1C000E268616A04B02046BDE8F047FFF799B8FD
:10E1D00021462846FFF774FEDEE7BDE8FF87000012
:10E1E0001FB50A4601788DF8001041680191017A47
:10E1F0008DF80810C0680390044850F822100838C1
:10E2000050F82220684690471FBD000024010020DE
:10E210002DE9FF410C464FF4927705463946FCF74D
:10E22000DEFB0026B8B139462846FCF7DDFB0220AC
:10E230008DF80000D5F88004C5F880040390D5F867
:10E240003C050290E0680190A661E661D4E9001205
:10E250006846904723E04FF4887739462846FCF714
:10E26000BEFBE0B139462846FCF7BEFBD5F83C15AD
:10E27000A069884213D1E06960B1E268D5F8000274
:10E2800020F02000C5F80002E069A0612069E66185
:10E29000E06001E0A661E2682046FFF73DF84FF438
:10E2A000A27739462846FCF79AFB68B139462846DA
:10E2B000FCF79AFBA06938B1A661E661D5F83C1578
:10E2C0002046E268FFF728F84FF49076314628465A
:10E2D000FCF785FB60B131462846FCF785FB012041
:10E2E000E860606920B1D5F84C152046FFF705FEBF
:10E2F0004FF4AC7631462846FCF771FB00280ED06F
:10E3000031462846FCF770FB6069002807D0D5F835
:10E310004C1504B02046BDE8F041FFF7EEBDBDE866
:10E32000FF8100002DE9F05F8346DDE90A4A994646
:10E3300090460D460846012703E000BFB0FBF8F009
:10E340007F1C4045FAD2B94500D94F465FEACA70F2
:10E3500012D18CB15FEA8A7002D5B9F1000F01D0F9
:10E36000202607E0302605E031465846641EF5F7C2
:10E370000BFA0CB1A742F7D35FF00106B9F1010F18
:10E3800002D9A9F1010903E0B5FBF6F0404502D33B
:10E3900006FB08F6F2E7DFF83C9000BFB5FBF6F0AD
:10E3A00000FB165519F800105846F5F7EDF9B6FBC5
:10E3B000F8F6002EF2D15FEACA7009D0002C07D01F
:10E3C000A74205D220215846641EF5F7DDF9F5E78E
:10E3D000BDE8F09F8CF1000002480068002800D0E2
:10E3E000012070471002002007490A78824209D0B4
:10E3F0000870052803D0487820F0020048700348D0
:10E40000F3F7B2BF704700000802002070EE000072
:10E410002DE9FE4F8046486891464FF0010A0C46B0
:10E4200028B92068F3F760FB08B9A06890B1B9F18A
:10E43000400F04D937A140F27110F4F71BFE0026FB
:10E440000096FEF76FF9E768834648464F4559D96D
:10E45000074657E04FF0000AC8F800A0C8F804A02B
:10E4600054E0A068B84201D93D4600E00546616825
:10E4700039B10BEB06002A46F2F7E9F8002060609C
:10E480000CE058B121680BEB06022B464868D0F827
:10E4900004C004F11000E04701200090A068A7EB41
:10E4A0000507411BA160E0682E44A0EB0500E06079
:10E4B00005D1009818B12068F3F716FB2060E068DA
:10E4C00010B1A068F0B902E04FF0000A1AE020682D
:10E4D00000284FF0000001D0019009E060609EB17B
:10E4E0004E4511D24FF0000A0EE0A068401CA0601B
:10E4F0002168012300224868456801A8A847002830
:10E50000F3D12061002FACD1C8E900B65046BDE878
:10E51000FE8F00002E2E5C2E2E5C2E2E5C2E2E5C8E
:10E520002E2E5C2E2E5C636F6D706F6E656E747335
:10E530005C6C69627261726965735C757362645C5C
:10E540006170705F757362645F636F72652E6300E4
:10E5500010B5FEF7DCF8002108B10248016002485E
:10E56000C17010BD1C7C0240500100202DE9F04F0D
:10E57000504D89B0E87800284AD181464FF0010A11
:10E5800042E000BF10F0012F01D000F0012090FA0E
:10E59000A0F0B0FA80F08046F4F79AFD0646F7F74F
:10E5A00021F80446006820B943A140F23B50F4F73B
:10E5B00061FD300607D5D4E90031A28902A8984749
:10E5C000002836D037E03046FEF784F8D4E90071F1
:10E5D00083460346A28902A8B84707460298D0B1ED
:10E5E000039959451DD20220A0730AFA08F0C143CD
:10E5F00030480C30FCF702FC3D48006B00908DF871
:10E600000260696868468847D5E902100840B9D1B8
:10E6100009B0BDE8F08F039850B127A140F25750E0
:10E6200004E0594504D024A140F26650F4F722FDDD
:10E630000FB9C4F80090FEF76AF810B12D49822096
:10E64000086085F803A0A9680AFA08F08143A96068
:10E65000A06803990844A060DDE902123046FCF787
:10E66000E3F9300606F00F0002D5092809D301E0CE
:10E67000092808D320A14FF41B70F4F7FBFC3006E7
:10E6800001D5042100E0282106F00F0001EB8000F5
:10E69000FCF7A0FB4FF480743046FDF717FFFCF742
:10E6A0006FFB0028B4D12046FCF76AFB0028F3D0AA
:10E6B000AEE70000500100202E2E5C2E2E5C2E2E88
:10E6C0005C2E2E5C2E2E5C2E2E5C6D6F64756C6540
:10E6D000735C6E7266785C647269766572735C7383
:10E6E00072635C6E7266785F757362642E6300009D
:10E6F00040ED00001C7C02402E2E5C2E2E5C2E2E47
:10E700005C2E2E5C2E2E5C2E2E5C6D6F64756C65FF
:10E71000735C6E7266785C647269766572735C7342
:10E7200072635C6E7266785F757362642E6300005C
:10E7300070B5FDF7E0FF08B100F018F9FDF7D1FF63
:10E740001D4C1D4E49F27535143C48B10020F4F7BC
:10E75000ADFB2168C02031B330600020F4F7D4FB5A
:10E76000164901200860BFF36F8FBFF34F8F144A23
:10E77000C00211680142FCD0FCF71AFBFDF7B1FFA3
:10E7800048B10020F4F792FB2168002079B1306095
:10E790000020F4F7B9FBFDF7AEFF00280BD0BDE871
:10E7A000704000F0FDB8256030602560D5E7256039
:10E7B00030602560ECE770BD14EC06400075024047
:10E7C000007402402DE9F84307460020F4F76EFB81
:10E7D0003846F6F707FF0646374D38064FF0000873
:10E7E0004FF003094FF001041FD43846F6F7E4FE5A
:10E7F000E96804FA00F0884303D03846FEF73AFA95
:10E8000010E03846C6F80080F6F7D6FEE96804FA4C
:10E8100000F081433846E960F6F7CEFE8440A868F0
:10E82000A043A86086F80E9040E007F00F01082989
:10E8300016D2224B40F2B472181D802F07D002EB83
:10E84000410119600168C9B241F0020104E01A6097
:10E850000168C9B241F0040102680A43026000681D
:10E860003846F6F7A9FED5E9022104FA00F061EA7C
:10E87000020108421AD03846F6F79EFEE96804FA0B
:10E8800000F081433846E960F6F796FE8440A868B8
:10E890000443AC600A48C6F8008086F80E90006811
:10E8A00000908DF80270696868468847BDE8F843B3
:10E8B0000020F4F729BB000050010020007802403E
:10E8C00040ED00002DE9F041104EB068040CF068F6
:10E8D00024040443012712E094FAA4F0B0FA80F56E
:10E8E0002846F4F7F5FB00F00F00082804D228466C
:10E8F000F4F7EEFBFFF766FF07FA05F08443002C00
:10E90000EAD140F2FF10B060BDE8F0815001002074
:10E91000F8B5144C05460126A0688E403043A0602F
:10E92000114F280612D52846FDF7D0FDFCF730FA26
:10E9300038B1802D03D02846FCF7D6F801E0FCF76B
:10E9400059F8E06806420BD1B86903E0E068064276
:10E9500006D1F86900908DF80250616868468847D2
:10E96000F8BD00005001002040ED000010B500206F
:10E97000F4F79CFA08480368084A03212BB1116098
:10E98000BDE810400020F4F7BFBA49F275330360C8
:10E9900011600360F4E7000000EC064014ED06404F
:10E9A00010B50020F4F782FA08480368084A0021ED
:10E9B0002BB11160BDE810400020F4F7A5BA49F270
:10E9C0007533036011600360F4E7000000EC06405B
:10E9D00014ED064002498020C1F800027047000093
:10E9E00004E000E070B52749274E254D891B03221E
:10E9F000C90802EB01420023204C69880F280AD283
:10EA0000DFE800F009080A0E090909091A28320985
:10EA1000090E1400237070BD2370F4F7EFF907E0BE
:10EA20002370BDE870400020F4F718BCF3F732FB08
:10EA3000BDE87040F4F770BC032903D3104613A15E
:10EA4000FBF71CF8FDF7FAFF0028E4D1BDE87040A1
:10EA5000F3F74ABB032903D3104611A1FBF70EF8C5
:10EA6000BDE87040F4F79CB9032903D3104611A107
:10EA7000FBF704F8BDE87040F4F75AB978000020BD
:10EA8000E8030020180B0100400A01005553422002
:10EA9000706F7765722064657465637465640000E7
:10EAA00055534220706F7765722072656D6F766581
:10EAB00064000000555342207265616479000000D3
:10EAC000024A1268002A00D010477047AC0D00209F
:10EAD000CB69002B01D0114618477047024949689D
:10EAE000002900D008477047AC0D002070B50C46D7
:10EAF0000546F4F76DFE002807D04268002A04D0CE
:10EB000021462846BDE87040104770BD1CB500295D
:10EB100013D08268127F8A420FD008A3D3E9002362
:10EB2000CDE9002301F12F028DF8032082681177CF
:10EB300000696A4603A1FAF797F91CBD1B5B340014
:10EB40006D000000257300001CB5826899B1D27E6B
:10EB50008A420FD00CA2D2E90032CDE9003201F195
:10EB60002F028DF805208268D17600696A4608A1D7
:10EB7000FAF77AF91CBDD176006902B0054ABDE802
:10EB8000104003A1FAF770B91B5B313B33006D00F5
:10EB9000257300003DF10000000000205C0400200F
:10EBA0003F0000009C040020B40400200F0000007F
:10EBB000C40400200000000000200040000000000D
:10EBC000002000400000000078F10000DC0400207C
:10EBD00098EB0000A8EB00009CEB0000B4EB0000F9
:10EBE0005800002020F50000C8EB000008050020B8
:10EBF000200A010020000020200B01003008002026
:10EC0000E8EE000001000103810000004C0000203C
:10EC1000010000000102000094000020A0EC0000B0
:10EC2000A8EC0000C4EE0000C16500005000002008
:10EC3000740B0100FFFFFFFFFFFFFFFFFFFFFFFF60
:10EC4000FFFFFFFF00000000000000000000D601F1
:10EC50000601000000000000E5E9000000000000DF
:10EC600005010902A1010901A100050919012902F3
:10EC70001500250175019502810275069501810136
:10EC800005010930093109381581257F750895037B
:10EC90008106C0C0340000002200000060EC0000CB
:10ECA0009C00002001000000F4070020200000006C
:10ECB0000D0E0F100B0C1819B0000020D000002012
:10ECC000F00000200B000300613300000C00030083
:10ECD00061330000180003006133000019000300D5
:10ECE0006133000000000000ECEC000040F5000083
:10ECF00048F5000000000000A54A000044F50000AF
:10ED000030F50000000000000D4B00000000000086
:10ED100000000000000000000000000060F500009E
:10ED200060F50000E4EC00000000000000000000BE
:10ED30000000005000030050C9B60000D9BA00001E
:10ED400006000003010000000600000006000000AD
:10ED5000060000000600000006000000060000019A
:10ED60000500000002000000030000000400000095
:10ED7000060000025D5900009D5800007556000015
:10ED8000795600007F560000855600008B56000023
:10ED900091560000975600009D560000C157000094
:10EDA000A3560000A9560000095700000F570000A5
:10EDB000155700001B57000021570000275700007F
:10EDC0002D5700003557000055580000A15800008D
:10EDD000DD5700008157000008010C0110011401EB
:10EDE00018011C01200124012C01300134013801DB
:10EDF0003C014001440148014C015001020304055B
:10EE0000060708090B0C0D0E0F1011121314000049
:10EE10000300000078010020B80100200100060076
:10EE200000000000CC010020EB4C0000800000003E
:10EE30000B8100008200000083000000840D0E039F
:10EE4000030000000B0000000C000000D0010020B7
:10EE50008500000008000000090000000A00000012
:10EE6000012C000000000000000000000000000075
:10EE70000F00000039D400000000000011E4000081
:10EE8000F80D0020120100020000004015190C527C
:10EE900000010102030109020000000104C0320068
:10EEA000C11D000000000000000000000000000084
:10EEB00000000000100E0020A0EE00000100020380
:10EEC000008000006D630000D56300009D5D0000C0
:10EED000CB5D000035620000556200003F6200001B
:10EEE000B563000069620000095E0000495E000031
:10EEF0000000000000000000000000007564000039
:10EF0000000000008B64000000000000000004030B
:10EF100009044E6F726469632053656D69636F6E97
:10EF2000647563746F72006E5246353220555342D9
:10EF3000204849442067656E657269632044656DA9
:10EF40006F003030303030303030303030300044CE
:10EF5000656661756C7420636F6E66696775726152
:10EF600074696F6E005573657220310000000101F5
:10EF70000202030304040505000000000000000075
:10EF80000338FDD8704700000000000090EF00003B
:10EF900010FC0000ECFB000000000000797A00008B
:10EFA0000000000000000000000000000000000061
:10EFB00018FC000020FC000088EF0000797A0000B7
:10EFC000799600005B96000051960000000000005A
:10EFD000D4EF000000FD0000E8FC0000000000008D
:10EFE000E17F000004FD0000D0FC000000000000F4
:10EFF0000B80000000000000000000000000000086
:10F0000000000000000000000CF0000000FD000007
:10F0100008FD000000000000CD80000004FD00009D
:10F0200064FD000000000000F78000000000000008
:10F0300000000000000000000000000000000000D0
:10F0400044F00000D0FD0000A4FD0000000000001E
:10F05000617E0000D8FD000078FD00000000000087
:10F06000917E000000000000000000000000000091
:10F0700000000000000000007CF0000024FE000002
:10F0800004FE0000CCEF0000197F00001CFE000011
:10F09000E0FD000004F00000358000002CFE0000C0
:10F0A000F4FD00003CF00000F57D000000000000D1
:10F0B0000000000000000000000000000000000050
:10F0C000C4F0000078FE000034FE000000000000E4
:10F0D0001D83000000000000000000000000000090
:10F0E0000000000090FE000080FE00000000000014
:10F0F000717C0000BCFE000098FE000074F000006F
:10F10000457D0000D4FE0000C0FE000000000000AD
:10F11000218100007CFF0000DCFE0000BCF000004C
:10F12000F981000000000000000000000000000065
:10F130001B37001B38002C20001B5B4A001B5B6D3B
:10F1400000082008001B5B4B00202D20001B5B48A3
:10F15000001B5B366E001B5B324A000000000000A3
:10F160000338FDD870471B5B3F336C002D682C20A3
:10F170002D2D68656C70000011480000C548000026
:10F18000A5470000DD4800005D4800003031323303
:10F190003435363738394142434445460000000093
:10F1A000A4F1000010FC000088FF00000000000037
:10F1B000D9A20000000000000000000000000000D4
:10F1C00000000000ACFF000020FC00009CF10000EB
:10F1D000D9A20000556E6B6E6F776E206572726FEC
:10F1E0007220636F6465000000000000940301005A
:10F1F000010000005402010002000000480001006C
:10F2000003000000C8020100040000001C0301000C
:10F2100005000000FC01010006000000980101004B
:10F2200007000000040301000800000010020100B4
:10F2300009000000740201000A0000007C030100C4
:10F240000B000000300001000C000000280201004B
:10F250000D000000CC0301000E000000F4020100CC
:10F260000F000000300301001000000064030100E3
:10F2700011000000E003010080000000B001010067
:10F2800081000000EC00010082000000AC000100E1
:10F29000830000008C00010084000000C800010011
:10F2A00085000000D401010086000000DC0201009E
:10F2B0009000000078010100910000006C00010046
:10F2C000920000003C0201000082000044030100A3
:10F2D000018200009002010002820000AC020100E5
:10F2E000008400000801010001840000A003010067
:10F2F0000284000050010100038400002C01010081
:10F30000C19700009597000093970000FFFFFFFF53
:10F31000FFFFFFFFFFFFFFFFFFFFFFFF00000000F9
:10F32000000000000000D6010601000001000000FE
:10F33000D97600000000000050F300001C0F0020F0
:10F340007F0000009C0F00200100000085DA000013
:10F3500094050100200501002CF30000D96C000089
:10F360008C0501009C04010048F30000D96C0000EA
:10F37000BC0501009C05010000000000E56C0000D8
:10F38000D0050100AC05010000000000F16C000098
:10F3900010FC0000C005010000000000FD6C000032
:10F3A000000000000000000000000000000000005D
:10F3B000010000008930000000000000C0F30000E0
:10F3C00040060100D8050100000000002D6E00007D
:10F3D000480601000C06010000000000696E0000F4
:10F3E000000000000000000000000000000000001D
:10F3F00000000000F8F30000840601005006010040
:10F40000B0F30000000000008C060100940601002B
:10F41000B8F3000000000000940501002005010081
:10F420002CF30000837000008C0501009C04010097
:10F4300048F3000083700000BC0501009C0501003A
:10F440000000000093700000D0050100AC05010031
:10F45000000000009D700000B00601006C06010075
:10F4600000000000656D000010FC0000C0050100F8
:10F4700000000000A7700000000000000000000075
:10F480000000000000000000C0060100C4060100EA
:10F49000F0F30000096D0000004040404040404053
:10F4A0004040414141414140404040404040404057
:10F4B00040404040404040404005020202020202FB
:10F4C000020202020202020202202020202020204A
:10F4D000202020020202020202029090909090905E
:10F4E000101010101010101010101010101010101C
:10F4F0001010101002020202020288888888888890
:10F50000080808080808080808080808080808087B
:10F5100008080808020202024000000099F40000F6
:10F52000756172745F636C693A7E2420000000008C
:10F53000425350206576656E7420696400000000B7
:10F5400062746E0065767400425350206275747464
:10F550006F6E206576656E74206B65790000000023
:10F56000627370002E2E5C2E2E5C2E2E5C2E2E5C76
:10F570002E2E5C2E2E5C636F6D706F6E656E7473D5
:10F580005C6C69627261726965735C757362645CFC
:10F590006170705F757362645F636C6173735F62E7
:10F5A0006173652E680000002E2E5C2E2E5C2E2EC0
:10F5B0005C2E2E5C2E2E5C2E2E5C636F6D706F6E3B
:10F5C000656E74735C6C69627261726965735C7597
:10F5D0007362645C636C6173735C6869645C6170C2
:10F5E000705F757362645F6869642E630000000079
:10F5F0002E2E5C2E2E5C2E2E5C2E2E5C2E2E5C2E45
:10F600002E5C636F6D706F6E656E74735C6C696297
:10F610007261726965735C757362645C636C61735B
:10F62000735C6869645C67656E657269635C617070
:10F63000705F757362645F6869645F67656E657249
:10F6400069632E63000000002E2E5C2E2E5C2E2E91
:10F650005C2E2E5C2E2E5C2E2E5C636F6D706F6E9A
:10F66000656E74735C6C69627261726965735C75F6
:10F670007362645C636C6173735C6869645C617021
:10F68000705F757362645F6869642E6800000000D3
:10F690002E2E5C2E2E5C2E2E5C2E2E5C2E2E5C2EA4
:10F6A0002E5C636F6D706F6E656E74735C6C6962F7
:10F6B0007261726965735C757362645C6170705FBE
:10F6C000757362645F737472696E675F6465736398
:10F6D0002E6300004461746120627573206572724C
:10F6E0006F72202872657475726E20616464726531
:10F6F000737320696E2074686520737461636B2076
:10F700006672616D65206973206E6F742072656C1E
:10F710006174656420746F2074686520696E737409
:10F7200072756374696F6E207468617420636175AB
:10F7300073656420746865206572726F72290000B9
:10F740004461746120627573206572726F72202843
:10F7500050432076616C756520737461636B6564DA
:10F7600020666F72207468652065786365707469BF
:10F770006F6E2072657475726E20706F696E74732F
:10F7800020746F2074686520696E73747275637479
:10F79000696F6E207468617420636175736564209D
:10F7A000746865206661756C742900004361757327
:10F7B000653A204275734661756C74206F6E2061E6
:10F7C00020766563746F72207461626C6520726567
:10F7D000616420647572696E672065786365707412
:10F7E000696F6E2070726F63657373696E672E0048
:10F7F0005468652070726F636573736F72206861FF
:10F800007320657865637574656420616E20534468
:10F810004956206F72205544495620696E737472A0
:10F82000756374696F6E20776974682061206469FC
:10F830007669736F72206F6620300000546865200F
:10F8400070726F636573736F722068617320617487
:10F8500074656D7074656420746F20657865637578
:10F86000746520616E20696E737472756374696F5C
:10F870006E2074686174206D616B657320696C6CB7
:10F880006567616C20757365206F662074686520FC
:10F8900045505352000000005468652070726F6339
:10F8A0006573736F722068617320617474656D7025
:10F8B00074656420616E20696C6C6567616C206C96
:10F8C0006F6164206F66204558435F52455455521E
:10F8D0004E20746F207468652050432C2061732083
:10F8E0006120726573756C74206F6620616E20698B
:10F8F0006E76616C696420636F6E746578742C2019
:10F900006F7220616E20696E76616C696420455863
:10F91000435F52455455524E2076616C7565000028
:10F920005468652070726F636573736F72206174C1
:10F9300074656D707465642061206C6F6164206F04
:10F94000722073746F72652061742061206C6F6324
:10F950006174696F6E207468617420646F657320D0
:10F960006E6F74207065726D697420746865206FA5
:10F970007065726174696F6E0000000041204D6512
:10F980006D4D616E616765206661756C74206F6393
:10F9900063757272656420647572696E6720666C47
:10F9A0006F6174696E672D706F696E74206C617A17
:10F9B0007920737461746520707265736572766105
:10F9C00074696F6E000000004120627573206661EB
:10F9D000756C74206F6363757272656420647572F0
:10F9E000696E6720666C6F6174696E672D706F69F0
:10F9F0006E74206C617A7920737461746520707202
:10FA000065736572766174696F6E00005468652075
:10FA100070726F636573736F7220686173206174B5
:10FA200074656D7074656420746F206578656375A6
:10FA3000746520616E20756E646566696E6564200C
:10FA4000696E737472756374696F6E00496E737456
:10FA500072756374696F6E20627573206572726F60
:10FA6000720000005468652070726F636573736F75
:10FA7000722068617320617474656D7074656420B0
:10FA8000746F20616363657373206120636F7072AC
:10FA90006F636573736F7200556E737461636B206F
:10FAA000666F7220616E20657863657074696F6E31
:10FAB0002072657475726E2068617320636175735E
:10FAC0006564206F6E65206F72206D6F72652061B6
:10FAD00063636573732076696F6C6174696F6E73AD
:10FAE00000000000537461636B696E6720666F727B
:10FAF00020616E20657863657074696F6E20656E35
:10FB00007472792068617320636175736564206F16
:10FB10006E65206F72206D6F72652061636365731F
:10FB2000732076696F6C6174696F6E7300000000FA
:10FB30005468652070726F636573736F72206861BB
:10FB400073206D61646520616E20756E616C6967FC
:10FB50006E6564206D656D6F727920616363657396
:10FB600073000000556E737461636B20666F7220C2
:10FB7000616E20657863657074696F6E207265745C
:10FB800075726E2068617320636175736564206FA0
:10FB90006E65206F72206D6F7265204275734661CD
:10FBA000756C747300000000537461636B696E6759
:10FBB00020666F7220616E20657863657074696F6E
:10FBC0006E20656E7472792068617320636175734D
:10FBD0006564206F6E65206F72206D6F72652042C4
:10FBE00075734661756C7473000000005072696E25
:10FBF0007420737461747573206F662062616C6C1D
:10FC00006F6320696E7374616E6365732E0000000C
:10FC1000737461747573000062616C6C6F630000D3
:10FC2000436F6D6D616E647320666F722042414C4C
:10FC30004C4F43206D616E6167656D656E740000A9
:10FC400025730D0A092D20456C656D656E74207352
:10FC5000697A653A092564202B202564206279742D
:10FC60006573206F6620646562756720696E666FD4
:10FC7000726D6174696F6E0D0A092D20557361678D
:10FC8000653A092575252520282575206F7574206E
:10FC90006F6620257520656C656D656E7473290D22
:10FCA0000A092D204D6178696D756D3A0925752514
:10FCB0002520282575206F7574206F6620257520F6
:10FCC000656C656D656E7473290D0A0D0A00000080
:10FCD000456E61626C6520636F6C6F726564207342
:10FCE000796E7461782E000044697361626C6520DE
:10FCF000636F6C6F7265642073796E7461782E0027
:10FD00006F6666006F6E000044697361626C652007
:10FD1000434C49206563686F2E204172726F777380
:10FD200020616E6420627574746F6E733A20426154
:10FD3000636B73706163652C2044656C6574652C1E
:10FD400020456E642C20486F6D652C20496E7365CC
:10FD5000727420617265206E6F742068616E646CCD
:10FD600065642E00456E61626C6520434C492065D8
:10FD700063686F2E0000000047657420434C4920E3
:10FD80007374617469737469637320666F7220742D
:10FD90006865204C6F67676572206D6F64756C6570
:10FDA0002E000000526573657420434C4920737423
:10FDB000617469737469637320666F722074686517
:10FDC000204C6F67676572206D6F64756C652E00DF
:10FDD000726573657400000073686F77000000003F
:10FDE000546F67676C6520434C49206563686F2ECC
:10FDF00000000000434C4920737461746973746996
:10FE000063732E00546F67676C6520636F6C6F724D
:10FE100065642073796E7461782E00006563686F85
:10FE200000000000636F6C6F727300007374617484
:10FE300073000000417373756D652038302063686E
:10FE40006172732073637265656E2077696474688C
:10FE500020616E642073656E64207468697320731A
:10FE6000657474696E6720746F20746865207465AA
:10FE7000726D696E616C2E0064656661756C7400EC
:10FE8000436C6561722073637265656E2E000000BD
:10FE9000636C65617200000055736566756C2C209B
:10FEA0006E6F7420556E69782D6C696B6520434CBC
:10FEB0004920636F6D6D616E64732E00636C690021
:10FEC000436F6D6D616E6420686973746F72792E13
:10FED00000000000686973746F727900436F6E737D
:10FEE0006F6C652067657473207465726D696E61EF
:10FEF0006C2073637265656E2073697A65206F721A
:10FF000020617373756D657320383020696E2063CE
:10FF10006173652074686520726561646F75742013
:10FF20006661696C732E204974206D75737420624C
:10FF300065206578656375746564206166746572B3
:10FF40002065616368207465726D696E616C2077ED
:10FF500069647468206368616E676520746F2065EA
:10FF60006E7375726520636F727265637420746559
:10FF7000787420646973706C61792E00726573699E
:10FF80007A650000202000005072696E742073743E
:10FF900061747573206F6620717565756520696E73
:10FFA0007374616E6365732E000000007175657572
:10FFB0006500000025730D0A092D20456C656D65EF
:10FFC0006E742073697A653A0925640D0A092D203B
:10FFD00055736167653A0925752525202825752003
:10FFE0006F7574206F6620257520656C656D656E74
:10FFF0007473290D0A092D204D6178696D756D3A6C
:020000040001F9
:10000000092575252520282575206F7574206F66B4
:1000100020257520656C656D656E7473290D0A0960
:100020002D204D6F64653A090925730D0A0D0A00EC
:100030004E52465F4552524F525F494E56414C49CF
:10004000445F4441544100004E52465F4552524F76
:10005000525F534F46544445564943455F4E4F54B3
:100060005F454E41424C4544000000004E52465F01
:100070004552524F525F464541545552455F4E4F8F
:10008000545F454E41424C45440000004E52465F8D
:100090004552524F525F4D555445585F554E4C4F47
:1000A000434B5F4641494C45440000004E52465F79
:1000B0004552524F525F4D555445585F4C4F434B3C
:1000C0005F4641494C4544004E52465F4552524FAF
:1000D000525F4D555445585F434F4E445F494E491A
:1000E000545F4641494C4544000000004E52465F73
:1000F0004552524F525F4D555445585F494E4954F1
:100100005F4641494C4544004E52465F4552524F6E
:10011000525F424C455F495053505F52585F504BBD
:10012000545F5452554E4341544544004E52465F2D
:100130004552524F525F424C455F495053505F50B9
:100140004545525F52454A4543544544000000002E
:100150004E52465F4552524F525F424C455F4950A6
:1001600053505F4C494E4B5F444953434F4E4E45AD
:1001700043544544000000004E52465F4552524FE2
:10018000525F4150495F4E4F545F494D504C454D71
:10019000454E5445440000004E52465F4552524F72
:1001A000525F4E4F545F535550504F525445440088
:1001B0004E52465F4552524F525F4D4F44554C454B
:1001C0005F4E4F545F494E495449414C495A45444A
:1001D000000000004E52465F4552524F525F4D4F55
:1001E00044554C455F414C52454144595F494E4945
:1001F0005449414C495A4544000000004E52465F64
:100200004552524F525F4E4F545F464F554E440039
:100210004E52465F4552524F525F494E56414C49ED
:10022000445F5354415445004E52465F4552524F2D
:10023000525F444154415F53495A45004E52465F14
:100240004552524F525F494F5F50454E44494E47C9
:10025000000000004E52465F4552524F525F5356C7
:10026000435F48414E444C45525F4D495353494EBC
:10027000470000004E52465F4552524F525F494E72
:1002800056414C49445F4C454E47544800000000DD
:100290004E52465F4552524F525F4452565F54573A
:1002A000495F4552525F414E41434B004E52465FBB
:1002B0004552524F525F4452565F5457495F455220
:1002C000525F444E41434B004E52465F4552524F9F
:1002D000525F494E5445524E414C00004E52465FCB
:1002E0004552524F525F53544F524147455F465516
:1002F0004C4C00004E52465F4552524F525F4E5595
:100300004C4C00004E52465F4552524F525F494E90
:1003100056414C49445F504152414D004E52465F58
:100320004552524F525F4E4F5F4D454D0000000009
:100330004E52465F4552524F525F464F52424944D9
:1003400044454E004E52465F4552524F525F445212
:10035000565F5457495F4552525F4F56455252556A
:100360004E0000004E52465F4552524F525F494E7A
:1003700056414C49445F4144445200004E52465F4E
:100380004552524F525F494E56414C49445F464C8C
:10039000414753004E52465F535543434553530024
:1003A0004E52465F4552524F525F424C455F495054
:1003B00053505F4348414E4E454C5F414C5245417E
:1003C00044595F4558495354530000004E52465F0C
:1003D0004552524F525F54494D454F55540000000D
:1003E0004E52465F4552524F525F4255535900009C
:1003F0002E2E5C2E2E5C2E2E5C2E2E5C2E2E5C2E37
:100400002E5C636F6D706F6E656E74735C6C696289
:100410007261726965735C6C6F675C7372635C6E4A
:1004200072665F6C6F675F6261636B656E645F7558
:100430006172742E630000002E2E5C2E2E5C2E2E18
:100440005C2E2E5C2E2E5C2E2E5C636F6D706F6E9C
:10045000656E74735C6C69627261726965735C6C01
:100460006F675C7372635C6E72665F6C6F675F660A
:10047000726F6E74656E642E630000006E6F6E6541
:10048000000000007761726E696E670064656275D6
:1004900067000000696E666F00000000276C6F67E0
:1004A00020656E61626C65203C6C6576656C3E20F3
:1004B0003C6D6F64756C655F303E202E2E2E2020C3
:1004C0003C6D6F64756C655F6E3E2720656E616282
:1004D0006C6573206C6F677320757020746F206774
:1004E0006976656E206C6576656C20696E20737028
:1004F00065636966696564206D6F64756C657320FA
:1005000028616C6C206966206E6F206D6F64756C5D
:10051000657320737065636966696564292E0000E0
:10052000276C6F672064697361626C65203C6D6F36
:1005300064756C655F303E202E2E203C6D6F6475B7
:100540006C655F6E3E272064697361626C65732021
:100550006C6F677320696E20737065636966696587
:1005600064206D6F64756C65732028616C6C206904
:1005700066206E6F206D6F64756C65732073706597
:10058000636966696564292E00000000656E61621A
:100590006C65000064697361626C65005265737517
:1005A0006D65206C6F6767696E67000048616C74E9
:1005B000206C6F6767696E6700000000676F00005E
:1005C0004C6F676765722073746174757300000007
:1005D00068616C74000000004C6F616420636F6E92
:1005E00066696775726174696F6E2073746F726586
:1005F0006420696E206E6F6E2D766F6C6174696C0D
:1006000065206D656D6F72792E00000053746F72F6
:10061000652063757272656E7420636F6E666967BC
:1006200075726174696F6E20696E206E6F6E2D76C3
:100630006F6C6174696C65206D656D6F72792E00E9
:100640006C6F61640000000073746F7265000000DD
:100650004C6F67676572206261636B656E647320BF
:10066000636F6D6D616E64732E0000004C6973746E
:1006700073206C6F67676572206261636B656E647F
:10068000732E00006261636B656E6400636F6E665B
:10069000696700004D616E616765206C6F67676513
:1006A0007220636F6E66696775726174696F6E0040
:1006B0006C6973745F6261636B656E6473000000E4
:1006C0006C6F6700436F6D6D616E647320666F724F
:1006D00020636F6E74726F6C6C696E67206C6F67ED
:1006E000676572001B5B313B33306D001B5B306D07
:1006F000000000001B5B313B33316D001B5B313B65
:1007000033326D001B5B313B33336D001B5B313B80
:1007100033346D001B5B313B33356D001B5B313B6C
:1007200033366D001B5B313B33376D006170705F9A
:1007300074696D65722E6D5F636C695F756172744B
:100740005F7472616E73706F72745F74696D6572DD
:100750000000000071756575652E6D5F636C695FE3
:10076000756172745F6C6F675F6261636B656E6405
:100770005F7175657565000062616C6C6F632E6DED
:100780005F636C695F756172745F636D645F6869F4
:1007900073745F6D656D6F626A00000071756575D9
:1007A000652E6D5F6170705F6869645F67656E6517
:1007B0007269635F71756575650000006170705FD7
:1007C00074696D65722E6D5F6D6F7573655F6D6FAA
:1007D00076655F74696D6572000000006D5F636C23
:1007E000695F756172745F6C6F675F6261636B658F
:1007F0006E645F7175657565000000006D5F617006
:10080000705F6869645F67656E657269635F717563
:10081000657565006D5F636C695F756172745F6CAF
:100820006F675F6261636B656E6400006D5F636C30
:10083000695F756172745F636D645F686973745F2B
:100840006D656D6F626A00006170705F74696D65DF
:10085000722E6D5F6273705F6C6564735F746D722E
:10086000000000006170705F74696D65722E6D5FCD
:100870006273705F616C6572745F746D720000000A
:100880006170705F74696D65722E6D5F6273705F09
:10089000627574746F6E5F746D720000636C6F6369
:1008A0006B000000434C4F434B0000004750494F42
:1008B000544500005052530055415254000000006E
:1008C0005541525445000000555342440000000079
:1008D0006170705F627574746F6E00006170705F3C
:1008E00074696D65722E6D5F646574656374696F9C
:1008F0006E5F64656C61795F74696D65725F696470
:10090000000000006170705F74696D657200000026
:1009100061746669666F2E6D5F7265715F66696688
:100920006F0000006170705F75736264000000000A
:1009300061746669666F2E6D5F6576656E745F7152
:1009400075657565000000006170705F75736264A5
:100950005F636F7265000000686172646661756C48
:1009600074000000636C695F7561727400000000C0
:100970007077725F6D676D7400000000736F727442
:100980006C69737400000000756172745F6C6F674E
:100990005F6261636B656E640000000062616C6C95
:1009A0006F632E6C6F675F6D656D706F6F6C0000AD
:1009B000617070006C6F675F6D656D706F6F6C005C
:1009C000900B0100000000205C040000840C00007B
:1009D000780C01005C0400207C2F0000AC120000A9
:1009E000000000001CED000000000000B0EF00005F
:1009F00000000000E4F0000000000000F4F000003F
:100A00000000000004F100000000000014F10000EC
:100A100000000000C4F100000000000088F40000A5
:100A2000C0EF00003800002014080100440000203E
:100A300000F300000000000088090100D40200203B
:100A40002C07010000000003540701000000000310
:100A500078070100000000039C070100000000036C
:100A6000BC0701000000000348080100000000036B
:100A7000640801000000000380080100000000037A
:100A80009C08010000000000A40801000000000014
:100A9000AC08010000000000B408010000000000E4
:100AA000B808010000000000C008010000000000BC
:100AB000C808010000000000D0080100000000008C
:100AC000DC08010000000003040901000000000030
:100AD00010090100000000032409010000000000CB
:100AE0003009010000000003480901000000000077
:100AF0005809010000000303640901000000000020
:100B000070090100000000007C09010000000000E5
:100B10009C09010000000003B0090100000003036C
:100B20008C000020840000208C000020740600202F
:100B3000840300202C080100300000001003002076
:100B400008030020100300205C0E0020E4030020B6
:100B5000B4090100180000006806002054060020B7
:100B6000040000000400000001000000DC07010098
:100B70008003002024080020140800200100000049
:100B80000800000000000000FC07010088030020AE
:100B9000815AFF01C1137C0314202806B3201723B8
:100BA000E4EB231D89D4580B0129392394ECC91691
:100BB0000914581A8C5801400912589A9058091271
:100BC000200A1D94200A4198980942C8AABC881599
:100BD000100140110221040A15C4BC0A21CCD4031F
:100BE000227126230CEF1A12041A27041A42041A3F
:100BF0004F041A6504F92822FA6320F91A980C1A8E
:100C0000E4045A7C10411A4C102340F723D4F623F5
:100C100064FB1AA8049AC82029401B3CF83C19041C
:100C20001A640C01101A30301AF040B384FF1220FD
:100C3000BA400831291F2904147C04011A5C481A9F
:100C400084081A94045A8C04291429102920291C78
:100C5000011CE94014EC06011AE4041AF4041AFC1D
:100C600004140407011A0C041A14041A1C041A248C
:080C7000041104FF90D00311F0
:0400000500000201F4
:00000001FF
