:020000040001F9
:10C0000038460020C1C30100C9C30100CBC30100F1
:10C01000CDC30100CFC30100D1C301000000000067
:10C02000000000000000000000000000D3C3010079
:10C03000D5C3010000000000D7C30100D9C301002F
:10C0400031C60100DBC3010081C80100DBC3010070
:10C05000DBC30100DBC301008DC50100DBC30100B0
:10C06000DBC30100DBC30100DBC30100DBC3010054
:10C07000DBC30100DBC30100DBC30100DBC3010044
:10C08000DBC3010081C60100DBC30100DBC301008B
:10C09000DBC30100DBC30100F1C60100DBC301000B
:10C0A000DBC30100DBC30100DBC30100DBC3010014
:10C0B000DBC30100DBC30100000000000000000042
:10C0C000DBC30100DBC30100DBC30100DBC30100F4
:10C0D000DBC30100DBC30100DBC30100DBC30100E4
:10C0E000DBC30100000000000000000000000000B1
:10C0F00000000000DBC3010000000000DBC3010002
:10C10000000000000000000000000000000000002F
:10C11000000000000000000000000000000000001F
:10C12000000000000000000000000000000000000F
:10C1300000000000000000000000000000000000FF
:10C1400000000000000000000000000000000000EF
:10C1500000000000000000000000000000000000DF
:10C1600000000000000000000000000000000000CF
:10C1700000000000000000000000000000000000BF
:10C1800000000000000000000000000000000000AF
:10C19000000000000000000000000000000000009F
:10C1A000000000000000000000000000000000008F
:10C1B000000000000000000000000000000000007F
:10C1C000000000000000000000000000000000006F
:10C1D000000000000000000000000000000000005F
:10C1E000000000000000000000000000000000004F
:10C1F000000000000000000000000000000000003F
:10C20000DFF80CD000F084F900480047B1E90100E4
:10C210003846002030B450E8012F93B2C48923443B
:10C220008489A34228BF1B1B0489A34202BFBFF31A
:10C230002F8F002007E0C3EA020340E80134002CFE
:10C24000E9D14FF001000A6030BC704750E8012F7F
:10C25000C2EA024240E801210029F7D1704730B418
:10C2600050E8022F1FFAA2F3C488A34202BFBFF313
:10C270002F8F00200DE0C48923448489A34228BF66
:10C280001B1BC2EA034340E80234002CE8D14FF004
:10C2900001000A6030BC704750E8022FC2EA224217
:10C2A00040E802210029F7D17047034653E8022FE6
:10C2B000D988B2EB324F4FF0000017BF92B241EA7B
:10C2C000014142EA014104E05A68B2EB324F08BF33
:10C2D000012043E80212002AE8D1704730B4044636
:10C2E00054E8000F0D4644E80053002BF8D11560C8
:10C2F00030BC704730B4044654E8000F40EA0105F2
:10C3000044E80053002BF7D1156030BC704730B4BF
:10C31000044654E8000F00EA010544E80053002BEE
:10C32000F7D1156030BC704730B4044654E8000FB4
:10C3300080EA010544E80053002BF7D1156030BCBA
:10C34000704730B4044654E8000F00EB010544E8A0
:10C350000053002BF7D1156030BC704730B4044651
:10C3600054E8000FA0EB010544E80053002BF7D17F
:10C37000156030BC704770B404464FF0000054E8BC
:10C38000006F0D68AE4207BF44E80023012044E877
:10C3900000630E60002B1CBF0020F0E770BC7047EC
:10C3A00030B4044654E8000F88422CBF451A0546B5
:10C3B00044E80053002BF5D1156030BC70470000F5
:10C3C0000648804706480047FEE7FEE7FEE7FEE72F
:10C3D000FEE7FEE7FEE7FEE7FEE7FEE7F5C6010043
:10C3E00001C201002DE9F05F0546002092469B4600
:10C3F00088460646814640241BE02846414647467B
:10C40000224600F074F853465A46C01A914110D3A0
:10C4100011461846224600F016F82D1A67EB01085F
:10C420004F4622460120002100F00DF817EB0009CD
:10C430004E41201EA4F10104DFDC484631462A4665
:10C440004346BDE8F09F202A04DB203A00FA02F1BF
:10C45000002070479140C2F1200320FA03F31943F2
:10C460009040704700487047BC29020040EA010331
:10C470009B0703D009E008C9121F08C0042AFAD29A
:10C4800003E011F8013B00F8013B521EF9D270475E
:10C49000D2B201E000F8012B491EFBD27047002206
:10C4A000F6E710B513460A4604461946FFF7F0FFB3
:10C4B000204610BD421C10F8011B0029FBD1801A38
:10C4C000704730B504460020034600E05B1C9342F1
:10C4D00003D2E05CCD5C401BF8D030BD034611F8C0
:10C4E000012B00F8012B002AF9D118467047202AA9
:10C4F00004DB203A21FA02F00021704721FA02F30E
:10C50000D040C2F120029140084319467047000014
:10C51000064C074D06E0E06840F0010394E8070090
:10C5200098471034AC42F6D3FFF76EFEEC310200B0
:10C530000C32020070B58C1810F8015B15F007037F
:10C5400001D110F8013B2A1106D110F8012B03E0AC
:10C5500010F8016B01F8016B5B1EF9D12B0705D4B4
:10C560000023521E0DD401F8013BFAE710F8013BFD
:10C57000CB1A921C03E013F8015B01F8015B521E19
:10C58000F9D5A142D8D3002070BD00002DE9FC41AF
:10C590000025DFF8948000954FF4807601242F4623
:10C5A0000195304603F0C4F938B1D8F804032042AD
:10C5B00003D0304603F0B2F92543361D64007F1CDA
:10C5C000B6B2082FEDD34FF4BE74204603F0B0F995
:10C5D00048B1204603F0A2F945F000456A46022121
:10C5E000002003F003F915F0FF0F16D001260024F8
:10C5F0002E420ED008EB8401D1F81005D1F81015A9
:10C60000C0F30520094AC1F3014152F8242002B1C8
:10C6100090477600641C082CEAD3002D02DA6846A5
:10C6200004F0FAFEBDE8FC81006000407C3400208C
:10C6300070B54FF48076304602F092FE0F4DB4058F
:10C6400040B1304602F093FE0120C4F80803296887
:10C65000002088474FF48276304602F081FE0028A1
:10C660000AD0304602F083FE0220C4F8080329688D
:10C67000BDE870400120084770BD00004C2E00202E
:10C6800002490248091F096800680847DC2E00209B
:10C6900000F0FCB870B50E46144900EB400001EB09
:10C6A000C0051446E86A183520B101280FD00228C9
:10C6B00005D113E0284600F01DF9A04201D2002464
:10C6C00011E022463146284600F04CF90BE028469E
:10C6D00000F010F9A042F4D20446F2E731462846B1
:10C6E00000F013F90446204670BD0000AC3B00206A
:10C6F00003F060BF10B54FF080520023D2E94C1018
:10C700000D2906D18C07C4F80C31C4F81031534CF4
:10C7100023600D2955D1524B1B68524C2360504B5E
:10C720001B1D1B68241D23604D4B08331B68241DF3
:10C7300023604B4B0C331B68241D2360484B103384
:10C740001B68241D2360464B14331B68241D236083
:10C75000434B18331B68434C20342360404B1C333D
:10C760001B68241D23603E4B20331B68241D23605F
:10C770003B4B24331B68241D2360394B28331B6833
:10C78000241D2360364B2C331B68241D2360344B3F
:10C7900030331B68334C40342360314B34331B68D7
:10C7A000241D23602E4B38331B68241D23602C4B23
:10C7B0003C331B68241D2360294B40331B68241D18
:10C7C00023600D2906D128480168C90702D06FF0FF
:10C7D000010101602548016841F470010160BFF367
:10C7E0004F8FBFF36F8FD2E94C104FF010220D29FD
:10C7F00007D130B1012804D0D2F8080217492031FE
:10C800000860D2F80002002803DBD2F804020028F6
:10C810001FDA012004F07CFB1221C2F80012144838
:10C820000368002BFCD0C2F8041201680029FCD078
:10C83000002004F06DFBBFF34F8F0C487C3801687B
:10C840000C4A01F4E06111430160BFF34F8F00BF58
:10C85000FDE70A490848086010BD0000380500409F
:10C860000404001020C500400004004088ED00E0F2
:10C8700000E401400400FA050090D003542F00208A
:10C880000148006800470000542E002010B5124CEB
:10C8900002202061606111A0A06104F17800E061D4
:10C8A0004FF4007020620020A06260620BA1A164BE
:10C8B000E06204F51E71E1641021A065C4E9141062
:10C8C000E06509A1E01DFFF709FE08A12046FFF77A
:10C8D00005FE2020A07110BDAC3B00205465726D98
:10C8E000696E616C00000000525454005345474784
:10C8F000455200000269C1688A4203D88068401A24
:10C90000104400E0501A401E70472DE9F047C468FB
:10C910001746894606464FF000083069A04201D903
:10C92000051B02E0B168201A0D1AB0686D1E001BCD
:10C93000A84200D80546BD4200D33D4670682A464D
:10C9400020444946FFF792FDB0687F1B2C44A84461
:10C95000A944A04200D10024F460002FDDD140465C
:10C96000BDE8F0872DE9F04104468846D4E9020786
:10C97000C51BE168606816460844B54206D94146C1
:10C98000FFF774FDB819E060BDE8F0812A46414622
:10C99000FFF76CFD761B08EB050132466068FFF778
:10C9A00065FDE660F0E70000014A024900F026B8A4
:10C9B00037E50100EC2E002002E008C8121F08C174
:10C9C000002AFAD170477047002001E001C1121F10
:10C9D000002AFBD1704700000121202803DA8140A2
:10C9E0000548014003E0402802DA2038814009B1BF
:10C9F0000120704700207047FC06FFBD2DE9F04183
:10CA000016460F460446002503E03946B047641C2D
:10CA10006D1C20780028F8D12846BDE8F08110B5BB
:10CA200001220221002000F0BBFF08B1072810D12D
:10CA300007220221012000F0B3FF08B1072808D126
:10CA400000210A22084600F0ABFF08B1072800D1F8
:10CA5000002010BD022000F0B7BE000070B5002419
:10CA6000064D06E06868012110F8340003F0B8FEB6
:10CA7000641C28788442F5D3002070BD602E00200D
:10CA8000F8B516460C4605460A2A01D20720F8BD1D
:10CA900003F09CFF18B903F05FFF0028F7D1134F94
:10CAA000202113487D603C70BE60FFF7F8FC002039
:10CAB000C7E904000F4E0DE005EBC400316800919A
:10CAC00081788DF8011000780B4A694603F0D4FE96
:10CAD0000028DCD1641EE4B2EED2BDE8F84005487F
:10CAE0000021064A001D00F087B80000602E0020DB
:10CAF00034350020AC260200B1E601008DDF0100D4
:10CB000072B603F0AFF900BF02F0E2FF0028FBD1DC
:10CB100011481249401AC408012000EB044010A13A
:10CB200003F0F2F811480068C00700D000BE0220F0
:10CB300000EB04400EA103F0E7F8BFF34F8F0B4862
:10CB4000E43801680E4A01F4E06111430160BFF36B
:10CB50004F8F00BFFDE70000943202001C3202003C
:10CB6000466174616C206572726F7200F0ED00E0D6
:10CB700053797374656D20726573657400000000ED
:10CB80000400FA050EB500210091CDE901106A46B6
:10CB900044F20100FFF7B4FF0EBD10B58268C36810
:10CBA000934203D001F0B4FC002010BD052010BD5D
:10CBB00029B112B1531E134203D0092070470E2031
:10CBC00070470160838000218160C1600846704722
:10CBD00010B58268C3689A1A83889A4203D801F014
:10CBE000A1FC002010BD042010BD0000014801F090
:10CBF0000CBB0000A02E002010B55AB100684FF009
:10CC0000FF3401294261C0E9024400D000210161E2
:10CC1000002010BD072010BD38B511480823582248
:10CC2000416800910F49006801F0D4FF002815D138
:10CC30000D4A69460D4801F0EDFA04000ED10121BC
:10CC40000A4801F062FB0123094A1946074801F02E
:10CC5000B4FA0649012008390870204638BD0000A2
:10CC6000B426020064350020A1180200A02E002086
:10CC7000FFFF7F00F8B50446002617460D468DF8E5
:10CC80000060684600F0D8F8D4E90201C04370EAB9
:10CC9000010005D09DF8000000F0F2F80020F8BD7A
:10CCA00001F0ECFC40197141C4E902019DF800005B
:10CCB00000F0E6F8A761206900B125612146BDE8D2
:10CCC000F840002005F064B938B5044600208DF81E
:10CCD0000000684600F0B0F8D4E90201C04370EAF1
:10CCE00001000DD04FF0FF30C4E902009DF80000B4
:10CCF00000F0C6F82146BDE83840012005F048B9EB
:10CD00009DF8000000F0BCF8002038BD70B50A4E58
:10CD100001460A48B578FFF740FF04464DB10020B0
:10CD2000B070711C0122C81D02F098FB08B1FFF71A
:10CD300029FF204670BD0000BC2E0020BC3500201D
:10CD4000F0B5244E89B01F460D00044672603FD0F6
:10CD5000A888296882B22048FFF72AFF002835D129
:10CD6000A889A96882B21C481030FFF721FF00286B
:10CD70002CD1202219496846FFF778FB606906909C
:10CD8000207C00B101208DF814008DF81C70607CAF
:10CD900000B10E208DF81500E0680290A0680390A5
:10CDA00020680190606800900A480D4A6946083082
:10CDB00002F020FB002809D1B0702068401C05D08B
:10CDC00004490122491CC81D02F048FB09B0F0BD0E
:10CDD0000720FBE7BC2E0020BC350020C82602003F
:10CDE0002121020010B501461048FFF7F1FE0400B2
:10CDF00019D10F480F4A0178515C19B1001D04F098
:10CE000077F802E00C3003F04DFF60B9084907489D
:10CE10000839FFF7C2FE30B9054901220839044834
:10CE200002F02CFB0446204610BD0000CC3500204B
:10CE3000C42E0020382E002030B5EFF3108172B6DA
:10CE40000D4A9468012324B10370002900D162B611
:10CE500030BD93604FF0E023D3F88051074C25405C
:10CE60001560C3F88041D3F8844154605A17C3F861
:10CE7000842100220270E8E7DC350020FC06FFBDBB
:10CE80000B498A68002A11D000280FD1EFF31080D7
:10CE900072B60B684FF0E022C2F800314B68C2F85E
:10CEA000043100228A60002800D162B67047000079
:10CEB000DC35002070B5054608680C46411C04D0DE
:10CEC00002F005FD206802F065FC6068411C02D09C
:10CED000002102F04DFC2968A069C1F82405607D9D
:10CEE000227D29681043C1F86C05D4E90012286836
:10CEF000C0F81425C0F80C15207D012814D1A068B5
:10CF0000411C02D0002102F033FCE068411C04D037
:10CF100002F0DDFCE06802F03DFCD4E90212286872
:10CF2000C0F80825C0F8101570BD70B50546086832
:10CF30000C46411C04D002F0D4FC206802F034FC02
:10CF40006068411C02D0002102F01BFC2968A06926
:10CF5000C1F82405607D217D2A680843C2F86C056C
:10CF6000D4E900122868C0F80C15C0F81425207DFB
:10CF7000012814D1A068411C02D0002102F001FC5C
:10CF8000E068411C04D002F0ACFCE06802F00CFC4C
:10CF9000D4E902122868C0F80825C0F8101570BD41
:10CFA00070B5E0B1DAB1002402E0045D2C44A4B213
:10CFB000651C8D4206D21688A642F6D806197678E8
:10CFC0009E42F2D18C420AD2A31C005D9BB200B1FA
:10CFD000401E0004000C02D01C188C4201D9002015
:10CFE00070BD138070BD2DE9F0418AB00646002067
:10CFF000ADF814001346102088468DF804000D4645
:10D0000006AA01A9184665DFA6B398BB9DF80400DF
:10D01000022804D0042807D0102839D10DE00320BD
:10D020008DF81000022003E005208DF81000042088
:10D030008DF81100002404AF0FE007208DF81000D8
:10D040000620F5E73B5D05AA41463046FFF7A8FFFD
:10D05000641CE4B20546022C04D2BDF8140000287A
:10D06000F0D003E0BDF81400002812D080B20644CE
:10D0700000240BE00CE030199DF8042006A9FFF70E
:10D0800020FA48B19DF80400204484B2AC42F2D3A7
:10D0900000200AB0BDE8F0810120FAE770B540B188
:10D0A0000C4D297839B1044604F060FB28B100200A
:10D0B00070BD0E2070BD082070BDE868062807D23C
:10D0C0000549226801EB8001401C0A60E860EEE738
:10D0D000042070BD282E00205034002010B558B117
:10D0E00003684BB142683AB1044900200124C8608A
:10D0F0000C70C1E9013210BD0E2010BD282E002099
:10D10000002827D0002925D0134A1278002A21D0E0
:10D110000A460188112911D0302907D0322909D0B7
:10D12000332917D1011D104603F0DEBF011D104643
:10D1300004F09EB8011D104603F0F6BE8088B2F8D8
:10D14000CA12884206D1002082F8C8024FF6FF704A
:10D15000A2F8CA0270470000282E002048B1084AF1
:10D16000137843B1D26832B190F8C8222AB11120A5
:10D1700070470E2070470820704700F0C5BF0000C0
:10D18000282E002038B50288011D04461F2A47D0EA
:10D1900016DC102A1ED02B482B4BC01AC0080323C4
:10D1A00003EB0040112A2DD0132A33D01B2A44D17F
:10D1B0000979022941D1BDE8384024A102F0A4BD7B
:10D1C000212A31D03B2A39D0562A36D1A0881321C2
:10D1D00077DF11E0A1880022244800F001F908B1AE
:10D1E000FFF7D0FC072000F0FDFB08B1FFF7CAFCF9
:10D1F000A1881F48FFF7B2FF00281ED0BDE83840C5
:10D20000FFF7C0BC0B790A8801B01AA1BDE8304015
:10D2100002F085BD0023A0881A46852180DFEBE758
:10D2200031F8040B76DFE7E700200090A08869461C
:10D230008DDF002801D0FFF7A5FC38BDA0881321A1
:10D2400077DFD9E7943202001C320200436F6E6E22
:10D25000656374696F6E20526571756573742074AF
:10D26000696D6564206F75742E0000004C320020DB
:10D27000B4270020446973636F6E6E6563746564E0
:10D280002E20636F6E6E5F68616E646C653A20304D
:10D290007825782C20726561736F6E3A203078257E
:10D2A0007800000010B51A4C0188606810290ED073
:10D2B00011292BD1401E606028D1FFF7B0FB002858
:10D2C00024D02168002921D0BDE810400847D0B9FA
:10D2D00000210122084600F063FB08B107280FD1A6
:10D2E00007220221012000F05BFB08B1072807D1CB
:10D2F00004220221002000F053FB20B1072802D0B5
:10D30000216801B188476068401C606010BD000062
:10D31000202E002070B506461A481B4A0D46801A7A
:10D32000C0080978032202EB004459B1012922D038
:10D33000022926D1204615A102F0E6FCBDE8704086
:10D3400004F014BC204615A102F0DEFC698805F14A
:10D350000E02304600F044F808B1FFF713FC3046E7
:10D3600000F04AF908B1FFF70DFC2046BDE8704017
:10D370000FA102F0C9BCA989A868BDE8704000F0FF
:10D3800071B970BD943202001C32020044697363AB
:10D390006F6E6E65637465642E000000446973638C
:10D3A0006F7665727920636F6D706C6574652E00A1
:10D3B000436F6E6E656374656420746F2064657678
:10D3C0006963652077697468204E6F7264696320B1
:10D3D0005541525420536572766963652E000000F2
:10D3E00050B141802AB15388C380138883809288CA
:10D3F0000281406901F040BD0E20704730B5144BEA
:10D400000D4604000FCB85B08DE80F001ED0EDB1A6
:10D41000A868D8B12146684662DF002814D1207878
:10D420008DF812000120ADF810004FF6FF706080FB
:10D430002868E060686820610020A0802081A868DA
:10D44000606104A8FFF72AFE05B030BD0E20FBE79F
:10D450008C26020030B5024685B008002DD0002A87
:10D460002BD041884FF6FF74A14226D09388994271
:10D4700023D11588112D14D0392D1ED18188002972
:10D480001BD053898B4218D1C168002915D00121C6
:10D490008DF8001002F110010291D189ADF80C1045
:10D4A00008E08B4209D1C168002906D002218DF81D
:10D4B00000104480C2686946904705B030BD30B561
:10D4C00085B00C46054614216846FEF7E8FF207833
:10D4D00004F10E01002830D1A08801282DD1A079B7
:10D4E0002A78904229D1002217E002EBC20031F8DD
:10D4F0001030022B02D0032B0ED105E001EB4000CF
:10D500000089ADF8120007E001EB40000389ADF897
:10D510000E304089ADF81000521C207A9042E4D8B9
:10D52000E868002809D06088ADF8020000208DF876
:10D530000000EA6869462846904705B030BD000003
:10D5400070B588B015460E46040012D020216846FA
:10D55000FEF7A5FF19481A49401AC008022101EB3D
:10D560000040F42D07D917A102F0CEFB072008B028
:10D5700070BD0E20FBE76288A2F57F43FF3B18D009
:10D58000154ACDE9022401208DF800002289ADF86A
:10D5900012208DF81010ADF816500022ADF81420AE
:10D5A00006968DF8110062886946606901F09CFC5E
:10D5B000DDE70AA102F0A8FB0820D8E73C32020010
:10D5C0001C320200436F6E74656E7420746F6F209E
:10D5D0006C6F6E672E00000045E50100436F6E6EB4
:10D5E000656374696F6E2068616E646C6520696E36
:10D5F00076616C69642E000010B58AB058B341881A
:10D60000A1F57F42FF3A28D0C18831B304462021DA
:10D610006846FEF744FF01218DF8201000208DF8A8
:10D6200021000F4ACDE902248DF80010E288ADF800
:10D6300012200222ADF81620ADF814008DF810105B
:10D6400008A88DF81110069062886946606901F09B
:10D650004BFC0AB010BD0E20FBE70820F9E70000E4
:10D6600045E501002DE9F0410E4605461C481D49DF
:10D670000024401AC008012101EB00480FE0285D9A
:10D68000FFF7B0FB070009D0112FF8D04046224623
:10D6900015A102F03DFB3846FFF774FA641CB44252
:10D6A000EDD3A81910F8010C0D2804D10A20FFF7BA
:10D6B00099FB1128FAD0324629461548FFF740FF5A
:10D6C00004000BD0112CF6D04046224611A102F0E6
:10D6D0001FFB2046BDE8F041FFF754BABDE8F081DA
:10D6E000943202001C3202006170705F75617274C6
:10D6F0005F707574206661696C656420666F722066
:10D70000696E646578203078253034782E0000000A
:10D710004C3200204661696C65642073656E6469F3
:10D720006E67204E5553206D6573736167652E20BB
:10D730004572726F7220307825782E20000000002C
:10D740000149085C70470000B8250200084908B587
:10D75000085C0090684602F061F8D0F81005009966
:10D76000C84010F0010000D0012080F0010008BD89
:10D77000B82502002DE9FC410646C0074FF0000520
:10D780000ED0104F00240122385D00950023114671
:10D79000019501F089FF641C042CF4D300F04EF8CD
:10D7A000B0070DD5074E0024361D0022305D03233F
:10D7B00000951146019501F077FF641C042CF4D309
:10D7C000BDE8FC81B4250200094908B5085C009059
:10D7D000684602F023F8D0F80425009B0121994007
:10D7E00021EA0203C0F808351140C0F80C1508BD45
:10D7F000B42502000249085C012102F07CB8000057
:10D80000B42502000249085C002102F074B800004F
:10D81000B4250200084908B5085C0090684601F08C
:10D82000FDFFD0F804050099C84010F0010000D0B9
:10D83000012080F0010008BDB425020010B50024CD
:10D840002046FFF7D7FF641C042CF9D310BD10B598
:10D8500000242046FFF7D6FF641C042CF9D310BD2A
:10D8600010B50246064B4FF0FF3000215C5C94423D
:10D8700001D1084610BD491C0429F7D310BD000092
:10D88000B825020070B50C4E0C004FF0000530605A
:10D890000BD0012000F06AF808B1022004E000205B
:10D8A00000F064F800B10B202070706810B9FFF729
:10D8B000B6F80546284670BD202E002010B5002081
:10D8C00000F0CAF908B1062806D1012000F0C4F919
:10D8D00008B1062800D1002010BD00002DE9F04756
:10D8E0000D468146FFF7BCFF0446042836D2DFF818
:10D8F00074801B481C4EA8F10C0725B3012D0ED0D7
:10D90000022D2BD104EB440030444578002D25D066
:10D91000B968002922D02846BDE8F047084704EB43
:10D920004401755C0E44717849B10E4A4FF4804150
:10D93000093A8068FFF79EF908B987F80390B17833
:10D9400008F80410E2E78068FFF7BEF904EB440131
:10D95000314418F804008D78A842D7D0BDE8F0878C
:10D96000BC250200BC2D002044340020042801D234
:10D97000FFF7ECBE00207047042804D00A280CD121
:10D98000002002F083BB05481321408877DF082878
:10D9900003D0002801D0FFF7F5B870474C320020C3
:10D9A00070B50023042810D20D4D00EB4004012A6D
:10D9B00002D101290CD00022094E00EB4000304476
:10D9C00061B1012906D0022906D00723184670BD8F
:10D9D0000E30C2B22A55F9E74270F7E78270F5E7D8
:10D9E00044340020044A014600201279D20702D0B4
:10D9F000084600F04DB87047B02D002070B50646BF
:10DA00001E480024C0E90161B00720D5002501228D
:10DA100011462846FFF7C4FF6D1C0446042D02D2B0
:10DA2000002CF4D013E094B940F2333204211448AE
:10DA3000FFF726F804000AD1FFF710F8040006D11A
:10DA40000F48104A0021001FFFF7D6F80446F007E0
:10DA500012D00120FFF78EFE74B909480A4A00214E
:10DA60000C38FFF7C9F8040006D10548074A012120
:10DA70000838FFF7C1F80446204670BDB02D0020DD
:10DA8000C825020065DD0100E5E8010055CA010076
:10DA90002DE9F05F6E4C054600266078B34618B15C
:10DAA00084F801B000F006FF6A4F4FF47A694FF432
:10DAB000C87A4FF00108182D69D2DFE805F00C1381
:10DAC00013384754696E727B727BC5848484848466
:10DAD000B3B6B9BCC5C500F0EDFE3868FFF7F4F881
:10DAE00006465CE00020FFF795FE00284FF000009E
:10DAF00008D0FFF77FFE022D02D14FF4E16008E06D
:10DB0000484606E0FFF77EFE022D01D1C82000E066
:10DB10005046410CC0034FF47A72801841F1000165
:10DB2000257052000023FEF75DFC01462AE000202C
:10DB3000FFF770FE00284FF0000004D0FFF75AFEF8
:10DB40004FF44870E5E7FFF75DFEDFE70020FFF7E1
:10DB500061FE00284FF0000002D0FFF74BFECFE738
:10DB6000FFF750FED4E70020FFF754FE00284FF0E7
:10DB7000000002D0FFF73EFE01E0FFF743FE2570F4
:10DB800040F6CD4100223868FFF774F8064646E0BB
:10DB90000020FFF719FE257008E0002051E02570F5
:10DBA0003DE084F801800120FFF70EFE002240F2E4
:10DBB0006661E8E784F801800120FFF705FE002296
:10DBC0004FF40051DFE77868FFF77EF80646D5F19D
:10DBD000110000D02EB10220FFF70CFE84F802B035
:10DBE0001DE0012816D980B2C8214843C117C903D6
:10DBF00041EA5041C0034FF47A72801841F10001AC
:10DC000052000023FEF7EEFB014600227868FFF782
:10DC100031F806460220FFF7F5FD84F80280304611
:10DC2000BDE8F09F00F046FEB9E700F043FEB4E720
:10DC300000F040FE04E000F03DFE0020FFF7E2FDB2
:10DC40000120FFF7DFFDAAE7FFF701FEA7E70000CD
:10DC5000B02D0020BC250200012104F06DBC0000A5
:10DC60002DE9F84F0546861C00208DF800009146EE
:10DC70000F464FF0010A6846FFF7DEF81B4C04F22E
:10DC80001C4860683860D4E90101194F401A3968AE
:10DC9000081A0EE00121404600F0E1FF00F036FED8
:10DCA0000146404600F0DBFFD4E90101401A396823
:10DCB000081A401C8642EDD8B9F1000F03D00520A8
:10DCC00065F3891002E0062065F39F5061683A68A9
:10DCD000114004EB8101C8606068304460609DF8C9
:10DCE0000000FFF7CDF85046BDE8F88F8C370020D4
:10DCF000FC2E002070B50D4604460A2902D10D21E4
:10DD0000FFF7F8FFA0682268411CA1601554D4E910
:10DD10000101814204D32046BDE8704001F0CBBB35
:10DD200070BD0000044881684068814201D1012033
:10DD300070470020704700008C370020034630B544
:10DD4000074800210478426806E000BF02EBC100EA
:10DD500005789D4203D0491CA142F7DB002030BD6D
:10DD6000602E002000780221FFF7B8BD05494FF072
:10DD7000FF32082841F8202002D3084480F85220BE
:10DD8000704700007C340020F0B54FF0FF3512B131
:10DD90000023082601E008230C260C4C05E000BFF8
:10DDA00054F823707F1C04D05B1CB342F8D3284680
:10DDB000F0BD26185DB286F8305044F82310002AD2
:10DDC000F5D1E11881F85200F1E700007C34002021
:10DDD0000249084490F93000704700007C3400206C
:10DDE00030B589B00D46044620216846FEF757FB42
:10DDF00094F8C602002300EB8001C1EB801094F878
:10DE0000C51204EB400041B1491EC9B201EBC1018A
:10DE100000EB4101498A491C00E0C188008961F397
:10DE20000F0360F31F4303208DF800000548CDE980
:10DE30000204054804932A466946806801F054F8B4
:10DE400009B030BDB9E00100282E002070B5084CA3
:10DE5000050009D010342168002907D00868206027
:10DE6000496828468847F6E70834F4E770BD0000A3
:10DE700068340020054A012120B1012805D19170A4
:10DE8000FFF7E4BF51700020FAE7704768340020C4
:10DE900010B5D0E90234D1E90220D11AA04101D352
:10DEA000012010BD002010BD10B5024600201388CF
:10DEB00006E0546834F810408C4203D0401C80B215
:10DEC0008342F6D810BD000001460148FFF7F7BABB
:10DED0004C3200202DE9F04389B00F4605469146AB
:10DEE00020216846FEF7DBFA95F8C60295F8C54290
:10DEF00000EB8001C1EB801005EB400604EBC40091
:10DF000006EB40013279601C0A31904232D108ABF5
:10DF10000022284600F09CFC78B310E0401EA0428E
:10DF200001D1002004E004EBC40006EB40001C30EB
:10DF30008046024608AB284600F08AFC90B10020DB
:10DF4000387004208DF8000008984A46CDE9035047
:10DF50000C4802900C486946806800F0C5FF09B083
:10DF6000BDE8F08395F8C5024146401C641C85F865
:10DF7000C502E4B23079A042D0D801203870002028
:10DF8000EDE70000B9E00100282E002070B5002464
:10DF90000F4D10E0686800EBC406307802F0D4FC46
:10DFA0007178012901D0012100E000214140307841
:10DFB00000F034FA641C28788442EBDBD5E90401D4
:10DFC000084303D0BDE8704003F0FEBF70BD000001
:10DFD000602E002030B59FB00C4605467C21684677
:10DFE000FEF75DFAADF8024003208DF8000004480A
:10DFF00001954168002901D0684688471FB030BDAF
:10E00000282E00202DE9F041044690F8C6028846EB
:10E0100000EB8001C1EB801004EB40061746304650
:10E0200003F0A4FB050042D0D4F8CC0206283ED26F
:10E0300004EBC0107622A0F8D272D4F8CC0231469C
:10E0400004EBC01000F53570FEF710FA0026B8F1A9
:10E05000000F06D0D4F8CC0204EBC01080F8D062D8
:10E0600006E0D4F8CC12022004EBC11181F8D002F2
:10E07000D4F8CC0204EBC010C0F84C53D4F8CC0256
:10E080000C4D401CC4F8CC02E96888420FD12746E9
:10E09000002407E007EBC41101F53470D1F84C13EC
:10E0A0008847641CE8688442F4D3C7F8CC62BDE8B2
:10E0B000F0810000282E0020F0B515469FB0002208
:10E0C00081F8C822074691F8C6020C4600EB800290
:10E0D000C2EB801001EB400003F048FB060009D0C2
:10E0E0007C2208496846FEF7C1F9ADF8025068463F
:10E0F0000197B0471FB029462046BDE8F040FFF722
:10E1000069BF0000E8250200F0B50D4689B004465D
:10E110004FF4BA61FEF7C3F920216846FEF7BFF954
:10E12000154E2946B06800F0A7FE002821D1A4F8BA
:10E13000CA52C4F8CC0284F8C70284F8C60284F834
:10E14000C5020E4801272A460068206002208DF88B
:10E150000000ADF810702068CDF812000848CDE935
:10E1600002046946B06800F0BFFE002801D184F8BF
:10E17000C87209B0F0BD0000282E002050340020E5
:10E18000B9E0010010B50021024800F073FD80F3F2
:10E19000100010BDA83B00204FF480328A40016877
:10E1A000C1F848230068C0F8082370474FF4A072F4
:10E1B00002EB810189B200F0A1B92DE9F0410546D9
:10E1C0000E464FF4A07000EB860081B228684FF431
:10E1D0008034B440984622F07F47C0F8084328684E
:10E1E000C0F84843286802F03CF8286800EB860035
:10E1F000C0F840752868C0F84443B8F1000F02D059
:10E200002868C0F80443BDE8F0810068D0F8040530
:10E210007047000070B54379234C44F823204279BD
:10E22000231D03EBC202224C1579204A121BD4088D
:10E230002DB10825022000EB04401EA130E0056846
:10E240000A88C5F8082590F904208978002A4FEA41
:10E25000411104DB02F1E02282F8001405E002F033
:10E260000F0202F1E02282F8141D90F9041001223D
:10E27000002909DB01F01F0502FA05F549098900AB
:10E2800001F1E021C1F800514179002503EBC10102
:10E290000A71417943F83100032000EB04400EA1DC
:10E2A00001F032FD284670BDD82E00207C320200DD
:10E2B0001C32020052544320696E7374616E6365B0
:10E2C00020616C726561647920696E697469616C42
:10E2D000697A65642E0000005254433A20696E69E1
:10E2E0007469616C697A65642E00000090F904001D
:10E2F000002809DB00F01F02012191404009800045
:10E3000000F1E020C0F8001270470A46022100F038
:10E310007BB84FF4827100F0F1B800680121016010
:10E32000704700680121416070472DE9F05F0746A2
:10E330000C464FF4A07000EB84001FFA80FA386896
:10E340004FF48036A6409B4622F07F45C0F84863D4
:10E350003868C0F808633868D0F8048500EB840298
:10E36000D2F84095C2F840855146386801F079FFEF
:10E37000A9EB080020F07F40012806D1102002F010
:10E3800027FA5146386801F06CFF3868D0F80485E8
:10E39000C0F84463A5EB080121F07F4138680129EA
:10E3A00000EB840010D0C0F840553868D0F8041550
:10E3B0006FF07F4C6A1A521E22F07F42ACEB0B03C7
:10E3C000934217D362B118E06D1CC0F8405510207D
:10E3D00002F0FEF93868D0F8040540450AD10CE097
:10E3E00000EB84006D1CC0F840553868D0F8040577
:10E3F000884202D00D20BDE8F09F01223146384608
:10E4000000F002F80020F6E70368C3F84413002A7E
:10E4100002D00068C0F80413704700002DE9F84FDF
:10E420000E463449804601EB5001C007097801D0FF
:10E430000F0901E001F00F074FF0000942460120EB
:10E440004946FEF700F8DFF8B0A004460D46052F58
:10E450004ED2DFE807F003161B282C00002E47D011
:10E460000121404603F0A4FC8DF800906846FEF7B9
:10E47000E3FC5046D0E904120C431543CAE90445B5
:10E4800032E00EB1022114E0002112E04EB103216E
:10E49000404603F08DFC4046BDE8F84F012104F0F2
:10E4A0003BB8012105E0002E22D1042101E02EB16C
:10E4B00003214046BDE8F84F03F07ABC00214046F6
:10E4C00003F076FC0021404604F026F88DF8009019
:10E4D0006846FEF7B1FC5046E243D0E904341A40E6
:10E4E00024EA0501CAE904219DF80000FEF7C8FCF2
:10E4F000BDE8F88F34350020602E002010B500688C
:10E5000042581AB101F0ADFE012010BD002010BD2F
:10E51000826883881A4003689A5C0A708168491C83
:10E5200081607047C26883881A4003689954C16843
:10E53000491CC160704710B50446C0B2FEF752FCDA
:10E54000204610BD0969002900D008477047000027
:10E5500070B508880D46A0F52061773916D10C48B2
:10E560000C49401AC108032000EB01440AA12046CF
:10E5700001F0CAFBA88810A1C01E82B20D48134644
:10E5800002802046BDE8704001F0C9BB70BD0000AC
:10E59000943202001C320200415454204D54552044
:10E5A00065786368616E676520636F6D706C657414
:10E5B00065642E00B0270020426C65204E55532024
:10E5C0006D61782064617461206C656E6774682089
:10E5D00073657420746F20307825582825642900CD
:10E5E00010B50949094800F0BCFB08B1FEF7CAFAAA
:10E5F000F721064800F0A9FB002803D0BDE8104031
:10E60000FEF7C0BA10BD000051E5010064320020E1
:10E6100070B50D4601F11004C98A102901D90920ED
:10E6200070BD01F08EFC686030B1E2880023A16803
:10E6300001F0EDFC002070BD042070BD70B50D46EA
:10E6400001F1100489690988102901D9092070BDD8
:10E65000891C01F076FC686068B100230222A16881
:10E6600001F0D5FCA068E16802230288686801F027
:10E67000CEFC002070BD042070BD000010B50B481A
:10E68000FFF7C3FD094A083AD2E90434C018D2E9B9
:10E69000063244F10001C31A71EB020204D24FF0BA
:10E6A0008072801841F1000110BD0000A02E0020F2
:10E6B00010B5C0B2FFF742FB0446007802F044F9FF
:10E6C00001466078012801D0012000E0002090EA96
:10E6D000010F08D00449D1E90401084303D1BDE882
:10E6E000104003F071BC10BD602E00202DE9FC5FCE
:10E6F0000E008346DDE90C47C6F1000098469246BD
:10E70000814600D40846012503E000BF90FBFAF0E3
:10E710006D1C5045FADAA84500D9454624B1002EB3
:10E7200001DB780700D5641EB80702D5B8F1000FE9
:10E730000AD0F80708D13CB1A54205D2202158469D
:10E74000641EFFF7D7FAF6E7002E02DA4E462D21B7
:10E7500002E0780703D52B215846FFF7CBFA07F0E4
:10E76000030002280BD1B8F1000F08D13CB1A5423B
:10E7700005D230215846641EFFF7BCFAF6E7CDE912
:10E780000047434652463146584603F06BFEBDE80B
:10E79000FC9F000070B50D46044600684FF4887178
:10E7A00001F0CCFF4FF49071206801F0C7FF4FF4E7
:10E7B0009271206801F0C2FF4FF4A271206801F04D
:10E7C000BDFF4FF4AC71206801F0B8FF206812491A
:10E7D000C0F804132068690740F30730090E0028C9
:10E7E00004DB00F1E02080F8001405E000F00F00E9
:10E7F00000F1E02080F8141D206840F30730002865
:10E8000009DB00F01F02012191404009800000F166
:10E81000E020C0F8001170BD100342000246002045
:10E820001268530713D502F00300012802D0022812
:10E830000CD105E0C2F383100B68801C184404E07F
:10E840000223086803EB92521044086001207047CD
:10E8500010B509892AB1D088491C814218D10020FD
:10E8600010BD90F8C62202EB8204C4EB821200EBCA
:10E87000420212899142F2D0491C198090F8C612C6
:10E8800001EB8102C2EB811100EB4100008902E043
:10E890001980D088401E5880012010BD007DC0F333
:10E8A000C100012803D0032801D0002070470120B7
:10E8B000704700000A4810B5807860B1002401E07C
:10E8C000022C06D02046FEF795FF641C042CF7D3DB
:10E8D00010BD0324F6E7BDE81040FEF7AFBF00000F
:10E8E000B02D002003480179C90702D00078FFF756
:10E8F000CFB87047B02D0020F7210180172141804B
:10E900000021017141717047704700002DE9FF41FE
:10E910000026244800F0A0F92248001F074600F016
:10E920009BF9214C2149A06800900D6800E00098F7
:10E930006946284004EB80000C30FFF76FFF002889
:10E94000F5D101AA009901EA050304EB8303491CF0
:10E95000DB6842F82030401C00910228F2D3019875
:10E9600000F0030001280BD0022810D101980321E8
:10E9700001EB90500099BDF80A6001EB900005E0B2
:10E980000198BDF80A60C0F383100844009038462F
:10E9900000F05FF908B10098A06004B03046BDE80F
:10E9A000F0810000A43B00208C370020FC2E0020CA
:10E9B0008AB04FF48041002001F028FA08B1FEF738
:10E9C000E1F801F077F8FEF727F908B1FEF7DAF879
:10E9D000182236496846FDF749FD35480690354905
:10E9E0004FF48070CDE9070109900723324A06A948
:10E9F0006846FEF7A5F908B1FEF7C4F82F490120D3
:10EA0000FEF7FCFF08B1FEF7BDF869460020FEF7EF
:10EA100039FF08B1FEF7B6F82A4C2948CDE90004C1
:10EA200000256846FEF75AFB08B1FEF7ABF801F087
:10EA3000F7FA08B1FEF7A6F801F082FD08B1FEF77B
:10EA4000A1F869460120009501F01CFC08B1FEF711
:10EA500099F8684601F0ACFC08B1FEF793F8FFF7AF
:10EA6000BFFD194800901948CDE9010469461848CE
:10EA7000FEF7C4FC08B1FEF785F803F04BF815A0CB
:10EA8000FDF792FF1C481D49401AC008032101EB05
:10EA900000401BA101F038F903F068F801F018F804
:10EAA0000028FBD101F0D0FAF8E700009C25020015
:10EAB0004C3000204C3100203520020079D9010073
:10EAC000C9DE0100842D002015D301000D0F0200C6
:10EAD0004C320020424C4520554152542063656E13
:10EAE0007472616C206578616D706C6520737461FF
:10EAF000727465642E0D0A00943202001C3202000A
:10EB0000424C4520554152542063656E7472616CCD
:10EB1000206578616D706C652073746172746564D2
:10EB20002E0000002DE9F047C5881E1DB6FBF5F745
:10EB30008946B6FBF5F1044605FB176C407916686B
:10EB40006843DDF820A0F718001F874200D9C61AD5
:10EB5000166001E02468491E0029FBD1A5EB0C07D3
:10EB60008846B74216D818E004EB0C00001D09EBEC
:10EB70000803BAF1000F3A4602D00146184600E0F9
:10EB80001946FDF773FC2468F61B4FF0000CB844DF
:10EB9000B54201D9374600E02F46002EE4D1BDE84A
:10EBA000F087000030B5024651B101F043F9002171
:10EBB000074C08E034F821301568AB4202D11160EF
:10EBC000002030BD491C8142F4D3052030BD000037
:10EBD0000000000010B531B1B2FBF3F403FB1424C4
:10EBE0001CB1092010BD0E2010BD01600021416044
:10EBF00081608281C381084610BD70B50C46054610
:10EC0000FDF708FB002802D021882868084470BD61
:10EC100010B50A8849888A4203D1FDF73DFB0120DF
:10EC200010BD002010BD70B50C460546FDF717FB62
:10EC3000002802D061882868084470BD10B50A8891
:10EC400049888A4203D1FDF701FB012010BD002055
:10EC500010BD002100F009B8012100F010B808B57E
:10EC60006A46FDF76EFB009808BD08B56A46FDF7D9
:10EC70004EFB08BD08B56A46FDF730FB08BD08B578
:10EC80006A46FDF737FB009808BD08B56A46FDF7F0
:10EC900065FB009808BD38B5044600258DF8005086
:10ECA0006846FEF7C9F821686268086890420ED984
:10ECB000401E08600178238AE26801FB0325227A5E
:10ECC0002168101AC0B20A79824200D208719DF8F8
:10ECD0000000FEF7D5F8284638BD38B505460020B7
:10ECE0008DF800000C466846FEF7A6F8E868298A09
:10ECF000201AB0FBF1F12A681068431C1360017000
:10ED00009DF80000FEF7BCF838BD10B530B1017AAF
:10ED100042680368891AC9B21A6006E00E2010BD65
:10ED200003681A68541C1C601170491EC9B2F7D2DE
:10ED3000006800210171084610BDC20800F00703F9
:10ED40000120895C98400840704728B1A1F1170262
:10ED5000E12A03D3072070470E207047418000202E
:10ED6000704710B560B10161F72120F8021B20F84F
:10ED7000021BFB2100F8021BFFF7BEFD002010BDA7
:10ED80000E2010BD7CB585880C46002D33D101883E
:10ED90000026102906D0112909D03A290BD055296F
:10EDA0002ED129E00146204602F05AF928E0A01DA4
:10EDB000FFF7A2FD24E02246408934F8061F814275
:10EDC00000D808466080172800D21720608010699C
:10EDD00078B1607968B11849D1E90001CDE9000145
:10EDE000ADF802506088ADF804001369694610461A
:10EDF0009847667126717CBD0146204602F0E2F913
:10EE0000A07A0028F7D0E1882846A5DF012580B147
:10EE10001128F0D001F072FC02460848084902B0FF
:10EE2000401AC00805EB0040BDE8704005A100F0A5
:10EE30006FBFA672E5727CBD642602002432020018
:10EE40001C32020073645F626C655F676174746397
:10EE50005F65786368616E67655F6D74755F726525
:10EE6000717565737428292072657475726E656496
:10EE70002025732E000000002DE9F0410F4604000C
:10EE80004FF000050DD002F045FC39462046FFF753
:10EE90000BF8218881421ED1002005464FF6FF76EF
:10EEA00009E00E20BDE8F081626832F81020B2421D
:10EEB00006D1401C80B28142F6D8206901F08EF85C
:10EEC000002021880BE0626832F81020B24204D1A1
:10EED000616821F810702846E4E7401C80B2814246
:10EEE000F1D80420DEE700002DE9F04791460D46F9
:10EEF00004004FF0000742D0EDB302F00BFC49468E
:10EF00002046FEF7D1FF2978062902D221888142C6
:10EF100002D10720BDE8F087A16800EB800601EB75
:10EF2000860001F018F930B14946284602F05EFC2F
:10EF300008B13846EEE72978DFF8488058F82120F4
:10EF40002AB12069B8B1294690470028E2D1A068CB
:10EF5000294600EB860001F01DF9070006D029784C
:10EF600058F8210010B1686801F01BF8A068494604
:10EF700000EB860000E002E002F034FBD9E70E204F
:10EF8000C8E7000074260200F8B505000C4620D042
:10EF9000002C1ED02888112806D0A0F130011F298E
:10EFA00002D950381F2814D8AE8820463146FEF7C3
:10EFB0007BFFADF80000218881420AD02988112901
:10EFC00008D0A16800EB800001EB8000314602F020
:10EFD00009FBF8BD62684FF6FF7122F81010694610
:10EFE000E06801F0D7F8F8BD2DE9F041044600F1E2
:10EFF000140700F10A05867C007A86B001F1020848
:10F00000002814D08ADF14216846FDF748FA3346F9
:10F010002A46394640468BDF05218DF800100190C5
:10F02000002804D0A16A002901D06846884706B0AC
:10F03000BDE8F0814FF4C871018206214181182199
:10F0400081810021C1817047017D074A8261521090
:10F05000C26121F018010022028441F0040101750F
:10F060000121417570470000A0860100F0B520B174
:10F070001AB1032903D00720F0BD0E20F0BD04799A
:10F080000346051D0CB10420F0BD0021168808467A
:10F0900033F82170B742F7D0491C11F0FF01F7D0C7
:10F0A00003EB8401641C2C7012680A60F0BD18B177
:10F0B00000214171084670470E20704710B50B467D
:10F0C000040002D0980702D009E00E2010BD5807B6
:10F0D00005D4D80603D4180701D4072010BD204654
:10F0E000FFF7E5FF580701D501206071A2710020EC
:10F0F00010BD70B50D46040010D000262660666075
:10F10000A262EDB128792072287BA074296839B1F8
:10F11000142204F11400FDF7A9F904E00E2070BDDB
:10F120002046FFF791FFA86830B10168C4F80A10C3
:10F130004068C4F80E0009E02046FFF77BFF05E0B9
:10F14000FFF782FF2046FFF775FF267204F12C00BF
:10F15000E0641F20A4F85000002070BD2DE9F04F9E
:10F16000044689B000208846074606901421684668
:10F17000FDF795F904F1140004902046FFF78EFB8B
:10F18000010004F14C00059011D002208DF8000020
:10F19000CDF80480A16A684688470020059989DF78
:10F1A00041462046FFF720FF09B0BDE8F08FA07967
:10F1B000002107916179834621B30121069182469E
:10F1C00094F804900026B8F81C003546089012E028
:10F1D00004EB8502D8F818000899FDF704FF28B160
:10F1E000761CF6B2BAF1000F0DD002E0BAF1000FB2
:10F1F00006D16D1CEDB24D45EAD3BAF1000F02D035
:10F200004E4501D009E046B19DF8080040F00400E9
:10F210008DF8080001207F1C0790CDF80480BBF119
:10F22000000F02D00698874203D0079830EA0B00FF
:10F2300007D000208DF8000041462046FFF7D4FE9D
:10F2400002E003208DF80000A16A09B168468847F2
:10F250000020059989DFA7E770B50D46014601F149
:10F2600008020C1D28460988143586B010291ED0C6
:10F270001B2907D01D292DD106B01146BDE87040CD
:10F28000FFF76CBF064614216846241DFDF707F9F9
:10F29000207801281ED1B06A00281BD004208DF8E8
:10F2A0000000049520788DF80400B16A10E006464D
:10F2B00014216846FDF7F3F806208DF80000201DA4
:10F2C00001902088ADF808000495B16A002901D0AA
:10F2D0006846884706B070BD30B585B0040025D0BB
:10F2E00014216846FDF7DBF88ADF2046FFF7D6FADF
:10F2F000012528B1A16A19B18DF8005068468847E8
:10F3000004F14C0104F1140089DF044608280FD0F1
:10F3100074B1084808492246401AC00805EB00406D
:10F3200006A100F0F5FC204605B030BD0E20FBE73D
:10F330000020F9E7343202001C32020073645F627D
:10F340006C655F6761705F7363616E5F7374617238
:10F35000742072657475726E65642030782578004B
:10F3600000F180400068002800D00120704708B5F7
:10F3700000F18040002101600068009008BD00009D
:10F3800070B50D4C0125207808B185260EE00020CF
:10F39000A06060602061E060084801F0F3F9064673
:10F3A00001F01AF908B901F0D7F9257001F0CCF98C
:10F3B00000B1A570304670BD6834002075DE0100D4
:10F3C00038B500258DF800506846FDF735FD084C2E
:10F3D000E068401EE060E06828B901F0B5F910B9B6
:10F3E00001F0DEF9A5709DF80000FDF749FD38BD7C
:10F3F00068340020F0B505460478154889B01646F3
:10F4000040F82420124A08690832A2F10C0742F899
:10F410002400487F385520226846FDF727F80494D9
:10F420002878385C48B10EB10A4A00E000226946EB
:10F43000281D01F04FFC09B0F0BD0EB1064A00E0F6
:10F440000022694605F10C0001F0F8FAF3E700002C
:10F450003C2E002021230200C521020030B4037895
:10F46000054CE35C1BB130BC001D01F069BC30BC35
:10F470000C3001F04DBB0000382E002030B4037872
:10F48000054CE35C1BB130BC001D01F0DBBC30BCA3
:10F490000C3001F0B3BB0000382E00200FB408B5CB
:10F4A0000399002904D004AA00926A4600F00FF8DC
:10F4B00001B05DF814FB10B582680446002A05D03F
:10F4C000D4E90403216898470020A06010BD2DE90D
:10F4D000FC4791460C00804676D014F8011B39B1E8
:10F4E00025290ED04046FEF705FC20780028F4D1EF
:10F4F00098F80C00002867D04046BDE8FC47FFF7AD
:10F50000DABF0020012221782B291BD02D2902D01F
:10F51000302908D102E040F0010001E040F0020093
:10F52000641C002AEFD100252A290ED02178A1F1F0
:10F5300030020A2A11D205EB850201EB4205641C58
:10F54000303DF1E740F00400EAE7D9F800100B1D68
:10F55000C9F800300968641C0D44217800232E2965
:10F560000BD114F8011FA1F130020A2A05D203EBD6
:10F57000830201EB4203303BF3E76C290DD068298D
:10F580000BD0692921D00BDC252918D0582931D07E
:10F5900063290ED0642915D117E014F8011FECE798
:10F5A000702969D0732932D075291BD0782909D1E7
:10F5B00020E0D9F80000011DC9F80010017840468C
:10F5C000FEF798FB641C90E76CE0D9F800100A1D68
:10F5D000C9F800200968CDE900500A224046FFF72B
:10F5E00085F8EFE7D9F800100A1DC9F8002009686E
:10F5F0000A2206E0D9F800100A1DC9F8002009689F
:10F600001022CDE90050404602F02CFFDAE7D9F88D
:10F61000001000270A1DC9F800200E68C00705D198
:10F6200012E04046761C7F1CFEF764FB317800290F
:10F63000F7D104E0202140466D1EFEF75BFBBD4282
:10F64000C0D9002DF6D1BDE74EB13046FCF732FFF0
:10F65000074604E0202140466D1EFEF74BFBBD42ED
:10F6600006D9002DF6D103E04046761CFEF742FB9A
:10F6700031780029F8D1A5E7D9F80000011DC9F8B3
:10F680000010056830214046FEF734FB78214046E3
:10F69000FEF730FB08200021CDE9000103461022CF
:10F6A0002946B0E7BDE8FC872DE9FF411C46DDE9AE
:10F6B0000A7815460E46684600F0B0F846EA45015D
:10F6C00041EA840141EA072242EA0841009A00EB3C
:10F6D0008200C0F80017BDE8FF812DE9FF411C46FC
:10F6E000DDE90A7815460E46684600F0A5F846EAB8
:10F6F000450141EA840141EA072242EA0841009AB1
:10F7000000EB8200C0F80017BDE8FF812DE9FF4142
:10F710001C46DDE90A7815460E46684600F09AF860
:10F7200046EA450141EA840141EA072242EA0841EA
:10F73000009A00EB8200C0F80017BDE8FF812DE9B8
:10F74000FF411C46DDE90A7815460E46684600F082
:10F750008FF846EA450141EA840141EA072242EA7C
:10F760000841009A00EB8200C0F80017BDE8FF8155
:10F770001CB500220B46009211460192FFF7C6FF0E
:10F780001CBD1CB500220B46009211460192FFF7EA
:10F79000D6FF1CBD1CB5002100910B460122019132
:10F7A0001146FFF7B3FF1CBD1CB5002100910B46AD
:10F7B000012201911146FFF7C2FF1CBD13B50C4693
:10F7C000684600F039F8009900EB8101D1F8002774
:10F7D00022F44032C1F80027009900EB8100D0F8F4
:10F7E000001741EA0441C0F800171CBD3CB50A4CA3
:10F7F000D4E90034CDE900346B46441808E000BF7A
:10F8000053F82010D1F8205520C2C1F82055401CD3
:10F810008442F5D83CBD00009C26020001682029E6
:10F8200002D24FF0A040704701F01F010160014873
:10F8300070470000000300500168202902D24FF0F9
:10F84000A040704701F01F010160014870470000AF
:10F85000000300500168202902D24FF0A0407047F9
:10F8600001F01F01016001487047000000030050D3
:10F870000168202902D24FF0A040704701F01F011B
:10F8800001600148704700000003005042094FF03A
:10F89000000102D0012A05D102E04FF0FF3101E062
:10F8A00040F2FF3100F01F00012282400A4201D0E5
:10F8B000012070470020704701B56846FFF7BCFF84
:10F8C000D0F810050099C84000F0010008BD01B54E
:10F8D0006846FFF7BFFF009A01219140C0F8081564
:10F8E00008BD01B56846FFF7C3FF009A01219140AA
:10F8F000C0F8081508BD38B501240090684631B13C
:10F90000FFF78CFF00998C40C0F8084538BDFFF721
:10F9100085FF00998C40C0F80C4538BD034908B5F7
:10F920000844002101600068009008BD00600040AC
:10F9300002494058012800D0002070470060004074
:10F9400030B5154A01460020D2F8104423460AE09B
:10F95000DB681D79854205D1401C0A28F6DB4FF093
:10F96000FF3030BD1B68002BF2D1431CF9D0CB68AF
:10F970001871D2F8103443B1DB68CC681B6823607F
:10F98000D2F81024D268116030BDC2F81014C968D2
:10F9900000220A6030BD00008C3700207047FCF761
:10F9A00077BE704708B5034A00924023024A00F030
:10F9B00005F808BD491C0200F4350020F0B595B0EB
:10F9C0001C4615460F4608461A9E00F003FB1821F8
:10F9D00009A8FCF764FD0E96CDE90954002308221E
:10F9E00003A9384600F00BFB05980690BDF81000FF
:10F9F000ADF81C00BDF81200ADF81E0000208DF817
:10FA000021000398082600F00300012802D00228F4
:10FA100018D032E003983346850AC0F3C2008DF84F
:10FA2000200003980FA9C0F38314A200384600F009
:10FA3000E6FA09A8009006AB22460FA9284600F076
:10FA400025FA1AE00398840DC0F3C2008DF8200057
:10FA5000082C01D2254600E0082533462A460FA986
:10FA6000384600F0CCFA2E44641B09AB06AA29469E
:10FA70000FA800F073F9002CEAD1384600F0B0FA74
:10FA800015B0F0BD0A4A012902EBC00007D00229D7
:10FA900007D0032907D0042907D00020704702208F
:10FAA0007047042070470079704740797047000024
:10FAB0001C32020010B5FFF772FF04210348FFF764
:10FAC0003FFF02490120C968487110BD0C32020095
:10FAD0002DE9F04F8DB0FEF725F918B100200DB0DB
:10FAE000BDE8F08F7E4C4FF0000BC4F818B4BFF3A4
:10FAF0004F8F7C49A06802900D68D846284004EBDF
:10FB000080000BE0D4F8180470B961680298814253
:10FB100001D8A160E2E7284004EB80000C3002A984
:10FB2000FEF77CFE0028EDD1002005AA029901EA2B
:10FB3000050304EB8303491CDB6842F82030401CBA
:10FB400002910228F2D3059800F00300022802D0A7
:10FB500001284DD0AAE005985022810D8946B2EBCC
:10FB6000905F00D850210E4666F39F5005900831F3
:10FB70005D4800F0E6F9070078D000F02BFA434624
:10FB8000082205A9384600F042FA029908F1080A4D
:10FB90002940681A8000001D864222D9504D0C353C
:10FBA00030B1C2B204EB8101301A90460C3104E04E
:10FBB0002946F2B2002590462846C6B2534638463A
:10FBC00000F025FA0AEB080325B1324629463846EB
:10FBD00000F01DFA029909F1030001EB9000029078
:10FBE0003BE004EB81015346324638460C31EFE7E7
:10FBF0000598C0F38310062800D30620059960F30A
:10FC00008911C1F38310801C05918100364800F0F2
:10FC100098F907004AD000F0DDF94346082205A90B
:10FC2000384600F0F4F908F1080800260FE00298C1
:10FC3000434600EA0501401C04EB810102900422C6
:10FC400038460C3100F0E3F908F10408761C0598F9
:10FC5000C0F38310B042EAD847B1D4F81054D4F8B6
:10FC6000180478B1384600F0BBF934E01EE0E868CB
:10FC70004079012804D12A682846394612689047FD
:10FC8000E8680568002DF2D1384600F0A9F98DF832
:10FC900000B06846FDF7D0F8D4F8180408B9029807
:10FCA000A0609DF80000FDF7EBF814E0D4F81044D4
:10FCB00005E02168204689688847E0680468002CD0
:10FCC000F7D10A480A49401AC008022101EB004056
:10FCD00008A100F019F8FEF725F880F00100FEE613
:10FCE0008C370020FC2E0020C83202009432020023
:10FCF0001C3202004261636B656E647320666C7532
:10FD0000736865640000000000231A4602F068B8BA
:10FD100008B5012300926A4602F062F808BD1CB5DE
:10FD2000CDE9002302236A4602F05AF81CBD3EB515
:10FD3000069C8DE81C0003236A4602F051F83EBD84
:10FD4000F0B587B00DF1300C9CE8F0008DE8FC00B8
:10FD500006236A4602F044F807B0F0BD2DE9F047EB
:10FD60000E4680461C469246082940D894F80C90CE
:10FD7000002020731946104601F0DCFB0025B54237
:10FD800006D218F805201BA12046FFF787FB03E0E9
:10FD90001AA12046FFF782FB6D1C082DEFD318A196
:10FDA0002046FFF77BFB0025B54212D218F80570FC
:10FDB0007E2F08D8FCF756FB0068C05D10F03E0FA0
:10FDC00001D03A4600E02E220EA12046FFF766FB46
:10FDD00003E00DA12046FFF761FB6D1C082DE3D366
:10FDE00001222146504601F087FB84F80C90BDE8C3
:10FDF000F08700002025303278000000202020000D
:10FE00007C0000002563000020000000064910B5BA
:10FE100000200870054800F0E1F8002803D10448EC
:10FE200000F011FA002010BD8C370020C83202000B
:10FE30008828020002480349401AC00870470000A1
:10FE4000B43202001C32020013B56846FEF7AAFE67
:10FE500008B100201CBD0248009950F831001CBDBB
:10FE60001C32020070B508480125D0F81044057016
:10FE700007E0E06845712168204649688847E068E6
:10FE80000468002CF5D170BD8C3700202DE9FF47A8
:10FE900081460C9D00200C462F7B28739846164601
:10FEA0002946184601F046FB072E42D2DFE806F04D
:10FEB00004090F161F2A360049462846FFF7EEFAB6
:10FEC00037E0494628462268FFF7E8FA31E0D4E9EE
:10FED000002349462846FFF7E1FA2AE0A06800908F
:10FEE000D4E9002349462846FFF7D8FA21E0D4E9AF
:10FEF0000201CDE90001D4E9002349462846FFF775
:10FF0000CDFA16E004F1080007C88DE80700D4E92F
:10FF1000002349462846FFF7C1FA0AE004F1080029
:10FF20000FC88DE80F00D4E9002349462846FFF7A3
:10FF3000B5FA00222946404601F0DEFA2F73BDE8EB
:10FF4000FF872DE9F041058A80462D1F4819C01C06
:10FF5000B0FBF5F0C6B24046FEF79DFE041E19D078
:10FF60000020207101206071E58000272546761E63
:10FF7000C4F800800BE04046FEF78DFE60B1617969
:10FF8000491C6171286005467F1CC0F80080B7429B
:10FF9000F1D32046BDE8F081204600F002F80020B1
:10FFA000F8E72DE9F041457901466B1E002201E09A
:10FFB0000968521C9A42FBD30F680146002605E0EF
:10FFC00038460C68FEF789FE2146761CAE42F7D310
:10FFD000BDE8F0810121001DFEF741BEFEF795BE90
:10FFE00010B504460121001DFEF74FFE10F0FF0F73
:10FFF00004D12046BDE81040FFF7D3BF10BD1CB5AB
:020000040002F8
:1000000001920122009201AAFEF78CFD1CBD1CB5D5
:1000100001920022009201AAFEF784FD1CBD00009F
:10002000064910B500204870091D0860BFF35F8FB6
:100030000349044800F0F4FA002010BDE42E00202B
:1000400020270200E835002008B500208DF80000C8
:100050006846FCF7F1FEF1EE100A20F09F00E1EE99
:10006000100ABFF35F8F08494020C1F880029DF855
:100070000000FCF705FF00F0AFFA08B141DF08BD52
:1000800020BF40BF20BF08BD04E000E070B50446BB
:100090000C480121FEF7EEFDBFF35F8F002500281D
:1000A00009D10120074E042C08D0311F4A781AB11B
:1000B000BFF35F8F356070BD0C70487001F0FCFDC0
:1000C000F6E70000E82E00202DE9F843044600275B
:1000D00090460E468DF800706846FCF7ADFE20464F
:1000E00000F039F838B105279DF80000FCF7C8FE8C
:1000F0003846BDE8F88320680568B8F1000F05D1DF
:100100000168204600F03FF821680860E268012A93
:100110000CD0022A0ED0042A11D06068082A13D00D
:1001200005FB02013046FCF7A1F9DDE76068405DA0
:100130003070D9E7606830F815003080D4E7606827
:1001400050F825003060CFE700EBC501D1E9000190
:10015000C6E90001C8E7016808684968884201D11A
:10016000012070470020704701680A68496880686C
:10017000884201D9491C00E00021914201D10120AF
:100180007047002070478068884201D9481C70473A
:10019000002070472DE9F84304464FF000080E4652
:1001A0008DF800806846FCF747FE2046FFF7DCFF2D
:1001B00007000AD0207C40B14FF004089DF80000F1
:1001C000FCF75EFE4046BDE8F8832068456841685C
:1001D0002046FFF7D8FF2168486037B120680168E2
:1001E0002046FFF7D0FF21680860E268012A14D09A
:1001F000022A16D0042A19D0082A1CD06068314679
:1002000005FB0200FCF732F9204601F077FA21687D
:100210008A688242D2D28860D0E7616830784855D7
:10022000F2E76168308821F81500EDE76168306811
:1002300041F82500E8E7D6E90001626802EBC50253
:10024000C2E90001E0E782680021916082681161E3
:10025000826851618268D160826851608068016003
:10026000704708B5002242504058009008BD000079
:1002700020B1034909680160002070470E207047D3
:100280000C2902002DE9FE4307460E460846FFF7FB
:10029000EFFF00287AD100250095019506208DF802
:1002A00000704FF00108ADF8040002958DF802804F
:1002B0006946202032686ADF3549364A891AC908FA
:1002C000012202EB014430B100F018FA0246204648
:1002D0003149FFF71DFD00958DF8008001950295CD
:1002E0008DF801806946402032686ADF30B100F045
:1002F00005FA024620462949FFF70AFD00958DF8C8
:100300000070F720ADF802000195029569462320A0
:1003100032686ADF30B100F0F1F902462046204928
:10032000FFF7F6FC0095019502958DF8008069466F
:10033000012032686ADF30B100F0E0F90246204661
:100340001849FFF7E5FC4FF4B06000900195029565
:100350006946A12032686ADF30B100F0CFF9024669
:1003600020461149FFF7D4FC0095019502958DF8C0
:1003700000506946A02032686ADF30B100F0BEF953
:10038000024620460949FFF7C3FC0020BDE8FE8372
:10039000A43202001C320200403002008830020009
:1003A000D4300200A02F0200EC2F02004C2F0200DC
:1003B0002DE9F0410546076860DF804619491A4873
:1003C0002A68081AC608BA4219D9022000EB064466
:1003D00016A12046FFF798FC20463A461FA12B683D
:1003E000FFF79DFC4FF08050D0F80C012968800287
:1003F00000F10050421A204625A1FFF789FCB8F110
:1004000000004FF001040AD000F078F9024604EB36
:1004100006402AA1FFF77CFC4046BDE8F0812F484A
:100420000470F9E7A43202001C320200496E7375B1
:100430006666696369656E742052414D20616C6C1B
:100440006F636174656420666F7220746865205301
:100450006F66744465766963652E00004368616E5B
:100460006765207468652052414D20737461727411
:10047000206C6F636174696F6E2066726F6D2030DF
:1004800078257820746F20307825782E00000000C1
:100490004D6178696D756D2052414D2073697A65A3
:1004A00020666F72206170706C69636174696F6E31
:1004B00020697320307825782E00000073645F6215
:1004C0006C655F656E61626C652829207265747564
:1004D000726E65642025732E00000000532F0020EB
:1004E00030B51548ADF5017D0078002821D04FF4D6
:1004F000FA7500BFADF8005280A9684661DF38B1D7
:10050000052816D00DF5017DBDE83040FCF73ABB5B
:100510006C460A497DA800F083F806E0D0E9002186
:10052000204690477DA800F092F87F980028E1D0FF
:10053000F4E70DF5017D30BD532F00201029020096
:100540007CB5194C207808B108207CBD0120A07032
:10055000002001F04BFB112819D0002001F05EFBB8
:1005600012480026006801908DF800606846FCF78C
:1005700063FC0F4901A810DF05000AD0002020709D
:100580009DF80000FCF77CFC2DB128467CBD0020C6
:100590007CBD0120F3E7A670667001F0D7FB012057
:1005A00001F03CFBF3E70000502F0020A4280200DC
:1005B00001CB01000EB50749684600F031F805E0AF
:1005C000D0E900108847684600F041F802980028FA
:1005D000F6D10EBDC0280200014800787047000027
:1005E000502F00201FB568464BDF30B1052814D0CE
:1005F00004B0BDE81040FCF7C5BA084901A800F0F6
:100600000FF806E0D0E900210098904701A800F01B
:100610001EF803980028E6D0F4E71FBD2C2902003D
:10062000016009684160AFF3008010B5D0E9002196
:100630005368994201D1002104E0D1E90034A3427A
:1006400002D01946816010BD08314160F0E7816831
:1006500000290BD0026892680A44826041684B68A6
:100660009A4203D108314160FFF7DFBF704770B590
:100670000D460646446804E0B2682946904718B122
:10068000246820680028F7D120682860256070BDA4
:1006900040680068704741680868002801D0026817
:1006A0000A60704702460020526806E08B4203D180
:1006B00008681060012070471A461368002BF5D1B6
:1006C000704700000C4A10B502F594730EE0991AB9
:1006D000C91001EBD171491002EBC1010C688442D1
:1006E00001D90B4602E005D201F108029A42EED38D
:1006F000002010BD486810BD4027020000B5FFF77C
:10070000E1FF002800D1014800BD00002C270200B5
:100710004058002800D00120704708B50022425000
:100720004058009008BDD0F80403084000D00120D4
:1007300070474058002800D00120704708B50022BB
:1007400042504058009008BD02480068002800D080
:10075000012070470004014008480068012110F0A2
:10076000010F06D14FF0E020C02280F80024843031
:10077000C1670349012008607047000000E100E004
:10078000180500400549024600200B790BB1852071
:1007900070470A6001220A71704700004C2E002049
:1007A000022010B54107C1F808034FF48270FEF72C
:1007B000DEFD05490120086004480168C1F30041DD
:1007C0000029FAD110BD00000C00004018040040C0
:1007D000002802D00149800108477047F126020035
:1007E0002DE9F0410D46064600F0FEFD002830469A
:1007F00015D0FDF7EDFA083800F076FE032802D098
:1008000001280AD003E03046FFF756F828B103214B
:100810003046BDE8F041FEF7D1BF0221F8E700F015
:10082000EFFD002822D03046FDF7D2FA04464FF4FF
:10083000807000EB84000E4F81B207EB8400D0F88B
:10084000102542F00102C0F810250846FFF766F8AF
:10085000002D0BD03046FDF7BBFA064951F82000B9
:10086000002803D00120A040C7F80403BDE8F081B0
:10087000006000407C3400202DE9FC41DFF8BC80A2
:10088000044608EB0400002790F930001346C01717
:100890000E46401C01D008274DE0B0781946C0F341
:1008A00040022046FDF770FA0546401C42D0B07861
:1008B00041071AD4C0070DD068460094FEF7BCFF6C
:1008C000009900EB8101D1F8000720F00200C1F887
:1008D000000707E000217378204600910A46019145
:1008E000FEF7FBFE204600F071FDB078800718D5BA
:1008F0001348317800EB8500D0F81025114B1A40D1
:10090000C0F810254FF47C524FF4403302EA042221
:1009100003EA01410A43D0F810150A43C0F8102534
:1009200009E008EB0500327810F8521F41EA821105
:10093000017000E004273846BDE8FC817C340020CB
:1009400000600040FFC0FCFF10B5FEF7B5FF0028B7
:1009500000D0012010BD000070B5194D95F864005D
:1009600008B1082070BD0024661E2046FEF78EFFE9
:1009700010B1281980F83060641CE4B22A2CF4D33A
:1009800000242046FDF7F2F9641CE4B20C2CF8D3E5
:10099000002045F85E0F0C49A8800A4CC02081F861
:1009A000000401264020891FC1F800014FF4BE70E9
:1009B000FEF7B4FFA004C4F80403AE71002070BDBC
:1009C0007C3400200060004006E000E0034890F81E
:1009D0006400002800D00120704700007C34002013
:1009E0000121B1EB507F01D10120704700207047F9
:1009F00038B50D4600F0EAFD040014D000208DF853
:100A000000006846FCF718FA207928B19DF800002C
:100A1000FCF736FA112038BD0120256020719DF8C1
:100A20000000FCF72DFA002038BD00000149024803
:100A300001F0E0BBE4340020002000402DE9F0414B
:100A40000546007916460F4600EB40012D4A01EBA2
:100A5000C00102EB810494F82A1011B10820BDE80E
:100A6000F081294951F820102868FFF7C1FF08B12B
:100A70001120F4E739462846FCF71CFA666038690D
:100A8000206030004FF001062FD03F7F4FF48E7171
:100A90002868FFF742FE4FF4A2712868FFF73DFE79
:100AA00028681A49C0F8041328684FEA471140F330
:100AB0000730002804DB00F1E02080F8001405E096
:100AC00000F00F0000F1E02080F8141D286840F3CA
:100AD0000730002809DB00F01F0106FA01F1400988
:100AE000800000F1E020C0F8001128680421C0F85F
:100AF00000150020A061E06184F8290044F8140F7B
:100B0000A675ACE7E4340020A426020080000200B1
:100B10002DE9F05F054600794FF4017600EB4003C4
:100B200003EBC000344B03EB80040020636813B177
:100B30002B68C3F80863A3694FF000096BB1E06943
:100B400038B1606810B12868C0F804631120BDE8AE
:100B5000F09FE2610120216105E0C4F82490A261C8
:100B6000E160C4F81C9094F82910014302D1284692
:100B700000F06FFF60680028286803D0C0F80463A5
:100B80000020E4E74FF4A2763146FFF7C6FDB246F7
:100B90004FF4927B59462868FFF7BAFD06464FF49A
:100BA00084712868FFF7B4FD804651462868FFF736
:100BB000AFFD074648EA07003043EBD056EA07008E
:100BC00007D12146286800F015FFA169606A8142BB
:100BD000E0D8C4F818900EB10320B8E70FB10F2089
:100BE000B5E794F8291001200029296801D0086090
:100BF000C6E74860C4E70000E43400202DE9F05F58
:100C0000054600790B4600EB400101EBC00024498A
:100C100001EB8004284600F045F810B11120BDE832
:100C2000F09F62614FF00009C4F82090A36084F83F
:100C300028904FF48E784E4641462868FFF76DFDA8
:100C400028684FF0010AC0F808A02146286801F082
:100C5000C7F9606808BBD5F800B067690FE000BF4E
:100C600094F8280008B10F2615E041465846FFF7D2
:100C70004FFD0028F4D02146584601F0B1F9206A12
:100C8000B842F2D3574641462868FFF741FD002895
:100C9000F9D02868C760C4F814903046BFE7000058
:100CA000E4340020007900EB400101EBC00004496E
:100CB00001EB80004069002800D00120704700004F
:100CC000E43400200149024801F042BB1035002005
:100CD000002000402DE9F0410546164600790F46F8
:100CE000154A00EBC00102EB810494F8201011B109
:100CF0000820BDE8F081114951F820102868FFF75D
:100D000077FE08B11120F4E739462846FCF70DF9C3
:100D10006660386920601EB1397F2846FDF73AFDCC
:100D200028680821C0F800150020A061E06160611A
:100D3000012184F82010DCE710350020A8260200ED
:100D40002DE9F05F044600790E4600EBC001DFF8A4
:100D5000F0A017460AEB81053046FFF741FEB0B11F
:100D600068684FF000084FF4047910B12168C1F8A9
:100D70000893A8694FF0000B80B1E86948B1686832
:100D800010B12068C0F804931120BDE8F09F102036
:100D9000FBE7EF614FF001082E6102E0EE60C5E96C
:100DA000067B00254FF488712068FFF7C7FC4FF4DD
:100DB000A2712068FFF7C2FC2068C0F83465C0F853
:100DC00038752068B8F1000F12D0D0F8001241F049
:100DD0002001C0F800122079D04600EBC0010AEBD8
:100DE0008100406838B12068C0F804932846CCE7F9
:100DF00001210160EFE74FF4887A4FF4A279514660
:100E00002068FFF796FC074649462068FFF791FCEB
:100E100006464FF492712068FFF78BFC014647EAC3
:100E200006000843EBD0227902EBC20308EB8302F1
:100E3000C2F818B001B10325002ED7D00F25D5E791
:100E4000103500202DE9F04704460E460079274969
:100E500000EBC00001EB800517463046FFF7C0FDF0
:100E600030B1204600F044F820B11120BDE8F087F1
:100E70001020FBE76F61AE604FF490774FF00008F1
:100E800039462068FFF75AFC4FF4AC7631462068AB
:100E9000FFF754FC2068AA686969C0F84425C0F8C7
:100EA000481520684FF00109C0F808906868D0B96B
:100EB000BA4651462068FFF73CFC07463146206899
:100EC000FFF737FC0743F4D010B14FF00F0808E0EC
:100ED0002068C0F80C9031462068FFF72AFC0028F3
:100EE000F9D0002068614046C0E7000010350020BE
:100EF0000079054900EBC00001EB80004069002843
:100F000000D001207047000010350020FBF73ABEEA
:100F100003490860034801680029FCD070470000BD
:100F200004E5014000E401402DE9F84F05460C4678
:100F30000888B5F8CA12884279D195F8C6024FF0F0
:100F4000000A00EB8001C1EB801005EB40066088D1
:100F5000002860D13079E288A71D8146D1B250FACD
:100F600082F2062A02D80844307111E0062030715E
:100F7000374838493288401AC108022000EB014046
:100F800080463549FEF7C4FE40463449FEF7BCFEB4
:100F900048460022D0461BE000EBC00102EB820372
:100FA00007EB430306EB4101D3F802C0C1F80AC0C6
:100FB000D3F806C0C1F80EC05B894B82A1F814803B
:100FC000A1F81680A1F81880401CA1F81A80521CC4
:100FD00031798142E0D895F8C61200EBC00001EBF0
:100FE0008102C2EB811105EB410136F8100009893D
:100FF000884210D2307906280DD085F8C5022188A4
:101000002846FCF7EDFE002811D022882946BDE8CD
:10101000F84FFDF751B885F8C5A2228869462846E1
:10102000FCF758FF28B122882946FDF745F8BDE8AE
:10103000F88F9DF800000028F9D022880121284669
:10104000FCF7E0FF2188284600F072F9EFE7000086
:101050001C3202001C320200C0290200082A0200D1
:1010600070B502468888C97B02EBC004A41D022922
:1010700001D15188218021886288914213D9A5DF4E
:10108000012578B111280FD0FFF738FB0246074839
:101090000749401AC00805EB0040BDE8704005A1B3
:1010A000FEF736BE657170BD257170BD2432020039
:1010B0001C32020073645F626C655F676174746305
:1010C0005F65786368616E67655F6D74755F726593
:1010D000717565737428292072657475726E656404
:1010E0002025732E00000000F8B505460C46088840
:1010F000B5F8CA12884255D195F8C602A21D00EB78
:101100008001C1EB801005EB400695F8C50200EBAD
:10111000C00006EB400160880A3138B329E000BF07
:1011200000EB400302EB43039F88B7F5245F0CD02C
:101130006FF4245C17EB0C070AD0012F02D0072FA5
:101140000BD108E05B884B8107E05B888B8104E072
:101150005B88CB8101E05B880B824B892BB18B894B
:101160001BB1CB890BB10B8A1BB9401C138883427E
:10117000D6D800208DF8000095F8C5023179401CC2
:10118000884203D101208DF8000010E085F8C502E7
:10119000228869462846FCF79DFE20B12288294610
:1011A000FCF78AFFF8BD9DF800000028FAD02288DD
:1011B00001212846FCF726FF2188284600F0B8F8D0
:1011C000F8BD00007CB506468D88C88806EBC504CE
:1011D000A41D172800D217202188814200D8084674
:1011E00060800020207121882846B5DF60B1FFF7BC
:1011F00085FA02460F481049401AC008012101EB48
:1012000000400EA1FEF784FD6079002810D13069FE
:1012100000280DD01549D1E90201CDE90001ADF852
:1012200002506088ADF80400326969463046904744
:101230007CBD0000243202001C32020073645F6235
:101240006C655F67617474735F65786368616E670E
:10125000655F6D74755F7265706C792829207265A1
:101260007475726E65642025732E0000642602007A
:1012700070B505460C4690F8C602228800EB800146
:10128000C1EB801005EB4001B5F8CA02824238D1AB
:10129000608848B100212846FCF7B4FE2188284622
:1012A000BDE8704000F044B8E268C1F80620E2886A
:1012B00095F8C412D0B251FA82F2062A03D8084433
:1012C00085F8C40211E0062085F8C4020D480E49D5
:1012D000401AC108022000EB01460CA13046FEF77F
:1012E00013FD30461149FEF70FFD21882846FCF713
:1012F00077FD002805D022882946BDE87040FCF71C
:10130000DBBE70BD1C3202001C3202004E6F742026
:10131000656E6F75676820737061636520666F72B4
:101320002073657276696365732E0000642A02007B
:1013300070B588B00D46044620216846FBF7AFF82B
:1013400094F8C7021E4B401CC0B284F8C702DA688A
:10135000002190422CD284F8C51294F8C602194E8E
:10136000401CC2B202EB820084F8C622C0EB82109D
:1013700006EB820204EB4000126802600171022158
:101380008DF800100121ADF810100068CDF81200A2
:101390000D48CDE902042A4669469868FDF7A4FD88
:1013A000002803D02A462146FCF786FE08B070BD0F
:1013B00084F8C81229462046FCF70CFEF6E7000028
:1013C000282E002050340020B9E0010010B5054956
:1013D000C20800F00703885C01249C402043885425
:1013E00010BD0000DA3400200449084490F93000B0
:1013F000082801DB01207047002070477C34002062
:101400000449084490F93000082801D201207047AF
:10141000002070477C3400202DE9F84F314F0546FD
:101420004FF001090024381990F95A10491C46D090
:1014300090F85A00294620F0C0063046FDF77DFCA2
:1014400070B3204600F050F8824668460096FEF7DA
:10145000F3F9009900EB8100D0F80007C0F30148D0
:10146000B8F1020F1DD002213046FEF7A7F96846F9
:101470000096FEF7E1F9009A09FA02F1C0F820158A
:101480003046FCF7A5FC57F820204AB15046BAF187
:10149000030F11D0B8F1020F05D0B8F1030F07D038
:1014A0000DE00321E0E75046BAF1010F04D006E059
:1014B0005046BAF1020F02D1014630469047641CF3
:1014C000042CB0D32A4602210020FEF78FF9002019
:1014D00055F820100029A5D1401C0228F8D3BDE8FA
:1014E000F88F00007C3400200249084490F85A002C
:1014F000800970477C34002010B50C46017A05291C
:1015000008D0407A38B1084808A102682046FDF7A3
:10151000C5FF00E01AB106A12046FDF7BFFF204637
:10152000BDE81040FDF7C7BF2C2F00202573000039
:101530000D0A000038B5C3880D46044633B114A027
:10154000009015A216A12846FDF7A8FF217A0529CB
:101550001CD0607A48B1A088FEF794FA164951F879
:10156000202016A12846FDF799FFA0880021FEF74C
:101570006BFC03461049207A143951F8202001B041
:101580002846BDE830400EA1FDF788BF38BD0000F9
:101590001B5B306D000000001B5B313B33316D0085
:1015A00025734C6F67732064726F707065642028B8
:1015B00025642925730D0A002C2F002025730000B7
:1015C0003C25733E2025733A2000000003498842E1
:1015D00001D1034870470020704700000020004000
:1015E000542E0020F0B591B00E4607460122694600
:1015F000FEF76AFD04005AD19DF8000004AD0628EC
:101600005DD2DFE800F0030A181F2327BDF812207F
:10161000BDF810103046A1DF0BE00CA80690014683
:10162000BDF8162000230198FEF7E9FC2946304654
:10163000A3DF044626E0BDF8101030460DF112027B
:101640009BDFF6E7294630469DDFF2E72946304624
:101650009EDFEEE70CA807900023022208A901985C
:10166000FEF7CDFC08A80690BDF8202002230799BC
:101670000198FEF7C4FCBDF820E029463046AEDFF5
:10168000040016D0112C12D09DF80000114951F819
:10169000200010B10198FEF784FC0022694638460C
:1016A000FEF712FD22463146684600F07BF811B085
:1016B000F0BDBDF820008645E6D00C24E4E70648DE
:1016C0000649401AC008022101EB004004A1FEF7C0
:1016D0001BFBD9E7742602002C3202001C320200E8
:1016E000556E696D706C656D656E746564204741FB
:1016F00054542052657175657374000001680A685E
:101700004968914201D3881A70478068801A08445A
:10171000401C704770B58CB00446C068002209A90F
:10172000FEF7D2FC104D1BE0BDF82410A06801EBC1
:10173000810100EB810607E09DF8000055F82000CC
:1017400010B10198FEF72DFC002269463046FEF7E5
:10175000BBFC0028F0D0002209A9E068FEF7B4FC29
:101760000028E1D00CB070BD7426020070B50C4B9F
:1017700000210A4ADC680DE002EB81058678AD782D
:10178000B54206D132F821500688B54201D15868D9
:1017900070BD491CA142EFD3002070BD5034002021
:1017A000282E0020F8B515000E46044616D00C4829
:1017B0000C490095401AC008012101EB0040227835
:1017C00033460949FEF7B3FAA368002B06D0E16857
:1017D00001B032462846BDE8F0401847F8BD000089
:1017E0002C3202001C320200AC2A02002DE9F0412A
:1017F000044600780E46002504F11001062828D280
:10180000DFE800F003080B111418628A218A3046C1
:10181000A1DF0DE03046A3DF0AE0218A04F11202C5
:1018200030469BDF04E030469DDF01E030469EDF1E
:10183000054605E0A06907883046AEDF050002D006
:10184000112D18D00FE0A0690088B8420BD00C25EC
:1018500009E00A480A49401AC008022101EB004089
:1018600008A1FEF751FA2A4631462046FFF79AFFB3
:101870000120BDE8F0810020FBE700002C320200CF
:101880001C320200556E696D706C656D656E746515
:10189000642047415454205265717565737400008B
:1018A00070B50546FCF735FD134C40B1D4E9040290
:1018B0004FF08071411842F10000C4E9041000218A
:1018C0002846FCF773FC30B1606820B1606800F016
:1018D000D3FA0020606001212846FCF767FC18B1AC
:1018E000FCF7CCFEC4E90601284600F011FB2846AF
:1018F000BDE8704000F038B8982E00202DE9F04186
:1019000000260E70D0E902740D468046FCF7B6FE44
:10191000381A002364EB01011A461B1A8A4115DAB2
:10192000B0F5350F04D3FBF761F90D49421800E01B
:101930003A464FF4960300210A48FCF7F6FC10B132
:101940000D2807D00AE00120BDE8F08100210548FC
:10195000FCF722FC404600F08FFA28700020F3E7E5
:10196000FFFFB400A02E0020F8B5204C064600254D
:101970001F48FEF78DFE10B3D0E90210CA4372EA89
:10198000000224D0626882B16368D3E90223891A15
:10199000984127D26068D0E90210C94371EA00017A
:1019A00003D061681248FEF762FE00F0FBF90746BB
:1019B0006946FFF7A3FFB0B1606858B10DE06068F9
:1019C00000280FD13046BDE8F840FCF7AABC00F073
:1019D000E9F9CDE73046FCF7A0FC67609DF8000010
:1019E0000028C5D1F8BD6560C2E70000982E002030
:1019F000BC26020070B5054688690C4600284FF4E5
:101A0000847128460AD0FEF788FED5F81805626A68
:101A1000E1688854606A401C606270BDFEF77DFE1C
:101A2000D5F8180570BD1FB501238DF80030CDE93C
:101A30000121D0E90012684690471FBD1FB5012360
:101A40008DF80030CDE90121D0E9001268469047B9
:101A50001FBD10B5044600684FF49271FEF75DFE9D
:101A60004FF484712068FEF758FE20680121016060
:101A700010BD00007FB5014603781448144A801A4F
:101A8000C008032202EB0040042B18D0052B0ED017
:101A9000062B0BD14968CA788D794C790B798DE882
:101AA0003C008B784A780BA1FEF74AF97FBD486865
:101AB0000028FBD004B0BDE87040FBF763B811A16B
:101AC000FEF722F9BDE87F4000F050B894320200E2
:101AD0001C320200436F6E6E656374696E6720741A
:101AE0006F2074617267657420253032782530323A
:101AF00078253032782530327825303278253032EA
:101B0000780000005363616E2074696D6564206F16
:101B100075742E001FB50020009001900290039074
:101B200001208DF804008DF80C000D4A69460D481F
:101B3000FDF7DFFA08B1FBF725F80B4A0321094846
:101B4000FDF794FA08B1FBF71DF8002204210548BF
:101B5000FDF7B4FA002801D0FBF714F81FBD000010
:101B6000751A0200783200209825020010B5084846
:101B7000FDF7B2FB08B1FBF705F80120FBF732FFD8
:101B8000002803D0BDE81040FAF7FCBF10BD0000EC
:101B90007832002038B50021012548B1012810D045
:101BA00003280DD1FEF7D8FDBDE83840FDF708BC8D
:101BB0004FF0E020C0F88051BFF34F8FBFF36F8F1D
:101BC00038BD8DF800106846FBF736F9064C2078D2
:101BD00008B9FDF7D5FBE068401CE060A5709DF8F2
:101BE0000000FBF74DF938BD683400203EB50446CF
:101BF00009496846FEF714FD08E000BFD0E900215E
:101C00002046904730B16846FEF721FD0298002833
:101C1000F4D13EBD11203EBDA82802003EB50446C9
:101C200008496846FEF7FCFC07E000BFD0E9002148
:101C3000204690476846FEF70AFD02980028F5D135
:101C40003EBD0000B42802002DE9F0411400884692
:101C500018D000250E4F032608EB05012246002070
:101C6000FAF718FD0544241A40B93878002809D03D
:101C700008494FF47A408847761E05D00120387015
:101C8000002CE9D1BDE8F08100203870FAE70000AF
:101C9000F02E00208128020010B504460020FBF73A
:101CA000A1FE08B1FAF76EFF24B9FBF707FE08B1F1
:101CB000FAF768FF012010BD70B5194D194C07E007
:101CC000016820788847002829D01548FEF7BFFC16
:101CD000A8680028F4D1FEF7C5F800BFFDF7F8FEAC
:101CE0000028FBD1207803280CD002280AD0FEF768
:101CF00073FC00B133DF0C4901200860BFF34F8F44
:101D000020BFFDE7BFF34F8F08480168084A01F480
:101D1000E06111430160BFF34F8F00BFFDE770BD6D
:101D2000E8350020E42E0020000500400CED00E026
:101D30000400FA05002805D103490120487000205D
:101D4000FCF784B8704700006834002010B51620F6
:101D5000FAF742FEA0B1114890F8000440090828A3
:101D600011D20121814011F0EC0F0CD00C48826897
:101D70004FF480016AB1016841F48001016010BD37
:101D800042F2010001E042F20200BDE81040FAF721
:101D9000F9BE4FF0E020C0F8001110BD16E000E0E1
:101DA000DC3500200148FEF776BC0000BC260200AE
:101DB000C207002A03D000BF4FF00F0201E04FF02E
:101DC000F00201D04FEA0111044B03EB50031878E5
:101DD00000EA020040EA0100187070473435002024
:101DE0002DE9F84F074622489146884605681E4669
:101DF000012269461846FBF733FFDFF878A060B38D
:101E0000009800210446801C0AE000BF00EA050299
:101E100059F821C00AEB8202401C491CC2F80CC0D0
:101E2000B142F3D34FEA1749FCF7ACF9611C2940E2
:101E30000AEB810149EA00422C40CA600AEB8401A6
:101E4000C86867F3C50066F3891068F39F2020F027
:101E50000300401C20F00400C8609AF8000001E074
:101E6000FDF736FE0028FBD1FCF74EFDBDE8F88FEC
:101E7000FC2E00208C370020F8B5044622480026AE
:101E8000007878B374B3FCF7F9FBD4E90232C01AD6
:101E900091412DD300258DF800506846FAF7CCFF0C
:101EA000206910B9681EC4E902009DF80000FAF725
:101EB000E7FFD4E9051088478DF800506846FAF727
:101EC000BBFF22697AB1D4E90210CB4373EA000365
:101ED00009D089186841C4E902109DF80000FAF79A
:101EE000CFFF09E00DE09DF80000FAF7C9FF08E018
:101EF000D84370EA020004D021460448FEF7B7FB3D
:101F000001263046F8BD0000982E0020BC260200B5
:101F100038B51D4D69462868FCF785FE1B4C30E03E
:101F2000017821B101290ED0022922D117E04168A0
:101F3000D1E90220D24372EA00021AD012480830D6
:101F4000FEF795FB15E041686068814202D10020F0
:101F500060600EE00C480830FEF7A4FB09E0FFF7D4
:101F600021FF20B14FF0FF31C0E90211F7E7012056
:101F7000207069462868FCF74BFE69462868FCF724
:101F800052FE0028CCD138BDB4260200982E002085
:101F9000F8B50B4C0D46064669462068FCF72DFE49
:101FA00058B10670456069462068FCF747FE10B1DD
:101FB0000448FCF79BF90020F8BD0420F8BD0000A0
:101FC000B4260200A02E0020034880684108034880
:101FD00000224068FAF74EBE602E0020AC260200B8
:101FE00070B50C4605464FF48E71FEF796FB216ADC
:101FF000A068415C206A401C2062C5F81C1570BDB9
:102000001FB500228DF80020029181680191426184
:10201000D0E90012684690471FBD1FB500228DF819
:1020200000200291816801914261D0E90012684666
:1020300090471FBD70B50278044662B11C481D4B25
:102040000121C01AC00801EB0040012A27D0022A52
:1020500024D119A124E0264C244D60882844FAF7A5
:1020600055FE6088401C80B22918608011F8011C60
:102070000A2904D00D2902D0218888420ED31B4999
:10208000628801F53D70FBF75BFA082804D013283D
:10209000F5D008B1FAF776FD0020608070BD15A17B
:1020A000FDF732FE6068BDE87040FAF76BBD0000D6
:1020B000943202001C320200436F6D6D756E6963CD
:1020C0006174696F6E206572726F72206F636375E1
:1020D00072726564207768696C652068616E646CF3
:1020E000696E6720554152542E000000582F002081
:1020F000B02700204572726F72206F636375727231
:10210000656420696E204649464F206D6F64756C8A
:1021100065207573656420627920554152542E0004
:102120007CB50178254DA1B301290BD002291DD121
:102130008DF80010C068691C01900122C81DFDF7D0
:102140008DF930E0017A59B1406801781C48FAF7FE
:102150003FFD1B4C012650B18DF8006001900DE051
:1021600016490122491CC81DFDF778F97CBDA068FD
:10217000E168814205D000208DF80000696868465A
:102180008847A068E168081AA1888842E8D9AE703B
:102190007CBDFFE70A4809491030FAF7FEFC30B170
:1021A00003208DF80000696868468847F0E7034916
:1021B000012201F10800FDF761F9E9E7BC2E0020DA
:1021C000BC3500201FB50A4601788DF80010416823
:1021D0000191017A8DF80810C0680390044850F806
:1021E0002210083850F82220684690471FBD000092
:1021F000442E00202DE9FF470C4605464FF40071A0
:10220000FEF791FA01274FF40178002618B34FF436
:10221000927949462846FEF77BFAE0B149462846BE
:10222000FEF77BFAC5F8088394F8290000B96F60BF
:1022300002208DF80000D5F88004C5F880040390D2
:10224000A0690290E0680190A661E661D4E90012FD
:102250006846904728E004212846FEF764FA18B340
:102260004FF484712846FEF753FAE8B12146284618
:10227000FFF7C0FB616AA069884215D1E06938B1F7
:10228000E268616AA0612069E6616662E06008E078
:1022900094F8290000B96F60C5F80883A661E26868
:1022A000616A2046FFF7BFFB4FF48E78414628460F
:1022B000FEF72EFA80B16069216A814202D294F859
:1022C000280028B341462846FEF727FA606918B16E
:1022D00061692046FFF794FE4FF4A27841462846F4
:1022E000FEF716FA002818D041462846FEF715FAE0
:1022F00094F8290000B12F60A06900280DD0A661D4
:10230000E268616A04B02046BDE8F047FFF78BBB86
:1023100021462846FFF764FEDEE7BDE8FF870000A0
:102320001FB50A4601788DF8001041680191017AC5
:102330008DF80810C0680390044850F8221008383F
:1023400050F82220684690471FBD0000442E002010
:102350002DE9FF410C464FF4927705463946FEF7CA
:10236000E8F90026B8B139462846FEF7E7F9022019
:102370008DF80000D5F88004C5F880040390D5F8E6
:102380003C050290E0680190A661E661D4E9001284
:102390006846904723E04FF4887739462846FEF791
:1023A000C8F9E0B139462846FEF7C8F9D5F83C151A
:1023B000A069884213D1E06960B1E268D5F80002F3
:1023C00020F02000C5F80002E069A0612069E66104
:1023D000E06001E0A661E2682046FFF72FFB4FF4C2
:1023E000A27739462846FEF7A4F968B1394628464F
:1023F000FEF7A4F9A06938B1A661E661D5F83C15ED
:102400002046E268FFF71AFB4FF4907631462846E3
:10241000FEF78FF960B131462846FEF78FF90120AB
:10242000E860606920B1D5F84C152046FFF7F5FD4E
:102430004FF4AC7631462846FEF77BF900280ED0E3
:1024400031462846FEF77AF96069002807D0D5F8AA
:102450004C1504B02046BDE8F041FFF7DEBDBDE8F5
:10246000FF8100002DE9F05F8346DDE90A4A9946C5
:1024700090460D460846012703E000BFB0FBF8F088
:102480007F1C4045FAD2B94500D94F465FEACA7071
:1024900012D18CB15FEA8A7002D5B9F1000F01D078
:1024A000202607E0302605E031465846641EFBF73B
:1024B00021FC0CB1A742F7D35FF00106B9F1010F7F
:1024C00002D9A9F1010903E0B5FBF6F0404502D3BA
:1024D00006FB08F6F2E7DFF83C9000BFB5FBF6F02C
:1024E00000FB165519F800105846FBF703FCB6FB25
:1024F000F8F6002EF2D15FEACA7009D0002C07D09E
:10250000A74205D220215846641EFBF7F3FBF5E7EE
:10251000BDE8F09FF626020070B50C460546FBF7B5
:102520000DFC002807D04268002A04D02146284626
:10253000BDE87040104770BD10B504281DD209B128
:10254000032400E00024FBF7FBF8202802D24FF020
:10255000A04102E00A4900F01F0001EB8000D0F822
:10256000001721F44031C0F80017D0F8001741EAF5
:102570000441C0F80017002010BD062010BD000067
:10258000000300506C330020CC3200200400000017
:10259000200000000100000001000200080000000F
:1025A0000600000005000000070000000000000019
:1025B00000E0D7010D0E0F100B0C1819C02D0020D4
:1025C000E02D0020002E00200B000300DDD80100CC
:1025D0000C000300DDD8010018000300DDD8010065
:1025E00019000300DDD80100010000000000000018
:1025F00000000000000000000000000000000000DB
:1026000000000000000000000000000000000000CA
:1026100000000000000000000000000000000000BA
:1026200000000000000000000000000000000000AA
:10263000000000000000000000000000000000009A
:10264000000000000000000000000000000000008A
:10265000000000000000000000000000000000007A
:1026600000000000770A000000000000770A000068
:10267000000000000000000011E601000000000062
:1026800000000000000000003DE601009ECADC24BE
:102690000EE5A9E093F3A3B50000406E00000050E2
:1026A000000300502D0A0200C50C020003000000C8
:1026B000782E0020543500200100060000000000A4
:1026C000B82E002091DE0100FFFFFFFFFFFFFFFF9C
:1026D000FFFFFFFFFFFFFFFF000000000000000002
:1026E0000000D6010601000000000000000000000C
:1026F0000338FDD870473031323334353637383906
:102700004142434445460000000000000000000034
:10271000F0320200F432020000000000000000006D
:10272000082702002027020004000000556E6B6E8F
:102730006F776E206572726F7220636F6465000040
:1027400000000000702E0200010000001C2D02009D
:1027500002000000102B020003000000902D020078
:1027600004000000E42D020005000000C42C02005B
:1027700006000000602C020007000000CC2D0200C3
:1027800008000000D82C0200090000003C2D0200C7
:102790000A000000582E02000B000000F82A020078
:1027A0000C000000F02C02000D000000C02E020002
:1027B0000E000000BC2D02000F000000F82D0200EA
:1027C000100000002C2E020011000000D42E020088
:1027D00012000000A82E020013000000442E020088
:1027E00080000000782C020081000000B42B020061
:1027F00082000000742B020083000000542B0200B2
:1028000084000000902B0200850000009C2C020038
:1028100086000000A42D020090000000402C020061
:1028200091000000342B020092000000042D0200F1
:10283000008200000C2E020001820000582D0200D0
:1028400002820000742D020000840000D02B0200E0
:10285000018400007C2E020002840000182C02007B
:1028600003840000F42B0200A5F90100A3F9010084
:102870009DF90100000000000000000000000000C1
:102880000338FDD870470000F43600207F000000B8
:10289000743700200000000000000000000000006D
:1028A000000000000100000794280200A428020094
:1028B00008000000CC280200DC280200080000000C
:1028C000DC280200EC28020008000000443302006B
:1028D0004C3302000000000000000000343302000E
:1028E000443302000000000000000000000000006F
:1028F00000000000F43202001C3302001C3302000E
:1029000024330200243302002C330200B0270020BD
:10291000EC2802000C290200080000002C33020001
:102920003433020000000000000000001C290200F7
:102930002C29020008000000004040404040404078
:102940004040414141414140404040404040404082
:102950004040404040404040400502020202020226
:102960000202020202020202022020202020202075
:102970002020200202020202020290909090909089
:102980001010101010101010101010101010101047
:1029900010101010020202020202888888888888BB
:1029A00008080808080808080808080808080808A7
:1029B000080808080202020240000000392902004B
:1029C0004E6F7420656E6F75676820737061636504
:1029D00020666F72206368617261637465726973E7
:1029E00074696373206173736F63696174656420D4
:1029F000776974682073657276696365203078251D
:102A00003034582021000000496E6372656173659F
:102A100020424C455F474154545F44425F4D41580A
:102A20005F434841525320746F2062652061626C9D
:102A30006520746F2073746F7265206D6F726520EE
:102A4000636861726163746572697374696373202A
:102A5000666F72206561636820736572766963656D
:102A600021000000496E63726561736520424C4528
:102A70005F44425F444953434F564552595F4D416D
:102A8000585F53525620746F2062652061626C65F6
:102A900020746F2073746F7265206D6F7265207380
:102AA0006572766963657321000000005344204716
:102AB0004154542070726F636564757265202825D7
:102AC0006429206661696C6564206F6E20636F6E97
:102AD0006E656374696F6E2068616E646C65202535
:102AE000642077697468206572726F723A2030785A
:102AF000253038582E0000004E52465F4552524F46
:102B0000525F494E56414C49445F44415441000094
:102B10004E52465F4552524F525F534F46544445C2
:102B2000564943455F4E4F545F454E41424C4544E4
:102B3000000000004E52465F4552524F525F4645DC
:102B400041545552455F4E4F545F454E41424C45AE
:102B5000440000004E52465F4552524F525F4D5561
:102B60005445585F554E4C4F434B5F4641494C4589
:102B7000440000004E52465F4552524F525F4D5541
:102B80005445585F4C4F434B5F4641494C454400C8
:102B90004E52465F4552524F525F4D555445585F15
:102BA000434F4E445F494E49545F4641494C45446A
:102BB000000000004E52465F4552524F525F4D5545
:102BC0005445585F494E49545F4641494C4544007D
:102BD0004E52465F4552524F525F424C455F4950FC
:102BE00053505F52585F504B545F5452554E4341BF
:102BF000544544004E52465F4552524F525F424C3C
:102C0000455F495053505F504545525F52454A45D4
:102C100043544544000000004E52465F4552524F17
:102C2000525F424C455F495053505F4C494E4B5F99
:102C3000444953434F4E4E45435445440000000021
:102C40004E52465F4552524F525F4150495F4E4F80
:102C5000545F494D504C454D454E5445440000008D
:102C60004E52465F4552524F525F4E4F545F53553E
:102C700050504F52544544004E52465F4552524FB9
:102C8000525F4D4F44554C455F4E4F545F494E493E
:102C90005449414C495A4544000000004E52465F99
:102CA0004552524F525F4D4F44554C455F414C5237
:102CB000454144595F494E495449414C495A45445C
:102CC000000000004E52465F4552524F525F4E4F39
:102CD000545F464F554E44004E52465F4552524F48
:102CE000525F494E56414C49445F5354415445004C
:102CF0004E52465F4552524F525F444154415F53DA
:102D0000495A45004E52465F4552524F525F494F15
:102D10005F50454E44494E47000000004E52465F0A
:102D20004552524F525F5356435F48414E444C45C3
:102D3000525F4D495353494E470000004E52465F83
:102D40004552524F525F494E56414C49445F4C45A3
:102D50004E475448000000004E52465F4552524FC5
:102D6000525F4452565F5457495F4552525F414E3D
:102D700041434B004E52465F4552524F525F4452C0
:102D8000565F5457495F4552525F444E41434B0092
:102D90004E52465F4552524F525F494E5445524E35
:102DA000414C00004E52465F4552524F525F5354C1
:102DB0004F524147455F46554C4C00004E52465FCE
:102DC0004552524F525F4E554C4C00004E52465F9A
:102DD0004552524F525F494E56414C49445F504113
:102DE00052414D004E52465F4552524F525F4E4F38
:102DF0005F4D454D000000004E52465F4552524F18
:102E0000525F464F5242494444454E004E52465F3F
:102E10004552524F525F4452565F5457495F455294
:102E2000525F4F56455252554E0000004E52465F7B
:102E30004552524F525F494E56414C49445F4144BE
:102E4000445200004E52465F4552524F525F524527
:102E5000534F5552434553004E52465F4552524FD1
:102E6000525F494E56414C49445F464C41475300DE
:102E70004E52465F53554343455353004E52465FAF
:102E80004552524F525F424C455F495053505F4349
:102E900048414E4E454C5F414C52454144595F4577
:102EA00058495354530000004E52465F4552524F0A
:102EB000525F434F4E4E5F434F554E54000000004B
:102EC0004E52465F4552524F525F54494D454F5501
:102ED000540000004E52465F4552524F525F4255D9
:102EE000535900007761726E696E670064656275A0
:102EF000670000001B5B313B33306D001B5B306DA6
:102F0000000000001B5B313B33316D001B5B313B2C
:102F100033326D001B5B313B33336D001B5B313B48
:102F200033346D001B5B313B33356D001B5B313B34
:102F300033366D001B5B313B33376D00696E666F56
:102F4000000000006572726F7200000073645F62BF
:102F50006C655F6366675F736574282920726574AA
:102F600075726E6564202573207768656E206174C4
:102F700074656D7074696E6720746F20736574205A
:102F8000424C455F47415454535F4346475F534566
:102F900052564943455F4348414E4745442E000041
:102FA00073645F626C655F6366675F73657428292D
:102FB0002072657475726E6564202573207768656C
:102FC0006E20617474656D7074696E6720746F2013
:102FD00073657420424C455F434F4D4D4F4E5F43E8
:102FE00046475F56535F555549442E0073645F62F0
:102FF0006C655F6366675F7365742829207265740A
:1030000075726E6564202573207768656E20617423
:1030100074656D7074696E6720746F2073657420B9
:10302000424C455F47415454535F4346475F4154C8
:1030300054525F5441425F53495A452E00000000EC
:1030400073645F626C655F6366675F73657428298C
:103050002072657475726E656420257320776865CB
:103060006E20617474656D7074696E6720746F2072
:1030700073657420424C455F434F4E4E5F43464755
:103080005F4741502E00000073645F626C655F63B0
:1030900066675F73657428292072657475726E6542
:1030A00064202573207768656E20617474656D7087
:1030B00074696E6720746F2073657420424C455F9D
:1030C0004741505F4346475F524F4C455F434F5522
:1030D0004E542E0073645F626C655F6366675F7356
:1030E000657428292072657475726E656420257375
:1030F000207768656E20617474656D7074696E67A1
:1031000020746F2073657420424C455F434F4E4ED0
:103110005F4346475F474154542E0000626C655F31
:1031200064625F64697363006E72665F626C655FA0
:1031300067617474000000006E72665F626C655FA8
:1031400067710000626C655F7363616E0000000070
:10315000626C655F6E75735F63000000636C6F6324
:103160006B000000434C4F434B0000004750494F59
:103170005445000050525300554152540000000085
:1031800055415254450000006170705F627574745F
:103190006F6E00006170705F74696D657200000091
:1031A0007077725F6D676D7400000000736F7274EA
:1031B0006C697374000000007274745F6C6F675FF9
:1031C0006261636B656E6400617070006E72665F51
:1031D000736468006E72665F7364685F626C65003A
:1031E0006E72665F7364685F736F63004C330200D6
:1031F000B0270020A807000034C50100C03302003A
:10320000582F0020E0160000C8C9010068280200FD
:1032100000000000B8310200F42E00201C31020032
:1032200000000303283102000000030338310200CC
:103230000000030344310200000003035031020088
:10324000000003035C310200000000006431020052
:10325000000000006C310200000000007431020028
:103260000000000078310200000000008031020000
:1032700000000000883102000000000094310200CC
:1032800000000000A031020000000000AC3102008C
:1032900000000000C831020000000303CC3102002E
:1032A00000000303D431020000000303E0310200F8
:1032B00000000303A82D00209E2D0020A62D002035
:1032C0008433002018000000082F0020002F002069
:1032D000082F00203436002018000000783300202A
:1032E0009A2D0020010000000200000001000000F3
:1032F000991C020085ED01006432002001D101001B
:10330000B427002059F201007832002089EF010033
:10331000842D0020A5D201000000000055D401003A
:103320004C32002085D1010000000000351D020054
:1033300000000000E104020000000000E5050200BA
:1033400000000000951B02000000000002FF1401B5
:10335000FF01CF03FFFFFF01FF01FF71320113984F
:103360002D152084250214DC32021AB404032EFF2A
:10337000FF5AFF010956200158091F781510014016
:10338000110222041220BA4008091E785904011CB7
:1033900014442F0214E42E021A3C081AEC081AFCFA
:1033A000041AF4041A04101A0C041A14041A1C0443
:1033B0001A24041A2C041A340451040090D0030077
:040000050001C20133
:00000001FF
