:020000040000FA
:10000000E07A0020150300001D0300001F0300001C
:10001000210300002303000025030000000000006E
:1000200000000000000000000000000027030000A6
:1000300029030000000000002B0300002D03000036
:100040002F0300002F030000ED2600002F03000007
:100050002F0300002F0300002F0300002F030000D8
:100060002F0300002F0300002F0300002F030000C8
:100070002F0300002F0300002F0300002F030000B8
:100080002F0300002F0300002F0300002F030000A8
:100090002F0300002F0300002F0300002F03000098
:1000A0002F0300002F0300002F0300002F03000088
:1000B0002F0300002F0300000000000000000000DC
:1000C0002F0300002F0300002F0300002F03000068
:1000D0002F0300002F0300002F0300002F03000058
:1000E0002F0300002F03000079080000000000002B
:1000F000000000002F030000000000002F0300009C
:1001000000000000000000000000000000000000EF
:1001100000000000000000000000000000000000DF
:1001200000000000000000000000000000000000CF
:1001300000000000000000000000000000000000BF
:1001400000000000000000000000000000000000AF
:10015000000000000000000000000000000000009F
:10016000000000000000000000000000000000008F
:10017000000000000000000000000000000000007F
:10018000000000000000000000000000000000006F
:10019000000000000000000000000000000000005F
:1001A000000000000000000000000000000000004F
:1001B000000000000000000000000000000000003F
:1001C000000000000000000000000000000000002F
:1001D000000000000000000000000000000000001F
:1001E000000000000000000000000000000000000F
:1001F00000000000000000000000000000000000FF
:10020000DFF80CD000F0E0F800480047153300009C
:10021000E07A002000B583B002900091019244F290
:10022000010071466A4602F049FE03B000BD0000BD
:1002300030B4044654E8000F0D4644E80053002B48
:10024000F8D1156030BC704730B4044654E8000F54
:1002500040EA010544E80053002BF7D1156030BC9B
:10026000704730B4044654E8000F00EA010544E842
:100270000053002BF7D1156030BC704730B40446F2
:1002800054E8000F80EA010544E80053002BF7D141
:10029000156030BC704730B4044654E8000F00EBE2
:1002A000010544E80053002BF7D1156030BC7047BE
:1002B00030B4044654E8000FA0EB010544E80053B5
:1002C000002BF7D1156030BC704770B404464FF076
:1002D000000054E8006F0D68AE4207BF44E80023F9
:1002E000012044E800630E60002B1CBF0020F0E7F3
:1002F00070BC704730B4044654E8000F88422CBFED
:10030000451A054644E80053002BF5D1156030BC72
:10031000704700000648804706480047FEE7FEE7B2
:10032000FEE7FEE7FEE7FEE7FEE7FEE7FEE7FEE7A5
:1003300011250000010200000048704728620000FB
:1003400010B5441A0346944209D28418114403E0BC
:1003500011F8013D04F8013D521EF9D210BD40EAEA
:100360000104A40703D009E010C9121F10C3042A16
:10037000FAD203E011F8014B03F8014B521EF9D2F7
:1003800010BDD2B201E000F8012B491EFBD270472C
:100390000022F6E710B513460A4604461946FFF751
:1003A000F0FF204610BD421C10F8011B0029FBD1B4
:1003B000801A7047034611F8012B00F8012B002A20
:1003C000F9D1184670470000064C074D06E0E0687A
:1003D00040F0010394E8070098471034AC42F6D38C
:1003E000FFF712FF68660000886600002DE9F04FF5
:1003F000ABB00128369FDDF8E0809DF8D0B09DF8C5
:10040000E840CDE9027827D8894661B31E4653B348
:1004100072BBCBF10F03DBB201933C9B054603BBE0
:10042000221F0C2A13D8E30711D4CBF10D02D2B24C
:10043000062A0CD8019B032B40F2ED81BBF1060F7D
:1004400005D9019BC3F10F02934500F08780C44C8E
:1004500020462BB0BDE8F08FC24C20462BB0BDE843
:10046000F08F012B09D0C04C20462BB0BDE8F08F97
:10047000BE4C20462BB0BDE8F08F317B032939D923
:100480000729E4D8102CE2D801A353F824F000BFC8
:10049000590500004F0400004F0400004F04000005
:1004A000ED0400004F0400004F0400004F04000062
:1004B000D50400004F0400004F0400004F0400006A
:1004C0004F0400004F0400004F0400004F040000E0
:1004D000550500000622BBF10D0FB8D1914207D19E
:1004E000019BDA0038FA02F3ABD0B0E70522F2E75D
:1004F0009F4CADE7102CAAD801A353F824F000BFFD
:10050000510500004F0400004F0400004F0400009C
:10051000490500004F0400004F0400004F04000094
:10052000450500004F0400004F0400004F04000088
:100530004F0400004F0400004F0400004F0400006F
:100540004D0500000222C6E70122C4E70322C2E7EC
:100550002246C0E70722BEE70422BCE704A8982190
:1005600001F000FA01200022494603230D920E906B
:10057000102212904FF0000908A84FF0010A0C93C6
:10058000CDE9109A01F0EAF904A8102101F0EAF986
:10059000029A8DF894B08DF895402495002A40F089
:1005A00040819DF996202CB1023C04EBD474641078
:1005B000E40064B2CBF10E05EDB22A430DF19700D1
:1005C000144331465A468DF8964001F0C7F9019B15
:1005D000032B98BFC3F110001A4688BF0C20042BD0
:1005E0000DF1960328BF0422184403A900F064F912
:1005F00010230DF1960100220DEB030000F000FD29
:10060000102204460DEB020117A801F0A7F9002CF7
:1006100040F00981029BB3F57F4F80F00F81002BE2
:1006200040F019815A4631460DF16D0023938DF843
:100630006C5001F093F901238DF87B30002F42D0EC
:10064000359B002B3FD02398002800F0E2808742A2
:1006500080F0DD80C0F110043C44BC4228BF3C4621
:100660001946C01B1FAB1844224601F077F9359B91
:100670003A1B191904A800F0CFFD20B3A0F57100B2
:10068000042800F2C180042800F2BE8001A353F8C0
:1006900020F000BFC3060000F10400005904000070
:1006A000AF060000B9060000B8F1000F0ED0314CC3
:1006B00020462BB0BDE8F08F2F4C20462BB0BDE874
:1006C000F08F2E4CC4E6379B002BEDD03B9B002BCC
:1006D0003FF4C9AE399B002B00F08C801A469DF880
:1006E0009450379BC5F10F059342EDB205D047D921
:1006F0001346379A43449A4245D3B8F1000F08D0C5
:10070000399B3799424604A800F0D8FD04460028DA
:100710003BD124980D90102202230DEB02000C9384
:100720001BA90023109301F019F904ABC5F11000C7
:100730001844294601F016F9249B002B38D13B9A26
:1007400017A904A8102300F05BFC0446E8B99DF843
:1007500095003B9BC0F11001184401F003F977E6C6
:100760000C15F0000315F0000D15F0000115F00058
:100770001115F0000515F0000615F0000015F00049
:1007800043449A42B9D2384C62E6A4F57104042C71
:100790003AD8042C38D801A353F824F0C30600003B
:1007A000F104000059040000AF060000B906000083
:1007B00010210DF1960001F0D5F89DF895203B9998
:1007C0000DF1960001F0CAF80DF1960204A810236D
:1007D000114600F015FC04460028D6D19DF895205E
:1007E0000DF1960117A801F0A1F8002818BF4FF4E9
:1007F00075042DE6B8F1000F7FF45EAF9DF89450BC
:10080000C5F10F05EDB284E74FF4750420E6174CEF
:100810001EE6174C1CE6DA0038FA02F33FF40EAE7F
:1008200015E64022BFE6A4F57104042CECD8114B68
:1008300053F82440002C3FF401AF09E64FF6FF6364
:10084000042202A90DF17E00ADF87C3000F034F8EE
:10085000029B0633E6E6022202A91FA800F02CF84C
:10086000029B0233DEE600BF0815F0000715F0001A
:100870000E15F000306400000B490C4B0C4A4FF091
:10088000FF3008601B68BFF35B8F52E8001F42E82F
:1008900000300028F9D1BFF35B8F9942F3D1BFF349
:1008A0005F8F044A1360704704BA025000BA0250C6
:1008B000D43A002008BA02503AB10A44013812F87A
:1008C000013D00F8013F8A42F9D10020704700BF86
:1008D00070B5002849D00D46002943D0244E044667
:1008E0004FF0FF31306801F05DF890BB002001F05F
:1008F00085F850BB20462A46012101F01DFA044626
:10090000012001F07BF8B8B9306801F065F850B902
:10091000012001F073F808B9204670BD154801F0B8
:10092000E3FD204670BD144801F0DEFD012001F01A
:1009300065F80028F0D0F1E70E4801F0D5FD3068E9
:1009400001F04AF80028E3D0EDE70C4801F0CCFDB7
:10095000D0E70B4801F0C8FD002001F04FF8002857
:10096000C8D0F2E7074C204670BD074C204670BD4A
:10097000E47A0020F0630000D863000010640000F7
:10098000C0630000200CF000250CF00028B108B571
:10099000E42100F0E7FF002008BD0148704700BFD8
:1009A000250CF00000284CD0F0B50D4689B0002988
:1009B00038D00446E42100F0D5FF01A9204600F01C
:1009C00089FD10B1204809B0F0BD204F4FF0FF3134
:1009D000386800F0E7FF80BB002001F00FF840BB53
:1009E00001A92A46204600F0C7FA0646012001F078
:1009F00005F8D0B9386800F0EFFF78B9002EE1D1E2
:100A00002046E42100F0AEFF29462046FFF760FFB4
:100A10000F4B002818BF184609B0F0BD0D4801F073
:100A200063FDEBE70C4809B0F0BD0C4801F05CFD3C
:100A3000E0E70B4801F058FDD2E70A4801F054FD09
:100A4000CAE70948704700BF110CF000E47A0020A3
:100A5000120CF000D8630000200CF000F0630000DE
:100A600010640000C0630000250CF0002DE9F04187
:100A7000002800F081801D46036A072B0F460446BC
:100A800016D055B9032B0FD1036B6BB9C0E90F55C5
:100A9000C0E9115500F13C0710252B463946204688
:100AA000BDE8F04100F0ACBA2E463046BDE8F0811A
:100AB000436B002B37D1B5F5805F39D215B9236B65
:100AC000002B35D167484FF0FF3100F06BFF002855
:100AD00040F09780002000F091FF002840F09980BE
:100AE000614B01221A60236A032B23DC002B23DADB
:100AF0005E4E5F4A1368002BFCD15B495D4A0B6078
:100B0000106840F0400000F051FE012000F076FF38
:100B100000287AD1534800F05FFF0028C5D056481E
:100B200001F0E2FCC1E7012BC8D1B5F5803FC5D388
:100B3000524EBAE7072BDBD1636A012B78D8636B7F
:100B4000012B57D8A36B012B00F28480204600F0C4
:100B5000BFF806460028CCD1A36A012B6AD033F037
:100B6000020271D0236A013B062B13D8DFE803F0A1
:100B700009440912121209004FF471063046BDE80B
:100B8000F0813F4B22681A6062685A60A2689A60DE
:100B9000E268DA603B493C4A01230B601560002D96
:100BA0003BD1226B0AB9394A1360314B1E68002EC3
:100BB000FCD1236A013B062B9BD801A252F823F0FB
:100BC000DD0B0000FD0B0000DD0B0000F30A000050
:100BD000F30A0000F30A0000DD0B0000284A2C4B4A
:100BE000126822601A6862605A68A26008331B6843
:100BF000E3607EE7274E7CE7274BC3E7264A274B77
:100C0000EEE7274801F070FC64E7264801F06CFC31
:100C100080E7254801F068FC62E7636B012B1BD07D
:100C2000224A234B176010201D6000F0C7FDBCE76F
:100C3000204E5EE7204B22691A6062695A60A26901
:100C40009A60E269DA608DE71C491D4A0B60012356
:100C5000136087E71B4E4CE71B4A1C4B1760402074
:100C60001D60E2E7F47A002010B802500100F100A4
:100C700010B9025004BA0250E46400000500F1000B
:100C800040B402507CB40250BCB4025024B50250AF
:100C900044B402500300F10060B4025064B4025046
:100CA000CC6400008C640000AC64000030BC0250D6
:100CB00034BC02500200F10000B4025038BA0250B5
:100CC00078B402500400F10028BC02502CBC025041
:100CD00038B5224B224A0121054619601368002BC2
:100CE000FCD1204A1368002BFCD11F4A1368002B4B
:100CF000FCD11E4A1368002BFCD11D4B1C68002C34
:100D0000FCD14FF0FF3000F045FD2B6A23F00403C7
:100D1000032B184B18680CBF20F0400020F0800017
:100D200000F044FD144B00221A602B6A23F00402E9
:100D3000032A18BF6C6A114A4FEA830318BF04F0F4
:100D4000010403F01C031C4314602B6A072B02D11F
:100D50000B4B01221A60002038BD00BF00B90250C1
:100D600070B4025020BD025020BC025038BD025069
:100D700038BC025004BA0250BCB40250C0B4025095
:100D80007CB40250002861D02DE9F0414C1EB4F52E
:100D9000047F27D233B32AB3CD00012B05F1FF3EE8
:100DA00030D000218C460F460E4603F1FF384C0927
:100DB00001F01F0550F824401F2D24FA05F418BF38
:100DC00004F0010421B90126B44631462746EEE776
:100DD000B34213D0A74201D10CF1010C464504D116
:100DE000624502D21A48BDE8F0813C4601318E4589
:100DF00006F10106EAD20020BDE8F08100264FF09E
:100E0000010CF3E70026B44637463446610904F086
:100E10001F0350F821101F2B21FA03F118BF01F016
:100E200001013CB15FB98C4501D0614608E0013653
:100E3000614605E0012634468C460127E6E73E463A
:100E4000B242CFD30134AC42F6D1D4E70048704768
:100E5000370CF10030B585B004460D4610480392BA
:100E60004FF0FF3100F09EFD039A68B920460095CF
:100E70000123002100F0C8FA0446094800F0ACFD47
:100E800038B9204605B030BD064801F02DFB039A65
:100E9000ECE7054801F028FB204605B030BD00BF57
:100EA000F47A00205C640000746400000B6802E0C7
:100EB000082B0B6006D8426813424FEA4303F7D071
:100EC0000020704700487047310CF10001380728B6
:100ED00005D8DFE800F00A0E0412040404060948ED
:100EE00070478B698B6000207047CB688B60002057
:100EF00070470B698B60002070474B698B60002046
:100F0000704700BF310CF10030B4DDE90234049DBC
:100F100002940024CDE9035430BC00F0E9BF00BFC7
:100F2000F0B4C900002401F1FF3C2646274606E044
:100F30009F4216D00126654519D82C461F466309E5
:100F400004F01F0150F823301F2923FA01F304F1A4
:100F5000010518BF03F00103002CE9D10126354635
:100F6000EBE701369642E6D10248F0BC704700201C
:100F7000F0BC7047360CF10010B586B005AB01240B
:100F8000CDE901240093002204AB00F0B1FF06B0CC
:100F900010BD00BF084B094A002119601368002BDF
:100FA000FCD107480749084A03604FF480604FF0BE
:100FB000FF330860136070472CB1025010B9025023
:100FC000C4B1025008BA025008B1025038B5044604
:100FD0004FF4806000F0F2FB054D06480649074AD1
:100FE00000232B6003600B682360136038BD00BFD3
:100FF000C8B102502CB1025004B1025008B10250E5
:10100000002800F0BF80F8B51D46436B0E4617461A
:101010000446002B35D0012B02D1B5F5803F33D2E9
:1010200065484FF0FF3100F0BDFC002857D100208B
:1010300000F0E4FC00284ED1604B01221A60236AC4
:10104000032B28DC002B28DA5D4A1368002BFCD127
:101050005A4A1360236A23F00403032B594B186880
:101060000CBF40F0400040F0800000F09FFB0120EA
:1010700000F0C4FC002836D14F4800F0ADFC28B980
:10108000F8BDB5F5805FCBD34F48F8BD4F4801F0B0
:101090002BFA0020F8BD072BD6D1636A012BD3D8D9
:1010A000636B012BD0D8A36B012BCDD82046FFF763
:1010B0000FFE0028C8D1A36A012B6CD033F00202C6
:1010C00063D0236A5A1E062A1BD8DFE802F0104BB1
:1010D000101A1A1A10003E4801F006FAACE73D4813
:1010E00001F002FAA3E73C4801F0FEF9C4E73B4BEC
:1010F00022681A6062685A60A2689A60E268DA60E0
:10110000236A23F00403032B31D0A36B012B4CD0B3
:10111000334A344B176020201D60636B012B2CD0A9
:10112000314A324B16601D6000F048FB244A1368B8
:10113000002BFCD1236A013B062B10D8DFE803F01B
:101140000414040F0F0F0400244A294B1268226074
:101150001A6862605A68A26008331B68E360012362
:10116000236371E7234BC3E7224A234BEEE7636B0C
:10117000012B01D01020D3E74020204A204B1660DD
:101180001D60D1E74FF4710070471E491E4A0B6085
:101190000123136095E71D4B22691A6062695A604A
:1011A000A2699A60E269DA608BE7194A194B176005
:1011B00080201D60B1E700BFF47A002010B8025013
:1011C00010B9025004BA02500500F100E4640000B6
:1011D000AC640000CC6400008C64000040B4025099
:1011E00030BD025034BD025030BC025034BC0250FD
:1011F00044B4025060B4025064B4025028BC02509F
:101200002CBC025038BA025078B4025000B40250DC
:1012100028BD02502CBD02502DE9F04700F1860A8E
:1012200004460F465046102116464FF0000800F0C5
:1012300099FB0323C4E9083804F16C0142462046B7
:101240001023FFF7DDFE04F14C0905462146484610
:10125000102200F083FB2DB906F00F0536F00F06C3
:1012600003D1A5B92846BDE8F08742463946334642
:101270002046FFF7C5FE102280462146484600F072
:101280006DFBB8F1000F16D13744002DEAD02A4685
:101290003946504600F062FB51461023002220469A
:1012A000FFF7AEFE214605461022484600F056FBE9
:1012B0002846BDE8F0874546D4E700BF2DE9F04158
:1012C00032F00F0482B002F00F0580460E461F4632
:1012D00004D16DB9284602B0BDE8F0810022009229
:1012E000224600F02DF830BB26442744002DF1D0D3
:1012F00008F186042046102100F034FB31462A46CE
:10130000204600F02BFB0095404623462146102244
:1013100000F016F8064620B10546284602B0BDE8A2
:10132000F0812A463846214600F018FB354628460B
:1013300002B0BDE8F0810546284602B0BDE8F08164
:101340002DE9F843D0F8805004460F4616469846DB
:10135000DDB9032300F14C09C0E9083505634946AE
:10136000102200F0FBFA2A46334639462046FFF7A2
:1013700047FE054610B12846BDE8F88348461022CE
:10138000214600F0EBFAD4F8805065620023022277
:1013900004F15C092262236349461022204600F0D2
:1013A000DDFA3346424639462046FFF729FE054618
:1013B0000028E0D148461022214600F0CFFAD4F8A8
:1013C0008030012BD7D1032304F14C07C4E9083541
:1013D000256339461022204600F0C0FA089B63B905
:1013E0004146334600222046FFF70AFE21460546C5
:1013F0001022384600F0B2FABDE7C3F1100108EB45
:10140000030000F0AFFAEBE7F8B5069E002E33D0EC
:1014100001292FD8012B31D81C4C074600251C4828
:1014200025600468002CFCD11A4D2C68002CFCD1DE
:10143000194D2C68002CFCD1184D2C68002CFCD1C7
:10144000174D2C68002CFCD1012B19D01548164BD8
:10145000026020201E6001290BBF144B144B154A5B
:10146000154A17601E6000F0A9F9144B186800288F
:10147000FCD1F8BD1248F8BD1248F8BD1248F8BDBD
:101480001248134B026080201E60E4E700B902504E
:1014900070B4025020BD025020BC025038BD025032
:1014A00038BC025030BD025034BD02502CBC02503A
:1014B00034BC025028BC025030BC025010B902505B
:1014C0000200F4000100F4000300F40028BD025003
:1014D0002CBD025030B5042285B00123C0F8D020C5
:1014E0000B6068460023CDE90033CDE902330C469A
:1014F00000F0FEFA0546C8B9DDE90030DDE9021268
:10150000E360003BC4E9040118BF0123A26108B1F4
:1015100043F0020309B143F004030AB143F00803A6
:10152000002228466360A26005B030BD014800F08B
:10153000DBFFE1E7FC64000038B349B31AB338B508
:1015400012F00F051BD1046A24F00404032C01D00F
:1015500003B31D4613462A46FFF752FD58B1A0F5C6
:101560007100052818D8052816D8DFE800F0050313
:101570000A0303080A4838BD4FF4700038BD094813
:1015800038BD094838BD074870474FF470007047B0
:1015900006487047064838BD4FF4750038BD00BF97
:1015A0000200F0000A00F0000600F0000800F00061
:1015B0000900F000F8B5079F48B30E460546002A1B
:1015C00035D0994239D8002F41D02B6A23F004013D
:1015D000032906991FD0002932D03968B14233D38C
:1015E000300703D0012B1CD8EB6A23B311463346D6
:1015F000069A2846FFF73AFA044660B3A0F571044C
:10160000052C37D8DFE804F00310251010174FF42D
:1016100070042046F8BDA9B139680F2914D93107E3
:10162000E4D0032BE2D1DFE7144C2046F8BD0029BB
:10163000C9D0134CEDE7134CEBE7134C2046F8BD33
:10164000002ED3D0114CE4E7114C2046F8BD114CCC
:10165000DFE7114CDDE72B6A23F00403032B01D0F5
:101660003E60D6E706982946102200F077F910234D
:101670003B60CEE74FF47504CBE700BF0200F000FB
:101680000800F0000A00F0000C00F0000900F00073
:101690000D00F0001100F0000600F00078B3032AFE
:1016A00070B50E461546044601D9052A1CD1012EF7
:1016B00018D8ABB9022D19D0052D17D04C212046D2
:1016C00000F050F9052D88BF4FF0FF3213D90020EC
:1016D0000123C4E90826C4E90B00C4E90D3370BD39
:1016E000094870BD094870BD094870BD56B94C2104
:1016F000204600F037F9074B53F82520E7E74FF471
:1017000070007047044870BD0E00F0000600F00045
:101710000200F000446400001200F00070B108B54F
:10172000036A013B022B05D831B1102200F016F9F3
:10173000002008BD034808BD034808BD4FF47000F1
:10174000704700BF0200F0000100F000C8B110B502
:101750000C4682B18CB9082B0DD15368102B0ED1D9
:10176000136843B101238362D2E90012103000F004
:10177000F5F8204610BD044810BD044810BD0448CB
:1017800010BD4FF4700070470400F0000500F00039
:101790000300F000014B1860704700BF08BA025008
:1017A000014B002018607047D43A0020014B1860AC
:1017B000704700BF04BA02500020704710B50446BD
:1017C00082B0C0B1124A134BC14311601B68019330
:1017D000019B18420AD1104A20BFBFF35B8F1368E8
:1017E000BFF35B8F0193019B2342F5D00B4B1C6031
:1017F000019802B010BD0A4800F076FE044A054B7D
:101800004FF0FF3111601B680193019BE3E700BFBC
:1018100004BA025000BA0250D43A002008BA02506A
:101820002C65000008B5FFF7C7FFBDE8084000F0D1
:1018300033B900BF10B500F033F8A0B9FFF7B0FF1F
:1018400020B1032400F028F9204610BD00F0D6F89E
:10185000034680B90D4A1268120EF02A06D00524FC
:10186000FFF7AAFFEEE70424204610BD0849094A05
:101870000968914201D00624F2E7074A012013606B
:1018800000F0BCF804460028DED0E8E728B9025092
:1018900024BA02500000E0200CBA0250704700BF8A
:1018A00008B5184800F062F898B9174800F05EF8DB
:1018B000B8B9164800F05AF8D8B9154B124A15486D
:1018C0001A6000F053F8C0B9134B124A1A60002096
:1018D00008BD124800F008FE0B4800F047F8002849
:1018E000E7D00F4800F000FE084800F03FF800285D
:1018F000E3D00C4800F0F8FDDFE70B4800F0F4FD02
:10190000E2E700BFF47A0020E87A0020F07A0020B5
:10191000E47A0020EC7A0020E07A00205C65000088
:1019200078650000B465000094650000A2B1013A3A
:1019300030B401398518421E002012F8013F11F819
:10194000014F954283EA040340EA0300F5D10038D1
:1019500018BF012030BC704710467047FEF7F0BC3E
:10196000FEF718BD0A460021FEF714BD10B5044667
:1019700010B10020206010BD024800F0B5FD00202D
:10198000206010BDD465000010B5044610B10020E1
:10199000206010BD024800F0A7FD0020206010BDAF
:1019A000D465000010B5044680B10123BFF35B8FFE
:1019B00054E8002F44E800310029F9D1BFF35B8FD0
:1019C000012AF3D0BFF35F8F002010BD014800F063
:1019D0008BFDEAE7F865000010B5044620B1BFF3BF
:1019E0005F8F0020206010BD034800F07DFDBFF335
:1019F0005F8F0020206010BD1866000038B54FF0E2
:101A0000FF3104461E48FFF7CDFF08BB1D4A54B105
:101A10001368C3B1012B1CD0013B1360BDE83840F3
:101A20001748FFF7D9BF106858B9174C174B18491A
:101A30000125C4F800554FF480645C600B68002BEE
:101A4000FCD101301060BDE838400D48FFF7C4BF3D
:101A500038BD0F490B68002BFCD10B480B49C0F86F
:101A600000354FF48063C1F88430BFF34F8FBFF36C
:101A70006F8F084B6FF07E4119601368CCE700BF91
:101A8000F07A0020D83A002000A0025000E100E0E7
:101A900010B9025004BA025008B5FFF7FFFE0F4814
:101AA000FFF772FF04210D48FFF75CFF0C48FFF7BA
:101AB0006BFF0B480421FFF755FF0A48FFF764FF4F
:101AC00040B90948FFF760FFBDE808400648042117
:101AD000FFF748BF054800F007FDF2E7F47A002061
:101AE000E87A0020F07A0020EC7A0020B46500004B
:101AF00000234FF4FA714FF47A72C0E9002281603A
:101B0000C3601846704700BF2DE9F04F864C8046F1
:101B10009E460F4694460FCCB7B00DF11C0A5546B1
:101B20000FC594E80F0004F1100685E80F000FCEF2
:101B30000FAD0FC596E80F00303485E80F000FCCCD
:101B400017AD0FC50FCC0FC594E80F00D8F8D040E3
:101B5000CDF80CE0042C85E80F0001D0082C6BD1E7
:101B6000409A231DB2EB830F4FEA830B03D06F48DB
:101B700037B0BDE8F08F07EB0C019CFA8CF30CF149
:101B800018060CF109003B609BFA8BF5802326F0C8
:101B90000F06321A7D6038440B720021FFF7E0FE19
:101BA000409B1B09ABF1100B00F0BB80042C47D00D
:101BB000DDF80C90CDF808B04B4617ADB1464FF0AC
:101BC000000823ACBB461E4624E0029FCDF814A0BB
:101BD0000697FFF7BBFD03462946204610353BBB61
:101BE000FFF79CFD84464FF0100E4B465A4649467F
:101BF0002046BCF1000F1BD10DEB0E07CDE90067AD
:101C0000CDF810E0FFF7D6FC103688B9409BB8EB52
:101C1000131F58D20023194602222046FFF73EFD2B
:101C2000014608F10108082305AA20460029CCD066
:101C30003F4837B0BDE8F08F3E4837B0BDE8F08F81
:101C4000DDF80C90CDF808B033460FAD4E464FF09E
:101C5000000823ACBB46994626E0029FCDF814A0AD
:101C60000697FFF773FD0346294620461035002BE3
:101C7000DED1FFF753FD84464FF0100E4B465A4617
:101C800049462046BCF1000FD2D10DEB0E07CDE93D
:101C90000067CDF810E0FFF78DFC10360028C7D1A3
:101CA000409BB8EB131F0ED2002319460222204698
:101CB000FFF7F4FC014608F10108082305AA2046B5
:101CC0000029CAD0B4E7DDF808B0039D0023194607
:101CD00001222046CDE9055BFFF7E0FC0146002824
:101CE000A6D1082305AA2046FFF730FD00289FD182
:101CF00005EB0B012046FFF711FD0146002897D1A7
:101D0000409A2846FFF72CFE409B009540A9019180
:101D10002A4620461946FFF74DFC00283FF428AF1D
:101D200086E723ACD1E700BF50630000230CF0002E
:101D3000360CF000210CF0002DE9F0438FB08846FE
:101D400007A917460446FFF7C5FB054600284ED1F4
:101D5000D4F8D050042D01D0082D4ED1D4F8C43081
:101D60000C2B62D8B8F1000F45D02E1D760106AAC3
:101D700004ABCDE90032029707A905AB002220464B
:101D80000596FFF7C1F800283CD1069B0498D4F8CB
:101D9000C42023F00303083304F18409184492009B
:101DA0004946FFF7DBFDD4F8C400069A04992B1DC1
:101DB0009E0002EB800200964B4620460692FFF7FB
:101DC000A3FE054650B9B8F1010F33D003462246B1
:101DD0004946204600F050F8B0B105462046E421BF
:101DE000FFF7C0FD38464FF4BF51FFF7BBFD284653
:101DF0000FB0BDE8F0836E01B9E71B4D28460FB068
:101E0000BDE8F083194DE9E7D4F8D430012243F05E
:101E10000103C4F8D430C4F8CC2000234846C4F8E9
:101E2000C4304021FFF79EFDDCE7114D28460FB07E
:101E3000BDE8F08331462046FFF794FD2B4622464D
:101E40004946204600F018F80028C6D1D4F8D4300E
:101E5000084AC4F8CC8023F4803343F00103C4F86B
:101E6000D430C4F8DC20D8E7210CF000260CF000B8
:101E7000040CF000CDAB2301F0B5054699B01F4628
:101E800000230E46144605A819460322D5F8D05063
:101E9000FFF704FC38BB0146AD00082303AA05A8E0
:101EA000CDE90345FFF752FCE8B9611905A8FFF732
:101EB00035FCC0B937B923461022314605A8FFF7D3
:101EC0003BFB80B905F1100302A90191009419466A
:101ED000324605A80293FFF76DFB044B002818BF9C
:101EE000184619B0F0BD014819B0F0BD360CF0002D
:101EF0002DE9F04F89B01D46149BDDF84CA0044637
:101F00000E4617464BB94FF08053D3F8002C0132E0
:101F100000F0A980D3F800BC08E04FF08053D3F85C
:101F20000C2C013200F0A280D3F80CBC7C480AF5DE
:101F3000C1622A60129A00234FF0FF311360FFF74D
:101F400031FD002840F08680764A774B7749106053
:101F50000432196013680693069BD907FAD5714AB3
:101F6000714B002111601B680793043213680793BB
:101F7000079BDB07FAD56C4B6D4A1B680793DDF8AE
:101F80001C9013680793079BD807FAD56448FFF79E
:101F900023FD00285AD1654B994540F0B680D4F80E
:101FA000D43013F400790ED1D90512D52B68129ACA
:101FB0001B6813603BB1D4F8D4309B055BD5484611
:101FC00009B0BDE8F08FDFF87C91484609B0BDE864
:101FD000F08F002F00F08780564A574B1168B26887
:101FE0001B689A4245D10A2943D194F8DB30059306
:101FF0000AF5C26A042500274FF0805804A8FEF7AE
:10200000E5FF0498820602D510F01A0039D0D4F802
:10201000D810059A0B0A03F47F030B4323F07F4388
:10202000082AC4F8D83077D0149B4FEA420CCDE987
:102030000073002205AB31462046CDF814C000F0F5
:1020400089F800285FD1013DD8D1B4E73B4800F0C2
:102050004BFAA0E73A48DFF8F09000F045FA48461E
:1020600009B0BDE8F08F4FF0900B5FE74FF4047BB1
:102070005CE7DFF8D890FEF78DFF484609B0BDE871
:10208000F08F129B5246C3F800B05946FEF7E2FEAD
:10209000002838D1D8F8043C129A013318BFD8F878
:1020A000043C116808BF51230293D8F8083C01335F
:1020B0002ED0D8F8083C03934B1EB3F5047F0FD203
:1020C000029A02915046FEF72BFF48B90299039AF3
:1020D0004FF480635046FEF755FE00283FF46BAF87
:1020E000129B1F6093E723F00F03C4F8D430149BB6
:1020F0000122CDE90093314605AB204600F02AF8D5
:1021000000283FF475AF814655E7DFF83C9056E76D
:1021100040F237330393CFE7DFF834904BE700BF4B
:10212000F47A002004BF025000BF025012FA12FAE3
:1021300008BF025038B1025030B102505066000062
:1021400038660000330CF000350CF000300CF10064
:10215000320CF100002877D0F8B50C46002971D078
:102160001D46002B6ED0064622B1012200232A60B4
:10217000C0F8D8302B68002B62D029462046FEF7E5
:1021800095FE00285BD128682146FEF79FFE0028B7
:1021900055D1364B3649374A01271F609C460F60A0
:1021A000CCF80070A368136011688B42F8D1324FED
:1021B0003249334A334B4FF0000CC7F800C00427B4
:1021C0000F600A2111606FF03A021A60079B012B21
:1021D0004FF080533AD0D3F8002C013243D0D3F8DB
:1021E000002C294BA3FB02321209A368274C284973
:1021F000284F03FB02F303EB4303DB039B0923603C
:10220000254B2C680C601A60069A244C3A604FF4F7
:102210008062226001224FF0FF3441F8C44C43F841
:102220000C2CD6F8D8302A6823F07F4343EA0263A7
:10223000C6F8D8302A6843EA0223C6F8D830F8BD79
:102240001748F8BD1748F8BD16487047D3F80C2C4E
:10225000013206D0D3F80C2C0B4BA3FB0232FA4010
:10226000C3E71622C1E70622BFE700BFC4B1025090
:1022700040B1025030B102502CB102500CB10250AA
:1022800038B1025000B10250ABAAAAAAD8B102508C
:10229000CCB10250D0B10250D4B1025008BA0250B1
:1022A000310CF100350CF10000F04EBA70B50B4B5B
:1022B0000646144618780D4608B900F045FA002085
:1022C00000F0FEFD22462946304600F009F804469B
:1022D000002000F005FE204670BD0000B01A00206E
:1022E00070B50E46144900EB400001EBC0051446E2
:1022F000E86A183520B101280FD0022805D113E073
:10230000284600F057FAA04201D2002411E02246EC
:102310003146284600F074FB0BE0284600F04AFAEC
:10232000A042F4D20446F2E73146284600F03BFBD7
:102330000446204670BD0000B01A00200FB408B556
:1023400004A900916A46039900F003F801B05DF812
:1023500014FB2DE9F04198B0064607A802904020F2
:102360000025CDE90305CDE9055690460C4614F845
:10237000011B002973D0252908D002A800F0F4FA27
:1023800005980028F3DA18B0BDE8F081002001219B
:102390002278232A1ED02B2A19D02D2A02D0302AA7
:1023A00008D102E040F0010001E040F00200641CAE
:1023B0000029EDD100222178A1F130030A2B0CD2A3
:1023C00002EB820201EB4202303A641CF3E740F078
:1023D0000400ECE740F00800E9E70023CFB22E2F1D
:1023E0000BD114F8011FA1F130070A2F05D203EB1E
:1023F000830301EB4303303BF3E76C290DD06829DD
:102400000BD0702954D00BDC252916D0582931D097
:1024100063290CD0642913D114E014F8011FECE7F0
:10242000732934D075291BD0782909D122E0D8F836
:102430000000011DC8F80010017802A800F094FA0D
:10244000641C9DE7D8F800100F1DC8F800700968DB
:10245000CDE900200A2202A800F0B8F9F0E733E045
:10246000D8F800100F1DC8F800700968CDE90020E9
:102470000A2208E0D8F800100F1DC8F8007009689B
:10248000CDE90020102202A800F004FAD8E7D8F81D
:102490000000011DC8F80010076817F8011B00298B
:1024A000CED002A800F060FA05980028F5DAC7E758
:1024B000D8F80000011DC8F8001001680820CDE917
:1024C000000503461022DEE7059800287FF75BAF82
:1024D000049820B1024607A93046FFF7E7FEDDE980
:1024E0000410084405904EE7024602A10020FFF7C1
:1024F00025FFFEE743433331302061626F72742061
:1025000063616C6C65643A2025730D0A000000005D
:1025100030B54FF080520023D2E94C10082906D183
:10252000CC06C4F80C31C4F81031624C2360082981
:1025300055D1614B1B68614C23605F4B1B1D1B68B1
:10254000241D23605C4B08331B68241D23605A4BF9
:102550000C331B68241D2360574B10331B68241D4C
:102560002360554B14331B68241D2360524B1833D2
:102570001B68524C203423604F4B1C331B68241DB6
:1025800023604D4B20331B68241D23604A4B2433AA
:102590001B68241D2360484B28331B68241D2360BF
:1025A000454B2C331B68241D2360434B30331B6881
:1025B000424C40342360404B34331B68241D23605D
:1025C0003D4B38331B68241D23603B4B3C331B6859
:1025D000241D2360384B40331B68241D23600829C9
:1025E00004D1030002D1374C354B2360082904D1B4
:1025F000030002D1344CFB232360082908D10300D7
:1026000006D1324B92F858521C6865F303041C60E3
:10261000082904D1030002D12D4C8B012360082925
:1026200006D12C480168C90702D06FF00101016092
:102630002948016841F470010160BFF34F8FBFF377
:102640006F8FD2E94C104FF01022082906D10328D1
:1026500004D9D2F80802174920310860D2F80002E4
:10266000002803DBD2F8040200281FDA012002F060
:10267000A9F81221C2F8001218480368002BFCD0F8
:10268000C2F8041201680029FCD0002002F09AF878
:10269000BFF34F8F10487C380168114A01F4E061A4
:1026A00011430160BFF34F8F00BFFDE70E490D4896
:1026B000086030BD380500400404001020C500400B
:1026C000488103008C56004018F50040E40E00409D
:1026D000409602400004004088ED00E000E4014024
:1026E0000400FA050090D0039800002010B5054CB6
:1026F000206818B904A12B2000F08AFC2068BDE8EE
:10270000104000471C0000202E2E5C2E2E5C2E2E2A
:102710005C2E2E5C2E2E5C2E2E5C2E2E5C6D6F643D
:10272000756C65735C6E7266785C647269766572EE
:10273000735C7372635C7072735C6E7266785F70E8
:1027400072732E630000000010B5124C022020614D
:10275000606111A0A06104F17800E06141F69C7015
:1027600020620020A06260620BA1A164E0620D49BA
:10277000E1641021A065C4E91410E0650AA1E01D20
:10278000FDF718FE09A12046FDF714FE2020A071D8
:1027900010BD0000B01A00205465726D696E616C46
:1027A00000000000C43A00205254540053454747EB
:1027B000455200000269C1688A4203D88068401A05
:1027C000104400E0501A401E704700002DE9FC5FE5
:1027D0000E008146DDE90C47C6F10000984693469D
:1027E000824600D40846012503E000BF90FBFBF0C1
:1027F0006D1C5845FADAA84500D9454624B1002E8B
:1028000001DB780700D5641EB80702D5B8F1000FC8
:102810000FD0F8070DD164B1A5420AD22021484655
:10282000641E00F0A1F8D9F80C000028F3DABDE826
:10283000FC9FD9F80C000028F9DB002E02DA56467E
:102840002D2102E0780707D52B21484600F08CF8AF
:10285000D9F80C000028EADB07F0030002280FD1AA
:10286000B8F1000F0CD15CB1A54209D23021484625
:10287000641E00F079F8D9F80C000028F3DAD6E7E6
:10288000CDE9004743465A463146484600F002F833
:10289000CDE700002DE9F84F8246DDE90A4B01261D
:1028A000984691460D460846374602E0B0FBF9F0DF
:1028B0007F1C4845FAD2B84500D947465FEACB703D
:1028C00017D1B4B15FEA8B7002D5B8F1000F02D016
:1028D000202000900BE03020FBE75046641E00995A
:1028E00000F042F8DAF80C00002838DB0CB1A742FF
:1028F000F3D3DAF80C00002831DB00BFB8F1010F88
:1029000002D9A8F1010803E0B5FBF6F0484502D36F
:1029100006FB09F6F2E7DFF84C8000BFB5FBF6F0E6
:1029200000FB165518F80010504600F01DF8DAF8B4
:102930000C00002803DBB6FBF9F6002EEED15FEAAF
:10294000CB700CD0002C0AD0A74208D220215046D0
:10295000641E00F009F8DAF80C000028F2DABDE88D
:10296000F88F00009461000010B50446D4E90130EE
:10297000421C934205D323681954A260E068401CAE
:10298000E060D4E90102824209D121682069FFF7A1
:102990008DFCA168884203D04FF0FF30E06010BD8D
:1029A0000020A06010BD2DE9F047C4681746894695
:1029B00006464FF000083069A04201D9051B02E02D
:1029C000B168201A0D1AB0686D1E001BA84200D80D
:1029D0000546BD4200D33D4670682A46204449461C
:1029E000FDF7AEFCB0687F1B2C44A844A944A0426C
:1029F00000D10024F460002FDDD14046BDE8F0870F
:102A00002DE9F04104468846D4E90207C51BE16878
:102A1000606816460844B54206D94146FDF790FC69
:102A2000B819E060BDE8F0812A464146FDF788FC10
:102A3000761B08EB050132466068FDF781FCE66015
:102A4000F0E702E008C8121F08C1002AFAD1704757
:102A50007047002001E001C1121F002AFBD170471E
:102A600030B5D9B0402109A8FEF77CFF402119A854
:102A7000FEF778FF402129A8FEF774FF402139A80E
:102A8000FEF770FF402149A8FEF76CFF2E4C002591
:102A900004F5D67109A8D4F8EC21FEF75FFF04F520
:102AA000B47129A8D4F8A821FEF758FF04F5927153
:102AB00049A8D4F86421FEF751FF224623A1002043
:102AC000FFF73CFC94F8F40219AA06AB059239A969
:102AD00083E8230001AD09AA29A8D4F8EC31D4F881
:102AE000A81185E80F0094F86401009004F5807146
:102AF00049AB0020D4F82021FDF778FC050005D073
:102B0000024618A10020FFF719FC19E004F5F8713E
:102B100019A8D4F8EC21FEF709FF050001D019A18E
:102B20000BE004F51D7139A8D4F8F422FEF7FEFE7F
:102B3000050001D01DA100E026A10020FFF7FEFB4B
:102B400059B0284630BD0000585E0000205465731F
:102B50007420506172616D6574657273203A20252E
:102B600073200A0020435259535F41455343434D5C
:102B7000206661696C656420776974682030782507
:102B800078200A006F7574707574207465787420ED
:102B9000627566666572206F66207468652074656C
:102BA0007374206661696C65640000006F757470F1
:102BB0007574206D616320627566666572206F664C
:102BC000207468652074657374206661696C65643F
:102BD00000000000506173736564200A000000006B
:102BE0002DE9F04FADF5197D0020DFF87CA10DF542
:102BF000847881464FF4807B959000265C46594648
:102C000002A8FEF7AFFE214642A8FEF7ABFE06EB98
:102C1000460000EB86110AEB011404F22111B4F80E
:102C2000222402A8FEF79AFE224650A10020FFF7B8
:102C300085FBB9F1010F10D052A10020FFF77EFBF8
:102C4000002382A8D4F82424D4F82814FEF726FD03
:102C5000050006D0024653A15FE00DF108085BA114
:102C6000EBE7D4F82404012803D0032801D002287C
:102C700009D104F2111182A8FEF750FD050002D01F
:102C8000024659A149E004F58070969094F810012D
:102C90009790082396AA002182A8FEF757FD050009
:102CA00018D002465AA138E002A800EB051108EB43
:102CB0000513102282A8FEF73FFC070009D0024648
:102CC0005DA10020FFF73AFB38460DF5197DBDE800
:102CD000F08F6D1CB4F822144FF0FF3000EB111090
:102CE000A842E1D888B2694200EB01119591D4F86D
:102CF0002404042816D0052814D095AA08EB051042
:102D0000CDE9000202A800EB05120B4682A8FEF7EF
:102D100051FC05000AD0024651A10020FFF70EFB2E
:102D20002846D2E795A8CDE90080EBE704F22131EF
:102D30004046D4F82C24FEF7F9FD040004D053A13A
:102D40000020FFF7FBFA0DE059A10020FFF7F6FA8B
:102D5000761C042EFFF452AF09F10109B9F1010FFD
:102D60007FF64BAF2046B0E7984D000020546573C6
:102D70007420506172616D6574657273203A20250C
:102D800073200A00204E6F6E2D496E706C61636572
:102D900020627566666572206F70657261696F6E1C
:102DA000200A0000435259535F4145535F496E6901
:102DB00074206661696C6564207769746820657247
:102DC000726F7220307825780A00000020496E70FA
:102DD0006C61636520627566666572206F706572EE
:102DE00061696F6E200A0000536153695F4165732A
:102DF0005365744976206661696C656420776974EF
:102E000068206572726F7220307825780A000000A1
:102E1000536153695F4165735365744B65792066EF
:102E200061696C65642077697468206572726F727D
:102E300020307825780A0000435259535F414553AA
:102E40005F426C6F636B20206661696C65642077FC
:102E5000697468206572726F7220307825780A0074
:102E6000435259535F4145535F46696E6973682009
:102E7000206661696C656420776974682065727288
:102E80006F7220307825780A000000006F7574702A
:102E9000757420627566666572206F662074686559
:102EA0002074657374206661696C65640A000000B3
:102EB00020506173736564200A000000FEE7000083
:102EC00010B501F0F5FC012803D004491D2000F0E5
:102ED0009FF8BDE8104000F013B800002C6200001D
:102EE00010B501F0E5FC012803D004492B2000F0C7
:102EF0008FF8BDE8104000F00BB800002C62000015
:102F000072B602480168491C016070472400002025
:102F100003490868401E086000D162B6704700008F
:102F20002400002070B5054608680C46411C04D0FA
:102F300000F0F8FE206800F05DFE6068411C02D0E1
:102F4000002100F045FE2968A069C1F82405607DD4
:102F5000227D29681043C1F86C05D4E90012286865
:102F6000C0F81425C0F80C15207D012814D1A068E4
:102F7000411C02D0002100F02BFEE068411C04D06F
:102F800000F0D0FEE06800F035FED4E902122868B7
:102F9000C0F80825C0F8101570BD70B50546086862
:102FA0000C46411C04D000F0C7FE206800F02CFE47
:102FB0006068411C02D0002100F013FE2968A0695E
:102FC000C1F82405607D217D2A680843C2F86C059C
:102FD000D4E900122868C0F80C15C0F81425207D2B
:102FE000012814D1A068411C02D0002100F0F9FD95
:102FF000E068411C04D000F09FFEE06800F004FE91
:10300000D4E902122868C0F80825C0F8101570BD70
:103010001CB56A46CDE90001002144F20200FFF729
:103020004DFF1CBD70B50D4604460A2902D10D2185
:10303000FFF7F8FFA0682268411CA1601554D4E98D
:103040000101814204D32046BDE8704000F024BC59
:1030500070BD00002DE9FC5F0E008346DDE90C47E2
:10306000C6F1000098469246814600D408460125E4
:1030700003E000BF90FBFAF06D1C5045FADAA8455A
:1030800000D9454624B1002E01DB780700D5641E27
:10309000B80702D5B8F1000F0AD0F80708D13CB143
:1030A000A54205D220215846641EFFF7BBFFF6E774
:1030B000002E02DA4E462D2102E0780703D52B219F
:1030C0005846FFF7AFFF07F0030002280BD1B8F115
:1030D000000F08D13CB1A54205D230215846641EEC
:1030E000FFF7A0FFF6E7CDE90047434652463146D9
:1030F000584601F0F7FDBDE8FC9F000002A100204A
:10310000FFF71CF930BFFDE73D3D3D3D3D3D3D3DF9
:103110003D3D3D3D3D3D3D3D3D3D3D3D20544553C7
:103120005420454E44203D3D3D3D3D3D3D3D3D3DD2
:103130003D3D3D3D3D3D3D3D3D3D0D0A0000000016
:1031400010B50848064900244160E4310160FFF7EA
:10315000ABF805A10020FFF7F1F8204610BD0000F4
:103160009C000020000000203D3D3D3D3D3D3D3D9B
:103170003D3D3D3D3D3D3D3D3D3D3D3D2054455367
:1031800054205354415254203D3D3D3D3D3D3D3D35
:103190003D3D3D3D3D3D3D3D3D3D3D3D0D0A00003C
:1031A00070B50E46054600684FF48E7100F09BFF27
:1031B0004FF4A271286800F096FF28681549C0F8FE
:1031C00004132868082E40F3073403D312A14520C6
:1031D000FFF71EFF7007000E002C04DB04F1E02453
:1031E00084F8000405E004F00F0101F1E02181F80A
:1031F000140D286840F30730002809DB00F01F0297
:10320000012191404009800000F1E020C0F8001148
:1032100070BD0000800002002E2E5C2E2E5C2E2E33
:103220005C2E2E5C2E2E5C2E2E5C2E2E5C696E7417
:103230006567726174696F6E5C6E7266785C6E72DF
:1032400066785F676C75652E6800000070B50E4685
:10325000044600684FF4887100F056FF4FF49071F7
:10326000206800F051FF4FF49271206800F04CFF8D
:103270004FF4A271206800F047FF4FF4AC71206852
:1032800000F042FF20681549C0F804132068082E9A
:1032900040F3073503D312A14520FFF7B9FE7007AD
:1032A000000E002D04DB05F1E02585F8000405E0A3
:1032B00005F00F0101F1E02181F8140D206840F3C1
:1032C0000730002809DB00F01F020121914040096E
:1032D000800000F1E020C0F8001170BD1003420032
:1032E0002E2E5C2E2E5C2E2E5C2E2E5C2E2E5C2E18
:1032F0002E5C2E2E5C696E746567726174696F6EE8
:103300005C6E7266785C6E7266785F676C75652E4F
:103310006800000070B5FFF713FF040004D01FA180
:103320000020FFF70BF836E024A10020FFF706F895
:10333000FEF780FA040002D002462CA126E03448B1
:10334000344D01682868FDF72DFB040002D00246C9
:1033500031A11BE0FFF744FC020001D037A104E0DB
:10336000FFF77EFB020004D03CA10020FEF7E6FF41
:1033700003E043A10020FEF7E1FFFEF753FA2868BF
:10338000FDF704FB040004D0024642A10020FEF732
:10339000D5FFFFF7B3FE204670BD0000696E74656F
:1033A00067726174696F6E5F74657374735F736560
:1033B000747570206661696C65640A002A2A2A2A7D
:1033C0002A2A2A2A2A2A2A2A2A2A2A2A4D41494EE0
:1033D0002A2A2A2A2A2A2A2A2A2A2A2A2A2A2A2A4D
:1033E0002A2A2A2A2A2A2A0A000000004661696C31
:1033F000656420536153695F4C6962496E6974204A
:103400002D20726574203D20307825780A00000058
:1034100000000020040000204661696C65642043C0
:103420005259535F526E64496E6974202D20726543
:1034300074203D20307825780A0000004661696CD0
:1034400075726520696E2061657320746573742CD4
:10345000726574203D20307825780A004661696CD9
:1034600075726520696E206165732063636D2074D9
:103470006573742C726574203D20307825780A00BD
:10348000416C6C2074657374732070617373656430
:10349000200A00004661696C75726520696E2043E0
:1034A0005259535F524E445F556E496E7374616E4C
:1034B00074696174696F6E2C726574203D20307878
:1034C00025780A002DE9F05F1E46DDF828B0914608
:1034D0008A46040003D124A19020FFF799FDB4F897
:1034E0000680607908FB00F8A8F10408464503D37C
:1034F0001DA19E20FFF78CFDE788301DB0FBF7F182
:10350000B0FBF7F207FB1200D9F80050AA194245A8
:1035100001D9A8EB0605C9F8005001E02468491E4E
:103520000029FBD13E1A8846AE4215D817E000BFED
:103530002044001D0AEB0803BBF1000F324602D005
:103540000146184600E01946FCF7FAFE0020246800
:10355000AD1BB044AF4201D92E4600E03E46002DDF
:10356000E6D1BDE8F09F00002E2E5C2E2E5C2E2EA4
:103570005C2E2E5C2E2E5C2E2E5C2E2E5C636F6DD0
:10358000706F6E656E74735C6C696272617269658E
:10359000735C6D656D6F626A5C6E72665F6D656DA2
:1035A0006F626A2E6300000030B5024651B100F030
:1035B000C5FC0021074C08E034F821301568AB4207
:1035C00002D11160002030BD491C8142F4D3052096
:1035D00030BD00000000000008B56A46FCF75BFE45
:1035E000009808BD08B56A46FCF762FE009808BD61
:1035F00070B5040003D113A1FE20FFF709FD0025DB
:103600002846FFF75DFC206862680168914214D982
:10361000491E01600D781CB91AA1C220FFF7F8FC01
:10362000208AE16805FB00152068217A0278891A52
:103630000279C9B28A4200D201710020FFF750FC22
:10364000284670BD2E2E5C2E2E5C2E2E5C2E2E5CFF
:103650002E2E5C2E2E5C2E2E5C636F6D706F6E6551
:103660006E74735C6C69627261726965735C6261CD
:103670006C6C6F635C6E72665F62616C6C6F632E04
:10368000630000002E2E5C2E2E5C2E2E5C2E2E5CF7
:103690002E2E5C2E2E5C2E2E5C636F6D706F6E6511
:1036A0006E74735C6C69627261726965735C62618D
:1036B0006C6C6F635C6E72665F62616C6C6F632EC4
:1036C0006300000070B50C46050004D110A140F263
:1036D0002110FFF79DFC24B90DA14FF49170FFF765
:1036E00097FC0020FFF7ECFB1DB91949CF20FFF72D
:1036F0008FFCE8682A68211A288AB1FBF0F110686B
:10370000431C13600170BDE870400020FFF7E8BB68
:103710002E2E5C2E2E5C2E2E5C2E2E5C2E2E5C2EE3
:103720002E5C2E2E5C636F6D706F6E656E74735CB5
:103730006C69627261726965735C62616C6C6F6303
:103740005C6E72665F62616C6C6F632E630000007A
:10375000843600002DE9F041054604781C4888B005
:103760000F4640F824200869194916460831012CF3
:1037700041F8240005D1787F18B916A15020FFF731
:1037800047FCDFF84C80797FA8F10408202208F874
:10379000041039466846FCF7D3FD0494297818F8DC
:1037A000010050B10EB11A4A00E000226946281DFE
:1037B00000F08AFE08B0BDE8F0810EB1154A00E0C5
:1037C0000022694605F10C0000F024FDF2E700003C
:1037D0000C0000202E2E5C2E2E5C2E2E5C2E2E5CDD
:1037E0002E2E5C2E2E5C2E2E5C696E7465677261C7
:1037F00074696F6E5C6E7266785C6C656761637924
:103800005C6E72665F6472765F756172742E6300BF
:10381000A14B0000E14900000FB438B5040003D10A
:1038200010A11C20FFF7F4FB606918B90DA11D2041
:10383000FFF7EEFB206818B90AA11E20FFF7E8FB8E
:10384000606818B907A11F20FFF7E2FB059900295E
:1038500005D006A800906A46204600F049F838BC1A
:103860005DF814FB2E2E5C2E2E5C2E2E5C2E2E5C14
:103870002E2E5C2E2E5C2E2E5C65787465726E6129
:103880006C5C667072696E74665C6E72665F6670A0
:1038900072696E74662E630010B5040003D107A12F
:1038A0000B20FFF7B5FBA268002A05D0D4E904037A
:1038B000216898470020A06010BD00002E2E5C2ECD
:1038C0002E5C2E2E5C2E2E5C2E2E5C2E2E5C2E2E32
:1038D0005C65787465726E616C5C667072696E743A
:1038E000665C6E72665F667072696E74662E6300E7
:1038F0002DE9FC4791460C465FEA000804D183A1FC
:1039000040F25220FFF784FBD8F8140020B97FA1C1
:103910004FF41570FFF77CFBD8F8000020B97BA1AD
:1039200040F25520FFF774FBD8F8040020B977A1C6
:1039300040F25620FFF76CFB002C76D014F8011BE8
:1039400039B125290ED04046FFF76CFB20780028BE
:10395000F4D198F80C00002867D04046BDE8FC4739
:10396000FFF79ABF0020012221782B291BD02D2997
:1039700002D0302908D102E040F0010001E040F01F
:103980000200641C002AEFD100252A290ED02178DC
:10399000A1F130020A2A11D205EB850201EB4205A2
:1039A000641C303DF1E740F00400EAE7D9F800106C
:1039B0000B1DC9F800300968641C0D4421780023F0
:1039C0002E290BD114F8011FA1F130020A2A05D2C9
:1039D00003EB830201EB4203303BF3E76C290DD08C
:1039E00068290BD0692921D00BDC252918D058294A
:1039F00031D063290ED0642915D117E014F8011FC6
:103A0000ECE7702969D0732932D075291BD0782949
:103A100009D120E0D9F80000011DC9F80010017893
:103A20004046FFF7FFFA641C90E76CE0D9F80010FD
:103A30000A1DC9F800200968CDE900500A22404655
:103A4000FFF708FBEFE7D9F800100A1DC9F80020BE
:103A500009680A2206E0D9F800100A1DC9F80020FA
:103A600009681022CDE90050404601F03BF9DAE741
:103A7000D9F8001000270A1DC9F800200E68C007F9
:103A800005D112E04046761C7F1CFFF7CBFA317857
:103A90000029F7D104E0202140466D1EFFF7C2FA4D
:103AA000BD42C0D9002DF6D1BDE74EB13046FCF77E
:103AB0007AFC074604E0202140466D1EFFF7B2FA6B
:103AC000BD4206D9002DF6D103E04046761CFFF733
:103AD000A9FA31780029F8D1A5E7D9F80000011D2D
:103AE000C9F80010056830214046FFF79BFA78219D
:103AF0004046FFF797FA08200021CDE90001034670
:103B000010222946B0E7BDE8FC8700002E2E5C2E6F
:103B10002E5C2E2E5C2E2E5C2E2E5C2E2E5C2E2EDF
:103B20005C65787465726E616C5C667072696E74E7
:103B3000665C6E72665F667072696E74665F666FF1
:103B4000726D61742E6300002DE9FF411C46DDE9B2
:103B50000A7815460E46684600F060F846EA4501C8
:103B600041EA840141EA072242EA0841009A00EB57
:103B70008200C0F80017BDE8FF812DE9FF411C4617
:103B8000DDE90A7815460E46684600F089F846EAEF
:103B9000450141EA840141EA072242EA0841009ACC
:103BA00000EB8200C0F80017BDE8FF811CB50021C2
:103BB00000910B4601220191FFF7C6FF1CBD1CB509
:103BC000002100910B4601220191FFF7D6FF1CBD99
:103BD0001CB500220B46009211460192FFF7B4FF7C
:103BE0001CBD1CB500220B46009211460192FFF746
:103BF000C4FF1CBD1CB5002100910B4601220191A0
:103C00001146FFF7A1FF1CBD1CB5002100910B461A
:103C1000012201911146FFF7B0FF1CBD10B50168EC
:103C200004464A094FF0000002D0012A05D102E003
:103C30004FF0FF3001E04FF6FF7001F01F0201214D
:103C40009140014204D108A14FF4E370FFF7E0F97D
:103C50002068202802D24FF0A04010BD00F01F00C5
:103C600020600E4810BD00002E2E5C2E2E5C2E2EE5
:103C70005C2E2E5C2E2E5C2E2E5C2E2E5C6D6F64C8
:103C8000756C65735C6E7266785C68616C2F6E72C1
:103C9000665F6770696F2E680000000000030050C7
:103CA00010B5016804464A094FF0000002D0012A0D
:103CB00005D102E04FF0FF3001E04FF6FF7001F058
:103CC0001F0201219140014204D108A14FF4E37089
:103CD000FFF79EF92068202802D24FF0A04010BDC7
:103CE00000F01F0020600E4810BD00002E2E5C2E3C
:103CF0002E5C2E2E5C2E2E5C2E2E5C2E2E5C2E2EFE
:103D00005C6D6F64756C65735C6E7266785C68611F
:103D10006C2F6E72665F6770696F2E68000000001E
:103D20000003005001B56846FFF778FF009A0121B3
:103D30009140C0F8081508BD01B56846FFF7B0FF0F
:103D4000009A01219140C0F8081508BDF0B595B062
:103D50001C4615460F4608461A9E00F07BF91821AE
:103D600009A8FCF715FB0E96CDE90954002308229B
:103D700003A9384600F082F905980690BDF81000B6
:103D8000ADF81C00BDF81200ADF81E0000208DF843
:103D900021000398082600F00300012802D0022821
:103DA00018D032E003983346850AC0F3C2008DF87C
:103DB000200003980FA9C0F38314A200384600F036
:103DC0005DF909A8009006AB22460FA9284600F02D
:103DD000CDF81AE00398840DC0F3C2008DF82000DE
:103DE000082C01D2254600E0082533462A460FA9B3
:103DF000384600F043F92E44641B09AB06AA294655
:103E00000FA800F043F8002CEAD1384600F026F95C
:103E100015B0F0BD70470000084810B50178084A99
:103E2000515C19B1001D00F049FC02E00C3000F0BB
:103E3000E3FABDE81040002000F0F0BD2C000020A7
:103E40000800002008B5034A00924023024AFFF709
:103E50007DFF08BD45490000B01900200A4A01292C
:103E600002EBC00007D0022907D0032907D004299C
:103E700007D0002070470220704704207047007967
:103E80007047407970470000986600002DE9F047C0
:103E90000E4680461C469246082940D894F80C905D
:103EA000002020731946104600F0B6FC0025B542EC
:103EB00006D218F805201BA12046FFF7ADFC03E051
:103EC0001AA12046FFF7A8FC6D1C082DEFD318A1FE
:103ED0002046FFF7A1FC0025B54212D218F8057064
:103EE0007E2F08D8FCF728FA0068C05D10F03E0F5E
:103EF00001D03A4600E02E220EA12046FFF78CFCAE
:103F000003E00DA12046FFF787FC6D1C082DE3D3CD
:103F100001222146504600F061FC84F80C90BDE877
:103F2000F08700002025303278000000202020009B
:103F30007C000000256300002000000002480349C7
:103F4000401AC00870470000B8660000986600007C
:103F500013B56846FFF728FB08B100201CBD0248D6
:103F6000009950F831001CBD986600002DE9FF470C
:103F700081460C9D00200C462F7B287398461646E0
:103F80002946184600F048FC072E42D2DFE806F02A
:103F900004090F161F2A360049462846FFF73CFC45
:103FA00037E0494628462268FFF736FC31E0D4E97D
:103FB000002349462846FFF72FFC2AE0A06800901E
:103FC000D4E9002349462846FFF726FC21E0D4E93E
:103FD0000201CDE90001D4E9002349462846FFF754
:103FE0001BFC16E004F1080007C88DE80700D4E9BF
:103FF000002349462846FFF70FFC0AE004F10800B9
:104000000FC88DE80F00D4E9002349462846FFF782
:1040100003FC00222946404600F0E0FB2F73BDE878
:10402000FF872DE9F041457901466B1E002201E032
:104030000968521C9A42FBD30F680146002605E02E
:1040400038460C68FFF73EFB2146761CAE42F7D39C
:10405000BDE8F0810121001DFFF7BEBA10B504468E
:104060000121001DFFF7BEFA10F0FF0F04D120461A
:10407000BDE81040FFF7D5BF10BD00001CB51446C9
:104080000122CDE9002401AAFFF71CFA0198A04201
:1040900003D002A1DA20FEF7BBFF1CBD2E2E5C2E42
:1040A0002E5C2E2E5C2E2E5C2E2E5C2E2E5C2E2E4A
:1040B0005C636F6D706F6E656E74735C6C69627259
:1040C00061726965735C6D656D6F626A5C6E726664
:1040D0005F6D656D6F626A2E6300000040580028B6
:1040E00000D00120704708B500224250405800908F
:1040F00008BDD0F80403084000D0012070474058A4
:10410000002800D00120704708B5002242504058D6
:10411000009008BD0121B1EB507F01D10120704713
:104120000020704770B50D46040003D10DA1512049
:10413000FEF76EFF204600F0C9FB04000FD0002000
:10414000FEF7BEFE207920B10020FEF7C9FE112047
:1041500070BD0120256020710020FEF7C1FE002007
:1041600070BD00002E2E5C2E2E5C2E2E5C2E2E5C42
:104170002E2E5C2E2E5C2E2E5C6D6F64756C65731E
:104180005C6E7266785C647269766572735C737279
:10419000635C7072735C6E7266785F7072732E63AC
:1041A0000000000010B5040003D106A17520FEF741
:1041B0002FFF204600F08AFB002802D0002101607A
:1041C000017110BD2E2E5C2E2E5C2E2E5C2E2E5CD0
:1041D0002E2E5C2E2E5C2E2E5C6D6F64756C6573BE
:1041E0005C6E7266785C647269766572735C737219
:1041F000635C7072735C6E7266785F7072732E634C
:10420000000000000149024800F034BC60190020A1
:10421000002000402DE9F04117460D00064603D16D
:104220001AA18420FEF7F4FE3079274A00EB400102
:1042300001EBC00102EB810494F82A1011B10820AF
:10424000BDE8F081214951F820103068FFF76AFF7E
:1042500008B11120F4E729463046FEF763FE676097
:10426000286920601FB1297F3046FEF799FF30682A
:104270000421C0F800150020A061E06184F8290045
:1042800044F8140F0121A175DAE700002E2E5C2EF0
:104290002E5C2E2E5C2E2E5C2E2E5C2E2E5C2E2E58
:1042A0005C6D6F64756C65735C6E7266785C64726D
:1042B00069766572735C7372635C6E7266785F7543
:1042C0006172742E630000006019002050610000CC
:1042D0002DE9F05F054600790F4600EB400101EB48
:1042E000C0002D49164601EB800494F82A000128ED
:1042F00003D02AA1F220FEF78BFE1FB927A1F320DD
:10430000FEF786FE1EB925A1F420FEF781FE2846A1
:1043100000F062F810B11120BDE8F09F66614FF027
:104320000009C4F82090A76084F828904FF48E7894
:104330004E4641462868FFF7D6FE28684FF0010A2E
:10434000C0F808A02146286800F020FB606800BB88
:10435000D5F800B067690EE094F8280008B10F2680
:1043600015E041465846FFF7B9FE0028F4D0214633
:10437000584600F00BFB206AB842F2D3574641463C
:104380002868FFF7ABFE0028F9D02868C760C4F89A
:1043900014903046C0E70000601900202E2E5C2EDD
:1043A0002E5C2E2E5C2E2E5C2E2E5C2E2E5C2E2E47
:1043B0005C6D6F64756C65735C6E7266785C64725C
:1043C00069766572735C7372635C6E7266785F7532
:1043D0006172742E63000000007900EB400101EB74
:1043E000C000044901EB80004069002800D0012092
:1043F00070470000601900202DE9F047044600795D
:104400004FF0000900EB400101EBC000284901EB2F
:1044100080072068C0F800957868B0B12068254909
:10442000C0F80813206840F3073000280DDB00F0C7
:104430001F02012191404009800000F1E020C0F8F6
:104440008011BFF34F8FBFF36F8F2068D0F80C251A
:10445000D0F81485D0F80865D0F810554FF0FF312A
:10446000C0F81415C0F80C152068C0F80815C0F87D
:104470001015501C02D01046FFF798FBB8F1FF3F13
:1044800002D04046FFF792FB681C02D02846FFF797
:104490008DFB701C02D03046FFF788FB2068FFF7C9
:1044A00081FE87F82A90C7F80490BDE8F0870000E5
:1044B00060190020840202000149024800F088BB14
:1044C0008C190020002000402DE9F04117460D0016
:1044D000064603D118A1A920FEF79AFD3079254A96
:1044E00000EBC00102EB810494F8201011B1082008
:1044F000BDE8F081204951F820103068FFF712FE26
:1045000008B11120F4E729463046FEF746FD676002
:10451000286920601FB1297F3046FEF797FE30687A
:104520000821C0F800150020A061E0616061012150
:1045300084F82010DCE700002E2E5C2E2E5C2E2E40
:104540005C2E2E5C2E2E5C2E2E5C2E2E5C6D6F64EF
:10455000756C65735C6E7266785C647269766572A0
:10456000735C7372635C6E7266785F75617274659A
:104570002E6300008C190020546100002DE9F047E3
:1045800004460F460079364900EBC00001EB800578
:10459000164695F82000012804D032A140F22D10D3
:1045A000FEF736FD27B92FA14FF49770FEF730FDC7
:1045B00026B92CA140F22F10FEF72AFD207910B960
:1045C000B6F5803F04D327A14FF49870FEF720FD85
:1045D0003846FFF79FFD30B1204600F061F820B16A
:1045E0001120BDE8F0871020FBE76E61AF604FF44B
:1045F00090774FF0000839462068FFF785FD4FF4AB
:10460000AC7631462068FFF77FFD2068AA686969AB
:10461000C0F84425C0F8481520684FF00109C0F8DB
:1046200008906868D0B9BA4651462068FFF767FD20
:10463000074631462068FFF762FD0743F4D010B10A
:104640004FF00F0808E02068C0F80C903146206851
:10465000FFF755FD0028F9D0002068614046C0E70B
:104660008C1900202E2E5C2E2E5C2E2E5C2E2E5CA5
:104670002E2E5C2E2E5C2E2E5C6D6F64756C657319
:104680005C6E7266785C647269766572735C737274
:10469000635C6E7266785F75617274652E6300008C
:1046A0000079054900EBC00001EB8000406900285B
:1046B00000D00120704700008C1900202DE9F04740
:1046C000064600793D4900EBC00001EB80053468E7
:1046D00068680127A8B13A49C4F80813306840F364
:1046E000073000280DDB00F01F0107FA01F1400937
:1046F000800000F1E020C0F88011BFF34F8FBFF3BE
:104700006F8FD4F8000220F02000C4F80002A869DE
:104710004FF4A27820B141462046FFF7F5FC6760D0
:104720004FF4AC7949462046FFF7EEFCE760474678
:1047300049462046FFF7E3FC0028F9D0A86928B1D4
:1047400039462046FFF7DBFC0028F1D04FF0000A85
:10475000C4F800A53068D0F80C25D0F81495D0F82E
:104760000885D0F810754FF0FF31C0F80C15C0F86F
:1047700014153068C0F80815C0F81015501C02D088
:104780001046FFF71CFAB9F1FF3F02D04846FFF789
:1047900016FA781C02D03846FFF711FAB8F1FF3F3D
:1047A00002D04046FFF70BFA2046FFF7FBFC85F8E6
:1047B00020A0C5F804A0BDE8F08700008C190020F7
:1047C0001003420003490860034801680029FCD037
:1047D0007047000004E5014000E4014010B50C46BC
:1047E000017A052908D0407A38B1084808A1026842
:1047F0002046FFF711F800E01AB106A12046FFF7A6
:104800000BF82046BDE81040FFF746B874000020C2
:10481000257300000D0A000038B5C3880D46044614
:1048200033B114A0009015A216A12846FEF7F4FF9C
:10483000217A05291CD0607A48B1A088FFF70EFBC9
:10484000164951F8202016A12846FEF7E5FFA0885A
:104850000021FFF77DFB03461049207A143951F8F7
:10486000202001B02846BDE830400EA1FEF7D4BF9D
:1048700038BD00001B5B306D000000001B5B313B4E
:1048800033316D0025734C6F67732064726F7070E5
:104890006564202825642925730D0A007400002012
:1048A000257300003C25733E2025733A200000004C
:1048B000EFF30580C005C00D01D001207047EFF374
:1048C000148040F30000401C7047000003498842F8
:1048D00001D10348704700207047000000200040CD
:1048E0001C00002070B5054688690C4600284FF46E
:1048F000847128460AD0FFF7F6FBD5F81805626ADE
:10490000E1688854606A401C606270BDFFF7EBFB91
:10491000D5F8180570BD1FB501238DF80030CDE91D
:104920000121D0E90012684690471FBD1FB5012341
:104930008DF80030CDE90121D0E90012684690479A
:104940001FBD000070B50E4C0020D2B22070201D9B
:104950000C4D0378EB5C1BB1001DFFF70FFE02E06E
:104960000C30FFF7B5FC18B1074A2D21FBF752FCBC
:104970006078002802D021780029FAD070BD0000AC
:1049800028000020080000207062000070B50C466E
:1049900005464FF48E71FFF7A6FB216AA068415CC3
:1049A000206A401C2062C5F81C1570BD1FB500228E
:1049B0008DF800200291816801914261D0E90012D6
:1049C000684690471FBD1FB500228DF80020029158
:1049D000816801914261D0E90012684690471FBD8D
:1049E0001FB50A4601788DF8001041680191017ADF
:1049F0008DF80810C0680390044850F82210083859
:104A000050F82220684690471FBD00001400002087
:104A100001490120087070472800002010B588B0B7
:104A2000044620220F496846FBF78AFC06200090C6
:104A3000C01F0190029003904FF0EB7006900CB1F4
:104A4000094A00E0002269460848FEF783FE18B1D3
:104A5000074A1D21FBF7DEFB0448001F447008B025
:104A600010BD000074610000114A00002C000020FD
:104A7000706200002DE9FF470C4605464FF40071B7
:104A8000FFF737FB01274FF40178002618B34FF4E6
:104A9000927949462846FFF721FBE0B1494628466E
:104AA000FFF721FBC5F8088394F8290000B96F606F
:104AB00002208DF80000D5F88004C5F8800403902A
:104AC000A0690290E0680190A661E661D4E9001255
:104AD0006846904728E004212846FFF70AFB18B3F0
:104AE0004FF484712846FFF7F9FAE8B121462846C9
:104AF000FFF7F8FE616AA069884215D1E06938B114
:104B0000E268616AA0612069E6616662E06008E0CF
:104B100094F8290000B96F60C5F80883A661E268BF
:104B2000616A2046FFF7F7FE4FF48E78414628462B
:104B3000FFF7D4FA80B16069216A814202D294F809
:104B4000280028B341462846FFF7CDFA606918B11E
:104B500061692046FFF72AFF4FF4A27841462846B4
:104B6000FFF7BCFA002818D041462846FFF7BBFAE9
:104B700094F8290000B12F60A06900280DD0A6612B
:104B8000E268616A04B02046BDE8F047FFF7C3BEA3
:104B900021462846FFF7FAFEDEE7BDE8FF87000062
:104BA0001FB50A4601788DF8001041680191017A1D
:104BB0008DF80810C0680390044850F82210083897
:104BC00050F82220684690471FBD000014000020C6
:104BD0002DE9FF410C464FF4927705463946FFF721
:104BE0008EFA0026B8B139462846FFF78DFA022022
:104BF0008DF80000D5F88004C5F880040390D5F83E
:104C00003C050290E0680190A661E661D4E90012DB
:104C10006846904723E04FF4887739462846FFF7E7
:104C20006EFAE0B139462846FFF76EFAD5F83C1522
:104C3000A069884213D1E06960B1E268D5F800024A
:104C400020F02000C5F80002E069A0612069E6615B
:104C5000E06001E0A661E2682046FFF767FE4FF4DE
:104C6000A27739462846FFF74AFA68B139462846FE
:104C7000FFF74AFAA06938B1A661E661D5F83C159C
:104C80002046E268FFF752FE4FF490763146284600
:104C9000FFF735FA60B131462846FFF735FA0120B3
:104CA000E860606920B1D5F84C152046FFF78BFE0F
:104CB0004FF4AC7631462846FFF721FA00280ED093
:104CC00031462846FFF720FA6069002807D0D5F85A
:104CD0004C1504B02046BDE8F041FFF774BEBDE8B6
:104CE000FF8100002DE9F05F8346DDE90A4A99461D
:104CF00090460D460846012703E000BFB0FBF8F0E0
:104D00007F1C4045FAD2B94500D94F465FEACA70C8
:104D100012D18CB15FEA8A7002D5B9F1000F01D0CF
:104D2000202607E0302605E031465846641EFEF78F
:104D300079F90CB1A742F7D35FF00106B9F1010F81
:104D400002D9A9F1010903E0B5FBF6F0404502D311
:104D500006FB08F6F2E7DFF83C9000BFB5FBF6F083
:104D600000FB165519F800105846FEF75BF9B6FB24
:104D7000F8F6002EF2D15FEACA7009D0002C07D0F5
:104D8000A74205D220215846641EFEF74BF9F5E7ED
:104D9000BDE8F09F58610000435259535F414553AD
:104DA0005F4342435F6D6F64652F4E6F6E496E7453
:104DB000656772617465642F496E706C6163652FFD
:104DC000435259535F4145535F456E637279707426
:104DD0002F435259535F4145535F4B657931323808
:104DE00042697453697A652F31366279746573004C
:104DF00000000000000000000000000000000000B3
:104E000000000000000000000000000000000000A2
:104E10000000000000000000000000000000000092
:104E20000000000000000000000000000000000082
:104E30000000000000000000000000000000000072
:104E40000000000000000000000000000000000062
:104E50000000000000000000000000000000000052
:104E60000000000000000000000000000000000042
:104E70000000000000000000000000000000000032
:104E80000000000000000000000000000000000022
:104E900000000000000000002B7E151628AED2A6F0
:104EA000ABF7158809CF4F3C10000102030405063B
:104EB0000708090A0B0C0D0E0F6BC1BEE22E409FB6
:104EC00096E93D7E117393172A0000000000000050
:104ED00000000000000000000000000000000000D2
:104EE00000000000000000000000000000000000C2
:104EF00000000000000000000000000000000000B2
:104F000000000000000000000000000000000000A1
:104F10000000000000000000000000000000000091
:104F20000000000000000000000000000000000081
:104F30000000000000000000000000000000000071
:104F40000000000000000000000000000000000061
:104F50000000000000000000000000000000000051
:104F60000000000000000000000000000000000041
:104F70000000000000000000000000000000000031
:104F80000000000000000000000000000000000021
:104F90000000000000000000000000000000000011
:104FA0000000000000000000000000000000000001
:104FB00000000000000000000000000000000000F1
:104FC00000000000000000000000000000000000E1
:104FD00000000000000000000000000000000000D1
:104FE00000000000000000000000000000000000C1
:104FF00000000000000000000000000000000000B1
:1050000000000000000000000000000000000000A0
:105010000000000000000000000000000000000090
:105020000000000000000000000000000000000080
:105030000000000000000000000000000000000070
:105040000000000000000000000000000000000060
:105050000000000000000000000000000000000050
:105060000000000000000000000000000000000040
:105070000000000000000000000000000000000030
:105080000000000000000000000000000000000020
:105090000000000000000000000000000000000010
:1050A0000000000000000000000000000000000000
:1050B0000000000000000000007649ABAC8119B28E
:1050C00046CEE98E9B12E9197D0000000000000029
:1050D00000000000000000000000000000000000D0
:1050E00000000000000000000000000000000000C0
:1050F00000000000000000000000000000000000B0
:10510000000000000000000000000000000000009F
:10511000000000000000000000000000000000008F
:10512000000000000000000000000000000000007F
:10513000000000000000000000000000000000006F
:10514000000000000000000000000000000000005F
:10515000000000000000000000000000000000004F
:10516000000000000000000000000000000000003F
:10517000000000000000000000000000000000002F
:10518000000000000000000000000000000000001F
:10519000000000000000000000000000000000000F
:1051A00000000000000000000000000000000000FF
:1051B00000000000000000000000100001000000DE
:1051C0000000000010000000435259535F41455356
:1051D0005F4543425F6D6F64652F4E6F6E496E741D
:1051E000656772617465642F496E706C6163652FC9
:1051F000435259535F4145535F44656372797074FC
:105200002F435259535F4145535F4B6579313238D3
:1052100042697453697A652F333262797465730019
:10522000000000000000000000000000000000007E
:10523000000000000000000000000000000000006E
:10524000000000000000000000000000000000005E
:10525000000000000000000000000000000000004E
:10526000000000000000000000000000000000003E
:10527000000000000000000000000000000000002E
:10528000000000000000000000000000000000001E
:10529000000000000000000000000000000000000E
:1052A00000000000000000000000000000000000FE
:1052B00000000000000000000000000000000000EE
:1052C000000000000000000043B1CD7F598ECE23C6
:1052D000881B00E3ED0306881000000000000000BA
:1052E000000000000000000000B9AFFEE298CD0F02
:1052F0004A670844A6D6CEEF87CF412B67B3AD955A
:1053000018944C521E91B824FC00000000000000CC
:10531000000000000000000000000000000000008D
:10532000000000000000000000000000000000007D
:10533000000000000000000000000000000000006D
:10534000000000000000000000000000000000005D
:10535000000000000000000000000000000000004D
:10536000000000000000000000000000000000003D
:10537000000000000000000000000000000000002D
:10538000000000000000000000000000000000001D
:10539000000000000000000000000000000000000D
:1053A00000000000000000000000000000000000FD
:1053B00000000000000000000000000000000000ED
:1053C00000000000000000000000000000000000DD
:1053D00000000000000000000000000000000000CD
:1053E00000000000000000000000000000000000BD
:1053F00000000000000000000000000000000000AD
:10540000000000000000000000000000000000009C
:10541000000000000000000000000000000000008C
:10542000000000000000000000000000000000007C
:10543000000000000000000000000000000000006C
:10544000000000000000000000000000000000005C
:10545000000000000000000000000000000000004C
:10546000000000000000000000000000000000003C
:10547000000000000000000000000000000000002C
:10548000000000000000000000000000000000001C
:10549000000000000000000000000000000000000C
:1054A00000000000000000000000000000000000FC
:1054B00000000000000000000000000000000000EC
:1054C00000000000000000000000000000000000DC
:1054D00000000000000000000000000000000000CC
:1054E00000000000000000000030C81C46A35CE47F
:1054F00011E5FBC1191A0A52EF6BC1BEE22E409FA3
:1055000096E93D7E117393172A0000000000000009
:10551000000000000000000000000000000000008B
:10552000000000000000000000000000000000007B
:10553000000000000000000000000000000000006B
:10554000000000000000000000000000000000005B
:10555000000000000000000000000000000000004B
:10556000000000000000000000000000000000003B
:10557000000000000000000000000000000000002B
:10558000000000000000000000000000000000001B
:10559000000000000000000000000000000000000B
:1055A00000000000000000000000000000000000FB
:1055B00000000000000000000000000000000000EB
:1055C00000000000000000000000000000000000DB
:1055D00000000000000000000000000000000000CB
:1055E000000000000000000000002000000000009B
:1055F0000100000020000000435259535F41455311
:105600005F4354525F6D6F64652F496E74656772B6
:10561000617465642F435259535F4145535F44653C
:1056200063727970742F435259535F4145535F4BF6
:10563000657931323842697453697A652F32313273
:105640006279746573000000000000000000000033
:10565000000000000000000000000000000000004A
:10566000000000000000000000000000000000003A
:10567000000000000000000000000000000000002A
:10568000000000000000000000000000000000001A
:10569000000000000000000000000000000000000A
:1056A00000000000000000000000000000000000FA
:1056B00000000000000000000000000000000000EA
:1056C00000000000000000000000000000000000DA
:1056D00000000000000000000000000000000000CA
:1056E00000000000000000000000000000000000BA
:1056F00000000000000000000882948FF5F0EAF13D
:10570000E9080A981E27ACEE1025C338DE08A82049
:105710009EA0977195426047BC31B574502E665675
:10572000F7B02352C29DA27DCAA6CCC87BAED1A23F
:10573000325E92A7ABA411CEBE38424E537FE0DA60
:1057400017BA194FF1E881D4051F59F1E2575DF1FD
:105750000FABB9FD7C5CFFF9C7F4A4FF406E98A6BF
:105760005F55571F928EA4F7DFF894F2C308FB7BB6
:10577000EA43711E64D1ECDCA8857CD36C8B848DEC
:10578000E4381E12208A381F194114FC4D24E355B9
:1057900043F51535549EB469729476735213FDB275
:1057A000642B1DD030DEFAE218F8FB22F9E2F94D45
:1057B0008BD755F4D8BD4E03F334C0628DE049C099
:1057C000073447736BDF8F270FA4E2A8A3902EB492
:1057D00020C05F47D865183C6A7172D74134655D57
:1057E00002276B7368D89EFA9CE3AF97C500000050
:1057F00000000000000000000000000000000000A9
:105800000000000000000000000000000000000098
:105810000000000000000000000000000000000088
:105820000000000000000000000000000000000078
:105830000000000000000000000000000000000068
:105840000000000000000000000000000000000058
:105850000000000000000000000000000000000048
:105860000000000000000000000000000000000038
:105870000000000000000000000000000000000028
:105880000000000000000000000000000000000018
:105890000000000000000000000000000000000008
:1058A00000000000000000000000000000000000F8
:1058B00000000000000000000000000000000000E8
:1058C00000000000000000000000000000000000D8
:1058D00000000000000000000000000000000000C8
:1058E00000000000000000000000000000000000B8
:1058F00000000000000000000000000000000000A8
:105900000000000000000000000000000000000097
:105910000000000000000000005AB619C3BB9E82C0
:10592000628D560DE8C398D80A11D7E1E2F42E2310
:1059300089F29602E8235BE9CBF0D132371B43466C
:10594000FE002C05901AA96814C82F64B85179126A
:105950004526C50EF668401D8AAABF1298F8AFF218
:1059600023184F566E0F1D1111E88D134DB0018D88
:105970009DC5F6568D517B8ECF11E8818C5BCCCDC9
:10598000F85F27C829ADDA1C29F75BB44A18ADDCEB
:10599000B95690A356E4F584C3ABB446BB4B812102
:1059A000A65C1D226AF9C9D1837F00105692654614
:1059B000C261FBBDF92B94498E038C2BCFD0B6343A
:1059C0005497972ED8FDD2774807E4EF1A25111483
:1059D000E06F9E6C1D2E4124579ED6F66DF25350FB
:1059E0002B99FEB21CC0DE579F186F193D000000B6
:1059F00000000000000000000000000000000000A7
:105A00000000000000000000000000000000000096
:105A100000000000000000000000D40003000000AF
:105A200001000000D4000000435259535F41455328
:105A30005F434D41435F6D6F64652F496E746567C9
:105A400072617465642F435259535F4145535F45FA
:105A50006E63727970742F435259535F4145535F9F
:105A60004B657931323842697453697A652F343025
:105A700062797465730000000000000000000000FF
:105A80000000000000000000000000000000000016
:105A90000000000000000000000000000000000006
:105AA00000000000000000000000000000000000F6
:105AB00000000000000000000000000000000000E6
:105AC00000000000000000000000000000000000D6
:105AD00000000000000000000000000000000000C6
:105AE00000000000000000000000000000000000B6
:105AF00000000000000000000000000000000000A6
:105B00000000000000000000000000000000000095
:105B10000000000000000000000000000000000085
:105B200000000000000000002B7E151628AED2A653
:105B3000ABF7158809CF4F3C1000000000000000B3
:105B40000000000000000000006BC1BEE22E409F7C
:105B500096E93D7E117393172AAE2D8A571E03AC2A
:105B60009C9EB76FAC45AF8E5130C81C46A35CE419
:105B70001100000000000000000000000000000014
:105B80000000000000000000000000000000000015
:105B90000000000000000000000000000000000005
:105BA00000000000000000000000000000000000F5
:105BB00000000000000000000000000000000000E5
:105BC00000000000000000000000000000000000D5
:105BD00000000000000000000000000000000000C5
:105BE00000000000000000000000000000000000B5
:105BF00000000000000000000000000000000000A5
:105C00000000000000000000000000000000000094
:105C10000000000000000000000000000000000084
:105C20000000000000000000000000000000000074
:105C30000000000000000000000000000000000064
:105C40000000000000000000000000000000000054
:105C50000000000000000000000000000000000044
:105C60000000000000000000000000000000000034
:105C70000000000000000000000000000000000024
:105C80000000000000000000000000000000000014
:105C90000000000000000000000000000000000004
:105CA00000000000000000000000000000000000F4
:105CB00000000000000000000000000000000000E4
:105CC00000000000000000000000000000000000D4
:105CD00000000000000000000000000000000000C4
:105CE00000000000000000000000000000000000B4
:105CF00000000000000000000000000000000000A4
:105D00000000000000000000000000000000000093
:105D10000000000000000000000000000000000083
:105D20000000000000000000000000000000000073
:105D30000000000000000000000000000000000063
:105D4000000000000000000000DFA66747DE9AE6C2
:105D50003030CA32611497C82700000000000000EC
:105D60000000000000000000000000000000000033
:105D70000000000000000000000000000000000023
:105D80000000000000000000000000000000000013
:105D90000000000000000000000000000000000003
:105DA00000000000000000000000000000000000F3
:105DB00000000000000000000000000000000000E3
:105DC00000000000000000000000000000000000D3
:105DD00000000000000000000000000000000000C3
:105DE00000000000000000000000000000000000B3
:105DF00000000000000000000000000000000000A3
:105E00000000000000000000000000000000000092
:105E10000000000000000000000000000000000082
:105E20000000000000000000000000000000000072
:105E30000000000000000000000000000000000062
:105E40000000000000000000000028000500000025
:105E5000000000001000000043434D2F496E7465A0
:105E60006772617465642F34427974654D61632F84
:105E700037427974654E6F6E63652F31364279749F
:105E80006541646174612F31364279746554657877
:105E900074446174612F3132384B65790000000021
:105EA00000000000000000000000000000000000F2
:105EB00000000000000000000000000000000000E2
:105EC00000000000000000000000000000000000D2
:105ED00000000000000000000000000000000000C2
:105EE00000000000000000000000000000000000B2
:105EF00000000000000000000000000000000000A2
:105F00000000000000000000000000000000000091
:105F10000000000000000000000000000000000081
:105F20000000000000000000000000000000000071
:105F30000000000000000000000000000000000061
:105F40000000000000000000000000000000000051
:105F50000000000000000000C6BB2D9490B965232E
:105F600098ED833F9B9D02CC0000000000000000E4
:105F700000000000000000000000000014D7F6C977
:105F80003D1F530000000000000000000000000062
:105F90000000000000000000000000000000000001
:105FA00000000000000000000000000000000000F1
:105FB00000000000000000000000000007000000DA
:105FC0000655ADA91BFC6DD28827B74A769BDBD658
:105FD00000000000000000000000000000000000C1
:105FE00000000000000000000000000000000000B1
:105FF00000000000000000000000000000000000A1
:1060000010000000F7446EB273ED03E81D2414FA8B
:10601000B87DC6CB000000000000000000000000BA
:106020000000000000000000000000000000000070
:106030000000000000000000000000000000000060
:10604000000000001000000029FC76C89289655805
:10605000E5998BBA8902C3DF000000000000000050
:106060000000000000000000000000000000000030
:106070000000000000000000000000000000000020
:106080000000000000000000000000000000000010
:106090000000000000000000000000000000000000
:1060A00000000000000000000000000000000000F0
:1060B00000000000000000000000000000000000E0
:1060C000000000000000000010000000FDAF7EF2A4
:1060D00000000000000000000000000000000000C0
:1060E00000000000000000000000000000000000B0
:1060F00000000000000000000000000000000000A0
:10610000000000000000000000000000000000008F
:10611000000000000000000000000000000000007F
:10612000000000000000000000000000000000006F
:10613000000000000000000000000000000000005F
:10614000000000000000000000000000040000004B
:1061500005420000B944000030313233343536375F
:106160003839414243444546453E0000193E00004F
:10617000153E0000FFFFFFFFFFFFFFFFFFFFFFFFD8
:10618000FFFFFFFF00000000000000000000D6013C
:106190000601000030313233343536373839414268
:1061A000434445460040404040404040404041411B
:1061B00041414140404040404040404040404040DC
:1061C0004040404040050202020202020202020276
:1061D0000202020202202020202020202020200273
:1061E0000202020202029090909090901010101003
:1061F000101010101010101010101010101010109F
:106200000202020202028888888888880808080832
:1062100008080808080808080808080808080808FE
:106220000202020240000000A56100002E2E5C2E3A
:106230002E5C2E2E5C2E2E5C2E2E5C2E2E5C2E2E98
:106240005C636F6D706F6E656E74735C6C696272A7
:1062500061726965735C7574696C5C6170705F759F
:1062600074696C5F706C6174666F726D2E63000090
:106270002E2E5C2E2E5C2E2E5C2E2E5C2E2E5C2E58
:106280002E5C2E2E5C636F6D706F6E656E74735C2A
:106290006C69627261726965735C6C6F675C737262
:1062A000635C6E72665F6C6F675F6261636B656E85
:1062B000645F756172742E63000000007761726E16
:1062C000696E670064656275670000001B5B313BA7
:1062D00033306D001B5B306D000000001B5B313BF9
:1062E00033316D001B5B313B33326D001B5B313B47
:1062F00033336D001B5B313B33346D001B5B313B33
:1063000033356D001B5B313B33366D001B5B313B1E
:1063100033376D00696E666F000000006572726F42
:1063200072000000505253005541525400000000CA
:106330005541525445000000756172745F6C6F677F
:106340005F6261636B656E640000000061707000E5
:10635000000102030405060708090A0B0C0D0E0FC5
:10636000101112131415161718191A1B1C1D1E1FB5
:10637000C6A13B37878F5B826F4F8162A1C8D879F6
:106380009503E3A2245A2BE43C9874EDFE1BED9E8A
:10639000F29000B62A499FD0A9F39A6ADD2E778041
:1063A0009DBA41A777F3B46A37B7AAAE49D6DF8D55
:1063B0002F7A3C600708D124ACD3C5DE3B65844707
:1063C0004661696C20746F20616371756972652024
:1063D0006D757465780A00004661696C20746F20E1
:1063E00072656C65617365206D757465780A00006F
:1063F0004661696C20746F206465637265617365C2
:1064000020504D20636F756E7465720A00000000A5
:106410004661696C20746F20696E63726561736593
:1064200020504D20636F756E7465720A0000000085
:106430000015F0001115F0000315F0000515F0002F
:106440000615F0000000000001000000030000003D
:1064500002000000FFFFFFFF070000004661696CBB
:1064600020746F2061637175697265206D75746544
:10647000780A00004661696C20746F2072656C6553
:10648000617365206D757465780A00004661696CFA
:1064900020746F20646563726561736520504D20C0
:1064A000636F756E7465720A000000004661696C66
:1064B00020746F20696E63726561736520504D2092
:1064C000636F756E7465720A000000004661696C46
:1064D00020746F2061637175697265206D757465D4
:1064E000780A00004661696C20746F2072656C65E3
:1064F000617365206D757465780A00004661696C8A
:1065000020746F206765742054524E472063686181
:10651000726163746572697A6174696F6E2070610B
:1065200072616D6574657273200A0000536153696E
:106530005F48616C57616974496E746572727570F9
:10654000742063616E74207761697420666F7220B5
:106550006E6F7468696E670A000000004661696CBE
:1065600020746F206372656174652053594D206DEE
:10657000757465780A0000004661696C20746F20AC
:10658000637265617465204153594D206D75746562
:10659000780A00004661696C20746F20637265613F
:1065A00074652047656E566563206D757465780A5D
:1065B000000000004661696C656420746F2063729E
:1065C0006561746520506F776572206D75746578AC
:1065D0000A00000043616E277420696E6974696166
:1065E0006C697A65206D757465782C2077617320ED
:1065F0004E554C4C0D0A000043616E2774206C6FA1
:10660000636B206D757465782C20776173204E550F
:106610004C4C0D0A0000000043616E277420756E1B
:106620006C6F636B206D757465782C2077617320B7
:106630004E554C4C0D0A00004661696C20746F2069
:1066400061637175697265206D757465780A000003
:106650004661696C20746F2072656C65617365209A
:106660006D757465780A0000CC660000000000209B
:106670009C000000422A0000686700009C00002087
:106680005C7A0000522A00006861000000000000EF
:106690003863000040000020246300000000000078
:1066A00028630000000000003063000000000000CC
:1066B0004C6300000000030350000020480000204D
:1066C00050000020F0190020180000000000000019
:1066D00000000000000000000000000000000000BA
:1066E00000000000000000000000000000000000AA
:1066F000000000000000000000000000002000403A
:106700000000000000200040000000000000000029
:10671000FF0000000000000000000000000000007A
:106720000000000000000000000000000000000069
:106730001C630000BC62000014630000C46200001F
:10674000D4620000CC620000DC620000E462000061
:10675000EC620000F4620000FC62000004630000D0
:086760000C6300000090D0035F
:0400000500000201F4
:00000001FF
