:020000040000FA
:10000000E8330020D9040000E1040000F9020000F8
:10001000E5040000E7040000E9040000000000001F
:10002000000000000000000000000000EB040000E1
:10003000ED04000000000000EF040000F1040000E7
:100040009D0F0000F304000099110000F30400006C
:10005000F3040000F3040000DD0C0000F3040000D2
:10006000F3040000F3040000F3040000F3040000B4
:10007000F3040000F3040000F3040000F3040000A4
:10008000F3040000AD0F0000F3040000F3040000CF
:10009000F3040000F3040000F3040000F304000084
:1000A000F3040000F3040000F3040000F304000074
:1000B000F3040000F3040000000000000000000052
:1000C000F3040000F3040000F3040000F304000054
:1000D000F3040000F3040000F3040000A511000085
:1000E000F3040000F3040000F3040000000000002B
:1000F00000000000F304000000000000F304000012
:1001000000000000000000000000000000000000EF
:1001100000000000000000000000000000000000DF
:1001200000000000000000000000000000000000CF
:1001300000000000000000000000000000000000BF
:1001400000000000000000000000000000000000AF
:10015000000000000000000000000000000000009F
:10016000000000000000000000000000000000008F
:10017000000000000000000000000000000000007F
:10018000000000000000000000000000000000006F
:10019000000000000000000000000000000000005F
:1001A000000000000000000000000000000000004F
:1001B000000000000000000000000000000000003F
:1001C000000000000000000000000000000000002F
:1001D000000000000000000000000000000000001F
:1001E000000000000000000000000000000000000F
:1001F00000000000000000000000000000000000FF
:10020000DFF80CD000F096FB00480047B960000012
:10021000E833002030B4044654E8000F0D4644E8AB
:100220000053002BF8D1156030BC704730B4044641
:1002300054E8000F40EA010544E80053002BF7D1D1
:10024000156030BC704730B4044654E8000F00EA33
:10025000010544E80053002BF7D1156030BC70470E
:1002600030B4044654E8000F80EA010544E8005326
:10027000002BF7D1156030BC704730B4044654E809
:10028000000F00EB010544E80053002BF7D1156087
:1002900030BC704730B4044654E8000FA0EB0105B1
:1002A00044E80053002BF7D1156030BC704770B4A0
:1002B00004464FF0000054E8006F0D68AE4207BFDF
:1002C00044E80023012044E800630E60002B1CBFBB
:1002D0000020F0E770BC704730B4044654E8000FCB
:1002E00088422CBF451A054644E80053002BF5D13F
:1002F000156030BC70470000094B1EF0040F1CBF96
:10030000EFF309801847EFF308800649064A884250
:1003100001D8904202D88D464FF0000018470000E7
:10032000810D0000E8330020E813002030B450E8CD
:10033000012F93B2C48923448489A34228BF1B1B85
:100340000489A34202BFBFF32F8F002007E0C3EA56
:10035000020340E80134002CE9D14FF001000A60AB
:1003600030BC704750E8012FC2EA024240E8012148
:100370000029F7D1704730B450E8022F1FFAA2F3DA
:10038000C488A34202BFBFF32F8F00200DE0C489B1
:1003900023448489A34228BF1B1BC2EA034340E8CD
:1003A0000234002CE8D14FF001000A6030BC7047E5
:1003B00050E8022FC2EA224240E802210029F7D188
:1003C0007047034653E8022FD988B2EB324F4FF003
:1003D000000017BF92B241EA014142EA014104E044
:1003E0005A68B2EB324F08BF012043E80212002ADC
:1003F000E8D1704730B4044654E8000F0D4644E895
:100400000053002BF8D1156030BC704730B404465F
:1004100054E8000F40EA010544E80053002BF7D1EF
:10042000156030BC704730B4044654E8000F00EA51
:10043000010544E80053002BF7D1156030BC70472C
:1004400030B4044654E8000F80EA010544E8005344
:10045000002BF7D1156030BC704730B4044654E827
:10046000000F00EB010544E80053002BF7D11560A5
:1004700030BC704730B4044654E8000FA0EB0105CF
:1004800044E80053002BF7D1156030BC704770B4BE
:1004900004464FF0000054E8006F0D68AE4207BFFD
:1004A00044E80023012044E800630E60002B1CBFD9
:1004B0000020F0E770BC704730B4044654E8000FE9
:1004C00088422CBF451A054644E80053002BF5D15D
:1004D000156030BC7047000006488047064800475A
:1004E000FEE7FEE7FEE7FEE7FEE7FEE7FEE7FEE7E4
:1004F000FEE7FEE7BD0F0000010200002DE9F05FFE
:100500000546002092469B46884606468146402482
:100510001BE0284641464746224600F0B9F95346BB
:100520005A46C01A914110D311461846224600F08F
:1005300016F82D1A67EB01084F46224601200021CC
:1005400000F00DF817EB00094E41201EA4F1010444
:10055000DFDC484631462A464346BDE8F09F202A64
:1005600004DB203A00FA02F1002070479140C2F10A
:10057000200320FA03F31943904070470048704766
:1005800080BC000010B50446FFF7F8FF0068005D6E
:1005900000F0010010BD2DE9FE439946154688463E
:1005A000074601AC022942D3002D40D00020029022
:1005B000A8F101004FF0FF36009022E000FB057229
:1005C00001FB057011464A469047002805DC54F8A7
:1005D0002600304444F8260013E060682A4600FBF9
:1005E000057154F8040C00FB057007E00B7890F8D7
:1005F00000C001F801CB00F8013B521E002AF5D1E2
:10060000764254F8040C61688842D7DC4B462A468F
:100610003846FFF7C0FF54F8040C4B46A8EB000126
:10062000401C00FB05702A46491EFFF7B4FFBDE8D9
:10063000FE8310B5431A934209D28318881803E049
:1006400010F8011D03F8011D521EF9D210BD40EA39
:1006500001039B0703D009E008C9121F08C0042A40
:10066000FAD203E011F8013B00F8013B521EF9D227
:1006700010BDD2B201E000F8012B491EFBD2704739
:100680000022F6E710B513460A4604461946FFF75E
:10069000F0FF204610BD421C10F8011B0029FBD1C1
:1006A000801A704710B5002200E0521C835C8C5CFD
:1006B000A34201D1002BF8D1D8B2E1B2401A10BD4B
:1006C00030B504460020034600E05B1C934203D291
:1006D000E05CCD5C401BF8D030BD034611F8012B27
:1006E00000F8012B002AF9D11846704730B50546AD
:1006F0000020034600E05B1C934205D2EC5CC85C22
:10070000201A01D1002CF6D130BD00000FB400B585
:100710008DB010A909900B9000914FF0FF300A9016
:1007200000200C9005480690054807906A4609A8E5
:100730000F9900F0D1F80DB05DF814FBF50800003A
:10074000130900002DE9FF5F1D464FF0FF3BD5E97F
:10075000014691465F464FF00008A9697F1C019849
:100760008847296A824688470028F6D1BAF1FF3FB8
:100770000CD024F4C064002E19DD600614D5BAF143
:100780002B0F09D0BAF12D0F0ED103E0584604B05B
:10079000BDE8F09F44F48064A9697F1C01988847F4
:1007A000761E8246002E02DDBAF1300F03D0B9F179
:1007B000000F26D032E0A969761E44F400747F1C35
:1007C000019888478246002E05DDBAF1780F06D0E1
:1007D000BAF1580F03D0B9F1000F10D01EE0B9F1F3
:1007E000000F02D0B9F1100F18D1A969761E24F4B8
:1007F00000747F1C019888478246102002E0082080
:1008000000E00A20814609E008FB0908A969761E74
:1008100044F400747F1C019888478246002E05DD51
:100820004946504600F044F80028EDDAE96901989D
:100830008847A00502D46FF00100A8E7E00725D1A2
:10084000600613D5600502D5C8F1000000E04046FF
:1008500029680A1D2A600968220501D5087015E07B
:10086000220701D5088011E008600FE02868011D0B
:1008700029600068210502D580F8008006E0210784
:1008800002D5A0F8008001E0C0F8008038467EE77D
:10089000202A04DB203A21FA02F00021704721FAD5
:1008A00002F3D040C2F1200291400843194670473C
:1008B0003A2800D2303820F02002412A01D3A2F198
:1008C0003700884201D34FF0FF307047026811446F
:1008D0001378016018467047D1600449516104499A
:1008E000116200211161114600F036B8CD080000F8
:1008F00085050000426842B1016811F8013B23B14F
:10090000521EC0E90012184670470121C160881EBE
:10091000704742685AB1C368016843B983688B4223
:1009200005D0491E521CC0E90012002070474FF04C
:10093000FF307047064C074D06E0E06840F00103C9
:1009400094E8070098471034AC42F6D3FFF75CFCFC
:100950003CCB00005CCB00002DE9F34F8BB04FF097
:10096000000801F10C000C464FF0010B46460DF15A
:10097000080A01906269012101989047051E2DD057
:10098000252D2CD0216A8847C0B1626901210198C8
:100990009047216A88470028F7D1411E6269019873
:1009A000904700E0761CA1690B988847216A884728
:1009B0000028F7D1E1690B988847DBE7A1690B981C
:1009C00088470746A84201D1761CD3E7E1690B9816
:1009D00088477F1C02D1B8F1000F6FD046E1002795
:1009E00062693D463946019890472A2804D16269D8
:1009F0000121019890470125DFF884926269012165
:100A000001989047A0F130010A290AD24F45E5DC50
:100A100007EB870100EB4107303FDFD445F01005BD
:100A2000ECE7E90601D46FF000476C280AD04C28A7
:100A300014D0682815D06A280DD074281CD07A28C4
:100A40001AD01DE062690121019890476C2802D0FC
:100A500045F0040514E045F002050DE045F02005E1
:100A60000AE06269012101989047682802D045F0A8
:100A7000080505E045F40065626901210198904789
:100A8000C4E9015765283DD019DC58287AD00CDC20
:100A9000452837D004DC252826D0412831D131E043
:100AA00046282FD047282CD12CE05B2877D061280E
:100AB00028D063287CD0642823D15AE0D0E06F2866
:100AC00048D008DC66281DD067281BD0692821D0B3
:100AD0006E2816D127E0702845D0732868D0752875
:100AE00047D078280DD14DE0A1690B98884705467D
:100AF00025283FF469AFE1690B9888476D1C3FF4E6
:100B00006AAFB3E023466A466FF001000B99AFF37A
:100B100000809EE045F040006060A80723464FF04B
:100B2000000236D43EE0E8077FF447AF2068011D9D
:100B300021600068290501D506701BE7290701D54A
:100B4000068017E7A90703D5F117C0E9006111E78F
:100B500006600FE745F040006060A80723464FF0AD
:100B6000080216D41EE040F60E0125EA010060607E
:100B700016E045F040006060A80723464FF00A02E7
:100B800007D40FE045F040006060A80708D5234671
:100B900010226FF001000B99AFF3008059E007E0DD
:100BA000234610226FF001000B99FFF7CBFD50E0B8
:100BB0004FF000094F464B46632802D05B2806D011
:100BC00040E0E80601D40120A06001273AE0626914
:100BD0000121019890475E2805D14FF00109626913
:100BE000494601989047216939B900210A46534680
:100BF00043F82120491C0829FADBB0B3216969B9FF
:100C0000C11700EBD16253110AEB830122F01F02DE
:100C1000821A01200B68904003430B606269012136
:100C2000019890475D28E8D1B9F1000F09D0002064
:100C3000514651F82020D24341F82020401C08287A
:100C4000F7DB02AB224600976FF001000B99AFF380
:100C5000008000280CDA401C08D1BBF1000F05D041
:100C60004FF0FF300DB0BDE8F08FFFE74046F9E7E9
:100C7000E90701D108F1010806444FF0000B79E6BD
:100C8000CCCCCC0C70B58C1810F8015B15F00703B8
:100C900001D110F8013B2A1106D110F8012B03E015
:100CA00010F8016B01F8016B5B1EF9D12B0705D41D
:100CB0000023521E0DD401F8013BFAE710F8013B66
:100CC000CB1A921C03E013F8015B01F8015B521E82
:100CD000F9D5A142D8D3002070BD00002DE9FC4118
:100CE0000025DFF8948000954FF4807601242F468C
:100CF0000195304606F052FD38B1D8F80403204281
:100D000003D0304606F040FD2543361D64007F1CAD
:100D1000B6B2082FEDD34FF4BE74204606F03EFD68
:100D200048B1204606F030FD45F000456A460221F4
:100D3000002006F091FC15F0FF0F16D001260024CC
:100D40002E420ED008EB8401D1F81005D1F8101511
:100D5000C0F30520094AC1F3014152F8242002B131
:100D600090477600641C082CEAD3002D02DA68460E
:100D700008F02AFFBDE8FC8100600040BC080020AC
:100D80001CB5824607F09AF806F034FE0028FBD125
:100D900036485FEA0A05076836483749344EA0EB03
:100DA00001004FEAD0004FF0010808EB00447088C2
:100DB0001ED0002821D0204630A1AA6906F058FF95
:100DC0007088002819D0D5E90201CDE90001D5E9E4
:100DD000002320462FA106F05BFF708868B1E86908
:100DE0000090D5E90423204638A106F048FF04E02E
:100DF00018B120463FA106F037FF1C48001D0068CF
:100E0000800705D5708818B12046474906F02CFFA9
:100E1000DFF81891002500BF08FA05F0384208D025
:100E200059F825202AB1708818B1204640A106F053
:100E30001FFF6D1C1A2DEFD3380608D5708830B10E
:100E40000A480C30026820463CA106F011FF380425
:100E500008D5708830B105481030026820463FA19F
:100E600006F006FF504600F087F8000028ED00E08D
:100E7000EC0300206CCC0000BCCB00004841524485
:100E8000204641554C542061742030782530385824
:100E900000000000202052303A20203078253038E1
:100EA00058202052313A20203078253038582020E0
:100EB00052323A2020307825303858202052333AA8
:100EC0002020307825303858000000002020523192
:100ED000323A2030782530385820204C523A2020A1
:100EE00030782530385820205053523A2030782519
:100EF00030385800537461636B2076696F6C61748D
:100F0000696F6E3A20737461636B20706F696E74E1
:100F10006572206F75747369646520737461636BA7
:100F200020617265612E0000A0BD000068020020F3
:100F300043617573653A2025732E00004D656D4D34
:100F4000616E616765204661756C742041646472EE
:100F50006573733A20307825303858004275732015
:100F60004661756C7420416464726573733A203015
:100F70007825303858000000BFF34F8F05480168CE
:100F8000054A01F4E06111430160BFF34F8F00BFD8
:100F9000FDE700000CED00E00400FA0510B507F0D5
:100FA000AFFDBDE8104007F037BC00000249024821
:100FB000091F0968006808476002002030B54FF03B
:100FC00080520023D2E94C10082906D1CC06C4F87F
:100FD0000C31C4F81031624C2360082955D1614BA3
:100FE0001B68614C23605F4B1B1D1B68241D236025
:100FF0005C4B08331B68241D23605A4B0C331B6861
:10100000241D2360574B10331B68241D2360554B50
:1010100014331B68241D2360524B18331B68524C39
:10102000203423604F4B1C331B68241D23604D4B21
:1010300020331B68241D23604A4B24331B68241D66
:101040002360484B28331B68241D2360454B2C33F9
:101050001B68241D2360434B30331B68424C4034D3
:101060002360404B34331B68241D23603D4B3833D1
:101070001B68241D23603B4B3C331B68241D2360ED
:10108000384B40331B68241D2360082904D103001A
:1010900002D1374C354B2360082904D1030002D11B
:1010A000344CFB232360082908D1030006D1324BBE
:1010B00092F858521C6865F303041C60082904D197
:1010C000030002D12D4C8B012360082906D12C4846
:1010D0000168C90702D06FF0010101602948016869
:1010E00041F470010160BFF34F8FBFF36F8FD2E9FE
:1010F0004C104FF01022082906D1032804D9D2F849
:101100000802174920310860D2F80002002803DBEA
:10111000D2F8040200281FDA012008F0DBFC1221BB
:10112000C2F8001218480368002BFCD0C2F8041261
:1011300001680029FCD0002008F0CCFCBFF34F8FE1
:1011400010487C380168114A01F4E06111430160E4
:10115000BFF34F8F00BFFDE70E490D48086030BD5B
:10116000380500400404001020C5004048810300F9
:101170008C56004018F50040E40E004040960240B6
:101180000004004088ED00E000E401400400FA059E
:101190000090D00370030020014800680047000061
:1011A000500100202DE9F0411A48D0F804530026E0
:1011B00001240FE095FAA5F0B0FA80F7B80000F529
:1011C000807007F099FA10B104FA07F0064304FAA8
:1011D00007F08543002DEDD1C6F3C05726F4000576
:1011E000DFF834800AE000BF95FAA5F0B0FA80F687
:1011F00058F82600804704FA06F08543002DF3D105
:1012000009F0DEFD002F03D0BDE8F04103F08EB9F8
:10121000BDE8F08100700240D0B50000C11700EBBE
:10122000D161074B4A1153F8222021F01F01411AC6
:1012300001208840024201D0012070470020704701
:1012400000E100E002E008C8121F08C1002AFAD13C
:1012500070477047002001E001C1121F002AFBD136
:101260007047022001F0ACBA70B50024064D06E0CC
:101270006868012110F8340007F012FB641C28781C
:101280008442F5D3002070BD68010020F8B51646F1
:101290000C4605460A2A01D20720F8BD07F0F8FBE4
:1012A00018B907F0B9FB0028F7D1134F20211348D4
:1012B0007D603C70BE60FFF7E3F90020C7E90400E1
:1012C0000F4E0DE005EBC4003168009181788DF878
:1012D000011000780B4A694607F02EFB0028DCD18C
:1012E000641EE4B2EED2BDE8F84005480021064A8B
:1012F000001D00F067B8000068010020B00B00205E
:101300006CB60000D54800006540000072B606F0DB
:10131000D5FD00BF06F06EFB0028FBD1144D15492A
:1013200015486A88081AC4082AB1012000EB044055
:1013300012A106F099FC14480068C00700D000BE56
:101340006888022805D3022000EB04400FA106F0B4
:101350008BFCBFF34F8F0C48E43801680F4A01F44F
:10136000E06111430160BFF34F8F00BFFDE7000054
:101370000004002094CC0000BCCB000046617461E6
:101380006C206572726F7200F0ED00E05379737437
:10139000656D207265736574000000000400FA0535
:1013A0000EB500210091CDE901106A4644F201001A
:1013B000FFF7ACFF0EBD0000014802F0BABE00000E
:1013C000A801002010B55AB100684FF0FF34012980
:1013D0004261C0E9024400D000210161002010BD3B
:1013E000072010BD38B511480823582241680091E4
:1013F0000F49006805F02AF8002815D10D4A694602
:101400000D4802F09BFE04000ED101210A4802F0B3
:101410001AFF0123094A1946074802F062FE0649ED
:10142000012008390870204638BD000074B600005D
:10143000D00B0020AD9D0000A8010020FFFF7F0021
:1014400070B5044616460D46002001F0D7F8D4E9E1
:101450000201C04370EA010004D0002001F0D0F87E
:10146000002070BD03F01CFA401941F10001C4E9ED
:101470000201002001F0C4F8A661206900B12561D5
:101480002146BDE87040002009F094B910B504462B
:10149000002001F0B3F8D4E90201C04370EA010072
:1014A0000CD04FF0FF30C4E90200002001F0A8F892
:1014B0002146BDE81040012009F07CB9002001F070
:1014C0009FF8002010BD000070B50546054804696E
:1014D00005E02946204601F0B1FD20680468002C93
:1014E000F7D170BDEC01002070B5094804690CE02B
:1014F000267A002505E02946204600F0EAFE6D1C0C
:10150000EDB2B542F7D320680468002CF0D170BD6D
:10151000EC01002070B50A4804690DE0267A002528
:1015200006E000222946204600F012FF6D1CEDB2B5
:10153000B542F6D320680468002CEFD170BD0000DE
:10154000EC01002070B50849054606200C6907E04B
:101550002946204601F072FD062803D121680C6857
:10156000002CF5D170BD0000EC010020F8B5044658
:1015700000250FE0002705E0007800F0BDFA08B173
:101580001120F8BD3946781CC7B2304600F09CF8EF
:101590000028F1D12946681CC5B2204600F0AFF8FA
:1015A0000600E7D100250DE0002703E00078214682
:1015B00000F0A7FA3946781CC7B2304600F084F82C
:1015C0000028F3D12946681CC5B2204600F097F8E0
:1015D0000600E9D1074800E0086801680029FBD14E
:1015E000046005486946806900906068026820468A
:1015F0009047F8BDFC01002088B600002DE9F04FAF
:1016000087B04FF000081D46934689460446DDF832
:1016100040A04646CDF80C8000E0761C60680123AF
:1016200000224768214603A8B8470028F5D1404664
:101630008DF800800027B84601903BE060680123E8
:101640006A46D0F804C0214601A8E047606801233B
:1016500005AAD0F804C0214601A8E0479DF814105F
:1016600049451AD1D84514D19DF80000CAF80000A8
:1016700005F8010B6A1C85F8009060689DF8003041
:101680002146456801A89B1EA847002007B0BDE879
:10169000F08F08F1010000F0FF0860689DF800304D
:1016A0000022D0F804C0214601A89B1EE0479DF807
:1016B00000000744B742C1D30520E7E701480069AD
:1016C00070470000EC01002042788A4201D80020D7
:1016D0007047827810440844704742788A4201D8A3
:1016E00000207047827810440844704742788A424C
:1016F00001D8002070478278104408447047027A6D
:101700008A4201D80020704701EB410109300844AA
:101710007047027A8A4201D80020704701EB4101EC
:10172000093008447047027A8A4201D80020704785
:1017300001EB41010930084470470000024840783D
:10174000002800D001207047EC01002002484178B9
:10175000491C417000207047EC010020024841788C
:10176000491E417000207047EC010020084901E04B
:101770000968091D09680029FAD10549091F01E016
:101780001168091D0A68002AFAD108600020704714
:101790000402002009490BE0824207D10268526826
:1017A0000A60006800214160084670471168091D01
:1017B0000A68002AF0D105207047000000020020CE
:1017C00010B500210A464FF400634418227200EB62
:1017D0008104491CC9B263610429F6D380F8292029
:1017E00080F8282010BD10B5002000F05DF9BDE89C
:1017F0001040802000F058B910B5002000F056F9D4
:10180000BDE81040802000F051B9000070B50D46D1
:101810000146287806240B2813D007DC07284CD271
:10182000DFE800F04B0D0F114B2739000C2825D0B5
:101830000D2825D00E282CD085283ED110E003207D
:1018400014E0002439E0244804F042FE0028F8D0D7
:10185000224801210160BFF36F8FBFF34F8FF0E784
:101860001D48001F0078032827D1042009F00CFA36
:1018700023E0084600F058F804461EE0002005E08A
:101880001748006810F0010F03D0022009F0FCF99E
:10189000D7E70120FAE7EB78032B0ED00E48001DA6
:1018A00002683AB10021016041681846904704007F
:1018B00005D000E00E2408F039F8204670BD09F08C
:1018C000DBF928B1A8780028F7D108F004F8F4E78C
:1018D00007F0FEFFF1E70000140200205C700240F8
:1018E0003804004002494978C14001F001007047C6
:1018F00010020020024A0146D2E90002104700000F
:10190000780D002070B50C46054607F0DBFFA842B5
:1019100001D0102070BD0348D4E90012C0E90212C2
:10192000002070BD100200207FB5054605208DF80F
:10193000000006240DF1010007F0D0FF09F09CF92A
:101940002949002008609DF8010010F01F0006D012
:1019500001280FD0022826D0032833D106E069469B
:10196000284608F0DFFB044606282AD16846FFF720
:10197000E9FD25E09DF8050003A900F0C7FC05007E
:1019800008D06A469DF80C1000F09FFC044606281B
:1019900002D016E0102415E06A469DF80C10284687
:1019A00008F0C8FC0CE09DF80500010705D0694669
:1019B00000F058F80446062803D1684608F030FCC9
:1019C000044624B107F0B2FF04B0204670BD09F010
:1019D00053F930B107F076FF0028F5D107F07BFF0F
:1019E000F2E707F075FFEFE718020020FEB5C088A8
:1019F00014460E46A04201D2054600E01546844238
:101A000007D2802007F09EFDB4FBF0F100FB1140EF
:101A100068B100200096CDE90150002000F0EEFDF5
:101A20006946802000F07AF8040002D006E0012028
:101A3000F0E705498020FFF765FF0446002000F02D
:101A4000DFFD2046FEBD0000D0B6000008B14021F9
:101A50000160014870470000CC0D002007F06EBC0B
:101A600007F088BC10B50C46010600F00F02092AE9
:101A700009D200F00BF8006828B141680A682146D5
:101A8000BDE810401047102010BD0000010600F016
:101A90000F0001D5034901E00249483101EBC000C4
:101AA00070470000300D002007F0A4BC10B50446BC
:101AB00000F00F00082805D2204607F0BDFC2046A4
:101AC00007F070FD2046BDE8104007F0C3BC0000E1
:101AD00070B50C46054607F0FDFC18B105480078C6
:101AE000022801D0082070BD21462846BDE870407C
:101AF00007F0F2BCEC01002010B5FFF7C7FF00684B
:101B000010BD10B50C46FFF7C1FF04601CB1616841
:101B10000968416010BD0021FBE7000070B50C466C
:101B2000054607F0D7FC18B105480078022801D017
:101B3000082070BD21462846BDE8704007F062BD10
:101B4000EC010020F8B5044600782A4D05280BD199
:101B5000294800682849C0B2091F096811F0FF0F21
:101B600004D1052802D1254C207818B3234F6946AB
:101B7000243F386A04F07DFC06001AD020683060EB
:101B8000002000F03BFD6888E968401A401CF080A6
:101B9000184800210C3004F0BAFCB080002000F09E
:101BA0002FFD6946386A04F085FC0146204609F09D
:101BB00079FBF8BDAE6905E03168608889688847BF
:101BC00030684668002EF7D1002000F017FDE86865
:101BD00008B960886880074801210C3004F081FC56
:101BE000002000F00DFD0121204609F05BFBE868B4
:101BF000F8BD0000EC01002084740240ACB6000087
:101C000070B5774C05460178207809297BD008DC2F
:101C1000092979D2DFE801F06A84B28D9FBBC283C3
:101C2000D700822927D017DC0A296ED00F296DD062
:101C300080293BD0812972D16A48FFF75BFE694851
:101C4000FFF742FC0D2009F03BFBFFF74DFCFFF7CF
:101C5000CAFD606950B906E0832931D0842937D0A4
:101C600085295CD193E06048007A00B1012007F03B
:101C700061FE01207EE0FFF737FC07F081FE0020C7
:101C800008F0AAFC5748401CFFF71EFC5548401CB2
:101C9000FFF730FE0E2009F013FB207800F084FCE3
:101CA00000283CD0BDE8704005F022BA052803D0DA
:101CB000062803D0072832D102205BE0082059E033
:101CC00003282CD107F080FE002828D0042051E002
:101CD000032805D107F078FE10B1042008F07CFC41
:101CE00007F0CEFE00281AD0062043E0032801D0DA
:101CF000082803D13B48801CFFF782FF002009F031
:101D0000DFFA646909E060E009E060E044E0294648
:101D1000204601F093F920684468002CF7D170BD8B
:101D2000FFF7E2FBFFF768FD022008F055FC0120F9
:101D300005E0082809D0052008F04EFC032009F032
:101D4000BFFA2846FFF7D6FD44E0022008F044FC25
:101D500007F062FDF2E7032009F0B2FA2148C01C47
:101D6000FFF7C8FD1F48C01CFFF7AEFB2078062810
:101D7000A2D10720BDE8704008F02EBC032008F077
:101D80002BFC022009F09CFA2846FFF79DFB284611
:101D9000BDE87040FFF7AEBD0F2019E0A878FFF74F
:101DA00075FED0E900232946104698470028B6D092
:101DB000A8780107B3D000F00F010829AFD2BDE821
:101DC000704007F0CBBB082002E0092000E00A20A9
:101DD00009F076FA2846BDE87040FFF775BB0000B1
:101DE000EC01002099B60000C00D0020FFF7AABE4C
:101DF000F8B5214C00250095204EA0684FF40067EF
:101E000028B9211D306A04F04AFBA060C0B1818866
:101E100069B1C188B94200D3C580C188ADF802104C
:101E2000C188491CC1808188491E81801FE0FFF75D
:101E3000E7FE1149306A091D04F026FBA56019E090
:101E4000E068002817D0002000F0D8FB6088B84276
:101E500000D365806088ADF80200401C60800648B1
:101E600001210C3004F064FB002000F0C9FB68463F
:101E7000FFF7C6FE0120F8BDEC01002088B6000087
:101E80000148FFF75FBE000088B6000010B5001DD6
:101E900004F021FBBFF34F8F10BD10B5001D04F0FF
:101EA0001AFBBFF34F8F10BD10B5001D04F00DFBE2
:101EB000BFF34F8F10BD10B5001D04F006FBBFF33C
:101EC0004F8F10BD10B50021FFF723FC0021FFF755
:101ED00004FC007810BD10B50021FFF724FC0021A0
:101EE000FFF704FC007810BD2DE9F0478046002480
:101EF00018780E461F461546A2464FF001090F28D6
:101F00006AD2DFE800F0082B767869353A696969AA
:101F1000698092A4A7007988104603F0ECFA014684
:101F2000A0F57F40FF3822D0002053462A1892F8AF
:101F3000244034B105EB800C7C88CCF8144082F846
:101F4000243095F829201AB1401CC0B20428EDD3E2
:101F5000B069C9B2C2694046904748E003211046C3
:101F600000F059F985F80C902846FFF729FC6BE042
:101F70003146404608F09EF939E0B87844460006FC
:101F800024D5D87820B903223146404609F092F989
:101F9000686828B10321284600F03DF9002453E089
:101FA00000204FF40062494605EB80035B699342D1
:101FB00002D12B1883F8241095F829301BB1401C4E
:101FC000C0B20428F0D3B06981680EE0B069C0687F
:101FD00010B1D87810B106E0062435E0022231466F
:101FE000404609F067F9B069C16820468847044651
:101FF0002AE002212CE00221104600F00CF9B06921
:1020000081684046F2E74046FFF7B0FB04001BD171
:102010004046FFF79BFB040016D12846FFF7D0FB94
:102020000021284600F006F90EE04046FFF7B2FB1B
:10203000040009D14046FFF791FB040004D10021C0
:102040004FEA050000F0E7F82046BDE8F0870121DF
:102050001046E7E701211046F4E7C26952680A60BA
:10206000C069006870472DE9F041056880464FF06F
:10207000000417000E4605F10C05204614D029185F
:1020800091F82E20B2422CD014B90AB901F12E04D5
:10209000401C0628F3D324B12846FFF7F7FE7FB98A
:1020A0000DE01120BDE8F081291891F82E10B14201
:1020B00014D12C182E3414D02846FFF7E7FE002642
:1020C00026702846FFF7F0FE284600F0D8F80028D2
:1020D000E8D04046BDE8F04102F0D7BE401C0628DB
:1020E000E2D30020DEE7006890F84800084000D006
:1020F000012070472DE9F041046807460D4694F829
:1021000038000C341646284000D00120B04202D1DD
:102110000020BDE8F0812046FFF7B8FE94F82C00BF
:102120000EB1284300E0A84384F82C002046FFF7B6
:10213000BBFE204600F0A3F80028EAD03846BDE8F0
:10214000F04102F0A2BE026A52680A60006A0068AA
:1021500070472DE9F0410746046890F834000D46B9
:102160000C341646A84202D80720BDE8F08120466C
:1021700000F076F840B194F83200E84000F0010039
:10218000B04203D10020F0E70820EEE72046FFF739
:1021900084FE012094F83210A8400EB1014300E003
:1021A000814384F832102046FFF785FE204600F078
:1021B0007BF80028D9D03846BDE8F04103F033B9A8
:1021C00070B5046806460C340D46204600F048F809
:1021D00040B14DB1B4F92E00294602F09CFE28B161
:1021E000112070BD082070BD002070BD2046FFF793
:1021F00054FEA08D2844A0852046FFF75CFE2046B3
:1022000000F052F80028F0D03046BDE8704003F0EE
:102210000AB9C068704701228A40D14304F067B907
:1022200001228A40D14304F062B901228A40D1439D
:1022300004F05DB9012202FA01F104F06DB9012246
:1022400002FA01F104F068B9012202FA01F104F086
:1022500063B90068C840C04340F30000401C7047A9
:1022600010B504460021FFF7F4FF30B101212046EC
:10227000FFF7EFFF08B1012010BD002010BD10B521
:1022800001686FEA910141F30001491C03D000F09D
:10229000A5F9002010BD00686FEAD00040F30000EF
:1022A000401C80F0010010BD10B504460221FFF76C
:1022B000D0FF18B100F092F9002010BD0321204694
:1022C000FFF7C7FF80F0010010BD11464268136898
:1022D000184770B5044640680D46C2680AB12046EA
:1022E000904720462946FFF70AFA0546467800241B
:1022F00008E021462846FFF7E7F9007807F07AF86A
:10230000641CE4B2B442F4D370BD00002DE9F04186
:1023100080460E480E46056914E02F7A00240DE031
:1023200021462846FFF7EBF90178414504D106B173
:1023300034702846BDE8F081641CE4B2BC42EFD39F
:1023400028680568002DE8D10020F3E7EC010020A3
:1023500070B50446406815460E4683681BB120469A
:102360009847062803D1204631460DB1072070BD9D
:10237000FFF7C5F905464678002408E021462846BF
:10238000FFF7A2F90078FFF791FB641CE4B2B442B6
:10239000F4D3002070BD034600205A681269002A59
:1023A00001D01846104770472DE9F8432E4C0546DA
:1023B00008234FF484722B49206A04F047F810B1C7
:1023C0000320BDE8F883294807F02CFA0028F8D14B
:1023D000274908700861486148212648FEF750F9EE
:1023E000244848214830FEF74BF9224878307DB127
:1023F00095E80E00183080E80E00002004F0FCFE86
:1024000018B1852801D0FEF7CBFF1B4D002611E047
:1024100004F138010EC9EDE7002703E000782946F2
:10242000FFF76FFB3946781CC7B24046FFF74CF9FF
:102430000028F3D13146701CC6B22846FFF75FF979
:102440005FEA0008E8D1606800906946284600F01D
:10245000F5FD040003D007F00BFB2046B1E7002098
:10246000AFE70000280C002088B60000ED1D00003A
:10247000EC010020300D002010B7000030B1012821
:1024800007D0022808D10548FFF75CBB034808388D
:10249000FAE70248001FF7E770470000B8B60000EF
:1024A00010B507F007FA10B107F0FAF908B10820E3
:1024B00010BD044804F0B4FE08B1FEF771FF00201F
:1024C00010BD0000BCB6000070B50C460F4901EB12
:1024D000800555F82400017831B10020FFF7B6FAE5
:1024E000002255F8241006E0801C70BD521CD2B2A8
:1024F000491C20F812300B78002BF7D1022101EB98
:102500004201C9B241F44071018070BD4002002017
:10251000074803E0016811F0010F07D00168C1F31B
:1025200040010029F6D00348FFF70CBB70470000BC
:10253000380400408DB60000034808B5806800905C
:102540006846FFF7FFFA08BD88B6000030B44FF0C8
:10255000000180B10D4B002213F8124084420ED1CD
:1025600003EB4200407870B1094A02EB800252F856
:10257000212042B100E0002030BCFFF7A5BF521C73
:10258000D2B2062AE8D330BC00207047FAB7000068
:1025900040020020034808B5C06800906846FFF775
:1025A000D1FA08BD88B60000092808D2DFE800F09B
:1025B00007070507070505050500012070470020EE
:1025C0007047092808D2DFE800F00707050707076A
:1025D00007070500012070470020704708B501205B
:1025E000FFF780F9002806D003480069009068468C
:1025F000FFF7A8FA012008BD88B6000000F002B875
:1026000000F008B872B602480168491C01607047C2
:102610005802002003490868401E086000D162B6D5
:10262000704700005802002070B5054608680C4647
:10263000411C04D005F081F8206804F0E1FF6068D7
:10264000411C02D0002104F0C9FF2968A069C1F82B
:102650002405607D227D29681043C1F86C05D4E90A
:1026600000122868C0F81425C0F80C15207D012838
:1026700014D1A068411C02D0002104F0AFFFE06833
:10268000411C04D005F059F8E06804F0B9FFD4E922
:1026900002122868C0F80825C0F8101570BD70B582
:1026A000054608680C46411C04D005F050F8206827
:1026B00004F0B0FF6068411C02D0002104F097FFD5
:1026C0002968A069C1F82405607D217D2A68084336
:1026D000C2F86C05D4E900122868C0F80C15C0F8DF
:1026E0001425207D012814D1A068411C02D00021AE
:1026F00004F07DFFE068411C04D005F028F8E06894
:1027000004F088FFD4E902122868C0F80825C0F850
:10271000101570BDF0B500220D4BCA60C1E9012350
:102720000C4B0D4D1446EE1A0A600CE003EB02153B
:10273000EF683F79FF2F05D0A04202D1A86808605A
:10274000F0BD641C521CB2EB161FEFD3F0BD0000AD
:1027500098BA00009CCB0000BCCB0000102802D32C
:102760001038C0B2704740F0800070472DE9FC413E
:102770000646C0074FF000050ED0104F002401227E
:10278000385D009500231146019504F0B1FE641CEC
:10279000042CF4D300F04EF8B0070DD5074E0024FA
:1027A000361D0022305D032300951146019504F08B
:1027B0009FFE641C042CF4D3BDE8FC810CB5000022
:1027C000094908B5085C0090684604F05DFFD0F840
:1027D0000425009B0121994021EA0203C0F8083535
:1027E0001140C0F80C1508BD0CB500000249085C8A
:1027F000012104F0B6BF00000CB500000249085CDE
:10280000002104F0AEBF00000CB50000084908B577
:10281000085C0090684604F037FFD0F80405009982
:10282000C84010F0010000D0012080F0010008BD78
:102830000CB5000010B500242046FFF7D7FF641C3C
:10284000042CF9D310BD10B500242046FFF7D6FFA5
:10285000641C042CF9D310BD10B50246064B4FF092
:10286000FF3000215C5C944201D1084610BD491C38
:102870000429F7D310BD000010B500002DE9F04782
:102880000D468146FFF7E8FF0446042836D2DFF8FC
:1028900074801B481C4EA8F10C0725B3012D0ED0E7
:1028A000022D2BD104EB440030444578002D25D077
:1028B000B968002922D02846BDE8F047084704EB54
:1028C0004401755C0E44717849B10E4A4FF4804161
:1028D000093A8068FEF7B4FD08B987F80390B1782B
:1028E00008F80410E2E78068FEF7D0FD04EB44012D
:1028F000314418F804008D78A842D7D0BDE8F0879D
:1029000014B50000B00000209C08002001490860B8
:10291000002070471801002010B51E4C0E380C28FE
:1029200036D2DFE800F00617212B35353535121980
:10293000232D184803211C30FFF742FC2068002299
:10294000BDE810405221FEF77BBD2068BDE8104075
:10295000FEF79CBD012200E000220E480021BDE8E8
:1029600010401C30FFF7F5BB012200E000220948AF
:102970000221BDE810405430FFF7BCBB012200E04B
:10298000002204480A21BDE810405430FFF76BBB19
:1029900010BD0000C4B3000070B50023042810D29D
:1029A0000D4D00EB4004012A02D101290CD0002278
:1029B000094E00EB4000304461B1012906D00229E4
:1029C00006D00723184670BD0E30C2B22A55F9E76B
:1029D0004270F7E78270F5E79C08002070B5064664
:1029E0001E480024C0E90161B00720D5002501225E
:1029F00011462846FFF7D0FF6D1C0446042D02D275
:102A0000002CF4D013E094B940F23332042114487E
:102A1000FEF73CFC04000AD1FEF726FC040006D1B8
:102A20000F48104A0021001FFEF7CCFC0446F007B7
:102A300012D00120FFF79AFE74B909480A4A002112
:102A40000C38FEF7BFFC040006D10548074A0121F7
:102A50000838FEF7B7FC0446204670BDA4000020ED
:102A600020B50000352D0000E15A0000631200007F
:102A70002DE9F05F6E4C054600266078B34618B12C
:102A800084F801B003F014F86A4F4FF47A694FF4F8
:102A9000C87A4FF00108182D69D2DFE805F00C1351
:102AA00013384754696E727B727BC5848484848436
:102AB000B3B6B9BCC5C502F0FBFF3868FEF7E6FC4B
:102AC00006465CE00020FFF7A1FE00284FF0000062
:102AD00008D0FFF78BFE022D02D14FF4E16008E031
:102AE000484606E0FFF78AFE022D01D1C82000E02B
:102AF0005046410CC0034FF47A72801841F1000136
:102B0000257052000023FDF7F9FC01462AE0002061
:102B1000FFF77CFE00284FF0000004D0FFF766FEB0
:102B20004FF44870E5E7FFF769FEDFE70020FFF7A5
:102B30006DFE00284FF0000002D0FFF757FECFE7F0
:102B4000FFF75CFED4E70020FFF760FE00284FF09F
:102B5000000002D0FFF74AFE01E0FFF74FFE2570AC
:102B600040F6CD4100223868FEF76AFC064646E092
:102B70000020FFF725FE257008E0002051E02570B9
:102B80003DE084F801800120FFF71AFE002240F2A8
:102B90006661E8E784F801800120FFF711FE00225A
:102BA0004FF40051DFE77868FEF770FC0646D5F178
:102BB000110000D02EB10220FFF718FE84F802B0F9
:102BC0001DE0012816D980B2C8214843C117C903A6
:102BD00041EA5041C0034FF47A72801841F100017C
:102BE00052000023FDF78AFC014600227868FEF7B8
:102BF00027FC06460220FFF701FE84F802803046DB
:102C0000BDE8F09F02F054FFB9E702F051FFB4E7CE
:102C100002F04EFF04E002F04BFF0020FFF7EEFD54
:102C20000120FFF7EBFDAAE7FFF70DFEA7E7000085
:102C3000A400002014B500002DE9F0470546861CCD
:102C400091460F464FF0010A0020FFF7D7FC1B4CBE
:102C500004F21C4860683860D4E90101184F401A3A
:102C60003968081A0EE00121404603F03AFC03F0EF
:102C700031F90146404603F034FCD4E90101401A21
:102C80003968081A401C8642EDD8B9F1000F03D00C
:102C9000052065F3891002E0062065F39F50616806
:102CA0003A68114004EB8101C8606068304460609C
:102CB0000020FFF7A5FC5046BDE8F087C80F0020B4
:102CC000F402002070B50D4604460A2902D10D21F8
:102CD000FFF7F8FFA0682268411CA1601554D4E9F1
:102CE0000101814204D32046BDE8704004F007BBD7
:102CF00070BD0000044881684068814201D1012014
:102D00007047002070470000C80F0020034630B510
:102D1000074800210478426806E000BF02EBC100CA
:102D200005789D4203D0491CA142F7DB002030BD4D
:102D30006801002000780221FFF7A0BD05494FF08F
:102D4000FF32082841F8202002D3084480F8582098
:102D500070470000BC080020F0B54FF0FF3512B1FD
:102D60000023082601E008230C260C4C05E000BFD8
:102D700054F823707F1C04D05B1CB342F8D3284660
:102D8000F0BD26185DB286F8305044F82310002AB2
:102D9000F5D1E11881F85800F1E70000BC080020E7
:102DA0000249084490F9300070470000BC08002038
:102DB00070B5816804468A7F002A4DD0C87F0028FC
:102DC0004AD0121A0844D5B200F120016A1C1F3003
:102DD000FDF72FFCA068C17F491EC177A068817FE5
:102DE000491E81778DB308221C49206904F07AFAC4
:102DF000204603F003FB8178C078814211D1A0689E
:102E000017A2C17F431808212046203303F018FF82
:102E1000204600F017F929462046BDE8704001F031
:102E20002FB8204600F022F9204600F00BF9A068E8
:102E30000BA2C17F431808212046203303F000FF76
:102E40002046BDE8704000F007B92069BDE8704039
:102E5000044A03A104F046BA70BD000038300000F7
:102E600025730000D1B9000070B504468068827FE8
:102E7000C17F521A12F0FF053AD0084400F1210137
:102E80002A462030FDF7D5FBA068817F491E817757
:102E9000204603F0B3FA8178C078814214D1A0684B
:102EA00014A2C17F431808212046203303F0C8FE36
:102EB000114A10A1206904F015FA6D1EE9B22046EE
:102EC000BDE8704000F0DCBF204600F0CFF820469F
:102ED00000F0B8F8A06807A2C17F43180821204677
:102EE000203303F0ADFE2046BDE8704000F0B4B8DA
:102EF00070BD000025730000D5B900002DE9F04138
:102F0000044680680F46D0F84811C27F11F00106D0
:102F1000817FA1EB0203DDB20BD07F2901D3002D0D
:102F20007ED0A068C17F0844002180F8207066B17F
:102F300013E07F297CD2002DF3D0831803F1200108
:102F40002A46481CFDF775FBEBE7A068827F521C00
:102F5000D2B28277A068203281544DB3204603F06C
:102F60004DFA8178C07881420ED1A06831A2C17F2C
:102F7000431808212046203303F062FEA81BC1B28B
:102F8000204600F07DFF21E0204600F06FF8A068A9
:102F900028A2C17F431808212046203303F050FEA9
:102FA000204600F059F80121204601F043F80DE0D9
:102FB0003EB1A068827F521CD2B28277A0682032D4
:102FC00081543A461CA1206904F08CF9A168C87F9D
:102FD000401CC877204600F040FF0028204603D060
:102FE000BDE8F04100F058BF01F047FC00281FD0B9
:102FF000204603F003FA0546C078A978401A401E1F
:10300000C1B2204600F0CAFE204600F045FFE87835
:10301000A978401AC1B2204601F018F8287800E0DB
:1030200006E0401EC1B22046BDE8F04101F002B802
:10303000BDE8F08125730000256300004268126836
:10304000104700000069024A02A104F04BB90000D9
:10305000C9B90000257300000069024A024904F062
:1030600041B90000C3B90000543000000069024AB1
:10307000024904F037B90000C0B900005430000024
:103080002DE9F04F4FF0000995B005464F464C46EC
:1030900000F0E0FD284602F083FB284600F08AFE9F
:1030A000284600F0DAFE10B9284600F0F5FEAA68BE
:1030B0000C2301A90EA8203203F074F803460E98E1
:1030C00040B15BB149A20221284603F0B9FD15B019
:1030D000BDE8F08F284600F0DFFEF8E74948484990
:1030E0000026A1EB00080DF1040A834613E008D383
:1030F00045A0009049A202212846019B03F0A0FDB3
:10310000E5E70BEBC604606801685AF82900FDF793
:10311000C9FA18B1761CB6EBD80FE8D94FF0000009
:103120000F90A96848608860C86008616168C868D5
:1031300028B14AC9AA68C2E90360C2E901136068FC
:1031400009F101044FF00006D0F808800E9884427F
:1031500035D25AF8240033A1FDF7A4FA40B35AF847
:10316000240031A1FDF79EFA10B310A8324600905A
:10317000761C0FAB2146404600F028FDFEB10F98AB
:10318000E8B101685AF82400FDF78CFA0028DDD177
:103190000F98C16839B190E84810AA682746C2E97B
:1031A00003C1C2E901360026641CD0F80880CDE7CF
:1031B000A868D0F8481141F00201C0F84811A86889
:1031C000036933B10E980AEB8702C11B2846984762
:1031D00004E017A20221284603F032FDA868D0F8C7
:1031E000481121F00201C0F8481170E76E6F742099
:1031F0007465726D696E617465643A2025630A00B6
:103200009CCB00005CCB00003A20636F6D6D616E5B
:1032100064206E6F7420666F756E6400257325736D
:103220000A0000002D6800002D2D68656C700000FC
:10323000506C6561736520737065636966792061A0
:1032400020737562636F6D6D616E642E0A000000FD
:103250008068D0F84801C0F3C00070472DE9F04104
:103260000446C0688EB00D464068002632460068AD
:1032700001A904F00FFF18B100200EB0BDE8F081E5
:103280006DB1019804F0D8FEA168D1F83801401C56
:10329000C1F8380100F0070001287AD10126204644
:1032A00003F0ACF805468078012804D9401EC1B26D
:1032B000204600F0CBFE2878012804D9401EC1B278
:1032C000204600F0DDFD2046FFF7BCFE2EB132A205
:1032D0000221204603F0B4FC5BE04FF0000800231D
:1032E000082202A9019804F0B6FE04980590BDF8E2
:1032F0000C00ADF81800BDF80E00ADF81A008DF8FE
:103300001D800298082700F00300012802D002283F
:1033100018D032E002983B46860AC0F3C2008DF80E
:103320001C00029808A9C0F38315AA00019804F0B4
:1033300092FE2069009005AB2A4608A9304604F0A9
:10334000D1FD1AE00298850DC0F3C2008DF81C0073
:10335000082D01D22E4600E008263B46324608A939
:10336000019804F078FE3744AD1B05AA314608A841
:10337000236904F097FC002DEAD1019804F05CFE6B
:10338000E068002201A94068006804F083FE00287C
:10339000A5D0012071E700004C6F7374206C6F673B
:1033A00073202D20696E637265617365206C6F6791
:1033B000206261636B656E6420717565756520734D
:1033C000697A652E0A00000030B4406804682469F8
:1033D000A44630BC60472DE9FC4100260446012785
:1033E000019601AB012269462046FFF7EDFF0198E7
:1033F000002836D09DF800007F28F2D804F049FE5E
:10340000A068417821B101296FD002296ED18DE0E9
:103410009DF800500D2D09D00A2D07D0D0F8482175
:10342000002161F38D12C0F8482122E0D0F8481144
:10343000C1F3871129B1D0F84811C1F38711A9420E
:1034400017D1D0F8481165F38D11C0F84811A06864
:10345000817F41B12046FFF713FE0221204600F094
:10346000F5F8BDE8FC81C0F84461204600F014FD89
:10347000F3E7092D1ED004DC002DB2D0082D04D1B5
:1034800021E01B2D12D07F2D26D0FDF777F80068A4
:10349000405D10F03E0FA4D02046FFF7D9FE30B3B8
:1034A0009DF800102046FFF729FD9AE7A16801204A
:1034B000487096E72046FFF7CBFE002891D02046C3
:1034C00000F0DEF88DE72046FFF7C2FE002888D026
:1034D0002046FFF76DFC84E72046FFF7B9FE002881
:1034E000E3D02046FFF7C0FC7BE716E019E0A168B7
:1034F0009DF80020887F7F28D7D2C87F0B18401CFA
:10350000C87783F82020A068C17F084480F8206035
:10351000A168887F401C887763E79DF800105B29CD
:1035200001D0002100E0022141705AE700214170E2
:103530002046FFF78DFE002893D09DF8000042281A
:1035400040D01BDC33287CD012DC312872D03228EA
:10355000ABD1A16803204870A068D0F84811D0F81A
:10356000482127EA010161F30002C0F8482138E749
:10357000342856D0412898D1012124E0462853D040
:103580001BDC432823D044288FD1204602F036FF8D
:1035900005460078A979491C884202D1A9780129F9
:1035A00087D001284FF0010120462FD000F068FCA1
:1035B000A168C87F401EC87713E748283DD04C2833
:1035C00089D1C9E70021204601F0D8FF09E720464C
:1035D00002F014FF054600786978884203D1A97883
:1035E000EA78914298D0697988424FF001012046EB
:1035F00006D100F0D3FB6979204600F041FC01E0E0
:1036000000F018FDA168C87F401CD4E700F01EFD43
:103610006979204600F00EFDA068C17F491EC17780
:10362000DFE6A16803204870204600F0C3FBD8E61F
:1036300007E0FFE7A16803204870204600F0E3FBA5
:10364000CFE6A1680320487046E70000826802299F
:1036500011700CD18268002182F820108268D17725
:103660008268917702A20321036803F0E9BA7047E8
:1036700025730000002801D0FDF70DB87047000049
:103680002DE9F04F05460020A7B0074615900646E5
:1036900020900690A868817FC1F17F01C9B25FEADE
:1036A000010970D0C27F00F12001A030FCF7C1FFFA
:1036B000A8680024C17F084480F8A040FCF75EFFA2
:1036C00021900168A8680C23C27F0244D27F895CE4
:1036D000C0F84441AA6801F0010A07A916A8A0325F
:1036E00002F060FD0798FFF7C5FF00F0FF08A34652
:1036F00017941894169818B15044401EB0426CD8D4
:10370000BAF1000F01D0002005E007A850F826000C
:10371000FFF7B0FFC0B28046002419A822460090EF
:10372000641C17AB3146584600F050FA1798002831
:103730006CD0016807A8424650F8260002F084F9D0
:103740000028EAD018987F1CF0B117980068FFF79E
:1037500091FF0699C0B2884200D90690B9F1000FD6
:103760002ED022A8009018AB31465846159A00F08A
:103770002DFA17980168189801EB080201680020DB
:1037800001EB080316E08DE0601E2090179800689A
:10379000FFF770FFC0B20690A0EB080048450FDAB3
:1037A000C0B20CE013F800C0614506D1401C10F017
:1037B000FF0010D0115C0029F4D1814500D9814669
:1037C000601E159017981890A7D266A2042128466B
:1037D00003F036FA1AE0FF20EFE7002419A822468A
:1037E0000090641C17AB3146584600F0EFF9ECB37B
:1037F0001798002856D0016807A850F82600FCF753
:1038000051FF0028EAD11798D0F808B0BBF1000F9B
:1038100009D0179838B11699761CF6B201EB0A0058
:103820008642FFF467AF002F3CD0012F43D0002128
:103830002846069A06F05AF9209C0DF11C0A19A890
:1038400022460090641C17AB3146584600F0BEF982
:103850001798424601685AF8260002F0F5F840B180
:1038600017987F1E069A0168284600E01DE006F0C2
:103870003DF9002FE3D146A2032128462B6803F02F
:10388000DFF9AB6843A208212846203303F0D8F9BA
:10389000284600F099FB18984A460168284641449A
:1038A00000F032FA27B0BDE8F08F2EA2042128469E
:1038B00003F0C6F9F6E79BF8000038B119A80090AC
:1038C00018AB31465846159A00F080F918980068F0
:1038D000FFF7D0FE404506D018984A4601682846B2
:1038E000414400F011FA2198A9680268C87F0B18BA
:1038F00093F82030D25CD20715D0897F8842D1D28C
:10390000284602F07BFD8478A868C17F491CC177F6
:10391000284602F073FD8078A0421FD1012128467D
:1039200000F088FBBEE7D1F84801C00711D0D1F8FC
:10393000480120F00100C1F8480120212846FFF786
:10394000DDFAA868D0F8481141F00101C0F848112B
:10395000A8E720212846FFF7D1FAA3E7284600F080
:103960009BFA9FE75461622066756E6374696F6E9F
:103970003A20636F6D6D616E647320636F756E7452
:103980006572206F766572666C6F7765642E0A00CB
:103990000A25730025730000002806D08868D0F837
:1039A000481141F02001C0F84811704770B5044635
:1039B00040680D4690F8280030B1A0680068FDF717
:1039C00065FD08B108280CD1012685B1606903F0B6
:1039D0007DFC616800220831606903F033FC08B1A6
:1039E000062070BD606880F82960002070BD6068A6
:1039F00090F8280048B9074A0021A068FDF7E2FCCA
:103A00006168002881F82860F0D12046BDE8704048
:103A100006F0B6BA19A7000070B5044640680D4616
:103A20000260606800224360606880F82820606857
:103A300080F82920606820220830FCF7FAFD2C610C
:103A4000074A2946606903F0FDFB050005D1E068DF
:103A500004F05CFD206904F059FD284670BD0000AB
:103A600059A800001A60C0681A4604F089BC10B555
:103A70000446406903F02AFCA0680068BDE81040D5
:103A8000FDF704BD7CB51A60044600691A4604F0CF
:103A9000B7FC050025D16069134A0178515C19B162
:103AA000001D05F097FB02E00C3005F0F7F9C0B9F6
:103AB000FF20009001236A4601A9206904F0EEFC72
:103AC00078B900980199C2B2606903F0EFFB05462E
:103AD000606890F8290020B11DB92069009904F0B0
:103AE000CAFC28467CBD0000200100202DE9F843D7
:103AF0001E4615468846074600241BE0786808EBFA
:103B000004016B460268D2F80CC02A46E0470098D0
:103B100004442D1A70B9B868017803290AD000BF8F
:103B2000D0F848118906FBD5D0F8481121F02001C2
:103B3000C0F84811002DE1D1002E01D0009830606E
:103B4000BDE8F88370B5084C050009D01034216831
:103B5000002907D008682060496828468847F6E7AA
:103B60000834F4E770BD0000A8080020054A0121D0
:103B700020B1012805D19170FFF7E4BF51700020FA
:103B8000FAE77047A808002008B550686A4605A102
:103B9000FCF7BCFD044900980E300968C0B28847A4
:103BA00008BD0000257500001801002008B5506808
:103BB0006A4604A1FCF7AAFD034900980968C0B24F
:103BC000884708BD25750000180100202DE9F05F29
:103BD0001C460A9E15464FF0000959B180B3017882
:103BE00039B342683146284690473068D8B12660DC
:103BF000BDE8F09F14491548A1EB0008B5EBD80FBC
:103C000011D2DFF84CA00026834609E00BEBC60773
:103C1000786801685AF82500FCF744FD30B1761C3D
:103C2000B6EBD80FF2D3C4F80090E1E778682060D3
:103C3000DEE7406800EB0210016809B11860D7E7C1
:103C4000FFE7C3F80090D3E79CCB00005CCB0000FB
:103C5000740300202DE9F04185680646002495F89C
:103C60002000002811D0A046FCF788FC0746006819
:103C700004F1200104F10104695CE4B2415CC9076C
:103C800005D0002CF4D185F82080BDE8F081641EB9
:103C900014F0FF040FD0A87F021B04F120002918A4
:103CA00005F12000521CFCF7C4FCB168887F001BA2
:103CB0008877B168C877B2683D68937FD0181F30A5
:103CC0000446002102E0491CC9B2401E0778EF5D9E
:103CD000FF07F8D18442D8D05B1A203302F8038062
:103CE000B268907F401A9077B168C877CDE710B579
:103CF000D0E90234D1E90220D11AA04101D3012038
:103D000010BD002010BD00002DE9F0410446806880
:103D100015460F46827FC17F531A2A44DEB27F2A9E
:103D200037D8002D35D0084400F1200105F12002DC
:103D30001044721CFCF77DFCA0682A46C17F084431
:103D400039462030FCF775FCA0682030FFF792FC64
:103D5000A16811A28877A068C17F43180821204676
:103D6000203302F06DFFA068C17F2944C17720464F
:103D700000F073F818B9204600F07FFD10B120461E
:103D800000F08AF8002E04D02046BDE8F04100F093
:103D90001BB9BDE8F081000025730000002904D0A4
:103DA0000A46006901A103F09DBA70471B5B2564B8
:103DB0004200000070B5054602F020FB0446007882
:103DC0006178884203D1A078E17888421AD0E178FE
:103DD000A078814204D9081AC1B22846FFF7DEFF55
:103DE00020786178884205D9401AC1B2284600F08F
:103DF00047F804E0081AC1B2284600F01BF9A86889
:103E0000817FC17770BD70B5054602F0F7FA0446B0
:103E100001788079401C814202D1A07801281BD012
:103E2000A078012804D9401EC1B2284600F00EF93E
:103E30002078A179884206D9401A401EC1B228468E
:103E400000F01EF805E0081A401CC1B2284600F038
:103E5000F1F8A9680020C87770BD10B50446006865
:103E6000FFF708FC0146A068C27F407E1144B1FB09
:103E7000F0F200FB121008B1002010BD012010BDAF
:103E8000002904D00A46006901A103F02BBA70474B
:103E90001B5B256444000000006901A103F022BA05
:103EA0000A0000002DE9FC47002604468DF8046056
:103EB00080683546B146B0468021A030FCF7E0FB73
:103EC0004049206903F00EFA206903F018FA002730
:103ED0006B46012201A92046FFF776FA0098D8B177
:103EE0009DF804001B2806D0A16891F8A0101B299A
:103EF000EED152281FD0A26808F1A001505408F159
:103F0000010000F0FF08B8F1090F0AD9A1680420E8
:103F100081F8A090BDE8FC872A494FF6C010103107
:103F2000884700980028D3D17F1CBFB2B7F57A7FAD
:103F3000CED30D20EEE7A16808F1A0004A4601F8B3
:103F40000090A16891F8A1005B2803D081F8A0201F
:103F50000B20DFE702206FF02F0309E005EB85055A
:103F600003EB4505401C3D44C0B2ADB2802808D2E9
:103F700000F1A007CF5D3B2FF0D1401CC0B28028DC
:103F800009D30C20C6E700BF06EB860603EB460606
:103F90003E44B6B2F1E700F1A007CF5D002FF3D1A8
:103FA000FA20FA2E01D9087500E00E75FA2D02D913
:103FB000A168887501E0A0688575A06880F8A020D8
:103FC0000020A7E7E1B9000070B5054602F016FA37
:103FD00004468078E178884201D1012600E000267D
:103FE0002846FFF73AFF18B9284600F046FC10B102
:103FF0002846FFF751FF1EB160782178401A12E081
:10400000E078A178401AC1B2284600F01FF8207865
:104010006178884206D9401AC1B22846BDE870408E
:1040200000F008B8081AC1B22846BDE87040FFF792
:1040300027BF0000002904D00A46006901A103F04F
:1040400051B970471B5B256443000000002904D070
:104050000A46006901A103F045B970471B5B25645E
:104060004100000070B500240F4D10E0686800EBBF
:10407000C406307804F0C8FC7178012901D0012110
:1040800000E000214140307800F008FB641C2878F3
:104090008442EBDBD5E90401084303D0BDE870405E
:1040A00006F0A4BB70BD00006801002010B500211F
:1040B000024802F02CFA80F3100010BDE413002037
:1040C0004FF480328A400168C1F848230068C0F884
:1040D000082370474FF4A07202EB810189B200F00F
:1040E00049BB2DE9F04105460E464FF4A07000EBA8
:1040F000860081B228684FF48034B440984622F09C
:104100007F47C0F808432868C0F84843286804F08F
:1041100023FA286800EB8600C0F840752868C0F8CC
:104120004443B8F1000F02D02868C0F80443BDE84A
:10413000F0810068D0F804057047000070B543793D
:10414000274C2A4D44F823204279231D03EBC20259
:10415000254C1679234A121BD40846B168880826D4
:1041600002283AD3022000EB044021A133E0066884
:104170000A88C6F8082590F904208978002A4FEAB1
:10418000411104DB02F1E02282F8001405E002F0A4
:104190000F0202F1E02282F8141D90F904100122AE
:1041A000002909DB01F01F0602FA06F64909890019
:1041B00001F1E021C1F800614179002603EBC10162
:1041C0000A71417943F831006888032805D3032038
:1041D00000EB04400FA103F047FD304670BD000026
:1041E0005C0200203CCC0000BCCB0000D4030020CB
:1041F00052544320696E7374616E636520616C7202
:104200006561647920696E697469616C697A656455
:104210002E0000005254433A20696E697469616C43
:10422000697A65642E00000090F90400002809DB1B
:1042300000F01F02012191404009800000F1E020C0
:10424000C0F8001270470A46022100F01DBA4FF470
:10425000827100F08FBA0068012101607047006828
:104260000121416070472DE9F05F07460C464FF48D
:10427000A07000EB84001FFA80FA38684FF4803693
:10428000A6409B4622F07F45C0F848633868C0F8D6
:1042900008633868D0F8048500EB8402D2F84095B2
:1042A000C2F840855146386804F056F9A9EB080079
:1042B00020F07F40012806D1102004F0E9FA514691
:1042C000386804F049F93868D0F80485C0F84463C8
:1042D000A5EB080121F07F413868012900EB84003B
:1042E00010D0C0F840553868D0F804156FF07F4CF6
:1042F0006A1A521E22F07F42ACEB0B03934217D393
:1043000062B118E06D1CC0F84055102004F0C0FAEE
:104310003868D0F8040540450AD10CE000EB840071
:104320006D1CC0F840553868D0F80405884202D0AA
:104330000D20BDE8F09F01223146384600F0A4F977
:104340000020F6E76FEA0061C90F61F31F107047A4
:104350000106044900D5903100F00F0001EB001078
:10436000704700007809002004F042B9812004F071
:104370006DB9822004F06AB9832004F067B9842003
:1043800004F064B9852004F061B9862004F05EB9B8
:10439000872004F05BB9000038B5882506F002FDDF
:1043A0002846FFF7D5FF817B0124032915D000683B
:1043B000002811D12846FFF7C5FF8440E1430C488F
:1043C00004F0D0F90B480A49806800900C398DF848
:1043D000025049686846884738BD2846FFF7B2FF53
:1043E0008440E143BDE83840014804F0BBB9000017
:1043F000640100209CB5000038B506F0D3FC002015
:10440000FFF7A6FF817B0124032906D0006870B165
:10441000BDE838404C2004F091B90020FFF792FF2E
:104420008440E143BDE83840094804F09BB90020CE
:10443000FFF788FF8440E143054804F093F90548FD
:104440000349C0680C39009049686846884738BD00
:10445000640100209CB50000012004F013B9022083
:1044600004F010B9032004F00DB9042004F00AB9D7
:10447000052004F007B9062004F004B9072004F071
:1044800001B9000038B5082406F08CFC2046FFF77F
:104490005FFF817B032915D00068002812D12046D8
:1044A000FFF750FF01218140C943074804F05AF942
:1044B00006480549406900900C398DF8024049686A
:1044C0006846884738BD0000640100209CB50000A4
:1044D00070B50E4804680460BFF36F8FBFF34F8F51
:1044E00001260CE094FAA4F0B0FA80F52846FEF715
:1044F00035F906FA05F18C43294606F0FBFD002C40
:10450000F0D1BDE8704006F05BBC00006C74024066
:1045100010B5054CA078FFF715FF0146A078BDE85F
:10452000104006F0E7BD000058010020F8B51A4819
:1045300000681A4DC6B2A878FFF704FF012404FAF8
:1045400000F12889EA68C04380B21043014202D0DA
:10455000A87806F029FD06F08000A8700020FFF77B
:10456000F1FE04FA00F68020FFF7ECFE04FA00F0FA
:1045700006430A48F1430C3004F0F4F88020FFF7BA
:10458000E1FE8440A86804430548AC60006A0090DE
:10459000696868468847F8BD807402405801002069
:1045A0009CB5000038B5002000900F480068ADF8B9
:1045B00002008820FFF7C6FE012505FA00F40A482C
:1045C0006038006840B1C10301D4401C04D0082009
:1045D000FFF7B8FE85402C43044988682043886073
:1045E00049686846884738BD207502405801002058
:1045F00070470000F8B518480568284604F08CF8A4
:10460000BFF36F8FBFF34F8F144E154CE80506D5DF
:1046100001206070706A0090616868468847A8054C
:104620004FF0000705D56770B06A00906168684672
:10463000884768050ED5607800280BD06770094957
:1046400001200860582004F079F8F06A0090616851
:1046500068468847F8BD0000007402409CB5000021
:104660005801002008750240054908B5002048702F
:10467000887004484068009049686846884708BDCB
:10468000580100209CB500000368C3F84413002AB9
:1046900002D00068C0F80413704700002DE9F0470D
:1046A0000E463249804601EB5001C007097801D01F
:1046B0000F0901E001F00F07424601200021FBF73E
:1046C0004EFFDFF8AC9004460D46052F4BD2DFE8D5
:1046D00007F0031419262A00002E44D00121404679
:1046E00005F012FF0020FDF789FF4846D0E90412CB
:1046F0000C431543C9E9044530E00EB1022114E032
:10470000002112E04EB10321404605F0FDFE404677
:10471000BDE8F047012106F0DBBD012105E0002ED8
:1047200021D1042101E02EB103214046BDE8F0472C
:1047300005F0EABE0021404605F0E6FE00214046B5
:1047400006F0C6FD0020FDF759FF4A46E043D2E9D6
:104750000434184024EA0501C9E90401BDE8F04722
:104760000020FDF74DBFBDE8F0870000B00B002032
:104770006801002010B5006842581AB103F0ECFE41
:10478000012010BD002010BD2DE9F05F17460E007E
:10479000814670D013B1F9B2FFF74CFC0024FBF74F
:1047A000EDFE8246006800E0641C315D415CC90793
:1047B000FAD100253046FEF75DFFD9F80810001B3E
:1047C0004A7ED11B814228D306EB040805E000BFD6
:1047D00018F805100A290CD06D1C8542F8D3311940
:1047E000D9F8100002F07EFD4846BDE8F05FFFF703
:1047F00053BBD9F8100002F082FD414600232A463F
:104800004846FFF773F92C444846641CFFF744FB05
:10481000F9B24846FFF70EFCE1E78B46DAF80010E4
:1048200006EB040818F805000B5CDB0702D0AB466A
:104830000A2804D0E819904201D26D1CF2E7D9F899
:10484000100002F05CFD414600235A464846FFF73F
:104850004DF95C44DAF8000000E0641C315D415C15
:10486000C907FAD14846FFF717FBF9B24846FFF7E8
:10487000E1FB9EE7FFE7BDE8F09F10B50446006846
:10488000FEF7F8FE0146A068827F407E1144B1FB2E
:10489000F0F200FB121008B1002010BD012010BD85
:1048A00010B50B48FFF745FC094A083AD2E9043431
:1048B000C018D2E9063244F10001C31A71EB0202BA
:1048C00004D24FF08072801841F1000110BD000049
:1048D000A801002010B5C0B2FEF718FA044600780F
:1048E00004F092F801466078012801D0012000E030
:1048F000002090EA010F08D00449D1E904010843DF
:1049000003D1BDE8104005F071BF10BD6801002063
:1049100070B5056804460C3500F092FA0646D6E9F3
:104920000001FBF7ADFE05F134007168FBF7A8FE4E
:1049300005F12C007168FBF7A3FE0020FDF75EFE79
:104940002046FDF7BFFA010601D504F051FD032111
:104950002846FDF765FC0020FDF752FE002070BDE3
:1049600000F093BA30B400F110040B4602682146FF
:1049700030BC0C32FDF7B8BA2DE9F05FDFF8A88340
:104980000C7A054688F80040006816468A464FF0C3
:10499000000940F2D9124C461F46A0F2D9114FF03F
:1049A000090B90426FD021DCB0F5E87F6CD013DCAE
:1049B000B0F5E67F5CD007DC90B3A0F58070C73817
:1049C00039D0012879D141E0B0F5E77F5DD0A0F57D
:1049D0008070CF38F6D165E0A0F2D11008286CD2F3
:1049E000DFE800F07D89946B6B9FAAB5192971D01F
:1049F0000EDC0E296FD006DC01296DD002296CD0A7
:104A00000B29DFD1DDE00F2968D01829DAD119E1AF
:104A10001D390529E3D2DFE801F0F6F5F4F3F200E1
:104A200088F8019071E100BF85F804B0BC4202D360
:104A300040F2C71053E10EB1287930550420641CB0
:104A40002871BC4202D34FF4E47048E10EB12879DA
:104A5000305598F801105046641CFCF75AFEC8F80F
:104A6000080000782871BC4202D34FF4E67036E1AA
:104A70000EB128793055641C85F80490BC4204D3EB
:104A80004FF4E7702BE16DE018E00EB12879305556
:104A9000D8F80800641CBC424078287102D340F268
:104AA000CF101CE10EB1287930550320641C287109
:104AB000BC4203D34FF4E87011E130E10EB1287924
:104AC00030559AF81800641C2871BC4207D340F294
:104AD000D11004E1C1E085E04FE05BE094E00EB16D
:104AE000287930559AF81900641C2871BC4202D309
:104AF0004FF4E970F3E00EB128793055641C85F865
:104B00000490BC4202D340F2D310E8E00EB1287901
:104B10003055641C85F804B0BC4202D34FF4EB70EE
:104B2000DDE00EB1287930552120641C2871BC428B
:104B300002D340F2D710D2E00EB1287930551120BF
:104B4000641C2871BC4202D34FF4EC70C7E00EB174
:104B5000287930550120641C2871BC4202D340F2F0
:104B6000D910BCE00EB128793055641C85F804904A
:104B7000BC4202D34FF4ED70B1E00EB1287930554C
:104B80005046641C00F0D2F82871BC4202D340F2B7
:104B9000DB10A4E00EB1287930555046641C00F0BB
:104BA000C5F888F8020088F8039036E0DAF81000BB
:104BB000BC4250F821000079287102D34FF4F27002
:104BC0008DE00EB12879305598F803105046641CDA
:104BD00000F0B4F8A8F806002871BC4202D340F2F5
:104BE000E7107CE00EB128793055B8F80600641C57
:104BF000000A2871BC4207D34FF4F4706FE072E0F2
:104C00005FE053E047E03BE00EB12879305598F87B
:104C10000310491C88F80310641C98F8031098F8D6
:104C2000022040469142C1D38168497801714946CA
:104C300088F8039061E007202871BC4202D340F25B
:104C4000F1104CE00EB1287930550520641C287114
:104C5000BC4202D34FF4F97041E00EB128793055CF
:104C600098F80310641CD8F80800FCF736FDC8F863
:104C70000C0000782871BC4202D34FF4FB702EE088
:104C80000EB1287930550320641C2871BC4202D330
:104C900040F2F71023E00EB1287930554020641C13
:104CA0002871BC4202D34FF4FC7018E00EB1287991
:104CB0003055641C85F80490BC4202D340F2F910D0
:104CC0000DE00EB12879305598F80300DAF830106D
:104CD000641CBC42085C287105D34FF4FD70286049
:104CE0000120BDE8F09F0EB12879305598F80310E7
:104CF0004046491C88F80310641C0279C9B29142ED
:104D000099D34178491C88F8011098F8011098F857
:104D100000008142FFF488AE4FF4FF70DFE700200F
:104D2000C5F80090DDE7000020020020007D7047FC
:104D3000006950F82100806810447047006950F8FD
:104D400021000068704708B50B46002100911979D1
:104D5000012903D0022905D0062008BD6946FDF7C8
:104D60007CF902E06946FDF7EEF9009A411C581CF7
:104D7000521EFCF73BFE08BDFEB5056804460C3527
:104D8000FDF7A0F8064603212846FDF749FA20461C
:104D900000F056F800210091019102910168009104
:104DA00040680190204600F05BF80020FDF726FCEB
:104DB00069463046FCF7B2FE18B903212846FDF7D4
:104DC0003EFA0020FDF71CFC0020FEBD30B5044675
:104DD000006A85B000210268117000910191029172
:104DE0000168491C00914068401E01900020FDF7B9
:104DF00005FC69460020FCF791FE050008D1074834
:104E000003A90068CDE903040020FCF77BFD0546FB
:104E10000020FDF7F5FB05B0284630BD58B700006F
:104E200010B508B1032010BD0A6A08460968126867
:104E3000527881F84820C26A02219047002010BDB4
:104E400070B500F1100405682046FDF7E2F908216D
:104E50004035C0E900512046BDE87040FDF7D9B9A2
:104E600070B50546FFF7ECFF04462968D4E9000257
:104E700038310D46FBF724FC002805D0D4E90002A8
:104E80002946FBF7D6FB012070BDFEB50568044638
:104E90000C35FDF717F8064603212846FDF7C0F943
:104EA0002046FFF7DDFF00281BD02046FFF7C8FF94
:104EB00000210091019102910168009140680190E8
:104EC0000020FDF79BFB69463046FCF727FE0400F7
:104ED00003D103212846FDF7B2F90020FDF790FB2E
:104EE0002046FEBD10B589B101290FD0022906D098
:104EF00003290FD1BDE810400220FDF761BC02205C
:104F0000FDF75EFCBDE8104000F0B2BDBDE810400A
:104F1000FFF7FEBC10BD0844B0F5004F02DA10F5F3
:104F2000004F01DA01207047002070477F2801DD23
:104F30007F2070476FF07F01884201DA0846704792
:104F400040B2704770B50546006800F10C04284671
:104F500000F059FA0646D6E90001FBF791FB04F18F
:104F600033007168FBF78CFB0021A185E185218668
:104F700084F832100846FDF741FB2846FCF7ABFFEA
:104F8000010601D504F034FA03212046FDF74DF95E
:104F90000020FDF735FB002070BD00F044BA30B4AE
:104FA00000F110040B460268214630BC0C32FCF7BD
:104FB0009BBF00002DE9F05FDFF8AC830C7A8A46D6
:104FC00088F80040016816464FF00009054640F297
:104FD0001B224C461F46A1F21B204FF0090B9142A9
:104FE00071D023DC40F21222A1F2122091426BD048
:104FF00013DC40F20F20A1F20F22814258D007DCCF
:1050000071B3A1F50071093935D0012975D13DE0A1
:10501000012A5AD0022AF9D164E009286DD2DFE8CA
:1050200000F06C7E8A956C6CA0ABB600192871D02C
:105030000EDC0E286FD006DC01286DD002286CD063
:105040000B28E3D1DDE00F2868D01828DED119E164
:105050001D380528E2D2DFE800F0F6F5F4F3F2009F
:1050600088F8019071E100BF85F804B0BC4202D31A
:1050700040F2092053E10EB1287930550420641C18
:105080002871BC4202D340F20A2048E10EB12879CF
:10509000305598F801105046641CFCF744FBC8F8E2
:1050A000080000782871BC4202D340F20F2036E19C
:1050B0000EB128793055641C85F80490BC4204D3A5
:1050C0004FF404702BE16DE018E00EB128793055F3
:1050D000D8F80800641CBC424078287102D340F222
:1050E00011201CE10EB1287930550320641C287171
:1050F000BC4203D340F2122011E130E10EB1287915
:1051000030559AF81800641C2871BC4207D340F24D
:10511000132004E1C1E085E04FE05BE094E00EB1D4
:10512000287930559AF81900641C2871BC4202D3C2
:105130004FF40570F3E00EB128793055641C85F802
:105140000490BC4202D340F21520E8E00EB1287969
:105150003055641C85F804B0BC4202D34FF406708D
:10516000DDE00EB1287930552120641C2871BC4245
:1051700002D340F21920D2E00EB128793055112027
:10518000641C2871BC4202D340F21A20C7E00EB161
:10519000287930550120641C2871BC4202D340F2AA
:1051A0001B20BCE00EB128793055641C85F80490B2
:1051B000BC4202D34FF40770B1E00EB128793055EC
:1051C0005046641C00F0D2F82871BC4202D340F271
:1051D0001D20A4E00EB1287930555046641C00F023
:1051E000C5F888F8020088F8039036E0DAF8100075
:1051F000BC4250F821000079287102D340F22620E9
:105200008DE00EB12879305598F803105046641C93
:1052100000F0B4F8A8F806002871BC4202D340F2AE
:1052200029207CE00EB128793055B8F80600641CBE
:10523000000A2871BC4207D340F22A206FE072E0D6
:105240005FE053E047E03BE00EB12879305598F835
:105250000310491C88F80310641C98F8031098F890
:10526000022040469142C1D3816849780171494684
:1052700088F8039061E007202871BC4202D340F215
:1052800033204CE00EB1287930550520641C28717C
:10529000BC4202D34FF40D7041E00EB12879305575
:1052A00098F80310641CD8F80800FCF71FFAC8F837
:1052B0000C0000782871BC4202D34FF40E702EE02F
:1052C0000EB1287930550320641C2871BC4202D3EA
:1052D00040F2392023E00EB1287930554020641C7B
:1052E0002871BC4202D340F23A2018E00EB128796E
:1052F0003055641C85F80490BC4202D340F23B2038
:105300000DE00EB12879305598F80300DAF8301026
:10531000641CBC42085C287105D34FF40F702860F0
:105320000120BDE8F09F0EB12879305598F80310A0
:105330004046491C88F80310641C0279C9B29142A6
:1053400099D34178491C88F8011098F8011098F811
:1053500000008142FFF488AE4FF41070DFE70020B8
:10536000C5F80090DDE7000030020020007D7047A6
:10537000006950F82100806810447047006950F8B7
:1053800021000068704710B50C460979012901D049
:10539000062010BD00F037F8D0E90012601CBDE80F
:1053A0001040FCF723BBFEB50646FCF794FD3468BD
:1053B00005460C3403212046FCF737FF304600F049
:1053C00022F8016894F832200A7000224A708A702C
:1053D000CA700092019202920168009140680190A7
:1053E0001046FDF70BF969462846FCF797FB18B9FC
:1053F00003212046FCF728FF0020FDF701F90020DB
:10540000FEBD0620704770B500F110040568204607
:10541000FCF7FFFE04213F35C0E900512046BDE8FE
:105420007040FCF7F6BE2DE9FE4F0168074601F11A
:105430000C0AFCF750FD834603215046FCF7F5FEAD
:1054400038463C68FFF7DFFF066894F83E0096F8A0
:1054500000903070B4F93800FFF768FD0546208FE2
:10546000401B20877570B4F93A00FFF75FFD804656
:10547000608FA0EB0800608786F80280B4F93C00DA
:10548000FFF754FDA18F45EA0805091AA187F070BE
:1054900005434FF0000405D13178494502D1002081
:1054A000BDE8FE8F3846FFF7AEFF009401940294EA
:1054B00001680091406801900020FDF79FF869465F
:1054C0005846FCF72BFB040003D103215046FCF7A0
:1054D000BBFE0020FDF794F82046E1E741B1012929
:1054E00006D0022906D0032904D10220FDF768B9AD
:1054F000FFF728BD70472DE9FC41024690F82800CF
:105500004FF6FF7400B30020009040F2FF7C6F461E
:10551000019013181B7A9B0027F8103061450DD1BC
:1055200002EB80067569B5F5006F07D005F2FF75CF
:10553000B5FBF3FE03FB1E556D1C7561556825B167
:1055400003211046FCF767FE14E002EB80056D694D
:105550000D44B5FBF3F603FB16550A26B3FBF6F331
:105560009B1C9D4207D392F829301BB1401CC0B24E
:105570000428CED32046BDE8FC810000FEB50026FD
:1055800004460096019602968068E9B3D0E950126D
:105590008A4272D0D0F83C0100286ED02046FEF737
:1055A00032FCA068D0F84451002D69D000230922B4
:1055B0006946284602F04FFDA1689DF80850009802
:1055C000C1F84401A06800230922D0F844016946CB
:1055D00002F041FDA1689DF808200923D1F844019B
:1055E0002031521C02F037FDA1689DF80800C877F1
:1055F000A1689DF8080088779DF80800A84202D2AB
:105600002046FDF71FFD00E00BE0A3682BA2082158
:105610002046203301F014FB2046FEF71EFC68BB39
:1056200043E0D0F84401002847D02046FEF7EBFBCA
:10563000A06800230922D0F84401694602F00BFD5E
:10564000A0680199C0F84411A0680029857FB9D1EC
:10565000A030FEF70FF80028A06805D000F1A001E7
:105660002030FBF73AF801E080F82060A068203095
:10567000FEF700F88DF80800B6E71EE01AE0FFE735
:105680002030FDF7F7FF10F0FF05A068D0F83C11BF
:10569000C0F84411A06805D000F12001A030FBF74C
:1056A0001CF88FE780F8A0608CE72046FFF7E5F84C
:1056B000002802D02046FEF7EFFBFEBD2573000058
:1056C000FEB50D46816804460026D1F83C0138B38A
:1056D00000230922694602F0BEFC0195A068002360
:1056E0000922D0F83C01694602F0BDFC0196A06891
:1056F000D0F83C110091807F8DF80800A068C0F8B8
:105700003C51002309226946284602F0ACFCA168FE
:10571000092328468A7F2031521C02F0A4FCFEBDDA
:10572000C1F83C51A068C0F8405100960196A068AD
:10573000807F8DF80800E4E7FEB504468068D0F865
:105740004061002E28D0002309226946304602F02D
:1057500082FCA16801980025C1F8400100950195DF
:105760002B46092269463046029502F07CFC304601
:1057700002F043FCA168D1F8400170B10023092276
:10578000694602F068FC0095A06800230922D0F861
:105790004001694602F067FCFEBDC1F83C51FEBD08
:1057A000FEB5044680682030FDF764FF10F0FF0569
:1057B000A0684FF00006C0F8446133D0A068D0F86C
:1057C0003C01E0B100230922694602F044FC9DF847
:1057D0000820AA4213D1A068092300F1A001D0F843
:1057E0003C01521C02F037FCA06800F1A0012030FF
:1057F000FAF758FF0028A06880F8A06012D00026B1
:105800000A352946606902F0C8FB0100204604D031
:1058100003B0BDE8F040FFF753BFFFF78DFF761CE4
:10582000082EEED3FEBD000010B516490220FDF78C
:10583000D5F808B1FBF7B4FD002116220846FDF7A4
:10584000ABF808B1FBF7ACFD172200210120FDF7F2
:10585000A3F808B1FBF7A4FD182200210220FDF7F0
:105860009BF808B1FBF79CFD192200210320FDF7EE
:1058700093F808B1FBF794FDBDE810400120FCF758
:1058800075BF00001929000000B589B01348FDF765
:105890003DF808B1FBF784FD2022114901A8FAF771
:1058A000C8FE062001900820029000208DF8180004
:1058B000032000900A4801231A4601A9843801F008
:1058C0002BFB08B1FBF76CFD0548843801F0DCFBCD
:1058D000002801D0FBF764FD09B000BD19290000C4
:1058E0004CB400002DE9FC5F0E008346DDE90C4757
:1058F000C6F1000098469246814600D4084601252C
:1059000003E000BF90FBFAF06D1C5045FADAA845A1
:1059100000D9454624B1002E01DB780700D5641E6E
:10592000B80702D5B8F1000F0AD0F80708D13CB18A
:10593000A54205D220215846641EFDF7C3F9F6E7BB
:10594000002E02DA4E462D2102E0780703D52B21E6
:105950005846FDF7B7F907F0030002280BD1B8F15C
:10596000000F08D13CB1A54205D230215846641E33
:10597000FDF7A8F9F6E7CDE9004743465246314620
:10598000584605F01FF9BDE8FC9F000070B50D46B4
:10599000044600684FF4887102F024FE4FF49071C1
:1059A000206802F01FFE4FF49271206802F01AFE88
:1059B0004FF4A271206802F015FE4FF4AC7120681C
:1059C00002F010FE20681249C0F80413206869072D
:1059D00040F30730090E002804DB00F1E02080F8D6
:1059E000001405E000F00F0000F1E02080F8141D25
:1059F000206840F30730002809DB00F01F02012176
:105A000091404009800000F1E020C0F8001170BD15
:105A100010034200024600201268530713D502F01B
:105A20000300012802D002280CD105E0C2F3831044
:105A30000B68801C184404E00223086803EB9252B0
:105A4000104408600120704710B5FAF74FFE08B106
:105A5000002010BD012010BD0268134602E08A42FA
:105A600004D01268002AFAD10B6001607047000070
:105A700010B501210D48FCF736FB00284FF001005E
:105A800002D0FCF7BBFE01E0FCF7B0FE02210748A4
:105A9000FCF729FB00284FF0000003D0BDE81040C0
:105AA000FCF7ACBEBDE81040FCF7A0BE18B4000087
:105AB0000A4810B5807860B1002401E0022C06D0BD
:105AC0002046FCF793FE641C042CF7D310BD03247E
:105AD000F6E7BDE81040FCF7ADBE0000A4000020D2
:105AE00003480179C90702D00078FCF7C1BF7047AD
:105AF000A4000020014B00F0D9BD0000C15C0000F3
:105B0000014B00F0D3BD00008D5E0000014B00F0A2
:105B1000CDBD0000955E0000014B00F0C7BD000048
:105B2000795F00007CB514460546012902D001F0DA
:105B3000EDF938B102B02846BDE8704000221146A8
:105B400001F0A6B8616805A0CDE9000109A2022113
:105B50002846236801F074F87CBD000020756E6B48
:105B60006E6F776E20706172616D657465723A2038
:105B70000000000025733A257325730D0A0000000C
:105B80002DE9FC41074601F0C1F938B102B03846B1
:105B9000BDE8F0410022114601F07AB81248134ED8
:105BA000801B050900241AE006EB0410C268117975
:105BB000FF2903D0527942B10DA207E083680EA2FB
:105BC0000821384601F03CF808E013A2CDE9002195
:105BD000836814A20821384601F032F8641CAC42F4
:105BE000E2D3BDE8FC810000BCCB00009CCB0000F0
:105BF000656E61626C65640025730D0A092D205382
:105C000074617475733A2064656163746976617454
:105C100065640D0A0D0A000064697361626C656455
:105C20000000000025730D0A092D2053746174755E
:105C3000733A2025730D0A092D2049443A20256422
:105C40000D0A0D0A0000000010B5044601F05EF9CF
:105C500030B120460022BDE81040114601F018B8CE
:105C60002046BDE8104002A2022100F0E9BF00007A
:105C70004E6F7420737570706F727465642E0D0AA8
:105C80000000000010B5044601F040F930B1204694
:105C90000022BDE81040114600F0FABF2046BDE8E2
:105CA000104002A2022100F0CBBF00004E6F742012
:105CB000737570706F727465642E0D0A00000000B9
:105CC0002DE9FF4FC86881B01D46007917004FF0DD
:105CD0000006009057D0072245A12868FAF706FD74
:105CE00078B1082244A12868FAF700FD00282FD0D7
:105CF0002B6843A2019805B00221BDE8F04F00F0E7
:105D00009FBF012F02D0022F08D008E0019805B0F4
:105D100041A2BDE8F04F022100F092BF0126DFF85A
:105D2000108100240A2258F824106868FAF7DEFC73
:105D300010B1641C052CF5D3052C06D004F0FF0926
:105D40000224002E51D0002419E03AA26B68D1E75A
:105D5000012F4FF00009F6D0012446E04A462146C3
:105D6000009800F00BFB48B90021204602F098F89B
:105D7000034638A20221019800F062FF641C02F081
:105D800039F8A042EAD805B0BDE8F08F4FF0000A1C
:105D900055F824B002F02EF88046002609E00021D4
:105DA000304602F07DF820225946FAF79FFC58B1A0
:105DB000761C4645F3D3464508D04A4651460098DE
:105DC00000F0DCFA30B10FE0B246F4E755F82430C9
:105DD00029A205E00021504602F062F803461DA208
:105DE0000221019800F02CFF641CBC42CED3CAE70C
:105DF000656E61626C65000064697361626C650068
:105E0000556E6B6E6F776E206F7074696F6E3A208F
:105E100025730D0A00000000426164207061726108
:105E20006D6574657220636F756E742E0D0A0000C7
:105E3000F8020020556E6B6E6F776E207365766585
:105E400072697479206C6576656C3A2025730D0A49
:105E5000000000004C6576656C20756E61766169A6
:105E60006C61626C6520666F72206D6F64756C6525
:105E70003A2025730D0A0000556E6B6E6F776E2009
:105E80006D6F64756C653A25730D0A00C968012051
:105E900048717047C968002048717047704730B436
:105EA0001346C4680A46214630BCFFF709BFC068E4
:105EB0000121C06841717047C0680021C06841710C
:105EC000704730B41346C4680A46214630BC00F01F
:105ED00053B800002DE9FF410026244800F0FBFAEA
:105EE0002248001F074600F0F6FA214C2149A0681D
:105EF00000900D6800E000986946284004EB80009F
:105F00000C30FFF787FD0028F5D101AA009901EABE
:105F1000050304EB8303491CDB6842F82030401C76
:105F200000910228F2D3019800F0030001280BD061
:105F3000022810D10198032101EB90500099BDF87F
:105F40000A6001EB900005E00198BDF80A60C0F31B
:105F5000831008440090384600F0BAFA08B100985F
:105F6000A06004B03046BDE8F0810000E0130020DE
:105F7000C80F0020F40200202DE9FE4F884682461B
:105F800001F038FF0746D8F80C00407920B922A26A
:105F90000221504600F054FE24A327A208215046B7
:105FA00000F04EFE2CA20821504600F049FE0024CD
:105FB0002DE000BFD8F80C0001231A4605792146D0
:105FC000284601F021FF8146002301222146284670
:105FD00001F01AFF0546032801D2064600E0032619
:105FE0000121204601F05CFF0346AE4201D22AA205
:105FF00000E028A2294850F8261050F829008DE822
:10600000070027A20821504600F01AFE641CBC427B
:10601000D0D3BDE8FE8F00004C6F677320617265BE
:106020002068616C746564210D0A00006D6F6475F1
:106030006C655F6E616D6500252D343073207C20AA
:1060400063757272656E74207C206275696C742D44
:10605000696E200D0A0000002D2D2D2D2D2D2D2DCA
:106060002D2D2D2D2D2D2D2D2D2D2D2D2D2D2D2D60
:106070002D2D2D2D2D2D2D2D2D2D2D2D2D2D2D2D50
:106080002D2D2D2D2D2D2D2D2D2D2D2D2D2D2D2D40
:106090002D2D0D0A000000002A000000F80200204B
:1060A000252D343073207C20252D3773207C20252E
:1060B0007325730D0A0000004FF48041002001F0A9
:1060C00049FE08B1FBF76CF901F04CF808B1FBF799
:1060D00067F9002001F06CF801F062F80028FBD0AD
:1060E000FBF780F908B1FBF75BF9204A0121204852
:1060F000FBF768F908B1FBF753F9FFF795FBFFF7DA
:10610000C3FB1B48A830FCF74FF908B1FBF748F96F
:1061100017481C30FBF72AFA08B1FBF741F914487D
:106120005430FBF723FA08B1FBF73AF911484088DD
:10613000032809D310481149401AC008032101EB74
:1061400000400FA101F090FDFCF7AAF908B1FBF7A0
:1061500027F9FBF74DFE0028FBD10548001D00F094
:1061600059FF01F047FC20BFF3E70000F163000096
:10617000C4B300000004002094CC0000BCCB00009D
:10618000555342442048494420636F6D706F7369D2
:106190007465206578616D706C65207374617274CC
:1061A00065642E002DE9FF4F4FF0000881B01446C2
:1061B0008B468146C246C0F800802578002D71D0FC
:1061C000FAF7DCF900900068405DC00702D004F8DF
:1061D00001AB84E0D9F800008300401CC9F800003E
:1061E0004BF8034015E02678002E78D0B8F1000F68
:1061F00005D1222E10D0272E0ED05C2E1ED0B045F9
:1062000014D12046FDF736FA0246611C2046FAF703
:1062100010FA4FF00008E6E72046FDF72BFA024699
:10622000611C2046FAF705FAB046DCE7B8F1000F2A
:1062300050D05C2E61D16078404508D12046FDF7F2
:1062400019FA0246611C2046FAF7F3F955E03028A6
:106250001CD100270225605DA0F13001072906D876
:106260006D1C41EAC701EDB2CFB2052DF3D3022D6B
:106270000CD92046FDF7FEF9421B61192046491E44
:10628000921CFAF7D6F904F8017BACE778281ED106
:1062900000270225605DA0F13001092903D841EAF9
:1062A00007100DE021E0A0F16101052901D8573860
:1062B00004E0A0F14101052907D8373840EA07106A
:1062C0006D1CEDB2C7B2042DE4D3022DD1D8B8F1C4
:1062D000000F12D100980068805DC0070DD0D9F87A
:1062E000001004988142FFF468AFD9F800204046BE
:1062F0004BF822A005B0BDE8F08F641C73E72DE9D0
:10630000F047C5881E1DB6FBF5F78946B6FBF5F1CB
:10631000044605FB176C407916686843DDF820A039
:10632000F718001F874200D9C61A166001E02468DA
:10633000491E0029FBD1A5EB0C078846B74216D8A9
:1063400018E004EB0C00001D09EB0803BAF1000F84
:106350003A4602D00146184600E01946FAF769F9B4
:106360002468F61B4FF0000CB844B54201D93746FB
:1063700000E02F46002EE4D1BDE8F08770B514464A
:1063800000230D4606461A4601F03EFD844201D91F
:10639000002070BD22462946304601F059FD0120FB
:1063A00070BD000030B5024651B101F023FD00215F
:1063B000074C08E034F821301568AB4202D1116077
:1063C000002030BD491C8142F4D3052030BD0000BF
:1063D0009403002010B50C460021E1606160034980
:1063E000A160012101F05CFD206010BD90BA0000A9
:1063F00003210148FBF7E4BEE0B3000070B58468F8
:10640000006804F11405FDF735F9C1B2A971E07F08
:106410006A790844B0FBF2F302FB13035B1C2B7098
:10642000E07F0844B0FBF2F35B1CAB70A07F084434
:10643000B0FBF2F35B1CEB70A07F0844B0FBF2F101
:1064400002FB1101491C6970284670BD10B531B1BD
:10645000B2FBF3F403FB14241CB1092010BD0E2081
:1064600010BD01600021416081608281C3810846C6
:1064700010BD70B50C460546F9F758FF002802D04C
:1064800021882868084470BD10B50A8849888A4266
:1064900003D1F9F78DFF012010BD002010BD70B5AC
:1064A0000C460546F9F767FF002802D06188286886
:1064B000084470BD10B50A8849888A4203D1F9F7AB
:1064C00051FF012010BD002010BD002100F00FB8C9
:1064D000002100F012B8012100F01EB8012100F0E7
:1064E00011B808B56A46F9F7B8FF009808BD08B5B5
:1064F0006A46F9F798FF009808BD08B56A46F9F7AB
:1065000092FF08BD08B56A46F9F780FF08BD08B5D7
:106510006A46F9F76FFF08BD08B56A46F9F776FFD6
:10652000009808BD08B56A46F9F7A4FF009808BDB1
:1065300008B56A46F9F7C0FF009808BD70B5044673
:1065400000252846FCF75AF82168626808689042DE
:106550000ED9401E08600178238BE26801FB0325F9
:10656000227A2168101AC0B20A79824200D20871D8
:106570000020FCF745F8284670BD70B505460C466E
:106580000020FCF73BF8E868298B201AB0FBF1F1FA
:106590002A681068431C13600170BDE87040002039
:1065A000FCF72EB810B530B1017A42680368891A39
:1065B000C9B21A6006E00E2010BD03681A68541CA8
:1065C0001C601170491EC9B2F7D200680021017128
:1065D000084610BD2DE9F0470646806888B0D0F81F
:1065E0004801C0F3400038B108B03046BDE8F0477C
:1065F0000022114600F04CBB012907D908B03046F3
:10660000BDE8F0471DA2022100F01ABB2049DFF8C7
:1066100084A0A1EB0A001C21B0FBF1F5002428E0C6
:10662000C4EBC4010AEB81034FF000091F68D3E9F2
:1066300001103A793F78411AB3F81880C01B5B69A2
:10664000C0B2642712FB07F7B7FBF1FC642710FB0D
:1066500007F7B7FBF1F7CDE90621CDE9041CCDE939
:1066600002700D4A08213046CDE9008900F0E8FAB1
:10667000641CAC42D4D308B0BDE8F087426164200A
:10668000617267756D656E7420636F756E7400005E
:10669000D4CC00009CCC000034C20000C20800F042
:1066A00007030120895C9840084070472DE9FF5F8F
:1066B0008B46164814499A46091A0F09914652F812
:1066C000046C0025804607E008EB05143046A168FD
:1066D000F9F7E8FF18B16D1CBD42F5D30BE02100BE
:1066E00009D0009804B04B465A46D446BDE8F04F56
:1066F0005DF804EB6047009804B03346BDE8F05FF6
:1067000003A2022100F09CBABCCB00009CCB00008D
:10671000496E76616C6964206261636B656E643A90
:106720002025730D0A00000070B515468268D2F866
:106730004841C4F3400424B11A46294600F0A8FA9F
:1067400005E031B1536804A2022100F079FA01207A
:1067500070BD002070BD000025733A2077726F6E07
:106760006720706172616D6574657220636F756E0C
:10677000740A000010B5044602290CD1A068D0F8B4
:106780004801C0F3400030B120460022BDE810406F
:10679000114600F07DBA064A06A1206900F0A2FD6C
:1067A000034A2069BDE81040093202A100F09ABDF9
:1067B000DDB9000025730000012907D0022909D1A5
:1067C0008168D1F84811C1F3400119B10022114686
:1067D00000F05EBA01A2022100F032BA506C65618D
:1067E00073652073706563696679206120737562D3
:1067F000636F6D6D616E642E0A0000001CB5012987
:1068000005D002290BD014D94FF0010112E002B0DB
:106810004FF00002BDE81040114600F039BA53684D
:1068200008A1CDE9001313680CA2022100F008FAB8
:106830001CBD002102B00023BDE810401A46FFF73E
:1068400073BF000020756E6B6E6F776E2070617283
:10685000616D657465723A200000000025733A2569
:106860007325730A0000000010B50446012901D009
:10687000012100E0002100231A46FFF755FF002800
:1068800009D1A168C1F83801E06840680068BDE836
:10689000104001F05EBC10BD3EB50546012901D097
:1068A000012100E0002100231A46FFF73DFF0028E8
:1068B00018D1E86840680468204601F047FCC0B27F
:1068C000642110FB01F2A168B2FBF1F2D2B2009296
:1068D000CDE90101A86804A20021D0F8383128468A
:1068E00000F0AEF93EBD00004C6F7374206C6F6712
:1068F000733A2025750A4D6178206C6F6720717599
:10690000657565207574696C697A6174696F6E3A32
:106910002025752525205B25752F25755D0A00002E
:106920007CB514460546012903D0022908D001216F
:1069300007E002B00022BDE87040114600F0A8B99F
:10694000002100231A46FFF7EFFE002809D16168F5
:1069500004A0CDE9000109A202212846236800F025
:106960006FF97CBD20756E6B6E6F776E20706172F3
:10697000616D657465723A200000000025733A2548
:106980007325730A0000000010B50446012901D0E8
:10699000012100E0002100231A46FFF7C5FE002870
:1069A00006D1A068D0F8481121F00401C0F84811C0
:1069B00010BD10B50446012901D0012100E00021DD
:1069C00000231A46FFF7B0FE002806D1A068D0F8D1
:1069D000481141F00401C0F8481110BD7CB51446BF
:1069E0000D460646022901D9012100E000210023BD
:1069F0001A46FFF799FE002811D1022D05D0304626
:106A0000FCF726FC60B10BA30BE061680AA0CDE99E
:106A100000010FA202213046236800F011F97CBD6D
:106A20000EA302B03046BDE870400DA2002100F078
:106A300007B900006F6E000020756E6B6E6F776E89
:106A400020706172616D657465723A20000000000B
:106A500025733A257325730A000000006F666600EF
:106A60004563686F207374617475733A2025730AE7
:106A70000000000010B50446012901D0012100E00A
:106A8000002100231A46FFF74FFE002806D1A06818
:106A9000D0F8481121F00801C0F8481110BD10B518
:106AA0000446012901D0012100E0002100231A46FB
:106AB000FFF73AFE002806D1A068D0F8481141F04F
:106AC0000801C0F8481110BD7FB50446012901D066
:106AD000012100E0002100231A46FFF725FE0028CF
:106AE00027D1A0680026D0F84051F5B101E0082E6A
:106AF0001BD20023092201A9284601F0ACFA9DF817
:106B00000C20A16809232846A031521C01F0A3FAE9
:106B1000A0683346A0300090029D761C05A200219B
:106B2000204600F08DF8002DE1D1A168002081F809
:106B3000A0007FBD5B2533645D2025730A00000043
:106B40007CB515460446012903D0022917D9012135
:106B500016E0A16801F11802193103F069FD00285F
:106B60001ED0A16850200FA24876A1681820087690
:106B700002B02046BDE87040042100F061B8002159
:106B800000231A46FFF7D0FD002809D1696814A038
:106B9000CDE9000118A2022120462B6800F050F830
:106BA0007CBD00004E6F20726573706F6E73652040
:106BB00066726F6D20746865207465726D696E61B0
:106BC0006C2C20617373756D6564203830783234B5
:106BD0002073637265656E2073697A650A00000030
:106BE00020756E6B6E6F776E20706172616D65746B
:106BF00065723A200000000025733A257325730A58
:106C00000000000010B50446012901D0012100E078
:106C1000002100231A46FFF787FD00280AD1064A03
:106C200006A1206900F05EFBA16850204876A168AB
:106C30001820087610BD0000F6B90000257300008A
:106C40000FB438B5044607A80090A068D0F84821D2
:106C5000520717D5C27E8A4214D0B0F81B50204686
:106C600004F064FB6A462069069900F054FBE9B21F
:106C7000204604F05BFB290A204604F039FB38BCAF
:106C80005DF814FB6A462069069900F044FBF6E7BC
:106C90002DE9F04F804689B017460C468648FCF730
:106CA000E9FC054684483638FCF7E4FC281A1FFA4C
:106CB00080F9814881A223380090D8F80800082183
:106CC00043684046FFF7BCFFD8F808004068FCF76F
:106CD000D1FC054678482338FCF7CCFC284482B226
:106CE000D8F80800002381684046FDF74DFD75A2E5
:106CF00000214046FFF7A4FF0FB304B300251CE0BA
:106D000005EB450A04EB8A0BDBF80400FCF7B2FC48
:106D1000064654F82A00FCF7ADFC311849450BD95A
:106D2000DBF80400FCF7A6FC064654F82A00FCF742
:106D3000A1FC30441FFA80F96D1CBD42E0D35E48CF
:106D40003638FCF797FC4844801C1FFA80F95A48F3
:106D500000904B465EA208214046FFF771FF09F103
:106D6000030086B20790002332465BA14046FDF740
:106D70000BFD002C52D000254EE000BF05EB450A6C
:106D800004EB8A0B54F82A00DBF804306BB350B3E1
:106D9000494956A23639CDE9001008214046FFF78F
:106DA0004FFF09F102000090DBF80400FCF762FCE1
:106DB000064654F82A00FCF75DFC06443E48363887
:106DC000FCF758FC31180098401A801EC1B24046AA
:106DD000FDF730F93A224849D8F8100000F082FA5D
:106DE0000098401C0AE0009301E040B100904B463F
:106DF00037A208214046FFF723FF079886B2DBF849
:106E0000081029B1002332464046FDF7BDFC02E0E0
:106E10004046FDF741F86D1CBD42AFD3D8F80800DD
:106E2000C068002845D0814600200446064603ADD0
:106E300002903246761C02AB012148460095FCF7D1
:106E4000C5FE029850B10068FCF714FCA042F0D9CE
:106E500002980068FCF70EFC84B2EAE7012E28D005
:106E600026A200214046FFF7EBFE00263246761CA4
:106E700002AB012148460095FCF7A8FE02980028C5
:106E800017D0A11C8FB2006800903B4610A20821C9
:106E90004046FFF7D5FE0298FF1CBAB2416821B107
:106EA00000234046FDF770FCE0E74046FCF7F4FFA6
:106EB000DCE709B0BDE8F08FFCB90000257325734D
:106EC000000000004F7074696F6E733A0A00000092
:106ED0002020252D2A733A0053686F7720636F6D49
:106EE0006D616E642068656C702E00002020257333
:106EF000257325730000000038300000537562636D
:106F00006F6D6D616E64733A0A0000008068D0F89E
:106F10004801C0F3400070472DE9F0411E46054688
:106F2000069F00F013F804000DD166B13946E868F9
:106F300000F03CFC002802DA0420BDE8F081E8689B
:106F40000121C06841712046F7E7000070B5044692
:106F5000C068154623464068846060680268166809
:106F6000254AB047002845D1606901F063F8002840
:106F700040D1A168C1F83C01A168C1F840014FF4BB
:106F8000A671A068F9F77CFBA068D0F8481141F021
:106F90002001C0F84811A068D0F8481165F38201BB
:106FA000C0F84811A068D0F8481141F00801C0F8B5
:106FB0004811A1680120124B0870A1685020114AA5
:106FC0004876A1681820087600210C48D21A06E0FD
:106FD00003EBC1046468246840F82140491CB1EB0C
:106FE000D20FF5D3072A04D9D108074B0422F9F7A9
:106FF000D2FA002070BD000099390000740300200F
:107000005CCB00009CCB0000D1A500000023FCF766
:107010006DBD000010B504468068102100F5A47015
:10702000FFF77AFAA0680078F8B101281DD002288D
:107030001BD12046FCF7CFF900212046FCF70EF9C2
:1070400098B110A2032120462368FFF7F9FD2046DE
:10705000FCF7FEF848B1A3680AA2082120462033B5
:10706000FFF7EEFD2046FCF7AFFF206900F047F97F
:10707000A068BDE810406FF0100100F5A470FFF7A4
:1070800036BA00002573000070B5044680680078A9
:10709000012801D0082070BD606801688A6800215D
:1070A000904705000FD10821204604F03FF9012147
:1070B000204604F01DF905A1206900F013F9022112
:1070C0002046FCF7C3FA284670BD00000A0A0000FB
:1070D00000F180400068002800D00120704708B50A
:1070E00000F18040002101600068009008BD0000B0
:1070F00010B50020FBF782FA074C6068401E606004
:10710000606818B901F05AFB00206070BDE81040BB
:107110000020FBF775BA0000A808002070B5104DDC
:107120000446687838B114B16168002088470020AF
:10713000FBF764FA0CE00020FBF760FA24B1084882
:1071400021460830FEF788FC686808B901F02AFB80
:107150006868401C6860BDE870400020FBF750BACA
:10716000A808002070B50C4C0125207808B18526B0
:107170000BE00020A06060602061E060074801F043
:107180003BFB064601F0F4FA257001F0E3FA00B18A
:10719000A570304670BD0000A80800206D3B0000BF
:1071A00002480068C0F30040704700001804004027
:1071B00070B5104D0446A87838B114B1616801204B
:1071C00088470020FBF71AFA0CE00020FBF716FABC
:1071D00024B1084821461030FEF73EFCE86808B9A3
:1071E00001F046FBE868401CE860BDE87040002004
:1071F000FBF706BAA808002010B5074C217809B1A2
:10720000852010BD00B9054801F054FC0028F8D1D4
:107210000121217010BD00001C01002088B5000074
:1072200010B5044600F007F8204601F0BFFC01F05D
:10723000B6FC002010BD10B501F0AAFCBDE810405E
:1072400001F0BEBCF0B505460478154889B0164675
:1072500040F82420124A08690832A2F10C0742F8CB
:107260002400487F385520226846F9F7E2F9049453
:107270002878385C48B10EB10A4A00E0002269461D
:10728000281D01F083FE09B0F0BD0EB1064A00E0F2
:107290000022694605F10C0001F0C2FCF3E7000092
:1072A0002401002081AA0000C9A8000030B403789E
:1072B000054CE35C1BB130BC001D01F035BF30BC98
:1072C0000C3001F097BD0000200100200178044A35
:1072D000515C11B1001D01F08BBF0C3001F0EEBD0F
:1072E000200100200FB408B50399002904D004AA96
:1072F00000926A4600F00FF801B05DF814FB10B57B
:1073000082680446002A05D0D4E90403216898471E
:107310000020A06010BD2DE9FC4791460C0080467E
:1073200076D014F8011B39B125290ED04046FBF761
:10733000C9FC20780028F4D198F80C00002867D008
:107340004046BDE8FC47FFF7DABF00200122217864
:107350002B291BD02D2902D0302908D102E040F082
:10736000010001E040F00200641C002AEFD100257A
:107370002A290ED02178A1F130020A2A11D205EB78
:10738000850201EB4205641C303DF1E740F004004A
:10739000EAE7D9F800100B1DC9F800300968641C31
:1073A0000D44217800232E290BD114F8011FA1F1DF
:1073B00030020A2A05D203EB830201EB4203303B81
:1073C000F3E76C290DD068290BD0692921D00BDC9B
:1073D000252918D0582931D063290ED0642915D118
:1073E00017E014F8011FECE7702969D0732932D037
:1073F00075291BD0782909D120E0D9F80000011D9A
:10740000C9F8001001784046FBF75CFC641C90E76B
:107410006CE0D9F800100A1DC9F800200968CDE910
:1074200000500A224046FEF75DFAEFE7D9F8001057
:107430000A1DC9F8002009680A2206E0D9F80010E0
:107440000A1DC9F8002009681022CDE90050404605
:1074500003F0B8FBDAE7D9F8001000270A1DC9F8D5
:1074600000200E68C00705D112E04046761C7F1C44
:10747000FBF728FC31780029F7D104E020214046B1
:107480006D1EFBF71FFCBD42C0D9002DF6D1BDE734
:107490004EB13046F9F7FFF8074604E02021404698
:1074A0006D1EFBF70FFCBD4206D9002DF6D103E09F
:1074B0004046761CFBF706FC31780029F8D1A5E799
:1074C000D9F80000011DC9F80010056830214046B8
:1074D000FBF7F8FB78214046FBF7F4FB082000217E
:1074E000CDE90001034610222946B0E7BDE8FC873C
:1074F0002DE9FF411C46DDE90A7815460E4668462F
:1075000000F0C2F846EA450141EA840141EA072257
:1075100042EA0841009A00EB8200C0F80017BDE87B
:10752000FF812DE9FF411C46DDE90A7815460E462C
:10753000684600F0B7F846EA450141EA840141EAAD
:10754000072242EA0841009A00EB8200C0F80017C7
:10755000BDE8FF812DE9FF411C46DDE90A781546AB
:107560000E46684600F0ACF846EA450141EA84015F
:1075700041EA072242EA0841009A00EB8200C0F883
:107580000017BDE8FF812DE9FF411C46DDE90A78BF
:1075900015460E46684600F0A1F846EA450141EA64
:1075A000840141EA072242EA0841009A00EB820086
:1075B000C0F80017BDE8FF811CB5002100910B4603
:1075C00001220191FFF7C6FF1CBD1CB500210091EF
:1075D0000B4601220191FFF7D6FF1CBD1CB500220E
:1075E0000B46009211460192FFF7B4FF1CBD1CB57B
:1075F00000220B46009211460192FFF7C4FF1CBD0A
:107600001CB5002100910B46012201911146FFF7A4
:10761000A1FF1CBD1CB5002100910B460122019168
:107620001146FFF7B0FF1CBD13B50C46684600F0CD
:1076300039F8009900EB8101D1F8002722F440329B
:10764000C1F80027009900EB8100D0F8001741EA4B
:107650000441C0F800171CBD3CB50A4CD4E9003405
:10766000CDE900346B46441808E000BF53F8201001
:10767000D1F8205520C2C1F82055401C8442F5D8CD
:107680003CBD00008CB500000168202902D24FF0FB
:10769000A040704701F01F010160014870470000E1
:1076A000000300500168202902D24FF0A04070472B
:1076B00001F01F0101600148704700000003005005
:1076C0000168202902D24FF0A040704701F01F014D
:1076D0000160014870470000000300500168202944
:1076E00002D24FF0A040704701F01F010160014835
:1076F000704700000003005042094FF0000102D023
:10770000012A05D102E04FF0FF3101E04FF6FF7191
:1077100000F01F00012282400A4201D00120704780
:107720000020704701B56846FFF7BCFFD0F8100590
:107730000099C84000F0010008BD01B56846FFF798
:10774000BFFF009A01219140C0F8081508BD01B59E
:107750006846FFF7C3FF009A01219140C0F8081561
:1077600008BD38B501240090684631B1FFF78CFFA1
:1077700000998C40C0F8084538BDFFF785FF009997
:107780008C40C0F80C4538BD034908B508440021B9
:1077900001600068009008BD006000400249405848
:1077A000012800D000207047006000402DE9F04122
:1077B000054620480E460024D0F8103419460AE049
:1077C000CA681179A14205D1641C0A2CF6DB4FF07E
:1077D000FF342BE011680029F2D1611C26D0E96842
:1077E0000C71D0F8101459B1C968EA6809681160C1
:1077F000D0F81004C06805600027DFF83C8011E075
:10780000C0F81054E96800200860F5E708EBC700ED
:10781000C279B24200D33246E8683946007900F0B6
:1078200017FB7F1C00F0E6FAB842EFD82046BDE80F
:10783000F0810000C80F0020BCCB0000406801218F
:107840008068FBF70BBD10B540688468606801680C
:107850008A680121904718B10420A168087010BD02
:107860000320FAE72DE9F3414468A668B068007880
:1078700004281ED0032807D0002501A9206800F0A5
:1078800073FC85F0010709E00125F6E7394630462B
:10789000FBF7E4FC01A9206800F066FC0028F5D1A4
:1078A000019800F0C3FB002D03D000213046FBF708
:1078B000D5FCBDE8FC81F0B595B01C4615460F46D9
:1078C00008461A9E00F0B2FB182109A8F8F7D8FE66
:1078D0000E96CDE909540023082203A9384600F08A
:1078E000BAFB05980690BDF81000ADF81C00BDF875
:1078F0001200ADF81E0000208DF821000398082624
:1079000000F00300012802D0022818D032E00398CA
:107910003346850AC0F3C2008DF8200003980FA9F2
:10792000C0F38314A200384600F095FB09A800902C
:1079300006AB22460FA9284600F0D4FA1AE00398B5
:10794000840DC0F3C2008DF82000082C01D225461A
:1079500000E0082533462A460FA9384600F07BFB95
:107960002E44641B09AB06AA29460FA800F09AF919
:10797000002CEAD1384600F05FFB15B0F0BD70472F
:10798000084810B50178084A515C19B1001D01F092
:107990002FFC02E00C3001F091FABDE8104000200D
:1079A00002F0B0BFD80200202001002008B5034A31
:1079B00000924023024AFFF77EFF08BDD59F0000DA
:1079C000300E00200A4A012902EBC00007D002292C
:1079D00007D0032907D0042907D0002070470220D0
:1079E0007047042070470079704740797047000065
:1079F000BCCB00002DE9FF5FFBF77CF918B100203C
:107A000004B0BDE8F09F8C4C0020C4F81804BFF30C
:107A10004F8F8A49A06800900D684FF000092840F8
:107A200004EB80000CE000BFD4F8180470B9616862
:107A30000098814201D8A160E1E7284004EB800072
:107A40000C306946FDF7E6FF0028EDD1002001A9C2
:107A5000A046009A02EA050308EB8303521CDB6888
:107A600041F82030401C00920228F2D3019800F027
:107A70000300022802D0012850D0BEE00198502215
:107A8000810D8A46B2EB905F00D850210C4664F31A
:107A90009F50C0F3C20701900831694800F07DFA99
:107AA0000600EAD000F0C2FA4B46082201A930468F
:107AB00000F0D9FA009909F1080B2940681A8000F2
:107AC000001D844223D95C4D0C3530B1C2B208EBA5
:107AD0008101201A91460C3104E02946E2B20025CA
:107AE00091462846C4B25B46304600F0BCFA0BEB28
:107AF00009032DB1224629464FEA060000F0B3FAE9
:107B000000990AF1030001EB900000903DE008EBC2
:107B100081015B46224630460C31EFE70198C0F305
:107B20008310062800D30620019960F38911C1F360
:107B30008310C1F3C207801C01918100404800F00E
:107B40002CFA060059D000F071FA4B46082201A920
:107B5000304600F088FA09F1080900240FE0009887
:107B60004B4600EA0501401C08EB8101009004220D
:107B700030460C3100F077FA09F10409641C0198D1
:107B8000C0F38310A042EAD8B6B3D8F81044D8F8AE
:107B900018044546F8B1304600F04EFA46E0E06879
:107BA0004179012915D10179BDF80800254A01EB79
:107BB000410152F8200007228A401040C840052F9A
:107BC00000D10327B84204D3226820463146126808
:107BD0009047E0680468002CE1D1304600F02CFAB0
:107BE0000020FAF70BFDD5F8180408B90098A86032
:107BF0000020FAF705FD19E0FFE7D8F8104405E08A
:107C00002168204689688847E0680468002CF7D11D
:107C10000D484088022809D30C480D49401AC00875
:107C2000022101EB00400BA100F01EF8FBF762F807
:107C300080F00100E4E60000C80F0020F4020020FC
:107C4000B8CC0000040400200004002094CC000004
:107C5000BCCB00004261636B656E647320666C751B
:107C6000736865640000000000231A4602F064BCDB
:107C700008B5012300926A4602F05EFC08BD3EB5DD
:107C8000069C8DE81C0003236A4602F055FC3EBDAD
:107C90007FB5DDE908458DE83C0004236A4602F023
:107CA0004BFC7FBD2DE9F0470E4680461C469246B0
:107CB000082940D894F80C900020207319461046EB
:107CC00002F010F80025B54206D218F805201BA1D5
:107CD0002046FFF707FB03E01AA12046FFF702FB4F
:107CE0006D1C082DEFD318A12046FFF7FBFA0025E5
:107CF000B54212D218F805707E2F08D8F8F73EFC6E
:107D00000068C05D10F03E0F01D03A4600E02E2220
:107D10000EA12046FFF7E6FA03E00DA12046FFF78B
:107D2000E1FA6D1C082DE3D301222146504601F0F3
:107D3000BBFF84F80C90BDE8F087000020253032AE
:107D400078000000202020007C0000002563000057
:107D5000200000002DE9F0471F494FF000081F48A0
:107D600081F8008000F066F9002832D11C4800F04C
:107D7000CDFB1C49DFF87090DFF870A0A1EB090083
:107D8000C608002414E000273D460CE0AC4209D0B0
:107D900059F8340059F835101422F8F7A7FC0028D8
:107DA00000DD7F1C6D1CB542F0D32AF82470641CE2
:107DB000B442E8D30020414654460D4D06E000BFD2
:107DC00004EB8002518045F82010401CB042F7D3EC
:107DD0000020BDE8F0870000C80F0020B8CC0000EC
:107DE000A0BA00009CCC0000BCCB00009403002093
:107DF0000404002002480349401AC00870470000EC
:107E00009CCC0000BCCB00007FB505461146002489
:107E100001A873B1FEF7C6FA98B90B480199072279
:107E200050F8210005EB45018A401040C840C4B21B
:107E300007E0FEF7B7FA20B90448019900EBC1004A
:107E4000847904B0204670BD04040020BCCB00003F
:107E500070B5114B00EB400003EB81040F4B02F0B7
:107E6000070203EB8101072303FA00F60D68824045
:107E7000B5432A4300200A604FEA000103FA01F5E6
:107E80001540CD40ADB2854200D92846C91C0A290B
:107E9000F4D3608070BD000094030020040400202F
:107EA00013B56846FEF77EFA08B100201CBD0248F3
:107EB000009950F831001CBDBCCB000070B50848DB
:107EC0000125D0F81044057007E0E068457121688D
:107ED000204649688847E0680468002CF5D170BDE9
:107EE000C80F00202DE9FF4781460C9D00200C465D
:107EF0002F7B2873984616462946184601F0F2FE55
:107F0000072E42D2DFE806F004090F161F2A3600BA
:107F100049462846FFF7E6F937E0494628462268F1
:107F2000FFF7E0F931E0D4E9002349462846FFF79E
:107F3000D9F92AE0A0680090D4E9002349462846F0
:107F4000FFF7D0F921E0D4E90201CDE90001D4E93D
:107F5000002349462846FFF7C5F916E004F108005A
:107F600007C88DE80700D4E9002349462846FFF7F3
:107F7000B9F90AE004F108000FC88DE80F00D4E950
:107F8000002349462846FFF7ADF90022294640461E
:107F900001F08AFE2F73BDE8FF872DE9F041058BC4
:107FA00080462D1F4819C01CB0FBF5F0C6B24046F4
:107FB000FEF7C4FA041E19D0002020710120607160
:107FC000E58000272546761EC4F800800BE0404679
:107FD000FEF7B4FA60B16179491C61712860054609
:107FE0007F1CC0F80080B742F1D32046BDE8F08185
:107FF000204600F002F80020F8E72DE9F04145792D
:1080000001466B1E002201E00968521C9A42FBD314
:108010000F680146002605E038460C68FEF7ADFA09
:108020002146761CAE42F7D3BDE8F0810121001D48
:10803000FEF757BAFEF7B6BA10B504460121001D87
:10804000FEF770FA10F0FF0F04D12046BDE8104093
:10805000FFF7D3BF10BD1CB501920122009201AA07
:10806000FEF74DF91CBD1CB501920022009201AA39
:10807000FEF745F91CBD08B500F1804001460068D7
:10808000002220B101200A600968009108BD104655
:1080900008BD70472DE9F0410446002790460E4682
:1080A0003846FAF7ABFA204600F038F830B1052729
:1080B0000020FAF7A5FA3846BDE8F0812068056887
:1080C000B8F1000F05D10168204600F046F821689C
:1080D0000860E268012A0CD0022A0ED0042A11D0CE
:1080E0006068082A13D005FB02013046F8F7A1FAB0
:1080F000DEE76068405D3070DAE7606830F81500F0
:108100003080D5E7606850F825003060D0E700EB9C
:10811000C500D0E90010C6E90010C9E70168086889
:108120004968884201D101207047002070470168EA
:108130000A6849688068884201D9491C00E000212A
:10814000914201D10120704700207047006880688B
:10815000704700680021816070478068884201D9BB
:10816000481C7047002070472DE9F04104464FF04D
:1081700000080E464046FAF741FA2046FFF7D7FFBF
:10818000070009D0207C38B14FF004080020FAF72E
:1081900037FA4046BDE8F0812068456841682046CE
:1081A000FFF7DBFF2168486037B12068016820468F
:1081B000FFF7D3FF21680860E268012A14D0022A81
:1081C00016D0042A19D0082A1CD06068314605FB55
:1081D0000200F8F72EFA204601F0DCFD21688A68DB
:1081E0008242D3D28860D1E7616830784855F2E79F
:1081F0006168308821F81500EDE76168306841F862
:108200002500E8E7D6E90001626802EBC502C2E991
:108210000001E0E72DE9F04F8146806889B0D0F891
:108220004801C0F3400038B109B04846BDE8F04FFE
:1082300000221146FEF72CBD012907D909B0484696
:10824000BDE8F04F1DA20221FEF7FABC2049DFF87D
:1082500084B0A1EB0B001C21B0FBF1F8002526E057
:10826000C5EBC5010BEB81042068D4E9026A87687D
:10827000204600F03FF86421794364224243B1FB79
:10828000F6F1B2FBF6F26369247CACB112A400BF34
:10829000CDE90664CDF800A00597CDE90120CDE930
:1082A0000361104A08214846FEF7CAFC6D1C45458B
:1082B000D6D309B0BDE8F08F0BA4E9E74261642092
:1082C000617267756D656E7420636F756E74000002
:1082D000F0CC0000D4CC00004E6F206F7665726643
:1082E0006C6F7700A8C500004F766572666C6F777B
:1082F0000000000010B504460020FAF77FF9204680
:1083000001F048FD04460020FAF77AF9204610BD36
:108310002DE9F0411F0015460E46044606D0A06820
:10832000FEF7DCF810B11120BDE8F081A068D0E9BB
:1083300003316068A3EB010C421C944507D1002077
:10834000286017B1A068FEF7C0F80020ECE703EA48
:10835000000201EA0007BA4201D3831A01E0181AA9
:108360000B1A28685B1C984200D203462B602068D9
:1083700010443060A0682A68C1681144C160E4E715
:108380002DE9F0410546806817468846001DFEF736
:10839000A5F810B11120BDE8F081A86881680069D6
:1083A0000C1A3868A04200D204463C60AA6869688A
:1083B0001069926808400A40824201D9161A01E009
:1083C0000E1A761CB44208D9296832460144404648
:1083D000F8F72FF9A41B0020B04429682246014475
:1083E0004046F8F726F9A9683A6808691044086118
:1083F000A9684861A868001DFEF767F80020CAE771
:108400002DE9F0410546174688468068FEF766F874
:1084100010B11120BDE8F081A8683C68816800694E
:10842000081A6968081A401C844200D304463C605C
:10843000A8686968806808400E1A761CB44208D99A
:108440002968324608444146F8F7F3F8A41B002097
:10845000B0442968224608444146F8F7EAF8A8687B
:108460003A68816811448160A868C160A868FEF715
:108470002CF80020CEE710B5826894681369E41ADE
:10848000A14201D9042010BD1944116182685161D3
:108490008068001DFEF719F8002010BD2DE9F0419D
:1084A0001E0014460F46054607D0A868001DFEF7BB
:1084B00015F810B11120BDE8F081A8688168406905
:1084C0000A1A09D06B681840194081420DD92668F4
:1084D00096420AD9226010E0002020601EB1A868F0
:1084E000001DFDF7F2FF0020E5E7814205D8191ACB
:1084F0002268491C8A4200D92160296808443860F2
:10850000A8682268416911444161ECE78268002152
:10851000916082681161826851618268D16082686D
:10852000516080680160704770B5826845689468E2
:108530001369E31AEB1A5B1C994201D9042070BD40
:10854000214491608268D1608068FDF7C1FF08B165
:10855000002070BD082070BD08B500224250405870
:10856000009008BD70B50D460646446804E0B26848
:108570002946904718B1246820680028F7D1206860
:108580002860256070BD40680068704741680868D1
:10859000002801D002680A60704702460020526835
:1085A00006E08B4203D108681060012070471A462C
:1085B0001368002BF5D170474058002800D00120E7
:1085C000704708B5002242504058009008BDD0F8CE
:1085D0000403084000D0012070474058002800D014
:1085E0000120704708B5002242504058009008BD55
:1085F00010B502F0D7FB8020FBF7AAFE817B012497
:10860000032902D00068002809D18020FBF79AFED8
:108610008440E143BDE81040014800F0A3B810BD1C
:108620006401002002064FF0010100F00F0001FA82
:1086300000F101D5044801E00348001D006808402E
:1086400000D00120704700001075024070B505464B
:1086500002F0A8FB2846FBF77BFE817B012403295F
:1086600002D00068002809D12846FBF76BFE844041
:10867000E143BDE87040024800F074B870BD0000EE
:108680006401002038B5054602F08CFB2846FBF754
:108690005FFE817B0124032902D0006848B11AE003
:1086A0002846FBF74FFE8440E1430D4800F05AF89E
:1086B00011E02846FBF746FE8440E143084800F0FD
:1086C00051F808480649006900900C398DF80250AD
:1086D000496868468847BDE8384002F071BB000031
:1086E000640100209CB5000002494058002800D0D9
:1086F000012070470070024010B50446FFF7F4FFF8
:10870000002806D0034900226250BFF36F8FBFF3E9
:108710004F8F10BD0070024003490860BFF36F8F98
:10872000BFF34F8F7047000000740240024800689A
:10873000002800D0012070472C75024004490844ED
:1087400001210160BFF36F8FBFF34F8F70470000AF
:108750000070024002480068002800D001207047E5
:108760000004014008B56A46F7F76DFD08BD00003A
:1087700009480168012011F0010F06D14FF0E021F6
:10878000C02281F800248431C867044A01211160A5
:10879000034908707047000000E100E01805004040
:1087A0003401002010B54FF48070FEF798FC0120D2
:1087B0008107C1F80403086010BD0000012010B556
:1087C0008107C1F808030002FEF789FC0749012070
:1087D000086007494FF001100A6802F00112824256
:1087E000FAD004490020487110BD00000400004088
:1087F0000C040040380100200649024600200B7995
:108800000BB1852070470A6001220A7100224A716B
:10881000704700003801002070B54FF48076304674
:10882000FEF756FC114CB50560B13046FEF757FC1B
:108830000120C5F80803607920B901206071216822
:10884000002088474FF482763046FEF741FC00282E
:108850000AD03046FEF743FC0220C5F80803216821
:10886000BDE870400120084770BD000038010020BD
:1088700010B54FF48270FEF732FC02204107C1F8B8
:10888000040302490120086010BD000008000040F8
:10889000002802D0014980010847704711B8000044
:1088A0002DE9F0410D46064601F076F900283046E4
:1088B00015D0FAF775FA083801F0EEF9032802D05E
:1088C00001280AD003E03046FEF72CFF28B103212F
:1088D0003046BDE8F041FEF7A7BE0221F8E701F0FF
:1088E00067F9002822D03046FAF75AFA04464FF4C6
:1088F000807000EB84000E4F81B207EB8400D0F84B
:10890000102542F00102C0F810250846FEF73CFF92
:10891000002D0BD03046FAF743FA064951F82000F3
:10892000002803D00120A040C7F80403BDE8F0816F
:1089300000600040BC0800202DE9FC41DFF8BC804D
:10894000044608EB0400002790F930001346C017D6
:108950000E46401C01D008274DE0B0781946C0F300
:1089600040022046FAF7F8F90546401C42D0B0789C
:1089700041071AD4C0070DD068460094FEF792FE56
:10898000009900EB8101D1F8000720F00200C1F846
:10899000000707E000217378204600910A46019104
:1089A000FEF7BFFD204601F0E9F8B078800718D542
:1089B0001348317800EB8500D0F81025114B1A4090
:1089C000C0F810254FF47C524FF4403302EA0422E1
:1089D00003EA01410A43D0F810150A43C0F81025F4
:1089E00009E008EB0500327810F8581F41EA8211BF
:1089F000017000E004273846BDE8FC81BC08002077
:108A000000600040FFC0FCFF10B5FEF78BFE0028A1
:108A100000D0012010BD000070B51A4D95F86A0015
:108A200008B1082070BD0024661E2046FEF764FED3
:108A300010B1281980F83060641CE4B2302CF4D3F3
:108A400000242046FAF77AF9641CE4B20C2CF8D31F
:108A50000C4800210C4C4166A0F868100B49C0205E
:108A600081F8000401264020891FC1F800014FF45D
:108A7000BE70FEF789FEA004C4F8040385F86A609E
:108A8000002070BDBC0800200060004006E000E04F
:108A9000034890F86A00002800D0012070470000C9
:108AA000BC0800200121B1EB507F01D101207047AB
:108AB000002070470F490A780AB185207047027874
:108AC0000D4BC2F340021A600B4A0078083A00F0DE
:108AD0000100106009480068012210F0010F06D162
:108AE0004FF0E020C02380F800348430C2670A7061
:108AF00000207047400100208005004000E100E0B8
:108B000070B54FF08040D0F80443204D600706D583
:108B10004FF48470FFF7AFFA08B168688047A00689
:108B200007D54FF48A70FFF7A6FA10B1A9680020A4
:108B30008847600607D54FF48C70FFF79CFA10B198
:108B4000A96801208847200607D54FF48E70FFF7EB
:108B500092FA10B1E96800208847E00507D54FF484
:108B60009070FFF788FA10B1E96801208847A005E6
:108B70000AD54FF49270FFF77EFA002804D0E96816
:108B8000BDE870400220084770BD00004001002091
:108B90004FF080414FF46070C1F8080370474FF008
:108BA00080414FF46070C1F804037047034900220C
:108BB000CA600068002800D0C860704740010020EB
:108BC00001490020C86070474001002070B50D4683
:108BD00001F0D4F804000FD00020F9F70FFD207940
:108BE00020B10020F9F70CFD112070BD0120256097
:108BF00020710020F9F704FD002070BD10B501F0D0
:108C0000BDF8002802D000210160017110BD0000F4
:108C10000149024801F09EBE2809002000200040C2
:108C20002DE9F0410546007916460F4600EB40015C
:108C30002D4A01EBC00102EB810494F82A1011B116
:108C40000820BDE8F081294951F820102868FFF775
:108C5000BDFF08B11120F4E739462846F9F7E4FCD6
:108C600066603869206030004FF001062FD03F7FEA
:108C70004FF48E712868FFF7A4FC4FF4A2712868A6
:108C8000FFF79FFC28681A49C0F8041328684FEAC8
:108C9000471140F30730002804DB00F1E02080F8A2
:108CA000001405E000F00F0000F1E02080F8141D32
:108CB000286840F30730002809DB00F01F0106FA9E
:108CC00001F14009800000F1E020C0F8001128689F
:108CD0000421C0F800150020A061E06184F829009B
:108CE00044F8140FA675ACE72809002094B50000DD
:108CF000800002002DE9F05F054600794FF401760F
:108D000000EB400303EBC000344B03EB8004002076
:108D1000636813B12B68C3F80863A3694FF00009B7
:108D20006BB1E06938B1606810B12868C0F80463BD
:108D30001120BDE8F09FE2610120216105E0C4F847
:108D40002490A261E160C4F81C9094F829100143BA
:108D500002D1284601F003F960680028286803D092
:108D6000C0F804630020E4E74FF4A2763146FFF731
:108D700028FCB2464FF4927B59462868FFF71CFC4A
:108D800006464FF484712868FFF716FC804651466A
:108D90002868FFF711FC074648EA07003043EBD08C
:108DA00056EA070007D12146286801F0A9F8A16911
:108DB000606A8142E0D8C4F818900EB10320B8E789
:108DC0000FB10F20B5E794F8291001200029296878
:108DD00001D00860C6E74860C4E700002809002009
:108DE00001684FF40172C1F8082300680121416055
:108DF000704700002DE9F05F054600790B4600EB57
:108E0000400101EBC000244901EB8004284600F03A
:108E100045F810B11120BDE8F09F62614FF00009E4
:108E2000C4F82090A36084F828904FF48E784E46C2
:108E300041462868FFF7C5FB28684FF0010AC0F8D3
:108E400008A02146286801F0DDFC606808BBD5F861
:108E500000B067690FE000BF94F8280008B10F2642
:108E600015E041465846FFF7A7FB0028F4D02146FD
:108E7000584601F0C7FC206AB842F2D35746414633
:108E80002868FFF799FB0028F9D02868C760C4F864
:108E900014903046BFE7000028090020007900EB5D
:108EA000400101EBC000044901EB8000406900284B
:108EB00000D0012070470000280900202DE9F0476C
:108EC000044600794FF0000900EB400101EBC000BF
:108ED000284901EB80072068C0F800957868B0B198
:108EE00020682549C0F80813206840F3073000289F
:108EF0000DDB00F01F02012191404009800000F1CC
:108F0000E020C0F88011BFF34F8FBFF36F8F206850
:108F1000D0F80C25D0F81485D0F80865D0F8105595
:108F20004FF0FF31C0F81415C0F80C152068C0F8D8
:108F30000815C0F81015501C02D01046FEF73CFB77
:108F4000B8F1FF3F02D04046FEF736FB681C02D066
:108F50002846FEF731FB701C02D03046FEF72CFB92
:108F60002068FFF74BFE87F82A90C7F80490BDE809
:108F7000F08700002809002084020200014902480D
:108F800001F096BD54090020002000402DE9F04179
:108F90000546164600790F46154A00EBC00102EB64
:108FA000810494F8201011B10820BDE8F081114926
:108FB00051F820102868FFF709FE08B11120F4E7E6
:108FC00039462846F9F76BFB6660386920601EB1A8
:108FD000397F2846FCF7DAFC28680821C0F800151C
:108FE0000020A061E0616061012184F82010DCE7CD
:108FF0005409002098B500002DE9F05F044600797F
:109000000E4600EBC001DFF8F0A017460AEB810521
:109010003046FFF747FDB0B168684FF000084FF4E5
:10902000047910B12168C1F80893A8694FF0000BCA
:1090300080B1E86948B1686810B12068C0F804934D
:109040001120BDE8F09F1020FBE7EF614FF0010811
:109050002E6102E0EE60C5E9067B00254FF48871C1
:109060002068FFF7BFFA4FF4A2712068FFF7BAFA41
:109070002068C0F83465C0F838752068B8F1000F72
:1090800012D0D0F8001241F02001C0F8001220796F
:10909000D04600EBC0010AEB8100406838B120687F
:1090A000C0F804932846CCE701210160EFE74FF4B4
:1090B000887A4FF4A27951462068FFF78EFA074666
:1090C00049462068FFF789FA06464FF492712068F6
:1090D000FFF783FA014647EA06000843EBD02279FE
:1090E00002EBC20308EB8302C2F818B001B10325FA
:1090F000002ED7D00F25D5E7540900200179094A61
:1091000001EBC10102EB8101C96931B10168D1F8FC
:10911000002222F02002C1F80022006801214160F3
:1091200070470000540900202DE9F04704460E4620
:109130000079274900EBC00001EB80051746304657
:10914000FFF7B0FC30B1204600F044F820B1112008
:10915000BDE8F0871020FBE76F61AE604FF49077B9
:109160004FF0000839462068FFF73CFA4FF4AC7620
:1091700031462068FFF736FA2068AA686969C0F8A6
:109180004425C0F8481520684FF00109C0F8089040
:109190006868D0B9BA4651462068FFF71EFA0746FC
:1091A00031462068FFF719FA0743F4D010B14FF0A9
:1091B0000F0808E02068C0F80C9031462068FFF7DF
:1091C0000CFA0028F9D0002068614046C0E7000092
:1091D000540900200079054900EBC00001EB800034
:1091E0004069002800D00120704700005409002089
:1091F0002DE9F047064600793D4900EBC00001EB40
:109200008005346868680127A8B13A49C4F8081392
:10921000306840F3073000280DDB00F01F0107FA2B
:1092200001F14009800000F1E020C0F88011BFF397
:109230004F8FBFF36F8FD4F8000220F02000C4F8E6
:109240000002A8694FF4A27820B141462046FFF7FA
:10925000C9F967604FF4AC7949462046FFF7C2F977
:10926000E760474649462046FFF7B7F90028F9D09E
:10927000A86928B139462046FFF7AFF90028F1D098
:109280004FF0000AC4F800A53068D0F80C25D0F8DB
:109290001495D0F80885D0F810754FF0FF31C0F85C
:1092A0000C15C0F814153068C0F80815C0F8101572
:1092B000501C02D01046FEF788F9B9F1FF3F02D0EA
:1092C0004846FEF782F9781C02D03846FEF77DF951
:1092D000B8F1FF3F02D04046FEF777F92046FFF78E
:1092E0008DFC85F820A0C5F804A0BDE8F08700003B
:1092F000540900201003420003490248C1F8040346
:1093000070470000041480010070024030B54C68C2
:109310009C4204D2002545600968016007E0436073
:109320000D68E41A05604C600868184408609A42A9
:1093300002D10CB1012030BD002030BD10B500F0CD
:109340001FFB0949D1F80403C1F8080307490020AD
:109350000860BFF36F8FBFF34F8F01F023FD044907
:109360000120087010BD000000700240007502402E
:109370005801002070B54FF40060FFF7CDF901F0FF
:10938000C9FD00F0C1F908B101F0E2FE4FF08050D4
:109390000025D0E94C1008290AD1124940F2E370A7
:1093A00008604020091D0860BFF36F8FBFF34F8F27
:1093B0000D49802008600C490020143108600B4CD6
:1093C00040F2FF10C4E9020501F0ECFCA570022098
:1093D000207000F099F9002803D0BDE8704001F03A
:1093E000D1BE70BD007802401C75024058010020BB
:1093F00001F0DABD10B5044601F0D6FD21064FF0AC
:10940000010004F00F0200FA02F001D5084901E062
:109410000749091D0A6882430A60BFF36F8FBFF3D3
:109420004F8F204600F0E0F80249C1F8080310BD54
:10943000107502400070024005490860BFF34F8F6D
:1094400040F480700860BFF36F8FBFF34F8F704799
:109450000C75024070B5044600F0C6F81A49C1F810
:1094600004032046FFF7DEF800282BD104F00F019B
:1094700022064FF0010505FA01F001D5134A01E07B
:10948000124A121D136803431360BFF36F8FBFF3BB
:109490004F8F200716D0200614D4082912D200209E
:1094A000F9F7ACF8204600F0BDFA2046FAF74AFF7B
:1094B00085400748C168A943C160BDE870400020ED
:1094C000F9F79EB870BD00000070024010750240B0
:1094D00058010020FFF7A6B82DE9F0410E460746D7
:1094E000FAF730FF05460020F9F788F8144C3807E2
:1094F00004D1A078874201D010241BE02089E168C4
:10950000C04380B20843012101FA05F5284201D089
:1095100011240FE03846FAF71BFF00218160326802
:109520000260726842608173E0680543E5600C4642
:1095300001F042FE0020F9F763F82046BDE8F08113
:109540005801002010B5FAF703FF808910BD10B54F
:109550000C46FAF7FDFE848110BD0000044940F47A
:1095600080700860BFF36F8FBFF34F8F70470000AC
:109570001875024000F00F01082901D30020704740
:10958000020607494FEA007001EB906002D5D0F85F
:10959000200401E0D0F844040128EFD17047000016
:1095A0000070024010B50446000606D42046FFF7BE
:1095B000E1FF10B1204600F035FA03480460BFF324
:1095C0006F8FBFF34F8F10BD18750240010601D594
:1095D000044901E00349123100F00F0031F8100096
:1095E0007047000034B60000010601D5044901E0CF
:1095F0000349093100F00F00095C012088407047E1
:1096000058B600002DE9F0470D460646FAF79AFED7
:1096100080460020F8F7F2FF254C300704D1A078EF
:10962000864201D0102433E02089E168C04380B233
:109630004FF00109084309FA08F7384201D0112414
:1096400026E03046FAF784FE06F00F01330601EB00
:1096500041014FF0000225D5164B03EB81012B6829
:10966000B9EB537F2B7A4FEAC37302D1B3B1124BDC
:1096700001E0ABB1114B036068CD81E86800C0E93F
:1096800001128273E0680743E760002401F094FD53
:109690000020F8F7B5FF2046BDE8F087084BEAE761
:1096A000084BE8E7034B6C3303EB8101064BE2E721
:1096B00058010020980A0020E197000079970000E7
:1096C000BD9700003D9700000D93000000F00F00D3
:1096D000082805D305480068C10300D5002070475D
:1096E000034901EB8000D0F8A0047047C074024029
:1096F000007002404FF08051D1E94C01082801D0A0
:1097000000207047012070474FF08050D0E94C2175
:109710000020082A03D10122002900D910467047F1
:109720004FF08051D1E94C01082801D0002070474A
:109730000120704700487047700B00202DE9F04170
:109740004D680C4E07460C46954200D915462A46F0
:1097500030462168F6F76DFFC7E900656068401B79
:1097600060602068284420606068002800D00120E4
:10977000BDE8F081700B00202DE9F0414C680E4FE0
:1097800006460D46944200D9144634B12246384666
:109790002968F6F74EFF376001E000203060746002
:1097A0006868001B686028682044286014B10120A4
:1097B000BDE8F0810020FBE7700B00204B6893426E
:1097C00000D913460A68C0E900234868C01A4860F7
:1097D0000868184408604868002800D001207047D5
:1097E0004B68934200D91346002B0ED0D1F80020CD
:1097F000C0E900234868A0EB0300486008681844EB
:10980000086005D04FF0010070474FF00002EFE70D
:109810004FF0000070470000014900204870704779
:10982000580100202DE9F0411C490A7812B10820A6
:10983000BDE8F081486001200024087046022546FA
:1098400044F0800707F00F00082801D3314600E0FC
:1098500040213846FFF77BFE3846FAF779FD8573DD
:10986000641C0560E4B28560092CE9D35FF0000454
:1098700004F00F00082801D3314600E040212046C3
:10988000FFF765FE2046FAF763FD8573641C0560EB
:10989000E4B28560092CEBD30020C9E75801002011
:1098A00003480078022801D3012070470020704748
:1098B0005801002002480078002800D0012070479D
:1098C00058010020014880787047000058010020AE
:1098D0005020FEF733BF4C20FEF730BF002101605F
:1098E00041601149096801700F49091D09684170FB
:1098F0000D49083109680C4A0C32126841EA02210C
:109900004180094910310968074A1432126841EA56
:1099100002218180044918310968034A1C32126807
:1099200041EA0221C1807047807402405420FEF752
:1099300005BF00000C4A002151700C4900B10C49D0
:109940000C48C0F804130C49C02081F800040A4AEE
:1099500001208021233AC2F8001108490860BFF3B2
:109960006F8FBFF34F8F7047580100200714C0015D
:109970000714E0010070024027E000E00475024097
:1099800070B50E4D8024C5F880422720F7F746FCBD
:10999000002812D001F088FB094900200860BFF3BD
:1099A0006F8FBFF34F8FC5F88041BFF34F8FBFF369
:1099B0006F8F0449401EC1F8080370BD04E000E049
:1099C000047502400070024010B500242046F8F7EC
:1099D00015FE0C48407878B101F066FB0A48016832
:1099E000890509D4094901220A600068800502D569
:1099F0000020086000E001240020F8F701FE204666
:109A000010BD000058010020007402402C75024077
:109A100003490248C1F8080370470000041480019C
:109A20000070024010B504460020F8F7E7FD20461C
:109A3000FAF788FC012181400B4882688A438260E2
:109A400004F00F00082809D2084A002102EB800028
:109A5000C0F8A014BFF36F8FBFF34F8FBDE8104065
:109A60000020F8F7CDBD0000580100200070024032
:109A70000248002141600170704700005801002039
:109A800010B500242046F8F7B9FD0F48407880B1A2
:109A9000FEF74CFE68B10D49002008600124FFF775
:109AA00029FE30B10A490B68094AC02014322BB193
:109AB00010600020F8F7A4FD204610BD49F2753370
:109AC0000B6010600B60F4E7580100202C75024019
:109AD00000EC064003490860034801680029FCD0F7
:109AE0007047000004E5014000E401402DE9F8431F
:109AF00017460C0005462BD0DFF870804646D8F894
:109B00000000F9F7B7FD3844C7B23068F9F7B2FD85
:109B1000A968497E081AB0FBF7F0C6B22046F9F7EB
:109B2000A9FDA968381AC7B2487FB0FBF6F206FB58
:109B30001202401C487782B123460DA20721284615
:109B4000FDF77EF839462846BDE8F843FAF772BAC1
:109B5000A96800204877BDE8F883009405A2072192
:109B60002846D8F80030FDF76BF8EBE7D00200206C
:109B7000257300000A2573257300000010B5054900
:109B8000C20800F00703885C01249C4020438854ED
:109B900010BD0000200900200449084490F930005D
:109BA000082801DB0120704700207047BC08002016
:109BB0000449084490F93000082801D20120704778
:109BC00000207047BC0800202DE9F84F314F0546B2
:109BD0004FF001090024381990F96010491C46D053
:109BE00090F86000294620F0C0063046FCF756FD8C
:109BF00070B3204600F050F8824668460096FDF7A4
:109C000051FD009900EB8100D0F80007C0F3014836
:109C1000B8F1020F1DD002213046FDF705FD684660
:109C20000096FDF73FFD009A09FA02F1C0F82015F1
:109C30003046F9F7B5F857F820204AB15046BAF146
:109C4000030F11D0B8F1020F05D0B8F1030F07D000
:109C50000DE00321E0E75046BAF1010F04D006E021
:109C60005046BAF1020F02D1014630469047641CBB
:109C7000042CB0D32A4602210020FDF7EDFC002081
:109C800055F820100029A5D1401C0228F8D3BDE8C2
:109C9000F88F0000BC0800200249084490F86000DA
:109CA00080097047BC08002010B50C46017A0529D0
:109CB00008D0407A38B1084808A102682046FDF76C
:109CC00011FB00E01AB106A12046FDF70BFB204670
:109CD000BDE81040FDF713BB4C03002025730000C6
:109CE0000D0A000038B5C3880D46044633B114A0F0
:109CF000009015A216A12846FDF7F4FA217A05294D
:109D00001CD0607A48B1A088FDF75CFE164951F876
:109D1000202016A12846FDF7E5FAA0880021FEF7CD
:109D2000BFF803461049207A143951F8202001B0B9
:109D30002846BDE830400EA1FDF7D4BA38BD00007A
:109D40001B5B306D000000001B5B313B33316D004D
:109D500025734C6F67732064726F70706564202880
:109D600025642925730D0A004C030020257300008B
:109D70003C25733E2025733A2000000003498842A9
:109D800001D10348704700207047000000200040C8
:109D90005001002001680A684968914201D3881A7D
:109DA00070478068801A0844401C704770B50546AB
:109DB000FAF74DFA134C40B1D4E904024FF0807128
:109DC000411842F10000C4E9041000212846FAF7C6
:109DD00081F930B1606820B1606800F059FC002062
:109DE000606001212846FAF775F918B1FAF758FDB5
:109DF000C4E90601284600F09DFC2846BDE87040F5
:109E000000F038B8A00100202DE9F04100260E70C6
:109E1000D0E902740D468046FAF742FD381A002355
:109E200064EB01011A461B1A8A4115DAB0F5350FA9
:109E300004D3F7F7C1FA0D49421800E03A464FF44F
:109E4000960300210A48FAF70EFA10B10D2807D040
:109E50000AE00120BDE8F08100210548FAF730F959
:109E6000404600F015FC28700020F3E7FFFFB40027
:109E7000A8010020F8B5204C064600251F48FEF733
:109E800082FB10B3D0E90210CA4372EA000224D068
:109E9000626882B16368D3E90223891A984127D2A4
:109EA0006068D0E90210C94371EA000103D061681B
:109EB0001248FEF757FB00F021FB07466946FFF703
:109EC000A3FFB0B1606858B10DE0606800280FD101
:109ED0003046BDE8F840FAF7C2B900F00FFBCDE715
:109EE0003046FAF7B8F967609DF800000028C5D140
:109EF000F8BD6560C2E70000A00100207CB600004C
:109F000070B5054688690C4600284FF484712846D0
:109F10000AD0FEF756FBD5F81805626AE168885446
:109F2000606A401C606270BDFEF74BFBD5F81805F7
:109F300070BD1FB501238DF80030CDE90121D0E9B6
:109F40000012684690471FBD1FB501238DF80030F1
:109F5000CDE90121D0E90012684690471FBD10B538
:109F6000044600684FF49271FEF72BFB4FF48471A6
:109F70002068FEF726FB20680121016010BD00006B
:109F80007CB50446FF20009001236A4601A9E068E1
:109F9000FEF7BEF9002819D1009A002A16D0606990
:109FA0000B4D01990378D2B2EB5C1BB1001DFFF79A
:109FB00023F802E00C30FEF79DFE002806D1A068D1
:109FC000224640F266610068F7F73AFA7CBD00006D
:109FD0002001002070B50D4C0020D2B22070201D51
:109FE0000B4D0378EB5C1BB1001DFFF79DF802E001
:109FF0000C30FEF7FFFE08B1F7F7D2F960780028C1
:10A0000002D021780029FAD070BD0000D4020020CF
:10A0100020010020002070472DE9FE4F08790C46F2
:10A02000012804D0022809D0032875D162E0B4F8D1
:10A03000070000285CD01222384967E0B4F8070016
:10A04000002855D0092800D90920814609264FF05B
:10A050000008F7F733FB05464FF0000A16E000272B
:10A06000CDF800A000E07F1C686801230022D0F832
:10A0700004C029466846E0470028F4D1297A3E44C6
:10A0800001EB080000F0FF0828680568002DE6D104
:10A0900002A8F7F7DBFC214905464A461231F6F7DC
:10A0A000C8FA85F804806E80F7F748FB18B1E879A4
:10A0B00040F02000E871F7F701FB0146184880E8FE
:10A0C0002202B4F80710C1600020F8F797FA13498C
:10A0D00080200839F7F7FCFC040005D10F498020E7
:10A0E0001039F7F70FFC04460020F8F789FA2046EC
:10A0F000BDE8FE8FB4F807000028F9D0E078B4F886
:10A100000510F8F723FA010006D00A7803B0601CA6
:10A11000BDE8F04FF7F76ABC0620E9E7E0B60000BB
:10A120000C0E002038B54A7812F0600F36D13B4C47
:10A1300012064FF0000533D58A7822B1062A15D0D1
:10A14000082A2BD116E00B466846F7F77FFC01463C
:10A150000580007840F00100087062785208D2074C
:10A1600002D040F002000870022213E0BDE838403F
:10A17000FFF752BF0B466846F7F768FC01462078A8
:10A18000052802D0042803D008E00120087000E070
:10A190000D700122581CF7F729FC38BD062038BD88
:10A1A00088780A28FAD2DFE800F0051105060505CF
:10A1B00005050520F2E7B1F803000128EED1F7F715
:10A1C000BDFA80B1607840F0020009E0B1F8030008
:10A1D0000128E3D1F7F7B2FA28B1607820F0020045
:10A1E0006070002038BD0F2038BD2078052803D0CE
:10A1F000042801D0082038BDC87818B1012805D03E
:10A20000072038BDF7F770F9042002E0F7F782F96C
:10A21000052000F039FD284638BD0000100200205E
:10A22000F8B50546407810F0600F3FD120486C79B2
:10A23000A978007821B1012923D0032936D111E072
:10A24000052801D0200727D16846F7F7FFFB06460F
:10A250002046FFF78FF9308002223146681CF7F75D
:10A26000C5FBF8BD04F00F0108291FD2B5F8031093
:10A27000E1B921071AD005280ED12046FFF76EF963
:10A2800012E004F00F01082910D2B5F8031069B9E3
:10A2900021070BD0052801D00820F8BD2046FFF784
:10A2A000CBF82046FFF77EF90020F8BD0620F8BD68
:10A2B0001002002030B4044658780D460106C0F361
:10A2C00041102ED510B1012828D104E0294620469E
:10A2D00030BC00F0C1B811469A781846012A04D063
:10A2E000022A0FD0032A19D112E00179012903D0E3
:10A2F000022901D0032911D1A96920460A6830BC7E
:10A3000019461047C278083111440122581C02E056
:10A310000122581C0C3130BCF7F768BB30BC06205A
:10A3200070470028FAD00128F8D12946204630BCD1
:10A3300000F044B8F8B50B4651780646144611F0C3
:10A34000600F25D11C480906A17800781ED511B1EF
:10A350000A291DD109E005281ED16846F7F776FBCA
:10A3600001460020088002220CE0052814D168462E
:10A37000F7F76CFB054619463046F8F70CF82870DD
:10A3800001222946601CF7F731FBF8BD0B2901D0EB
:10A390000620F8BD052801D00820F8BDB4F8030058
:10A3A000FF2801D90720F8BDD27819463046BDE80C
:10A3B000F840F7F7CDBF00001002002070B59E787E
:10A3C0000D46092E06D0002401210A2E0ED00B2E98
:10A3D00040D131E01979022901D003293AD1A96984
:10A3E0004A687AB3BDE8704019461047DE7802F13A
:10A3F00008001D793554DD784FF4006002EB8505C7
:10A400006861187938B182F82810D87808B182F8D4
:10A410002910002070BD01201118097A0029F8D1F7
:10A42000401CC0B20428F7D382F82940107A0028D3
:10A43000EFD182F82840ECE7B3F803301BB10123D9
:10A44000117302E006E0002314731A46294600F057
:10A4500031FFDEE7062070BD2DE9FE4381465878C6
:10A460001C4600F01F000D46012833D1A0780628B5
:10A4700030D1002001902779E67802A8F7F7E6FAB4
:10A480008046A7F12100022824D201A8009043466B
:10A49000324639464846F7F7B1F8C0B1A8690169B4
:10A4A00048468847B04215D9A869314642694846AE
:10A4B00090470746A8690022314683694846984775
:10A4C00001463A46601CF7F791FABDE8FE83414623
:10A4D000019AF7E70620F8E70022CA604A60054AB9
:10A4E0008A60052803D2044A52F8200000E00020C8
:10A4F0000860704790BA00000C0300200148FEF786
:10A5000045B800007CB60000C207002A03D000BF97
:10A510004FF00F0201E04FF0F00201D04FEA0111BD
:10A52000044B03EB5003187800EA020040EA0100F4
:10A5300018707047B00B00202DE9F84F07462248ED
:10A540009146884605681E46012269461846F8F776
:10A5500073FBDFF878A060B3009800210446801CEC
:10A560000AE000BF00EA050259F821C00AEB8202A6
:10A57000401C491CC2F80CC0B142F3D34FEA174942
:10A58000F9F794FD611C29400AEB810149EA004278
:10A590002C40CA600AEB8401C86867F3C50066F303
:10A5A000891068F39F2020F00300401C20F0040075
:10A5B000C8609AF8000001E0FDF71CFA0028FBD102
:10A5C000FBF76CFCBDE8F88FF4020020C80F0020F8
:10A5D00009680068F6F766B870B50546F7F7E4FF56
:10A5E000124C06462078F7F7DFFF86420AD028464D
:10A5F000F7F7DAFF20B104F11C00FCF78FFD01E052
:10A60000FCF776FD2846F7F7DCFF06462078F7F7DB
:10A61000D8FF864208D02846F7F7D3FF10B1FEF7DF
:10A620006BFE01E0FFF7F4F9257070BDEC0100202E
:10A630002DE9F04115460E460446F9F733FC78B98A
:10A64000A068FA21077D90F816802046F9F7F2FC01
:10A65000FA212046F9F7A2FB2046F9F723FC10B1B6
:10A660000620BDE8F081A068007D3070A068807D84
:10A6700028703078C01BC1B22046F9F701FC297858
:10A68000A1EB0800C1B22046F9F7E0FC0020E8E7A2
:10A6900070B504461E480025007860B35CB3FAF735
:10A6A000FFF8D4E90223801A994125D30020F7F757
:10A6B000A5FF206910B9681EC4E902000020F7F761
:10A6C0009FFFD4E9051088470020F7F797FF22691C
:10A6D00072B1D4E90210CB4373EA000308D08918A1
:10A6E00040F10000C4E902100020F7F789FF07E0FD
:10A6F0000020F7F785FF08E0D04370EA030004D09C
:10A7000021460448FDF72EFF0125284670BD0000B4
:10A71000A00100207CB600004069054A0178515C28
:10A7200011B1001DFEF7EABC0C30FEF759BB00006A
:10A730002001002038B51D4D69462868FBF7AFFEA3
:10A740001B4C30E0017821B101290ED0022922D121
:10A7500017E04168D1E90220D24372EA00021AD020
:10A7600012480830FDF7FEFE15E04168606881423E
:10A7700002D1002060600EE00C480830FDF70DFFAC
:10A7800009E0FFF7BBFE20B14FF0FF31C0E9021135
:10A79000F7E70120207069462868FBF775FE6946D7
:10A7A0002868FBF77CFE0028CCD138BD74B60000C9
:10A7B000A0010020F8B50B4C0D46064669462068FE
:10A7C000FBF757FE58B10670456069462068FBF7F5
:10A7D00071FE10B10448F9F727FD0020F8BD0420F0
:10A7E000F8BD000074B60000A8010020034880688E
:10A7F0004108034800224068F6F722BE68010020A5
:10A800006CB6000070B50C4605464FF48E71FDF72E
:10A81000D8FE216AA068415C206A401C2062C5F80D
:10A820001C1570BD1FB500228DF8002002918168B3
:10A8300001914261D0E90012684690471FBD1FB5E3
:10A8400000228DF800200291816801914261D0E9D7
:10A850000012684690471FBD7CB5FF26054600964E
:10A8600000780C46B8B1012806D0022812D1297A06
:10A87000E068FDF759FE0AE0297AE068FDF754FE2A
:10A88000287A20B16068D0E9002100209047204656
:10A89000FFF776FB7CBD297A2069FDF7ECFD009679
:10A8A00001236A4601A92069FDF7F8FD009820B14F
:10A8B000C2B260690199FCF7F9FC6068D0E9002137
:10A8C000012090477CBD00001FB50A4601788DF835
:10A8D000001041680191017A8DF80810C06803905A
:10A8E000044850F82210083850F822206846904753
:10A8F0001FBD00002C010020014901200870704795
:10A90000D402002010B588B0044620220E496846C3
:10A91000F5F78FFE06200090C01F01900290039073
:10A920004FF0EB7006900CB1084A00E00022694637
:10A930000748FCF787FC08B1F6F732FD0448001F12
:10A94000447008B010BD000070BA0000F9A8000003
:10A95000D80200202DE9FF470C4605464FF4007150
:10A96000FDF735FE01274FF40178002618B34FF4A8
:10A97000927949462846FDF71FFEE0B14946284630
:10A98000FDF71FFEC5F8088394F8290000B96F6031
:10A9900002208DF80000D5F88004C5F880040390EB
:10A9A000A0690290E0680190A661E661D4E9001216
:10A9B0006846904728E004212846FDF708FE18B3B2
:10A9C0004FF484712846FDF7F7FDE8B1214628468B
:10A9D000FFF796FA616AA069884215D1E06938B13B
:10A9E000E268616AA0612069E6616662E06008E091
:10A9F00094F8290000B96F60C5F80883A661E26881
:10AA0000616A2046FFF795FA4FF48E784146284652
:10AA1000FDF7D2FD80B16069216A814202D294F8CB
:10AA2000280028B341462846FDF7CBFD606918B1E0
:10AA300061692046FFF7F6FE4FF4A27841462846AA
:10AA4000FDF7BAFD002818D041462846FDF7B9FDAC
:10AA500094F8290000B12F60A06900280DD0A661EC
:10AA6000E268616A04B02046BDE8F047FFF761BACA
:10AA700021462846FFF7C6FEDEE7BDE8FF87000057
:10AA80001FB50A4601788DF8001041680191017ADE
:10AA90008DF80810C0680390044850F82210083858
:10AAA00050F82220684690471FBD00002C0100206E
:10AAB0002DE9FF410C464FF4927705463946FDF7E4
:10AAC0008CFD0026B8B139462846FDF78BFD0220E3
:10AAD0008DF80000D5F88004C5F880040390D5F8FF
:10AAE0003C050290E0680190A661E661D4E900129D
:10AAF0006846904723E04FF4887739462846FDF7AB
:10AB00006CFDE0B139462846FDF76CFDD5F83C15E3
:10AB1000A069884213D1E06960B1E268D5F800020B
:10AB200020F02000C5F80002E069A0612069E6611C
:10AB3000E06001E0A661E2682046FFF705FA4FF405
:10AB4000A27739462846FDF748FD68B139462846C0
:10AB5000FDF748FDA06938B1A661E661D5F83C155E
:10AB60002046E268FFF7F0F94FF490763146284628
:10AB7000FDF733FD60B131462846FDF733FD012076
:10AB8000E860606920B1D5F84C152046FFF757FE04
:10AB90004FF4AC7631462846FDF71FFD00280ED055
:10ABA00031462846FDF71EFD6069002807D0D5F81C
:10ABB0004C1504B02046BDE8F041FFF740BEBDE8AB
:10ABC000FF8100002DE9F05F8346DDE90A4A9946DE
:10ABD00090460D460846012703E000BFB0FBF8F0A1
:10ABE0007F1C4045FAD2B94500D94F465FEACA708A
:10ABF00012D18CB15FEA8A7002D5B9F1000F01D091
:10AC0000202607E0302605E031465846641EF8F756
:10AC100059F80CB1A742F7D35FF00106B9F1010F63
:10AC200002D9A9F1010903E0B5FBF6F0404502D3D2
:10AC300006FB08F6F2E7DFF83C9000BFB5FBF6F044
:10AC400000FB165519F800105846F8F73BF8B6FB0C
:10AC5000F8F6002EF2D15FEACA7009D0002C07D0B6
:10AC6000A74205D220215846641EF8F72BF8F5E7D5
:10AC7000BDE8F09F1CBA000002480068002800D020
:10AC8000012070471802002007490A78824209D043
:10AC90000870052803D0487820F002004870034867
:10ACA000F6F7AEBF7047000010020020CCB60000DF
:10ACB0002DE9F04F804648688BB092464FF001096D
:10ACC0000C4628B920680068006808B9A06850B12F
:10ACD00000260996FEF72EFDE76883465046574545
:10ACE00057D9074655E04FF00009C8F80090C8F85A
:10ACF000049052E0A068B84201D93D4600E0054604
:10AD0000616839B10BEB06002A46F5F792FC00208A
:10AD100060600CE058B121680BEB06022B464868D6
:10AD2000D0F804C004F11000E04701200990A068A9
:10AD3000A7EB0507401BA060E1682E44A1EB0501CD
:10AD4000E16005D1099A1AB122681268126822607E
:10AD500009B1F0B902E04FF000091AE020680028BC
:10AD60004FF0000001D0009009E060609EB15645B0
:10AD700011D24FF000090EE0A068401CA0602168CD
:10AD800001230022486845686846A8470028F3D197
:10AD90002061002FAED1C8E900B60BB04846BDE82F
:10ADA000F08F000010B5FEF7BBFC002108B102488F
:10ADB00001600248C17010BD1C7C02405801002097
:10ADC0002DE9F04F4D4E89B0F078002840D18146F2
:10ADD0004FF0010A38E000BF10F0012F01D000F061
:10ADE000012090FAA0F0B0FA80F08046F7F7B6FCA8
:10ADF0000446F9F7ADFA0546200605D5D5E9003138
:10AE0000AA8905A8984726E02046FEF75FFCD5E909
:10AE1000007183460346AA8905A8B8470599D1B1B0
:10AE2000069A5A4517D20220A8730AFA08F0C143BD
:10AE300032480C30FDF796FC3148006B00908DF8DD
:10AE40000240716868468847D6E902100840C3D1BD
:10AE500009B0BDE8F08F08B9C5F80090FEF760FCB6
:10AE600010B128498220086086F803A0B1680AFA68
:10AE700008F08143B160A868069923060844A860D9
:10AE8000DDE90510204A04F00F030ED5082B03D38B
:10AE90001E4A1160111D0DE003EB830302EB8302D8
:10AEA000C2F80016C2F804060EE0082B04D3184AB4
:10AEB0001160111D086007E003EB830302EB8302BE
:10AEC000C2F80017C2F80407200601D5042100E0EB
:10AED000282104F00F0001EB8000FDF72FFC4FF458
:10AEE00080752046FEF772FBFDF7FEFB0028AFD110
:10AEF0002846FDF7F9FB0028F3D0A9E75801002008
:10AF00009CB500001C7C024000700240A07602400C
:10AF1000A077024070B5FEF7F7FB08B100F018F912
:10AF2000FEF7E8FB1D4C1D4E49F27535143C48B147
:10AF30000020F7F763FB2168C02031B330600020A8
:10AF4000F7F75EFB164901200860BFF36F8FBFF370
:10AF50004F8F144AC00211680142FCD0FDF7DCFBA0
:10AF6000FEF7C8FB48B10020F7F748FB2168002036
:10AF700079B130600020F7F743FBFEF7C5FB0028EE
:10AF80000BD0BDE8704000F0FDB825603060256052
:10AF9000D5E7256030602560ECE770BD14EC064015
:10AFA00000750240007402402DE9F8430746002076
:10AFB000F7F724FB3846F9F7CBF90646374D380644
:10AFC0004FF000084FF003094FF001041FD438463A
:10AFD000F9F7B8F9E96804FA00F0884303D0384675
:10AFE000FEF720FD10E03846C6F80080F9F7AAF910
:10AFF000E96804FA00F081433846E960F9F7A2F9FC
:10B000008440A868A043A86086F80E9040E007F04E
:10B010000F01082916D2224B40F2B472181D802F5E
:10B0200007D002EB410119600168C9B241F0020189
:10B0300004E01A600168C9B241F0040102680A43E1
:10B04000026000683846F9F77DF9D5E9022104FA73
:10B0500000F061EA020108421AD03846F9F772F9A5
:10B06000E96804FA00F081433846E960F9F76AF9C3
:10B070008440A8680443AC600A48C6F8008086F89B
:10B080000E90006800908DF80270696868468847E5
:10B09000BDE8F8430020F7F7B3BA000058010020DC
:10B0A000007802409CB500002DE9F041104EB068D8
:10B0B000040CF06824040443012712E094FAA4F07D
:10B0C000B0FA80F52846F7F749FB00F00F00082892
:10B0D00004D22846F7F742FBFFF766FF07FA05F0B0
:10B0E0008443002CEAD140F2FF10B060BDE8F0814B
:10B0F00058010020F8B5144C05460126A0688E4082
:10B100003043A060114F280612D52846FEF75EFA9C
:10B11000FDF7F2FA38B1802D03D02846FDF796FAF4
:10B1200001E0FDF765FAE06806420BD1B86903E07B
:10B13000E068064206D1F86900908DF80250616817
:10B1400068468847F8BD0000580100209CB5000003
:10B1500010B50020F7F752FA08480368084A03219F
:10B160002BB11160BDE810400020F7F749BA49F251
:10B170007533036011600360F4E7000000EC0640E3
:10B1800014ED064010B50020F7F738FA08480368B8
:10B19000084A00212BB11160BDE810400020F7F7EC
:10B1A0002FBA49F27533036011600360F4E70000C1
:10B1B00000EC064014ED064002498020C1F8000270
:10B1C0007047000004E000E010B52749274C254BEC
:10B1D000091B0322C90802EB014259880F2840D2FB
:10B1E000DFE800F03F3F080B3F3F3F3F1D2B353F5F
:10B1F0003F121700F7F7CEF90DE00320F7F7FEFA3C
:10B20000BDE81040FAF734BCBDE810400320F7F762
:10B21000F5BAF6F723FCBDE81040F7F70BBB03299E
:10B2200003D3104612A1FCF71FFDFEF739FB0028DF
:10B2300017D1BDE81040F6F713BC032903D310461D
:10B2400010A1FCF711FDBDE81040F7F775B903290F
:10B2500003D3104610A1FCF707FDBDE81040F7F737
:10B2600057B910BD0004002094CC0000BCCB0000F6
:10B2700055534220706F77657220646574656374FE
:10B280006564000055534220706F776572207265C7
:10B290006D6F7665640000005553422072656164ED
:10B2A00079000000024A1268002A00D01047704757
:10B2B000C00D0020CB69002B01D011461847704704
:10B2C00002494968002900D008477047C00D002096
:10B2D00070B50C460546F7F719FD002807D04268FF
:10B2E000002A04D021462846BDE87040104770BDB2
:10B2F0001CB5002913D08268127F8A420FD008A3A0
:10B30000D3E90023CDE9002301F12F028DF80320BA
:10B310008268117700696A4603A1FBF7E3FF1CBD51
:10B320001B5B34006D000000257300001CB58268B3
:10B3300099B1D27E8A420FD00CA2D2E90032CDE977
:10B34000003201F12F028DF805208268D176006964
:10B350006A4608A1FBF7C6FF1CBDD176006902B0A2
:10B36000054ABDE8104003A1FBF7BCBF1B5B313BA6
:10B3700033006D0025730000CDB9000000000020EF
:10B38000740400203F000000B4040020CC0400201E
:10B390000F000000DC04002000000000002000403E
:10B3A00000000000002000400000000008BA00007B
:10B3B000F40400207CB300008CB3000080B30000D4
:10B3C00098B300006000002084BC0000ACB3000013
:10B3D000200500209CCB0000200000209CCC000019
:10B3E0000C08002084B70000010001038100000068
:10B3F0004C0000200100000001020000900000202D
:10B40000000000000000000060B70000DD540000F4
:10B4100050000020020000005008002044B7000047
:10B42000010101038200000054000020010000001F
:10B43000010100009800002004B500000000000099
:10B4400020B70000E54E000058000020FFFFFFFF7E
:10B45000FFFFFFFFFFFFFFFFFFFFFFFF00000000F8
:10B46000000000000000D6010601000000000000FE
:10B47000C9B100000000000005010902A101090195
:10B48000A100050919012902150025017501950280
:10B4900081027506950181010501093009310938DC
:10B4A0001581257F750895038106C0C03400000012
:10B4B0002200000078B4000005010906A10105077B
:10B4C00019E029E71500250175019508810295010C
:10B4D0007508810395057501050819012905910273
:10B4E00095017503910395067508150025650507F7
:10B4F000190029658100C0003F0000002200000003
:10B50000B8B40000A0000020020000000D0E0F10D3
:10B510000B0C1819B8000020D8000020F8000020FB
:10B520000B0003007D2800000C0003007D280000B4
:10B53000180003007D280000190003007D2800008A
:10B540000000000048B50000A4BC0000ACBC000036
:10B5500000000000893B0000A8BC000094BC000073
:10B5600000000000AD3B00000000000000000000F3
:10B570000000000000000000C4BC0000C4BC0000CB
:10B5800040B5000000000000000000000000005076
:10B5900000030050118C00007D8F000006000003A6
:10B5A0000100000006000000060000000600000088
:10B5B0000600000006000000060000010500000073
:10B5C000020000000300000004000000060000026A
:10B5D00069460000F1450000694300006D4300002A
:10B5E00073430000794300007F430000854300005F
:10B5F0008B43000091430000114500009943000077
:10B60000F9430000594400005F4400006544000015
:10B610006B44000071440000774400007D4400004A
:10B6200085440000A5450000F54500002D450000BB
:10B63000D144000008010C011001140118011C0183
:10B64000200124012C013001340138013C0140016A
:10B65000440148014C015001020304050607080992
:10B660000B0C0D0E0F10111213140000030000003C
:10B6700080010020C0010020010006000000000041
:10B68000D4010020EF3C0000800000000B8100008E
:10B690008200000083000000840D0E030300000000
:10B6A0000B0000000C000000D80100208500000005
:10B6B00008000000090000000A0000007D240000CE
:10B6C0000000000000000000000000000F0000006B
:10B6D00015A0000000000000B1AC00000C0E00201E
:10B6E000120100020000004015190B520001010276
:10B6F000030109020000000104C032000D1800001F
:10B700000000000000000000000000000000000039
:10B71000240E0020FCB6000001000203008000009F
:10B72000474D0000CD4D00006149000000000000C1
:10B730002D4D00003D4D0000314D0000794D0000C1
:10B740000000000065490000794900000000000089
:10B750000000000000000000214E0000000000007A
:10B7600087530000035400009B4F000000000000BE
:10B770006D5300007D53000071530000A75300007B
:10B78000000000009F4F0000B54F000000000000C7
:10B7900000000000000000000000040309044E6FD8
:10B7A000726469632053656D69636F6E6475637459
:10B7B0006F72006E5246353220555342204849443C
:10B7C00020636F6D706F736974652044656D6F00E1
:10B7D000303030303030303030303030004465661A
:10B7E00061756C7420636F6E6669677572617469E8
:10B7F0006F6E005573657220310000000101020276
:10B800000303040405050000000000000000000020
:10B810000338FDD8704700000000000020B8000089
:10B8200004C20000E0C1000000000000D565000077
:10B830000000000000000000000000000000000008
:10B840000CC2000014C2000018B80000D56500004A
:10B8500065780000477800003D7800000000000097
:10B8600064B80000F4C20000DCC200000000000068
:10B8700089690000F8C20000C4C200000000000096
:10B88000B36900000000000000000000000000009C
:10B8900000000000000000009CB80000F4C200009E
:10B8A000FCC2000000000000756A0000F8C2000041
:10B8B00058C30000000000009F6A00000000000064
:10B8C0000000000000000000000000000000000078
:10B8D000D4B80000C4C3000098C3000000000000FA
:10B8E00069680000CCC300006CC3000000000000C9
:10B8F0009968000000000000000000000000000047
:10B9000000000000000000000CB9000018C4000096
:10B91000F8C300005CB800002169000010C40000FA
:10B92000D4C3000094B80000DD69000020C400000A
:10B93000E8C30000CCB80000FD6700000000000074
:10B9400000000000000000000000000000000000F7
:10B9500054B900006CC4000028C4000000000000BE
:10B96000056C000000000000000000000000000066
:10B970000000000084C4000074C400000000000047
:10B9800075670000B0C400008CC4000004B900005A
:10B99000B9670000C8C40000B4C400000000000083
:10B9A000C96A000070C50000D0C400004CB9000096
:10B9B000416B0000000000000000000000000000DB
:10B9C0001B37001B38002C20001B5B4A001B5B6DE3
:10B9D00000082008001B5B4B00202D20001B5B484B
:10B9E000001B5B366E001B5B324A0000000000004B
:10B9F0000338FDD870471B5B3F336C002D682C204B
:10BA00002D2D68656C700000193A00006F3A000037
:10BA1000AD390000853A0000653A0000303132331C
:10BA2000343536373839414243444546000000003A
:10BA300034BA000004C200007CC500000000000011
:10BA4000158200000000000000000000000000005F
:10BA500000000000A0C5000014C200002CBA0000C5
:10BA600015820000AD790000817900007F79000027
:10BA7000FFFFFFFFFFFFFFFFFFFFFFFFFFFFFFFFD6
:10BA800000000000000000000000D60106010000D8
:10BA900001000000D563000000000000B4BA0000FF
:10BAA000300F00207F000000B00F002001000000D8
:10BAB000D9A400003CC70000C8C6000090BA00002E
:10BAC000F55A000034C7000044C60000ACBA0000BC
:10BAD000F55A000064C7000044C7000000000000E1
:10BAE000015B000078C7000054C7000000000000A0
:10BAF0000D5B000004C2000068C7000000000000E9
:10BB0000195B0000000000000000000000000000C1
:10BB100000000000010000001527000000000000E8
:10BB200024BB0000E8C7000080C700000000000040
:10BB3000495C0000F0C70000B4C70000000000002E
:10BB4000855C000000000000000000000000000014
:10BB500000000000000000005CBB00002CC80000DA
:10BB6000F8C7000014BB00000000000034C800004B
:10BB70003CC800001CBB0000000000003CC70000E7
:10BB8000C8C6000090BA00009F5E000034C70000E5
:10BB900044C60000ACBA00009F5E000064C700000D
:10BBA00044C7000000000000AF5E000078C700003E
:10BBB00054C7000000000000B95E000058C8000033
:10BBC00014C8000000000000815B000004C20000F7
:10BBD00068C7000000000000C35E00000000000015
:10BBE00000000000000000000000000068C8000025
:10BBF0006CC8000054BB0000255B000000404040C2
:10BC0000404040404040414141414140404040402F
:10BC100040404040404040404040404040050202DB
:10BC2000020202020202020202020202022020209A
:10BC300020202020202020020202020202029090F6
:10BC400090909090101010101010101010101010F4
:10BC50001010101010101010020202020202888848
:10BC60008888888808080808080808080808080854
:10BC7000080808080808080802020202400000003C
:10BC8000FDBB0000756172745F636C693A7E2420AD
:10BC900000000000425350206576656E7420696490
:10BCA0000000000062746E006576740042535020FC
:10BCB000627574746F6E206576656E74206B65793D
:10BCC000000000006273700044617461206275734B
:10BCD000206572726F72202872657475726E2061B1
:10BCE00064647265737320696E2074686520737470
:10BCF00061636B206672616D65206973206E6F747D
:10BD00002072656C6174656420746F2074686520AE
:10BD1000696E737472756374696F6E207468617490
:10BD20002063617573656420746865206572726F45
:10BD3000722900004461746120627573206572721B
:10BD40006F72202850432076616C75652073746192
:10BD5000636B656420666F72207468652065786324
:10BD6000657074696F6E2072657475726E20706F85
:10BD7000696E747320746F2074686520696E7374C3
:10BD800072756374696F6E20746861742063617585
:10BD900073656420746865206661756C74290000A1
:10BDA00043617573653A204275734661756C742002
:10BDB0006F6E206120766563746F72207461626CAF
:10BDC00065207265616420647572696E67206578AC
:10BDD00063657074696F6E2070726F6365737369E9
:10BDE0006E672E005468652070726F636573736FA1
:10BDF000722068617320657865637574656420617D
:10BE00006E2053444956206F72205544495620698C
:10BE10006E737472756374696F6E207769746820CD
:10BE2000612064697669736F72206F66203000004C
:10BE30005468652070726F636573736F72206861F8
:10BE40007320617474656D7074656420746F20650F
:10BE500078656375746520616E20696E73747275A0
:10BE60006374696F6E2074686174206D616B6573B3
:10BE700020696C6C6567616C20757365206F662046
:10BE800074686520455053520000000054686520D6
:10BE900070726F636573736F722068617320617471
:10BEA00074656D7074656420616E20696C6C656783
:10BEB000616C206C6F6164206F66204558435F524F
:10BEC000455455524E20746F207468652050432CA1
:10BED000206173206120726573756C74206F662019
:10BEE000616E20696E76616C696420636F6E746543
:10BEF00078742C206F7220616E20696E76616C6997
:10BF000064204558435F52455455524E2076616C2B
:10BF1000756500005468652070726F636573736F98
:10BF20007220617474656D707465642061206C6F3B
:10BF30006164206F722073746F7265206174206178
:10BF4000206C6F636174696F6E2074686174206423
:10BF50006F6573206E6F74207065726D69742074E4
:10BF60006865206F7065726174696F6E0000000013
:10BF700041204D656D4D616E616765206661756C30
:10BF800074206F6363757272656420647572696E84
:10BF90006720666C6F6174696E672D706F696E746F
:10BFA000206C617A79207374617465207072657396
:10BFB0006572766174696F6E0000000041206275E1
:10BFC00073206661756C74206F636375727265644B
:10BFD00020647572696E6720666C6F6174696E6744
:10BFE0002D706F696E74206C617A7920737461743E
:10BFF0006520707265736572766174696F6E00009A
:10C000005468652070726F636573736F7220686126
:10C010007320617474656D7074656420746F20653D
:10C0200078656375746520616E20756E64656669F8
:10C030006E656420696E737472756374696F6E00E7
:10C04000496E737472756374696F6E2062757320C4
:10C050006572726F720000005468652070726F63C1
:10C060006573736F722068617320617474656D709D
:10C0700074656420746F206163636573732061204D
:10C08000636F70726F636573736F7200556E737454
:10C0900061636B20666F7220616E206578636570E6
:10C0A00074696F6E2072657475726E20686173209A
:10C0B000636175736564206F6E65206F72206D6FAC
:10C0C0007265206163636573732076696F6C617458
:10C0D000696F6E7300000000537461636B696E6773
:10C0E00020666F7220616E20657863657074696F79
:10C0F0006E20656E74727920686173206361757358
:10C100006564206F6E65206F72206D6F72652061AF
:10C1100063636573732076696F6C6174696F6E73A6
:10C12000000000005468652070726F636573736F60
:10C130007220686173206D61646520616E20756E88
:10C14000616C69676E6564206D656D6F72792061E1
:10C150006363657373000000556E737461636B20D5
:10C16000666F7220616E20657863657074696F6EAA
:10C170002072657475726E206861732063617573D7
:10C180006564206F6E65206F72206D6F726520424E
:10C1900075734661756C74730000000053746163BD
:10C1A0006B696E6720666F7220616E2065786365CB
:10C1B0007074696F6E20656E747279206861732087
:10C1C000636175736564206F6E65206F72206D6F9B
:10C1D0007265204275734661756C747300000000CF
:10C1E0005072696E7420737461747573206F662069
:10C1F00062616C6C6F6320696E7374616E636573EA
:10C200002E000000737461747573000062616C6CC1
:10C210006F630000436F6D6D616E647320666F72B3
:10C220002042414C4C4F43206D616E6167656D65E6
:10C230006E74000025730D0A092D20456C656D652F
:10C240006E742073697A653A092564202B20256471
:10C25000206279746573206F66206465627567205B
:10C26000696E666F726D6174696F6E0D0A092D20BB
:10C2700055736167653A09257525252028257520A0
:10C280006F7574206F6620257520656C656D656E11
:10C290007473290D0A092D204D6178696D756D3A09
:10C2A000092575252520282575206F7574206F6652
:10C2B00020257520656C656D656E7473290D0A0DFA
:10C2C0000A000000456E61626C6520636F6C6F72DE
:10C2D00065642073796E7461782E0000446973611F
:10C2E000626C6520636F6C6F7265642073796E7425
:10C2F00061782E006F6666006F6E0000446973619E
:10C30000626C6520434C49206563686F2E20417242
:10C31000726F777320616E6420627574746F6E73D0
:10C320003A204261636B73706163652C2044656CD5
:10C330006574652C20456E642C20486F6D652C203B
:10C34000496E7365727420617265206E6F74206827
:10C35000616E646C65642E00456E61626C6520439D
:10C360004C49206563686F2E00000000476574200B
:10C37000434C4920737461746973746963732066F4
:10C380006F7220746865204C6F67676572206D6FEF
:10C3900064756C652E000000526573657420434C13
:10C3A00049207374617469737469637320666F7272
:10C3B00020746865204C6F67676572206D6F6475C7
:10C3C0006C652E00726573657400000073686F778A
:10C3D00000000000546F67676C6520434C4920657E
:10C3E00063686F2E00000000434C49207374617431
:10C3F0006973746963732E00546F67676C6520639B
:10C400006F6C6F7265642073796E7461782E0000B2
:10C410006563686F00000000636F6C6F72730000EB
:10C420007374617473000000417373756D65203817
:10C43000302063686172732073637265656E207764
:10C440006964746820616E642073656E642074682A
:10C4500069732073657474696E6720746F207468E3
:10C4600065207465726D696E616C2E00646566612D
:10C47000756C7400436C6561722073637265656EE0
:10C480002E000000636C65617200000055736566E4
:10C49000756C2C206E6F7420556E69782D6C696BED
:10C4A0006520434C4920636F6D6D616E64732E008F
:10C4B000636C6900436F6D6D616E642068697374AD
:10C4C0006F72792E00000000686973746F727900D2
:10C4D000436F6E736F6C652067657473207465724B
:10C4E0006D696E616C2073637265656E2073697A25
:10C4F00065206F7220617373756D6573203830200D
:10C50000696E20636173652074686520726561647B
:10C510006F7574206661696C732E204974206D7587
:10C520007374206265206578656375746564206145
:10C53000667465722065616368207465726D696EEA
:10C54000616C207769647468206368616E67652038
:10C55000746F20656E7375726520636F72726563A8
:10C5600074207465787420646973706C61792E002E
:10C57000726573697A650000202000005072696E50
:10C580007420737461747573206F6620717565759E
:10C590006520696E7374616E6365732E0000000020
:10C5A000717565756500000025730D0A092D20451C
:10C5B0006C656D656E742073697A653A0925640D42
:10C5C0000A092D2055736167653A092575252520CF
:10C5D000282575206F7574206F6620257520656C81
:10C5E000656D656E7473290D0A092D204D6178699A
:10C5F0006D756D3A092575252520282575206F75DF
:10C6000074206F6620257520656C656D656E74738A
:10C61000290D0A092D204D6F64653A090925730D0E
:10C620000A0D0A006E6F6E65000000007761726E81
:10C63000696E67006465627567000000696E666F09
:10C6400000000000276C6F6720656E61626C6520DA
:10C650003C6C6576656C3E203C6D6F64756C655F07
:10C66000303E202E2E2E20203C6D6F64756C655F51
:10C670006E3E2720656E61626C6573206C6F677318
:10C6800020757020746F20676976656E206C657602
:10C69000656C20696E2073706563696669656420E6
:10C6A0006D6F64756C65732028616C6C2069662001
:10C6B0006E6F206D6F64756C657320737065636950
:10C6C00066696564292E0000276C6F6720646973B2
:10C6D00061626C65203C6D6F64756C655F303E20F7
:10C6E0002E2E203C6D6F64756C655F6E3E27206456
:10C6F000697361626C6573206C6F677320696E206B
:10C70000737065636966696564206D6F64756C65D7
:10C71000732028616C6C206966206E6F206D6F64D9
:10C72000756C657320737065636966696564292E2D
:10C7300000000000656E61626C65000064697361F1
:10C74000626C6500526573756D65206C6F67676913
:10C750006E67000048616C74206C6F6767696E6774
:10C7600000000000676F00004C6F67676572207300
:10C77000746174757300000068616C7400000000DF
:10C780004C6F616420636F6E66696775726174696E
:10C790006F6E2073746F72656420696E206E6F6EA9
:10C7A0002D766F6C6174696C65206D656D6F727943
:10C7B0002E00000053746F72652063757272656E8F
:10C7C0007420636F6E66696775726174696F6E203D
:10C7D000696E206E6F6E2D766F6C6174696C65206A
:10C7E0006D656D6F72792E006C6F616400000000E2
:10C7F00073746F72650000004C6F6767657220622A
:10C8000061636B656E647320636F6D6D616E6473DD
:10C810002E0000004C69737473206C6F676765723B
:10C82000206261636B656E64732E00006261636BEE
:10C83000656E6400636F6E66696700004D616E61CE
:10C840006765206C6F6767657220636F6E666967E6
:10C8500075726174696F6E006C6973745F62616395
:10C860006B656E64730000006C6F6700436F6D6DE5
:10C87000616E647320666F7220636F6E74726F6C8A
:10C880006C696E67206C6F67676572001B5B313B7C
:10C8900033306D001B5B306D000000001B5B313BD3
:10C8A00033316D001B5B313B33326D001B5B313B21
:10C8B00033336D001B5B313B33346D001B5B313B0D
:10C8C00033356D001B5B313B33366D001B5B313BF9
:10C8D00033376D006170705F74696D65722E6D5FC6
:10C8E000636C695F756172745F7472616E73706F8F
:10C8F00072745F74696D6572000000007175657512
:10C90000652E6D5F636C695F756172745F6C6F67D4
:10C910005F6261636B656E645F717565756500006C
:10C9200062616C6C6F632E6D5F636C695F756172C1
:10C93000745F636D645F686973745F6D656D6F626A
:10C940006A0000006170705F74696D65722E6D5FC2
:10C950006D6F7573655F6D6F76655F74696D657218
:10C96000000000006D5F636C695F756172745F6CDD
:10C970006F675F6261636B656E645F717565756536
:10C98000000000006D5F636C695F756172745F6CBD
:10C990006F675F6261636B656E6400006D5F636CFF
:10C9A000695F756172745F636D645F686973745FFA
:10C9B0006D656D6F626A00006170705F74696D65AE
:10C9C000722E6D5F6273705F6C6564735F746D72FD
:10C9D000000000006170705F74696D65722E6D5F9C
:10C9E0006273705F616C6572745F746D72000000D9
:10C9F0006170705F74696D65722E6D5F6273705FD8
:10CA0000627574746F6E5F746D720000636C6F6337
:10CA10006B000000434C4F434B0000004750494F10
:10CA2000544500005052530055415254000000003C
:10CA30005541525445000000555342440000000047
:10CA40006170705F627574746F6E00006170705F0A
:10CA500074696D65722E6D5F646574656374696F6A
:10CA60006E5F64656C61795F74696D65725F69643E
:10CA7000000000006170705F74696D6572000000F5
:10CA800061746669666F2E6D5F7265715F66696657
:10CA90006F0000006170705F7573626400000000D9
:10CAA00061746669666F2E6D5F6576656E745F7121
:10CAB00075657565000000006170705F7573626474
:10CAC0005F636F7265000000757362645F64756D0B
:10CAD0006D790000686172646661756C74000000B5
:10CAE000636C695F75617274000000007077725F3B
:10CAF0006D676D7400000000736F72746C697374FD
:10CB000000000000756172745F6C6F675F62616343
:10CB10006B656E640000000062616C6C6F632E6C6C
:10CB20006F675F6D656D706F6F6C00006170700096
:10CB30006C6F675F6D656D706F6F6C00F0CC00009F
:10CB40000000002074040000840C0000D8CD000018
:10CB500074040020742F0000541200000000000034
:10CB600078B500000000000040B8000000000000A0
:10CB700074B900000000000084B90000000000004B
:10CB800094B9000000000000A4B9000000000000FB
:10CB900054BA000000000000ECBB000050B80000D8
:10CBA0003800002084C900004400002064BA00005E
:10CBB0000000000004CB0000EC020020D4C80000FC
:10CBC00000000003FCC800000000000320C90000B2
:10CBD0000000000344C9000000000003B8C90000C1
:10CBE00000000003D4C9000000000003F0C90000E9
:10CBF000000000030CCA00000000000014CA00007E
:10CC0000000000001CCA00000000000024CA000050
:10CC10000000000028CA00000000000030CA000028
:10CC20000000000038CA00000000000040CA0000F8
:10CC3000000000004CCA00000000000374CA00009D
:10CC40000000000080CA00000000000394CA000039
:10CC500000000000A0CA000000000003B8CA0000E5
:10CC600000000000C8CA000000000000D4CA000094
:10CC700000000303E0CA000000000000ECCA00004E
:10CC800000000000F8CA00000000000018CB0000FF
:10CC9000000000032CCB00000000030388000020EC
:10CCA00080000020880000208C0600209C030020CB
:10CCB0009CC9000030000000280300202003002051
:10CCC00028030020700E0020FC03002030CB000061
:10CCD00018000000800600206C0600200400000000
:10CCE000040000000100000064C900009803002057
:10CCF000815AFF01C113940314204006B320172367
:10CD0000C8B3230D70E3D4CC293923ACB432015A13
:10CD1000F808B9200911601AA06001400912589A58
:10CD2000A4580912200A1DA8200A41AC980942C83B
:10CD3000AAD08815100140110221040A15D8BC0A96
:10CD400021E0D40332811E2398B71A9E041AB3043B
:10CD50001AD0041ADD041AF304011122C06314BFAF
:10CD60001A8C0C1AD8045A7010411A40102334BD82
:10CD700023C8BC2358C11A9C049ABC2029401B30EC
:10CD8000BE3C19041A580C01101A24301AE440B39E
:10CD900078C51220BA4008315AFF042324C61A501D
:10CDA000481A2C081A3C045A340429142910292042
:10CDB000291C011CE9401B94C8A019041A9C041AE0
:10CDC000A4041AAC041AB4041ABC041AC4041ACC7D
:08CDD000041104FF90D00311CF
:0400000500000201F4
:00000001FF
