:020000040000FA
:10000000A0200020150200001D0200001F020000B9
:100010002102000023020000250200000000000071
:1000200000000000000000000000000027020000A7
:1000300029020000000000002B0200002D02000039
:100040002F0200002F0200002F0200002F020000EC
:100050002F0200002F0200005D0200002F020000AE
:100060002F020000ED0400002F0200002F0200000C
:100070002F0200002F0200002F0200002F020000BC
:100080002F020000010300002F0200002F020000D9
:100090002F0200002F0200002F0200002F0200009C
:1000A0002F0200002F0200002F0200002F0200008C
:1000B0002F0200002F0200000000000000000000DE
:1000C0002F0200002F0200002F0200002F0200006C
:1000D0002F0200002F0200002F0200002F0200005C
:1000E0002F0200002F0200002F020000000000007D
:1000F000000000002F020000000000002F0200009E
:1001000000000000000000000000000000000000EF
:1001100000000000000000000000000000000000DF
:1001200000000000000000000000000000000000CF
:1001300000000000000000000000000000000000BF
:1001400000000000000000000000000000000000AF
:10015000000000000000000000000000000000009F
:10016000000000000000000000000000000000008F
:10017000000000000000000000000000000000007F
:10018000000000000000000000000000000000006F
:10019000000000000000000000000000000000005F
:1001A000000000000000000000000000000000004F
:1001B000000000000000000000000000000000003F
:1001C000000000000000000000000000000000002F
:1001D000000000000000000000000000000000001F
:1001E000000000000000000000000000000000000F
:1001F00000000000000000000000000000000000FF
:10020000DFF80CD000F018F800480047890700001C
:10021000A02000200648804706480047FEE7FEE78A
:10022000FEE7FEE7FEE7FEE7FEE7FEE7FEE7FEE7A6
:100230001103000001020000064C074D06E0E068D3
:1002400040F0010394E8070098471034AC42F6D31D
:10025000FFF7DAFF480C0000680C00002DE9FC41B4
:100260000025DFF8948000954FF4807601242F4616
:100270000195304600F03EFB38B1D8F80403204227
:1002800003D0304600F02CFB2543361D64007F1C54
:10029000B6B2082FEDD34FF4BE74204600F02AFB0F
:1002A00048B1204600F01CFB45F000456A4602219B
:1002B000002000F0CDFA15F0FF0F16D00126002423
:1002C0002E420ED008EB8401D1F81005D1F810159C
:1002D000C0F30520094AC1F3014152F8242002B1BC
:1002E00090477600641C082CEAD3002D02DA684699
:1002F00000F0C8FBBDE8FC81006000402800002041
:1003000002490248091F0968006808471C000020CC
:1003100030B54FF080520023D2E94C10082906D1A5
:10032000CC06C4F80C31C4F81031624C23600829A3
:1003300055D1614B1B68614C23605F4B1B1D1B68D3
:10034000241D23605C4B08331B68241D23605A4B1B
:100350000C331B68241D2360574B10331B68241D6E
:100360002360554B14331B68241D2360524B1833F4
:100370001B68524C203423604F4B1C331B68241DD8
:1003800023604D4B20331B68241D23604A4B2433CC
:100390001B68241D2360484B28331B68241D2360E1
:1003A000454B2C331B68241D2360434B30331B68A3
:1003B000424C40342360404B34331B68241D23607F
:1003C0003D4B38331B68241D23603B4B3C331B687B
:1003D000241D2360384B40331B68241D23600829EB
:1003E00004D1030002D1374C354B2360082904D1D6
:1003F000030002D1344CFB232360082908D10300F9
:1004000006D1324B92F858521C6865F303041C6005
:10041000082904D1030002D12D4C8B012360082947
:1004200006D12C480168C90702D06FF001010160B4
:100430002948016841F470010160BFF34F8FBFF399
:100440006F8FD2E94C104FF01022082906D10328F3
:1004500004D9D2F80802174920310860D2F8000206
:10046000002803DBD2F8040200281FDA012000F084
:10047000FDFA1221C2F8001218480368002BFCD0C4
:10048000C2F8041201680029FCD0002000F0EEFA46
:10049000BFF34F8F10487C380168114A01F4E061C6
:1004A00011430160BFF34F8F00BFFDE70E490D48B8
:1004B000086030BD380500400404001020C500402D
:1004C000488103008C56004018F50040E40E0040BF
:1004D000409602400004004088ED00E000E4014046
:1004E0000400FA050090D003240000202DE9F04715
:1004F000104E042700244FF4A0784FF4803900BF39
:1005000008EB840509FA04F0715961B1D6F80413B7
:10051000014208D02946304600F0F4F90648D0E9F7
:10052000002128469047641CE4B2BC42E8D3BDE8F1
:10053000F0870000009000409400002002E008C80E
:10054000121F08C1002AFAD170477047002001E04D
:1005500001C1121F002AFBD1704700F0E7F84FF4E9
:100560007A74204600F032F9002000F0B9F801203A
:1005700000F0B6F8F5E70EB500210091CDE90110C5
:100580006A4644F20100FFF7E8FF0EBDB0F5A07F18
:1005900007D10449487808B902200870886849687A
:1005A000084770470C0000201CB50C490C4AD1E9E3
:1005B0000201CDE9000100208DF801008DF8020054
:1005C00004208DF800006946044800F0E7F900288F
:1005D00002D1044A012111701CBD0000380C00003A
:1005E0008D0500000C0000202DE9F8439846914647
:1005F0000F00054605D0012D05D035B10720BDE817
:10060000F8830E20FBE7012601E04FF48076154CBD
:10061000207810B1032802D006E00820EFE700F0B0
:1006200025F808B1FFF7A7FF2078022802D10E486D
:1006300000F06EF96570C4E901780120009033463E
:100640004A460021084800F093F92078022806481D
:1006500005D000F07FF9032020700020CFE700F0E4
:1006600001FAF8E70C000020380C000010B5054C2A
:100670002078032804D1044800F0F0F9022020700B
:10068000002010BD0C000020380C00002DE9FC41BA
:100690000646C0074FF000050ED0104F002401227F
:1006A000385D009500231146019500F09FF8641C09
:1006B000042CF4D300F03AF8B0070DD5074E00240F
:1006C000361D0022305D032300951146019500F090
:1006D0008DF8641C042CF4D3BDE8FC81260C0000CA
:1006E000094908B5085C0090684600F0C9F8D0F8E0
:1006F0000425009B0121994021EA0203C0F8083536
:100700001140C0F80C1508BD260C00000249085C19
:10071000012100F0D1B80000260C00000249085C5D
:10072000002100F0C9B80000260C000010B500241C
:100730002046FFF7EBFF641C042CF9D310BD00002A
:100740000249084490F9300070470000280000205A
:1007500010B50C46FFF7C4FF094A282050600A2054
:10076000906000234CF2503206492046FFF73CFFD0
:10077000002803D0BDE81040FFF7FDBE10BD00000B
:1007800000000020890B0000FFF70EFF08B1FFF703
:10079000F2FE0120FFF77AFF0020FFF7BFFF0120E4
:1007A000FFF7BCFF4FF47A7000F010F8002000F063
:1007B000D9F920BF40BF20BFFBE7C20800F0070304
:1007C0000120895C98400840704700002DE9F04105
:1007D000040007D0044E4FF47A47751C3846A847EA
:1007E000641EFAD1BDE8F081200C00002DE9FF4124
:1007F0001C46DDE90A7815460E46684600F040F8CA
:1008000046EA450141EA840141EA072242EA0841F9
:10081000009A00EB8200C0F80017BDE8FF8113B515
:100820000C46684600F03AF8009900EB8101D1F8D7
:10083000002722F44032C1F80027009900EB810024
:10084000D0F8001741EA0441C0F800171CBD0000B1
:100850003CB50A4CD4E90034CDE900346B46441869
:1008600008E000BF53F82010D1F8205520C2C1F88D
:100870002055401C8442F5D83CBD0000300C0000DF
:100880000168202902D24FF0A040704701F01F01FB
:1008900001600148704700000003005001682029F2
:1008A00002D24FF0A040704701F01F0101600148E3
:1008B000704700000003005038B5012400906846DE
:1008C00031B1FFF7DDFF00998C40C0F8084538BD15
:1008D000FFF7D6FF00998C40C0F80C4538BD0000EA
:1008E000034908B50844002101600068009008BD74
:1008F0000060004002494058012800D000207047A5
:100900000060004008B5002242504058009008BDE9
:1009100000680121C16070472DE9F04106460D468F
:100920004FF4803400681746AC404BB14FF4A071CF
:1009300001EB8501FFF7E6FF3068C0F8044301E0F2
:10094000C0F80843306800EB8500C0F84075BDE88A
:10095000F0810000016801220A600079034A00EB7F
:10096000400002EB800002210172704794000020D9
:10097000F0B40468049E40F20115D4F800728D4072
:10098000AF43C4F800720468D4F800521D43C4F8A1
:1009900000523346F0BCFFF7BFBF00002DE9F04125
:1009A00004460E4600792C4900EB400001EB80071D
:1009B000387A10B10820BDE8F0813A6070680025EF
:1009C0004FF4A078786006E008EB85012068FFF717
:1009D00099FF6D1CEDB26079A842F5D82068F178D6
:1009E00040F3073000284FEA411104DB00F1E0201A
:1009F00080F8001405E000F00F0000F1E02080F81E
:100A0000141D2068012140F30730002809DB00F0A5
:100A10001F0201FA02F24009800000F1E020C0F854
:100A2000002120687278D0F8043562F30103C0F821
:100A300004352068B278D0F8083562F30103C0F8B5
:100A4000083520683278D0F8103562F30303C0F817
:100A5000103539720020AEE79400002000680121B3
:100A600041607047006801210160704703490860D8
:100A7000034801680029FCD07047000004E50140EC
:100A800000E401402DE9F84F314F05464FF00109D0
:100A90000024381990F96010491C46D090F8600085
:100AA000294620F0C0063046FFF787FE70B3204687
:100AB00000F050F8824668460096FFF7EFFE009976
:100AC00000EB8100D0F80007C0F30148B8F1020F35
:100AD0001DD002213046FFF7A2FE68460096FFF7C0
:100AE000DDFE009A09FA02F1C0F820153046FFF742
:100AF00027FE57F820204AB15046BAF1030F11D013
:100B0000B8F1020F05D0B8F1030F07D00DE00321B3
:100B1000E0E75046BAF1010F04D006E05046BAF1C2
:100B2000020F02D1014630469047641C042CB0D31A
:100B30002A4602210020FFF78BFE002055F82010E6
:100B40000029A5D1401C0228F8D3BDE8F88F000089
:100B5000280000200249084490F86000800970478E
:100B60002800002007490870087820B1012805D026
:100B70000878FFF700BD0021084601E00121084682
:100B8000FFF7E6BD00000020234810B502780A21D7
:100B90001AB1012A1DD0007815E04268521E426049
:100BA00015D08268521E826003D181600020FFF759
:100BB00097FD00234CF25032AFF233011846FFF795
:100BC00013FD002827D0BDE81040FFF7D4BC01205A
:100BD0001DE04268521E426009D08268521E826047
:100BE00019D18160BDE810400120FFF779BD0020D8
:100BF000FFF794FD0120FFF791FDFFF737FD08B1E6
:100C0000FFF7B9FC4FF47A70FFF7E0FD0020BDE874
:100C10001040FFF7A7BF10BD00000020000000003B
:100C20000338FDD870470D0E0F100B0C181900007B
:100C3000000000500003005000900040000400003D
:100C40000000000600000000680C0000000000200A
:100C5000280000003C050000900C00002800002047
:100C6000782000004C05000000000000000000009B
:100C70000000000000000000000000000000000074
:100C80000000000000000000000000000090D00301
:0400000500000201F4
:00000001FF
