:020000040000FA
:10000000C0280020C1030000C9030000CB0300008A
:10001000CD030000CF030000D1030000000000006A
:10002000000000000000000000000000D3030000FA
:10003000D503000000000000D7030000D903000032
:10004000DB030000DB030000ED080000DB03000021
:10005000DB030000DB03000061050000DB030000A0
:10006000DB030000DB030000DB030000DB03000018
:10007000DB030000DB030000DB030000DB03000008
:10008000DB03000005060000DB030000DB030000CB
:10009000DB030000DB030000DB030000DB030000E8
:1000A000DB030000DB030000DB030000DB030000D8
:1000B000DB030000DB030000000000000000000084
:1000C000DB030000DB030000DB030000DB030000B8
:1000D000DB030000DB030000DB0300000000000086
:1000E0000000000000000000000000000000000010
:1000F0000000000000000000000000000000000000
:1001000000000000000000000000000000000000EF
:1001100000000000000000000000000000000000DF
:1001200000000000000000000000000000000000CF
:1001300000000000000000000000000000000000BF
:1001400000000000000000000000000000000000AF
:10015000000000000000000000000000000000009F
:10016000000000000000000000000000000000008F
:10017000000000000000000000000000000000007F
:10018000000000000000000000000000000000006F
:10019000000000000000000000000000000000005F
:1001A000000000000000000000000000000000004F
:1001B000000000000000000000000000000000003F
:1001C000000000000000000000000000000000002F
:1001D000000000000000000000000000000000001F
:1001E000000000000000000000000000000000000F
:1001F00000000000000000000000000000000000FF
:10020000DFF80CD000F06EF900480047B519000087
:10021000C028002030B450E8012F93B2C489234491
:100220008489A34228BF1B1B0489A34202BFBFF3DA
:100230002F8F002007E0C3EA020340E80134002CBE
:10024000E9D14FF001000A6030BC704750E8012F3F
:10025000C2EA024240E801210029F7D1704730B4D8
:1002600050E8022F1FFAA2F3C488A34202BFBFF3D3
:100270002F8F00200DE0C48923448489A34228BF26
:100280001B1BC2EA034340E80234002CE8D14FF0C4
:1002900001000A6030BC704750E8022FC2EA2242D7
:1002A00040E802210029F7D17047034653E8022FA6
:1002B000D988B2EB324F4FF0000017BF92B241EA3B
:1002C000014142EA014104E05A68B2EB324F08BFF3
:1002D000012043E80212002AE8D1704730B40446F6
:1002E00054E8000F0D4644E80053002BF8D1156088
:1002F00030BC704730B4044654E8000F40EA0105B2
:1003000044E80053002BF7D1156030BC704730B47F
:10031000044654E8000F00EA010544E80053002BAE
:10032000F7D1156030BC704730B4044654E8000F74
:1003300080EA010544E80053002BF7D1156030BC7A
:10034000704730B4044654E8000F00EB010544E860
:100350000053002BF7D1156030BC704730B4044611
:1003600054E8000FA0EB010544E80053002BF7D13F
:10037000156030BC704770B404464FF0000054E87C
:10038000006F0D68AE4207BF44E80023012044E837
:1003900000630E60002B1CBF0020F0E770BC7047AC
:1003A00030B4044654E8000F88422CBF451A054675
:1003B00044E80053002BF5D1156030BC70470000B5
:1003C0000648804706480047FEE7FEE7FEE7FEE7EF
:1003D000FEE7FEE7FEE7FEE7FEE7FEE715060000A4
:1003E000010200002DE9F05F0546002092469B4681
:1003F00088460646814640241BE02846414647463B
:10040000224600F05EF853465A46C01A914110D376
:1004100011461846224600F016F82D1A67EB01081F
:100420004F4622460120002100F00DF817EB00098D
:100430004E41201EA4F10104DFDC484631462A4625
:100440004346BDE8F09F202A04DB203A00FA02F17F
:10045000002070479140C2F1200320FA03F31943B2
:100460009040704700487047843A000040EA01031A
:100470009B0703D009E008C9121F08C0042AFAD25A
:1004800003E011F8013B00F8013B521EF9D270471E
:10049000D2B201E000F8012B491EFBD270470022C6
:1004A000F6E710B513460A4604461946FFF7F0FF73
:1004B000204610BD421C10F8011B0029FBD1801AF8
:1004C0007047202A04DB203A21FA02F0002170470D
:1004D00021FA02F3D040C2F12002914008431946AC
:1004E00070470000064C074D06E0E06840F001034D
:1004F00094E8070098471034AC42F6D3FFF784FE27
:10050000C03D0000E03D000070B58C1810F8015BA4
:1005100015F0070301D110F8013B2A1106D110F89C
:10052000012B03E010F8016B01F8016B5B1EF9D1A0
:100530002B0705D40023521E0DD401F8013BFAE726
:1005400010F8013BCB1A921C03E013F8015B01F891
:10055000015B521EF9D5A142D8D3002070BD000026
:100560002DE9F8430025DFF894804FF480760124CC
:100570002F460095304601F067FD38B1D8F80403E6
:10058000204203D0304601F055FD2543361D64005E
:100590007F1CB6B2082FEDD34FF4BE74204601F095
:1005A00053FD48B1204601F045FD45F000456A463F
:1005B0000121002001F00EFD15F0FF0F16D00126DD
:1005C00000242E420ED008EB8401D1F81005D1F89A
:1005D0001015C0F304200A4AC1F3014152F8242047
:1005E00002B190477600641C082CEAD3002D02DA91
:1005F000684602F0B5FCBDE8F883000000600040EA
:10060000E001002002490248091F09680068084704
:1006100054010020F0B5A449A4484FF080540B6861
:10062000D4F830210078D4F83411551CC0F30310ED
:1006300006D0944601270026BCF1060F03D00AE03D
:1006400003F0FF0CF6E7B4F82453DFF864C2C5F3F7
:100650000425CCF80050DDB2062D06D1032804D1C4
:10066000DFF854C2934DCCF87450551C04D0944616
:10067000BCF1060F03D00AE003F0FF0CF8E7D4F852
:100680004452DFF838C2C5F34235CCF80050DDB231
:10069000062D08D1032806D1894DD5F800C02CF0CD
:1006A000807CC5F800C0551C04D09446BCF1060FF0
:1006B00003D00BE003F0FF0CF8E74FF08045C5F8DE
:1006C0000C61C5F810617D4D2D1F2E60DDB2062D29
:1006D00008D1032806D1DFF8E4C103250CF1640C2E
:1006E000CCF80050DDB2062D10D103280ED1DFF872
:1006F000D4C10525CCF80050724D78352F60714D6E
:1007000008352E600CF104063F253560551C04D0D9
:1007100016460D46062E03D05BE0DEB20546F9E72D
:10072000ED1E012D55D9684D2D68684E3560664D1A
:100730002D1D2D68361D3560634D08352D68361D1D
:100740003560614D0C352D68361D35605E4D1035B8
:100750002D68361D35605C4D14352D68361D3560AD
:10076000594D18352D68594E20363560564D1C357B
:100770002D68361D3560544D20352D68361D356089
:10078000514D24352D68361D35604F4D28352D6867
:10079000361D35604C4D2C352D68361D35604A4D63
:1007A00030352D68494E40363560474D34352D681B
:1007B000361D3560444D38352D68361D3560424D47
:1007C0003C352D68361D35603F4D40352D68361D52
:1007D0003560551C03D01646062E02D007E0DEB267
:1007E000FAE7D4F858523A4E05F04F053560551CDB
:1007F00003D01346062B02D008E0DBB2FAE73548F7
:100800000368DB0702D06FF001030360062A07D1FB
:10081000C91E022904D93048016841F48061016091
:1008200027487438016841F470010160BFF34F8FAD
:10083000BFF36F8FD4E94C104FF01022062907D177
:10084000C01E032804D9D2F808021C491C310860D4
:10085000D2F80002002803DBD2F8040200281FDAD5
:10086000012002F04BFB1521C2F800121B4803685F
:10087000002BFCD0C2F8041201680029FCD0002033
:1008800002F03CFBBFF34F8F0D48F0380168144A6B
:1008900001F4E06111430160BFF34F8F00BFFDE73A
:1008A000114910480860F0BDE00F00F0E80F00F0BB
:1008B000403501400DF0ADBA00C007403C05004096
:1008C000FCED00E0105600400404001020C500407C
:1008D000E40E0040000400403C17004000E40140EA
:1008E0000400FA050090D003D00100200148006800
:1008F00000470000E400002002E008C8121F08C101
:10090000002AFAD170477047002001E001C1121F90
:10091000002AFBD17047022000F0F0B970B5002426
:10092000064D06E06868012110F8340001F05CFF14
:10093000641C28788442F5D3002070BDF0000020AC
:10094000F8B516460C4605460A2A01D20720F8BD1E
:1009500002F044F818B902F007F80028F7D1134F55
:10096000102113487D603C70BE60FFF798FD0020A9
:10097000C7E904000F4E0DE005EBC400316800919B
:1009800081788DF8011000780B4A694601F07CFFF0
:100990000028DCD1641EE4B2EED2BDE8F840054880
:1009A0000021064A001D00F05FB80000F0000020A2
:1009B0008C02002094390000291700002913000040
:1009C00072B601F0D1FD00BF01F024FC0028FBD17C
:1009D00011481249401AC408012000EB044010A13C
:1009E00001F032FD11480068C00700D000BE0220AF
:1009F00000EB04400EA101F027FDBFF34F8F0B4821
:100A0000E43801680E4A01F4E06111430160BFF36C
:100A10004F8F00BFFDE70000283E0000F03D0000C2
:100A2000466174616C206572726F7200F0ED00E0D7
:100A300053797374656D20726573657400000000EE
:100A40000400FA050EB500210091CDE901106A46B7
:100A500044F20100FFF7B4FF0EBD0000014800F0B2
:100A6000CABC00003001002010B55AB100684FF038
:100A7000FF3401294261C0E9024400D00021016134
:100A8000002010BD072010BD38B51148082358229A
:100A9000416800910F49006801F01AF8002815D14B
:100AA0000D4A69460D4800F0ABFC04000ED101214F
:100AB0000A4800F020FD0123094A1946074800F0C2
:100AC00072FC0649012008390870204638BD000034
:100AD0009C390000AC0200201131000030010020E0
:100AE000FFFF7F0070B5044616460D46002000F05B
:100AF0003CF8D4E90201C04370EA010004D00020B0
:100B000000F035F8002070BD00F0F4FD401941F10F
:100B10000001C4E90201002000F029F8A661206963
:100B200000B125612146BDE87040002002F0D8BC2C
:100B300010B50446002000F018F8D4E90201C043C3
:100B400070EA01000CD04FF0FF30C4E90200002031
:100B500000F00DF82146BDE81040012002F0C0BCB5
:100B6000002000F004F8002010BD00F003B800F0F1
:100B700009B8000072B602480168491C016070475C
:100B80004C01002003490868401E086000D162B68D
:100B9000704700004C0100202DE9F041064608682E
:100BA0000C46411C4FF0A0474FF0010506D005FA56
:100BB00000F1C7F80815206801F0E6F96068411CEB
:100BC00002D0002101F0CEF93168A069C1F82405F6
:100BD000607D227D31681043C1F86C05D4E90012B4
:100BE0003068C0F81425C0F80C15207D012815D1F7
:100BF000A068411C02D0002101F0B4F9E068411C5A
:100C000005D08540C7F80855E06801F0BDF9D4E982
:100C100002123068C0F80825C0F81015BDE8F08150
:100C20002DE9F041064608680C46411C4FF0A047EC
:100C30004FF0010506D005FA00F1C7F80815206845
:100C400001F0ACF96068411C02D0002101F093F979
:100C50003168A069C1F82405607D217D32680843B0
:100C6000C2F86C05D4E900123068C0F80C15C0F861
:100C70001425207D012815D1A068411C02D0002137
:100C800001F079F9E068411C05D08540C7F80855A6
:100C9000E06801F083F9D4E902123068C0F8082551
:100CA000C0F81015BDE8F0812DE9FC410646C007EB
:100CB0004FF000050ED0104F00240122385D009542
:100CC00000231146019501F0F3F8641C042CF4D3C1
:100CD00000F046F8B0070DD5074E0024361D00225F
:100CE000305D032300951146019501F0E1F8641C85
:100CF000042CF4D3BDE8FC815439000007490B5C97
:100D00004FF0A041D1F804250120984020EA0203C9
:100D1000C1F808351040C1F80C057047543900007F
:100D20000249085C012101F07AB900005439000041
:100D30000249085C002101F072B90000543900003A
:100D40000649095C4FF0A040D0F80405C84010F0F7
:100D5000010000D0012080F00100704754390000EC
:100D600010B500242046FFF7DBFF641C042CF9D3E8
:100D700010BD10B500242046FFF7DAFF641C042CD8
:100D8000F9D310BD10B50246064B4FF0FF300021DD
:100D90005C5C944201D1084610BD491C0429F7D37C
:100DA00010BD0000583900002DE9F0470D4681467E
:100DB000FFF7E8FF0446042836D2DFF874801B48AA
:100DC0001C4EA8F10C0725B3012D0ED0022D2BD1FE
:100DD00004EB440030444578002D25D0B968002943
:100DE00022D02846BDE8F047084704EB4401755C73
:100DF0000E44717849B10E4A4FF48041093A806837
:100E0000FFF770FE08B987F80390B17808F804106E
:100E1000E2E78068FFF78CFE04EB4401314418F8E8
:100E200004008D78A842D7D0BDE8F0875C39000077
:100E300070000020D401002010B50549032000F007
:100E40006DF8002803D0BDE81040FFF7FBBD10BDD2
:100E5000990E000070B50023042810D20D4D00EB50
:100E60004004012A02D101290CD00022094E00EBD6
:100E70004000304461B1012906D0022906D0072381
:100E8000184670BD0E30C2B22A55F9E74270F7E736
:100E90008270F5E7D401002070B5164C0E28217839
:100EA00006D00F2824D1172907D0491C217006E04D
:100EB00009B1491EFAE7172000E0002020702078D1
:100EC00000F020F805460B482178001D50F821203D
:100ED00009480A49401AC008032101EB004008A153
:100EE00001F0B6FA280003D0BDE87040FFF7AABDB4
:100EF00070BD000000000020283E0000F03D000012
:100F000025730000044A014600201279D20702D05E
:100F1000084600F04DB870476400002070B50646E2
:100F20001E480024C0E90161B00720D50025012238
:100F300011462846FFF78EFF6D1C0446042D02D291
:100F4000002CF4D013E094B940F233320421144859
:100F5000FFF7F6FC04000AD1FFF7E0FC040006D11D
:100F60000F48104A0021001FFFF77EFD0446F007DE
:100F700012D00120FFF798FE74B909480A4A0021EF
:100F80000C38FFF771FD040006D10548074A01211E
:100F90000838FFF769FD0446204670BD6400002054
:100FA0006839000075120000F918000017090000E8
:100FB0002DE9F05F6E4C054600266078B34618B107
:100FC00084F801B000F080FC6A4F4FF47A694FF466
:100FD000C87A4FF00108182D69D2DFE805F00C132C
:100FE00013384754696E727B727BC5848484848411
:100FF000B3B6B9BCC5C500F067FC3868FFF798FD0B
:1010000006465CE00020FFF79BFE00284FF0000042
:1010100008D0FFF785FE022D02D14FF4E16008E011
:10102000484606E0FFF784FE022D01D1C82000E00B
:101030005046410CC0034FF47A72801841F1000110
:10104000257052000023FFF7CDF901462AE0002069
:10105000FFF776FE00284FF0000004D0FFF760FE97
:101060004FF44870E5E7FFF763FEDFE70020FFF786
:1010700067FE00284FF0000002D0FFF751FECFE7D7
:10108000FFF756FED4E70020FFF75AFE00284FF086
:10109000000002D0FFF744FE01E0FFF749FE257093
:1010A00040F6CD4100223868FFF71CFD064646E0B9
:1010B0000020FFF723FE257008E0002051E0257096
:1010C0003DE084F801800120FFF718FE002240F285
:1010D0006661E8E784F801800120FFF70FFE002237
:1010E0004FF40051DFE77868FFF722FD0646D5F19F
:1010F000110000D02EB10220FFF712FE84F802B0DA
:101100001DE0012816D980B2C8214843C117C90380
:1011100041EA5041C0034FF47A72801841F1000156
:1011200052000023FFF75EF9014600227868FFF7BE
:10113000D9FC06460220FFF7FBFD84F8028030460A
:10114000BDE8F09F00F0C0FBB9E700F0BDFBB4E7DD
:1011500000F0BAFB04E000F0B7FB0020FFF7E8FD69
:101160000120FFF7E5FDAAE7FFF703FEA7E7000070
:10117000640000205C3900002DE9F0470546861C1C
:1011800091460F464FF0010A0020FFF7EEFC1B4C82
:1011900004F21C4860683860D4E90101184F401A15
:1011A0003968081A0EE00121404600F0D6FC00F034
:1011B000AFFB0146404600F0D0FCD4E90101401AE3
:1011C0003968081A401C8642EDD8B9F1000F03D0E7
:1011D000052065F3891002E0062065F39F506168E1
:1011E0003A68114004EB8101C86060683044606077
:1011F0000020FFF7BCFC5046BDE8F0879C040020AF
:101200007C01002070B50D4604460A2902D10D214B
:10121000FFF7F8FFA0682268411CA1601554D4E9CB
:101220000101814204D32046BDE8704000F047BD73
:1012300070BD0000044881684068814201D10120EE
:1012400070470020704700009C040020034630B522
:10125000074800210478426806E000BF02EBC100A5
:1012600005789D4203D0491CA142F7DB002030BD28
:10127000F000002000780221FFF796BD05494FF0ED
:10128000FF32082841F8202002D3084480F8482083
:1012900070470000E0010020F0B54FF0FF3512B1BB
:1012A0000023082601E008230C260C4C05E000BFB3
:1012B00054F823707F1C04D05B1CB342F8D328463B
:1012C000F0BD26185DB286F8305044F82310002A8D
:1012D000F5D1E11881F84800F1E70000E0010020B5
:1012E0000249084490F9300070470000E0010020F6
:1012F00006480121016000228807C0F804218160AE
:10130000D0F804110029FBD07047000018050040F8
:1013100010B5D0E90234D1E90220D11AA04101D39D
:10132000012010BD002010BD70B500240F4D10E04D
:10133000686800EBC406307801F00CFB7178012975
:1013400001D0012100E000214140307800F05CF93B
:10135000641C28788442EBDBD5E90401084303D000
:10136000BDE8704002F0D8B870BD0000F000002069
:1013700010B50021024800F0FBFB80F3100010BD07
:10138000B80800204FF480328A400168C1F8482331
:101390000068C0F8082370474FF4A07202EB810187
:1013A00089B200F09DB92DE9F04105460E464FF493
:1013B000A07000EB860081B228684FF48034B440FE
:1013C000984622F07F47C0F808432868C0F8484391
:1013D000286801F0B4F9286800EB8600C0F8407571
:1013E0002868C0F84443B8F1000F02D02868C0F85C
:1013F0000443BDE8F0810068D0F8040570470000A0
:1014000070B54379234C44F823204279231D03EB24
:10141000C202224C1579204A121BD4082DB108258E
:10142000022000EB04401EA130E005680A88C5F8E0
:10143000082590F904208978002A4FEA411104DB3D
:1014400002F1E02282F8001405E002F00F0202F13E
:10145000E02282F8141D90F904100122002909DB12
:1014600001F01F0502FA05F54909890001F1E021A3
:10147000C1F800514179002503EBC1010A7141799E
:1014800043F83100032000EB04400EA100F0DCFF24
:10149000284670BD50010020183E0000F03D0000BD
:1014A00052544320696E7374616E636520616C727F
:1014B0006561647920696E697469616C697A6564D3
:1014C0002E0000005254433A20696E697469616CC1
:1014D000697A65642E00000090F90400002809DB99
:1014E00000F01F02012191404009800000F1E0203E
:1014F000C0F8001270470A46022100F07BB84FF492
:10150000827100F0EDB80068012101607047006849
:101510000121416070472DE9F05F07460C464FF40A
:10152000A07000EB84001FFA80FA38684FF4803610
:10153000A6409B4622F07F45C0F848633868C0F853
:1015400008633868D0F8048500EB8402D2F840952F
:10155000C2F840855146386801F0F1F8A9EB08005F
:1015600020F07F40012806D1102001F035F95146C6
:10157000386801F0E4F83868D0F80485C0F84463AE
:10158000A5EB080121F07F413868012900EB8400B8
:1015900010D0C0F840553868D0F804156FF07F4C73
:1015A0006A1A521E22F07F42ACEB0B03934217D310
:1015B00062B118E06D1CC0F84055102001F00CF924
:1015C0003868D0F8040540450AD10CE000EB8400EF
:1015D0006D1CC0F840553868D0F80405884202D028
:1015E0000D20BDE8F09F01223146384600F002F898
:1015F0000020F6E70368C3F84413002A02D000680D
:10160000C0F80413704700002DE9F0470E46324938
:10161000804601EB5001C007097801D00F0901E0B5
:1016200001F00F07424601200021FEF70CFFDFF812
:10163000AC9004460D46052F4BD2DFE807F00314AB
:1016400019262A00002E44D00121404601F060FEF8
:101650000020FFF78AFA4846D0E904120C431543EC
:10166000C9E9044530E00EB1022114E0002112E086
:101670004EB10321404601F04BFE4046BDE8F04725
:10168000012102F057B9012105E0002E21D10421EA
:1016900001E02EB103214046BDE8F04701F038BE1D
:1016A0000021404601F034FE0021404602F042F99C
:1016B0000020FFF75AFA4A46E043D2E904341840C2
:1016C00024EA0501C9E90401BDE8F0470020FFF75D
:1016D0004EBABDE8F08700008C020020F000002028
:1016E00010B5006842581AB101F029F8012010BD68
:1016F000002010BD10B50B48FFF77DFE094A083ADF
:10170000D2E90434C018D2E9063244F10001C31A08
:1017100071EB020204D24FF08072801841F1000197
:1017200010BD00003001002010B5C0B2FFF78EFDE3
:101730000446007801F00EF901466078012801D0D6
:10174000012000E0002090EA010F08D00449D1E90F
:101750000401084303D1BDE8104001F0DDBE10BD17
:10176000F00000202DE9FC5F0E008346DDE90C4708
:10177000C6F1000098469246814600D408460125ED
:1017800003E000BF90FBFAF06D1C5045FADAA84563
:1017900000D9454624B1002E01DB780700D5641E30
:1017A000B80702D5B8F1000F0AD0F80708D13CB14C
:1017B000A54205D220215846641EFFF723FDF6E717
:1017C000002E02DA4E462D2102E0780703D52B21A8
:1017D0005846FFF717FD07F0030002280BD1B8F1B8
:1017E000000F08D13CB1A54205D230215846641EF5
:1017F000FFF708FDF6E7CDE900474346524631467C
:10180000584602F03DF8BDE8FC9F000070B50D465B
:10181000044600684FF4887100F0D7FF4FF49071D0
:10182000206800F0D2FF4FF49271206800F0CDFFE5
:101830004FF4A271206800F0C8FF4FF4AC7120682B
:1018400000F0C3FF20681249C0F80413206869073C
:1018500040F30730090E002804DB00F1E02080F897
:10186000001405E000F00F0000F1E02080F8141DE6
:10187000206840F30730002809DB00F01F02012137
:1018800091404009800000F1E020C0F8001170BDD7
:1018900010034200024600201268530713D502F0DD
:1018A0000300012802D002280CD105E0C2F3831006
:1018B0000B68801C184404E00223086803EB925272
:1018C00010440860012070470A4810B5807860B164
:1018D000002401E0022C06D02046FFF721FA641C08
:1018E000042CF7D310BD0324F6E7BDE81040FFF742
:1018F00037BA00006400002003480179C90702D00C
:101900000078FFF755BB7047640000207047000067
:101910002DE9FF410026244800F01CF92248001F51
:10192000074600F017F9214C2149A06800900D6886
:1019300000E000986946284004EB80000C30FFF777
:10194000A9FF0028F5D101AA009901EA050304EBDB
:101950008303491CDB6842F82030401C00910228B8
:10196000F2D3019800F0030001280BD0022810D117
:101970000198032101EB90500099BDF80A6001EB3A
:10198000900005E00198BDF80A60C0F38310084498
:101990000090384600F0DBF808B10098A06004B071
:1019A0003046BDE8F0810000B40800209C0400200F
:1019B0007C010020FFF79CFCFFF766F808B1FFF7F9
:1019C00041F84FF48041002000F0A2FD08B1FFF77C
:1019D00039F800F011FC0A480A49401AC0080321EE
:1019E00001EB004008A100F02FFDFFF725FA00BF32
:1019F00000F010FC0028FBD140BF20BF20BFF7E75C
:101A0000283E0000F03D0000425350206578616D93
:101A1000706C6520737461727465642E0000000040
:101A20002DE9F047C5881E1DB6FBF5F78946B6FBC4
:101A3000F5F1044605FB176C407916686843DDF83C
:101A400020A0F718001F874200D9C61A166001E0CF
:101A50002468491E0029FBD1A5EB0C078846B74234
:101A600016D818E004EB0C00001D09EB0803BAF1CE
:101A7000000F3A4602D00146184600E01946FEF72C
:101A8000F5FC2468F61B4FF0000CB844B54201D9B0
:101A9000374600E02F46002EE4D1BDE8F087000075
:101AA00030B5024651B100F047FD0021074C08E077
:101AB00034F821301568AB4202D11160002030BDEE
:101AC000491C8142F4D3052030BD00000000000015
:101AD00010B531B1B2FBF3F403FB14241CB109209F
:101AE00010BD0E2010BD0160002141608160828127
:101AF000C381084610BD70B50C460546FEF78AFB4B
:101B0000002802D021882868084470BD10B50A88D2
:101B100049888A4203D1FEF7BFFB012010BD002097
:101B200010BD70B50C460546FEF799FB002802D0A3
:101B300061882868084470BD10B50A8849888A42BF
:101B400003D1FEF783FB012010BD002010BD002152
:101B500000F009B8012100F010B808B56A46FEF798
:101B6000F0FB009808BD08B56A46FEF7D0FB08BD3B
:101B700008B56A46FEF7B2FB08BD08B56A46FEF72F
:101B8000B9FB009808BD08B56A46FEF7E7FB009868
:101B900008BD70B5044600252846FEF7E6FF21681B
:101BA0006268086890420ED9401E08600178238A56
:101BB000E26801FB0325227A2168101AC0B20A7973
:101BC000824200D208710020FEF7D1FF284670BD86
:101BD00070B505460C460020FEF7C7FFE868298A65
:101BE000201AB0FBF1F12A681068431C13600170E1
:101BF000BDE870400020FEF7BABF10B530B1017AE1
:101C000042680368891AC9B21A6006E00E2010BD46
:101C100003681A68541C1C601170491EC9B2F7D2BF
:101C2000006800210171084610BDC20800F00703DA
:101C30000120895C9840084070470000F0B50546D7
:101C40000478154889B0164640F82420124A0869DD
:101C5000121DA2F1080742F82400487F38552022BF
:101C60006846FEF703FC04942878385C48B10EB14E
:101C70000A4A00E000226946281D01F021F809B057
:101C8000F0BD0EB1064A00E00022694605F10C00E5
:101C900000F0E0FEF3E70000DC0000203D3700002C
:101CA000853500000FB408B50399002904D004AAB3
:101CB00000926A4600F00FF801B05DF814FB10B511
:101CC00082680446002A05D0D4E9040321689847B5
:101CD0000020A06010BD2DE9FC4791460C00804615
:101CE00076D014F8011B39B125290ED04046FFF7F4
:101CF00089FA20780028F4D198F80C00002867D0E1
:101D00004046BDE8FC47FFF7DABF002001222178FA
:101D10002B291BD02D2902D0302908D102E040F018
:101D2000010001E040F00200641C002AEFD1002510
:101D30002A290ED02178A1F130020A2A11D205EB0E
:101D4000850201EB4205641C303DF1E740F00400E0
:101D5000EAE7D9F800100B1DC9F800300968641CC7
:101D60000D44217800232E290BD114F8011FA1F175
:101D700030020A2A05D203EB830201EB4203303B17
:101D8000F3E76C290DD068290BD0692921D00BDC31
:101D9000252918D0582931D063290ED0642915D1AE
:101DA00017E014F8011FECE7702969D0732932D0CD
:101DB00075291BD0782909D120E0D9F80000011D30
:101DC000C9F8001001784046FFF71CFA641C90E740
:101DD0006CE0D9F800100A1DC9F800200968CDE9A7
:101DE00000500A224046FFF7BDFCEFE7D9F800108B
:101DF0000A1DC9F8002009680A2206E0D9F8001077
:101E00000A1DC9F8002009681022CDE9005040469B
:101E100001F036FDDAE7D9F8001000270A1DC9F8ED
:101E200000200E68C00705D112E04046761C7F1CDA
:101E3000FFF7E8F931780029F7D104E02021404686
:101E40006D1EFFF7DFF9BD42C0D9002DF6D1BDE709
:101E50004EB13046FEF72EFB074604E020214046F7
:101E60006D1EFFF7CFF9BD4206D9002DF6D103E074
:101E70004046761CFFF7C6F931780029F8D1A5E76E
:101E8000D9F80000011DC9F800100568302140464E
:101E9000FFF7B8F978214046FFF7B4F90820002190
:101EA000CDE90001034610222946B0E7BDE8FC87D2
:101EB00070B541EA4201DDE904564FF0A04441EA21
:101EC000830141EA052104EB800041EA0641C0F8A4
:101ED000001770BD70B541EA4201DDE904564FF0CC
:101EE000A04441EA830141EA052104EB800041EA74
:101EF0000641C0F8001770BD70B541EA4201DDE946
:101F000004564FF0A04441EA830141EA052104EB65
:101F1000800041EA0641C0F8001770BD70B541EA83
:101F20004201DDE904564FF0A04441EA830141EA51
:101F3000052104EB800041EA0641C0F8001770BD9E
:101F40001CB5002100910B4601220191FFF7D4FF3F
:101F50001CBD1CB5002100910B4601220191FFF729
:101F6000DDFF1CBD1CB500220B46009211460192FC
:101F7000FFF7C2FF1CBD1CB500220B4600921146A4
:101F80000192FFF7CBFF1CBD1CB5002100910B4651
:101F9000012201911146FFF7AFFF1CBD1CB50021C6
:101FA00000910B46012201911146FFF7B7FF1CBDBE
:101FB0004FF0A04202EB8000D0F8002722F440321C
:101FC000C0F80027D0F8002742EA0141C0F8001706
:101FD0007047000038B5094B44181B6800936B46E6
:101FE00008E000BF53F82010D1F8205520C2C1F8F6
:101FF0002055401C8442F5D838BD000088390000C7
:1020000042094FF0000100D1491E00F01F000122DB
:1020100082400A4201D0012070470020704701220F
:102020004FF0A043824011B1C3F808257047C3F8B0
:102030000C257047034908B5084400210160006879
:10204000009008BD0060004002494058012800D0BF
:10205000002070470060004030B5154A014600205E
:10206000D2F8104423460AE0DB681D79854205D189
:10207000401C0A28F6DB4FF0FF3030BD1B68002BF8
:10208000F2D1431CF9D0CB681871D2F8103443B1A7
:10209000DB68CC681B682360D2F81024D26811601A
:1020A00030BDC2F81014C96800220A6030BD0000BB
:1020B0009C040020F0B595B01C4615460F46084616
:1020C0001A9E00F009FB182109A8FEF7E8F90E9600
:1020D000CDE909540023082203A9384600F011FB7A
:1020E00005980690BDF81000ADF81C00BDF8120070
:1020F000ADF81E0000208DF821000398082600F09E
:102100000300012802D0022818D032E00398334699
:10211000850AC0F3C2008DF8200003980FA9C0F310
:102120008314A200384600F0ECFA09A8009006AB30
:1021300022460FA9284600F02BFA1AE00398840DD6
:10214000C0F3C2008DF82000082C01D2254600E023
:10215000082533462A460FA9384600F0D2FA2E4405
:10216000641B09AB06AA29460FA800F079F9002CD8
:10217000EAD1384600F0B6FA15B0F0BD704701203C
:1021800001F01EBA084810B50178084A515C19B12F
:10219000001D00F02FFE02E00C3000F029FDBDE82C
:1021A0001040002001F00CBA60010020D80000208F
:1021B00008B5034A00924023024AFFF77BFF08BD9F
:1021C000C5320000040300200A4A012902EBC000C6
:1021D00007D0022907D0032907D0042907D00020FF
:1021E000704702207047042070470079704740799B
:1021F00070470000F03D000010B5FFF7C0FF04215C
:102200000348FFF729FF02490120C968487110BD42
:10221000E03D00002DE9F0478CB0FFF70BF818B156
:1022200000200CB0BDE8F0877D4C0020C4F81804F5
:10223000BFF34F8F7B49A06802900D684FF00008F4
:10224000284004EB80000BE0D4F8180470B96168F2
:102250000298814201D8A160E2E7284004EB8000A7
:102260000C3002A9FFF716FB0028EDD1002003AACD
:10227000029901EA050304EB8303491CDB6842F879
:102280002030401C02910228F2D3039800F0030092
:10229000022802D001284DD0A7E003985022810DDA
:1022A0008946B2EB905F00D850210E4666F39F50EE
:1022B000039008315C4800F0C6F9070078D000F0C0
:1022C0000BFA4346082203A9384600F022FA029985
:1022D00008F1080A2940681A8000001D864222D9A8
:1022E0004F4D0C3530B1C2B204EB8101301A90462B
:1022F0000C3104E02946F2B2002590462846C6B2C9
:102300005346384600F005FA0AEB080325B1324679
:102310002946384600F0FDF9029909F1030001EB66
:10232000900002903BE004EB810153463246384670
:102330000C31EFE70398C0F38310062800D3062082
:10234000039960F38911C1F38310801C039181000C
:10235000354800F078F9070047D000F0BDF9434652
:10236000082203A9384600F0D4F908F1080800262D
:102370000FE00298434600EA0501401C04EB81018E
:102380000290042238460C3100F0C3F908F1040829
:10239000761C0398C0F38310B042EAD847B1D4F852
:1023A0001054D4F8180478B1384600F09BF931E0A5
:1023B0001BE0E8684079012804D12A68284639469C
:1023C00012689047E8680568002DF2D1384600F0A1
:1023D00089F90020FEF7C9FBD4F8180408B902985F
:1023E000A0600020FEF7C3FB14E0D4F8104405E021
:1023F0002168204689688847E0680468002CF7D186
:102400000A480B49401AC008022101EB004009A10B
:1024100000F01AF8FEF70EFF80F0010001E700005F
:102420009C0400207C010020303E0000283E00007B
:10243000F03D00004261636B656E647320666C75ED
:10244000736865640000000000231A4600F078BF3E
:1024500008B5012300926A4600F072FF08BD000033
:102460002DE9F0470E4680461C469246082940D882
:1024700094F80C90002020731946104600F0F0FDEF
:102480000025B54206D218F805201BA12046FFF70B
:1024900009FC03E01AA12046FFF704FC6D1C082D7F
:1024A000EFD318A12046FFF7FDFB0025B54212D25D
:1024B00018F805707E2F08D8FDF7D4FF0068C05DBE
:1024C00010F03E0F01D03A4600E02E220EA1204629
:1024D000FFF7E8FB03E00DA12046FFF7E3FB6D1CCF
:1024E000082DE3D301222146504600F09BFD84F8DD
:1024F0000C90BDE8F0870000202530327800000005
:10250000202020007C000000256300002000000047
:10251000064910B500200870054800F0E1F80028D1
:1025200003D1044800F0FDF8002010BD9C040020F9
:10253000303E0000F439000002480349401AC00848
:1025400070470000303E0000F03D000013B56846C3
:10255000FFF7A6FA08B100201CBD0248009950F808
:1025600031001CBDF03D000070B508480125D0F8D1
:102570001044057007E0E06845712168204649680D
:102580008847E0680468002CF5D170BD9C040020E9
:102590002DE9FF4781460C9D00200C462F7B2873B8
:1025A000984616462946184600F05AFD072E42D294
:1025B000DFE806F004090F161F2A360049462846B0
:1025C000FFF770FB37E0494628462268FFF76AFBB1
:1025D00031E0D4E9002349462846FFF763FB2AE0AF
:1025E000A0680090D4E9002349462846FFF75AFB2B
:1025F00021E0D4E90201CDE90001D4E900234946F4
:102600002846FFF74FFB16E004F1080007C88DE8E5
:102610000700D4E9002349462846FFF743FB0AE0B8
:1026200004F108000FC88DE80F00D4E900234946E3
:102630002846FFF737FB00222946404600F0F2FC0F
:102640002F73BDE8FF872DE9F041058A80462D1FD5
:102650004819C01CB0FBF5F0C6B24046FFF799FA26
:10266000041E19D00020207101206071E580002730
:102670002546761EC4F800800BE04046FFF789FA35
:1026800060B16179491C6171286005467F1CC0F802
:102690000080B742F1D32046BDE8F081204600F02B
:1026A00002F80020F8E72DE9F041457901466B1E5C
:1026B000002201E00968521C9A42FBD30F680146D0
:1026C000002605E038460C68FFF782FA2146761CA2
:1026D000AE42F7D3BDE8F0810121001DFFF73DBAFE
:1026E000FFF78BBA10B504460121001DFFF74BFA26
:1026F00010F0FF0F04D12046BDE81040FFF7D3BF14
:1027000010BD1CB501920122009201AAFFF788F9C1
:102710001CBD1CB501920022009201AAFFF780F9AE
:102720001CBD8268002191608268116182685161DC
:102730008268D1608268516080680160704708B526
:10274000002242504058009008BD70B50D46064624
:10275000446804E0B2682946904718B124682068AC
:102760000028F7D120682860256070BD40680068A7
:10277000704741680868002801D002680A60704705
:1027800002460020526806E08B4203D108681060C0
:10279000012070471A461368002BF5D17047405846
:1027A000002800D00120704708B500224250405850
:1027B000009008BDD0F80403084000D00120704705
:1027C0004058002800D00120704708B50022425030
:1027D0004058009008BD0000002802D00149800147
:1027E00008477047B13900002DE9F0410E46054613
:1027F00000F09EFB0028284619D0FEF771FD08382E
:1028000000F008FC032802D001280ED007E04FF0AA
:10281000A040D0F81005E84010F0010F05D00321CA
:102820002846BDE8F041FFF7C3BB0221F8E700F0FE
:102830008BFB002822D02846FEF752FD04464FF4B9
:10284000807000EB84000E4F81B207EB8400D0F85B
:10285000102542F00102C0F810250846FFF7EAFBF8
:10286000002E0BD02846FEF73BFD064951F820000C
:10287000002803D00120A040C7F80403BDE8F08180
:1028800000600040E00100202DE9FC41DFF8B88045
:10289000044608EB0400002790F930001346C017E7
:1028A0000E46401C01D008274AE0B0781946C0F314
:1028B00040022046FEF7F0FC0546401C3FD0B078B1
:1028C000410717D4C0070AD04FF0A04000EB8400A6
:1028D000D0F8001721F00201C0F8001707E000212E
:1028E0007378204600910A460191FFF7F3FA2046DB
:1028F00000F010FBB078800718D51448317800EB51
:102900008500D0F81025124B1A40C0F810254FF45E
:10291000F8524FF4403302EA042203EA01410A4329
:10292000D0F810150A43C0F8102509E008EB05009F
:10293000327810F8481F41EA8211017000E0042744
:102940003846BDE8FC810000E00100200060004046
:10295000FFE0FCFF4FF0A041D1F81015C14011F08D
:10296000010000D00120704770B5194D95F858004E
:1029700008B1082070BD0024661E2046FFF740FB0A
:1029800010B1281980F83060641CE4B2202CF4D314
:1029900000242046FEF772FC641CE4B20C2CF8D331
:1029A00000200D4968650B4CC02081F80004012609
:1029B0004020891FC1F800014FF4BE70FFF73AFBB9
:1029C000A004C4F8040385F85860002070BD00001E
:1029D000E00100200060004006E000E0034890F8BD
:1029E0005800002800D0012070470000E0010020BE
:1029F0000121B1EB507F01D10120704700207047C9
:102A000070B50D4600F078FB04000FD00020FEF7F3
:102A1000ACF8207920B10020FEF7A9F8112070BD94
:102A20000120256020710020FEF7A1F8002070BD74
:102A300010B500F061FB002802D000210160017197
:102A400010BD00000149024800F0E2BD3C02002038
:102A5000002000402DE9F0410546007916460F465A
:102A600000EB40012D4A01EBC00102EB810494F818
:102A70002A1011B10820BDE8F081294951F8201031
:102A80002868FFF7BDFF08B11120F4E73946284652
:102A9000FEF782F866603869206030004FF001066A
:102AA0002FD03F7F4FF48E712868FFF77DFE4FF4E3
:102AB000A2712868FFF778FE28681A49C0F8041345
:102AC00028684FEA471140F30730002804DB00F183
:102AD000E02080F8001405E000F00F0000F1E02095
:102AE00080F8141D286840F30730002809DB00F047
:102AF0001F0106FA01F14009800000F1E020C0F852
:102B0000001128680421C0F800150020A061E061D0
:102B100084F8290044F8140FA675ACE73C020020A5
:102B20008C390000800002002DE9F05F0546007935
:102B30000B4600EB400101EBC000244901EB80048F
:102B4000284600F045F810B11120BDE8F09F626101
:102B50004FF00009C4F82090A36084F828904FF447
:102B60008E784E4641462868FFF71EFE28684FF0D3
:102B7000010AC0F808A02146286800F0D9FC606866
:102B800008BBD5F800B067690FE000BF94F82800D3
:102B900008B10F2615E041465846FFF700FE002811
:102BA000F4D02146584600F0C3FC206AB842F2D364
:102BB000574641462868FFF7F2FD0028F9D02868FB
:102BC000C760C4F814903046BFE700003C02002004
:102BD000007900EB400101EBC000044901EB8000EB
:102BE0004069002800D00120704700003C0200200E
:102BF0002DE9F047044600794FF0000900EB400151
:102C000001EBC000284901EB80072068C0F800955F
:102C10007868B0B120682549C0F80813206840F3EF
:102C2000073000280DDB00F01F0201219140400910
:102C3000800000F1E020C0F88011BFF34F8FBFF398
:102C40006F8F2068D0F80C25D0F81485D0F808656F
:102C5000D0F810554FF0FF31C0F81415C0F80C151E
:102C60002068C0F80815C0F81015501C02D0104696
:102C7000FFF766F9B8F1FF3F02D04046FFF760F971
:102C8000681C02D02846FFF75BF9701C02D0304662
:102C9000FFF756F92068FFF7CBFE87F82A90C7F8B0
:102CA0000490BDE8F08700003C020020840202008E
:102CB0000149024800F05ABD68020020002000408F
:102CC0002DE9F0410546164600790F46154A00EBFE
:102CD000C00102EB810494F8201011B10820BDE876
:102CE000F081114951F820102868FFF789FE08B1DA
:102CF0001120F4E739462846FDF792FF66603869EF
:102D000020601EB1397F2846FEF780FD2868082123
:102D1000C0F800150020A061E0616061012184F825
:102D20002010DCE768020020903900002DE9F04710
:102D300004460E460079274900EBC00001EB8005F0
:102D400017463046FFF754FE30B1204600F044F8F5
:102D500020B11120BDE8F0871020FBE76F61AE6065
:102D60004FF490774FF0000839462068FFF72DFDAB
:102D70004FF4AC7631462068FFF727FD2068AA683B
:102D80006969C0F84425C0F8481520684FF001096A
:102D9000C0F808906868D0B9BA4651462068FFF775
:102DA0000FFD074631462068FFF70AFD0743F4D0C0
:102DB00010B14FF00F0808E02068C0F80C903146C1
:102DC0002068FFF7FDFC0028F9D00020686140462C
:102DD000C0E70000680200200079054900EBC00050
:102DE00001EB80004069002800D0012070470000FE
:102DF000680200202DE9F047064600793D4900EBC6
:102E0000C00001EB8005346868680127A8B13A4921
:102E1000C4F80813306840F3073000280DDB00F0D9
:102E20001F0107FA01F14009800000F1E020C0F81D
:102E30008011BFF34F8FBFF36F8FD4F8000220F0E3
:102E40002000C4F80002A8694FF4A27820B14146DE
:102E50002046FFF7BAFC67604FF4AC79494620463C
:102E6000FFF7B3FCE760474649462046FFF7A8FC5A
:102E70000028F9D0A86928B139462046FFF7A0FC00
:102E80000028F1D04FF0000AC4F800A53068D0F84F
:102E90000C25D0F81495D0F80885D0F810754FF0AF
:102EA000FF31C0F80C15C0F814153068C0F80815CB
:102EB000C0F81015501C02D01046FFF74AF8B9F1BF
:102EC000FF3F02D04846FFF744F8781C02D038464E
:102ED000FFF73FF8B8F1FF3F02D04046FFF739F85F
:102EE0002046FFF7A5FD85F820A0C5F804A0BDE8A1
:102EF000F0870000680200201003420003490860C8
:102F0000034801680029FCD07047000004E5014037
:102F100000E4014010B50549C20800F00703885CD1
:102F200001249C402043885410BD0000340200203E
:102F30000449084490F93000082801DB012070475B
:102F400000207047E00100200449084490F9300057
:102F5000082801D20120704700207047E0010020BE
:102F60002DE9F05F2A4F06464FF0A04A4FF0010BC3
:102F70000024381990F95010491C3CD090F85000AA
:102F8000314620F0C0052846FEF74FFE20B320460C
:102F900000F040F881460AEB8500D0F80007C0F346
:102FA0000148B8F1020F18D002212846FFF700F8B7
:102FB0000BFA05F1CAF820152846FEF791F957F8E3
:102FC00020204AB14846B9F1030F11D0B8F1020FE1
:102FD00005D0B8F1030F07D00DE00321E5E748461F
:102FE000B9F1010F04D006E04846B9F1020F02D151
:102FF000014628469047641C042CBAD3324601216E
:103000000020FEF7E7FF30680028B1D1BDE8F09F4F
:10301000E00100200249084490F850008009704700
:10302000E001002010B50C46017A052908D0407A4D
:1030300038B1084808A102682046FEF733FE00E0D8
:103040001AB106A12046FEF72DFE2046BDE810402D
:10305000FEF735BEAC010020257300000D0A00000C
:1030600038B5C3880D46044633B114A0009015A2AC
:1030700016A12846FEF716FE217A05291CD0607A93
:1030800048B1A088FFF7A0F8164951F8202016A1F2
:103090002846FEF707FEA0880021FFF757FA0346EF
:1030A0001049207A143951F8202001B02846BDE893
:1030B00030400EA1FEF7F6BD38BD00001B5B306D41
:1030C000000000001B5B313B33316D0025734C6FFA
:1030D00067732064726F70706564202825642925E9
:1030E000730D0A00AC010020257300003C25733EDF
:1030F0002025733A200000000349884201D103488B
:10310000704700207047000000200040E4000020CD
:1031100070B50546FEF7F3F9134C40B1D4E904024B
:103120004FF08071411842F10000C4E90410002101
:103130002846FEF731F930B1606820B1606800F0D0
:103140004BF90020606001212846FEF725F918B1EF
:10315000FEF7D0FAC4E90601284600F081F92846B6
:10316000BDE8704000F038B8280100202DE9F0419A
:1031700000260E70D0E902740D468046FEF7BAFABA
:10318000381A002364EB01011A461B1A8A4115DA2A
:10319000B0F5350F04D3FDF761FC0D49421800E08E
:1031A0003A464FF4960300210A48FEF7B4F910B1ED
:1031B0000D2807D00AE00120BDE8F0810021054874
:1031C000FEF7E0F8404600F007F928700020F3E72A
:1031D000FFFFB40030010020F8B5204C0646002562
:1031E0001F48FFF7C3FA10B3D0E90210CA4372EACE
:1031F000000224D0626882B16368D3E90223891A8D
:10320000984127D26068D0E90210C94371EA0001F1
:1032100003D061681248FFF798FA00F073F8074688
:103220006946FFF7A3FFB0B1606858B10DE0606870
:1032300000280FD13046BDE8F840FEF768B900F02D
:1032400061F8CDE73046FEF75EF967609DF8000053
:103250000028C5D1F8BD6560C2E700002801002044
:10326000A439000070B5054688690C4600284FF463
:10327000847128460AD0FFF797FAD5F81805626AD4
:10328000E1688854606A401C606270BDFFF78CFA88
:10329000D5F8180570BD1FB501238DF80030CDE9B4
:1032A0000121D0E90012684690471FBD1FB50123D8
:1032B0008DF80030CDE90121D0E900126846904731
:1032C0001FBD000070B50D4C0020D2B22070201D33
:1032D0000B4D0378EB5C1BB1001DFFF727FD02E0EF
:1032E0000C30FFF721FC08B1FDF7ACFB607800283B
:1032F00002D021780029FAD070BD00005C010020C6
:10330000D80000200148FFF734BA0000A4390000BB
:10331000C207002A03D000BF4FF00F0201E04FF0B8
:10332000F00201D04FEA0111044B03EB500318786F
:1033300000EA020040EA0100187070478C02002089
:103340002DE9F84F074622489146884605681E46F3
:10335000012269461846FDF70FFFDFF878A060B339
:10336000009800210446801C0AE000BF00EA050224
:1033700059F821C00AEB8202401C491CC2F80CC05B
:10338000B142F3D34FEA1749FDF7F2FF611C294020
:103390000AEB810149EA00422C40CA600AEB840131
:1033A000C86867F3C50066F3891068F39F2020F0B2
:1033B0000300401C20F00400C8609AF8000001E0FF
:1033C000FEF728FF0028FBD1FEF7A0FABDE8F88F32
:1033D0007C0100209C04002070B504461E48002596
:1033E000007860B35CB3FEF785F9D4E90223801A54
:1033F000994125D30020FDF7B8FB206910B9681E5C
:10340000C4E902000020FDF7B2FBD4E905108847AB
:103410000020FDF7AAFB226972B1D4E90210CB4368
:1034200073EA000308D0891840F10000C4E90210D3
:103430000020FDF79CFB07E00020FDF798FB08E06B
:10344000D04370EA030004D021460448FFF77DF919
:103450000125284670BD000028010020A439000085
:1034600038B51D4D69462868FEF75BFB1B4C30E004
:10347000017821B101290ED0022922D117E041683B
:10348000D1E90220D24372EA00021AD01248083071
:10349000FFF75BF915E041686068814202D10020C6
:1034A00060600EE00C480830FFF76AF909E0FFF7AA
:1034B00029FF20B14FF0FF31C0E90211F7E70120E9
:1034C000207069462868FEF721FB69462868FEF7E8
:1034D00028FB0028CCD138BD9C39000028010020F1
:1034E000F8B50B4C0D46064669462068FEF703FB0F
:1034F00058B10670456069462068FEF71DFB10B1A3
:103500000448FDF7E9FF0020F8BD0420F8BD0000E5
:103510009C390000300100200348806841080348BE
:1035200000224068FDF7DEBAF00000209439000068
:1035300070B50C4605464FF48E71FFF735F9216AD8
:10354000A068415C206A401C2062C5F81C1570BD53
:103550001FB500228DF8002002918168019142611F
:10356000D0E90012684690471FBD1FB500228DF8B4
:1035700000200291816801914261D0E90012684601
:1035800090471FBD1FB50A4601788DF800104168AD
:103590000191017A8DF80810C0680390044850F832
:1035A0002210001F50F82220684690471FBD0000DF
:1035B000E000002001490120087070475C010020F4
:1035C00010B588B0044620220E496846FCF74EFF2D
:1035D00006200090C01F0190029003904FF0EB7006
:1035E00006900CB1084A00E0002269460748FEF741
:1035F00025FB08B1FDF726FA0448001F447008B007
:1036000010BD0000D4390000B53500006001002075
:103610002DE9FF470C4605464FF40071FFF7CAF845
:1036200001274FF40178002618B34FF492794946E8
:103630002846FFF7B4F8E0B149462846FFF7B4F84A
:10364000C5F8088394F8290000B96F6002208DF84E
:103650000000D5F88004C5F880040390A0690290AA
:10366000E0680190A661E661D4E9001268469047DF
:1036700028E004212846FFF79DF818B34FF4847121
:103680002846FFF78CF8E8B121462846FFF7EAFD07
:10369000616AA069884215D1E06938B1E268616A5F
:1036A000A0612069E6616662E06008E094F82900A4
:1036B00000B96F60C5F80883A661E268616A2046B8
:1036C000FFF7E9FD4FF48E7841462846FFF767F88B
:1036D00080B16069216A814202D294F8280028B33F
:1036E00041462846FFF760F8606918B161692046D5
:1036F000FFF72EFF4FF4A27841462846FFF74FF818
:10370000002818D041462846FFF74EF894F82900C3
:1037100000B12F60A06900280DD0A661E268616A3F
:1037200004B02046BDE8F047FFF7B5BD2146284666
:10373000FFF7FEFEDEE7BDE8FF8700001FB50A4683
:1037400001788DF8001041680191017A8DF8081018
:10375000C0680390044850F82210001F50F822203F
:10376000684690471FBD0000E00000202DE9FF41A2
:103770000C464FF4927705463946FFF721F80026AC
:10378000B8B139462846FFF720F802208DF800002E
:10379000D5F88004C5F880040390D5F83C05029064
:1037A000E0680190A661E661D4E90012684690479E
:1037B00023E04FF4887739462846FFF701F8E0B157
:1037C00039462846FFF701F8D5F83C15A06988422C
:1037D00013D1E06960B1E268D5F8000220F0200062
:1037E000C5F80002E069A0612069E661E06001E0DF
:1037F000A661E2682046FFF759FD4FF4A2773946EB
:103800002846FEF7DDFF68B139462846FEF7DDFFA2
:10381000A06938B1A661E661D5F83C152046E2689A
:10382000FFF744FD4FF4907631462846FEF7C8FF77
:1038300060B131462846FEF7C8FF0120E8606069A4
:1038400020B1D5F84C152046FFF78FFE4FF4AC762B
:1038500031462846FEF7B4FF00280ED031462846F0
:10386000FEF7B3FF6069002807D0D5F84C1504B007
:103870002046BDE8F041FFF778BEBDE8FF810000BB
:103880002DE9F05F8346DDE90A4A994690460D46E8
:103890000846012703E000BFB0FBF8F07F1C40455D
:1038A000FAD2B94500D94F465FEACA7012D18CB13D
:1038B0005FEA8A7002D5B9F1000F01D0202607E037
:1038C000302605E031465846641EFDF79BFC0CB1DE
:1038D000A742F7D35FF00106B9F1010F02D9A9F1B0
:1038E000010903E0B5FBF6F0404502D306FB08F6FC
:1038F000F2E7DFF83C9000BFB5FBF6F000FB165591
:1039000019F800105846FDF77DFCB6FBF8F6002EBE
:10391000F2D15FEACA7009D0002C07D0A74205D2C5
:1039200020215846641EFDF76DFCF5E7BDE8F09FC9
:10393000B639000070B50C460546FDF787FC002837
:1039400007D04268002A04D021462846BDE87040CE
:10395000104770BD111213140D0E0F1078000020C7
:1039600098000020B80000200D000300A90D000001
:103970000E000300A90D00000F000300A90D0000B8
:1039800010000300A90D000000000050452A0000AF
:10399000B12C000003000000080100209C02002060
:1039A0000100060000000000480100201113000083
:1039B0000338FDD870473031323334353637383933
:1039C0004142434445460000B121000085210000EA
:1039D0007D210000FFFFFFFFFFFFFFFFFFFFFFFF55
:1039E000FFFFFFFF00000000000000000000D60104
:1039F00006010000040400207F0000008404002071
:103A000000404040404040404040414141414140F1
:103A100040404040404040404040404040404040A6
:103A20004005020202020202020202020202020235
:103A3000022020202020202020202002020202023A
:103A40000202909090909090101010101010101092
:103A5000101010101010101010101010020202029E
:103A600002028888888888880808080808080808E2
:103A700008080808080808080808080802020202DE
:103A800040000000013A00004253505F494E444953
:103A9000434154455F555345525F53544154455F2C
:103AA000300000004253505F494E44494341544561
:103AB0005F414C4552545F30000000004253505F5C
:103AC000494E4449434154455F555345525F535411
:103AD0004154455F310000004253505F494E444914
:103AE000434154455F414C4552545F310000000052
:103AF0004253505F494E4449434154455F555345F5
:103B0000525F53544154455F320000004253505FAE
:103B1000494E4449434154455F414C4552545F32FC
:103B2000000000004253505F494E44494341544510
:103B30005F555345525F53544154455F3300000075
:103B40004253505F494E4449434154455F414C45BF
:103B500052545F33000000004253505F494E4449C5
:103B6000434154455F434F4E4E4543544544000046
:103B70004253505F494E4449434154455F41445686
:103B80004552544953494E475F4449524543544571
:103B9000440000004253505F494E4449434154455C
:103BA0005F49444C450000004253505F494E444930
:103BB000434154455F555345525F53544154455F0B
:103BC0004F4646004253505F494E44494341544595
:103BD0005F414C4552545F4F464600004253505F90
:103BE000494E4449434154455F424F4E44494E4734
:103BF000000000004253505F494E44494341544540
:103C00005F5343414E4E494E470000004253505FC0
:103C1000494E4449434154455F41445645525449F5
:103C200053494E47000000004253505F494E4449FB
:103C3000434154455F53454E545F4F4B00000000D5
:103C40004253505F494E4449434154455F524356A5
:103C50005F4F4B004253505F494E444943415445E6
:103C60005F555345525F53544154455F4F4E0000DA
:103C70004253505F494E4449434154455F53454E7A
:103C8000445F4552524F52004253505F494E44499F
:103C9000434154455F464154414C5F4552524F5257
:103CA000000000004253505F494E4449434154458F
:103CB0005F5243565F4552524F5200004253505F8D
:103CC000494E4449434154455F4144564552544945
:103CD00053494E475F57484954454C495354000097
:103CE0004253505F494E4449434154455F41445615
:103CF0004552544953494E475F534C4F57000000BB
:103D00007761726E696E67006465627567000000B6
:103D10001B5B313B33306D001B5B306D00000000DE
:103D20001B5B313B33316D001B5B313B33326D002C
:103D30001B5B313B33336D001B5B313B33346D0018
:103D40001B5B313B33356D001B5B313B33366D0004
:103D50001B5B313B33376D00696E666F00000000FE
:103D60006572726F720000004750494F5445000061
:103D700050525300554152540000000055415254D6
:103D8000450000006170705F627574746F6E0000B2
:103D90006170705F74696D6572000000736F72749A
:103DA0006C69737400000000756172745F6C6F67FA
:103DB0005F6261636B656E6400000000617070009B
:103DC000443E000000000020D4010000080500006F
:103DD000D83E0000D4010020EC26000008090000B5
:103DE000C839000000000000A83D00007401002058
:103DF000683D000000000000703D00000000000071
:103E0000743D0000000000007C3D00000000000048
:103E1000843D000000000000903D00000000000014
:103E20009C3D000000000000BC3D000000000303BA
:103E30008801002080010020880100204403002028
:103E4000180000004123943B1AF404230C3C1ABCD4
:103E5000041AE0041A70101ADC041A58042A2810F4
:103E600019041A40041AA4042A8808223A1AD80409
:103E70001A0C201A40041AC4041AA8041A88141A26
:103E8000BC041AF0041A24101A542C011C5AFF0105
:103E90000956200130091F501510014011022E044F
:103EA0001220BA400829685904011C33603D1904E6
:103EB0001A58041A08041A18041A10041A20041AAA
:103EC00028041A30041A38041A40041A48042A50E4
:083ED00030040090D003000053
:0400000500000201F4
:00000001FF
