:020000040000FA
:10000000C0280020C1030000C9030000CB0300008A
:10001000CD030000CF030000D1030000000000006A
:10002000000000000000000000000000D3030000FA
:10003000D503000000000000D7030000D903000032
:1000400005060000DB03000049080000DB03000098
:10005000DB030000DB03000061050000DB030000A0
:10006000DB030000DB030000DB030000DB03000018
:10007000DB030000DB030000DB030000DB03000008
:10008000DB0300005D060000DB030000DB03000073
:10009000DB030000DB030000DB030000DB030000E8
:1000A000DB030000DB030000DB030000DB030000D8
:1000B000DB030000DB030000000000000000000084
:1000C000DB030000DB030000DB030000DB030000B8
:1000D000DB030000DB030000DB030000DB030000A8
:1000E000DB030000DB030000DB0300000000000076
:1000F00000000000DB03000000000000DB03000044
:1001000000000000000000000000000000000000EF
:1001100000000000000000000000000000000000DF
:1001200000000000000000000000000000000000CF
:1001300000000000000000000000000000000000BF
:1001400000000000000000000000000000000000AF
:10015000000000000000000000000000000000009F
:10016000000000000000000000000000000000008F
:10017000000000000000000000000000000000007F
:10018000000000000000000000000000000000006F
:10019000000000000000000000000000000000005F
:1001A000000000000000000000000000000000004F
:1001B000000000000000000000000000000000003F
:1001C000000000000000000000000000000000002F
:1001D000000000000000000000000000000000001F
:1001E000000000000000000000000000000000000F
:1001F00000000000000000000000000000000000FF
:10020000DFF80CD000F06EF90048004751190000EB
:10021000C028002030B450E8012F93B2C489234491
:100220008489A34228BF1B1B0489A34202BFBFF3DA
:100230002F8F002007E0C3EA020340E80134002CBE
:10024000E9D14FF001000A6030BC704750E8012F3F
:10025000C2EA024240E801210029F7D1704730B4D8
:1002600050E8022F1FFAA2F3C488A34202BFBFF3D3
:100270002F8F00200DE0C48923448489A34228BF26
:100280001B1BC2EA034340E80234002CE8D14FF0C4
:1002900001000A6030BC704750E8022FC2EA2242D7
:1002A00040E802210029F7D17047034653E8022FA6
:1002B000D988B2EB324F4FF0000017BF92B241EA3B
:1002C000014142EA014104E05A68B2EB324F08BFF3
:1002D000012043E80212002AE8D1704730B40446F6
:1002E00054E8000F0D4644E80053002BF8D1156088
:1002F00030BC704730B4044654E8000F40EA0105B2
:1003000044E80053002BF7D1156030BC704730B47F
:10031000044654E8000F00EA010544E80053002BAE
:10032000F7D1156030BC704730B4044654E8000F74
:1003300080EA010544E80053002BF7D1156030BC7A
:10034000704730B4044654E8000F00EB010544E860
:100350000053002BF7D1156030BC704730B4044611
:1003600054E8000FA0EB010544E80053002BF7D13F
:10037000156030BC704770B404464FF0000054E87C
:10038000006F0D68AE4207BF44E80023012044E837
:1003900000630E60002B1CBF0020F0E770BC7047AC
:1003A00030B4044654E8000F88422CBF451A054675
:1003B00044E80053002BF5D1156030BC70470000B5
:1003C0000648804706480047FEE7FEE7FEE7FEE7EF
:1003D000FEE7FEE7FEE7FEE7FEE7FEE76D0600004C
:1003E000010200002DE9F05F0546002092469B4681
:1003F00088460646814640241BE02846414647463B
:10040000224600F05EF853465A46C01A914110D376
:1004100011461846224600F016F82D1A67EB01081F
:100420004F4622460120002100F00DF817EB00098D
:100430004E41201EA4F10104DFDC484631462A4625
:100440004346BDE8F09F202A04DB203A00FA02F17F
:10045000002070479140C2F1200320FA03F31943B2
:100460009040704700487047243D000040EA010377
:100470009B0703D009E008C9121F08C0042AFAD25A
:1004800003E011F8013B00F8013B521EF9D270471E
:10049000D2B201E000F8012B491EFBD270470022C6
:1004A000F6E710B513460A4604461946FFF7F0FF73
:1004B000204610BD421C10F8011B0029FBD1801AF8
:1004C0007047202A04DB203A21FA02F0002170470D
:1004D00021FA02F3D040C2F12002914008431946AC
:1004E00070470000064C074D06E0E06840F001034D
:1004F00094E8070098471034AC42F6D3FFF784FE27
:10050000F83D0000183E000070B58C1810F8015B33
:1005100015F0070301D110F8013B2A1106D110F89C
:10052000012B03E010F8016B01F8016B5B1EF9D1A0
:100530002B0705D40023521E0DD401F8013BFAE726
:1005400010F8013BCB1A921C03E013F8015B01F891
:10055000015B521EF9D5A142D8D3002070BD000026
:100560002DE9FC410025DFF8948000954FF480765A
:1005700001242F460195304601F0FCFD38B1D8F832
:100580000403204203D0304601F0EAFD2543361D26
:1005900064007F1CB6B2082FEDD34FF4BE74204622
:1005A00001F0E8FD48B1204601F0DAFD45F00045D4
:1005B0006A460221002001F03BFD15F0FF0F16D026
:1005C000012600242E420ED008EB8401D1F810053C
:1005D000D1F81015C0F30520094AC1F3014152F8C2
:1005E000242002B190477600641C082CEAD3002D29
:1005F00002DA684602F0A2FDBDE8FC81006000401E
:10060000C401002070B54FF48076304601F0D1FA75
:10061000114CB50560B1304601F0D2FA0120C5F8A1
:100620000803607920B901206071216800208847A3
:100630004FF48276304601F0BCFA00280AD03046EA
:1006400001F0BEFA0220C5F808032168BDE8704039
:100650000120084770BD0000AC000020024902489C
:10066000091F0968006808472401002030B54FF0D1
:1006700080520023D2E94C10082906D1CC06C4F8D8
:100680000C31C4F81031624C2360082955D1614BFC
:100690001B68614C23605F4B1B1D1B68241D23607E
:1006A0005C4B08331B68241D23605A4B0C331B68BA
:1006B000241D2360574B10331B68241D2360554BAA
:1006C00014331B68241D2360524B18331B68524C93
:1006D000203423604F4B1C331B68241D23604D4B7B
:1006E00020331B68241D23604A4B24331B68241DC0
:1006F0002360484B28331B68241D2360454B2C3353
:100700001B68241D2360434B30331B68424C40342C
:100710002360404B34331B68241D23603D4B38332A
:100720001B68241D23603B4B3C331B68241D236046
:10073000384B40331B68241D2360082904D1030073
:1007400002D1374C354B2360082904D1030002D174
:10075000344CFB232360082908D1030006D1324B17
:1007600092F858521C6865F303041C60082904D1F0
:10077000030002D12D4C8B012360082906D12C489F
:100780000168C90702D06FF00101016029480168C2
:1007900041F470010160BFF34F8FBFF36F8FD2E957
:1007A0004C104FF01022082906D1032804D9D2F8A2
:1007B0000802174920310860D2F80002002803DB44
:1007C000D2F8040200281FDA012002F085FC122171
:1007D000C2F8001218480368002BFCD0C2F80412BB
:1007E00001680029FCD0002002F076FCBFF34F8F97
:1007F00010487C380168114A01F4E061114301603E
:10080000BFF34F8F00BFFDE70E490D48086030BDB4
:10081000380500400404001020C500404881030052
:100820008C56004018F50040E40E0040409602400F
:100830000004004088ED00E000E401400400FA05F7
:100840000090D003A001002001480068004700008C
:10085000B400002002E008C8121F08C1002AFAD123
:1008600070477047002001E001C1121F002AFBD130
:100870007047022000F000BA70B500240C4D05E06E
:10088000686810F8340002F07BF8641C2878844211
:10089000F6D3002000F039F90020C5E9040000F08B
:1008A00036F904484068BDE8704000F011B9000016
:1008B000C00000202C3C000070B50024064D06E06E
:1008C0006868012110F8340002F07EF8641C287872
:1008D0008442F5D3002070BDC0000020F8B5164654
:1008E0000C4605460A2A01D20720F8BD02F064F939
:1008F00018B902F025F90028F7D1134F2021134829
:100900007D603C70BE60FFF7CAFD0020C7E90400AF
:100910000F4E0DE005EBC4003168009181788DF831
:10092000011000780B4A694602F09AF80028DCD1E1
:10093000641EE4B2EED2BDE8F84005480021064A44
:10094000001D00F061B80000C000002080020020FF
:100950002C3C0000AD160000AD12000072B601F094
:1009600091FE00BF01F0ECFC0028FBD111481249B8
:10097000401AC408012000EB044010A101F0FAFD68
:1009800011480068C00700D000BE022000EB044000
:100990000EA101F0EFFDBFF34F8F0B48E438016863
:1009A0000E4A01F4E06111430160BFF34F8F00BFB5
:1009B000FDE70000703E0000283E000046617461C3
:1009C0006C206572726F7200F0ED00E05379737401
:1009D000656D207265736574000000000400FA05FF
:1009E0000EB500210091CDE901106A4644F20100E4
:1009F000FFF7B4FF0EBD012000F03EB9014800F042
:100A0000BCBC00000001002010B55AB100684FF0D6
:100A1000FF3401294261C0E9024400D00021016194
:100A2000002010BD072010BD38B5114808235822FA
:100A3000416800910F49006801F006F8002815D1BF
:100A40000D4A69460D4800F09DFC04000ED10121BD
:100A50000A4800F012FD0123094A1946074800F030
:100A600064FC0649012008390870204638BD0000A2
:100A7000343C0000B00200200933000000010020D7
:100A8000FFFF7F0070B5044616460D46002000F0BB
:100A90003CF8D4E90201C04370EA010004D0002010
:100AA00000F035F8002070BD00F0E6FD401941F17E
:100AB0000001C4E90201002000F029F8A6612069C4
:100AC00000B125612146BDE87040002002F004BE5F
:100AD00010B50446002000F018F8D4E90201C04324
:100AE00070EA01000CD04FF0FF30C4E90200002092
:100AF00000F00DF82146BDE81040012002F0ECBDE9
:100B0000002000F004F8002010BD00F003B800F051
:100B100009B8000072B602480168491C01607047BC
:100B20001C01002003490868401E086000D162B61D
:100B3000704700001C01002070B5054608680C468F
:100B4000411C04D001F0E5FA206801F045FA606824
:100B5000411C02D0002101F02DFA2968A069C1F8DA
:100B60002405607D227D29681043C1F86C05D4E915
:100B700000122868C0F81425C0F80C15207D012843
:100B800014D1A068411C02D0002101F013FAE068E2
:100B9000411C04D001F0BDFAE06801F01DFAD4E96F
:100BA00002122868C0F80825C0F8101570BD70B58D
:100BB000054608680C46411C04D001F0B4FA2068D0
:100BC00001F014FA6068411C02D0002101F0FBF929
:100BD0002968A069C1F82405607D217D2A68084341
:100BE000C2F86C05D4E900122868C0F80C15C0F8EA
:100BF0001425207D012814D1A068411C02D00021B9
:100C000001F0E1F9E068411C04D001F08CFAE068E1
:100C100001F0ECF9D4E902122868C0F80825C0F800
:100C2000101570BD2DE9FC410646C0074FF00005C8
:100C30000ED0104F00240122385D0095002311468C
:100C4000019501F041F9641C042CF4D300F04EF836
:100C5000B0070DD5074E0024361D0022305D03235A
:100C600000951146019501F02FF9641C042CF4D372
:100C7000BDE8FC81E63B0000094908B5085C00902E
:100C8000684601F0EDF9D0F80425009B0121994058
:100C900021EA0203C0F808351140C0F80C1508BD60
:100CA000E63B00000249085C012101F046BA000061
:100CB000E63B00000249085C002101F03EBA00005A
:100CC000E63B0000084908B5085C0090684601F062
:100CD000C7F9D0F804050099C84010F0010000D011
:100CE000012080F0010008BDE63B000010B50024A3
:100CF0002046FFF7D7FF641C042CF9D310BD10B5B4
:100D000000242046FFF7D6FF641C042CF9D310BD45
:100D100010B50246064B4FF0FF3000215C5C944258
:100D200001D1084610BD491C0429F7D310BD0000AD
:100D3000EA3B00002DE9F0470D468146FFF7E8FF4A
:100D40000446042836D2DFF874801B481C4EA8F1F4
:100D50000C0725B3012D0ED0022D2BD104EB44003E
:100D600030444578002D25D0B968002922D0284686
:100D7000BDE8F047084704EB4401755C0E44717808
:100D800049B10E4A4FF48041093A8068FFF77AFE74
:100D900008B987F80390B17808F80410E2E7806892
:100DA000FFF796FE04EB4401314418F804008D78F7
:100DB000A842D7D0BDE8F087F03B0000300000200B
:100DC000A4010020FFF758BD10B50A2816D100F085
:100DD0006FF908B1FFF704FEFFF7F4FF08B1FFF762
:100DE000FFFD07480068FFF773FE08B1FFF7F8FD45
:100DF0000020FFF757FF03490120087010BD0000D5
:100E0000D03B00002000002070B50023042810D241
:100E10000D4D00EB4004012A02D101290CD0002223
:100E2000094E00EB4000304461B1012906D002298F
:100E300006D00723184670BD0E30C2B22A55F9E716
:100E40004270F7E78270F5E7A401002070B506460E
:100E50001E480024C0E90161B00720D50025012209
:100E600011462846FFF7D0FF6D1C0446042D02D220
:100E7000002CF4D013E094B940F23332042114482A
:100E8000FFF72CFD04000AD1FFF716FD040006D180
:100E90000F48104A0021001FFFF7B6FD0446F00777
:100EA00012D00120FFF7BEFE74B909480A4A00219A
:100EB0000C38FFF7A9FD040006D10548074A0121B7
:100EC0000838FFF7A1FD0446204670BD240000202D
:100ED000FC3B0000D51100009518000073080000CD
:100EE0002DE9F05F6E4C054600266078B34618B1D8
:100EF00084F801B000F0B6FC6A4F4FF47A694FF401
:100F0000C87A4FF00108182D69D2DFE805F00C13FC
:100F100013384754696E727B727BC58484848484E1
:100F2000B3B6B9BCC5C500F09DFC3868FFF7D0FD6D
:100F300006465CE00020FFF7C5FE00284FF00000E9
:100F400008D0FFF7AFFE022D02D14FF4E16008E0B8
:100F5000484606E0FFF7AEFE022D01D1C82000E0B2
:100F60005046410CC0034FF47A72801841F10001E1
:100F7000257052000023FFF735FA01462AE00020D1
:100F8000FFF7A0FE00284FF0000004D0FFF78AFE14
:100F90004FF44870E5E7FFF78DFEDFE70020FFF72D
:100FA00091FE00284FF0000002D0FFF77BFECFE754
:100FB000FFF780FED4E70020FFF784FE00284FF003
:100FC000000002D0FFF76EFE01E0FFF773FE257010
:100FD00040F6CD4100223868FFF754FD064646E052
:100FE0000020FFF749FE257008E0002051E0257041
:100FF0003DE084F801800120FFF73EFE002240F230
:101000006661E8E784F801800120FFF735FE0022E1
:101010004FF40051DFE77868FFF75AFD0646D5F137
:10102000110000D02EB10220FFF73CFE84F802B080
:101030001DE0012816D980B2C8214843C117C90351
:1010400041EA5041C0034FF47A72801841F1000127
:1010500052000023FFF7C6F9014600227868FFF727
:1010600011FD06460220FFF725FE84F80280304677
:10107000BDE8F09F00F0F6FBB9E700F0F3FBB4E742
:1010800000F0F0FB04E000F0EDFB0020FFF712FEA3
:101090000120FFF70FFEAAE7FFF731FEA7E70000E8
:1010A00024000020F03B00000A220021FFF7ACBE24
:1010B00010B50020FFF729FD05480068400702D160
:1010C0000449012088600020FFF721FD002010BDA9
:1010D00010540040005000402DE9F0470546861CA2
:1010E00091460F464FF0010A0020FFF70EFD1B4C02
:1010F00004F21C4860683860D4E90101184F401AB6
:101100003968081A0EE00121404600F0E2FC00F0C8
:10111000CDFB0146404600F0DCFCD4E90101401A59
:101120003968081A401C8642EDD8B9F1000F03D087
:10113000052065F3891002E0062065F39F50616881
:101140003A68114004EB8101C86060683044606017
:101150000020FFF7DCFC5046BDE8F087A00400202B
:101160004C01002070B50D4604460A2902D10D211C
:10117000FFF7F8FFA0682268411CA1601554D4E96C
:101180000101814204D32046BDE8704000F0A3BDB8
:1011900070BD0000044881684068814201D101208F
:1011A0007047002070470000A0040020034630B5BF
:1011B000074800210478426806E000BF02EBC10046
:1011C00005789D4203D0491CA142F7DB002030BDC9
:1011D000C000002000780221FFF7ACBD05494FF0A8
:1011E000FF32082841F8202002D3084480F8582014
:1011F00070470000C4010020F0B54FF0FF3512B178
:101200000023082601E008230C260C4C05E000BF53
:1012100054F823707F1C04D05B1CB342F8D32846DB
:10122000F0BD26185DB286F8305044F82310002A2D
:10123000F5D1E11881F85800F1E70000C401002061
:101240000249084490F9300070470000C4010020B2
:1012500070B5084C050009D010342168002907D06A
:1012600008682060496828468847F6E70834F4E7AC
:1012700070BD0000B0010020054A012120B1012805
:1012800005D19170FFF7E4BF51700020FAE7704775
:10129000B001002010B5D0E90234D1E90220D11A02
:1012A000A04101D3012010BD002010BD70B5002465
:1012B0000F4D10E0686800EBC406307801F038FC90
:1012C0007178012901D0012100E0002141403078EE
:1012D00000F05CF9641C28788442EBDBD5E904015A
:1012E000084303D0BDE8704002F012BA70BD0000A0
:1012F000C000002010B50021024800F0F5FB80F38B
:10130000100010BDBC0800204FF480328A400168F4
:10131000C1F848230068C0F8082370474FF4A07252
:1013200002EB810189B200F09DB92DE9F04105463B
:101330000E464FF4A07000EB860081B228684FF48F
:101340008034B440984622F07F47C0F808432868AC
:10135000C0F84843286801F080FA286800EB86004E
:10136000C0F840752868C0F84443B8F1000F02D0B7
:101370002868C0F80443BDE8F0810068D0F804058F
:101380007047000070B54379234C44F8232042791C
:10139000231D03EBC202224C1579204A121BD408EC
:1013A0002DB10825022000EB04401EA130E00568A5
:1013B0000A88C5F8082590F904208978002A4FEAA0
:1013C000411104DB02F1E02282F8001405E002F092
:1013D0000F0202F1E02282F8141D90F9041001229C
:1013E000002909DB01F01F0502FA05F5490989000A
:1013F00001F1E021C1F800514179002503EBC10161
:101400000A71417943F83100032000EB04400EA13A
:1014100001F0B0F8284670BD20010020603E0000B9
:10142000283E000052544320696E7374616E6365F8
:1014300020616C726561647920696E697469616CA0
:10144000697A65642E0000005254433A20696E693F
:101450007469616C697A65642E00000090F904007B
:10146000002809DB00F01F020121914040098000A3
:1014700000F1E020C0F8001270470A46022100F097
:101480007BB84FF4827100F0EDB800680121016073
:10149000704700680121416070472DE9F05F074601
:1014A0000C464FF4A07000EB84001FFA80FA3868F5
:1014B0004FF48036A6409B4622F07F45C0F8486333
:1014C0003868C0F808633868D0F8048500EB8402F7
:1014D000D2F84095C2F840855146386801F0BDF910
:1014E000A9EB080020F07F40012806D1102001F070
:1014F0003FFA5146386801F0B0F93868D0F80485F1
:10150000C0F84463A5EB080121F07F413868012948
:1015100000EB840010D0C0F840553868D0F80415AE
:101520006FF07F4C6A1A521E22F07F42ACEB0B0325
:10153000934217D362B118E06D1CC0F840551020DB
:1015400001F016FA3868D0F8040540450AD10CE0DD
:1015500000EB84006D1CC0F840553868D0F80405D5
:10156000884202D00D20BDE8F09F01223146384666
:1015700000F002F80020F6E70368C3F84413002ADD
:1015800002D00068C0F80413704700002DE9F0474E
:101590000E463249804601EB5001C007097801D060
:1015A0000F0901E001F00F07424601200021FEF77C
:1015B0004AFFDFF8AC9004460D46052F4BD2DFE81A
:1015C00007F0031419262A00002E44D001214046BA
:1015D00001F09AFF0020FFF798FA4846D0E904127C
:1015E0000C431543C9E9044530E00EB1022114E073
:1015F000002112E04EB10321404601F085FF404634
:10160000BDE8F047012102F091BA012105E0002E6A
:1016100021D1042101E02EB103214046BDE8F0476D
:1016200001F072BF0021404601F06EFF00214046EC
:1016300002F07CFA0020FFF768FA4A46E043D2E95C
:101640000434184024EA0501C9E90401BDE8F04763
:101650000020FFF75CBABDE8F087000080020020A0
:10166000C000002010B5006842581AB101F0F5F82A
:10167000012010BD002010BD10B50B48FFF77DFE06
:10168000094A083AD2E90434C018D2E9063244F1D2
:101690000001C31A71EB020204D24FF0807280186D
:1016A00041F1000110BD00000001002010B5C0B2E2
:1016B000FFF77CFD0446007801F03AFA01466078B5
:1016C000012801D0012000E0002090EA010F08D09D
:1016D0000449D1E90401084303D1BDE8104002F0F8
:1016E00017B810BDC00000202DE9FC5F0E00834636
:1016F000DDE90C47C6F1000098469246814600D4C9
:101700000846012503E000BF90FBFAF06D1C504530
:10171000FADAA84500D9454624B1002E01DB780746
:1017200000D5641EB80702D5B8F1000F0AD0F8073B
:1017300008D13CB1A54205D220215846641EFFF7CE
:1017400011FDF6E7002E02DA4E462D2102E0780761
:1017500003D52B215846FFF705FD07F003000228AB
:101760000BD1B8F1000F08D13CB1A54205D2302110
:101770005846641EFFF7F6FCF6E7CDE900474346FE
:1017800052463146584602F077F9BDE8FC9F00000A
:1017900070B50D46044600684FF4887101F0A3F857
:1017A0004FF49071206801F09EF84FF49271206818
:1017B00001F099F84FF4A271206801F094F84FF409
:1017C000AC71206801F08FF820681249C0F804134A
:1017D0002068690740F30730090E002804DB00F198
:1017E000E02080F8001405E000F00F0000F1E02098
:1017F00080F8141D206840F30730002809DB00F052
:101800001F02012191404009800000F1E020C0F852
:10181000001170BD100342000246002012685307F9
:1018200013D502F00300012802D002280CD105E0F4
:10183000C2F383100B68801C184404E0022308687C
:1018400003EB92521044086001207047026813466F
:1018500002E08A4204D01268002AFAD10B600160CB
:10186000704700000A4810B5807860B1002401E09C
:10187000022C06D02046FFF715FA641C042CF7D37F
:1018800010BD0324F6E7BDE81040FFF72FBA0000B3
:101890002400002003480179C90702D00078FFF72F
:1018A0001FBB704724000020704700002DE9FF4156
:1018B0000026244800F00AF92248001F074600F0DD
:1018C00005F9214C2149A06800900D6800E00098BE
:1018D0006946284004EB80000C30FFF79DFF00288C
:1018E000F5D101AA009901EA050304EB8303491C21
:1018F000DB6842F82030401C00910228F2D30198A6
:1019000000F0030001280BD0022810D10198032118
:1019100001EB90500099BDF80A6001EB900005E0E2
:101920000198BDF80A60C0F383100844009038465F
:1019300000F0C9F808B10098A06004B03046BDE8D6
:10194000F0810000B8080020A00400204C01002015
:1019500002F0FCF80020FFF7ADF90C4F0C4CDFF85B
:1019600034904FF47A464FF0010800BF00F0E8FCD5
:101970000028FBD138780028F8D06425611C304657
:1019800088476D1EFAD1C9F80080EFE720000020DB
:10199000E03B0000000500402DE9F047C5881E1D12
:1019A000B6FBF5F78946B6FBF5F1044605FB176C67
:1019B000407916686843DDF820A0F718001F8742B9
:1019C00000D9C61A166001E02468491E0029FBD11F
:1019D000A5EB0C078846B74216D818E004EB0C00BC
:1019E000001D09EB0803BAF1000F3A4602D0014688
:1019F000184600E01946FEF739FD2468F61B4FF043
:101A0000000CB844B54201D9374600E02F46002EFD
:101A1000E4D1BDE8F087000030B5024651B100F0D6
:101A200019FE0021074C08E034F821301568AB425C
:101A300002D11160002030BD491C8142F4D3052041
:101A400030BD00000000000010B531B1B2FBF3F46E
:101A500003FB14241CB1092010BD0E2010BD016031
:101A60000021416081608281C381084610BD70B54C
:101A70000C460546FEF7CEFB002802D021882868D8
:101A8000084470BD10B50A8849888A4203D1FEF720
:101A900003FC012010BD002010BD70B50C460546AA
:101AA000FEF7DDFB002802D061882868084470BD7D
:101AB00010B50A8849888A4203D1FEF7C7FB012086
:101AC00010BD002010BD002100F009B8012100F078
:101AD00010B808B56A46FEF734FC009808BD08B592
:101AE0006A46FEF714FC08BD08B56A46FEF7F6FB29
:101AF00008BD08B56A46FEF7FDFB009808BD08B5AD
:101B00006A46FEF72BFC009808BD70B50446002518
:101B10002846FEF7FAFF21686268086890420ED9ED
:101B2000401E08600178238AE26801FB0325227ABF
:101B30002168101AC0B20A79824200D208710020CE
:101B4000FEF7E5FF284670BD70B505460C4600203F
:101B5000FEF7DBFFE868298A201AB0FBF1F12A685A
:101B60001068431C13600170BDE870400020FEF750
:101B7000CEBF10B530B1017A42680368891AC9B284
:101B80001A6006E00E2010BD03681A68541C1C6021
:101B90001170491EC9B2F7D20068002101710846D0
:101BA00010BDC20800F007030120895C984008407E
:101BB000704700F180400068002800D00120704785
:101BC00008B500F18040002101600068009008BD68
:101BD00070B50C4C0125207808B185260BE000205B
:101BE000A06060602061E060074800F0A1FE06464A
:101BF00000F088FE257000F07DFE00B1A570304633
:101C000070BD0000B00100207912000070B5104DC9
:101C10000446A87838B114B16168012088470020D3
:101C2000FEF773FF0CE00020FEF76FFF24B10848B9
:101C300021461030FFF70AFEE86808B900F088FE78
:101C4000E868401CE860BDE870400020FEF75FBF18
:101C5000B0010020F0B505460478154889B0164655
:101C600040F82420124A08690832A2F10C0742F811
:101C70002400487F385520226846FEF7F7FB04947D
:101C80002878385C48B10EB10A4A00E00022694663
:101C9000281D01F003F909B0F0BD0EB1064A00E0BD
:101CA0000022694605F10C0000F0C2FFF3E70000D6
:101CB0009C000020353900007D3700000FB408B5C6
:101CC0000399002904D004AA00926A4600F00FF894
:101CD00001B05DF814FB10B582680446002A05D0F7
:101CE000D4E90403216898470020A06010BD2DE9C5
:101CF000FC4791460C00804676D014F8011B39B1A0
:101D000025290ED04046FFF72DFA20780028F4D17F
:101D100098F80C00002867D04046BDE8FC47FFF764
:101D2000DABF0020012221782B291BD02D2902D0D7
:101D3000302908D102E040F0010001E040F002004B
:101D4000641C002AEFD100252A290ED02178A1F1A8
:101D500030020A2A11D205EB850201EB4205641C10
:101D6000303DF1E740F00400EAE7D9F800100B1D20
:101D7000C9F800300968641C0D44217800232E291D
:101D80000BD114F8011FA1F130020A2A05D203EB8E
:101D9000830201EB4203303BF3E76C290DD0682945
:101DA0000BD0692921D00BDC252918D0582931D036
:101DB00063290ED0642915D117E014F8011FECE750
:101DC000702969D0732932D075291BD0782909D19F
:101DD00020E0D9F80000011DC9F800100178404644
:101DE000FFF7C0F9641C90E76CE0D9F800100A1DF9
:101DF000C9F800200968CDE900500A224046FFF7E3
:101E000073FCEFE7D9F800100A1DC9F80020096833
:101E10000A2206E0D9F800100A1DC9F80020096856
:101E20001022CDE90050404601F026FEDAE7D9F84D
:101E3000001000270A1DC9F800200E68C00705D150
:101E400012E04046761C7F1CFFF78CF931780029A0
:101E5000F7D104E0202140466D1EFFF783F9BD4213
:101E6000C0D9002DF6D1BDE74EB13046FEF722FBBA
:101E7000074604E0202140466D1EFFF773F9BD427E
:101E800006D9002DF6D103E04046761CFFF76AF92B
:101E900031780029F8D1A5E7D9F80000011DC9F86B
:101EA0000010056830214046FFF75CF97821404674
:101EB000FFF758F908200021CDE900010346102260
:101EC0002946B0E7BDE8FC872DE9FF411C46DDE966
:101ED0000A7815460E46684600F0C2F846EA450103
:101EE00041EA840141EA072242EA0841009A00EBF4
:101EF0008200C0F80017BDE8FF812DE9FF411C46B4
:101F0000DDE90A7815460E46684600F0B7F846EA5D
:101F1000450141EA840141EA072242EA0841009A68
:101F200000EB8200C0F80017BDE8FF812DE9FF41FA
:101F30001C46DDE90A7815460E46684600F0ACF806
:101F400046EA450141EA840141EA072242EA0841A2
:101F5000009A00EB8200C0F80017BDE8FF812DE970
:101F6000FF411C46DDE90A7815460E46684600F03A
:101F7000A1F846EA450141EA840141EA072242EA22
:101F80000841009A00EB8200C0F80017BDE8FF810D
:101F90001CB5002100910B4601220191FFF7C6FFFD
:101FA0001CBD1CB5002100910B4601220191FFF7D9
:101FB000D6FF1CBD1CB500220B46009211460192B3
:101FC000FFF7B4FF1CBD1CB500220B460092114662
:101FD0000192FFF7C4FF1CBD1CB5002100910B4608
:101FE000012201911146FFF7A1FF1CBD1CB5002184
:101FF00000910B46012201911146FFF7B0FF1CBD75
:1020000013B50C46684600F039F8009900EB8101E1
:10201000D1F8002722F44032C1F80027009900EBE4
:102020008100D0F8001741EA0441C0F800171CBD38
:102030003CB50A4CD4E90034CDE900346B46441871
:1020400008E000BF53F82010D1F8205520C2C1F895
:102050002055401C8442F5D83CBD00001C3C0000CB
:102060000168202902D24FF0A040704701F01F0103
:1020700001600148704700000003005001682029FA
:1020800002D24FF0A040704701F01F0101600148EB
:1020900070470000000300500168202902D24FF071
:1020A000A040704701F01F01016001487047000027
:1020B000000300500168202902D24FF0A040704771
:1020C00001F01F010160014870470000000300504B
:1020D00042094FF0000102D0012A05D102E04FF081
:1020E000FF3101E04FF6FF7100F01F000122824036
:1020F0000A4201D0012070470020704701B56846B0
:10210000FFF7BCFFD0F810050099C84000F00100AF
:1021100008BD01B56846FFF7BFFF009A0121914055
:10212000C0F8081508BD01B56846FFF7C3FF009A5F
:1021300001219140C0F8081508BD38B50124009070
:10214000684631B1FFF78CFF00998C40C0F8084514
:1021500038BDFFF785FF00998C40C0F80C4538BDAD
:10216000034908B50844002101600068009008BDDB
:102170000060004002494058012800D0002070470C
:102180000060004030B5154A01460020D2F81044E6
:1021900023460AE0DB681D79854205D1401C0A28E8
:1021A000F6DB4FF0FF3030BD1B68002BF2D1431C33
:1021B000F9D0CB681871D2F8103443B1DB68CC6821
:1021C0001B682360D2F81024D268116030BDC2F8B9
:1021D0001014C96800220A6030BD0000A00400206D
:1021E000F0B595B01C4615460F4608461A9E00F0FD
:1021F00001FB182109A8FEF752F90E96CDE9095402
:102200000023082203A9384600F009FB0598069030
:10221000BDF81000ADF81C00BDF81200ADF81E00AE
:1022200000208DF821000398082600F00300012803
:1022300002D0022818D032E003983346850AC0F352
:10224000C2008DF8200003980FA9C0F38314A200E8
:10225000384600F0E4FA09A8009006AB22460FA920
:10226000284600F023FA1AE00398840DC0F3C20058
:102270008DF82000082C01D2254600E008253346C1
:102280002A460FA9384600F0CAFA2E44641B09AB4F
:1022900006AA29460FA800F071F9002CEAD13846A9
:1022A00000F0AEFA15B0F0BD7047012001F084BA1D
:1022B000084810B50178084A515C19B1001D00F0BA
:1022C00087FE02E00C3000F081FDBDE810400020E8
:1022D00001F072BA300100209800002008B5034ACE
:1022E00000924023024AFFF77BFF08BDBD34000087
:1022F000080300200A4A012902EBC00007D0022986
:1023000007D0032907D0042907D0002070470220F6
:10231000704704207047007970474079704700008B
:10232000283E000010B5FFF7C0FF04210348FFF767
:1023300029FF02490120C968487110BD183E0000FC
:102340002DE9F0478CB0FEF725FF18B100200CB046
:10235000BDE8F0877D4C0020C4F81804BFF34F8F10
:102360007B49A06802900D684FF00008284004EBFC
:1023700080000BE0D4F8180470B9616802988142BB
:1023800001D8A160E2E7284004EB80000C3002A9EC
:10239000FFF742FA0028EDD1002003AA029901EAD2
:1023A000050304EB8303491CDB6842F82030401C22
:1023B00002910228F2D3039800F00300022802D011
:1023C00001284DD0A7E003985022810D8946B2EB39
:1023D000905F00D850210E4666F39F50039008315D
:1023E0005C4800F0BEF9070078D000F003FA4346DD
:1023F000082203A9384600F01AFA029908F1080ADF
:102400002940681A8000001D864222D94F4D0C35A4
:1024100030B1C2B204EB8101301A90460C3104E0B5
:102420002946F2B2002590462846C6B253463846A1
:1024300000F0FDF90AEB080325B13246294638467B
:1024400000F0F5F9029909F1030001EB9000029008
:102450003BE004EB81015346324638460C31EFE74E
:102460000398C0F38310062800D30620039960F375
:102470008911C1F38310801C03918100354800F05D
:1024800070F9070047D000F0B5F94346082203A9C8
:10249000384600F0CCF908F1080800260FE0029851
:1024A000434600EA0501401C04EB8101029004222E
:1024B00038460C3100F0BBF908F10408761C03988B
:1024C000C0F38310B042EAD847B1D4F81054D4F81E
:1024D000180478B1384600F093F931E01BE0E86861
:1024E0004079012804D12A68284639461268904765
:1024F000E8680568002DF2D1384600F081F9002027
:10250000FEF703FBD4F8180408B90298A060002075
:10251000FEF7FDFA14E0D4F8104405E021682046E7
:1025200089688847E0680468002CF7D10A480B499D
:10253000401AC008022101EB004009A100F01AF87E
:10254000FEF728FE80F0010001E70000A004002053
:102550004C010020783E0000703E0000283E000044
:102560004261636B656E647320666C757368656445
:102570000000000000231A4600F0DEBF2DE9F047FE
:102580000E4680461C469246082940D894F80C9086
:10259000002020731946104600F05EFE0025B5426B
:1025A00006D218F805201BA12046FFF787FB03E0A1
:1025B0001AA12046FFF782FB6D1C082DEFD318A14E
:1025C0002046FFF77BFB0025B54212D218F80570B4
:1025D0007E2F08D8FDF746FF0068C05D10F03E0F63
:1025E00001D03A4600E02E220EA12046FFF766FBFE
:1025F00003E00DA12046FFF761FB6D1C082DE3D31E
:1026000001222146504600F009FE84F80C90BDE8F6
:10261000F0870000202530327800000020202000C4
:102620007C0000002563000020000000064910B572
:1026300000200870054800F0E1F8002803D10448A4
:1026400000F0FDF8002010BDA0040020783E00003E
:10265000943C000002480349401AC008704700003B
:10266000783E0000283E000013B56846FFF7D4F915
:1026700008B100201CBD0248009950F831001CBD73
:10268000283E000070B508480125D0F810440570B8
:1026900007E0E06845712168204649688847E0689E
:1026A0000468002CF5D170BDA00400202DE9FF477F
:1026B00081460C9D00200C462F7B287398461646B9
:1026C0002946184600F0C8FD072E42D2DFE806F082
:1026D00004090F161F2A360049462846FFF7EEFA6E
:1026E00037E0494628462268FFF7E8FA31E0D4E9A6
:1026F000002349462846FFF7E1FA2AE0A068009047
:10270000D4E9002349462846FFF7D8FA21E0D4E966
:102710000201CDE90001D4E9002349462846FFF72C
:10272000CDFA16E004F1080007C88DE80700D4E9E7
:10273000002349462846FFF7C1FA0AE004F10800E1
:102740000FC88DE80F00D4E9002349462846FFF75B
:10275000B5FA00222946404600F060FD2F73BDE81F
:10276000FF872DE9F041058A80462D1F4819C01CBE
:10277000B0FBF5F0C6B24046FFF7C7F9041E19D00A
:102780000020207101206071E58000272546761E1B
:10279000C4F800800BE04046FFF7B7F960B16179FB
:1027A000491C6171286005467F1CC0F80080B74253
:1027B000F1D32046BDE8F081204600F002F8002069
:1027C000F8E72DE9F041457901466B1E002201E052
:1027D0000968521C9A42FBD30F680146002605E0A7
:1027E00038460C68FFF7B0F92146761CAE42F7D3A5
:1027F000BDE8F0810121001DFFF76BB9FFF7B9B902
:1028000010B504460121001DFFF779F910F0FF0F04
:1028100004D12046BDE81040FFF7D3BF10BD1CB562
:1028200001920122009201AAFFF7B6F81CBD1CB567
:1028300001920022009201AAFFF7AEF81CBD826847
:102840000021916082681161826851618268D16063
:102850008268516080680160704708B5002242506C
:102860004058009008BD70B50D460646446804E027
:10287000B2682946904718B1246820680028F7D12B
:1028800020682860256070BD406800687047416816
:102890000868002801D002680A60704702460020DC
:1028A000526806E08B4203D108681060012070472F
:1028B0001A461368002BF5D170474058002800D005
:1028C0000120704708B5002242504058009008BDD2
:1028D000D0F80403084000D0012070474058002879
:1028E00000D00120704708B50022425040580090A7
:1028F00008BD000002480068002800D00120704791
:102900000004014008480068012110F0010F06D1C1
:102910004FF0E020C02280F800248430C1670349D2
:10292000012008607047000000E100E01805004049
:102930000649024600200B790BB1852070470A60DA
:1029400001220A7100224A7170470000AC00002089
:1029500010B54FF48270FFF733F902204107C1F838
:10296000040302490120086010BD00000800004077
:10297000002802D00149800108477047513C0000FF
:1029800010B5044600F0C2FB28B12046BDE8104057
:102990000021FFF735BB204600F0C4FB00280FD014
:1029A0002046FEF74DFC074A02EB8001D1F81035B6
:1029B00023F00103C1F8103501218140C2F808134A
:1029C00010BD0000006000402DE9F0410D460646B4
:1029D00000F09CFB0028304615D0FEF731FC08388B
:1029E00000F014FC032802D001280AD003E030468E
:1029F000FFF784FB28B103213046BDE8F041FFF723
:102A0000FFBA0221F8E700F08DFB002822D0304603
:102A1000FEF716FC04464FF4807000EB84000E4F66
:102A200081B207EB8400D0F8102542F00102C0F813
:102A300010250846FFF794FB002D0BD03046FEF71B
:102A4000FFFB064951F82000002803D00120A040D8
:102A5000C7F80403BDE8F08100600040C401002015
:102A60002DE9FC41DFF8BC80044608EB0400002798
:102A700090F930001346C0170E46401C01D00827BD
:102A80004DE0B0781946C0F340022046FEF7B4FB93
:102A90000546401C42D0B07841071AD4C0070DD07B
:102AA00068460094FFF7EAFA009900EB8101D1F83B
:102AB000000720F00200C1F8000707E0002173784A
:102AC000204600910A460191FFF717FA204600F0D0
:102AD0000FFBB078800718D51348317800EB8500DC
:102AE000D0F81025114B1A40C0F810254FF47C5235
:102AF0004FF4403302EA042203EA01410A43D0F8CA
:102B000010150A43C0F8102509E008EB05003278DB
:102B100010F8581F41EA8211017000E0042738467E
:102B2000BDE8FC81C401002000600040FFC0FCFF44
:102B300010B5FFF7E3FA002800D0012010BD000017
:102B400070B51A4D95F86A0008B1082070BD0024D0
:102B5000661E2046FFF7BCFA10B1281980F83060D5
:102B6000641CE4B2302CF4D300242046FEF736FB7C
:102B7000641CE4B20C2CF8D30C4800210C4C4166C8
:102B8000A0F868100B49C02081F8000401264020FD
:102B9000891FC1F800014FF4BE70FFF7E1FAA004ED
:102BA000C4F8040385F86A60002070BDC4010020E9
:102BB0000060004006E000E0034890F86A0000284A
:102BC00000D0012070470000C40100200121B1EBBA
:102BD000507F01D1012070470020704770B50D462D
:102BE00000F086FB04000FD00020FDF78EFF207957
:102BF00020B10020FDF78BFF112070BD0120256062
:102C000020710020FDF783FF002070BD10B500F09B
:102C10006FFB002802D000210160017110BD00008F
:102C20000149024800F0F0BD3002002000200040C1
:102C30002DE9F0410546007916460F4600EB4001AC
:102C40002D4A01EBC00102EB810494F82A1011B166
:102C50000820BDE8F081294951F820102868FFF7C5
:102C6000BDFF08B11120F4E739462846FDF764FF9F
:102C700066603869206030004FF001062FD03F7F3A
:102C80004FF48E712868FFF71DFE4FF4A27128687B
:102C9000FFF718FE28681A49C0F8041328684FEA9D
:102CA000471140F30730002804DB00F1E02080F8F2
:102CB000001405E000F00F0000F1E02080F8141D82
:102CC000286840F30730002809DB00F01F0106FAEE
:102CD00001F14009800000F1E020C0F800112868EF
:102CE0000421C0F800150020A061E06184F82900EB
:102CF00044F8140FA675ACE730020020243C000015
:102D0000800002002DE9F05F054600790B4600EBDC
:102D1000400101EBC000244901EB8004284600F08B
:102D200045F810B11120BDE8F09F62614FF0000935
:102D3000C4F82090A36084F828904FF48E784E4613
:102D400041462868FFF7BEFD28684FF0010AC0F829
:102D500008A02146286800F0E7FC606808BBD5F8A9
:102D600000B067690FE000BF94F8280008B10F2693
:102D700015E041465846FFF7A0FD0028F4D0214653
:102D8000584600F0D1FC206AB842F2D3574641467B
:102D90002868FFF792FD0028F9D02868C760C4F8BA
:102DA00014903046BFE7000030020020007900EBAD
:102DB000400101EBC000044901EB8000406900289C
:102DC00000D0012070470000300200202DE9F047BC
:102DD000044600794FF0000900EB400101EBC00010
:102DE000284901EB80072068C0F800957868B0B1E9
:102DF00020682549C0F80813206840F307300028F0
:102E00000DDB00F01F02012191404009800000F11C
:102E1000E020C0F88011BFF34F8FBFF36F8F2068A1
:102E2000D0F80C25D0F81485D0F80865D0F81055E6
:102E30004FF0FF31C0F81415C0F80C152068C0F829
:102E40000815C0F81015501C02D01046FFF7A0F866
:102E5000B8F1FF3F02D04046FFF79AF8681C02D055
:102E60002846FFF795F8701C02D03046FFF790F81F
:102E70002068FFF7CBFE87F82A90C7F80490BDE8DA
:102E8000F08700003002002084020200014902485D
:102E900000F068BD5C020020002000402DE9F041F8
:102EA0000546164600790F46154A00EBC00102EBB5
:102EB000810494F8201011B10820BDE8F081114977
:102EC00051F820102868FFF789FE08B11120F4E7B7
:102ED00039462846FDF76BFE6660386920601EB1F2
:102EE000397F2846FEF754FC28680821C0F80015F1
:102EF0000020A061E0616061012184F82010DCE71E
:102F00005C020020283C00002DE9F04704460E46F4
:102F10000079274900EBC00001EB800517463046D9
:102F2000FFF754FE30B1204600F044F820B11120E4
:102F3000BDE8F0871020FBE76F61AE604FF490773B
:102F40004FF0000839462068FFF7CDFC4FF4AC760F
:102F500031462068FFF7C7FC2068AA686969C0F895
:102F60004425C0F8481520684FF00109C0F80890C2
:102F70006868D0B9BA4651462068FFF7AFFC0746EB
:102F800031462068FFF7AAFC0743F4D010B14FF098
:102F90000F0808E02068C0F80C9031462068FFF761
:102FA0009DFC0028F9D0002068614046C0E7000081
:102FB0005C0200200079054900EBC00001EB8000B5
:102FC0004069002800D00120704700005C0200200A
:102FD0002DE9F047064600793D4900EBC00001EBC2
:102FE0008005346868680127A8B13A49C4F8081315
:102FF000306840F3073000280DDB00F01F0107FAAE
:1030000001F14009800000F1E020C0F88011BFF319
:103010004F8FBFF36F8FD4F8000220F02000C4F868
:103020000002A8694FF4A27820B141462046FFF77C
:103030005AFC67604FF4AC7949462046FFF753FCD1
:10304000E760474649462046FFF748FC0028F9D08C
:10305000A86928B139462046FFF740FC0028F1D086
:103060004FF0000AC4F800A53068D0F80C25D0F85D
:103070001495D0F80885D0F810754FF0FF31C0F8DE
:103080000C15C0F814153068C0F80815C0F81015F4
:10309000501C02D01046FEF784FFB9F1FF3F02D06A
:1030A0004846FEF77EFF781C02D03846FEF779FFCF
:1030B000B8F1FF3F02D04046FEF773FF2046FFF70E
:1030C000A5FD85F820A0C5F804A0BDE8F0870000A4
:1030D0005C020020100342000349086003480168B5
:1030E0000029FCD07047000004E5014000E40140E5
:1030F00010B50549C20800F00703885C01249C4014
:103100002043885410BD00002802002004490844D0
:1031100090F93000082801DB01207047002070473B
:10312000C40100200449084490F93000082801D265
:103130000120704700207047C40100202DE9F84F9E
:10314000314F05464FF001090024381990F96010FD
:10315000491C46D090F86000294620F0C006304651
:10316000FEF71FFD70B3204600F050F88246684617
:103170000096FEF783FF009900EB8100D0F800076E
:10318000C0F30148B8F1020F1DD002213046FEF70E
:1031900037FF68460096FEF771FF009A09FA02F1C0
:1031A000C0F820153046FEF74BF857F820204AB1FA
:1031B0005046BAF1030F11D0B8F1020F05D0B8F1A3
:1031C000030F07D00DE00321E0E75046BAF1010FED
:1031D00004D006E05046BAF1020F02D10146304653
:1031E0009047641C042CB0D32A4602210020FEF72D
:1031F0001FFF002055F820100029A5D1401C0228EF
:10320000F8D3BDE8F88F0000C4010020024908444B
:1032100090F8600080097047C401002010B50C468A
:10322000017A052908D0407A38B1084808A1026817
:103230002046FEF743FD00E01AB106A12046FEF746
:103240003DFD2046BDE81040FEF745BD7C01002055
:10325000257300000D0A000038B5C3880D460446EA
:1032600033B114A0009015A216A12846FEF726FD42
:10327000217A05291CD0607A48B1A088FFF73AF876
:10328000164951F8202016A12846FEF717FDA08800
:103290000021FFF7E9F903461049207A143951F863
:1032A000202001B02846BDE830400EA1FEF706BD43
:1032B00038BD00001B5B306D000000001B5B313B24
:1032C00033316D0025734C6F67732064726F7070BB
:1032D0006564202825642925730D0A007C010020DF
:1032E000257300003C25733E2025733A2000000022
:1032F0000349884201D1034870470020704700000D
:1033000000200040B400002070B50546FEF7B9F873
:10331000134C40B1D4E904024FF08071411842F1DE
:103320000000C4E9041000212846FDF7F7FF30B182
:10333000606820B1606800F04BF9002060600121F6
:103340002846FDF7EBFF18B1FEF796F9C4E9060130
:10335000284600F081F92846BDE8704000F038B8F2
:10336000F80000202DE9F04100260E70D0E902742B
:103370000D468046FEF780F9381A002364EB010100
:103380001A461B1A8A4115DAB0F5350F04D3FDF73A
:1033900035FB0D49421800E03A464FF496030021F0
:1033A0000A48FEF77AF810B10D2807D00AE001208C
:1033B000BDE8F08100210548FDF7A6FF404600F07A
:1033C00007F928700020F3E7FFFFB4000001002098
:1033D000F8B5204C064600251F48FFF755FA10B3F4
:1033E000D0E90210CA4372EA000224D0626882B1B6
:1033F0006368D3E90223891A984127D26068D0E92B
:103400000210C94371EA000103D061681248FFF756
:103410002AFA00F073F807466946FFF7A3FFB0B138
:10342000606858B10DE0606800280FD13046BDE8F3
:10343000F840FEF72EB800F061F8CDE73046FEF711
:1034400024F867609DF800000028C5D1F8BD6560CC
:10345000C2E70000F80000203C3C000070B50546C3
:1034600088690C4600284FF4847128460AD0FFF77B
:1034700029FAD5F81805626AE1688854606A401C28
:10348000606270BDFFF71EFAD5F8180570BD1FB554
:1034900001238DF80030CDE90121D0E90012684602
:1034A00090471FBD1FB501238DF80030CDE90121E4
:1034B000D0E90012684690471FBD000070B50D4C62
:1034C0000020D2B22070201D0B4D0378EB5C1BB1A5
:1034D000001DFFF719FD02E00C30FFF713FC08B1E7
:1034E000FDF77EFA6078002802D021780029FAD012
:1034F00070BD00002C010020980000200148FFF75B
:10350000C6B900003C3C0000C207002A03D000BF3F
:103510004FF00F0201E04FF0F00201D04FEA01112D
:10352000044B03EB5003187800EA020040EA010064
:1035300018707047800200202DE9F84F0746224896
:103540009146884605681E46012269461846FDF7E1
:10355000C3FDDFF878A060B3009800210446801C0A
:103560000AE000BF00EA050259F821C00AEB820216
:10357000401C491CC2F80CC0B142F3D34FEA1749B2
:10358000FDF7B8FE611C29400AEB810149EA0042BF
:103590002C40CA600AEB8401C86867F3C50066F373
:1035A000891068F39F2020F00300401C20F00400E5
:1035B000C8609AF8000001E0FEF7C2FE0028FBD1C7
:1035C000FEF772F9BDE8F88F4C010020A00400203E
:1035D00070B504461E480025007860B35CB3FEF762
:1035E0004BF8D4E90223801A994125D30020FDF736
:1035F0008CFA206910B9681EC4E902000020FDF7AA
:1036000086FAD4E9051088470020FDF77EFA226982
:1036100072B1D4E90210CB4373EA000308D08918D1
:1036200040F10000C4E902100020FDF770FA07E045
:103630000020FDF76CFA08E0D04370EA030004D0E4
:1036400021460448FFF70FF90125284670BD000008
:10365000F80000203C3C000038B51D4D6946286844
:10366000FEF71BFA1B4C30E0017821B101290ED086
:10367000022922D117E04168D1E90220D24372EA3F
:1036800000021AD012480830FFF7EDF815E0416843
:103690006068814202D1002060600EE00C48083072
:1036A000FFF7FCF809E0FFF729FF20B14FF0FF31E9
:1036B000C0E90211F7E70120207069462868FEF78B
:1036C000E1F969462868FEF7E8F90028CCD138BD51
:1036D000343C0000F8000020F8B50B4C0D460646BF
:1036E00069462068FEF7C3F958B10670456069461F
:1036F0002068FEF7DDF910B10448FDF7AFFE0020A9
:10370000F8BD0420F8BD0000343C0000000100209A
:10371000034880684108034800224068FDF7B2B9B9
:10372000C00000202C3C000070B50C4605464FF44C
:103730008E71FFF7C7F8216AA068415C206A401CBF
:103740002062C5F81C1570BD1FB500228DF8002041
:103750000291816801914261D0E900126846904768
:103760001FBD1FB500228DF80020029181680191D4
:103770004261D0E90012684690471FBD1FB50A4656
:1037800001788DF8001041680191017A8DF80810D8
:10379000C0680390044850F82210083850F82220DE
:1037A000684690471FBD0000A40000200149012089
:1037B000087070472C01002010B588B00446202204
:1037C0000E496846FCF752FE06200090C01F01908B
:1037D000029003904FF0EB7006900CB1084A00E0A5
:1037E000002269460748FEF735FA08B1FDF7F8F8F8
:1037F0000448001F447008B010BD0000743C000075
:10380000AD370000300100202DE9FF470C4605468A
:103810004FF40071FFF75CF801274FF401780026A0
:1038200018B34FF4927949462846FFF746F8E0B1BD
:1038300049462846FFF746F8C5F8088394F829005A
:1038400000B96F6002208DF80000D5F88004C5F83B
:1038500080040390A0690290E0680190A661E6618F
:10386000D4E900126846904728E004212846FFF773
:103870002FF818B34FF484712846FFF71EF8E8B10B
:1038800021462846FFF7EAFD616AA069884215D102
:10389000E06938B1E268616AA0612069E661666248
:1038A000E06008E094F8290000B96F60C5F808836B
:1038B000A661E268616A2046FFF7E9FD4FF48E7861
:1038C00041462846FEF7F9FF80B16069216A8142CE
:1038D00002D294F8280028B341462846FEF7F2FFAA
:1038E000606918B161692046FFF72EFF4FF4A27896
:1038F00041462846FEF7E1FF002818D041462846F9
:10390000FEF7E0FF94F8290000B12F60A0690028BD
:103910000DD0A661E268616A04B02046BDE8F047B8
:10392000FFF7B5BD21462846FFF7FEFEDEE7BDE8FE
:10393000FF8700001FB50A4601788DF80010416826
:103940000191017A8DF80810C0680390044850F87E
:103950002210083850F82220684690471FBD00000A
:10396000A40000202DE9FF410C464FF49277054654
:103970003946FEF7B3FF0026B8B139462846FEF7B0
:10398000B2FF02208DF80000D5F88004C5F880044D
:103990000390D5F83C050290E0680190A661E661CD
:1039A000D4E900126846904723E04FF488773946FF
:1039B0002846FEF793FFE0B139462846FEF793FF0D
:1039C000D5F83C15A069884213D1E06960B1E2687E
:1039D000D5F8000220F02000C5F80002E069A061DF
:1039E0002069E661E06001E0A661E2682046FFF739
:1039F00059FD4FF4A27739462846FEF76FFF68B1AC
:103A000039462846FEF76FFFA06938B1A661E66126
:103A1000D5F83C152046E268FFF744FD4FF4907658
:103A200031462846FEF75AFF60B131462846FEF778
:103A30005AFF0120E860606920B1D5F84C15204696
:103A4000FFF78FFE4FF4AC7631462846FEF746FF6F
:103A500000280ED031462846FEF745FF6069002851
:103A600007D0D5F84C1504B02046BDE8F041FFF76B
:103A700078BEBDE8FF8100002DE9F05F8346DDE9F7
:103A80000A4A994690460D460846012703E000BFC2
:103A9000B0FBF8F07F1C4045FAD2B94500D94F463B
:103AA0005FEACA7012D18CB15FEA8A7002D5B9F1AF
:103AB000000F01D0202607E0302605E031465846A9
:103AC000641EFDF74FFB0CB1A742F7D35FF0010670
:103AD000B9F1010F02D9A9F1010903E0B5FBF6F034
:103AE000404502D306FB08F6F2E7DFF83C9000BF42
:103AF000B5FBF6F000FB165519F800105846FDF717
:103B000031FBB6FBF8F6002EF2D15FEACA7009D09D
:103B1000002C07D0A74205D220215846641EFDF78D
:103B200021FBF5E7BDE8F09F563C000070B50C4660
:103B30000546FDF73BFB002807D04268002A04D069
:103B400021462846BDE87040104770BD10B54FF4BF
:103B500080410020FEF76AFD08B1FCF741FFFEF747
:103B6000E1FBFEF735F808B1FCF73AFF0020FEF75D
:103B70004DF8FCF759FF08B1FCF732FF114903205B
:103B8000FDF764F908B1FCF72BFF0020FDF78CFA74
:103B900008B1FCF725FF0C4A01210C48FCF734FF63
:103BA00008B1FCF71DFF094800224FF400510068DE
:103BB000FCF768FF002803D0BDE81040FCF710BFF9
:103BC00010BD0000C90D0000F7090000D03B000047
:103BD00000000020000000000000000000000000C5
:103BE0000338FDD870470D0E0F100B0C181900008C
:103BF0003800002058000020780000200B0003004F
:103C0000350D00000C000300350D00001800030006
:103C1000350D000019000300350D000000000050B4
:103C200000030050212C00008D2E00000300000036
:103C3000D8000020A00200200100060000000000C3
:103C40001801002095120000000000000000000094
:103C50000338FDD870473031323334353637383990
:103C60004142434445460000DD220000B1220000ED
:103C7000A9220000FFFFFFFFFFFFFFFFFFFFFFFF85
:103C8000FFFFFFFF00000000000000000000D60161
:103C900006010000080400207F00000088040020C6
:103CA000004040404040404040404141414141404F
:103CB0004040404040404040404040404040404004
:103CC0004005020202020202020202020202020293
:103CD0000220202020202020202020020202020298
:103CE00002029090909090901010101010101010F0
:103CF00010101010101010101010101002020202FC
:103D0000020288888888888808080808080808083F
:103D1000080808080808080808080808020202023B
:103D200040000000A13C00007761726E696E670080
:103D300064656275670000001B5B313B33306D00CA
:103D40001B5B306D000000001B5B313B33316D00AD
:103D50001B5B313B33326D001B5B313B33336D00FA
:103D60001B5B313B33346D001B5B313B33356D00E6
:103D70001B5B313B33366D001B5B313B33376D00D2
:103D8000696E666F000000006572726F720000005D
:103D9000636C6F636B000000434C4F434B000000AB
:103DA0004750494F5445000050525300554152541A
:103DB0000000000055415254450000006170705FE2
:103DC000627574746F6E00006170705F74696D6508
:103DD00072000000736F72746C69737400000000ED
:103DE000756172745F6C6F675F6261636B656E644F
:103DF00000000000617070008C3E00000000002098
:103E0000A401000008050000E03E0000A40100201D
:103E10001C27000064080000683C0000000000004F
:103E2000E03D000044010020903D00000000000043
:103E3000983D000000000000A03D000000000000D0
:103E4000A83D000000000000AC3D000000000000A4
:103E5000B43D000000000000BC3D00000000000078
:103E6000C83D000000000000D43D0000000000003C
:103E7000F43D000000000303580100205001002021
:103E8000580100204803002018000000815AFF015B
:103E90000130091E38093E200140091F601510013C
:103EA0004011022E041220BA400829685904011C4E
:103EB00023883D1A28041A80041A30041A40041A70
:103EC00038041A48041A50041A58041A60041A686C
:103ED000041A70041A780411040090D00300000042
:0400000500000201F4
:00000001FF
