:020000040000FA
:10000000C0310020AD020000B5020000B7020000C0
:10001000B9020000BB020000BD02000000000000A9
:1000200000000000000000000000000015020000B9
:10003000C10200000000000051020000C5020000E3
:10004000E1030000C7020000C7020000C702000071
:10005000C7020000C70200003D030000C702000005
:10006000C7020000C7020000C7020000C70200006C
:10007000C7020000C7020000C7020000C70200005C
:10008000C702000039040000C7020000C7020000D8
:10009000C7020000C7020000C7020000C70200003C
:1000A000C7020000C7020000C7020000C70200002C
:1000B000C7020000C70200000000000000000000AE
:1000C000C7020000C7020000C7020000C70200000C
:1000D000C7020000C7020000C702000000000000C5
:1000E0000000000000000000000000000000000010
:1000F0000000000000000000000000000000000000
:1001000000000000000000000000000000000000EF
:1001100000000000000000000000000000000000DF
:1001200000000000000000000000000000000000CF
:1001300000000000000000000000000000000000BF
:1001400000000000000000000000000000000000AF
:10015000000000000000000000000000000000009F
:10016000000000000000000000000000000000008F
:10017000000000000000000000000000000000007F
:10018000000000000000000000000000000000006F
:10019000000000000000000000000000000000005F
:1001A000000000000000000000000000000000004F
:1001B000000000000000000000000000000000003F
:1001C000000000000000000000000000000000002F
:1001D000000000000000000000000000000000001F
:1001E000000000000000000000000000000000000F
:1001F00000000000000000000000000000000000FF
:10020000DFF80CD000F088F80048004759090000DA
:10021000C0310020244B19680868B0E8F04F80F323
:100220000988BFF36F8F4FF0000080F3118870478B
:10023000000000000548006880F3088862B661B6D7
:10024000BFF34F8FBFF36F8F00DF0000000000008F
:10025000EFF30980BFF36F8F134B1A681EF0100F76
:1002600008BF20ED108A20E9F04F106008B44FF06D
:10027000400080F31188BFF34F8FBFF36F8F01F001
:1002800011FA4FF0000080F3118808BC1968086863
:10029000B0E8F04F1EF0100F08BFB0EC108A80F3EA
:1002A0000988BFF36F8F704714000020064880470D
:1002B00006480047FEE7FEE7FEE7FEE7FEE7FEE74B
:1002C000FEE7FEE7FEE7FEE7A104000001020000F2
:1002D00040EA01039B0703D009E008C9121F08C0C8
:1002E000042AFAD203E011F8013B00F8013B521E48
:1002F000F9D27047D2B201E000F8012B491EFBD2BF
:1003000070470022F6E710B513460A460446194620
:10031000FFF7F0FF204610BD064C074D06E0E068F1
:1003200040F0010394E8070098471034AC42F6D33C
:10033000FFF76AFF0C1E00002C1E00002DE9F84399
:100340000025DFF894804FF4807601242F46009535
:10035000304600F0EDFB38B1D8F80403204203D05A
:10036000304600F0DBFB2543361D64007F1CB6B22F
:10037000082FEDD34FF4BE74204600F0D9FB48B1EE
:10038000204600F0CBFB45F000456A4601210020E5
:1003900000F0A2FB15F0FF0F16D0012600242E421C
:1003A0000ED008EB8401D1F81005D1F81015C0F378
:1003B00004200A4AC1F3014152F8242002B19047B7
:1003C0007600641C082CEAD3002D02DA684600F09F
:1003D0001DFCBDE8F88300000060004060110020B3
:1003E00070B54FF48076304600F000FB114CB50537
:1003F00060B1304600F001FB0120C5F808036079C8
:1004000020B9012060712168002088474FF482766E
:10041000304600F0EBFA00280AD0304600F0EDFA42
:100420000220C5F808032168BDE870400120084794
:1004300070BD0000640000202DE9F041164E4FF41D
:10044000A071304600F07CFB0025EFF311844020C2
:1004500080F31188D6F804758100304600F070FBF7
:1004600001F04CFB381A20F07F46012E07D901F02D
:1004700037FB022803D0002601F046FB0543761E19
:10048000FAD225B105494FF08050086040BFE0B274
:1004900080F31188BDE8F0810010014004ED00E018
:1004A000F0B5A449A4484FF080540B68D4F830212B
:1004B0000078D4F83411551CC0F3031006D09446CC
:1004C00001270026BCF1060F03D00AE003F0FF0C61
:1004D000F6E7B4F82453DFF864C2C5F30425CCF87A
:1004E0000050DDB2062D06D1032804D1DFF854C236
:1004F000934DCCF87450551C04D09446BCF1060FB3
:1005000003D00AE003F0FF0CF8E7D4F84452DFF818
:1005100038C2C5F34235CCF80050DDB2062D08D103
:10052000032806D1894DD5F800C02CF0807CC5F891
:1005300000C0551C04D09446BCF1060F03D00BE05C
:1005400003F0FF0CF8E74FF08045C5F80C61C5F8E3
:1005500010617D4D2D1F2E60DDB2062D08D10328C0
:1005600006D1DFF8E4C103250CF1640CCCF800508F
:10057000DDB2062D10D103280ED1DFF8D4C1052538
:10058000CCF80050724D78352F60714D08352E60D3
:100590000CF104063F253560551C04D016460D4667
:1005A000062E03D05BE0DEB20546F9E7ED1E012D15
:1005B00055D9684D2D68684E3560664D2D1D2D68E6
:1005C000361D3560634D08352D68361D3560614D2B
:1005D0000C352D68361D35605E4D10352D68361D85
:1005E00035605C4D14352D68361D3560594D183514
:1005F0002D68594E20363560564D1C352D68361DF8
:100600003560544D20352D68361D3560514D2435EB
:100610002D68361D35604F4D28352D68361D3560E7
:100620004C4D2C352D68361D35604A4D30352D68C2
:10063000494E40363560474D34352D68361D35609E
:10064000444D38352D68361D3560424D3C352D689A
:10065000361D35603F4D40352D68361D3560551CC3
:1006600003D01646062E02D007E0DEB2FAE7D4F831
:1006700058523A4E05F04F053560551C03D01346CD
:10068000062B02D008E0DBB2FAE735480368DB0747
:1006900002D06FF001030360062A07D1C91E0229A8
:1006A00004D93048016841F48061016027487438FA
:1006B000016841F470010160BFF34F8FBFF36F8F8A
:1006C000D4E94C104FF01022062907D1C01E032890
:1006D00004D9D2F808021C491C310860D2F8000283
:1006E000002803DBD2F8040200281FDA012000F002
:1006F00081FA1521C2F800121B480368002BFCD0B8
:10070000C2F8041201680029FCD0002000F072FA3F
:10071000BFF34F8F0D48F0380168144A01F4E061CF
:1007200011430160BFF34F8F00BFFDE7114910482F
:100730000860F0BDE00F00F0E80F00F04035014028
:100740000DF0ADBA00C007403C050040FCED00E0F4
:10075000105600400404001020C50040E40E004084
:10076000000400403C17004000E401400400FA058A
:100770000090D0037000002002E008C8121F08C1DA
:10078000002AFAD170477047002001E001C1121F12
:10079000002AFBD17047000072B609480068C00704
:1007A00000D000BEBFF34F8F0548E4380168054A0A
:1007B00001F4E06111430160BFF34F8F00BFFDE71B
:1007C000F0ED00E00400FA050EB500210091CDE93E
:1007D00001106A4644F20100FFF7DEFF0EBD00F093
:1007E00003B800F009B8000072B602480168491C5D
:1007F000016070476C00002003490868401E0860D3
:1008000000D162B6704700006C0000202DE9FC4169
:100810000646C0074FF000050ED0104F00240122FD
:10082000385D009500231146019500F031F9641CF4
:10083000042CF4D300F02EF8B0070DD5074E002499
:10084000361D0022305D032300951146019500F00E
:100850001FF9641C042CF4D3BDE8FC81FC1D0000CE
:1008600007490B5C4FF0A041D1F8042501209840C6
:1008700020EA0203C1F808351040C1F80C057047A2
:10088000FC1D00000249085C012100F03BB900009A
:10089000FC1D000010B500242046FFF7F3FF641C88
:1008A000042CF9D310BD00000249084490F930002F
:1008B000704700006011002070B5084C050009D099
:1008C00010342168002907D008682060496828464C
:1008D0008847F6E70834F4E770BD00004C110020AB
:1008E000054A012120B1012805D19170FFF7E4BF2D
:1008F00051700020FAE770474C110020094901208F
:10090000096809B1002070470749CA69002AF9D16E
:10091000044A283212688968491E8A42F3D10220AB
:1009200070470000E8100020140000200268134601
:1009300002E08A4204D01268002AFAD10B600160FA
:1009400070470020FFF78CFFC82000F027FEF8E773
:100950000120FFF785BF00001CB500F057F808B173
:10096000FFF732FF0120FFF751FF14490220CDE9C4
:10097000000100234FF4827211A1134801F084F8A2
:1009800012480090002301224FF47A7110A001F068
:10099000D3F90A4C606001F0B1F80246002003462A
:1009A00000900121606801F001FA0B48016841F0F4
:1009B0000401016000F03EFEFEE7000000000020A0
:1009C0004C4544300000000043090000510900007C
:1009D0004C4544310000000010ED00E0C20800F07A
:1009E00007030120895C98400840704700F180406F
:1009F0000068002800D00120704708B500F1804051
:100A0000002101600068009008BD000070B50C4C2A
:100A10000125207808B185260BE00020A0606060E9
:100A20002061E060074800F0AFF8064600F096F855
:100A3000257000F08BF800B1A570304670BD000045
:100A40004C110020E108000070B5104D0446A87854
:100A500038B114B16168012088470020FFF7BFFE5C
:100A60000CE00020FFF7BBFE24B1084821461030FF
:100A7000FFF75CFFE86808B900F096F8E868401CEA
:100A8000E860BDE870400020FFF7ABBE4C110020CD
:100A900070B541EA4201DDE904564FF0A04441EA55
:100AA000830141EA052104EB800041EA0641C0F8D8
:100AB000001770BD4FF0A04202EB8000D0F8002775
:100AC00022F44032C0F80027D0F8002742EA014162
:100AD000C0F800177047000038B5094B44181B6870
:100AE00000936B4608E000BF53F82010D1F8205562
:100AF00020C2C1F82055401C8442F5D838BD000002
:100B0000081E000001224FF0A043824011B1C3F83B
:100B100008257047C3F80C2570470000034908B545
:100B20000844002101600068009008BD006000409A
:100B300002494058012800D0002070470060004062
:100B400008B5002242504058009008BD0248006895
:100B5000002800D0012070470004014008480068C8
:100B6000012110F0010F06D14FF0E020C02280F8E3
:100B700000248430C16703490120086070470000E9
:100B800000E100E0180500400649024600200B790C
:100B90000BB1852070470A6001220A7100224A7158
:100BA000704700006400002070B54FF48270FFF7BA
:100BB00024FF02204107C1F804030B4B196841F0E0
:100BC000807018600948026842F0010404604468BB
:100BD0004FF40A554668361BAE42FBD302601960DB
:100BE00003490120086070BDFCED00E0001000E04A
:100BF0000800004003490860034801680029FCD050
:100C00007047000004E5014000E401402DE9F05F79
:100C10002A4F06464FF0A04A4FF0010B0024381926
:100C200090F95010491C3CD090F85000314620F00B
:100C3000C0052846FFF7D2FE20B3204600F040F85A
:100C400081460AEB8500D0F80007C0F30148B8F1EF
:100C5000020F18D002212846FFF72CFF0BFA05F1EE
:100C6000CAF820152846FFF71FFE57F820204AB182
:100C70004846B9F1030F11D0B8F1020F05D0B8F111
:100C8000030F07D00DE00321E5E74846B9F1010F56
:100C900004D006E04846B9F1020F02D101462846C9
:100CA0009047641C042CBAD3324601210020FFF780
:100CB00013FF30680028B1D1BDE8F09F601100201B
:100CC0000249084490F850008009704760110020E4
:100CD0002DE9F041184C0F460546E6682068001DD6
:100CE00000F05AFB38B9206890F82C100120884099
:100CF000216981432161681C07D137B12168BDE8B2
:100D0000F0410E48091D00F080BB20683544B54213
:100D10004560216805D2A06BBDE8F041091D00F0D7
:100D20005CBB606B091D00F058FBA06A854200D2D5
:100D3000A562BDE8F0810000140000201011002021
:100D40002DE9F041054600F06DFB2E4CA068401CDB
:100D5000A06020682C4F10B1606940B32DE0256081
:100D6000A068012829D1002606EB860007EB800049
:100D700000F025FB761C032EF6D323483C3000F010
:100D80001EFB2148503000F01AFB1F48643000F071
:100D900016FB1D48783000F012FB1B488C3000F029
:100DA0000EFB19483C3060631430A06305E02068F6
:100DB000E96AC06A884200D82560606A401C6062A7
:100DC000E96A0120226988401043206101EB81001B
:100DD00007EB8000291D00F018FB00F02DFB606977
:100DE00000280DD02068E96AC06A884208D2074905
:100DF0004FF08050086040BFBFF34F8FBFF36F8F3D
:100E0000BDE8F081140000208410002004ED00E013
:100E100010B500F007FB0E4C2068A0B90D4800F09B
:100E2000CEFA0C48143000F0CAFA0A48E0601430D8
:100E3000206100221021202000F07CFC206010B1F5
:100E400005A100F075FBBDE8104000F0F5BA000008
:100E50005000002024110020546D72510000000049
:100E600030B4026C0B46002A0BD0C1681144C1603B
:100E70004468A14201D30168C16030BC1846FFF745
:100E800027BA30BC70472DE9F041856B1746044600
:100E90000026026C82B1C7B1E068FFF719FAE16879
:100EA000206C091AE1602268914202D26168081A36
:100EB000E060022F16D017E02068A8B9606800F043
:100EC00073FE0646002060600EE0A068FFF700FA9F
:100ED000216CA0680844A0606168884204D320683F
:100EE000A06001E005B16D1E6D1CA5633046BDE834
:100EF000F08110B50446006B00F0A8FA2046BDE86A
:100F0000104000F0A3BA00000A4800210269012A3B
:100F100000D901210268D26A0AB100207047064A4E
:100F20001268012AF9D80029F7D1816AC068081A25
:100F30007047000014000020841000201A4C1B4E43
:100F400012E000BF00F06EFAF068C568281D00F0DE
:100F500023FAA068401EA0606068401E606000F038
:100F60006BFA2846FFF7C5FF60680028EAD10F48F2
:100F700078380068012808D90D494FF08050086082
:100F800040BFBFF34F8FBFF36F8FFFF7BDFF022846
:100F9000D5D300F07FFBFFF7B7FF022801D300F0A5
:100FA00077FA00F06FFECAE714000020FC10002062
:100FB00004ED00E02DE9F0470E46DDE9098417460F
:100FC000824691009946089DA522206BFFF792F971
:100FD0006FF00301206B01EB8701084420F0070745
:100FE00000202218315C82F83410315C11B1401CB1
:100FF0000428F6D3002684F83760032D00D3022599
:10100000E562C4E90E56201D00F0E4F904F1180071
:1010100000F0E0F92461C5F103006462A061266478
:1010200084F844604A465146384600F099F92060F9
:10103000B8F1000F01D0C8F80040BDE8F08700000B
:1010400070B5002441600B4D0061914206D8D11A61
:101050008269914206D2011D286907E09A4203D2B3
:10106000994201D3012403E0011DE86800F0B5F9BD
:10107000204670BD5000002010B5044600F0D2F9A3
:10108000A06B28B15FF0000400F0D6F9204610BD37
:101090000124F9E730B589B0264D41E004980028D5
:1010A00006DADDE90601059A90470498002837DB47
:1010B000069C606910B1201D00F06EF902A800F0D6
:1010C0009DF8024604980A282AD2DFE800F00505B8
:1010D00005291E260505291E0598A1690346014418
:1010E0002046FFF7ADFFD8B1616A20468847E06926
:1010F000012815D1002000900598A169002342180D
:101100001946204600F052FE0AE00598A0618118B9
:1011100013462046FFF794FF02E0204600F096F9C0
:10112000002204A9286800F00DFC0028B6D109B0FF
:1011300030BD0000500000202DE9FC410F4605465F
:1011400000F0A8FA01A800F059F80446019818B177
:1011500000F098FDBDE8FC811E4EB7B13069006813
:10116000A8B30027291B3A46306800F0F5F900F0D3
:1011700089FD0028EED118494FF08050086040BF2B
:10118000BFF34F8FBFF36F8FE4E7A542EAD800F0BB
:1011900079FDF0682746C068C468201D00F0FCF89F
:1011A000E06901280FD1A0692B4641193A46204633
:1011B000FFF746FF38B100200346014600902A465B
:1011C000204600F0F3FD616A20468847C2E7FFE74A
:1011D0000127C7E75000002004ED00E00648416BFE
:1011E000096829B1416BC968C9684968816270475B
:1011F0004FF0FF31FAE700001400002070B50546FB
:1012000000F07CFC064E0446B068844203D200F035
:1012100009F8012000E0002028602046B46070BD7D
:1012200050000020F8B5144D1EE0C068C468066880
:10123000201D00F0B1F8616A20468847E069012866
:1012400012D1A0693044B04206D924616060211DEA
:10125000E86800F0C2F807E000200346014600906D
:101260003246204600F0A2FDE86801680029DCD182
:101270002969C5E90310F8BD50000020402080F323
:101280001188FEE7074CE068016841B1C0680021A1
:10129000D0F80000FFF750FFFFF7FCFEF3E7012155
:1012A0000020F7E7500000202DE9F041044600F04F
:1012B000B9F894F9455004F1240609E0606A48B190
:1012C000304600F0A9FC08B100F08AF96D1E6DB23D
:1012D000002DF3DC4FF0FF3684F8456000F0ACF8E9
:1012E00000F0A0F894F9445004F1100709E02069D7
:1012F00048B1384600F090FC08B100F071F96D1E5D
:101300006DB2002DF3DC84F84460BDE8F04100F0DC
:1013100093B8000070B504460025400704D004F0DF
:101320000700C0F10800044400F0B4F90A49486815
:1013300018B90A4820F0070048600A6840F6F873B8
:101340001019984204D2904202D94B6808609D1847
:1013500000F098FC284670BD080000207C000020AA
:1013600010B5084C031F24681C601B1F1960191F4F
:10137000054B0B6014390A60091F6FF002024438F4
:101380000A6010BD041E00007D120000EFF3118002
:10139000402181F311887047D0E9013201699A60D8
:1013A000D0E901235A604A68824201D182684A60CA
:1013B000002202610868401E08600868704700F15A
:1013C00008014FF0FF32C0E90112C1600161002144
:1013D0000160704700210161704730B50B685A1CED
:1013E00002D000F1080202E0026904E022465468DB
:1013F00025689D42FAD953684B6099608A605160B4
:1014000008610168491C016030BD42684A60936808
:101410008B6093685960916008610168491C0160A4
:1014200070470000402080F3118802480168491C81
:10143000016070471000002003490868401E0860E2
:1014400001D180F311887047100000207047000020
:1014500010B50020FFF7F8FA0B481F21C0F8081557
:101460000121C0F80413816001600221C0F8441317
:101470000649E02081F800044FF0E0214FF40030ED
:10148000C1F8000110BD00000010014011E000E0B3
:101490002DE9F04104462448844200D9044672B63E
:1014A000224DD5F80475FFF729FAD0B33819012178
:1014B00020F07F40C5F80813C5F840054FF4A07828
:1014C00041462846FFF73CFB4FF48030C5F8040343
:1014D000BFF34F8F4FF0E02634B120BFD6F8001293
:1014E000D6F804221143F8D0C5F80803414628462F
:1014F000FFF726FB4FF480712846FFF721FB012000
:10150000C5F80403D5F804054FF40031C01B20F0E2
:101510007F40C6F88012A04200D9204608B100F0F2
:10152000B1F862B6BDE8F081FDFFFF000010014098
:1015300010B5084B002200BF53F832401CB1521CBA
:10154000022AF9D310BD43F8321003EBC201486000
:1015500010BD00007410002070B515460E460446FC
:10156000FFF760FF94F944100020491C01D184F872
:10157000440094F94510491C01D184F84500FFF757
:101580005BFFA06B28B92A46314604F1240000F025
:101590003DF82046BDE87040FFF786BE10B502005A
:1015A00009D000F077F800211046FFF791FB00F01A
:1015B00069FB002808D105494FF08050086040BF02
:1015C000BFF34F8FBFF36F8F10BD000004ED00E03D
:1015D00002490A6A0260C96841607047140000202D
:1015E00001490120C86170471400002010B50C4665
:1015F000054909681831FFF7F0FE2046BDE81040A4
:101600000121FFF765BB00001400002070B50D46F6
:101610000749144609681831FFF7F7FE0CB14FF07F
:10162000FF3521462846BDE87040FFF751BB00005A
:10163000140000201CB50F480024CDE900402346CB
:101640003C220DA10E4800F01FFA012811D100F034
:101650008FFB01280DD1402080F311880548611EC1
:101660002C38816201214161C460BDE81C4000F05A
:101670003BB81CBD4000002049444C450000000020
:101680003D0F00000249CA681044C860704700005E
:10169000140000200248016B491C016370470000E0
:1016A000140000200E48016B11B10121C161704787
:1016B0000021C16101690B4AB1FA81F1C1F11F0139
:1016C00001EB810102EB810101F108034A685268D4
:1016D0004A609A4201D152684A60D16801607047FD
:1016E00014000020841000200E49E02081F8140D21
:1016F000FFF7AEFE0C49002008600C48016841F479
:10170000700101600A48016841F0404101600748EA
:101710007838016841F010010160FEF78BFDFFF79A
:10172000ADFD00000EE000E01000002088ED00E0BC
:1017300034EF00E070B50E00054612D005FB06F050
:101740004830FFF7E7FD040009D004F148012046C6
:101750004EB10160C0E90F56012100F007F82046A4
:1017600070BD0020ECE70060F4E7000070B50D46A6
:101770000446FFF757FED4E90F12206801FB020070
:1017800060600020A0632068A0600146E06B401EFE
:1017900000FB0210E0604FF0FF3084F8440084F852
:1017A000450004F110004DB1FFF709FE04F12400DB
:1017B000FFF705FEFFF740FE012070BD21690029FB
:1017C000F8D000F029FA0028F4D005494FF08050F5
:1017D000086040BFBFF34F8FBFF36F8FEAE7000091
:1017E00004ED00E02DE9FF4700273C4E82B099460A
:1017F0008A460446B8464FF0805500BFFFF712FEF8
:10180000A06BE16B884206D3B9F1020F03D00498B4
:10181000C8B1DFB11EE04A4651462046FFF733FB10
:10182000616A19B104F1240000F0F6F928B13560BD
:1018300040BFBFF34F8FBFF36F8FFFF7FDFD012058
:1018400006B0BDE8F087FFF7F7FD21E06846FFF737
:10185000BFFE0127FFF7F0FDFFF71CFFFFF7E2FDDA
:1018600094F94400401C01D184F8448094F9450067
:10187000401C01D184F84580FFF7DEFD04A96846CD
:1018800000F0DAF830B12046FFF70EFD00F0FAF96B
:101890000020D5E7FFF7C6FDA06BE16B884214D1AD
:1018A000FFF7CAFD04F110000499FFF79FFE2046E0
:1018B000FFF7FAFC00F0E6F900289FD1356040BF41
:1018C000BFF34F8FBFF36F8F98E7FFF7B5FD20464B
:1018D000FFF7EAFC00F0D6F990E7000004ED00E025
:1018E0002DE9F0479846174689460446FFF74EFD16
:1018F000A16B0646E06B814208D3B8F1020F05D018
:101900000020F1B281F31188BDE8F08794F94550C9
:10191000424649462046FFF7B6FA681C04D06D1CC3
:1019200084F845500120ECE7606A0028FAD004F101
:10193000240000F071F90028F4D0002FF2D001202B
:101940003860EFE72DE9F7470026DFF8E88083B03D
:101950008A460446B1464FF0805700BFFFF762FD4C
:10196000A56BCDB151462046FFF77AFA6D1EA563EF
:10197000206958B104F1100000F04EF930B1C8F8F8
:10198000007040BFBFF34F8FBFF36F8FFFF754FD61
:10199000012006B0BDE8F087059808B11EB106E049
:1019A000FFF74AFD27E06846FFF712FE0126FFF722
:1019B00043FDFFF76FFEFFF735FD94F94400401C2F
:1019C00001D184F8449094F94500401C01D184F879
:1019D0004590FFF731FD05A9684600F02DF8002875
:1019E00020460AD0FFF760FC00F04CF92046FFF7D4
:1019F00043FB0028B2D00020CBE7FFF73DFB98B1B6
:101A000004F124000599FFF7F1FD2046FFF74CFC97
:101A100000F038F90028A1D1C8F8007040BFBFF32A
:101A20004F8FBFF36F8F99E72046FFF73DFC00F023
:101A300029F993E704ED00E02DE9F0410C46054655
:101A4000FFF7F0FC0F4BDA686E682168901B4F1CA3
:101A500007D02F681B6A9F4209D0964207D80124FD
:101A600000E00024FFF7E8FC2046BDE8F081814259
:101A700005D9081A20602846FFF7AAFDF1E70020E3
:101A80002060ECE7140000202DE9FF5F8346DDE9CC
:101A90000E87994616468A469000FFF73BFC0500E4
:101AA0001AD04820FFF736FC040012D0256300212D
:101AB000CDE90241CDE900874B46324651465846B2
:101AC000FFF778FA2046FFF73BF9012004B0BDE8A4
:101AD000F09F2846FFF7BAFC4FF0FF30F6E7000012
:101AE0000548416919B1006B18B100207047012009
:101AF0007047022070470000140000200148C068B1
:101B000070470000140000202DE9F041244C00270C
:101B1000206B40B1A069401CA061E06900B10127C1
:101B20003846BDE8F081E668761CE66008D1606B57
:101B3000A16B6163A063206A401C2062FFF74EFB2B
:101B4000A06A8642E9D3606B006838B1606BC068F8
:101B5000C5686868864204D2A062DEE74FF0FF30B5
:101B6000FAE7281DFFF718FCA86A18B105F118005C
:101B7000FFF712FCE86A01212269814011432161CB
:101B8000084900EB800001EB8000291DFFF73DFCB8
:101B9000E86A2168C96A8842D5D30127D3E70000E3
:101BA000140000208410002070B504004FF00001E4
:101BB0002BD0E06B401EE063A36BE26A9A4224D014
:101BC00018BB201DFFF7E8FB114B124A012150B949
:101BD000E06A00EB800553F8255025B9156901FA34
:101BE00000F085431561A06BE062C0F10300A061C5
:101BF000E06A156981402943116100EB800003EB25
:101C00008000211DFFF701FC0121084670BD000086
:101C100084100020140000202DE9F041C068C46841
:101C200004F118000746FFF7B7FB144D286B012697
:101C300060B11348394600BFFFF7E7FBE06A296847
:101C4000C96A884213D90124EE6111E0201DFFF713
:101C5000A3FBE16A2A6906FA01F01043286101EB4F
:101C600081000749643901EB8000211DE4E700246D
:101C7000FFF7B4FA2046BDE8F08100001400002010
:101C8000E81000202DE9F04700242646FFF7CAFBA4
:101C9000264D286B401E2863286BE8BBA968244F9B
:101CA0000120C9B3A7F1640980463868E8B1F86833
:101CB000C46804F11800FFF76FFB201DFFF76CFBF1
:101CC000E06A2A6908FA00F11143296100EB8001FA
:101CD00009EB8100211DFFF798FBE06A2968C96ABA
:101CE0008842E2D3C5F81C80DFE70CB1FFF776FA33
:101CF000AC694CB14FEA0807FFF706FF00B1EF618E
:101D0000641EF9D10020A861E86928B109490126BB
:101D10003007086040BF00E003E0BFF34F8FBFF320
:101D20006F8FFFF789FB3046BDE8F0871400002075
:101D3000E810002004ED00E02DE9F04706461F46BC
:101D4000154688462820DDF82090FFF7E3FA0400C6
:101D50000BD0FFF75DF804F11C01C4F81880266071
:101D600081E8A002201DFFF735FB2046BDE8F08783
:101D70001CB50024FFF74CF80848006858B1074923
:101D80000220091DCDE900010023502204A10648CC
:101D9000FFF77AFE044620461CBD000050000020DC
:101DA000546D722053766300851200002DE9FF41C7
:101DB000114C1F460346266800200A9D002E0ED0B7
:101DC0008DE80E0006290FDAFFF78AFE02284FF091
:101DD000000307D0002269462068FFF703FD04B026
:101DE000BDE8F0812A46F6E700233A4669463046C8
:101DF000FFF776FDF3E700005000002011121314E6
:101E00000D0E0F1000000001000000502C1E0000FD
:101E1000000000207400000078070000A01E0000F1
:101E2000740000204C310000880700000000000012
:101E300000000000000000000000000000000000A2
:101E40000000000000000000000000000000000092
:101E50000000000000000000000000000000000082
:101E60000000000000000000000000000000000072
:101E70000000000000000000000000000000000062
:101E80000000000000000000000000000000000052
:101E90000000000000000000000000000090D003DF
:0400000500000201F4
:00000001FF
