:020000040000FA
:10000000182C0020C1030000C9030000CB0300002E
:10001000CD030000CF030000D1030000000000006A
:10002000000000000000000000000000D3030000FA
:10003000D503000000000000D7030000D903000032
:10004000C5050000DB03000005090000DB0300001C
:10005000DB030000DB030000DB030000DB03000028
:10006000DB030000DB030000DB030000DB03000018
:10007000DB030000DB030000DB030000DB03000008
:10008000DB0300001D060000DB030000DB030000B3
:10009000DB030000DB030000DB030000DB030000E8
:1000A000DB030000DB030000DB030000DB030000D8
:1000B000DB030000DB030000000000000000000084
:1000C000DB030000DB030000DB030000DB030000B8
:1000D000DB030000DB030000DB0300000000000086
:1000E0000000000000000000000000000000000010
:1000F0000000000000000000000000000000000000
:1001000000000000000000000000000000000000EF
:1001100000000000000000000000000000000000DF
:1001200000000000000000000000000000000000CF
:1001300000000000000000000000000000000000BF
:1001400000000000000000000000000000000000AF
:10015000000000000000000000000000000000009F
:10016000000000000000000000000000000000008F
:10017000000000000000000000000000000000007F
:10018000000000000000000000000000000000006F
:10019000000000000000000000000000000000005F
:1001A000000000000000000000000000000000004F
:1001B000000000000000000000000000000000003F
:1001C000000000000000000000000000000000002F
:1001D000000000000000000000000000000000001F
:1001E000000000000000000000000000000000000F
:1001F00000000000000000000000000000000000FF
:10020000DFF80CD000F0A0F900480047F5300000FE
:10021000182C002030B450E8012F93B2C489234435
:100220008489A34228BF1B1B0489A34202BFBFF3DA
:100230002F8F002007E0C3EA020340E80134002CBE
:10024000E9D14FF001000A6030BC704750E8012F3F
:10025000C2EA024240E801210029F7D1704730B4D8
:1002600050E8022F1FFAA2F3C488A34202BFBFF3D3
:100270002F8F00200DE0C48923448489A34228BF26
:100280001B1BC2EA034340E80234002CE8D14FF0C4
:1002900001000A6030BC704750E8022FC2EA2242D7
:1002A00040E802210029F7D17047034653E8022FA6
:1002B000D988B2EB324F4FF0000017BF92B241EA3B
:1002C000014142EA014104E05A68B2EB324F08BFF3
:1002D000012043E80212002AE8D1704730B40446F6
:1002E00054E8000F0D4644E80053002BF8D1156088
:1002F00030BC704730B4044654E8000F40EA0105B2
:1003000044E80053002BF7D1156030BC704730B47F
:10031000044654E8000F00EA010544E80053002BAE
:10032000F7D1156030BC704730B4044654E8000F74
:1003300080EA010544E80053002BF7D1156030BC7A
:10034000704730B4044654E8000F00EB010544E860
:100350000053002BF7D1156030BC704730B4044611
:1003600054E8000FA0EB010544E80053002BF7D13F
:10037000156030BC704770B404464FF0000054E87C
:10038000006F0D68AE4207BF44E80023012044E837
:1003900000630E60002B1CBF0020F0E770BC7047AC
:1003A00030B4044654E8000F88422CBF451A054675
:1003B00044E80053002BF5D1156030BC70470000B5
:1003C0000648804706480047FEE7FEE7FEE7FEE7EF
:1003D000FEE7FEE7FEE7FEE7FEE7FEE72D0600008C
:1003E0000102000000487047406C00002DE9FE4308
:1003F000994615468846074601AC022942D3002D8E
:1004000040D000200290A8F101004FF0FF3600908C
:1004100022E000FB057201FB057011464A46904739
:10042000002805DC54F82600304444F8260013E088
:1004300060682A4600FB057154F8040C00FB057047
:1004400007E00B7890F800C001F801CB00F8013B01
:10045000521E002AF5D1764254F8040C6168884295
:10046000D7DC4B462A463846FFF7C0FF54F8040C49
:100470004B46A8EB0001401C00FB05702A46491EB4
:10048000FFF7B4FFBDE8FE8310B5431A934209D2CB
:100490008318881803E010F8011D03F8011D521E8F
:1004A000F9D210BD40EA01039B0703D009E008C957
:1004B000121F08C0042AFAD203E011F8013B00F829
:1004C000013B521EF9D210BDD2B201E000F8012B5F
:1004D000491EFBD270470022F6E710B513460A46C4
:1004E00004461946FFF7F0FF204610BD421C10F8E5
:1004F000011B0029FBD1801A704710B5002200E0D3
:10050000521C835C8C5CA34201D1002BF8D1D8B281
:10051000E1B2401A10BD034611F8012B00F8012B7F
:10052000002AF9D11846704730B505460020034629
:1005300000E05B1C934205D2EC5CC85C201A01D140
:10054000002CF6D130BD0000064C074D06E0E068F7
:1005500040F0010394E8070098471034AC42F6D30A
:10056000FFF752FED8750000F875000070B58C18C2
:1005700010F8015B15F0070301D110F8013B2A11B7
:1005800006D110F8012B03E010F8016B01F8016BA4
:100590005B1EF9D12B0705D40023521E0DD401F8A0
:1005A000013BFAE710F8013BCB1A921C03E013F869
:1005B000015B01F8015B521EF9D5A142D8D300209E
:1005C00070BD000070B54FF48076304603F086FDB4
:1005D000114CB50560B1304603F087FD0120C5F828
:1005E0000803607920B901206071216800208847E4
:1005F0004FF48276304603F071FD00280AD0304671
:1006000003F073FD0220C5F808032168BDE87040BF
:100610000120084770BD0000680000200249024820
:10062000091F096800680847B8000020F0B5A44910
:10063000A4484FF080540B68D4F830210078D4F8E7
:100640003411551CC0F3031006D094460127002630
:10065000BCF1060F03D00AE003F0FF0CF6E7B4F894
:100660002453DFF864C2C5F30425CCF80050DDB292
:10067000062D06D1032804D1DFF854C2934DCCF8DF
:100680007450551C04D09446BCF1060F03D00AE008
:1006900003F0FF0CF8E7D4F84452DFF838C2C5F392
:1006A0004235CCF80050DDB2062D08D1032806D122
:1006B000894DD5F800C02CF0807CC5F800C0551CD1
:1006C00004D09446BCF1060F03D00BE003F0FF0CFE
:1006D000F8E74FF08045C5F80C61C5F810617D4D15
:1006E0002D1F2E60DDB2062D08D1032806D1DFF8BC
:1006F000E4C103250CF1640CCCF80050DDB2062DEA
:1007000010D103280ED1DFF8D4C10525CCF8005054
:10071000724D78352F60714D08352E600CF104064E
:100720003F253560551C04D016460D46062E03D0D5
:100730005BE0DEB20546F9E7ED1E012D55D9684DA7
:100740002D68684E3560664D2D1D2D68361D35604F
:10075000634D08352D68361D3560614D0C352D68AB
:10076000361D35605E4D10352D68361D35605C4D8B
:1007700014352D68361D3560594D18352D68594E84
:1007800020363560564D1C352D68361D3560544D6C
:1007900020352D68361D3560514D24352D68361DA8
:1007A00035604F4D28352D68361D35604C4D2C3544
:1007B0002D68361D35604A4D30352D68494E40361E
:1007C0003560474D34352D68361D3560444D38351C
:1007D0002D68361D3560424D3C352D68361D35601F
:1007E0003F4D40352D68361D3560551C03D01646EB
:1007F000062E02D007E0DEB2FAE7D4F858523A4E9D
:1008000005F04F053560551C03D01346062B02D06A
:1008100008E0DBB2FAE735480368DB0702D06FF087
:1008200001030360062A07D1C91E022904D93048F2
:10083000016841F48061016027487438016841F41F
:1008400070010160BFF34F8FBFF36F8FD4E94C107D
:100850004FF01022062907D1C01E032804D9D2F870
:1008600008021C491C310860D2F80002002803DB92
:10087000D2F8040200281FDA012005F059F91521E9
:10088000C2F800121B480368002BFCD0C2F8041207
:1008900001680029FCD0002005F04AF9BFF34F8F12
:1008A0000D48F0380168144A01F4E0611143016019
:1008B000BFF34F8F00BFFDE7114910480860F0BD3E
:1008C000E00F00F0E80F00F0403501400DF0ADBA48
:1008D00000C007403C050040FCED00E01056004021
:1008E0000404001020C50040E40E00400004004055
:1008F0003C17004000E401400400FA050090D003DA
:1009000060010020014800680047000070000020DE
:1009100002E008C8121F08C1002AFAD170477047C8
:10092000002001E001C1121F002AFBD17047000026
:1009300072B604F045F900BF03F0F8FE0028FBD1C1
:10094000144D154915486A88081AC4082AB10120AF
:1009500000EB044012A104F023F814480068C0071B
:1009600000D000BE6888022805D3022000EB0440B6
:100970000FA104F015F8BFF34F8F0C48E43801685D
:100980000F4A01F4E06111430160BFF34F8F00BFD4
:10099000FDE70000BC010020C8760000587600008A
:1009A000466174616C206572726F7200F0ED00E058
:1009B00053797374656D207265736574000000006F
:1009C0000400FA050EB500210091CDE901106A4638
:1009D00044F20100FFF7ACFF0EBD0000014801F03A
:1009E00028BB00008000002010B55AB100684FF00D
:1009F000FF3401294261C0E9024400D000210161B5
:100A0000002010BD072010BD38B51148082358221A
:100A1000416800910F49006802F02CFD002815D1B3
:100A20000D4A69460D4801F009FB04000ED1012171
:100A30000A4801F088FB0123094A1946074801F0DA
:100A4000D0FA0649012008390870204638BD000058
:100A5000B067000008060020DD5C00008000002078
:100A6000FFFF7F0070B5044616460D46002000F0DB
:100A70003CF8D4E90201C04370EA010004D0002030
:100A800000F035F8002070BD01F01CFE401941F166
:100A90000001C4E90201002000F029F8A6612069E4
:100AA00000B125612146BDE87040002005F074BB0F
:100AB00010B50446002000F018F8D4E90201C04344
:100AC00070EA01000CD04FF0FF30C4E902000020B2
:100AD00000F00DF82146BDE81040012005F05CBB98
:100AE000002000F004F8002010BD00F003B800F072
:100AF00009B8000072B602480168491C01607047DD
:100B0000B000002003490868401E086000D162B6AA
:100B100070470000B00000202DE9F041064608684B
:100B20000C46411C4FF0A0474FF0010506D005FAD6
:100B300000F1C7F80815206803F0C0FC6068411C8C
:100B400002D0002103F0A8FC3168A069C1F8240597
:100B5000607D227D31681043C1F86C05D4E9001234
:100B60003068C0F81425C0F80C15207D012815D177
:100B7000A068411C02D0002103F08EFCE068411CFB
:100B800005D08540C7F80855E06803F097FCD4E924
:100B900002123068C0F80825C0F81015BDE8F081D1
:100BA0002DE9F041064608680C46411C4FF0A0476D
:100BB0004FF0010506D005FA00F1C7F808152068C6
:100BC00003F086FC6068411C02D0002103F06DFC3C
:100BD0003168A069C1F82405607D217D3268084331
:100BE000C2F86C05D4E900123068C0F80C15C0F8E2
:100BF0001425207D012815D1A068411C02D00021B8
:100C000003F053FCE068411C05D08540C7F8085547
:100C1000E06803F05DFCD4E902123068C0F80825F2
:100C2000C0F81015BDE8F081F0B500220D4BCA6088
:100C3000C1E901230C4B0D4D1446EE1A0A600CE07D
:100C400003EB0215EF683F79FF2F05D0A04202D1D8
:100C5000A8680860F0BD641C521CB2EB161FEFD3ED
:100C6000F0BD0000586A0000387600005876000099
:100C70002DE9F0470546861C91460F464FF0010AC4
:100C80000020FFF732FF1B4C04F21C4860683860FC
:100C9000D4E90101184F401A3968081A0EE0012101
:100CA000404602F032FC02F033F90146404602F0C1
:100CB0002CFCD4E90101401A3968081A401C86420C
:100CC000EDD8B9F1000F03D0052065F3891002E0DB
:100CD000062065F39F5061683A68114004EB81017A
:100CE000C8606068304460600020FFF700FF504635
:100CF000BDE8F087F8070020E400002070B50D463D
:100D000004460A2902D10D21FFF7F8FFA0682268E6
:100D1000411CA1601554D4E90101814204D320464D
:100D2000BDE8704003F089BA70BD000004488168D6
:100D30004068814201D101207047002070470000C7
:100D4000F807002070B5816804468A7F002A4DD0DC
:100D5000C87F00284AD0121A0844D5B200F12001F9
:100D60006A1C1F30FFF790FBA068C17F491EC17746
:100D7000A068817F491E81778DB308221C492069B4
:100D800003F04EFA204602F04DFB8178C078814294
:100D900011D1A06817A2C17F431808212046203333
:100DA00002F054FF204600F013F929462046BDE822
:100DB000704001F009B8204600F01EF9204600F00E
:100DC00007F9A0680BA2C17F4318082120462033F1
:100DD00002F03CFF2046BDE8704000F003B92069F6
:100DE000BDE87040044A03A103F01ABA70BD0000C8
:100DF000CC0F0000257300009169000070B5044617
:100E00008068827FC17F521A12F0FF053AD00844F1
:100E100000F121012A462030FFF736FBA068817FD0
:100E2000491E8177204602F0FDFA8178C078814220
:100E300014D1A06814A2C17F431808212046203392
:100E400002F004FF114A10A1206903F0E9F96D1EB8
:100E5000E9B22046BDE8704000F0B6BF204600F081
:100E6000CBF8204600F0B4F8A06807A2C17F431871
:100E700008212046203302F0E9FE2046BDE87040FC
:100E800000F0B0B870BD0000257300009569000047
:100E90002DE9F041044680680F46D0F84811C27F22
:100EA00011F00106817FA1EB0203DDB20BD07F2997
:100EB00001D3002D7ED0A068C17F0844002180F8B6
:100EC000207066B113E07F297CD2002DF3D0831807
:100ED00003F120012A46481CFFF7D6FAEBE7A06889
:100EE000827F521CD2B28277A068203281544DB3E7
:100EF000204602F097FA8178C07881420ED1A0682E
:100F000031A2C17F431808212046203302F09EFE03
:100F1000A81BC1B2204600F057FF21E0204600F098
:100F20006BF8A06828A2C17F43180821204620330F
:100F300002F08CFE204600F055F80121204601F019
:100F40001DF80DE03EB1A068827F521CD2B28277BC
:100F5000A068203281543A461CA1206903F060F950
:100F6000A168C87F401CC877204600F01AFF0028FF
:100F7000204603D0BDE8F04100F032BF01F08FFB06
:100F800000281FD0204602F04DFA0546C078A97807
:100F9000401A401EC1B2204600F0A4FE204600F0D8
:100FA0001FFFE878A978401AC1B2204600F0F2FF8E
:100FB000287800E006E0401EC1B22046BDE8F041BE
:100FC00000F0DCBFBDE8F081257300002563000060
:100FD0000069024A02A103F023B9000089690000F8
:100FE000257300000069024A024903F019B90000A4
:100FF00083690000E00F00000069024A024903F023
:101000000FB9000080690000E00F00002DE9F04FEB
:101010004FF0000995B005464F464C4600F0BEFD26
:10102000284601F07BFC284600F068FE284600F0C8
:10103000B8FE10B9284600F0D3FEAA680C2301A917
:101040000EA8203202F0C8F803460E9840B15BB1FA
:1010500049A20221284602F0F9FD15B0BDE8F08F43
:10106000284600F0BDFEF8E7494848490026A1EBB4
:1010700000080DF1040A834613E008D345A0009050
:1010800049A202212846019B02F0E0FDE5E70BEBB7
:10109000C604606801685AF82900FFF72EFA18B1F3
:1010A000761CB6EBD80FE8D94FF000000F90A96876
:1010B00048608860C86008616168C86828B14AC92A
:1010C000AA68C2E90360C2E90113606809F101047A
:1010D0004FF00006D0F808800E98844235D25AF8B6
:1010E000240033A1FFF709FA40B35AF8240031A1D4
:1010F000FFF703FA10B310A832460090761C0FAB2E
:101100002146404600F006FDFEB10F98E8B10168A7
:101110005AF82400FFF7F1F90028DDD10F98C168D3
:1011200039B190E84810AA682746C2E903C1C2E96C
:1011300001360026641CD0F80880CDE7A868D0F8F6
:10114000481141F00201C0F84811A868036933B1A1
:101150000E980AEB8702C11B2846984704E017A2A5
:101160000221284602F072FDA868D0F8481121F04B
:101170000201C0F8481170E76E6F74207465726DDB
:10118000696E617465643A2025630A003876000050
:10119000F87500003A20636F6D6D616E64206E6FAC
:1011A0007420666F756E6400257325730A00000055
:1011B0002D6800002D2D68656C700000506C656115
:1011C0007365207370656369667920612073756249
:1011D000636F6D6D616E642E0A0000008068D0F848
:1011E0004801C0F3C00070472DE9F0410446C068D3
:1011F0008EB00D46406800263246006801A903F013
:10120000EEFD18B100200EB0BDE8F0816DB101987F
:1012100003F094FDA168D1F83801401CC1F83801F1
:1012200000F0070001287AD10126204602F0FAF8E2
:1012300005468078012804D9401EC1B2204600F03E
:10124000A9FE2878012804D9401EC1B2204600F02A
:10125000BBFD2046FFF7BCFE2EB132A20221204684
:1012600002F0F4FC5BE04FF000080023082202A922
:10127000019803F072FD04980590BDF80C00ADF8DC
:101280001800BDF80E00ADF81A008DF81D80029808
:10129000082700F00300012802D0022818D032E00D
:1012A00002983B46860AC0F3C2008DF81C000298E3
:1012B00008A9C0F38315AA00019803F04EFD206928
:1012C000009005AB2A4608A9304603F08DFC1AE0D1
:1012D0000298850DC0F3C2008DF81C00082D01D2C4
:1012E0002E4600E008263B46324608A9019803F046
:1012F00034FD3744AD1B05AA314608A8236903F025
:1013000053FB002DEAD1019803F018FDE06800229C
:1013100001A94068006803F062FD0028A5D0012003
:1013200071E700004C6F7374206C6F6773202D2081
:10133000696E637265617365206C6F6720626163BB
:101340006B656E642071756575652073697A652EAD
:101350000A00000030B4406804682469A44630BC28
:1013600060472DE9FC41002604460127019601ABA8
:10137000012269462046FFF7EDFF0198002836D08C
:101380009DF800007F28F2D803F028FDA06841787E
:1013900021B101296FD002296ED18DE09DF8005056
:1013A0000D2D09D00A2D07D0D0F84821002161F376
:1013B0008D12C0F8482122E0D0F84811C1F38711FE
:1013C00029B1D0F84811C1F38711A94217D1D0F83B
:1013D000481165F38D11C0F84811A068817F41B1B3
:1013E0002046FFF713FE0221204600F0F5F8BDE885
:1013F000FC81C0F84461204600F0F2FCF3E7092DBF
:101400001ED004DC002DB2D0082D04D121E01B2D0C
:1014100012D07F2D26D0FEF7E5FF0068405D10F06A
:101420003E0FA4D02046FFF7D9FE30B39DF8001040
:101430002046FFF72DFD9AE7A1680120487096E746
:101440002046FFF7CBFE002891D0204600F0DEF8C2
:101450008DE72046FFF7C2FE002888D02046FFF720
:1014600071FC84E72046FFF7B9FE0028E3D0204650
:10147000FFF7C4FC7BE716E019E0A1689DF80020A7
:10148000887F7F28D7D2C87F0B18401CC87783F885
:101490002020A068C17F084480F82060A168887F70
:1014A000401C887763E79DF800105B2901D000217C
:1014B00000E0022141705AE7002141702046FFF709
:1014C0008DFE002893D09DF80000422840D01BDC00
:1014D00033287CD012DC312872D03228ABD1A168FD
:1014E00003204870A068D0F84811D0F8482127EAB6
:1014F000010161F30002C0F8482138E7342856D0D2
:10150000412898D1012124E0462853D01BDC4328F0
:1015100023D044288FD1204601F084FF054600786F
:10152000A979491C884202D1A978012987D00128CC
:101530004FF0010120462FD000F046FCA168C87F83
:10154000401EC87713E748283DD04C2889D1C9E709
:101550000021204601F0D0F809E7204601F062FFA3
:10156000054600786978884203D1A978EA789142E3
:1015700098D0697988424FF00101204606D100F0E9
:10158000B1FB6979204600F01FFC01E000F0F6FC99
:10159000A168C87F401CD4E700F0FCFC69792046B4
:1015A00000F0ECFCA068C17F491EC177DFE6A168AE
:1015B00003204870204600F0A1FBD8E607E0FFE7D3
:1015C000A16803204870204600F0C1FBCFE6A16867
:1015D0000320487046E700008268022911700CD190
:1015E0008268002182F820108268D1778268917722
:1015F00002A20321036802F029BB70472573000093
:10160000002801D0FEF772BF704700002DE9F04FAF
:1016100005460020A7B00746159006462090069084
:10162000A868817FC1F17F01C9B25FEA010970D06A
:10163000C27F00F12001A030FEF726FFA868002439
:10164000C17F084480F8A040FEF7CCFE21900168DD
:10165000A8680C23C27F0244D27F895CC0F8444151
:10166000AA6801F0010A07A916A8A03201F0B4FD8A
:101670000798FFF7C5FF00F0FF08A34617941894DA
:10168000169818B15044401EB0426CD8BAF1000F01
:1016900001D0002005E007A850F82600FFF7B0FFB2
:1016A000C0B28046002419A822460090641C17ABE3
:1016B0003146584600F02EFA179800286CD0016881
:1016C00007A8424650F8260001F01EFA0028EAD08A
:1016D00018987F1CF0B117980068FFF791FF0699E2
:1016E000C0B2884200D90690B9F1000F2ED022A8CE
:1016F000009018AB31465846159A00F00BFA17982F
:101700000168189801EB08020168002001EB08034A
:1017100016E08DE0601E209017980068FFF770FFBC
:10172000C0B20690A0EB080048450FDAC0B20CE04A
:1017300013F800C0614506D1401C10F0FF0010D026
:10174000115C0029F4D1814500D98146601E1590B5
:1017500017981890A7D266A20421284602F076FABC
:101760001AE0FF20EFE7002419A822460090641C2D
:1017700017AB3146584600F0CDF9ECB31798002866
:1017800056D0016807A850F82600FEF7B6FE0028DC
:10179000EAD11798D0F808B0BBF1000F09D017981C
:1017A00038B11699761CF6B201EB0A008642FFF4B6
:1017B00067AF002F3CD0012F43D000212846069A66
:1017C00004F0C2F9209C0DF11C0A19A822460090D1
:1017D000641C17AB3146584600F09CF917984246F6
:1017E00001685AF8260001F08FF940B117987F1E62
:1017F000069A0168284600E01DE004F0A5F9002FD4
:10180000E3D146A2032128462B6802F01FFAAB68F9
:1018100043A208212846203302F018FA284600F097
:1018200077FB18984A4601682846414400F010FAB0
:1018300027B0BDE8F08F2EA20421284602F006FA58
:10184000F6E79BF8000038B119A8009018AB3146B4
:101850005846159A00F05EF918980068FFF7D0FE18
:10186000404506D018984A4601682846414400F091
:10187000EFF92198A9680268C87F0B1893F8203007
:10188000D25CD20715D0897F8842D1D2284601F098
:10189000C9FD8478A868C17F491CC177284601F03A
:1018A000C1FD8078A0421FD10121284600F066FBCF
:1018B000BEE7D1F84801C00711D0D1F8480120F0A7
:1018C0000100C1F8480120212846FFF7E1FAA86885
:1018D000D0F8481141F00101C0F84811A8E72021D3
:1018E0002846FFF7D5FAA3E7284600F079FA9FE7E4
:1018F0005461622066756E6374696F6E3A20636F1F
:101900006D6D616E647320636F756E746572206FA8
:10191000766572666C6F7765642E0A000A2573001F
:1019200025730000002806D08868D0F8481141F0DF
:101930002001C0F84811704770B5044640680D4654
:1019400090F8280030B1A0680068FFF7B1F808B13E
:1019500008280CD1012685B1606902F055FC616848
:1019600000220831606902F00BFC08B1062070BD4E
:10197000606880F82960002070BD606890F82800D9
:1019800048B9074A0021A068FFF72EF861680028CF
:1019900081F82860F0D12046BDE8704004F088BA94
:1019A000FD60000070B5044640680D460260606846
:1019B00000224360606880F82820606880F8292051
:1019C000606820220830FEF75FFD2C61074A294637
:1019D000606902F0D5FB050005D1E06803F03CFC2E
:1019E000206903F039FC284670BD00002562000024
:1019F0001A60C0681A4603F069BB10B50446406916
:101A000002F002FCA0680068BDE81040FFF750B883
:101A10007CB51A60044600691A4603F097FB05007E
:101A200025D16069134A0178515C19B1001D03F09A
:101A3000EDFF02E00C3003F04DFEC0B9FF20009036
:101A400001236A4601A9206903F0CEFB78B900980A
:101A50000199C2B2606902F0C7FB0546606890F860
:101A6000290020B11DB92069009903F0AAFB28467E
:101A70007CBD00005C0000202DE9F8431E461546A1
:101A80008846074600241BE0786808EB04016B4693
:101A90000268D2F80CC02A46E047009804442D1A88
:101AA00070B9B868017803290AD000BFD0F848118E
:101AB0008906FBD5D0F8481121F02001C0F8481163
:101AC000002DE1D1002E01D000983060BDE8F883F0
:101AD00070B5084C050009D010342168002907D0E2
:101AE00008682060496828468847F6E70834F4E724
:101AF00070BD0000A4050020054A012120B1012885
:101B000005D19170FFF7E4BF51700020FAE77047EC
:101B1000A40500202DE9F05F1C460A9E15464FF0F3
:101B2000000959B180B3017839B34268314628467B
:101B300090473068D8B12660BDE8F09F1449154839
:101B4000A1EB0008B5EBD80F11D2DFF84CA00026AE
:101B5000834609E00BEBC607786801685AF8250050
:101B6000FEF7CBFC30B1761CB6EBD80FF2D3C4F83D
:101B70000090E1E778682060DEE7406800EB021043
:101B8000016809B11860D7E7FFE7C3F80090D3E711
:101B900038760000F8750000640100202DE9F0415E
:101BA00085680646002495F82000002811D0A0463C
:101BB000FEF718FC0746006804F1200104F1010457
:101BC000695CE4B2415CC90705D0002CF4D185F80A
:101BD0002080BDE8F081641E14F0FF040FD0A87FC0
:101BE000021B04F12000291805F12000521CFEF709
:101BF0004BFCB168887F001B8877B168C877B268F2
:101C00003D68937FD0181F300446002102E0491C34
:101C1000C9B2401E0778EF5DFF07F8D18442D8D0E3
:101C20005B1A203302F80380B268907F401A9077E5
:101C3000B168C877CDE710B5D0E90234D1E9022008
:101C4000D11AA04101D3012010BD002010BD000019
:101C50002DE9F0410446806815460F46827FC17F1A
:101C6000531A2A44DEB27F2A37D8002D35D00844D3
:101C700000F1200105F120021044721CFEF704FC63
:101C8000A0682A46C17F084439462030FEF7FCFB95
:101C9000A0682030FFF7B4FCA16811A28877A06883
:101CA000C17F431808212046203301F0CFFFA068F0
:101CB000C17F2944C177204600F073F818B9204647
:101CC00000F0EDFC10B1204600F08AF8002E04D0A0
:101CD0002046BDE8F04100F01BB9BDE8F0810000EE
:101CE00025730000002904D00A46006901A102F012
:101CF00097BA70471B5B25644200000070B505462B
:101D000001F090FB044600786178884203D1A07806
:101D1000E17888421AD0E178A078814204D9081A83
:101D2000C1B22846FFF7DEFF20786178884205D9E6
:101D3000401AC1B2284600F047F804E0081AC1B2C0
:101D4000284600F01BF9A868817FC17770BD70B587
:101D5000054601F067FB044601788079401C81420A
:101D600002D1A07801281BD0A078012804D9401EF8
:101D7000C1B2284600F00EF92078A179884206D930
:101D8000401A401EC1B2284600F01EF805E0081AAD
:101D9000401CC1B2284600F0F1F8A9680020C877BD
:101DA00070BD10B504460068FFF72AFC0146A06824
:101DB000C27F407E1144B1FBF0F200FB121008B16B
:101DC000002010BD012010BD002904D00A46006982
:101DD00001A102F025BA70471B5B25644400000096
:101DE000006901A102F01CBA0A0000002DE9FC47BD
:101DF000002604468DF8046080683546B146B0463A
:101E00008021A030FEF767FB4049206902F008FA04
:101E1000206902F012FA00276B46012201A9204630
:101E2000FFF798FA0098D8B19DF804001B2806D057
:101E3000A16891F8A0101B29EED152281FD0A268EA
:101E400008F1A001505408F1010000F0FF08B8F1BA
:101E5000090F0AD9A168042081F8A090BDE8FC8789
:101E60002A494FF6C0101031884700980028D3D176
:101E70007F1CBFB2B7F57A7FCED30D20EEE7A16805
:101E800008F1A0004A4601F80090A16891F8A1006D
:101E90005B2803D081F8A0200B20DFE702206FF041
:101EA0002F0309E005EB850503EB4505401C3D4488
:101EB000C0B2ADB2802808D200F1A007CF5D3B2FA1
:101EC000F0D1401CC0B2802809D30C20C6E700BF67
:101ED00006EB860603EB46063E44B6B2F1E700F198
:101EE000A007CF5D002FF3D1FA20FA2E01D9087593
:101EF00000E00E75FA2D02D9A168887501E0A0688E
:101F00008575A06880F8A0200020A7E7A1690000DF
:101F100070B5054601F086FA04468078E17888427B
:101F200001D1012600E000262846FFF73AFF18B944
:101F3000284600F0B4FB10B12846FFF751FF1EB150
:101F400060782178401A12E0E078A178401AC1B296
:101F5000284600F01FF820786178884206D9401A98
:101F6000C1B22846BDE8704000F008B8081AC1B2F6
:101F70002846BDE87040FFF727BF0000002904D0C5
:101F80000A46006901A102F04BB970471B5B25644A
:101F900043000000002904D00A46006901A102F0B4
:101FA0003FB970471B5B25644100000010B500215C
:101FB000024801F0C0FA80F3100010BD140C00209C
:101FC0004FF480328A400168C1F848230068C0F8A5
:101FD000082370474FF4A07202EB810189B200F030
:101FE0003AB92DE9F04105460E464FF4A07000EBDA
:101FF000860081B228684FF48034B440984622F0BD
:102000007F47C0F808432868C0F84843286803F0B1
:1020100049F9286800EB8600C0F840752868C0F8C8
:102020004443B8F1000F02D02868C0F80443BDE86B
:10203000F0810068D0F804057047000070B543795E
:10204000274C2A4D44F823204279231D03EBC2027A
:10205000254C1679234A121BD40846B168880826F5
:1020600002283AD3022000EB044021A133E00668A5
:102070000A88C6F8082590F904208978002A4FEAD2
:10208000411104DB02F1E02282F8001405E002F0C5
:102090000F0202F1E02282F8141D90F904100122CF
:1020A000002909DB01F01F0602FA06F6490989003A
:1020B00001F1E021C1F800614179002603EBC10183
:1020C0000A71417943F831006888032805D3032059
:1020D00000EB04400FA102F063FC304670BD00002D
:1020E000B40000209876000058760000A40100207B
:1020F00052544320696E7374616E636520616C7223
:102100006561647920696E697469616C697A656476
:102110002E0000005254433A20696E697469616C64
:10212000697A65642E00000090F90400002809DB3C
:1021300000F01F02012191404009800000F1E020E1
:10214000C0F8001270470A46022100F07BB84FF435
:10215000827100F080B8006801210160704700685A
:102160000121416070472DE9F05F07460C464FF4AE
:10217000A07000EB84001FFA80FA38684FF48036B4
:10218000A6409B4622F07F45C0F848633868C0F8F7
:1021900008633868D0F8048500EB8402D2F84095D3
:1021A000C2F840855146386803F07CF8A9EB080076
:1021B00020F07F40012806D1102003F013F951468A
:1021C000386803F06FF83868D0F80485C0F84463C5
:1021D000A5EB080121F07F413868012900EB84005C
:1021E00010D0C0F840553868D0F804156FF07F4C17
:1021F0006A1A521E22F07F42ACEB0B03934217D3B4
:1022000062B118E06D1CC0F84055102003F0EAF8E8
:102210003868D0F8040540450AD10CE000EB840092
:102220006D1CC0F840553868D0F80405884202D0CB
:102230000D20BDE8F09F01223146384600F002F83B
:102240000020F6E70368C3F84413002A02D00068B0
:10225000C0F80413704710B5006842581AB103F073
:1022600021F8012010BD002010BD000030B44FF057
:10227000805250690C49401E886012690B4C5043D3
:10228000C1E900020A4D0246C8601368A34208D0A3
:10229000AB4203D102F58072CA60F6E730BC02F0AF
:1022A0006DBD30BC7047000094050020A55A5AA5AA
:1022B00000005AA51CB5012905D08168D1F8481144
:1022C000C1F3400131B102B00022BDE81040114617
:1022D00001F0E4BC536804A1CDE90013136808A21F
:1022E000022101F0B3FC1CBD20756E6B6E6F776E22
:1022F00020706172616D657465723A2000000000A3
:1023000025733A257325730D0A00000010B5034CA0
:10231000206802F033FD2068E06010BD94050020C5
:102320002DE9F043194D0746194E2C68E86891B025
:10233000A04224D12068B04221D016A205E0206836
:10234000B04209D0484507D01AA20421384601F00E
:102350007DFC11B0BDE8F0830020414604EB800213
:1023600012790A54401CC0B23E28F7D96B4617A216
:102370000821384601F06AFC04F5807402E0DFF8B9
:102380005490E846E868A042D9D2E2E794050020DC
:10239000A55A5AA5506C656173652077726974659A
:1023A00020736F6D657468696E67206669727374F7
:1023B0002E0D0A00436F727275707465642064613B
:1023C000746120666F756E642E0D0A0025730D0A08
:1023D0000000000000005AA52DE9F8431646074604
:1023E000022906D233A00090136838A24FF00201F0
:1023F00006E00AD937A00090136834A24FF0040118
:10240000384601F023FCBDE8F8837068FEF76EF8EB
:1024100005463E2808D901B03846BDE8F0433E23C2
:1024200037A2022101F012BC444CDFF81481E068AD
:1024300001684A1C1CD0414503D042A24FF0020162
:102440000AE015D1226800F50071A1EB0201B1F597
:10245000805F06D946A204213846BDE8F84301F062
:10246000F5BB4F4902F0A2FCE06800F58070E06027
:1024700074684C4E0346021D012030604A486D1CB2
:1024800001680029FCD0002106E0675C42F8217059
:102490000768002FFCD0491CA942F6D30021316007
:1024A00001680029FCD041461846BDE8F84302F017
:1024B0007DBC00002062616420706172616D657492
:1024C000657220636F756E740D0A000025733A25DE
:1024D000730000002062616420706172616D657438
:1024E000657220636F756E74202D20706C6561734A
:1024F00065207573652071756F7465730D0A000032
:10250000546F6F206C6F6E6720737472696E672EE4
:1025100020506C65617365206C696D697420656E0F
:10252000746572656420737472696E6720746F20BD
:1025300025642063686172732E0D0A0094050020E3
:10254000A55A5AA5466C61736820636F72727570E4
:102550007465642C20706C656173652065727261AE
:1025600073652069742066697273742E0000000020
:102570004E6F7420656E6F75676820737061636558
:10258000202D20706C656173652065726173652014
:10259000666C6173682066697273742E0D0A0000A0
:1025A00000005AA504E5014000E401402DE9F05F78
:1025B00017460E00814670D013B1F9B2FFF7DEFC6A
:1025C0000024FDF70FFF8246006800E0641C315DC7
:1025D000415CC907FAD100253046FFF711F8D9F858
:1025E0000810001B4A7ED11B814228D306EB040849
:1025F00005E000BF18F805100A290CD06D1C8542B3
:10260000F8D33119D9F8100001F00AFE4846BDE8A8
:10261000F05FFFF7E5BBD9F8100001F00EFE414670
:1026200000232A464846FFF727FA2C444846641CF4
:10263000FFF7D6FBF9B24846FFF7A0FCE1E78B466F
:10264000DAF8001006EB040818F805000B5CDB074D
:1026500002D0AB460A2804D0E819904201D26D1C82
:10266000F2E7D9F8100001F0E8FD414600235A4690
:102670004846FFF701FA5C44DAF8000000E0641C09
:10268000315D415CC907FAD14846FFF7A9FBF9B2B1
:102690004846FFF773FC9EE7FFE7BDE8F09F10B5E3
:1026A00004460068FEF7ACFF0146A068827F407ECA
:1026B0001144B1FBF0F200FB121008B1002010BD74
:1026C000012010BD10B50B48FFF7B3FC094A083ACA
:1026D000D2E90434C018D2E9063244F10001C31A29
:1026E00071EB020204D24FF08072801841F10001B8
:1026F00010BD000080000020FEB5002604460096B4
:10270000019602968068E9B3D0E950128A4272D0ED
:10271000D0F83C0100286ED02046FFF718FBA068D7
:10272000D0F84451002D69D000230922694628467B
:1027300002F013FBA1689DF808500098C1F844010D
:10274000A06800230922D0F84401694602F005FB85
:10275000A1689DF808200923D1F844012031521CBA
:1027600002F0FBFAA1689DF80800C877A1689DF8FF
:10277000080088779DF80800A84202D22046FEF79C
:1027800027FC00E00BE0A3682BA2082120462033A1
:1027900001F05CFA2046FFF704FB68BB43E0D0F889
:1027A0004401002847D02046FFF7D1FAA068002353
:1027B0000922D0F84401694602F0CFFAA0680199D5
:1027C000C0F84411A0680029857FB9D1A030FEF778
:1027D00017FF0028A06805D000F1A0012030FDF708
:1027E0009AFE01E080F82060A0682030FEF708FF24
:1027F0008DF80800B6E71EE01AE0FFE72030FEF78C
:10280000FFFE10F0FF05A068D0F83C11C0F844119D
:10281000A06805D000F12001A030FDF77CFE8FE715
:1028200080F8A0608CE72046FFF739FF002802D02F
:102830002046FFF7D5FAFEBD25730000FEB50D4614
:10284000816804460026D1F83C0138B300230922F0
:10285000694602F082FA0195A06800230922D0F8A7
:102860003C01694602F081FA0196A068D0F83C115B
:102870000091807F8DF80800A068C0F83C510023CB
:1028800009226946284602F070FAA1680923284601
:102890008A7F2031521C02F068FAFEBDC1F83C511B
:1028A000A068C0F8405100960196A068807F8DF81E
:1028B0000800E4E7FEB504468068D0F84061002EC9
:1028C00028D0002309226946304602F046FAA16862
:1028D00001980025C1F84001009501952B46092279
:1028E00069463046029502F040FA304602F007FA97
:1028F000A168D1F8400170B100230922694602F0B5
:102900002CFA0095A06800230922D0F840016946FE
:1029100002F02BFAFEBDC1F83C51FEBDFEB50446E7
:1029200080682030FEF76CFE10F0FF05A0684FF0C5
:102930000006C0F8446133D0A068D0F83C01E0B193
:1029400000230922694602F008FA9DF80820AA42ED
:1029500013D1A068092300F1A001D0F83C01521C5A
:1029600002F0FBF9A06800F1A0012030FDF7C5FDE1
:102970000028A06880F8A06012D000260A352946F9
:10298000606902F08CF90100204604D003B0BDE874
:10299000F040FFF753BFFFF78DFF761C082EEED3F4
:1029A000FEBD00002DE9FC5F0E008346DDE90C470B
:1029B000C6F1000098469246814600D4084601259B
:1029C00003E000BF90FBFAF06D1C5045FADAA84511
:1029D00000D9454624B1002E01DB780700D5641EDE
:1029E000B80702D5B8F1000F0AD0F80708D13CB1FA
:1029F000A54205D220215846641EFEF77FF9F6E76E
:102A0000002E02DA4E462D2102E0780703D52B2155
:102A10005846FEF773F907F0030002280BD1B8F10E
:102A2000000F08D13CB1A54205D230215846641EA2
:102A3000FEF764F9F6E7CDE90047434652463146D2
:102A4000584603F0A5FDBDE8FC9F000070B50D469B
:102A5000044600684FF4887102F06AFC4FF49071EC
:102A6000206802F065FC4FF49271206802F060FC6F
:102A70004FF4A271206802F05BFC4FF4AC71206847
:102A800002F056FC20681249C0F804132068690758
:102A900040F30730090E002804DB00F1E02080F845
:102AA000001405E000F00F0000F1E02080F8141D94
:102AB000206840F30730002809DB00F01F020121E5
:102AC00091404009800000F1E020C0F8001170BD85
:102AD00010034200024600201268530713D502F08B
:102AE0000300012802D002280CD105E0C2F38310B4
:102AF0000B68801C184404E00223086803EB925220
:102B0000104408600120704710B5FDF70DFD08B1B5
:102B1000002010BD012010BD0268134602E08A4269
:102B200004D01268002AFAD10B60016070470000DF
:102B3000014B00F0C1BD0000FD2C0000014B00F076
:102B4000BBBD0000C92E0000014B00F0B5BD000068
:102B5000D12E0000014B00F0AFBD0000B52F0000EA
:102B60007CB514460546012902D001F0D5F938B1EB
:102B700002B02846BDE870400022114601F08EB830
:102B8000616805A0CDE9000109A202212846236859
:102B900001F05CF87CBD000020756E6B6E6F776E87
:102BA00020706172616D657465723A2000000000EA
:102BB00025733A257325730D0A0000002DE9FC41A9
:102BC000074601F0A9F938B102B03846BDE8F04136
:102BD0000022114601F062B81248134E801B05090D
:102BE00000241AE006EB0410C2681179FF2903D013
:102BF000527942B10DA207E083680EA2082138463F
:102C000001F024F808E013A2CDE90021836814A2A2
:102C10000821384601F01AF8641CAC42E2D3BDE842
:102C2000FC8100005876000038760000656E616215
:102C30006C65640025730D0A092D20537461747549
:102C4000733A2064656163746976617465640D0A22
:102C50000D0A000064697361626C65640000000025
:102C600025730D0A092D205374617475733A20255C
:102C7000730D0A092D2049443A2025640D0A0D0AD6
:102C80000000000010B5044601F046F930B12046BE
:102C90000022BDE81040114601F000B82046BDE812
:102CA000104002A2022100F0D1BF00004E6F74203C
:102CB000737570706F727465642E0D0A00000000E9
:102CC00010B5044601F028F930B120460022BDE8D5
:102CD0001040114600F0E2BF2046BDE8104002A2BD
:102CE000022100F0B3BF00004E6F74207375707046
:102CF0006F727465642E0D0A000000002DE9FF4F0D
:102D0000C86881B01D46007917004FF0000600909A
:102D100057D0072245A12868FDF706FC78B10822A4
:102D200044A12868FDF700FC00282FD02B6843A29F
:102D3000019805B00221BDE8F04F00F087BF012FD8
:102D400002D0022F08D008E0019805B041A2BDE8EA
:102D5000F04F022100F07ABF0126DFF81081002435
:102D60000A2258F824106868FDF7DEFB10B1641CD5
:102D7000052CF5D3052C06D004F0FF090224002E03
:102D800051D0002419E03AA26B68D1E7012F4FF02F
:102D90000009F6D0012446E04A462146009800F09A
:102DA00007FB48B90021204601F0FCFE034638A28B
:102DB0000221019800F04AFF641C01F09DFEA04230
:102DC000EAD805B0BDE8F08F4FF0000A55F824B0FE
:102DD00001F092FE8046002609E00021304601F015
:102DE000E1FE20225946FDF79FFB58B1761C46456F
:102DF000F3D3464508D04A465146009800F0D8FA29
:102E000030B10FE0B246F4E755F8243029A205E0CE
:102E10000021504601F0C6FE03461DA20221019882
:102E200000F014FF641CBC42CED3CAE7656E616239
:102E30006C65000064697361626C6500556E6B6E51
:102E40006F776E206F7074696F6E3A2025730D0A6C
:102E50000000000042616420706172616D657465FC
:102E60007220636F756E742E0D0A0000E80000205A
:102E7000556E6B6E6F776E207365766572697479C7
:102E8000206C6576656C3A2025730D0A0000000001
:102E90004C6576656C20756E617661696C61626CFB
:102EA0006520666F72206D6F64756C653A202573BE
:102EB0000D0A0000556E6B6E6F776E206D6F647536
:102EC0006C653A25730D0A00C96801204871704786
:102ED000C968002048717047704730B41346C46811
:102EE0000A46214630BCFFF709BFC0680121C0680F
:102EF00041717047C0680021C0684171704730B4AB
:102F00001346C4680A46214630BC00F053B800009E
:102F10002DE9FF410026244800F0F1FA2248001F65
:102F2000074600F0ECFA214C2149A06800900D689A
:102F300000E000986946284004EB80000C30FFF761
:102F4000C9FD0028F5D101AA009901EA050304EBA7
:102F50008303491CDB6842F82030401C00910228A2
:102F6000F2D3019800F0030001280BD0022810D101
:102F70000198032101EB90500099BDF80A6001EB24
:102F8000900005E00198BDF80A60C0F38310084482
:102F90000090384600F0B0FA08B10098A06004B084
:102FA0003046BDE8F0810000100C0020F80700203A
:102FB000E40000202DE9FE4F8846824601F09CFD8A
:102FC0000746D8F80C00407920B922A202215046C9
:102FD00000F03CFE24A327A20821504600F036FE54
:102FE0002CA20821504600F031FE00242DE000BF45
:102FF000D8F80C0001231A4605792146284601F02D
:1030000085FD8146002301222146284601F07EFDF0
:103010000546032801D2064600E00326012120468A
:1030200001F0C0FD0346AE4201D22AA200E028A270
:10303000294850F8261050F829008DE8070027A2EB
:103040000821504600F002FE641CBC42D0D3BDE80B
:10305000FE8F00004C6F6773206172652068616CA1
:10306000746564210D0A00006D6F64756C655F6E98
:10307000616D6500252D343073207C20637572727C
:10308000656E74207C206275696C742D696E200DEC
:103090000A0000002D2D2D2D2D2D2D2D2D2D2D2D0A
:1030A0002D2D2D2D2D2D2D2D2D2D2D2D2D2D2D2D50
:1030B0002D2D2D2D2D2D2D2D2D2D2D2D2D2D2D2D40
:1030C0002D2D2D2D2D2D2D2D2D2D2D2D2D2D0D0A73
:1030D000000000002A000000E8000020252D343008
:1030E00073207C20252D3773207C20257325730DBC
:1030F0000A0000008AB04FF48041002001F0ACFCCF
:1031000008B1FDF75FFCFDF77FFC08B1FDF75AFC45
:1031100000F0F4FF002420B1852802D0FDF752FC16
:1031200002E0002001F008F8FFF7A0F820221D4976
:1031300001A8FDF7A9F906200190082002900320BC
:103140000090184801238DF818401A4601A9183834
:1031500000F0E8FE08B1FDF735FC1248183800F021
:1031600099FF08B1FDF72EFC0F4D6888032811D395
:103170000E480F49401AC108052000EB01400446E3
:103180000CA101F00DFC6888032803D320461149E7
:1031900001F006FC01F0CAFA0248183800F040FFBE
:1031A000F8E7000030670000BC010020C87600008E
:1031B00058760000466C61736877726974652065A3
:1031C00078616D706C6520737461727465642E0D26
:1031D0000A000000446C00002DE9FF4F4FF000088A
:1031E00081B014468B468146C246C0F800802578DF
:1031F000002D71D0FDF7F6F800900068405DC00723
:1032000002D004F801AB84E0D9F800008300401C30
:10321000C9F800004BF8034015E02678002E78D05E
:10322000B8F1000F05D1222E10D0272E0ED05C2E23
:103230001ED0B04514D12046FEF7E2F90246611CCB
:103240002046FDF721F94FF00008E6E72046FEF79B
:10325000D7F90246611C2046FDF716F9B046DCE7B7
:10326000B8F1000F50D05C2E61D16078404508D194
:103270002046FEF7C5F90246611C2046FDF704F919
:1032800055E030281CD100270225605DA0F13001F7
:10329000072906D86D1C41EAC701EDB2CFB2052D52
:1032A000F3D3022D0CD92046FEF7AAF9421B61196F
:1032B0002046491E921CFDF7E7F804F8017BACE7B5
:1032C00078281ED100270225605DA0F13001092970
:1032D00003D841EA07100DE021E0A0F161010529C2
:1032E00001D8573804E0A0F14101052907D8373843
:1032F00040EA07106D1CEDB2C7B2042DE4D3022DD5
:10330000D1D8B8F1000F12D100980068805DC007D5
:103310000DD0D9F8001004988142FFF468AFD9F8B5
:10332000002040464BF822A005B0BDE8F08F641C99
:1033300073E72DE9F047C5881E1DB6FBF5F78946F2
:10334000B6FBF5F1044605FB176C40791668684337
:10335000DDF820A0F718001F874200D9C61A1660B2
:1033600001E02468491E0029FBD1A5EB0C07884623
:10337000B74216D818E004EB0C00001D09EB080357
:10338000BAF1000F3A4602D00146184600E019464D
:10339000FDF77AF82468F61B4FF0000CB844B542EC
:1033A00001D9374600E02F46002EE4D1BDE8F08772
:1033B00070B5144600230D4606461A4601F0A6FBDA
:1033C000844201D9002070BD22462946304601F0D2
:1033D000C1FB012070BD000030B5024651B101F0C3
:1033E0008BFB0021074C08E034F821301568AB4214
:1033F00002D11160002030BD491C8142F4D3052068
:1034000030BD00008401002010B50C460021E160B1
:1034100061600349A160012101F0C4FB206010BD7F
:10342000506A000070B58468006804F11405FEF766
:10343000E7F8C1B2A971E07F6A790844B0FBF2F302
:1034400002FB13035B1C2B70E07F0844B0FBF2F31C
:103450005B1CAB70A07F0844B0FBF2F35B1CEB700D
:10346000A07F0844B0FBF2F102FB1101491C697016
:10347000284670BD10B531B1B2FBF3F403FB142440
:103480001CB1092010BD0E2010BD0160002141605B
:1034900081608281C381084610BD70B50C46054627
:1034A000FCF7B8FE002802D021882868084470BDC7
:1034B00010B50A8849888A4203D1FCF7EDFE012045
:1034C00010BD002010BD70B50C460546FCF7C7FEC8
:1034D000002802D061882868084470BD10B50A88A9
:1034E00049888A4203D1FCF7B1FE012010BD0020BB
:1034F00010BD002100F00FB8002100F012B801212A
:1035000000F01EB8012100F011B808B56A46FCF7BA
:1035100018FF009808BD08B56A46FCF7F8FE009849
:1035200008BD08B56A46FCF7F2FE08BD08B56A4654
:10353000FCF7E0FE08BD08B56A46FCF7CFFE08BD03
:1035400008B56A46FCF7D6FE009808BD08B56A467D
:10355000FCF704FF009808BD70B504460025284616
:10356000FDF7C3FA21686268086890420ED9401ED0
:1035700008600178238BE26801FB0325227A216829
:10358000101AC0B20A79824200D208710020FDF7F9
:10359000AEFA284670BD70B505460C460020FDF712
:1035A000A4FAE868298B201AB0FBF1F12A681068A8
:1035B000431C13600170BDE870400020FDF797BA0E
:1035C00010B530B1017A42680368891AC9B21A602D
:1035D00006E00E2010BD03681A68541C1C601170B0
:1035E000491EC9B2F7D2006800210171084610BD1A
:1035F0002DE9F0470646806888B0D0F84801C0F34E
:10360000400038B108B03046BDE8F047002211460E
:1036100000F044BB012907D908B03046BDE8F047A7
:103620001DA2022100F012BB2049DFF884A0A1EB0B
:103630000A001C21B0FBF1F5002428E0C4EBC40112
:103640000AEB81034FF000091F68D3E901103A79B2
:103650003F78411AB3F81880C01B5B69C0B2642779
:1036600012FB07F7B7FBF1FC642710FB07F7B7FB6A
:10367000F1F7CDE90621CDE9041CCDE902700D4A30
:1036800008213046CDE9008900F0E0FA641CAC4224
:10369000D4D308B0BDE8F0874261642061726775D9
:1036A0006D656E7420636F756E740000087700009E
:1036B000D0760000CC6D00002DE9FF5F8B461648E8
:1036C00014499A46091A0F09914652F8046C0025CC
:1036D000804607E008EB05143046A168FCF70DFFB3
:1036E00018B16D1CBD42F5D30BE0210009D0009844
:1036F00004B04B465A46D446BDE8F04F5DF804EBA3
:103700006047009804B03346BDE8F05F03A2022191
:1037100000F09CBA5876000038760000496E766159
:103720006C6964206261636B656E643A2025730D79
:103730000A00000070B515468268D2F84841C4F30B
:10374000400424B11A46294600F0A8FA05E031B138
:10375000536804A2022100F079FA012070BD002014
:1037600070BD000025733A2077726F6E672070611C
:1037700072616D6574657220636F756E740A000006
:1037800010B5044602290CD1A068D0F84801C0F356
:10379000400030B120460022BDE81040114600F044
:1037A0007DBA064A06A1206900F03AFD034A206965
:1037B000BDE81040093202A100F032BD9D69000051
:1037C00025730000012907D0022909D18168D1F8A9
:1037D0004811C1F3400119B10022114600F05EBA50
:1037E00001A2022100F032BA506C6561736520734A
:1037F000706563696679206120737562636F6D6DB2
:10380000616E642E0A0000001CB5012905D0022952
:103810000BD014D94FF0010112E002B04FF00002BA
:10382000BDE81040114600F039BA536808A1CDE94F
:10383000001313680CA2022100F008FA1CBD00213D
:1038400002B00023BDE810401A46FFF773BF000026
:1038500020756E6B6E6F776E20706172616D65742E
:1038600065723A200000000025733A257325730A1B
:103870000000000010B50446012901D0012100E03C
:10388000002100231A46FFF755FF002809D1A1683F
:10389000C1F83801E06840680068BDE8104001F0F8
:1038A000FDBA10BD3EB50546012901D0012100E059
:1038B000002100231A46FFF73DFF002818D1E868D1
:1038C00040680468204601F0E6FAC0B2642110FBAB
:1038D00001F2A168B2FBF1F2D2B20092CDE901018E
:1038E000A86804A20021D0F83831284600F0AEF9CB
:1038F0003EBD00004C6F7374206C6F67733A2025D7
:10390000750A4D6178206C6F67207175657565204B
:103910007574696C697A6174696F6E3A20257525D2
:1039200025205B25752F25755D0A00007CB51446A2
:103930000546012903D0022908D0012107E002B081
:103940000022BDE87040114600F0A8B90021002314
:103950001A46FFF7EFFE002809D1616804A0CDE9FF
:10396000000109A202212846236800F06FF97CBDFE
:1039700020756E6B6E6F776E20706172616D65740D
:1039800065723A200000000025733A257325730AFA
:103990000000000010B50446012901D0012100E01B
:1039A000002100231A46FFF7C5FE002806D1A068B3
:1039B000D0F8481121F00401C0F8481110BD10B52D
:1039C0000446012901D0012100E0002100231A460C
:1039D000FFF7B0FE002806D1A068D0F8481141F0EA
:1039E0000401C0F8481110BD7CB514460D460646CA
:1039F000022901D9012100E0002100231A46FFF726
:103A000099FE002811D1022D05D03046FDF7E6FBC6
:103A100060B10BA30BE061680AA0CDE900010FA221
:103A200002213046236800F011F97CBD0EA302B0DC
:103A30003046BDE870400DA2002100F007B900003B
:103A40006F6E000020756E6B6E6F776E2070617206
:103A5000616D657465723A200000000025733A2597
:103A60007325730A000000006F6666004563686F87
:103A7000207374617475733A2025730A0000000086
:103A800010B50446012901D0012100E000210023E6
:103A90001A46FFF74FFE002806D1A068D0F848115B
:103AA00021F00801C0F8481110BD10B504460129E5
:103AB00001D0012100E0002100231A46FFF73AFE61
:103AC000002806D1A068D0F8481141F00801C0F8DC
:103AD000481110BD7FB50446012901D0012100E045
:103AE000002100231A46FFF725FE002827D1A068F1
:103AF0000026D0F84051F5B101E0082E1BD200237A
:103B0000092201A9284601F028F99DF80C20A16896
:103B100009232846A031521C01F01FF9A068334642
:103B2000A0300090029D761C05A20021204600F0E6
:103B30008DF8002DE1D1A168002081F8A0007FBDA3
:103B40005B2533645D2025730A0000007CB51546B3
:103B50000446012903D0022917D9012116E0A168E2
:103B600001F11802193102F055FA00281ED0A1689F
:103B700050200FA24876A1681820087602B020468F
:103B8000BDE87040042100F061B8002100231A460E
:103B9000FFF7D0FD002809D1696814A0CDE9000124
:103BA00018A2022120462B6800F050F87CBD0000CE
:103BB0004E6F20726573706F6E73652066726F6DE5
:103BC00020746865207465726D696E616C2C20616B
:103BD0007373756D65642038307832342073637286
:103BE00065656E2073697A650A00000020756E6B4A
:103BF0006E6F776E20706172616D657465723A20C8
:103C00000000000025733A257325730A00000000A8
:103C100010B50446012901D0012100E00021002354
:103C20001A46FFF787FD00280AD1064A06A1206937
:103C300000F0F6FAA16850204876A16818200876AE
:103C400010BD0000B6690000257300000FB438B540
:103C5000044607A80090A068D0F84821520717D55D
:103C6000C27E8A4214D0B0F81B50204602F008FDF4
:103C70006A462069069900F0ECFAE9B2204602F0A3
:103C8000FFFC290A204602F0DDFC38BC5DF814FB7D
:103C90006A462069069900F0DCFAF6E72DE9F04F54
:103CA000804689B017460C468648FDF7A9FC0546B4
:103CB00084483638FDF7A4FC281A1FFA80F9814899
:103CC00081A223380090D8F80800082143684046B4
:103CD000FFF7BCFFD8F808004068FDF791FC0546E7
:103CE00078482338FDF78CFC284482B2D8F80800C5
:103CF000002381684046FEF759FC75A2002140462A
:103D0000FFF7A4FF0FB304B300251CE005EB450A41
:103D100004EB8A0BDBF80400FDF772FC064654F84E
:103D20002A00FDF76DFC311849450BD9DBF804007A
:103D3000FDF766FC064654F82A00FDF761FC3044A6
:103D40001FFA80F96D1CBD42E0D35E483638FDF79E
:103D500057FC4844801C1FFA80F95A4800904B4693
:103D60005EA208214046FFF771FF09F1030086B209
:103D70000790002332465BA14046FEF717FC002C5B
:103D800052D000254EE000BF05EB450A04EB8A0B3C
:103D900054F82A00DBF804306BB350B3494956A2FB
:103DA0003639CDE9001008214046FFF74FFF09F1F1
:103DB00002000090DBF80400FDF722FC064654F8F0
:103DC0002A00FDF71DFC06443E483638FDF718FC76
:103DD00031180098401A801EC1B24046FEF7CEF856
:103DE0003A224849D8F8100000F01AFA0098401C0E
:103DF0000AE0009301E040B100904B4637A2082151
:103E00004046FFF723FF079886B2DBF8081029B178
:103E1000002332464046FEF7C9FB02E04046FDF76C
:103E2000DFFF6D1CBD42AFD3D8F80800C068002882
:103E300045D0814600200446064603AD0290324636
:103E4000761C02AB012148460095FDF763FE0298FF
:103E500050B10068FDF7D4FBA042F0D90298006889
:103E6000FDF7CEFB84B2EAE7012E28D026A200217E
:103E70004046FFF7EBFE00263246761C02AB0121DE
:103E800048460095FDF746FE0298002817D0A11C71
:103E90008FB2006800903B4610A208214046FFF711
:103EA000D5FE0298FF1CBAB2416821B100234046FA
:103EB000FEF77CFBE0E74046FDF792FFDCE709B048
:103EC000BDE8F08FBC690000257325730000000079
:103ED0004F7074696F6E733A0A0000002020252D20
:103EE0002A733A0053686F7720636F6D6D616E645B
:103EF0002068656C702E00002020257325732573C3
:103F000000000000CC0F0000537562636F6D6D619F
:103F10006E64733A0A0000008068D0F84801C0F36C
:103F2000400070472DE9F0411E460546069F00F00F
:103F300013F804000DD166B13946E86800F0D2FAF2
:103F4000002802DA0420BDE8F081E8680121C06899
:103F500041712046F7E7000070B50446C068154679
:103F6000234640688460606802681668254AB04746
:103F7000002845D1606900F0DFFE002840D1A1682B
:103F8000C1F83C01A168C1F840014FF4A671A068D6
:103F9000FCF7A1FAA068D0F8481141F02001C0F860
:103FA0004811A068D0F8481165F38201C0F84811A3
:103FB000A068D0F8481141F00801C0F84811A16884
:103FC0000120124B0870A1685020114A4876A16860
:103FD0001820087600210C48D21A06E003EBC10431
:103FE0006468246840F82140491CB1EBD20FF5D336
:103FF000072A04D9D108074B0422FCF7F7F900205F
:1040000070BD00002519000064010020F875000053
:10401000387600000D6000000023FDF72DBD000084
:1040200010B504468068102100F5A470FFF788FAE7
:10403000A0680078F8B101281DD002281BD12046C5
:10404000FDF78FF900212046FDF7CEF898B110A2B8
:10405000032120462368FFF7F9FD2046FDF7BEF84F
:1040600048B1A3680AA2082120462033FFF7EEFDDD
:104070002046FDF74DFF206900F0DFF8A068BDE89D
:1040800010406FF0100100F5A470FFF744BA000073
:104090002573000070B5044680680078012801D0BF
:1040A000082070BD606801688A680021904705009B
:1040B0000FD10821204602F0E3FA0121204602F048
:1040C000C1FA05A1206900F0ABF802212046FDF7F6
:1040D00083FA284670BD00000A0A000000F1804003
:1040E0000068002800D00120704708B500F180402A
:1040F000002101600068009008BD000070B50C4C04
:104100000125207808B185260BE00020A0606060C2
:104110002061E060074801F02FF9064601F016F92A
:10412000257001F00BF900B1A570304670BD00009C
:10413000A4050020F91A000070B5104D0446A878B7
:1041400038B114B16168012088470020FCF7CDFC2C
:104150000CE00020FCF7C9FC24B1084821461030CF
:10416000FEF7DAFCE86808B901F016F9E868401CC7
:10417000E860BDE870400020FCF7B9BCA405002051
:10418000F0B505460478154889B0164640F8242055
:10419000124A0869121DA2F1080742F82400487F5C
:1041A000385520226846FCF76FF904942878385C6B
:1041B00048B10EB10A4A00E000226946281D01F00C
:1041C00001FB09B0F0BD0EB1064A00E000226946CD
:1041D00005F10C0001F040F9F3E700006000002059
:1041E0004D6400009562000030B40378054CE35C38
:1041F0001BB130BC001D01F0B3BB30BC0C3001F072
:1042000015BA00005C0000200178044A515C11B12D
:10421000001D01F009BC0C3001F06CBA5C000020FC
:104220000FB408B50399002904D004AA00926A4685
:1042300000F00FF801B05DF814FB10B58268044679
:10424000002A05D0D4E90403216898470020A06023
:1042500010BD2DE9FC4791460C00804676D014F83D
:10426000011B39B125290ED04046FCF747FD2078C7
:104270000028F4D198F80C00002867D04046BDE82B
:10428000FC47FFF7DABF0020012221782B291BD041
:104290002D2902D0302908D102E040F0010001E0D0
:1042A00040F00200641C002AEFD100252A290ED01C
:1042B0002178A1F130020A2A11D205EB850201EB27
:1042C0004205641C303DF1E740F00400EAE7D9F80C
:1042D00000100B1DC9F800300968641C0D442178DA
:1042E00000232E290BD114F8011FA1F130020A2A54
:1042F00005D203EB830201EB4203303BF3E76C2969
:104300000DD068290BD0692921D00BDC252918D0C4
:10431000582931D063290ED0642915D117E014F83B
:10432000011FECE7702969D0732932D075291BD0A1
:10433000782909D120E0D9F80000011DC9F8001042
:1043400001784046FCF7DAFC641C90E76CE0D9F891
:1043500000100A1DC9F800200968CDE900500A22A2
:104360004046FEF71FFBEFE7D9F800100A1DC9F819
:10437000002009680A2206E0D9F800100A1DC9F8D1
:10438000002009681022CDE90050404602F000F9F3
:10439000DAE7D9F8001000270A1DC9F800200E68D6
:1043A000C00705D112E04046761C7F1CFCF7A6FC36
:1043B00031780029F7D104E0202140466D1EFCF73A
:1043C0009DFCBD42C0D9002DF6D1BDE74EB13046AF
:1043D000FCF78CF8074604E0202140466D1EFCF7F0
:1043E0008DFCBD4206D9002DF6D103E04046761C77
:1043F000FCF784FC31780029F8D1A5E7D9F8000052
:10440000011DC9F80010056830214046FCF776FC14
:1044100078214046FCF772FC08200021CDE900011C
:10442000034610222946B0E7BDE8FC8770B541EA93
:104430004201DDE904564FF0A04441EA830141EA1C
:10444000052104EB800041EA0641C0F8001770BD69
:1044500070B541EA4201DDE904564FF0A04441EA5B
:10446000830141EA052104EB800041EA0641C0F8DE
:10447000001770BD1CB5002100910B46012201916F
:10448000FFF7D4FF1CBD1CB5002100910B46012293
:104490000191FFF7DDFF1CBD1CB500220B46009209
:1044A00011460192FFF7C2FF1CBD1CB500220B464E
:1044B000009211460192FFF7CBFF1CBD1CB50021F5
:1044C00000910B46012201911146FFF7AFFF1CBD81
:1044D0001CB5002100910B46012201911146FFF706
:1044E000B7FF1CBD2DE9F041054620480E460024CB
:1044F000D0F8103419460AE0CA681179A14205D1F2
:10450000641C0A2CF6DB4FF0FF342BE01168002905
:10451000F2D1611C26D0E9680C71D0F8101459B1A1
:10452000C968EA6809681160D0F81004C0680560BD
:104530000027DFF83C8011E0C0F81054E968002043
:104540000860F5E708EBC700C279B24200D33246F3
:10455000E8683946007900F0FDFA7F1C00F0CCFADB
:10456000B842EFD82046BDE8F0810000F8070020EF
:1045700058760000406801218068FCF735BE10B510
:1045800040688468606801688A680121904718B1B2
:104590000420A168087010BD0320FAE72DE9F3415B
:1045A0004468A668B068007804281ED0032807D0A5
:1045B000002501A9206800F07CFC85F0010709E0D6
:1045C0000125F6E739463046FCF70EFE01A92068C2
:1045D00000F06FFC0028F5D1019800F0A9FB002D38
:1045E00003D000213046FCF7FFFDBDE8FC81F0B5AB
:1045F00095B01C4615460F4608461A9E00F098FBDB
:10460000182109A8FBF767FF0E96CDE9095400238E
:10461000082203A9384600F0A0FB05980690BDF8D3
:104620001000ADF81C00BDF81200ADF81E0000200F
:104630008DF821000398082600F00300012802D01D
:10464000022818D032E003983346850AC0F3C2002E
:104650008DF8200003980FA9C0F38314A2003846F8
:1046600000F07BFB09A8009006AB22460FA9284664
:1046700000F0BAFA1AE00398840DC0F3C2008DF876
:104680002000082C01D2254600E0082533462A46A2
:104690000FA9384600F061FB2E44641B09AB06AA43
:1046A00029460FA800F080F9002CEAD1384600F026
:1046B00045FB15B0F0BD7047084810B50178084AB1
:1046C000515C19B1001D01F0AFF902E00C3001F0AE
:1046D00011F8BDE81040002001F0FABDC80000202C
:1046E0005C00002008B5034A00924023024AFFF70D
:1046F0007EFF08BD055F0000600600200A4A012910
:1047000002EBC00007D0022907D0032907D00429F3
:1047100007D00020704702207047042070470079BE
:104720007047407970470000587600002DE9FF5F20
:10473000FCF7FCFA18B1002004B0BDE8F09F8C4CE7
:104740000020C4F81804BFF34F8F8A49A068009076
:104750000D684FF00009284004EB80000CE000BF1A
:10476000D4F8180470B961680098814201D8A1603A
:10477000E1E7284004EB80000C306946FEF7AAF917
:104780000028EDD1002001A9A046009A02EA050305
:1047900008EB8303521CDB6841F82030401C009278
:1047A0000228F2D3019800F00300022802D0012869
:1047B00050D0BEE001985022810D8A46B2EB905F46
:1047C00000D850210C4664F39F50C0F3C2070190FB
:1047D0000831694800F063FA0600EAD000F0A8FA50
:1047E0004B46082201A9304600F0BFFA009909F1B2
:1047F000080B2940681A8000001D844223D95C4DB3
:104800000C3530B1C2B208EB8101201A91460C314F
:1048100004E02946E2B2002591462846C4B25B4630
:10482000304600F0A2FA0BEB09032DB122462946CF
:104830004FEA060000F099FA00990AF1030001EB33
:10484000900000903DE008EB81015B462246304637
:104850000C31EFE70198C0F38310062800D306203F
:10486000019960F38911C1F38310C1F3C207801C61
:1048700001918100404800F012FA060059D000F082
:1048800057FA4B46082201A9304600F06EFA09F1AA
:10489000080900240FE000984B4600EA0501401C7F
:1048A00008EB81010090042230460C3100F05DFAE3
:1048B00009F10409641C0198C0F38310A042EAD8EE
:1048C000B6B3D8F81044D8F818044546F8B13046C5
:1048D00000F034FA46E0E0684179012915D1017908
:1048E000BDF80800254A01EB410152F820000722DB
:1048F0008A401040C840052F00D10327B84204D396
:1049000022682046314612689047E0680468002C0F
:10491000E1D1304600F012FA0020FCF7E6F8D5F8B5
:10492000180408B90098A8600020FCF7E0F819E026
:10493000FFE7D8F8104405E02168204689688847D9
:10494000E0680468002CF7D10D484088022809D39C
:104950000C480D49401AC008022101EB00400BA190
:1049600000F01EF8FCF7E2F980F00100E4E6000038
:10497000F8070020E4000020EC760000C0010020D1
:10498000BC010020C8760000587600004261636BCD
:10499000656E647320666C75736865640000000062
:1049A00000231A4601F0E6BA2DE9F0470E4680468C
:1049B0001C469246082940D894F80C900020207399
:1049C0001946104601F026F90025B54206D218F81E
:1049D00005201BA12046FFF723FC03E01AA1204677
:1049E000FFF71EFC6D1C082DEFD318A12046FFF722
:1049F00017FC0025B54212D218F805707E2F08D892
:104A0000FBF7F0FC0068C05D10F03E0F01D03A46A5
:104A100000E02E220EA12046FFF702FC03E00DA1CC
:104A20002046FFF7FDFB6D1C082DE3D30122214634
:104A3000504601F0D1F884F80C90BDE8F0870000F2
:104A40002025303278000000202020007C0000006B
:104A500025630000200000002DE9F0471F494FF0BA
:104A600000081F4881F8008000F066F9002832D164
:104A70001C4800F0F1FB1C49DFF87090DFF870A0D3
:104A8000A1EB0900C608002414E000273D460CE015
:104A9000AC4209D059F8340059F835101422FBF70C
:104AA00043FD002800DD7F1C6D1CB542F0D32AF8C1
:104AB0002470641CB442E8D30020414654460D4D96
:104AC00006E000BF04EB8002518045F82010401C36
:104AD000B042F7D30020BDE8F0870000F8070020BF
:104AE000EC760000606A0000D07600005876000086
:104AF00084010020C001002002480349401AC00878
:104B000070470000D0760000587600007FB505465B
:104B10001146002401A873B1FEF75EFC98B90B485A
:104B20000199072250F8210005EB45018A40104009
:104B3000C840C4B207E0FEF74FFC20B90448019911
:104B400000EBC100847904B0204670BDC001002094
:104B50005876000070B5114B00EB400003EB810468
:104B60000F4B02F0070203EB8101072303FA00F663
:104B70000D688240B5432A4300200A604FEA0001D5
:104B800003FA01F51540CD40ADB2854200D9284663
:104B9000C91C0A29F4D3608070BD00008401002084
:104BA000C001002013B56846FEF716FC08B10020CE
:104BB0001CBD0248009950F831001CBD5876000019
:104BC00070B508480125D0F81044057007E0E0688A
:104BD00045712168204649688847E0680468002CD0
:104BE000F5D170BDF80700202DE9FF4781460C9DE7
:104BF00000200C462F7B28739846164629461846F7
:104C000001F008F8072E42D2DFE806F004090F167B
:104C10001F2A360049462846FFF702FB37E049467F
:104C200028462268FFF7FCFA31E0D4E90023494620
:104C30002846FFF7F5FA2AE0A0680090D4E900239F
:104C400049462846FFF7ECFA21E0D4E90201CDE914
:104C50000001D4E9002349462846FFF7E1FA16E0AF
:104C600004F1080007C88DE80700D4E9002349468D
:104C70002846FFF7D5FA0AE004F108000FC88DE8CE
:104C80000F00D4E9002349462846FFF7C9FA00225D
:104C90002946404600F0A0FF2F73BDE8FF872DE9AD
:104CA000F041058B80462D1F4819C01CB0FBF5F064
:104CB000C6B24046FEF750FC041E19D000202071F9
:104CC00001206071E58000272546761EC4F800802B
:104CD0000BE04046FEF740FC60B16179491C617110
:104CE000286005467F1CC0F80080B742F1D32046FB
:104CF000BDE8F081204600F002F80020F8E72DE939
:104D0000F041457901466B1E002201E00968521C02
:104D10009A42FBD30F680146002605E038460C682E
:104D2000FEF739FC2146761CAE42F7D3BDE8F08190
:104D30000121001DFEF7E9BBFEF742BC10B5044699
:104D40000121001DFEF702FC10F0FF0F04D12046E8
:104D5000BDE81040FFF7D3BF10BD1CB50192012282
:104D6000009201AAFEF7E5FA1CBD1CB501920022D3
:104D7000009201AAFEF7DDFA1CBD000009490222DB
:104D80000A60BFF36F8FBFF34F8F0A1D1060064894
:104D90000268002AFCD000200860BFF36F8FBFF3C9
:104DA0004F8F704704E5014000E40140094A0123A8
:104DB0001360BFF36F8FBFF34F8F01600648016828
:104DC0000029FCD000201060BFF36F8FBFF34F8F1E
:104DD0007047000004E5014000E4014070472DE900
:104DE000F0410446002790460E463846FBF77DFE0C
:104DF000204600F038F830B105270020FBF777FE99
:104E00003846BDE8F08120680568B8F1000F05D18B
:104E10000168204600F046F821680860E268012A2F
:104E20000CD0022A0ED0042A11D06068082A13D0B0
:104E300005FB02013046FBF727FBDEE76068405DBB
:104E40003070DAE7606830F815003080D5E76068C8
:104E500050F825003060D0E700EBC500D0E9001025
:104E6000C6E90010C9E7016808684968884201D1AD
:104E7000012070470020704701680A68496880680F
:104E8000884201D9491C00E00021914201D1012052
:104E900070470020704700688068704700680021F4
:104EA000816070478068884201D9481C70470020A3
:104EB00070472DE9F04104464FF000080E46404689
:104EC000FBF713FE2046FFF7D7FF070009D0207C31
:104ED00038B14FF004080020FBF709FE4046BDE85A
:104EE000F0812068456841682046FFF7DBFF2168B4
:104EF000486037B1206801682046FFF7D3FF21687A
:104F00000860E268012A14D0022A16D0042A19D0B7
:104F1000082A1CD06068314605FB0200FBF7B4FA92
:104F2000204600F0CFFE21688A688242D3D2886092
:104F3000D1E7616830784855F2E76168308821F838
:104F40001500EDE76168306841F82500E8E7D6E92B
:104F50000001626802EBC502C2E90001E0E700005F
:104F60002DE9F04F8146806889B0D0F84801C0F340
:104F7000400038B109B04846BDE8F04F0022114664
:104F8000FEF78CBE012907D909B04846BDE8F04FAD
:104F90001DA20221FEF75ABE2049DFF884B0A1EB22
:104FA0000B001C21B0FBF1F8002526E0C5EBC50184
:104FB0000BEB81042068D4E9026A8768204600F080
:104FC0003FF86421794364224243B1FBF6F1B2FB1E
:104FD000F6F26369247CACB112A400BFCDE906648B
:104FE000CDF800A00597CDE90120CDE90361104A75
:104FF00008214846FEF72AFE6D1C4545D6D309B068
:10500000BDE8F08F0BA4E9E7426164206172677527
:105010006D656E7420636F756E74000024770000F8
:10502000087700004E6F206F766572666C6F7700B0
:10503000407100004F766572666C6F77000000006B
:1050400010B504460020FBF750FD204600F03AFE64
:1050500004460020FBF74BFD204610BD2DE9F04132
:105060001F0015460E46044606D0A068FEF74AFA11
:1050700010B11120BDE8F081A068D0E9033160686B
:10508000A3EB010C421C944507D10020286017B106
:10509000A068FEF72EFA0020ECE703EA000201EA1E
:1050A0000007BA4201D3831A01E0181A0B1A2868C4
:1050B0005B1C984200D203462B602068104430608D
:1050C000A0682A68C1681144C160E4E72DE9F04195
:1050D0000546806817468846001DFEF713FA10B192
:1050E0001120BDE8F081A868816800690C1A386851
:1050F000A04200D204463C60AA68696810699268C0
:1051000008400A40824201D9161A01E00E1A761CA4
:10511000B44208D92968324601444046FBF7B4F945
:10512000A41B0020B0442968224601444046FBF7F6
:10513000ABF9A9683A68086910440861A968486130
:10514000A868001DFEF7D5F90020CAE72DE9F04157
:105150000546174688468068FEF7D4F910B111203D
:10516000BDE8F081A8683C6881680069081A696830
:10517000081A401C844200D304463C60A868696851
:10518000806808400E1A761CB44208D92968324655
:1051900008444146FBF778F9A41B0020B044296875
:1051A000224608444146FBF76FF9A8683A688168CF
:1051B00011448160A868C160A868FEF79AF90020D0
:1051C000CEE710B5826894681369E41AA14201D948
:1051D000042010BD19441161826851618068001D6E
:1051E000FEF787F9002010BD2DE9F0411E0014469E
:1051F0000F46054607D0A868001DFEF783F910B1D9
:105200001120BDE8F081A868816840690A1A09D0B8
:105210006B681840194081420DD9266896420AD918
:10522000226010E0002020601EB1A868001DFEF77B
:1052300060F90020E5E7814205D8191A2268491C67
:105240008A4200D92160296808443860A868226829
:10525000416911444161ECE78268002191608268F4
:105260001161826851618268D16082685160806892
:105270000160704770B58268456894681369E31AE5
:10528000EB1A5B1C994201D9042070BD2144916046
:105290008268D1608068FEF72FF908B1002070BDE8
:1052A000082070BD08B5002242504058009008BD4B
:1052B00070B50D460646446804E0B268294690473A
:1052C00018B1246820680028F7D12068286025607C
:1052D00070BD40680068704741680868002801D0C8
:1052E00002680A60704702460020526806E08B425E
:1052F00003D108681060012070471A461368002B1C
:10530000F5D170474058002800D00120704708B5FB
:10531000002242504058009008BDD0F804030840D5
:1053200000D0012070474058002800D0012070476D
:1053300008B5002242504058009008BD024800685D
:10534000002800D001207047000401400848006890
:10535000012110F0010F06D14FF0E020C02280F8AB
:1053600000248430C16703490120086070470000B1
:1053700000E100E0180500400649024600200B79D4
:105380000BB1852070470A6001220A7100224A7120
:10539000704700006800002070B54FF48270FEF77F
:1053A000A4FE02204107C1F804030B4B196841F029
:1053B000807018600948026842F001040460446883
:1053C0004FF40A554668361BAE42FBD302601960A3
:1053D00003490120086070BDFCED00E0001000E012
:1053E00008000040002802D00149800108477047AA
:1053F000D16700000121B1EB507F01D1012070473E
:105400000020704770B50D4600F050FC04000FD02E
:105410000020FBF76AFB207920B10020FBF767FB37
:10542000112070BD0120256020710020FBF75FFB7B
:10543000002070BD10B500F039FC002802D000211A
:105440000160017110BD00000149024800F068BF11
:10545000B8050020002000402DE9F0410546007904
:1054600016460F4600EB40012D4A01EBC00102EB4E
:10547000810494F82A1011B10820BDE8F08129496F
:1054800051F820102868FFF7BDFF08B11120F4E79C
:1054900039462846FBF740FB6660386920603000DB
:1054A0004FF001062FD03F7F4FF48E712868FFF731
:1054B0002EFF4FF4A2712868FFF729FF28681A49C8
:1054C000C0F8041328684FEA471140F3073000285A
:1054D00004DB00F1E02080F8001405E000F00F008C
:1054E00000F1E02080F8141D286840F30730002800
:1054F00009DB00F01F0106FA01F14009800000F10C
:10550000E020C0F8001128680421C0F80015002030
:10551000A061E06184F8290044F8140FA675ACE797
:10552000B8050020A8670000800002002DE9F05FA8
:10553000054600794FF4017600EB400303EBC00011
:10554000344B03EB80040020636813B12B68C3F86D
:105550000863A3694FF000096BB1E06938B1606876
:1055600010B12868C0F804631120BDE8F09FE26123
:105570000120216105E0C4F82490A261E160C4F833
:105580001C9094F82910014302D1284600F07FFCBA
:1055900060680028286803D0C0F804630020E4E7AE
:1055A0004FF4A2763146FFF7B2FEB2464FF4927B3B
:1055B00059462868FFF7A6FE06464FF4847128680E
:1055C000FFF7A0FE804651462868FFF79BFE07467E
:1055D00048EA07003043EBD056EA070007D12146DE
:1055E000286800F025FCA169606A8142E0D8C4F80F
:1055F00018900EB10320B8E70FB10F20B5E794F86B
:10560000291001200029296801D00860C6E74860F8
:10561000C4E70000B805002001684FF40172C1F82A
:105620000823006801214160704700002DE9F05F08
:10563000054600790B4600EB400101EBC000244910
:1056400001EB8004284600F045F810B11120BDE8B8
:10565000F09F62614FF00009C4F82090A36084F8C5
:1056600028904FF48E784E4641462868FFF74FFE4B
:1056700028684FF0010AC0F808A02146286800F009
:10568000A7FD606808BBD5F800B067690FE000BFF0
:1056900094F8280008B10F2615E041465846FFF758
:1056A00031FE0028F4D02146584600F091FD206AD2
:1056B000B842F2D3574641462868FFF723FE002838
:1056C000F9D02868C760C4F814903046BFE70000DE
:1056D000B8050020007900EB400101EBC00004494F
:1056E00001EB80004069002800D0012070470000D5
:1056F000B80500202DE9F047044600794FF0000975
:1057000000EB400101EBC000284901EB8007206855
:10571000C0F800957868B0B120682549C0F8081332
:10572000206840F3073000280DDB00F01F02012144
:1057300091404009800000F1E020C0F88011BFF3E3
:105740004F8FBFF36F8F2068D0F80C25D0F81485E9
:10575000D0F80865D0F810554FF0FF31C0F8141597
:10576000C0F80C152068C0F80815C0F81015501CBA
:1057700002D01046FEF77EFEB8F1FF3F02D0404651
:10578000FEF778FE681C02D02846FEF773FE701CF8
:1057900002D03046FEF76EFE2068FFF74BFE87F81A
:1057A0002A90C7F80490BDE8F0870000B8050020F3
:1057B000840202000149024800F060BEE4050020B6
:1057C000002000402DE9F0410546164600790F46BD
:1057D000154A00EBC00102EB810494F8201011B1CE
:1057E0000820BDE8F081114951F820102868FFF722
:1057F00009FE08B11120F4E739462846FBF7D0F935
:105800006660386920601EB1397F2846FDF71EF9B1
:1058100028680821C0F800150020A061E0616061DF
:10582000012184F82010DCE7E4050020AC670000CB
:105830002DE9F05F044600790E4600EBC001DFF869
:10584000F0A017460AEB81053046FFF7D3FDB0B153
:1058500068684FF000084FF4047910B12168C1F86E
:105860000893A8694FF0000B80B1E86948B16868F7
:1058700010B12068C0F804931120BDE8F09F1020FB
:10588000FBE7EF614FF001082E6102E0EE60C5E931
:10589000067B00254FF488712068FFF749FD4FF41F
:1058A000A2712068FFF744FD2068C0F83465C0F895
:1058B00038752068B8F1000F12D0D0F8001241F00E
:1058C0002001C0F800122079D04600EBC0010AEB9D
:1058D0008100406838B12068C0F804932846CCE7BE
:1058E00001210160EFE74FF4887A4FF4A279514625
:1058F0002068FFF718FD074649462068FFF713FDAB
:1059000006464FF492712068FFF70DFD014647EA05
:1059100006000843EBD0227902EBC20308EB8302B6
:10592000C2F818B001B10325002ED7D00F25D5E756
:10593000E40500200179094A01EBC10102EB810174
:10594000C96931B10168D1F8002222F02002C1F802
:10595000002200680121416070470000E40500203A
:105960002DE9F04704460E460079274900EBC000B8
:1059700001EB800517463046FFF73CFD30B120466D
:1059800000F044F820B11120BDE8F0871020FBE7BB
:105990006F61AE604FF490774FF000083946206891
:1059A000FFF7C6FC4FF4AC7631462068FFF7C0FC29
:1059B0002068AA686969C0F84425C0F848152068BD
:1059C0004FF00109C0F808906868D0B9BA4651464E
:1059D0002068FFF7A8FC074631462068FFF7A3FCC4
:1059E0000743F4D010B14FF00F0808E02068C0F86A
:1059F0000C9031462068FFF796FC0028F9D0002073
:105A000068614046C0E70000E405002000790549D0
:105A100000EBC00001EB80004069002800D00120AD
:105A200070470000E40500202DE9F04706460079A4
:105A30003D4900EBC00001EB800534686868012730
:105A4000A8B13A49C4F80813306840F30730002879
:105A50000DDB00F01F0107FA01F14009800000F1A1
:105A6000E020C0F88011BFF34F8FBFF36F8FD4F8E1
:105A7000000220F02000C4F80002A8694FF4A278C8
:105A800020B141462046FFF753FC67604FF4AC79E4
:105A900049462046FFF74CFCE7604746494620460A
:105AA000FFF741FC0028F9D0A86928B13946204603
:105AB000FFF739FC0028F1D04FF0000AC4F800A528
:105AC0003068D0F80C25D0F81495D0F80885D0F8B7
:105AD00010754FF0FF31C0F80C15C0F81415306880
:105AE000C0F80815C0F81015501C02D01046FEF77B
:105AF000CAFCB9F1FF3F02D04846FEF7C4FC781C4F
:105B000002D03846FEF7BFFCB8F1FF3F02D0404656
:105B1000FEF7B9FC2046FFF78DFC85F820A0C5F8FC
:105B200004A0BDE8F0870000E40500201003420057
:105B300003490860034801680029FCD07047000051
:105B400004E5014000E401402DE9F84317460C004C
:105B500005462BD0DFF870804646D8F80000FBF7EA
:105B60004FFD3844C7B23068FBF74AFDA968497E4B
:105B7000081AB0FBF7F0C6B22046FBF741FDA96852
:105B8000381AC7B2487FB0FBF6F206FB1202401C7F
:105B9000487782B123460DA207212846FEF756F822
:105BA00039462846BDE8F843FCF7E8B9A968002063
:105BB0004877BDE8F883009405A207212846D8F865
:105BC0000030FEF743F8EBE7C0000020257300002B
:105BD0000A2573257300000010B50C46017A0529CB
:105BE00008D0407A38B1084808A102682046FEF77C
:105BF00017FB00E01AB106A12046FEF711FB204674
:105C0000BDE81040FEF719BB3C01002025730000E1
:105C10000D0A000038B5C3880D46044633B114A000
:105C2000009015A216A12846FEF7FAFA217A052956
:105C30001CD0607A48B1A088FEF760FD164951F883
:105C4000202016A12846FEF7EBFAA0880021FEF7D7
:105C5000A9FF03461049207A143951F8202001B0D9
:105C60002846BDE830400EA1FEF7DABA38BD000084
:105C70001B5B306D000000001B5B313B33316D005E
:105C800025734C6F67732064726F70706564202891
:105C900025642925730D0A003C01002025730000AE
:105CA0003C25733E2025733A2000000003498842BA
:105CB00001D10348704700207047000000200040D9
:105CC0007000002001680A684968914201D3881A6F
:105CD00070478068801A0844401C704770B50546BC
:105CE000FCF735FA134C40B1D4E904024FF080714F
:105CF000411842F10000C4E9041000212846FCF7D5
:105D000069F930B1606820B1606800F0B3F9002033
:105D1000606001212846FCF75DF918B1FCF7D2FC60
:105D2000C4E90601284600F0F7F92846BDE87040AE
:105D300000F038B8780000202DE9F04100260E7000
:105D4000D0E902740D468046FCF7BCFC381A0023EB
:105D500064EB01011A461B1A8A4115DAB0F5350FBA
:105D600004D3FAF73BFE0D49421800E03A464FF4DF
:105D7000960300210A48FCF7F6F910B10D2807D068
:105D80000AE00120BDE8F08100210548FCF718F980
:105D9000404600F06FF928700020F3E7FFFFB400E1
:105DA00080000020F8B5204C064600251F48FFF76C
:105DB00090FA10B3D0E90210CA4372EA000224D06C
:105DC000626882B16368D3E90223891A984127D2B5
:105DD0006068D0E90210C94371EA000103D061682C
:105DE0001248FFF765FA00F0BFF807466946FFF76B
:105DF000A3FFB0B1606858B10DE0606800280FD112
:105E00003046BDE8F840FCF7AAB900F0ADF8CDE7A0
:105E10003046FCF7A0F967609DF800000028C5D166
:105E2000F8BD6560C2E7000078000020B867000098
:105E300070B5054688690C4600284FF484712846E1
:105E40000AD0FFF764FAD5F81805626AE168885449
:105E5000606A401C606270BDFFF759FAD5F81805FA
:105E600070BD1FB501238DF80030CDE90121D0E9C7
:105E70000012684690471FBD1FB501238DF8003002
:105E8000CDE90121D0E90012684690471FBD10B549
:105E9000044600684FF49271FFF739FA4FF48471A9
:105EA0002068FFF734FA20680121016010BD00006E
:105EB0007CB50446FF20009001236A4601A9E068F2
:105EC000FFF7CCF8002819D1009A002A16D0606993
:105ED0000B4D01990378D2B2EB5C1BB1001DFFF7AB
:105EE000A7FC02E00C30FFF721FB002806D1A068D8
:105EF000224640F266610068FAF7B4FD7CBD0000FE
:105F00005C00002070B50D4C0020D2B22070201D26
:105F10000B4D0378EB5C1BB1001DFFF721FD02E088
:105F20000C30FFF783FB08B1FAF74CFD60780028CE
:105F300002D021780029FAD070BD0000C4000020F2
:105F40005C0000200022CA604A60054A8A60052879
:105F500003D2044A52F8200000E000200860704795
:105F6000506A0000FC0000200148FFF7B5B90000AE
:105F7000B86700002DE9F84F074622489146884649
:105F800005681E46012269461846FAF771FEDFF8D9
:105F900078A060B3009800210446801C0AE000BF8E
:105FA00000EA050259F821C00AEB8202401C491C94
:105FB000C2F80CC0B142F3D34FEA1749FBF7F6FF22
:105FC000611C29400AEB810149EA00422C40CA6069
:105FD0000AEB8401C86867F3C50066F3891068F3AB
:105FE0009F2020F00300401C20F00400C8609AF8B5
:105FF000000001E0FEF79AFB0028FBD1FCF76CFFE4
:10600000BDE8F88FE4000020F80700200968006868
:10601000FAF773BA2DE9F04115460E460446FBF730
:10602000E5FE78B9A068FA21077D90F81680204631
:10603000FBF7A4FFFA212046FBF754FE2046FBF7AE
:10604000D5FE10B10620BDE8F081A068007D30705B
:10605000A068807D28703078C01BC1B22046FBF755
:10606000B3FE2978A1EB0800C1B22046FBF792FFEE
:106070000020E8E770B504461E480025007860B3AC
:106080005CB3FCF71FFBD4E90223801A994125D3A6
:106090000020FAF72AFD206910B9681EC4E9020041
:1060A0000020FAF724FDD4E9051088470020FAF70C
:1060B0001CFD226972B1D4E90210CB4373EA0003DC
:1060C00008D0891840F10000C4E902100020FAF756
:1060D0000EFD07E00020FAF70AFD08E0D04370EA61
:1060E000030004D021460448FFF7E2F801252846C2
:1060F00070BD000078000020B86700004069054AC4
:106100000178515C11B1001DFFF714BC0C30FFF792
:1061100083BA00005C00002038B51D4D6946286830
:10612000FDF7D1F91B4C30E0017821B101290ED0E7
:10613000022922D117E04168D1E90220D24372EA54
:1061400000021AD012480830FFF7B2F815E0416893
:106150006068814202D1002060600EE00C48083087
:10616000FFF7C1F809E0FFF7FFFE20B14FF0FF3164
:10617000C0E90211F7E70120207069462868FDF7A1
:1061800097F969462868FDF79EF90028CCD138BDFB
:10619000B067000078000020F8B50B4C0D460646AD
:1061A00069462068FDF779F958B10670456069467F
:1061B0002068FDF793F910B10448FBF7B5FF002004
:1061C000F8BD0420F8BD0000B0670000800000208A
:1061D00070B50C4605464FF48E71FFF798F8216AAA
:1061E000A068415C206A401C2062C5F81C1570BD87
:1061F0001FB500228DF80020029181680191426153
:10620000D0E90012684690471FBD1FB500228DF8E7
:1062100000200291816801914261D0E90012684634
:1062200090471FBD7CB5FF260546009600780C46BA
:10623000B8B1012806D0022812D1297AE068FFF708
:1062400019F80AE0297AE068FFF714F8287A20B1F3
:106250006068D0E90021002090472046FFF728FE23
:106260007CBD297A2069FEF7ACFF009601236A46BF
:1062700001A92069FEF7B8FF009820B1C2B2606999
:106280000199FDF7B1FF6068D0E900210120904736
:106290007CBD00001FB50A4601788DF800104168EA
:1062A0000191017A8DF80810C0680390044850F8F5
:1062B0002210001F50F82220684690471FBD0000A2
:1062C000640000200149012008707047C4000020CC
:1062D00010B588B0044620220E496846FAF7D4F873
:1062E00006200090C01F0190029003904FF0EB70C9
:1062F00006900CB1084A00E0002269460748FDF705
:106300003FFF08B1FAF75EFB0448001F447008B075
:1063100010BD0000306A0000C5620000C800002007
:106320002DE9FF470C4605464FF40071FEF7F5FFD7
:1063300001274FF40178002618B34FF492794946AB
:106340002846FEF7DFFFE0B149462846FEF7DFFFAB
:10635000C5F8088394F8290000B96F6002208DF811
:106360000000D5F88004C5F880040390A06902906D
:10637000E0680190A661E661D4E9001268469047A2
:1063800028E004212846FEF7C8FF18B34FF48471B3
:106390002846FEF7B7FFE8B121462846FFF748FD3B
:1063A000616AA069884215D1E06938B1E268616A22
:1063B000A0612069E6616662E06008E094F8290067
:1063C00000B96F60C5F80883A661E268616A20467B
:1063D000FFF747FD4FF48E7841462846FEF792FFBF
:1063E00080B16069216A814202D294F8280028B302
:1063F00041462846FEF78BFF606918B16169204667
:10640000FFF7F6FE4FF4A27841462846FEF77AFFE2
:10641000002818D041462846FEF779FF94F8290055
:1064200000B12F60A06900280DD0A661E268616A02
:1064300004B02046BDE8F047FFF713BD21462846CB
:10644000FFF7C6FEDEE7BDE8FF8700001FB50A467E
:1064500001788DF8001041680191017A8DF80810DB
:10646000C0680390044850F82210001F50F8222002
:10647000684690471FBD0000640000202DE9FF41E1
:106480000C464FF4927705463946FEF74CFF00263E
:10649000B8B139462846FEF74BFF02208DF80000C0
:1064A000D5F88004C5F880040390D5F83C05029027
:1064B000E0680190A661E661D4E900126846904761
:1064C00023E04FF4887739462846FEF72CFFE0B1E9
:1064D00039462846FEF72CFFD5F83C15A0698842BE
:1064E00013D1E06960B1E268D5F8000220F0200025
:1064F000C5F80002E069A0612069E661E06001E0A2
:10650000A661E2682046FFF7B7FC4FF4A277394650
:106510002846FEF708FF68B139462846FEF708FF0F
:10652000A06938B1A661E661D5F83C152046E2685D
:10653000FFF7A2FC4FF4907631462846FEF7F3FEB3
:1065400060B131462846FEF7F3FE0120E86060693D
:1065500020B1D5F84C152046FFF757FE4FF4AC7626
:1065600031462846FEF7DFFE00280ED03146284689
:10657000FEF7DEFE6069002807D0D5F84C1504B0A0
:106580002046BDE8F041FFF740BEBDE8FF810000B6
:106590002DE9F05F8346DDE90A4A994690460D46AB
:1065A0000846012703E000BFB0FBF8F07F1C404520
:1065B000FAD2B94500D94F465FEACA7012D18CB100
:1065C0005FEA8A7002D5B9F1000F01D0202607E0FA
:1065D000302605E031465846641EFAF78FFB0CB1B1
:1065E000A742F7D35FF00106B9F1010F02D9A9F173
:1065F000010903E0B5FBF6F0404502D306FB08F6BF
:10660000F2E7DFF83C9000BFB5FBF6F000FB165553
:1066100019F800105846FAF771FBB6FBF8F6002E91
:10662000F2D15FEACA7009D0002C07D0A74205D288
:1066300020215846641EFAF761FBF5E7BDE8F09F9C
:10664000DC6900001CB5002913D08268127F8A42E1
:106650000FD008A3D3E90023CDE9002301F12F02D5
:106660008DF803208268117700696A4603A1FDF75F
:10667000D7FD1CBD1B5B34006D00000025730000BE
:106680001CB5826899B1D27E8A420FD00CA2D2E9A1
:106690000032CDE9003201F12F028DF80520826829
:1066A000D17600696A4608A1FDF7BAFD1CBDD17616
:1066B000006902B0054ABDE8104003A1FDF7B0BD76
:1066C0001B5B313B33006D00257300008D690000BA
:1066D00000000020FC0100203F0000003C020020E0
:1066E000540200200F00000064020020000000009F
:1066F00000200040000000000020004000000000DA
:10670000C86900007C020020D0660000E06600003E
:10671000D4660000EC660000A86C00000067000072
:10672000A80200203876000020000020D07600006B
:10673000FFFFFFFFFFFFFFFFFFFFFFFFFFFFFFFF69
:1067400000000000000000000000D601060100006B
:106750000000000058670000486D0000186D000040
:10676000000000000D230000406D0000286D0000B7
:106770000000000021230000506D0000B86C0000F4
:1067800000000000D923000000000000000000000D
:106790000000000000000000706D0000586D000057
:1067A00050670000B522000049540000B5570000B2
:1067B000980000200100060000000000AC0000204E
:1067C000371C000000000000000000000000000076
:1067D0000338FDD87047000000000000E0670000AB
:1067E0009C6D0000786D000000000000F135000095
:1067F0000000000000000000000000000000000099
:10680000A46D0000AC6D0000D8670000F1350000F9
:106810009D4500007F450000754500000000000018
:10682000246800008C6E0000746E00000000000000
:1068300095390000906E00005C6E000000000000C2
:10684000BF39000000000000000000000000000050
:1068500000000000000000005C6800008C6E00007A
:10686000946E000000000000813A0000906E00006D
:10687000F06E000000000000AB3A000000000000D5
:106880000000000000000000000000000000000008
:10689000946800005C6F0000306F00000000000092
:1068A00075380000646F0000046F000000000000F5
:1068B000A5380000000000000000000000000000FB
:1068C0000000000000000000CC680000B06F000075
:1068D000906F00001C6800002D390000A86F0000B8
:1068E0006C6F000054680000E9390000B86F0000C8
:1068F000806F00008C680000093800000000000074
:106900000000000000000000000000000000000087
:106910001469000004700000C06F00000000000057
:10692000113C00000000000000000000000000001A
:10693000000000001C7000000C700000000000004F
:10694000813700004870000024700000C468000017
:10695000C5370000607000004C70000000000000AF
:10696000D53A000008710000687000000C69000052
:106970004D3B00000000000000000000000000008F
:106980001B37001B38002C20001B5B4A001B5B6D73
:1069900000082008001B5B4B00202D20001B5B48DB
:1069A000001B5B366E001B5B324A000000000000DB
:1069B0000338FDD870471B5B3F336C002D682C20DB
:1069C0002D2D68656C700000A5190000FB190000F2
:1069D00039190000111A0000F1190000303132336A
:1069E00034353637383941424344454600000000CB
:1069F000F46900009C6D00001471000000000000AC
:106A0000614F0000000000000000000000000000D6
:106A10000000000038710000AC6D0000EC6900005F
:106A2000614F0000E5460000B9460000B74600008F
:106A3000FFFFFFFFFFFFFFFFFFFFFFFFFFFFFFFF66
:106A400000000000000000000000D6010601000068
:106A5000010000000934000000000000746A00001A
:106A6000600700207F000000E00700200100000018
:106A7000455F0000DC72000068720000506A000090
:106A8000312B0000D4720000E47100006C6A000039
:106A9000312B000004730000E472000000000000CD
:106AA0003D2B000018730000F4720000000000008D
:106AB000492B00009C6D00000873000000000000DE
:106AC000552B000000000000000000000000000046
:106AD0000000000001000000290C00000000000080
:106AE000E46A0000887300002073000000000000CA
:106AF000852C00009073000054730000000000001B
:106B0000C12C000000000000000000000000000098
:106B100000000000000000001C6B0000CC730000AF
:106B200098730000D46A000000000000D4730000D5
:106B3000DC730000DC6A000000000000DC72000072
:106B400068720000506A0000DB2E0000D472000062
:106B5000E47100006C6A0000DB2E0000047300008A
:106B6000E472000000000000EB2E0000187300002B
:106B7000F472000000000000F52E0000F873000021
:106B8000B473000000000000BD2B00009C6D0000ED
:106B90000873000000000000FF2E0000000000004D
:106BA0000000000000000000000000000874000069
:106BB0000C740000146B0000612B0000004040408A
:106BC00040404040404041414141414040404040C0
:106BD000404040404040404040404040400502026C
:106BE000020202020202020202020202022020202B
:106BF0002020202020202002020202020202909087
:106C00009090909010101010101010101010101084
:106C100010101010101010100202020202028888D8
:106C200088888888080808080808080808080808E4
:106C300008080808080808080202020240000000CC
:106C4000BD6B0000457865637574653A203C666CE1
:106C5000617368202D683E20666F72206D6F7265CB
:106C600020696E666F726D6174696F6E206F72203D
:106C70007072657373207468652054616220627558
:106C800074746F6E20746F2073656520616C6C2066
:106C9000617661696C61626C6520636F6D6D616EB8
:106CA00064732E0D0A000000756172745F636C6975
:106CB0003A7E2420000000005772697465206461E8
:106CC000746120746F20666C6173682E0A4C696D64
:106CD00069746174696F6E733A0A2D206D61786909
:106CE0006D756D20313620656E74726965732C0A7E
:106CF0002D206561636820656E7472792069732048
:106D00006D6178696D756D203632206368617273CC
:106D1000206C6F6E672E0000457261736520666C93
:106D20006173682E00000000526561642064617424
:106D3000612066726F6D20666C6173682E000000C2
:106D40007265616400000000657261736500000097
:106D50007772697465000000466C61736820616336
:106D60006365737320636F6D6D616E642E00000048
:106D7000666C6173680000005072696E74207374F1
:106D800061747573206F662062616C6C6F6320693B
:106D90006E7374616E6365732E00000073746174AA
:106DA0007573000062616C6C6F630000436F6D6D02
:106DB000616E647320666F722042414C4C4F4320D9
:106DC0006D616E6167656D656E74000025730D0AF7
:106DD000092D20456C656D656E742073697A653A7E
:106DE000092564202B202564206279746573206F47
:106DF0006620646562756720696E666F726D617486
:106E0000696F6E0D0A092D2055736167653A092572
:106E100075252520282575206F7574206F6620251F
:106E20007520656C656D656E7473290D0A092D20DA
:106E30004D6178696D756D3A0925752525202825E0
:106E400075206F7574206F6620257520656C656DE3
:106E5000656E7473290D0A0D0A000000456E6162AB
:106E60006C6520636F6C6F7265642073796E7461FA
:106E7000782E000044697361626C6520636F6C6FEB
:106E80007265642073796E7461782E006F66660097
:106E90006F6E000044697361626C6520434C492049
:106EA0006563686F2E204172726F777320616E6424
:106EB00020627574746F6E733A204261636B7370F5
:106EC0006163652C2044656C6574652C20456E6497
:106ED0002C20486F6D652C20496E7365727420619B
:106EE0007265206E6F742068616E646C65642E003C
:106EF000456E61626C6520434C49206563686F2E66
:106F00000000000047657420434C4920737461748D
:106F100069737469637320666F7220746865204CAE
:106F20006F67676572206D6F64756C652E00000079
:106F3000526573657420434C49207374617469739E
:106F40007469637320666F7220746865204C6F6784
:106F5000676572206D6F64756C652E007265736570
:106F60007400000073686F7700000000546F67675B
:106F70006C6520434C49206563686F2E000000005B
:106F8000434C4920737461746973746963732E0090
:106F9000546F67676C6520636F6C6F7265642073F4
:106FA000796E7461782E00006563686F00000000E0
:106FB000636F6C6F72730000737461747300000010
:106FC000417373756D65203830206368617273207A
:106FD00073637265656E20776964746820616E649E
:106FE0002073656E642074686973207365747469B6
:106FF0006E6720746F20746865207465726D696EA9
:10700000616C2E0064656661756C7400436C65612B
:10701000722073637265656E2E000000636C65619B
:107020007200000055736566756C2C206E6F7420BD
:10703000556E69782D6C696B6520434C4920636FF0
:107040006D6D616E64732E00636C6900436F6D6DCE
:10705000616E6420686973746F72792E000000009D
:10706000686973746F727900436F6E736F6C65201B
:1070700067657473207465726D696E616C207363EB
:107080007265656E2073697A65206F722061737313
:10709000756D657320383020696E206361736520DB
:1070A00074686520726561646F7574206661696CCF
:1070B000732E204974206D75737420626520657885
:1070C00065637574656420616674657220656163CB
:1070D00068207465726D696E616C2077696474688C
:1070E000206368616E676520746F20656E737572CA
:1070F0006520636F727265637420746578742064B0
:107100006973706C61792E00726573697A6500002D
:10711000202000005072696E74207374617475735E
:10712000206F6620717565756520696E7374616E78
:107130006365732E000000007175657565000000C1
:1071400025730D0A092D20456C656D656E742073DD
:10715000697A653A0925640D0A092D20557361671E
:10716000653A092575252520282575206F75742019
:107170006F6620257520656C656D656E7473290DCD
:107180000A092D204D6178696D756D3A09257525BF
:107190002520282575206F7574206F6620257520A1
:1071A000656C656D656E7473290D0A092D204D6F30
:1071B00064653A090925730D0A0D0A006E6F6E6544
:1071C000000000007761726E696E67006465627529
:1071D00067000000696E666F000000006572726FE4
:1071E00072000000276C6F6720656E61626C65201D
:1071F0003C6C6576656C3E203C6D6F64756C655FBC
:10720000303E202E2E2E20203C6D6F64756C655F05
:107210006E3E2720656E61626C6573206C6F6773CC
:1072200020757020746F20676976656E206C6576B6
:10723000656C20696E20737065636966696564209A
:107240006D6F64756C65732028616C6C20696620B5
:107250006E6F206D6F64756C657320737065636904
:1072600066696564292E0000276C6F672064697366
:1072700061626C65203C6D6F64756C655F303E20AB
:107280002E2E203C6D6F64756C655F6E3E2720640A
:10729000697361626C6573206C6F677320696E201F
:1072A000737065636966696564206D6F64756C658C
:1072B000732028616C6C206966206E6F206D6F648E
:1072C000756C657320737065636966696564292EE2
:1072D00000000000656E61626C65000064697361A6
:1072E000626C6500526573756D65206C6F676769C8
:1072F0006E67000048616C74206C6F6767696E6729
:1073000000000000676F00004C6F676765722073B4
:10731000746174757300000068616C740000000093
:107320004C6F616420636F6E666967757261746922
:107330006F6E2073746F72656420696E206E6F6E5D
:107340002D766F6C6174696C65206D656D6F7279F7
:107350002E00000053746F72652063757272656E43
:107360007420636F6E66696775726174696F6E20F1
:10737000696E206E6F6E2D766F6C6174696C65201E
:107380006D656D6F72792E006C6F61640000000096
:1073900073746F72650000004C6F676765722062DE
:1073A00061636B656E647320636F6D6D616E647392
:1073B0002E0000004C69737473206C6F67676572F0
:1073C000206261636B656E64732E00006261636BA3
:1073D000656E6400636F6E66696700004D616E6183
:1073E0006765206C6F6767657220636F6E6669679B
:1073F00075726174696F6E006C6973745F6261634A
:107400006B656E64730000006C6F6700436F6D6D99
:10741000616E647320666F7220636F6E74726F6C3E
:107420006C696E67206C6F67676572001B5B313B30
:1074300033306D001B5B306D000000001B5B313B87
:1074400033316D001B5B313B33326D001B5B313BD5
:1074500033336D001B5B313B33346D001B5B313BC1
:1074600033356D001B5B313B33366D001B5B313BAD
:1074700033376D006170705F74696D65722E6D5F7A
:10748000636C695F756172745F7472616E73706F43
:1074900072745F74696D65720000000071756575C6
:1074A000652E6D5F636C695F756172745F6C6F6789
:1074B0005F6261636B656E645F7175657565000021
:1074C00062616C6C6F632E6D5F636C695F75617276
:1074D000745F636D645F686973745F6D656D6F621F
:1074E0006A0000006D5F636C695F756172745F6C48
:1074F0006F675F6261636B656E645F71756575650B
:10750000000000006D5F636C695F756172745F6C91
:107510006F675F6261636B656E6400006D5F636CD3
:10752000695F756172745F636D645F686973745FCE
:107530006D656D6F626A0000636C6F636B000000C5
:10754000434C4F434B00000050525300554152549E
:107550000000000055415254450000006170705F0A
:1075600074696D657200000061746669666F2E6DE6
:107570005F7265715F6669666F000000636C695FCA
:1075800075617274000000007077725F6D676D74D2
:1075900000000000736F72746C6973740000000067
:1075A000756172745F6C6F675F6261636B656E6457
:1075B0000000000062616C6C6F632E6C6F675F6D22
:1075C000656D706F6F6C0000617070006C6F675F4D
:1075D0006D656D706F6F6C002477000000000020F7
:1075E000FC0100006C05000098770000FC01002001
:1075F0001C2A00002009000000000000986700001D
:107600000000000000680000000000003469000075
:107610000000000044690000000000005469000000
:10762000000000006469000000000000146A00000F
:1076300000000000AC6B0000106800003800002063
:107640000475000044000020246A000000000000CF
:10765000A0750000DC00002074740000000000032E
:107660009C74000000000003C074000000000003D0
:1076700038750000000000004075000000000000A8
:1076800048750000000000004C750000000000007C
:1076900054750000000000005C7500000000000050
:1076A00068750000000000037C7500000000000009
:1076B00088750000000000009475000000000000C4
:1076C000B475000000000003C8750000000003034B
:1076D000540000204C00002054000020140400201E
:1076E0008C0100201C7500003000000018010020F3
:1076F0001001002018010020A0060020B801002081
:10770000CC7500001800000008040020F4030020DD
:10771000040000000400000001000000E474000008
:1077200088010020815AFF01C11384011420C8037D
:10773000B32017231867231940E30877B939012CC0
:1077400015100140110221041AA88C09133FB271CF
:107750001220199A9908599829041ABC281ADC048D
:107760001AC4041AD4045ACC042914291029202933
:107770001C011CE9402334741A2C041A3C041A44DA
:10778000041A4C041A54041A5C041A64041A6C0493
:0877900011049890D0030000E1
:0400000500000201F4
:00000001FF
