:020000040000FA
:1000000018270020F902000001030000030300008C
:1000100005030000070300000903000000000000C2
:100020000000000000000000000000000B030000C2
:100030000D030000000000000F030000110300008A
:100040001303000013030000E50600001303000083
:10005000130300001303000013030000C10300009A
:1000600095060000130300001303000013030000B3
:100070001303000013030000130300001303000028
:100080001303000013030000130300001303000018
:100090001303000013030000130300001303000008
:1000A00013030000130300001303000013030000F8
:1000B0001303000013030000000000000000000014
:1000C00013030000130300001303000013030000D8
:1000D00013030000130300001303000013030000C8
:1000E00013030000000000000000000000000000FA
:1000F00000000000130300000000000013030000D4
:1001000000000000000000000000000000000000EF
:1001100000000000000000000000000000000000DF
:1001200000000000000000000000000000000000CF
:1001300000000000000000000000000000000000BF
:1001400000000000000000000000000000000000AF
:10015000000000000000000000000000000000009F
:10016000000000000000000000000000000000008F
:10017000000000000000000000000000000000007F
:10018000000000000000000000000000000000006F
:10019000000000000000000000000000000000005F
:1001A000000000000000000000000000000000004F
:1001B000000000000000000000000000000000003F
:1001C000000000000000000000000000000000002F
:1001D000000000000000000000000000000000001F
:1001E000000000000000000000000000000000000F
:1001F00000000000000000000000000000000000FF
:10020000DFF80CD000F0CAF800480047DD0B000012
:100210001827002030B4044654E8000F0D4644E887
:100220000053002BF8D1156030BC704730B4044641
:1002300054E8000F40EA010544E80053002BF7D1D1
:10024000156030BC704730B4044654E8000F00EA33
:10025000010544E80053002BF7D1156030BC70470E
:1002600030B4044654E8000F80EA010544E8005326
:10027000002BF7D1156030BC704730B4044654E809
:10028000000F00EB010544E80053002BF7D1156087
:1002900030BC704730B4044654E8000FA0EB0105B1
:1002A00044E80053002BF7D1156030BC704770B4A0
:1002B00004464FF0000054E8006F0D68AE4207BFDF
:1002C00044E80023012044E800630E60002B1CBFBB
:1002D0000020F0E770BC704730B4044654E8000FCB
:1002E00088422CBF451A054644E80053002BF5D13F
:1002F000156030BC7047000006488047064800473C
:10030000FEE7FEE7FEE7FEE7FEE7FEE7FEE7FEE7C5
:10031000FEE7FEE70905000001020000202A04DBD9
:10032000203A21FA02F00021704721FA02F3D0406E
:10033000C2F12002914008431946704700487047B7
:10034000802B000040EA01039B0703D009E008C9A5
:10035000121F08C0042AFAD203E011F8013B00F88A
:10036000013B521EF9D27047D2B201E000F8012BD6
:10037000491EFBD270470022F6E710B513460A4625
:1003800004461946FFF7F0FF204610BD421C10F846
:10039000011B0029FBD1801A70470000064C074D55
:1003A00006E0E06840F0010394E807009847103445
:1003B000AC42F6D3FFF728FF382C0000582C000081
:1003C0002DE9FE434FF48278404601F09DFA4C4FF0
:1003D00000254C4C012600B3404601F09DFA94F8EC
:1003E0002E0010B194F82F10D1B18DF80050616833
:1003F00001912189ADF80810E26832B1218B618347
:1004000062602181E56010B102E0257400E03E6089
:1004100021686846884784F82F5094F82E0060B30E
:100420004FF48077384601F06FFA30B3384601F068
:1004300073FA628B94F82D108A420AD9A2EB01005C
:1004400080B260832289A2EB0000626802EB400068
:1004500005E007D1E06828B184F82F60658301F0DA
:1004600041FA04E08A4202D184F82F606583404655
:1004700001F052FA2248001D06604FF48877384692
:1004800001F042FA48B1384601F046FA25740220DC
:100490008DF800002168684688474FF48A7738460F
:1004A00001F032FA28B1384601F036FA2574BDE879
:1004B000FE834FF000484FF48C7967691DE000BF60
:1004C000B7FA87F028FA00F109EB80058F43284638
:1004D00001F01AFA88B1284601F01EFAA5F58C75CC
:1004E000E8088DF8040045F38000401C8DF800609A
:1004F0008DF80500216868468847002FE0D1D6E7CF
:1005000000700040C800002010B54FF0805200235A
:10051000D2E94C100D2906D18C07C4F80C31C4F86F
:100520001031534C23600D2955D1524B1B68524C4E
:100530002360504B1B1D1B68241D23604D4B08334B
:100540001B68241D23604B4B0C331B68241D236048
:10055000484B10331B68241D2360464B14331B6823
:10056000241D2360434B18331B68434C2034236005
:10057000404B1C331B68241D23603E4B20331B68FB
:10058000241D23603B4B24331B68241D2360394BFF
:1005900028331B68241D2360364B2C331B68241D15
:1005A0002360344B30331B68334C40342360314B71
:1005B00034331B68241D23602E4B38331B68241DE5
:1005C00023602C4B3C331B68241D2360294B403394
:1005D0001B68241D23600D2906D128480168C9071E
:1005E00002D06FF0010101602548016841F47001FB
:1005F0000160BFF34F8FBFF36F8FD2E94C104FF004
:1006000010220D2907D130B1012804D0D2F80802F8
:10061000174920310860D2F80002002803DBD2F825
:10062000040200281FDA012001F038FE1221C2F86E
:10063000001214480368002BFCD0C2F804120168B1
:100640000029FCD0002001F029FEBFF34F8F0C4899
:100650007C3801680C4A01F4E06111430160BFF38A
:100660004F8F00BFFDE70A490848086010BD000031
:10067000380500400404001020C50040000400407C
:1006800088ED00E000E401400400FA050090D0038A
:10069000B00000202DE9F047104E042700244FF44D
:1006A000A0784FF4803900BF08EB840509FA04F004
:1006B000715961B1D6F80413014208D02946304679
:1006C00001F04BF90648D0E9002128469047641C08
:1006D000E4B2BC42E8D3BDE8F087000000800040EF
:1006E000F8000020014800680047000028000020B2
:1006F00002E008C8121F08C1002AFAD170477047EB
:10070000002001E001C1121F002AFBD17047000048
:1007100072B600F0CDFF00BF00F020FE0028FBD134
:1007200011481249401AC408012000EB044010A1EE
:1007300000F02EFF11480068C00700D000BE022064
:1007400000EB04400EA100F023FFBFF34F8F0B48D6
:10075000E43801680E4A01F4E06111430160BFF31F
:100760004F8F00BFFDE70000A02C0000682C0000A8
:10077000466174616C206572726F7200F0ED00E08A
:1007800053797374656D20726573657400000000A1
:100790000400FA050EB500210091CDE901106A466A
:1007A00044F20100FFF7B4FF0EBD00F003B800F003
:1007B00009B8000072B602480168491C0160704720
:1007C0003000002003490868401E086000D162B66E
:1007D000704700003000002070B5054608680C46E0
:1007E000411C04D000F0C8FC206800F095FC606853
:1007F000411C02D0002100F07DFC2968A069C1F8ED
:100800002405607D227D29681043C1F86C05D4E978
:1008100000122868C0F81425C0F80C15207D0128A6
:1008200014D1A068411C02D0002100F063FCE068F4
:10083000411C04D000F0A0FCE06800F06DFCD4E99D
:1008400002122868C0F80825C0F8101570BD70B5F0
:10085000054608680C46411C04D000F097FC20684F
:1008600000F064FC6068411C02D0002100F04BFCE9
:100870002968A069C1F82405607D217D2A680843A4
:10088000C2F86C05D4E900122868C0F80C15C0F84D
:100890001425207D012814D1A068411C02D000211C
:1008A00000F031FCE068411C04D000F06FFCE0680F
:1008B00000F03CFCD4E902122868C0F80825C0F812
:1008C000101570BD2DE9F0470546861C91460F4670
:1008D0004FF0010A0020FFF768FF1B4C04F21C4890
:1008E00060683860D4E90101184F401A3968081A65
:1008F0000EE00121404600F00BFA00F01DF9014620
:10090000404600F005FAD4E90101401A3968081A96
:10091000401C8642EDD8B9F1000F03D0052065F3E5
:10092000891002E0062065F39F5061683A68114023
:1009300004EB8101C8606068304460600020FFF70C
:1009400036FF5046BDE8F087F80200205C0000202A
:1009500070B50D4604460A2902D10D21FFF7F8FFB4
:10096000A0682268411CA1601554D4E901018142AC
:1009700004D32046BDE8704000F07FBA70BD00008F
:10098000044881684068814201D1012070470020FD
:1009900070470000F802002010B50021024800F066
:1009A000C2F980F3100010BD140700202DE9FC5F90
:1009B0000E008346DDE90C47C6F1000098469246DA
:1009C000814600D40846012503E000BF90FBFAF001
:1009D0006D1C5045FADAA84500D9454624B1002ED1
:1009E00001DB780700D5641EB80702D5B8F1000F07
:1009F0000AD0F80708D13CB1A54205D220215846BB
:100A0000641EFFF7A5FFF6E7002E02DA4E462D2101
:100A100002E0780703D52B215846FFF799FF07F02E
:100A2000030002280BD1B8F1000F08D13CB1A54258
:100A300005D230215846641EFFF78AFFF6E7CDE95C
:100A40000047434652463146584601F0B3FFBDE8E1
:100A5000FC9F000070B50D46044600684FF4887195
:100A600000F097FF4FF49071206800F092FF4FF470
:100A70009271206800F08DFF4FF4A271206800F0A1
:100A800088FF4FF4AC71206800F083FF20681249A2
:100A9000C0F804132068690740F30730090E0028E6
:100AA00004DB00F1E02080F8001405E000F00F0006
:100AB00000F1E02080F8141D206840F30730002882
:100AC00009DB00F01F02012191404009800000F184
:100AD000E020C0F8001170BD100342000246002063
:100AE0001268530713D502F00300012802D0022830
:100AF0000CD105E0C2F383100B68801C184404E09D
:100B00000223086803EB92521044086001207047EA
:100B10000121814003484068014201D00120704713
:100B2000002070472000002001218140080300D0F0
:100B300001207047704700002DE9FF41002624483E
:100B400000F0E3F82248001F074600F0DEF8214CD1
:100B50002149A06800900D6800E00098694628408F
:100B600004EB80000C30FFF7B9FF0028F5D101AA93
:100B7000009901EA050304EB8303491CDB6842F892
:100B80002030401C00910228F2D3019800F00300AD
:100B900001280BD0022810D10198032101EB9050BD
:100BA0000099BDF80A6001EB900005E00198BDF8DE
:100BB0000A60C0F3831008440090384600F0A2F8A1
:100BC00008B10098A06004B03046BDE8F081000094
:100BD00010070020F80200205C00002000210846D9
:100BE00000F03AFD08B1FFF7D5FD00F0A9FB00F0D9
:100BF0003DFE08B1FFF7CEFD01F040FC01F078FCAE
:100C000001F068FC08480949401AC008032101EBBB
:100C1000004007A100F0BCFC00F03CFE00F09EFB91
:100C20000028FBD1F8E70000A02C0000682C000091
:100C300053414144432048414C2073696D706C65B9
:100C4000206578616D706C65207374617274656481
:100C50002E0000002DE9F047C5881E1DB6FBF5F7F4
:100C60008946B6FBF5F1044605FB176C407916681A
:100C70006843DDF820A0F718001F874200D9C61A84
:100C8000166001E02468491E0029FBD1A5EB0C0782
:100C90008846B74216D818E004EB0C00001D09EB9B
:100CA0000803BAF1000F3A4602D00146184600E0A8
:100CB0001946FFF747FB2468F61B4FF0000CB844B9
:100CC000B54201D9374600E02F46002EE4D1BDE8F9
:100CD000F087000030B5024651B100F0D1FC002190
:100CE000074C08E034F821301568AB4202D111609E
:100CF000002030BD491C8142F4D3052030BD0000E6
:100D000000000000002100F009B8012100F010B837
:100D100008B56A46FFF7B1FA009808BD08B56A46FB
:100D2000FFF791FA08BD08B56A46FFF773FA08BDE8
:100D300008B56A46FFF77AFA009808BD08B56A4612
:100D4000FFF7A8FA009808BD70B5044600252846AC
:100D5000FFF72BFD21686268086890420ED9401E9B
:100D600008600178238AE26801FB0325227A216862
:100D7000101AC0B20A79824200D208710020FFF72F
:100D800016FD284670BD70B505460C460020FFF7DD
:100D90000CFDE868298A201AB0FBF1F12A68106876
:100DA000431C13600170BDE870400020FFF7FFBCDA
:100DB00010B530B1017A42680368891AC9B21A6065
:100DC00006E00E2010BD03681A68541C1C601170E8
:100DD000491EC9B2F7D2006800210171084610BD52
:100DE0000448017809B18520704701210170002075
:100DF0007047000008000020F0B50546047815484B
:100E000089B0164640F82420124A08690832A2F137
:100E10000C0742F82400487F385520226846FFF727
:100E200091FA04942878385C48B10EB10A4A00E07F
:100E300000226946281D01F013F909B0F0BD0EB17A
:100E4000064A00E00022694605F10C0000F0D2FFDE
:100E5000F3E700001000002071280000B926000010
:100E60000FB408B50399002904D004AA00926A4679
:100E700000F00FF801B05DF814FB10B5826804466D
:100E8000002A05D0D4E90403216898470020A06017
:100E900010BD2DE9FC4791460C00804676D014F831
:100EA000011B39B125290ED04046FFF751FD2078AE
:100EB0000028F4D198F80C00002867D04046BDE81F
:100EC000FC47FFF7DABF0020012221782B291BD035
:100ED0002D2902D0302908D102E040F0010001E0C4
:100EE00040F00200641C002AEFD100252A290ED010
:100EF0002178A1F130020A2A11D205EB850201EB1B
:100F00004205641C303DF1E740F00400EAE7D9F8FF
:100F100000100B1DC9F800300968641C0D442178CD
:100F200000232E290BD114F8011FA1F130020A2A47
:100F300005D203EB830201EB4203303BF3E76C295C
:100F40000DD068290BD0692921D00BDC252918D0B8
:100F5000582931D063290ED0642915D117E014F82F
:100F6000011FECE7702969D0732932D075291BD095
:100F7000782909D120E0D9F80000011DC9F8001036
:100F800001784046FFF7E4FC641C90E76CE0D9F878
:100F900000100A1DC9F800200968CDE900500A2296
:100FA0004046FFF703FDEFE7D9F800100A1DC9F826
:100FB000002009680A2206E0D9F800100A1DC9F8C5
:100FC000002009681022CDE90050404601F0F2FCF3
:100FD000DAE7D9F8001000270A1DC9F800200E68CA
:100FE000C00705D112E04046761C7F1CFFF7B0FC1D
:100FF00031780029F7D104E0202140466D1EFFF72B
:10100000A7FCBD42C0D9002DF6D1BDE74EB1304698
:10101000FFF7BCF9074604E0202140466D1EFFF7AC
:1010200097FCBD4206D9002DF6D103E04046761C60
:10103000FFF78EFC31780029F8D1A5E7D9F8000038
:10104000011DC9F80010056830214046FFF780FCFB
:1010500078214046FFF77CFC08200021CDE9000103
:10106000034610222946B0E7BDE8FC872DE9FF4181
:101070001C46DDE90A7815460E46684600F060F821
:1010800046EA450141EA840141EA072242EA084171
:10109000009A00EB8200C0F80017BDE8FF812DE93F
:1010A000FF411C46DDE90A7815460E46684600F009
:1010B00055F846EA450141EA840141EA072242EA3D
:1010C0000841009A00EB8200C0F80017BDE8FF81DC
:1010D0001CB5002100910B4601220191FFF7C6FFCC
:1010E0001CBD1CB5002100910B4601220191FFF7A8
:1010F000D6FF1CBD1CB500220B4600921146019282
:10110000FFF7B4FF1CBD1CB500220B460092114630
:101110000192FFF7C4FF1CBD1CB5002100910B46D6
:10112000012201911146FFF7A1FF1CBD1CB5002152
:1011300000910B46012201911146FFF7B0FF1CBD43
:101140000168202902D24FF0A040704701F01F0132
:101150000160014870470000000300500168202929
:1011600002D24FF0A040704701F01F01016001481A
:10117000704700000003005001B56846FFF7E0FF2C
:10118000009A01219140C0F8081508BD01B56846D4
:10119000FFF7E4FF009A01219140C0F8081508BD4F
:1011A00030B5154A01460020D2F8104423460AE023
:1011B000DB681D79854205D1401C0A28F6DB4FF01B
:1011C000FF3030BD1B68002BF2D1431CF9D0CB6837
:1011D0001871D2F8103443B1DB68CC681B68236007
:1011E000D2F81024D268116030BDC2F81014C9685A
:1011F00000220A6030BD0000F8020020F0B595B072
:101200001C4615460F4608461A9E00F009FB182199
:1012100009A8FFF7B0F80E96CDE90954002308227B
:1012200003A9384600F011FB05980690BDF81000A0
:10123000ADF81C00BDF81200ADF81E0000208DF8BE
:1012400021000398082600F00300012802D002289C
:1012500018D032E003983346850AC0F3C2008DF8F7
:10126000200003980FA9C0F38314A200384600F0B1
:10127000ECFA09A8009006AB22460FA9284600F018
:101280002BFA1AE00398840DC0F3C2008DF82000F9
:10129000082C01D2254600E0082533462A460FA92E
:1012A000384600F0D2FA2E44641B09AB06AA294640
:1012B0000FA800F079F9002CEAD1384600F0B6FA10
:1012C00015B0F0BD7047012001F014BA084810B500
:1012D0000178084A515C19B1001D00F05BFF02E083
:1012E0000C3000F055FEBDE81040002001F002BABD
:1012F000400000200C00002008B5034A0092402363
:10130000024AFFF77BFF08BD89250000600100202D
:101310000A4A012902EBC00007D0022907D003299D
:1013200007D0042907D0002070470220704704200E
:10133000704700797047407970470000682C0000C2
:1013400010B5FFF7C0FF04210348FFF729FF02494A
:101350000120C968487110BD582C00002DE9F047E4
:101360008CB0FFF70DFB18B100200CB0BDE8F08782
:101370007D4C0020C4F81804BFF34F8F7B49A06850
:1013800002900D684FF00008284004EB80000BE04D
:10139000D4F8180470B961680298814201D8A1603C
:1013A000E2E7284004EB80000C3002A9FFF796FB2F
:1013B0000028EDD1002003AA029901EA050304EBFD
:1013C0008303491CDB6842F82030401C029102284C
:1013D000F2D3039800F00300022802D001284DD078
:1013E000A7E003985022810D8946B2EB905F00D8A8
:1013F00050210E4666F39F50039008315C4800F080
:10140000C6F9070078D000F00BFA4346082203A97A
:10141000384600F022FA029908F1080A2940681AB1
:101420008000001D864222D94F4D0C3530B1C2B22A
:1014300004EB8101301A90460C3104E02946F2B2E7
:10144000002590462846C6B25346384600F005FAB5
:101450000AEB080325B132462946384600F0FDF96B
:10146000029909F1030001EB900002903BE004EBCC
:1014700081015346324638460C31EFE70398C0F3FA
:101480008310062800D30620039960F38911C1F365
:101490008310801C03918100354800F078F9070023
:1014A00047D000F0BDF94346082203A9384600F0B2
:1014B000D4F908F1080800260FE00298434600EA34
:1014C0000501401C04EB81010290042238460C31D6
:1014D00000F0C3F908F10408761C0398C0F38310E8
:1014E000B042EAD847B1D4F81054D4F8180478B10F
:1014F000384600F09BF931E01BE0E86840790128AC
:1015000004D12A682846394612689047E868056879
:10151000002DF2D1384600F089F90020FFF745F997
:10152000D4F8180408B90298A0600020FFF73FF92A
:1015300014E0D4F8104405E0216820468968884703
:10154000E0680468002CF7D10A480B49401AC0082B
:10155000022101EB004009A100F01AF8FFF710FA90
:1015600080F0010001E70000F80200205C0000208C
:10157000A82C0000A02C0000682C00004261636BC6
:10158000656E647320666C757368656400000000A6
:1015900000231A4601F018B808B5012300926A46E4
:1015A00001F012F808BD00002DE9F0470E46804614
:1015B0001C469246082940D894F80C9000202073CD
:1015C0001946104600F094FE0025B54206D218F8E0
:1015D00005201BA12046FFF743FC03E01AA120468B
:1015E000FFF73EFC6D1C082DEFD318A12046FFF736
:1015F00037FC0025B54212D218F805707E2F08D8A6
:10160000FEF79CFE0068C05D10F03E0F01D03A4628
:1016100000E02E220EA12046FFF722FC03E00DA1E0
:101620002046FFF71DFC6D1C082DE3D30122214647
:10163000504600F03FFE84F80C90BDE8F0870000B3
:101640002025303278000000202020007C0000009F
:101650002563000020000000064910B50020087036
:10166000054800F0E1F8002803D1044800F02CF907
:10167000002010BDF8020020A82C0000F02A000075
:1016800002480349401AC00870470000A82C000017
:10169000682C000013B56846FFF71CFB08B100205A
:1016A0001CBD0248009950F831001CBD682C000098
:1016B00070B508480125D0F81044057007E0E068CF
:1016C00045712168204649688847E0680468002C15
:1016D000F5D170BDF80200202DE9FF4781460C9D31
:1016E00000200C462F7B287398461646294618463C
:1016F00000F0FEFD072E42D2DFE806F004090F16C7
:101700001F2A360049462846FFF7AAFB37E049461C
:1017100028462268FFF7A4FB31E0D4E900234946BC
:101720002846FFF79DFB2AE0A0680090D4E900233B
:1017300049462846FFF794FB21E0D4E90201CDE9B0
:101740000001D4E9002349462846FFF789FB16E04B
:1017500004F1080007C88DE80700D4E900234946D2
:101760002846FFF77DFB0AE004F108000FC88DE86A
:101770000F00D4E9002349462846FFF771FB0022F9
:101780002946404600F096FD2F73BDE8FF872DE9FE
:10179000F041058A80462D1F4819C01CB0FBF5F0AA
:1017A000C6B24046FFF7D0FA041E19D000202071BF
:1017B00001206071E58000272546761EC4F8008070
:1017C0000BE04046FFF7C0FA60B16179491C6171D6
:1017D000286005467F1CC0F80080B742F1D3204640
:1017E000BDE8F081204600F002F80020F8E72DE97E
:1017F000F041457901466B1E002201E00968521C48
:101800009A42FBD30F680146002605E038460C6873
:10181000FFF7B9FA2146761CAE42F7D3BDE8F08156
:101820000121001DFFF774BAFFF7C2BA10B50446D4
:101830000121001DFFF782FA10F0FF0F04D12046AE
:10184000BDE81040FFF7D3BF10BD1CB501920122C7
:10185000009201AAFFF7FEF91CBD1CB501920022FF
:10186000009201AAFFF7F6F91CBD0000064910B569
:1018700000204870091D0860BFF35F8F03490448CA
:1018800000F054F8002010BD34000020B82A0000F9
:101890005401002010B50020FEF787FFF1EE100A7A
:1018A00020F09F00E1EE100ABFF35F8F0549402052
:1018B000C1F880020020FEF77AFF20BF40BF20BFA2
:1018C00010BD000004E000E08268002191608268A1
:1018D0001161826851618268D1608268516080685C
:1018E00001607047024A1060101D016070470000DF
:1018F0002C760040030103481844C0F81425C0F8B2
:10190000101570470070004002494058002800D070
:101910000120704700700040034908B508440022C8
:1019200002600068009008BD007000400160096816
:101930004160AFF3008010B5D0E9002153689942AF
:1019400001D1002104E0D1E90034A34202D01946BC
:10195000816010BD08314160F0E708B500224250B7
:101960004058009008BD4058002800D00120704722
:1019700008B5002242504058009008BDD0F804033A
:10198000084000D0012070474058002800D00120B6
:10199000704708B5002242504058009008BD012110
:1019A000B1EB507F01D1012070470020704700004B
:1019B0002DE9F0470427144E814600244FF001081A
:1019C0000020FEF7F2FE08FA04F5354203D0204667
:1019D000FFF79EF858B10020FEF7E9FE27B104F1A9
:1019E0000104AE43E4B2EBD13846BDE8F0870749C5
:1019F00008FA04F000274A681043486089F800405C
:101A00003846FEF7D4FEEFE7FFFF0F00200000206E
:101A10002DE9F04114460D00074612D08CB1002686
:101A2000FFF782F878B13846FFF772F868B10848D6
:101A300000EBC700C0F81055C0F814453046BDE8AB
:101A4000F0810E20FBE70726F8E70826F6E70000FE
:101A500000F0014070B5044601260025A640FFF7BE
:101A600063F818B12046FFF753F818B10248066032
:101A7000284670BD0825FBE704F5014070B50D460A
:101A800000F082FC04000FD00020FEF78EFE2079CB
:101A900020B10020FEF78BFE112070BD01202560D3
:101AA00020710020FEF783FE002070BD10B500F00D
:101AB0006BFC002802D000210160017110BD000004
:101AC0002DE9F041254C064612200D46C4F80803C6
:101AD0002348017C022918D0027C01464FF480780B
:101AE00091F82E10012A12D00222C4F804230127F3
:101AF0000774466005810022C26021B3458390F8D7
:101B00002D103046FFF7EEFE25E0122002E0C268FD
:101B10002AB10220C4F804031120BDE8F081C66098
:101B2000058361B947463846FFF7EEFE0028FAD034
:101B30003846FFF7F1FE29463046FFF7D3FE022074
:101B4000C4F8040307E029463046FFF7CBFE4046C1
:101B5000FFF7E2FE27600020DFE700000070004092
:101B6000C8000020204A10B5137C0BB1112010BD15
:101B700002EB40031C7F1CB912F82D4F641C14703B
:101B8000CA791A770A7A5A770A784B78302402F0A1
:101B9000030204EA03131A438B784FF4E06404EA67
:101BA00003231A43CB784FF4805404EA03331A43D7
:101BB0000B794FF4E02404EA03431A434B794FF4C2
:101BC000801404EA03531A438B79240104EA036363
:101BD000064C1A4304EB0013C3F818250A7AC97996
:101BE000FFF788FE002010BDC800002000700040F4
:101BF0002DE9F0411F4C054694F82C0010B1082047
:101C0000BDE8F08144F8101B1B4928780860091DC5
:101C100068780860E878A07701272777002020708F
:101C200060776060154EE0776FF00040C6F80803FB
:101C30004FF48270FFF770FEB015FFF76DFE4FF4A2
:101C40008A70FFF769FEA8780D49400181F8000409
:101C50008020C91FC1F800010220C6F80403A07F3C
:101C600010B10120C6F804030348F03807600020D3
:101C7000C6E70000C8000020F0750040007000407A
:101C800007E000E0044890F82E0008B1002000E0D2
:101C90000420024908447047C8000020007000403A
:101CA0002DE9F04106460D464FF480340068174692
:101CB000AC404BB14FF4A07101EB8501FFF74DFE35
:101CC0003068C0F8044301E0C0F80843306800EB16
:101CD0008500C0F84075BDE8F08100000168012270
:101CE0000A600079034A00EB400002EB8000022109
:101CF00001727047F8000020F0B40468049E40F2BE
:101D00000115D4F800728D40AF43C4F80072046826
:101D1000D4F800521D43C4F800523346F0BCFFF71C
:101D2000BFBF00002DE9F04104460E4600792C4962
:101D300000EB400001EB8007387A10B10820BDE8C5
:101D4000F0813A60706800254FF4A078786006E072
:101D500008EB85012068FFF700FE6D1CEDB260798D
:101D6000A842F5D82068F17840F3073000284FEA00
:101D7000411104DB00F1E02080F8001405E000F0E0
:101D80000F0000F1E02080F8141D2068012140F3CD
:101D90000730002809DB00F01F0201FA02F24009B7
:101DA000800000F1E020C0F8002120687278D0F8AF
:101DB000043562F30103C0F804352068B278D0F826
:101DC000083562F30103C0F8083520683278D0F88E
:101DD000103562F30303C0F8103539720020AEE706
:101DE000F80000200149024800F0ACBC04010020CA
:101DF000002000402DE9F0410546007916460F46C7
:101E000000EB40012D4A01EBC00102EB810494F884
:101E10002A1011B10820BDE8F081294951F820109D
:101E20002868FFF72BFE08B11120F4E73946284651
:101E3000FEF7D2FC66603869206030004FF0010682
:101E40002FD03F7F4FF48E712868FFF791FD4FF43C
:101E5000A2712868FFF78CFD28681A49C0F804139E
:101E600028684FEA471140F30730002804DB00F1EF
:101E7000E02080F8001405E000F00F0000F1E02001
:101E800080F8141D286840F30730002809DB00F0B3
:101E90001F0106FA01F14009800000F1E020C0F8BE
:101EA000001128680421C0F800150020A061E0613D
:101EB00084F8290044F8140FA675ACE7040100204B
:101EC000882A0000800002002DE9F05F05460079B5
:101ED0000B4600EB400101EBC000244901EB8004FC
:101EE000284600F045F810B11120BDE8F09F62616E
:101EF0004FF00009C4F82090A36084F828904FF4B4
:101F00008E784E4641462868FFF732FD28684FF02C
:101F1000010AC0F808A02146286800F0A2FB60680A
:101F200008BBD5F800B067690FE000BF94F828003F
:101F300008B10F2615E041465846FFF714FD00286A
:101F4000F4D02146584600F08CFB206AB842F2D308
:101F5000574641462868FFF706FD0028F9D0286853
:101F6000C760C4F814903046BFE7000004010020A9
:101F7000007900EB400101EBC000044901EB800057
:101F80004069002800D001207047000004010020B3
:101F90002DE9F047044600794FF0000900EB4001BD
:101FA00001EBC000284901EB80072068C0F80095CC
:101FB0007868B0B120682549C0F80813206840F35C
:101FC000073000280DDB00F01F020121914040097D
:101FD000800000F1E020C0F88011BFF34F8FBFF305
:101FE0006F8F2068D0F80C25D0F81485D0F80865DC
:101FF000D0F810554FF0FF31C0F81415C0F80C158B
:102000002068C0F80815C0F81015501C02D0104602
:10201000FFF75EF8B8F1FF3F02D04046FFF758F8EF
:10202000681C02D02846FFF753F8701C02D03046D7
:10203000FFF74EF82068FFF739FD87F82A90C7F8B8
:102040000490BDE8F0870000040100208402020033
:102050000149024800F024BC30010020002000406B
:102060002DE9F0410546164600790F46154A00EB6A
:10207000C00102EB810494F8201011B10820BDE8E2
:10208000F081114951F820102868FFF7F7FC08B1DA
:102090001120F4E739462846FEF7D9FB6660386917
:1020A00020601EB1397F2846FEF7D4FC286808213D
:1020B000C0F800150020A061E0616061012184F892
:1020C0002010DCE7300100208C2A00002DE9F047C9
:1020D00004460E460079274900EBC00001EB80055D
:1020E00017463046FFF75BFC30B1204600F044F85D
:1020F00020B11120BDE8F0871020FBE76F61AE60D2
:102100004FF490774FF0000839462068FFF741FC04
:102110004FF4AC7631462068FFF73BFC2068AA6894
:102120006969C0F84425C0F8481520684FF00109D6
:10213000C0F808906868D0B9BA4651462068FFF7E1
:1021400023FC074631462068FFF71EFC0743F4D006
:1021500010B14FF00F0808E02068C0F80C9031462D
:102160002068FFF711FC0028F9D000206861404684
:10217000C0E70000300100200079054900EBC000F5
:1021800001EB80004069002800D00120704700006A
:10219000300100202DE9F047064600793D4900EB6B
:1021A000C00001EB8005346868680127A8B13A498E
:1021B000C4F80813306840F3073000280DDB00F046
:1021C0001F0107FA01F14009800000F1E020C0F88A
:1021D0008011BFF34F8FBFF36F8FD4F8000220F050
:1021E0002000C4F80002A8694FF4A27820B141464B
:1021F0002046FFF7CEFB67604FF4AC794946204696
:10220000FFF7C7FBE760474649462046FFF7BCFBA0
:102210000028F9D0A86928B139462046FFF7B4FB59
:102220000028F1D04FF0000AC4F800A53068D0F8BB
:102230000C25D0F81495D0F80885D0F810754FF01B
:10224000FF31C0F80C15C0F814153068C0F8081537
:10225000C0F81015501C02D01046FEF742FFB9F12D
:10226000FF3F02D04846FEF73CFF781C02D03846BC
:10227000FEF737FFB8F1FF3F02D04046FEF731FFCF
:102280002046FFF713FC85F820A0C5F804A0BDE8A0
:10229000F08700003001002010034200034908606D
:1022A000034801680029FCD07047000004E50140A4
:1022B00000E4014010B50C46017A052908D0407AA7
:1022C00038B1084808A102682046FEF7C9FD00E0C1
:1022D0001AB106A12046FEF7C3FD2046BDE8104016
:1022E000FEF7CBBD8C000020257300000D0A000016
:1022F00038B5C3880D46044633B114A0009015A22A
:1023000016A12846FEF7ACFD217A05291CD0607A7B
:1023100048B1A088FEF7FCFF164951F8202016A10D
:102320002846FEF79DFDA0880021FFF7B3F903467C
:102330001049207A143951F8202001B02846BDE810
:1023400030400EA1FEF78CBD38BD00001B5B306D28
:10235000000000001B5B313B33316D0025734C6F77
:1023600067732064726F7070656420282564292566
:10237000730D0A008C000020257300003C25733E7D
:102380002025733A200000000349884201D1034808
:102390007047002070470000002000402800002007
:1023A00070B5054688690C4600284FF484712846AC
:1023B0000AD0FFF7DDFAD5F81805626AE16888549B
:1023C000606A401C606270BDFFF7D2FAD5F818054C
:1023D00070BD1FB501238DF80030CDE90121D0E992
:1023E0000012684690471FBD1FB501238DF80030CD
:1023F000CDE90121D0E90012684690471FBD0000D9
:102400002DE9F04106460078002821D105217068A9
:10241000FFF756FB08B1FEF7BDF90E480E490F4F06
:10242000401AC108032000EB014005460CA17A6860
:10243000FFF7B2F8002470680FA130F91420284685
:10244000FFF7AAF8641C052CF5DB7868401C78605F
:10245000BDE8F081A02C0000682C000000000020E6
:10246000414443206576656E74206E756D626572B9
:102470003A20256400000000256400000EB5124AD1
:1024800007CA8DE80700104810491438FFF7B0FB61
:1024900008B1FEF77FF969460020FFF763FB08B13A
:1024A000FEF778F905210A48FFF70AFB08B1FEF7A5
:1024B00071F9074805210A30FFF702FB002801D017
:1024C000FEF768F90EBD00007C2A00000124000020
:1024D000B4000020054810B50078FFF7BBFA0028CB
:1024E00003D0BDE81040FEF755B910BD0000002034
:1024F0003EB5FEF775FC08B1FEF74CF91E491F4AC0
:10250000D1E90301CDE9010103208DF806001A4845
:1025100001A9001DFFF706FC08B1FEF73BF9164CB8
:10252000241D2068D0F810050021C2B21448FDF720
:10253000F5FE024600200146009001232046FFF7E9
:10254000DBFB2046FFF7CAFB246804F5A074FFF705
:1025500099FB05460B48FFF72BFA08B1FEF71AF96D
:1025600008482A4621460078FFF752FA002801D091
:10257000FEF710F93EBD0000682A00006126000049
:1025800000A861000000002070B50D4C0020D2B200
:102590002070201D0B4D0378EB5C1BB1001DFFF775
:1025A00095FD02E00C30FFF78FFC08B1FEF7F2F862
:1025B0006078002802D021780029FAD070BD000090
:1025C0003C0000200C0000202DE9F84F074622486F
:1025D0009146884605681E46012269461846FEF760
:1025E00071F9DFF878A060B3009800210446801CE0
:1025F0000AE000BF00EA050259F821C00AEB820296
:10260000401C491CC2F80CC0B142F3D34FEA174931
:10261000FEF7C2F9611C29400AEB810149EA004238
:102620002C40CA600AEB8401C86867F3C50066F3F2
:10263000891068F39F2020F00300401C20F0040064
:10264000C8609AF8000001E0FEF788FE0028FBD180
:10265000FEF770FABDE8F88F5C000020F802002059
:10266000704770B50C4605464FF48E71FFF780F940
:10267000216AA068415C206A401C2062C5F81C15D4
:1026800070BD1FB500228DF8002002918168019174
:102690004261D0E90012684690471FBD1FB5002275
:1026A0008DF800200291816801914261D0E9001209
:1026B000684690471FBD00001FB50A4601788DF897
:1026C000001041680191017A8DF80810C0680390EC
:1026D000044850F82210083850F8222068469047E5
:1026E0001FBD00001800002001490120087070473C
:1026F0003C00002010B588B0044620220E496846F0
:10270000FDF720FE06200090C01F0190029003906C
:102710004FF0EB7006900CB1084A00E000226946C9
:102720000748FEF769FB08B1FEF734F80448001FBC
:10273000447008B010BD0000D02A0000E926000057
:10274000400000202DE9FF470C4605464FF400717C
:10275000FFF714F901274FF40178002618B34FF45E
:10276000927949462846FFF7FEF8E0B149462846E7
:10277000FFF7FEF8C5F8088394F8290000B96F60E8
:1027800002208DF80000D5F88004C5F8800403907D
:10279000A0690290E0680190A661E661D4E90012A8
:1027A0006846904728E004212846FFF7E7F818B369
:1027B0004FF484712846FFF7D6F8E8B12146284641
:1027C000FFF7EEFD616AA069884215D1E06938B172
:1027D000E268616AA0612069E6616662E06008E023
:1027E00094F8290000B96F60C5F80883A661E26813
:1027F000616A2046FFF7EDFD4FF48E78414628468A
:10280000FFF7B1F880B16069216A814202D294F881
:10281000280028B341462846FFF7AAF8606918B196
:1028200061692046FFF72DFF4FF4A2784146284604
:10283000FFF799F8002818D041462846FFF798F886
:1028400094F8290000B12F60A06900280DD0A6617E
:10285000E268616A04B02046BDE8F047FFF7B9BD01
:1028600021462846FFF7FDFEDEE7BDE8FF870000B2
:102870001FB50A4601788DF8001041680191017A70
:102880008DF80810C0680390044850F822100838EA
:1028900050F82220684690471FBD00001800002015
:1028A0002DE9FF410C464FF4927705463946FFF774
:1028B0006BF80026B8B139462846FFF76AF80220BF
:1028C0008DF80000D5F88004C5F880040390D5F891
:1028D0003C050290E0680190A661E661D4E900122F
:1028E0006846904723E04FF4887739462846FFF73B
:1028F0004BF8E0B139462846FFF74BF8D5F83C15C0
:10290000A069884213D1E06960B1E268D5F800029D
:1029100020F02000C5F80002E069A0612069E661AE
:10292000E06001E0A661E2682046FFF75DFD4FF43C
:10293000A27739462846FFF727F868B13946284676
:10294000FFF727F8A06938B1A661E661D5F83C1514
:102950002046E268FFF748FD4FF49076314628465E
:10296000FFF712F860B131462846FFF712F8012050
:10297000E860606920B1D5F84C152046FFF78EFE5F
:102980004FF4AC7631462846FEF7FEFF00280ED005
:1029900031462846FEF7FDFF6069002807D0D5F8CC
:1029A0004C1504B02046BDE8F041FFF777BEBDE806
:1029B000FF8100002DE9F05F8346DDE90A4A994670
:1029C00090460D460846012703E000BFB0FBF8F033
:1029D0007F1C4045FAD2B94500D94F465FEACA701C
:1029E00012D18CB15FEA8A7002D5B9F1000F01D023
:1029F000202607E0302605E031465846641EFDF7E4
:102A0000A7FF0CB1A742F7D35FF00106B9F1010FA0
:102A100002D9A9F1010903E0B5FBF6F0404502D364
:102A200006FB08F6F2E7DFF83C9000BFB5FBF6F0D6
:102A300000FB165519F800105846FDF789FFB6FB44
:102A4000F8F6002EF2D15FEACA7009D0002C07D048
:102A5000A74205D220215846641EFDF779FFF5E70D
:102A6000BDE8F09F902A00000100060000800040B1
:102A7000000400000000000600000000000000004C
:102A80000200000100000000E51D000051200000D0
:102A90003031323334353637383941424344454694
:102AA0000000000000000000000000000000000026
:102AB0000000000000000000A02A0000B82A00006A
:102AC00004000000F9120000CD120000C512000041
:102AD000FFFFFFFFFFFFFFFFFFFFFFFFFFFFFFFF06
:102AE00000000000000000000000D6010601000008
:102AF000600200207F000000E00200200040404013
:102B000040404040404041414141414040404040C0
:102B1000404040404040404040404040400502026C
:102B2000020202020202020202020202022020202B
:102B30002020202020202002020202020202909087
:102B40009090909010101010101010101010101085
:102B500010101010101010100202020202028888D9
:102B600088888888080808080808080808080808E5
:102B700008080808080808080202020240000000CD
:102B8000FD2A00007761726E696E67006465627588
:102B9000670000001B5B313B33306D001B5B306D09
:102BA000000000001B5B313B33316D001B5B313B90
:102BB00033326D001B5B313B33336D001B5B313BAC
:102BC00033346D001B5B313B33356D001B5B313B98
:102BD00033366D001B5B313B33376D00696E666FBA
:102BE000000000006572726F7200000050504900D2
:102BF00050525300534141444300000054494D4555
:102C000052000000554152540000000055415254FA
:102C1000450000007077725F6D676D740000000002
:102C2000756172745F6C6F675F6261636B656E6420
:102C30000000000061707000BC2C0000000000204B
:102C4000B4000000F0060000702D0000B400002069
:102C50006426000000070000C42A000000000000F5
:102C6000202C000054000020EC2B0000000000008D
:102C7000F02B000000000000F42B0000000000001A
:102C8000FC2B000000000000042C000000000000ED
:102C90000C2C000000000000142C000000000000BC
:102CA000342C0000000003036800002060000020B6
:102CB00068000020A00100201800000000000000B3
:102CC0000000000000000000000000000000000004
:102CD00000000000000000000000000000000000F4
:102CE00000000000000000000000000000000000E4
:102CF00000000000000000000000000000000000D4
:102D00000020004000000000002000400000000003
:102D100000000000FF000000FF00000000000000B5
:102D200000000000000000000000000000000000A3
:102D30000000000000000000E42B0000842B0000D5
:102D4000DC2B00008C2B00009C2B0000942B00003F
:102D5000A42B0000AC2B0000B42B0000BC2B000007
:102D6000C42B0000CC2B0000D42B00000090D0031B
:0400000500000201F4
:00000001FF
