:020000040000FA
:1000000030200020150200001D0200001F02000029
:100010002102000023020000250200000000000071
:1000200000000000000000000000000027020000A7
:1000300029020000000000002B0200002D02000039
:100040005D0200002F0200002F0200002F020000BE
:100050002F0200002F0200002F0200002F020000DC
:100060002F0200002F0200002F020000B502000046
:100070002F0200002F0200002F0200002F020000BC
:100080002F0200002F0200002F0200002F020000AC
:100090002F0200002F0200002F0200002F0200009C
:1000A0002F0200002F0200002F0200002F0200008C
:1000B0002F0200002F0200000000000000000000DE
:1000C0002F0200002F0200002F0200002F0200006C
:1000D0002F0200002F0200002F020000000000008D
:1000E0000000000000000000000000000000000010
:1000F0000000000000000000000000000000000000
:1001000000000000000000000000000000000000EF
:1001100000000000000000000000000000000000DF
:1001200000000000000000000000000000000000CF
:1001300000000000000000000000000000000000BF
:1001400000000000000000000000000000000000AF
:10015000000000000000000000000000000000009F
:10016000000000000000000000000000000000008F
:10017000000000000000000000000000000000007F
:10018000000000000000000000000000000000006F
:10019000000000000000000000000000000000005F
:1001A000000000000000000000000000000000004F
:1001B000000000000000000000000000000000003F
:1001C000000000000000000000000000000000002F
:1001D000000000000000000000000000000000001F
:1001E000000000000000000000000000000000000F
:1001F00000000000000000000000000000000000FF
:10020000DFF80CD000F018F800480047A507000000
:10021000302000200648804706480047FEE7FEE7FA
:10022000FEE7FEE7FEE7FEE7FEE7FEE7FEE7FEE7A6
:10023000C502000001020000064C074D06E0E06820
:1002400040F0010394E8070098471034AC42F6D31D
:10025000FFF7DAFF580B0000780B000070B54FF481
:100260008076304600F0D8FA114CB50560B13046C2
:1002700000F0D9FA0120C5F80803607920B90120FF
:1002800060712168002088474FF48276304600F084
:10029000C3FA00280AD0304600F0C5FA0220C5F89B
:1002A00008032168BDE870400120084770BD0000C8
:1002B0000000002003220021014800F017BA0000CE
:1002C00000B00040F0B5A449A4484FF080540B683A
:1002D000D4F830210078D4F83411551CC0F3031041
:1002E00006D0944601270026BCF1060F03D00AE091
:1002F00003F0FF0CF6E7B4F82453DFF864C2C5F34B
:100300000425CCF80050DDB2062D06D1032804D117
:10031000DFF854C2934DCCF87450551C04D0944669
:10032000BCF1060F03D00AE003F0FF0CF8E7D4F8A5
:100330004452DFF838C2C5F34235CCF80050DDB284
:10034000062D08D1032806D1894DD5F800C02CF020
:10035000807CC5F800C0551C04D09446BCF1060F43
:1003600003D00BE003F0FF0CF8E74FF08045C5F831
:100370000C61C5F810617D4D2D1F2E60DDB2062D7C
:1003800008D1032806D1DFF8E4C103250CF1640C81
:10039000CCF80050DDB2062D10D103280ED1DFF8C5
:1003A000D4C10525CCF80050724D78352F60714DC1
:1003B00008352E600CF104063F253560551C04D02D
:1003C00016460D46062E03D05BE0DEB20546F9E781
:1003D000ED1E012D55D9684D2D68684E3560664D6E
:1003E0002D1D2D68361D3560634D08352D68361D71
:1003F0003560614D0C352D68361D35605E4D10350C
:100400002D68361D35605C4D14352D68361D356000
:10041000594D18352D68594E20363560564D1C35CE
:100420002D68361D3560544D20352D68361D3560DC
:10043000514D24352D68361D35604F4D28352D68BA
:10044000361D35604C4D2C352D68361D35604A4DB6
:1004500030352D68494E40363560474D34352D686E
:10046000361D3560444D38352D68361D3560424D9A
:100470003C352D68361D35603F4D40352D68361DA5
:100480003560551C03D01646062E02D007E0DEB2BA
:10049000FAE7D4F858523A4E05F04F053560551C2E
:1004A00003D01346062B02D008E0DBB2FAE735484A
:1004B0000368DB0702D06FF001030360062A07D14F
:1004C000C91E022904D93048016841F480610160E5
:1004D00027487438016841F470010160BFF34F8F01
:1004E000BFF36F8FD4E94C104FF01022062907D1CB
:1004F000C01E032804D9D2F808021C491C31086028
:10050000D2F80002002803DBD2F8040200281FDA28
:10051000012000F0FFFA1521C2F800121B48036801
:10052000002BFCD0C2F8041201680029FCD0002086
:1005300000F0F0FABFF34F8F0D48F0380168144A0D
:1005400001F4E06111430160BFF34F8F00BFFDE78D
:10055000114910480860F0BDE00F00F0E80F00F00E
:10056000403501400DF0ADBA00C007403C050040E9
:10057000FCED00E0105600400404001020C50040CF
:10058000E40E0040000400403C17004000E401403D
:100590000400FA050090D0031400002002E008C80F
:1005A000121F08C1002AFAD170477047002001E0ED
:1005B00001C1121F002AFBD17047000072B6094822
:1005C0000068C00700D000BEBFF34F8F0548E43875
:1005D0000168054A01F4E06111430160BFF34F8FE8
:1005E00000BFFDE7F0ED00E00400FA050EB50021C4
:1005F0000091CDE901106A4644F20100FFF7DEFFE9
:100600000EBD00F003B800F009B8000072B6024851
:100610000168491C01607047100000200349086808
:10062000401E086000D162B6704700001000002034
:100630002DE9FC410646C0074FF000050ED0104FD3
:1006400000240122385D009500231146019500F039
:1006500035F9641C042CF4D300F01CF8B0070DD558
:10066000074E0024361D0022305D032300951146FD
:10067000019500F023F9641C042CF4D3BDE8FC813F
:10068000500B00000249085C012100F037B900005E
:10069000500B000010B500242046FFF7F3FF641C48
:1006A000042CF9D310BD000070B5084C050009D02A
:1006B00010342168002907D008682060496828465E
:1006C0008847F6E70834F4E770BD00001800002002
:1006D000054A012120B1012805D19170FFF7E4BF3F
:1006E00051700020FAE77047180000202DE9F0470C
:1006F0009146884604464FF480354FF4A076002793
:10070000DFF884A016E000BFD4F8040328420DD01F
:10071000A05958B1C4F84853C4F80853314620468C
:1007200000F0F7F85AF82810F8B28847361D6D0027
:10073000B6B27F1C4F45E7D3D4F804034FF4807161
:1007400010F0010F09D0D4F8000130B1204600F0BC
:10075000E0F85AF8281004208847D4F804034FF42E
:10076000827110F0020F0CD0D4F80401002808D0D8
:10077000204600F0CEF85AF82810BDE8F0470520D2
:100780000847BDE8F08700000C000020026813460F
:1007900002E08A4204D01268002AFAD10B6001609C
:1007A000704700001CB50120FFF742FF00F044F83D
:1007B00008B1FFF71BFF002000F05CF81449154A50
:1007C000D1E90001CDE9000140F6FF70ADF800006D
:1007D0000F486946083000F045F908B1FFF706FFF9
:1007E0000B480121083000F083F909480123182241
:1007F0000021083000F0E8F808B1FFF7F7FE0448E0
:10080000083000F023F940BF20BF20BFFBE7000005
:10081000400B00002D0B000000F180400068002814
:1008200000D00120704708B500F180400021016030
:100830000068009008BD000070B50C4C01252078C0
:1008400008B185260BE00020A06060602061E060B8
:10085000074800F083F8064600F06AF8257000F0BB
:100860005FF800B1A570304670BD00001800002090
:10087000D106000070B5104D0446A87838B114B107
:100880006168012088470020FFF7BBFE0CE00020D4
:10089000FFF7B7FE24B1084821461030FFF776FF76
:1008A000E86808B900F06AF8E868401CE860BDE84C
:1008B00070400020FFF7A7BE1800002070B541EA85
:1008C0004201DDE904564FF0A04441EA830141EAC8
:1008D000052104EB800041EA0641C0F8001770BD15
:1008E0004FF0A042D2F804350121814021EA0300F3
:1008F000C2F808051940C2F80C15704701224FF0E4
:10090000A043824011B1C3F808257047C3F80C25F5
:10091000704708B5002242504058009008BD0000C2
:1009200002480068002800D0012070470004014000
:1009300008480068012110F0010F06D14FF0E020B7
:10094000C02280F800248430C16703490120086078
:100950007047000000E100E018050040064902462B
:1009600000200B790BB1852070470A6001220A71C3
:1009700000224A71704700000000002070B54FF45B
:100980008270FFF750FF02204107C1F804030B4BB0
:10099000196841F0807018600948026842F001044B
:1009A000046044684FF40A554668361BAE42FBD3D8
:1009B0000260196003490120086070BDFCED00E091
:1009C000001000E0080000402DE9F04105464FF41A
:1009D000A07000EB810086B228684FF480348C4010
:1009E000C0F848432868C0F8084322F07F406A797D
:1009F000154F02EB42023A445278002A2A6802EB71
:100A00008101C1F8400512D02968D1F80425111AD6
:100A1000824202D26FF07F400144687900EB4000CF
:100A200038448078884202DD0D20BDE8F08133B182
:100A300031462868FFF76DFF2868C0F8044328682E
:100A4000C0F844430020F0E70800002001680122BC
:100A50000A604079024A00EB4000022111547047BD
:100A60000800002030B54379204C44F82320427917
:100A7000231F02EB42029A5C0AB1082030BD90F9B4
:100A800004208C78002A4FEA441404DB02F1E022AF
:100A900082F8004405E002F00F0202F1E02282F841
:100AA000144D90F904200124002A09DB02F01F05EF
:100AB00004FA05F55209920002F1E022C2F8005151
:100AC00002680D88C2F8085545790A7905EB450595
:100AD0001D446A704279C97802EB42021A4491704F
:100AE000407900EB40001C54002030BD0C00002079
:100AF00070B50E4605464FF4807101240068FFF77B
:100B000008FF2868C0F84443002E02D02868C0F8C7
:100B1000044370BD03490860034801680029FCD004
:100B20007047000004E5014000E4014020B10428C2
:100B300004D11120FFF7D4BE1220FBE7704700005C
:100B4000000006410000000000B000400B00030060
:100B5000111213140D0E0F10780B0000000000206E
:100B6000180000009C050000900B000018000020F9
:100B700018200000AC05000000000000000000008C
:100B80000000000000000000000000000090D00302
:0400000500000201F4
:00000001FF
