:020000040000FA
:1000000030200020150200001D0200001F02000029
:100010002102000023020000250200000000000071
:1000200000000000000000000000000027020000A7
:1000300029020000000000002B0200002D02000039
:100040005D0200002F0200002F0200002F020000BE
:100050002F0200002F0200002F0200002F020000DC
:100060002F0200002F0200002F020000B502000046
:100070002F0200002F0200002F0200002F020000BC
:100080002F0200002F0200002F0200002F020000AC
:100090002F0200002F0200002F0200002F0200009C
:1000A0002F0200002F0200002F0200002F0200008C
:1000B0002F0200002F0200000000000000000000DE
:1000C0002F0200002F0200002F0200002F0200006C
:1000D0002F0200002F0200002F0200002F0200005C
:1000E0002F0200002F0200002F020000000000007D
:1000F000000000002F020000000000002F0200009E
:1001000000000000000000000000000000000000EF
:1001100000000000000000000000000000000000DF
:1001200000000000000000000000000000000000CF
:1001300000000000000000000000000000000000BF
:1001400000000000000000000000000000000000AF
:10015000000000000000000000000000000000009F
:10016000000000000000000000000000000000008F
:10017000000000000000000000000000000000007F
:10018000000000000000000000000000000000006F
:10019000000000000000000000000000000000005F
:1001A000000000000000000000000000000000004F
:1001B000000000000000000000000000000000003F
:1001C000000000000000000000000000000000002F
:1001D000000000000000000000000000000000001F
:1001E000000000000000000000000000000000000F
:1001F00000000000000000000000000000000000FF
:10020000DFF80CD000F018F800480047A9060000FD
:10021000302000200648804706480047FEE7FEE7FA
:10022000FEE7FEE7FEE7FEE7FEE7FEE7FEE7FEE7A6
:10023000C502000001020000064C074D06E0E06820
:1002400040F0010394E8070098471034AC42F6D31D
:10025000FFF7DAFF7C0A00009C0A000070B54FF43B
:100260008076304600F05AFA114CB50560B1304640
:1002700000F05BFA0120C5F80803607920B901207D
:1002800060712168002088474FF48276304600F084
:1002900045FA00280AD0304600F047FA0220C5F897
:1002A00008032168BDE870400120084770BD0000C8
:1002B0000000002003220021014800F099B900004D
:1002C00000B0004030B54FF080520023D2E94C100E
:1002D000082906D1CC06C4F80C31C4F81031624CA0
:1002E0002360082955D1614B1B68614C23605F4B2B
:1002F0001B1D1B68241D23605C4B08331B68241DD9
:1003000023605A4B0C331B68241D2360574B10335A
:100310001B68241D2360554B14331B68241D236068
:10032000524B18331B68524C203423604F4B1C3304
:100330001B68241D23604D4B20331B68241D236044
:100340004A4B24331B68241D2360484B28331B6809
:10035000241D2360454B2C331B68241D2360434B15
:1003600030331B68424C40342360404B34331B68AD
:10037000241D23603D4B38331B68241D23603B4BF9
:100380003C331B68241D2360384B40331B68241DFD
:100390002360082904D1030002D1374C354B236078
:1003A000082904D1030002D1344CFB23236008291F
:1003B00008D1030006D1324B92F858521C6865F3FD
:1003C00003041C60082904D1030002D12D4C8B01C9
:1003D0002360082906D12C480168C90702D06FF0B4
:1003E000010101602948016841F470010160BFF317
:1003F0004F8FBFF36F8FD2E94C104FF010220829B6
:1004000006D1032804D9D2F8080217492031086020
:10041000D2F80002002803DBD2F8040200281FDA19
:10042000012000F009FB1221C2F8001218480368ED
:10043000002BFCD0C2F8041201680029FCD0002077
:1004400000F0FAFABFF34F8F10487C380168114A68
:1004500001F4E06111430160BFF34F8F00BFFDE77E
:100460000E490D48086030BD3805004004040010F6
:1004700020C50040488103008C56004018F500401C
:10048000E40E0040409602400004004088ED00E089
:1004900000E401400400FA050090D003140000209D
:1004A00002E008C8121F08C1002AFAD1704770473D
:1004B000002001E001C1121F002AFBD1704700009B
:1004C00072B609480068C00700D000BEBFF34F8F66
:1004D0000548E4380168054A01F4E0611143016010
:1004E000BFF34F8F00BFFDE7F0ED00E00400FA0519
:1004F0000EB500210091CDE901106A4644F20100D9
:10050000FFF7DEFF0EBD00F003B800F009B80000F1
:1005100072B602480168491C016070471000002053
:1005200003490868401E086000D162B670470000A9
:10053000100000202DE9FC410646C0074FF00005E1
:100540000ED0104F00240122385D00950023114683
:10055000019500F035F9641C042CF4D300F01CF86C
:10056000B0070DD5074E0024361D0022305D032351
:1005700000951146019500F023F9641C042CF4D376
:10058000BDE8FC81740A00000249085C012100F00A
:1005900055B90000740A000010B500242046FFF78A
:1005A000F3FF641C042CF9D310BD000070B5084C97
:1005B000050009D010342168002907D008682060A0
:1005C000496828468847F6E70834F4E770BD00001C
:1005D00018000020054A012120B1012805D19170A1
:1005E000FFF7E4BF51700020FAE7704718000020C1
:1005F0002DE9F0479146884604464FF480354FF484
:10060000A0760027DFF884A016E000BFD4F804032A
:1006100028420DD0A05958B1C4F84853C4F8085323
:100620003146204600F01DF95AF82810F8B28847E4
:10063000361D6D00B6B27F1C4F45E7D3D4F80403D6
:100640004FF4807110F0010F09D0D4F8000130B1DF
:10065000204600F006F95AF8281004208847D4F8FC
:1006600004034FF4827110F0020F0CD0D4F804018F
:10067000002808D0204600F0F4F85AF82810BDE809
:10068000F04705200847BDE8F08700000C00002077
:100690000268134602E08A4204D01268002AFAD1A6
:1006A0000B600160704700001CB50120FFF742FF9E
:1006B00000F044F808B1FFF71BFF002000F05CF8E1
:1006C0001449154AD1E90001CDE9000140F6FF7057
:1006D000ADF800000F486946083000F055F908B140
:1006E000FFF706FF0B480121083000F093F9094895
:1006F000012318220021083000F0F8F808B1FFF7B4
:10070000F7FE0448083000F033F940BF20BF20BF97
:10071000FBE70000640A0000510A000000F180407D
:100720000068002800D00120704708B500F1804023
:10073000002101600068009008BD000070B50C4CFD
:100740000125207808B185260BE00020A0606060BC
:100750002061E060074800F0A9F8064600F090F834
:10076000257000F085F800B1A570304670BD00001E
:1007700018000020D505000070B5104D0446A8787B
:1007800038B114B16168012088470020FFF7BBFE33
:100790000CE00020FFF7B7FE24B1084821461030D6
:1007A000FFF776FFE86808B900F090F8E868401CA9
:1007B000E860BDE870400020FFF7A7BE18000020E9
:1007C0002DE9FF411C46DDE90A7815460E466846CC
:1007D00000F010F846EA450141EA840141EA0722A7
:1007E00042EA0841009A00EB8200C0F80017BDE819
:1007F000FF8100000168202902D24FF0A04070471D
:1008000001F01F0101600148704700000003005023
:10081000202802D24FF0A04202E0074A00F01F0059
:10082000D2F804350121814021EA0300C2F808050D
:100830001940C2F80C1570470003005038B5012468
:100840000090684631B1FFF7D5FF00998C40C0F8A1
:10085000084538BDFFF7CEFF00998C40C0F80C4525
:1008600038BD08B5002242504058009008BD000035
:1008700002480068002800D00120704700040140B1
:1008800008480068012110F0010F06D14FF0E02068
:10089000C02280F800248430C16703490120086029
:1008A0007047000000E100E01805004006490246DC
:1008B00000200B790BB1852070470A6001220A7174
:1008C00000224A71704700000000002010B54FF46C
:1008D0008270FFF72AFF02204107C1F80403024992
:1008E0000120086010BD0000080000402DE9F04123
:1008F00005464FF4A07000EB810086B228684FF4E3
:1009000080348C40C0F848432868C0F8084322F07F
:100910007F406A79154F02EB42023A445278002A2E
:100920002A6802EB8101C1F8400512D02968D1F88C
:100930000425111A824202D26FF07F400144687987
:1009400000EB400038448078884202DD0D20BDE88D
:10095000F08133B131462868FFF783FF2868C0F87B
:1009600004432868C0F844430020F0E70800002052
:10097000016801220A604079024A00EB400002212E
:10098000115470470800002030B54379204C44F8DA
:1009900023204279231F02EB42029A5C0AB108200D
:1009A00030BD90F904208C78002A4FEA441404DB0F
:1009B00002F1E02282F8004405E002F00F0202F1A9
:1009C000E02282F8144D90F904200124002A09DB6A
:1009D00002F01F0504FA05F55209920002F1E02227
:1009E000C2F8005102680D88C2F8085545790A79A5
:1009F00005EB45051D446A704279C97802EB420255
:100A00001A449170407900EB40001C54002030BD26
:100A10000C00002070B50E4605464FF4807101248D
:100A20000068FFF71EFF2868C0F84443002E02D07C
:100A30002868C0F8044370BD034908600348016892
:100A40000029FCD07047000004E5014000E40140AB
:100A500020B1042804D10D20FFF7DABE0E20FBE7F9
:100A600070470000000006410000000000B0004098
:100A70000B0003000D0E0F100B0C18199C0A000040
:100A80000000002018000000A0040000B40A0000CC
:100A90001800002018200000B00400000000000032
:100AA0000000000000000000000000000000000046
:040AB0000090D003DF
:0400000500000201F4
:00000001FF
