:020000040000FA
:10000000D02B0020F90200000103000003030000D0
:1000100005030000070300000903000000000000C2
:100020000000000000000000000000000B030000C2
:100030000D030000000000000F030000110300008A
:100040001303000029050000CD0900001303000080
:100050001303000013030000F50300001303000066
:1000600069090000130300001303000013030000DC
:100070001303000013030000130300001303000028
:1000800013030000B9050000130300001303000070
:1000900013030000C9050000130300001303000050
:1000A00013030000130300001303000013030000F8
:1000B0001303000013030000000000000000000014
:1000C00013030000130300001303000013030000D8
:1000D00013030000130300001303000000000000DE
:1000E0000000000000000000000000000000000010
:1000F0000000000000000000000000000000000000
:1001000000000000000000000000000000000000EF
:1001100000000000000000000000000000000000DF
:1001200000000000000000000000000000000000CF
:1001300000000000000000000000000000000000BF
:1001400000000000000000000000000000000000AF
:10015000000000000000000000000000000000009F
:10016000000000000000000000000000000000008F
:10017000000000000000000000000000000000007F
:10018000000000000000000000000000000000006F
:10019000000000000000000000000000000000005F
:1001A000000000000000000000000000000000004F
:1001B000000000000000000000000000000000003F
:1001C000000000000000000000000000000000002F
:1001D000000000000000000000000000000000001F
:1001E000000000000000000000000000000000000F
:1001F00000000000000000000000000000000000FF
:10020000DFF80CD000F0C6F8004800473D28000099
:10021000D02B002030B4044654E8000F0D4644E8CB
:100220000053002BF8D1156030BC704730B4044641
:1002300054E8000F40EA010544E80053002BF7D1D1
:10024000156030BC704730B4044654E8000F00EA33
:10025000010544E80053002BF7D1156030BC70470E
:1002600030B4044654E8000F80EA010544E8005326
:10027000002BF7D1156030BC704730B4044654E809
:10028000000F00EB010544E80053002BF7D1156087
:1002900030BC704730B4044654E8000FA0EB0105B1
:1002A00044E80053002BF7D1156030BC704770B4A0
:1002B00004464FF0000054E8006F0D68AE4207BFDF
:1002C00044E80023012044E800630E60002B1CBFBB
:1002D0000020F0E770BC704730B4044654E8000FCB
:1002E00088422CBF451A054644E80053002BF5D13F
:1002F000156030BC7047000006488047064800473C
:10030000FEE7FEE7FEE7FEE7FEE7FEE7FEE7FEE7C5
:10031000FEE7FEE73D0600000102000000487047CE
:100320001C71000040EA01039B0703D009E008C9E3
:10033000121F08C0042AFAD203E011F8013B00F8AA
:10034000013B521EF9D27047D2B201E000F8012BF6
:10035000491EFBD270470022F6E710B513460A4645
:1003600004461946FFF7F0FF204610BD421C10F866
:10037000011B0029FBD1801A704730B504460020CC
:10038000034600E05B1C934203D2E05CCD5C401B63
:10039000F8D030BD064C074D06E0E06840F00103A0
:1003A00094E8070098471034AC42F6D3FFF72CFFCF
:1003B000E07100000072000030B58C1810F8012BBD
:1003C00012F00F0301D110F8013B120906D110F809
:1003D000012B03E010F8015B01F8015B5B1EF9D112
:1003E00001E001F8013B521EFBD1A142E6D30020FF
:1003F00030BD00002DE9F8430025DFF894804FF46C
:10040000807601242F460095304603F053F938B129
:10041000D8F80403204203D0304603F041F92543C5
:10042000361D64007F1CB6B2082FEDD34FF4BE74A6
:10043000204603F03FF948B1204603F031F945F07A
:1004400000456A460121002003F008F915F0FF0F6E
:1004500016D0012600242E420ED008EB8401D1F8DC
:100460001005D1F81015C0F304200A4AC1F3014168
:1004700052F8242002B190477600641C082CEAD37D
:10048000002D02DA684606F039FABDE8F88300006C
:10049000006000406401002000F01F020121914033
:1004A0004009800000F1E020C0F88012704700F0A1
:1004B0001F02012191404009800000F1E020C0F8B6
:1004C0008012704700F01F02012191404009800016
:1004D00000F1E020C0F88012704700F01F020121F7
:1004E00091404009800000F1E020C0F88011704781
:1004F00000F01F02012191404009800000F1E0203E
:10050000C0F8001170474907090E002806DA00F00C
:100510000F0000F1E02080F8141D704700F1E0208A
:1005200080F800147047000070B5204D28696C7881
:10053000401C2861687D10B11D4800F05AFD2878E4
:1005400003281AD11B48D0F80C01B0B1012C04D0FB
:10055000022C0AD01648123023E02869032816D04E
:100560001348083000F045FD11E02869022812D038
:100570000F480D3000F03DFD0DE0032C0FD2012C93
:1005800005D0022C07D0BDE8704004F051BBBDE897
:10059000704004F079BBBDE8704004F08BBD0448A6
:1005A0002830BDE8704000F024BD00008008002025
:1005B00038030A000010004002490248091F096878
:1005C000006808472800002030B51B4C85B0002586
:1005D000012080F31088D4F8D40038B3D4F8D000C8
:1005E00000EB800004EB800001798DF80010816839
:1005F000C26803694069CDE90330CDE90112D4F83E
:10060000D400401EC4F8D400D4F8D000401CC4F874
:10061000D000D4F8D0000A2801D3C4F8D05000206C
:1006200080F31088216868468847D1E7002080F36E
:10063000108805B030BD00009C080020F0B5A4492A
:10064000A4484FF080540B68D4F830210078D4F8D7
:100650003411551CC0F3031006D094460127002620
:10066000BCF1060F03D00AE003F0FF0CF6E7B4F884
:100670002453DFF864C2C5F30425CCF80050DDB282
:10068000062D06D1032804D1DFF854C2934DCCF8CF
:100690007450551C04D09446BCF1060F03D00AE0F8
:1006A00003F0FF0CF8E7D4F84452DFF838C2C5F382
:1006B0004235CCF80050DDB2062D08D1032806D112
:1006C000894DD5F800C02CF0807CC5F800C0551CC1
:1006D00004D09446BCF1060F03D00BE003F0FF0CEE
:1006E000F8E74FF08045C5F80C61C5F810617D4D05
:1006F0002D1F2E60DDB2062D08D1032806D1DFF8AC
:10070000E4C103250CF1640CCCF80050DDB2062DD9
:1007100010D103280ED1DFF8D4C10525CCF8005044
:10072000724D78352F60714D08352E600CF104063E
:100730003F253560551C04D016460D46062E03D0C5
:100740005BE0DEB20546F9E7ED1E012D55D9684D97
:100750002D68684E3560664D2D1D2D68361D35603F
:10076000634D08352D68361D3560614D0C352D689B
:10077000361D35605E4D10352D68361D35605C4D7B
:1007800014352D68361D3560594D18352D68594E74
:1007900020363560564D1C352D68361D3560544D5C
:1007A00020352D68361D3560514D24352D68361D98
:1007B00035604F4D28352D68361D35604C4D2C3534
:1007C0002D68361D35604A4D30352D68494E40360E
:1007D0003560474D34352D68361D3560444D38350C
:1007E0002D68361D3560424D3C352D68361D35600F
:1007F0003F4D40352D68361D3560551C03D01646DB
:10080000062E02D007E0DEB2FAE7D4F858523A4E8C
:1008100005F04F053560551C03D01346062B02D05A
:1008200008E0DBB2FAE735480368DB0702D06FF077
:1008300001030360062A07D1C91E022904D93048E2
:10084000016841F48061016027487438016841F40F
:1008500070010160BFF34F8FBFF36F8FD4E94C106D
:100860004FF01022062907D1C01E032804D9D2F860
:1008700008021C491C310860D2F80002002803DB82
:10088000D2F8040200281FDA012005F0EBFF152141
:10089000C2F800121B480368002BFCD0C2F80412F7
:1008A00001680029FCD0002005F0DCFFBFF34F8F6A
:1008B0000D48F0380168144A01F4E0611143016009
:1008C000BFF34F8F00BFFDE7114910480860F0BD2E
:1008D000E00F00F0E80F00F0403501400DF0ADBA38
:1008E00000C007403C050040FCED00E01056004011
:1008F0000404001020C50040E40E00400004004045
:100900003C17004000E401400400FA050090D003C9
:10091000C0000020124A10B50021104B126809E0F7
:1009200053F82140844203D10E4800F062FB13E0EB
:10093000491CC9B29142F3D3084A002112F11802AE
:1009400001EB011302EB4303834201D1012010BDEF
:10095000491CC9B20629F3D3002010BDE80A0020C3
:1009600030010020F900030070B5144E4FF48030C0
:10097000C6F808030025C6F84051114C606810B94C
:10098000104800F036FBA57062680123656073644F
:100990000D480168001F00681430B1F5804F04D283
:1009A000B0F5404F01D9637005E0814201D30120C9
:1009B00000E000206070BDE87040104700800040FB
:1009C00008010020E500040044850040014800685B
:1009D000004700001800002002E008C8121F08C1EC
:1009E000002AFAD170477047002001E001C1121FB0
:1009F000002AFBD17047000072B605F0E7F800BF8F
:100A000004F042FF0028FBD111481249401AC408E3
:100A1000012000EB044010A105F050F811480068D7
:100A2000C00700D000BE022000EB04400EA105F07C
:100A300045F8BFF34F8F0B48E43801680E4A01F4C4
:100A4000E06111430160BFF34F8F00BFFDE700007D
:100A50004872000010720000466174616C2065727B
:100A6000726F7200F0ED00E053797374656D20725F
:100A700065736574000000000400FA050EB50021DE
:100A80000091CDE901106A4644F20100FFF7B4FF7E
:100A90000EBD00F003B800F009B8000072B60248BD
:100AA0000168491C01607047200000200349086864
:100AB000401E086000D162B6704700002000002090
:100AC0002DE9F041064608680C46411C4FF0A0474E
:100AD0004FF0010506D005FA00F1C7F808152068A7
:100AE00002F096FD6068411C02D0002102F07EFDFC
:100AF0003168A069C1F82405607D227D316810430A
:100B0000C1F86C05D4E900123068C0F81425C0F8AB
:100B10000C15207D012815D1A068411C02D00021B0
:100B200002F064FDE068411C05D08540C7F8085517
:100B3000E06802F06DFDD4E902123068C0F80825C3
:100B4000C0F81015BDE8F0812DE9F04106460868AF
:100B50000C46411C4FF0A0474FF0010506D005FAA6
:100B600000F1C7F80815206802F05CFD6068411CC0
:100B700002D0002102F043FD3168A069C1F82405CC
:100B8000607D217D32680843C2F86C05D4E900120B
:100B90003068C0F80C15C0F81425207D012815D147
:100BA000A068411C02D0002102F029FDE068411C30
:100BB00005D08540C7F80855E06802F033FDD4E958
:100BC00002123068C0F80825C0F81015BDE8F081A1
:100BD0000649095C4FF0A040D0F81005C84010F05D
:100BE000010000D0012080F001007047EC6F000090
:100BF0002DE9FC410646C0074FF000050ED0104F0E
:100C000000240122385D009500231146019502F071
:100C1000A5FC641C042CF4D300F01CF8B0070DD51F
:100C2000074E0024361D0022305D03230095114637
:100C3000019502F093FC641C042CF4D3BDE8FC8104
:100C4000E86F00000249085C012102F01DBD0000B0
:100C5000E86F000010B500242046FFF7F3FF641C86
:100C6000042CF9D310BD042801D2FFF7B1BF002036
:100C7000704710B50024FFF7BBFF204610BD0000F1
:100C80002DE9F0470546861C91460F464FF0010AB4
:100C90000020FFF7FEFE1B4C04F21C486068386021
:100CA000D4E90101184F401A3968081A0EE00121F1
:100CB000404601F0BEFF01F06FFD0146404601F0E5
:100CC000B8FFD4E90101401A3968081A401C86426D
:100CD000EDD8B9F1000F03D0052065F3891002E0CB
:100CE000062065F39F5061683A68114004EB81016A
:100CF000C8606068304460600020FFF7CCFE50465A
:100D0000BDE8F087A80300205000002070B50D4614
:100D100004460A2902D10D21FFF7F8FFA0682268D6
:100D2000411CA1601554D4E90101814204D320463D
:100D3000BDE8704002F019BB70BD00000448816836
:100D40004068814201D101207047002070470000B7
:100D5000A80300200249084490F9300070470000C1
:100D60006401002010B50021024801F06DFF80F3FE
:100D7000100010BDC407002002490A88028089784B
:100D800081707047447000002DE9F0418AB020273F
:100D90000026099702F084FD054602F099FD804681
:100DA00002F0FCFEC82002F087FE052002F0BCFE27
:100DB000002002F045FD02F0F3FC00208DF8200039
:100DC00004460022012108A801F058FB30B10020A0
:100DD00002F0F2FE641CE4B2642CF2D3C82000F0EE
:100DE000D3F801208DF820000146002208A801F068
:100DF00045FB08B31E480078F0B1002002F052FD18
:100E000000281DDD09AA69460020099702F0E2FCCE
:100E1000B0B19DF80000082812D11548DDF8011086
:100E20000C38C0F803100DF1010001F089FB00201F
:100E300001F030FA012603E04FF4967000F0A4F8B8
:100E40004FF4AF7000F0A0F802F0A8FE002002F00E
:100E5000F7FC002002F004FD284602F02DFE40467B
:100E600002F062FE02F09CFC0AB03046BDE8F08160
:100E7000B6000020002207E010F8013BFF2B01D054
:100E800000207047521CD2B28A42F5D3012070472D
:100E9000F0B50746204889B0154600780E4698B14F
:100EA000012814D0022834D110221C4904A8FFF7CD
:100EB00039FA1B490D2204A8FFF734FA0024164A18
:100EC0006846521C21460DE010221449F3E7102217
:100ED000124904A8FFF726FA04A800F06BF8EDE722
:100EE000052C02D2135D035500E00155641CE4B2E9
:100EF000102CF5D302F016F804A802F025F8694684
:100F0000084601F0E5FF2B466A463146384601F0B7
:100F100077FB09B0F0BD0000A4000020477000007E
:100F2000E807002070B50C4605460D2910D801F0E1
:100F300067F808B1012070BD0648007840B901F09B
:100F400071F928B121462846BDE8704001F058B833
:100F5000002070BDAA000020014908707047000001
:100F6000A400002001460D220148FFF7DBB9000074
:100F7000E807002003490268C1F8012000794871A0
:100F800070470000A400002010B5044602F09EFC4B
:100F90006043400004D00349BDE810408001084789
:100FA00010BD000061700000014804F055BF000052
:100FB000001000000349D1F807200260C97A0171CE
:100FC00070470000AA00002041F6FF700078FF285B
:100FD00001D0012070470020704701EBC10101F5ED
:100FE00080510A6802604A684260097A017270475B
:100FF000704701F013BE002101F021BE7047704719
:10100000FFFFFFFFFFFFFFFFFFFFFFFFFFFFFFFFF0
:10101000FFFFFFFFFFFFFFFFFFFFFFFFFFFFFFFFE0
:10102000FFFFFFFFFFFFFFFFFFFFFFFFFFFFFFFFD0
:10103000FFFFFFFFFFFFFFFFFFFFFFFFFFFFFFFFC0
:10200000F0B50746081D89B0C6B206208DF810004D
:1020100004AC0D46601CFEF7AFFE2A463946201D73
:10202000FEF780F9174D287808B1002000E0022063
:10203000FEF792FF701EC2B2611C601CFEF728FF03
:1020400001200090002301AA314604A800F02CFAD8
:1020500018B99DF804000B2802D0002009B0F0BD8B
:1020600001AC0322A01DA11DFEF712FFA01D00F070
:10207000BBFA0028F2D0287810B9601CFEF77AFF6E
:102080000120EBE7AA000020F0B54E23B3FBF2F5E8
:10209000022303704F23841804F8013C81B101230B
:1020A000541E0BE003F003068E5DB6FBF5F705FB4F
:1020B000176605FB0366C6545B1CDBB2A342F1DB6B
:1020C00001210DE04318445C13F8013CE31ADBB234
:1020D000052B03D2C3F1050323444354491CC9B261
:1020E0009142EFD3F0BD0000F0B52F4D87B0002630
:1020F0002878012701ACB0B103208DF80400601CE2
:10210000FEF73AFE0020FEF727FF0322611C601C49
:10211000FEF7BEFE002303AA042101A8009700F0E9
:10212000C3F9A0B117E002208DF804000521601C5E
:1021300000F072F90122062101A800F09FF950B1C8
:10214000601CFEF717FF2F70002007B0F0BD9DF850
:102150000C00092802D02E700320F6E703AC0922F8
:10216000601C611CFEF794FE601C00F03DFAC0B1DB
:102170009DF8100020B1012805D0022800D12E7052
:102180009DF81000E1E7601D00F062F90D2107489D
:1021900000F042F90548FEF7E5FE012000F07AF86C
:1021A000EDE72E700220D0E7AA000020F5070020FE
:1021B00040F6817041F27E01095CFF2905D00F20B5
:1021C000B0EB111F07D008097047401E00B200286D
:1021D000F0DA0E20704701F00F0070473EB5104C4A
:1021E00000202070FEF7F0FE98B94FF4805090F870
:1021F0007E00FF280DD0FFF7DBFF01460E2808D236
:102200006846FEF7EAFE0098C4F8030001A800F053
:102210001FF9BDE83E400248C01C00F091B9000023
:10222000AA00002010B58AB004208DF80400012017
:1022300001460090002306AA01A800F035F930BB42
:102240009DF818000A2822D10DF11900FEF792FE20
:1022500005208DF8040001AC601CFEF78DFD0D21FA
:10226000201D00F0D9F8201DFEF77CFE0120FEF7AE
:1022700073FE1022611C601CFEF70AFE0122112170
:1022800001A800F0FBF810B101200AB010BD002039
:10229000FBE700002DE9FE4300265E4FB0463446C2
:1022A00000285ED00025E94629466846FEF795FEDF
:1022B00058490422C91C6846FEF75FF838B95549E9
:1022C0000522C91D09F10400FEF757F880B16D1C05
:1022D000EDB20E2DE8D3002529466846FEF77DFEB7
:1022E0004C490422C91C6846FEF747F810B10CE0BF
:1022F0002C4632E0052109F10400FEF7BBFD20B1B8
:10230000D7F807000190F87A13E06D1CEDB20E2D9E
:10231000E2D3002529466846FEF75FFE092168469C
:10232000FEF7A8FD48B157F8030F009078680190B8
:10233000387A8DF808002C4631E06D1CEDB20E2D78
:10234000E8D3B8F1000F07D004EBC40069460922B6
:1023500000F5805003F0BAFD3EB3FEF735FE28B31A
:1023600056E0002421466846FEF737FE294904223C
:10237000C91C6846FEF701F80028EED0641CE4B2E0
:102380000E2CEFD3002421466846FEF726FE0421DA
:102390006846FEF76FFD20B1D7F8030000900126D4
:1023A000D2E7641CE4B20E2CEDD331E0FFF700FF5E
:1023B000A0422DD00E2C2BD04FF48051002040F69F
:1023C00081720F2591F87E10531C04E041F27E01CA
:1023D0009042095C0DD0CE43360706D0B5EB111FF5
:1023E0000AD164F31F11C9B20AE001F0F0012143E0
:1023F00006E044F0E00103E0401C00B29842E5DB57
:1024000041F27E02104403F03FFD0120BDE8FE834F
:102410000020FBE7AA000020F0B50B4B0025C3F815
:10242000005101241C602A46084E09E0D3F80071CF
:10243000002FFBD037688754C3F80051521CD2B22A
:102440008A42F3D35C60F0BD00D0004008D5004064
:1024500003490268C1F807200079C872704700007C
:10246000AA00002010B5044601F074F900E030BF66
:1024700001F026FAB0EB440FF9D310BD10B5094CAA
:10248000134600226270A2700A460146184601F007
:1024900019F908B910BD30BF60780028FBD0A078CA
:1024A00010BD0000AA0000202DE9FC4780460A204C
:1024B0000A9D009016460F46284601F07DFB012438
:1024C00001F062F901F06AFA0028FBD101F0F6F997
:1024D00081461E2001F008FB01F062F92A463946C8
:1024E0004046FFF7CBFFE0B10224284601F064FB31
:1024F00007208DF804000A20FFF7B4FF2A460121C7
:1025000001A8FFF7BBFF60B1284601F0CBF940B14D
:10251000202000906A463146284601F05BF900B160
:10252000002401F031F900BF01F038FA0028FBD196
:10253000484601F0D9FA01F033F92046BDE8FC879E
:102540002DE9FF41054601F029FA264C0646EDB378
:1025500028786978EA7800EB0120A978090401EB72
:102560000261471801F01AFB204601F033FA50B11E
:102570000021084601F01AFA28B1384601F03AFA6B
:1025800008B1012402E0012407E037B121460846E2
:1025900001F00CFA08B1012700E00027641CE4B246
:1025A000082CF2D301F070F90446C2B229466846FD
:1025B000FFF76AFD87B12146684601F02BFA58B152
:1025C0000120002E05D001F0EBF800E007E030B16B
:1025D000012004B0BDE8F0810020002EF9D00020D9
:1025E000F7E700000406080A10B503220349FDF7C7
:1025F000C4FE08B1002010BD012010BD44700000D1
:1026000070B5002409E000BF11F8015B12F8016BFE
:102610007540641C00F8015BE4B29C42F4D370BDC9
:102620000278521C027002788A4201D300210170A4
:10263000704700002DE9FC5F0E008346DDE90C4782
:10264000C6F1000098469246814600D4084601250E
:1026500003E000BF90FBFAF06D1C5045FADAA84584
:1026600000D9454624B1002E01DB780700D5641E51
:10267000B80702D5B8F1000F0AD0F80708D13CB16D
:10268000A54205D220215846641EFEF73FFBF6E71F
:10269000002E02DA4E462D2102E0780703D52B21C9
:1026A0005846FEF733FB07F0030002280BD1B8F1C0
:1026B000000F08D13CB1A54205D230215846641E16
:1026C000FEF724FBF6E7CDE9004743465246314684
:1026D000584604F02FFCBDE8FC9F000070B50D4685
:1026E000044600684FF4887103F030FE4FF4907197
:1026F000206803F02BFE4FF49271206803F026FE51
:102700004FF4A271206803F021FE4FF4AC712068F1
:1027100003F01CFE20681249C0F804132068690702
:1027200040F30730090E002804DB00F1E02080F8B8
:10273000001405E000F00F0000F1E02080F8141D07
:10274000206840F30730002809DB00F01F02012158
:1027500091404009800000F1E020C0F8001170BDF8
:1027600010034200024600201268530713D502F0FE
:102770000300012802D002280CD105E0C2F3831027
:102780000B68801C184404E00223086803EB925293
:1027900010440860012070472DE9FF4100262448BD
:1027A00000F044FA2248001F074600F03FFA214C8F
:1027B0002149A06800900D6800E000986946284013
:1027C00004EB80000C30FFF7CDFF0028F5D101AA03
:1027D000009901EA050304EB8303491CDB6842F816
:1027E0002030401C00910228F2D3019800F0030031
:1027F00001280BD0022810D10198032101EB905041
:102800000099BDF80A6001EB900005E00198BDF861
:102810000A60C0F38310084400903846FEF7EBFBD3
:1028200008B10098A06004B03046BDE8F081000017
:10283000C0070020A8030020500000204FF000082F
:1028400088B04646042541460220FEF712FA08B138
:10285000FEF714F94FF48041002003F08BF908B122
:10286000FEF70CF903F002F8002001F053F828B944
:1028700001F010F800F50340FEF700F94B2001F0DD
:102880001BF94FF4FC7001F03FF928B901F002F890
:1028900000F50340FEF7F2F8FEF786FBFFF79EFC1B
:1028A00000F07EFF28B900F0F5FF00F50340FEF7C9
:1028B000E5F831483149401AC008032101EB0040D6
:1028C0002FA103F0FBF82D482B494FF00109081AFE
:1028D000C10809EB014A00BF02F0D6FF0028FBD176
:1028E00000273C462046FEF7BEF918B109FA04F06D
:1028F0003843C7B2641C042CF4D3F8438DF80000AD
:1029000026B10D216846FEF70DFB11E001F06CF9D0
:1029100001F070F911226946022000F0D3FE08B9D7
:1029200008E030BF01F06CF90028FAD001F06EF930
:10293000804607E0504620A103F0C0F802F0A4FF53
:102940000028FBD186F00106B8F1000F0ED15046E9
:102950001DA103F0B3F800BF02F096FF0028FBD1E1
:10296000FEF712FA10B1FFF7BFFB0546002DB7D1F5
:10297000FFF7BAFB0546B3E748720000107200008B
:1029800047617A656C6C2064796E616D6963207053
:10299000616972696E67206578616D706C6520731E
:1029A0007461727465642E20446576696365206D78
:1029B0006F64652E000000005458206669666F2021
:1029C0006572726F7220000047617A656C6C653ABF
:1029D000207472616E736D697373696F6E206661C6
:1029E000696C6564000000002DE9F047C5881E1D74
:1029F000B6FBF5F78946B6FBF5F1044605FB176C07
:102A0000407916686843DDF820A0F718001F874258
:102A100000D9C61A166001E02468491E0029FBD1BE
:102A2000A5EB0C078846B74216D818E004EB0C005B
:102A3000001D09EB0803BAF1000F3A4602D0014627
:102A4000184600E01946FDF76DFC2468F61B4FF0B0
:102A5000000CB844B54201D9374600E02F46002E9D
:102A6000E4D1BDE8F087000030B5024651B103F073
:102A700095F80021074C08E034F821301568AB4286
:102A800002D11160002030BD491C8142F4D30520E1
:102A900030BD0000000000002DE9F0415C490378E2
:102AA0000446D1E903020025082B77D2DFE803F0C2
:102AB000042B4877726E8795217C914208D238B1F9
:102AC00000EB81018A6C521C8A640168491C016018
:102AD000A17B2E4661F307062189677B61F31F46C0
:102AE0006189606861F30F05217B61F31745E17B24
:102AF00061F31F6501F0A8FC2A4631463846BDE85F
:102B0000F04100F037BE4869407D10B94148FEF7FA
:102B100070FA2F46218965F3070761F31F47618922
:102B2000267B61F30F05617B606861F31F6501F02F
:102B30008BFC2A4639463046BDE8F04100F010BE15
:102B4000217B914208D238B100EB81018A6C521C82
:102B50008A640168491C0160A07A217A60F3070544
:102B600061F30F25E17A667A676861F3174538B13A
:102B70001FB928482630FEF73CFA384601F064FCBD
:102B800029463046BDE8F041FEF739BABDE8F041CC
:102B9000FEF734BA00F008FFBDE8F08131E01E48CE
:102BA0004168491C416001780029F5D0816811B164
:102BB000491E8160F0E7BDE8F04100F0E5BDA37972
:102BC000934208D238B100EB830293685B1C936098
:102BD0004268521C42608A680CE0A379934208D292
:102BE00038B100EB830293685B1C93604268521C0F
:102BF00042604A68002ACFD061792079BDE8F0416F
:102C00001047BDE8F04103487F30FEF7F2B90000FD
:102C1000C40000203D0405000408002002490F22E2
:102C20000A70886170470000C4000020012100F094
:102C300010B808B56A46FDF720FB009808BD08B536
:102C40006A46FDF700FB08BD08B56A46FDF7E2FAE3
:102C500008BD08B56A46FDF7E9FA009808BD08B551
:102C60006A46FDF717FB009808BD70B504460025BD
:102C70002846FDF70EFF21686268086890420ED969
:102C8000401E08600178238AE26801FB0325227A4E
:102C90002168101AC0B20A79824200D2087100205D
:102CA000FDF7F9FE284670BD70B505460C460020BC
:102CB000FDF7EFFEE868298A201AB0FBF1F12A68D7
:102CC0001068431C13600170BDE870400020FDF7E0
:102CD000E2BE10B530B1017A42680368891AC9B200
:102CE0001A6006E00E2010BD03681A68541C1C60B0
:102CF0001170491EC9B2F7D200680021017108465F
:102D000010BDC20800F007030120895C984008400C
:102D10007047000070B5074C251F20682968496876
:102D2000884202D30448FEF764F928682168806865
:102D3000405C70BD000100204400010001480068B3
:102D4000704700000001002010B5044605480068E7
:102D50004068A04202D80448FEF74BF90148001D24
:102D6000046010BDFC0000204C00010001484068D8
:102D7000704700000001002010B5044605480068B7
:102D80000068A04202D80448FEF733F90148001D4C
:102D9000446010BDFC0000205800010010B5040084
:102DA00002D10548FEF725F9044800210460001D02
:102DB0000160416010BD000027000100FC00002000
:102DC0000948021F4168491C416012681368994212
:102DD00008D3002343600168491C01605268914296
:102DE00000D303607047000000010020002839D0A4
:102DF000401E00BF00BF00BF00BF00BF00BF00BF3C
:102E000000BF00BF00BF00BF00BF00BF00BF00BFCA
:102E100000BF00BF00BF00BF00BF00BF00BF00BFBA
:102E200000BF00BF00BF00BF00BF00BF00BF00BFAA
:102E300000BF00BF00BF00BF00BF00BF00BF00BF9A
:102E400000BF00BF00BF00BF00BF00BF00BF00BF8A
:102E500000BF00BF00BF00BF00BF00BF00BF00BF7A
:102E600000BFC5D170470000F0B50546047815488D
:102E700089B0164640F82420124A0869121DA2F1B2
:102E8000080742F82400487F385520226846FDF79D
:102E900049FA04942878385C48B10EB10A4A00E037
:102EA00000226946281D03F0BFFB09B0F0BD0EB13A
:102EB000064A00E00022694605F10C0003F07EFAA4
:102EC000F3E7000004000020F16D0000396C000001
:102ED00070B5124D06464FF080746868814202D08A
:102EE0001022FDF71FFA0E490020C1F8000101224F
:102EF0000A6001E0641E0ED0D1F80021002AF9D04A
:102F0000C1F80001A9688E4203D010223046FDF7B7
:102F100009FA012070BD002070BD00000C000020E7
:102F200000E000400549064801F11002C0E9001226
:102F30001032826003480160012070473401002094
:102F40000C00002004E50040014602481022006801
:102F5000FDF7E8B90C0000202DE9F04104461028E7
:102F600002D30B48FEF745F8094E0A4D761D204660
:102F700000F080F8070008D0AF4202D13046FEF7DB
:102F800038F8384600F03AF8F1E7BDE8F081000083
:102F9000DD000300ADDEADDE0148006870470000D3
:102FA0003001002010B50020114A014600EB40031B
:102FB0009C186170A170D154401CC0B21028F5D388
:102FC000DE22CC210B48FDF7BFF90A4A0020A2F10E
:102FD000180100BF00EB001302EB430341F820305F
:102FE000401CC0B20628F5D303490620086010BD76
:102FF000F8090020000B00203001002070B5104CB3
:1030000006462068062802D30E48FDF7F2FF304638
:10301000FDF780FC18B90B48401CFDF7EAFF0A4D8C
:1030200020680A4955F82000884203D00548801CD2
:10303000FDF7DFFF216845F82160491C216070BD64
:103040003001002080000300E80A0020ADDEADDE84
:1030500010B5102804D30548FDF7CBFF002010BDA4
:10306000034900EB4000085C10BD0000C4000300F1
:10307000F809002070B50026102803D30C48FDF78E
:10308000B8FF13E00B4D00EB4004285D70B105F173
:10309000300000EB8401601910F8022F51F8226013
:1030A0000321FFF7BDFA285D401E2855304670BD4C
:1030B000A4000300F809002070B50C46064610294C
:1030C00002D31448FDF795FF3046FDF723FC18B9ED
:1030D0001048401CFDF78DFF102C19D204EB44055D
:1030E0000D4C28194178032912D2615D03290FD2B2
:1030F00004F1300110F8012F01EB850141F8226045
:103100000321FFF78DFA605D401C6055012070BD02
:10311000002070BD8C000300F809002010B51028B5
:1031200003D30A48FDF765FF0DE0094900EB4000B5
:103130000A5C42B101F1300202EB8002084480785F
:1031400052F8200010BD002010BD0000B5000300A3
:10315000F80900200B4810B50168002479B10A4A2B
:103160000A4B02EB8102491E52F8044D13600160C4
:103170002046FDF7CFFB10B90548FDF73AFF204682
:1031800010BD000030010020E80A0020ADDEADDEF9
:103190007800030000487047408100402DE9F74F58
:1031A000904607004FF0000502D13448FDF721FF9B
:1031B000334C4FF4803BC4F808B3324EB07818B1AA
:1031C0002E48801DFDF715FF706818B12B48093097
:1031D000FDF70FFFDFF8B0A077605FEA08004FF05F
:1031E00000094FF00108AAF1040724D001282FD0CC
:1031F000022829D021481D30FDF7FBFE86F8028009
:10320000C4F840910199294489B239603F68C4F8F3
:103210004480DAF80060D4F8400118B117482B3028
:10322000FDF7E7FEAF4215D3AE4201D3BE4221D334
:10323000124833301CE0C4F84480DAF80050C4F877
:103240004080C4F84091D9E70F48001D0568D5E7D4
:103250003D68D3E7BE4201D2012000E00020B54224
:1032600001D8012100E00021884203D103483E300B
:10327000FDF7BFFEC4F804B3BDE8FE8F860004006E
:10328000008000400801002044850040004870474D
:103290004880004070B5144C01266660E6606664A4
:1032A00012480025056011483C30006810B11048F4
:1032B000FDF79FFE4FF0FF30C4F80803C4F84051FB
:1032C0000A490420083108600A48456006704570C4
:1032D00085700820FDF7EBF84FF0E0214FF4807087
:1032E000C1F8000170BD000000800040088500406A
:1032F00047000400080100200148007870470000E2
:1033000008010020034901200860034900200870DB
:1033100070470000008000400801002070B5074899
:1033200001250561C560064C0026082066606670B0
:10333000FDF7BDF8A670257070BD0000008000404C
:103340000801002001484078704700000801002073
:103350000FB408B50399002904D004AA00926A4664
:1033600000F00FF801B05DF814FB10B58268044658
:10337000002A05D0D4E90403216898470020A06002
:1033800010BD2DE9FC4791460C00804676D014F81C
:10339000011B39B125290ED04046FDF7B7FC207836
:1033A0000028F4D198F80C00002867D04046BDE80A
:1033B000FC47FFF7DABF0020012221782B291BD020
:1033C0002D2902D0302908D102E040F0010001E0AF
:1033D00040F00200641C002AEFD100252A290ED0FB
:1033E0002178A1F130020A2A11D205EB850201EB06
:1033F0004205641C303DF1E740F00400EAE7D9F8EB
:1034000000100B1DC9F800300968641C0D442178B8
:1034100000232E290BD114F8011FA1F130020A2A32
:1034200005D203EB830201EB4203303BF3E76C2947
:103430000DD068290BD0692921D00BDC252918D0A3
:10344000582931D063290ED0642915D117E014F81A
:10345000011FECE7702969D0732932D075291BD080
:10346000782909D120E0D9F80000011DC9F8001021
:1034700001784046FDF74AFC641C90E76CE0D9F8FF
:1034800000100A1DC9F800200968CDE900500A2281
:103490004046FFF7CFF8EFE7D9F800100A1DC9F84A
:1034A000002009680A2206E0D9F800100A1DC9F8B0
:1034B000002009681022CDE90050404603F03AFD93
:1034C000DAE7D9F8001000270A1DC9F800200E68B5
:1034D000C00705D112E04046761C7F1CFDF716FCA4
:1034E00031780029F7D104E0202140466D1EFDF718
:1034F0000DFCBD42C0D9002DF6D1BDE74EB130461E
:10350000FCF734FF074604E0202140466D1EFDF71E
:10351000FDFBBD4206D9002DF6D103E04046761CE6
:10352000FDF7F4FB31780029F8D1A5E7D9F80000C0
:10353000011DC9F80010056830214046FDF7E6FB83
:1035400078214046FDF7E2FB08200021CDE900018B
:10355000034610222946B0E7BDE8FC8770B541EA72
:103560004201DDE904564FF0A04441EA830141EAFB
:10357000052104EB800041EA0641C0F8001770BD48
:1035800070B541EA4201DDE904564FF0A04441EA3A
:10359000830141EA052104EB800041EA0641C0F8BD
:1035A000001770BD70B541EA4201DDE904564FF0E5
:1035B000A04441EA830141EA052104EB800041EA8D
:1035C0000641C0F8001770BD1CB5002100910B46E4
:1035D00001220191FFF7D4FF1CBD1CB50021009111
:1035E0000B4601220191FFF7DDFF1CBD1CB5002237
:1035F0000B46009211460192FFF7C2FF1CBD1CB59D
:1036000000220B46009211460192FFF7CBFF1CBD32
:103610001CB5002100910B46012201911146FFF7D4
:10362000AFFF1CBD1CB5002100910B46012201918A
:103630001146FFF7B7FF1CBD4FF0A04202EB800020
:10364000D0F8002722F44032C0F80027D0F8002735
:1036500042EA0141C0F800177047000038B5094B35
:1036600044181B6800936B4608E000BF53F8201015
:10367000D1F8205520C2C1F82055401C8442F5D80D
:1036800038BD0000F06F000001224FF0A0438240DF
:1036900011B1C3F808257047C3F80C257047000026
:1036A000034908B50844002101600068009008BD86
:1036B0000060004002494058012800D000207047B7
:1036C000006000402DE9F041204D1646884607462F
:1036D000082801D3042035E0B8F1000F03D0202ED4
:1036E00003D906202EE003202CE0384601F06EFAC4
:1036F000032801D3092025E0384600F0FBFF03280A
:1037000001D30A201EE000F019FD022801D2082092
:1037100018E000F0A3FE044606704078324640F000
:10372000010060704146A01CFCF7FCFDF8B2214688
:1037300001F04EFA10B10120BDE8F0810448FDF718
:1037400058FC0F2028700020F6E70000C40000207D
:10375000FC00050001490020486070470408002073
:103760000348C160026101214170002181707047EE
:10377000AA0000200348C1600261012141708170EC
:1037800070470000AA00002010B500F09BFD18B1A2
:10379000BDE81040FDF732BCBDE8104000F090BC21
:1037A00010B50B4C606928B100F042FB0004000C1E
:1037B00002D005E0022008E0002000F059FE18B118
:1037C00000F092FC012010BD11202070002010BDDF
:1037D000C40000202DE9F04116460F46044600F0D3
:1037E00089FF154D48B157B1204600F08FFF007892
:1037F0003168814205D206201AE00B2018E0032030
:1038000016E0204600F078FF04000DD0A01C0BD07D
:103810002278A11C38463260FCF784FD204600F077
:1038200013FE0120BDE8F0810448FDF7E2FB0F2004
:1038300028700020F6E70000C400002026010500E3
:1038400010B5082804D3054904200870002010BDD5
:10385000C0B200F045FF012010BD0000C4000020F0
:10386000084910B54A69527D0AB10C2002E00828C7
:1038700003D304200870002010BDC0B201F08EF9FF
:10388000012010BDC40000200148006970470000FD
:10389000C40000200148007870470000C4000020E8
:1038A00000F01ABD082804D3034904200870401F03
:1038B000704700F01FBF0000C400002001F094B862
:1038C00001484068704700000408002001F0A4B8D7
:1038D00010B5012401F096F9F02815D005DCB0B13F
:1038E000042809D0EC2812D110E0F4280AD0F828D6
:1038F00006D0FC280BD101E0002408E0022406E0F9
:10390000032404E0042402E0052400E00624204609
:1039100010BD00002DE9F0411D4D064600241D4854
:103920002C70AC610460446084601B4800F028FC8B
:10393000686140B3042000F099FA05F11C00296980
:1039400000F068F80746304600F0B8F800EA0706CD
:10395000002000F099F80640012000F0E5F806404C
:10396000022000F079F80640002000F0FFF8064041
:10397000012000F0A3FE0020EC6000F05FFD16B116
:103980000120BDE8F081012028700020F9E7000047
:10399000C400002004080020992A00000148406962
:1039A000407D7047C400002070470000084A10B5F1
:1039B00053695B7D0BB1022002E0082803D3042089
:1039C0001070002010BD00F063FD012010BD00004C
:1039D000C4000020064910B54A69527D1AB1022080
:1039E0000870002010BD00F029FA012010BD000071
:1039F000C4000020064910B54A69527D1AB1022060
:103A00000870002010BD00F025FA012010BD000054
:103A1000C400002010B50F4C6269527D0AB102202B
:103A200014E010290FD871B178B10A46216101461E
:103A300008481C30FCF776FC064821691C3000F071
:103A400029FA012010BD072000E00320207000208B
:103A500010BD0000C40000200A4910B54B690246A1
:103A600001205B7D0BB1022004E0012A05D0022A6F
:103A700004D00E200870002010BD002000F088FA4D
:103A8000012010BDC40000200A4910B54B69024650
:103A900000205B7D0BB1022003E032B1012A03D08C
:103AA0000E200870002010BD012000F0EDF901206B
:103AB00010BD0000C400002000F014BC10B540B1DF
:103AC000012808D002280BD00649052008700020E4
:103AD00010BD012000E0022000F00AFC012010BD12
:103AE0000020F9E7C4000020064910B54A69527D5C
:103AF0001AB102200870002010BD00F07BFF0120E9
:103B000010BD0000C4000020064910B54A69527D6E
:103B10001AB102200870002010BD00F083FF0120C0
:103B200010BD0000C4000020014610B50020072988
:103B300014D2DFE801F0040F06080A0C0E0004207E
:103B400008E0FC2006E0F82004E0F42002E0F02089
:103B500000E0EC2001F05CF8012010BD02490E20CD
:103B60000870002010BD0000C40000200A4910B5F4
:103B70004B69024600205B7D0BB1022003E032B1AD
:103B8000012A03D00E200870002010BD012001F092
:103B900049F8012010BD0000C400002010B5FFF757
:103BA000FDFE002806D0FFF7EFFD30BFFFF7F6FE61
:103BB0000028FBD110BD000038B50446012181F377
:103BC0001088202505E06A46064920460095FFF743
:103BD00001FE2046FFF766FE0028F4DC002080F39B
:103BE000108838BDC8070020014900204870704780
:103BF000AA0000200149002088707047AA00002018
:103C00000148407870470000AA00002001488078F1
:103C100070470000AA00002010B501F0F5F9034933
:103C2000002008610249087010BD00005C080020F7
:103C3000F00000202DE9FE434D4800684D4C01285E
:103C400002D04D48006828B960680078202801D863
:103C5000012100E00021494E03204FF000083070A0
:103C60004348C4F8008008300568424F183F89B3C4
:103C7000006841490839086002A8CDE900043C48C1
:103C80000C30026801232946184602F071F910B37E
:103C9000012805D0022821D0032855D0384851E00A
:103CA000029818B136481C38FDF7A3F9284602F0EF
:103CB000C2FA18B932481B38FDF79BF901F0D8F960
:103CC000B97D0023CDE900017068EAB290F91610C1
:103CD00018461CE01EE02A48113833E0029818B953
:103CE00027480D38FDF785F9284602F0A4FA18B9DF
:103CF00023480C38FDF77DF901F0BAF9B97DEAB235
:103D0000CDE900017068012390F91610029800F0C7
:103D10007DFB19E000F074FE30B101F0A9F9014615
:103D2000BA7DE8B200F044FB0023CDF800801A46CB
:103D300019461846CDF8048002F01AF9042803D079
:103D40000F480F30FDF755F9206838B10120607534
:103D50000C48206104203070BDE8FE8301F054F966
:103D600084F81580C4F8108000F00EF8F4E7000025
:103D7000001400405C08002034150040F0000020D2
:103D800049060900213E000070B5FFF745FF1F4DB1
:103D9000012028701E4801681E4A21F0FF011269A7
:103DA0001143016002F050FA1A4C4C3410B302F087
:103DB0004BFA032802D01848FDF71BF9022001F046
:103DC00067FB002001F0BCFB02F03EFA032803D0A1
:103DD00011480830FDF70DF92878012803D00E4866
:103DE0000E30FDF706F902202870002020610B48F4
:103DF000E06070BD02F01CF80228DFD302F04AF93F
:103E000060600028DAD10448401FD5E7F0000020A8
:103E10003015004010080020F9050900353C00006D
:103E2000024905200870FFF7AFBF0000F000002036
:103E30000148006A7047000010080020034910B5CF
:103E4000086200F0AFFD0249086010BD10080020B4
:103E50001C150040034910B5486200F0A3FD02495B
:103E6000086010BD10080020201500400449487764
:103E700004490A6822F4E02242EA004008607047E0
:103E8000100800201815004001490876704700000E
:103E90001008002070B50C00054602D10748FDF758
:103EA000A8F81DB90548401CFDF7A3F80448C0E96F
:103EB0000145BDE870400020FEF746BFB803090089
:103EC0007408002010B500F09BFD044901F1640264
:103ED00008B1C86800E08868106010BD10080020B4
:103EE0001CB510494FF44070086002F0ADF901288C
:103EF00012D0022810D0032813D1002000900346CE
:103F000002460146019002F033F8042809D0BDE8CA
:103F10001C400548FDF76DB80021084602F0D8F8AE
:103F2000F3E71CBD08F5014048020900144981F877
:103F3000310014490A6822F0FF020A6048B1114AB0
:103F40000B1D0832012807D002280ED00E48FDF7BD
:103F500050B8086808607047086840F001000860C1
:103F6000FF20106040F2071007E0086840F00200F0
:103F700008604FF6FF70106004481860704700003A
:103F800010080020341500403304090021100100FE
:103F9000044981F83200044908B1012800D10860C1
:103FA0007047000010080020101500402DE9FF4167
:103FB0003E480068012802D03D48006830B93D48BD
:103FC00040680078202801D8012700E0002700F091
:103FD000F7FB384C0126183C00B9266102F034F991
:103FE000012802D03448FDF704F8344D6868007D9C
:103FF00018B13148401CFCF7FCFF01F005F8EFB3A5
:104000000121084602F064F820B1012828D00228D6
:1040100026D10FE001F02CF8064601F071FFC7B27F
:1040200001F068FF8446A07D0021CDE90260CDE962
:1040300000710DE001F01CF8804601F061FFC7B28D
:1040400001F058FFA17DCDE90076CDE902818446DB
:1040500068686289218990F91630604600F0B8F9E5
:10406000FEF76CFEE06013484C3840696060FFF773
:1040700029FF04B00020BDE8F04100E001E0FEF7B8
:104080007BBE6E7000F0BCFC00280CD000F0F0FF8E
:10409000054601F035FFA27D04B02946BDE8F04198
:1040A000C0B200F085B9BDE8FF81000000140040F7
:1040B000341500405C0800203C070900F000002097
:1040C00010B5012080F310880648417D29B1817820
:1040D00019B90121817000F041FB002080F31088A4
:1040E00010BD00004408002070B5124C607D00280F
:1040F0001ED100F0C5FA04F13005A86810B90E48C9
:10410000FCF777FF686818B90B48401CFCF771FF93
:1041100002F0D8F818B10848801DFCF76AFF0020AB
:1041200002F0F0F801206075BDE8704000F016BBA9
:1041300070BD000044080020CE02090001F0ECBE72
:1041400030B50D4D85B0687D002813D000F044FBDC
:1041500000F05AFF0024AC706C7505208DF800004B
:10416000684601F011FE0548047005B0BDE8304016
:10417000FFF7B6BE05B030BD44080020F0000020B7
:104180002DE9F0410546012080F31088484E4FF09C
:1041900003080024707086F80080B4707460348165
:1041A0007481F46007463461347506F11800747543
:1041B000046044608460C4600461047518308460E5
:1041C0004460FFF767F8284601F018FE01F0A6FEEC
:1041D000002002F089F806F13000FEF7DFFD002133
:1041E0000820FCF790F900210120FCF78CF901214F
:1041F0001520FCF788F9012000F07AF8A6F13405C3
:10420000FF202861042068772A4929622A496962C7
:1042100085F82870022185F8291085F82A8085F80C
:104220002B00052085F82C00062085F82D0007209E
:1042300085F82E00082085F82F0085F8304085F895
:10424000311085F83270692045F8140B1E20286063
:104250004FF4167045F8100C022000F093FC0F206C
:1042600000F096FCEC802F716F712C72204601F0EB
:104270004DFE7078012802D01048FCF7BAFE377066
:10428000B470746034817481F46034610C483475A6
:1042900074758460447000F0F3F90820FCF7FCF8B2
:1042A0001520FCF7F9F884F310880148BDE8F08187
:1042B0004408002004070A0D05080B0E9F020900A0
:1042C000F00000200348407D08B100207047012025
:1042D00070470000440800200148408B70470000F0
:1042E0001008002001494883704700001008002092
:1042F00010B5012181F3108807490A78824204D061
:104300004870487D28B100F029FA002080F3108819
:1043100010BD00F003F8F8E74408002030B5224D46
:1043200085B02878697888423BD008B900F0A8F9B0
:10433000687808B9FFF7D4FD1C480024046000F039
:1043400063FE194818300460446004618460C460EE
:104350002878012802D0022808D015E001F074FF67
:1043600090B10021084601F0B3FE0DE0FFF754FCC8
:1043700001F06AFF032807D1002300941A4619466A
:104380001846019401F0F4FDFFF79CFD6878287051
:1043900004208DF80000684601F0F6FC012005B00D
:1043A00030BD0020FBE700004408002054F5014028
:1043B00000B585B006238DF806208DF805108DF820
:1043C00004008DF80030684601F0DEFC05B000BD49
:1043D000F0B585B00DF1280C9CE8F0008DF80C309C
:1043E0008DF80D404FF0000C0190ADF808108DF8DD
:1043F0000E508DF800C0ADF80A208DF80F608DF8D2
:104400001070684601F0C0FC05B0F0BD70B586B014
:104410000226DDE90A458DF808108DF80920019083
:104420008DF80A308DF800608DF80C508DF80B4037
:10443000684601F0A9FC06B070BD00000149886023
:1044400070470000F000002010B5012181F31088B2
:1044500001F08AFD002080F3108810BD10B5012006
:1044600080F3108801F082FD002181F3108810BDD7
:1044700010B50446082802D30348FCF7BAFD0348E8
:10448000204490F8280010BDAF0309001008002058
:1044900070B5082819D20F4A024482F82810820702
:1044A000D40EFF22A240D243042801D20A4D01E0DB
:1044B000094D2D1D286810402860084600F060FA5C
:1044C0002968A0400843286070BDBDE870400348DB
:1044D000FCF78FBD1008002024150040A703090039
:1044E00010B51B4C00206070FEF714FC19490860E1
:1044F000FEF724FC1849887501F0A6FE012807D0B4
:1045000001F0A2FE022802D01448FCF772FD002040
:1045100000F0BEFFFEF73EFE114908606068091D0D
:1045200040680860A068002811D0007820B1FEF72C
:1045300031FEA16800F004FCA0680179002906D0D2
:1045400000F0D2FBA068BDE8104000F0DBBB10BD5E
:10455000F000002008150040440800209C060900D7
:1045600050F5014010B501F019FE002820D0114887
:1045700000210181418101F0C3FC0F49086001F075
:10458000BFFC012181400C48001D026822F0FF029F
:104590001143016001F0AEFC064C1834206001F0BC
:1045A000A3FC60600548E060BDE81040FFF798BFDD
:1045B00010BD0000440800202C150040AD3F000055
:1045C000154800210160012101601448016821F4AF
:1045D00080710160016821F00F01891D016001688F
:1045E00021F4702141F440310160001D016821F087
:1045F00000710160016841F080710160016821F083
:10460000FF0141F020010160016821F47F41016058
:104610000120FBF741BF0000FC1F004014150040C3
:1046200070B5144C1448A16800F09EFE6060124CF6
:104630004C3C607FFFF71AFC206AFFF7FFFB606AC3
:10464000FFF708FC0025601990F828102846FFF7AE
:104650001FFF6D1C082DF6D314F8300F074920708A
:1046600008606078FFF762FCA078BDE87040FFF753
:104670008FBC0000F00000205C0800200C150040FA
:104680000C4910B5002008600A484FF440744C38BB
:104690000460FFF795FFFEF7F9FD06490831086051
:1046A000091F05480860034850380460BDE8104001
:1046B000FFF7B6BF54F501400411004010B50446A1
:1046C0000448406810B90448FCF793FC034804759B
:1046D00010BD0000F0000020730409005C080020F9
:1046E00010B5012181F3108801F0A2FD002080F3B4
:1046F000108810BD01F09FBD10B5012181F3108815
:1047000001F09CFD002181F3108810BD01F099BDDE
:1047100003490122086101460248FEF73FBD00003F
:1047200044080020D162000070B50C4601F0EAFD9B
:10473000074D2869A04202D30648FCF75AFC2869B5
:104740000122211A0448FEF729FD0020286170BDCE
:1047500044080020DB060900D162000010B5FEF716
:10476000CBFD012822D101F0C7FD10B11048FCF7A4
:1047700040FC002264210F48FEF710FD0E48007F28
:1047800080B90E480121016000220007C0F8002115
:10479000016000BF00BF00BFAFF30080D0F8001180
:1047A0000029FBD0BDE81040FEF7ACBD10BD0000F5
:1047B000B9060900D162000010080020140500406D
:1047C000044810B5006918B9FEF7BCFD002800D0F8
:1047D000012010BD4408002010B5FEF78DFD012812
:1047E0000ED0FEF79BFD0748007F10B9012081071E
:1047F0004860002001F086FD024900203431486005
:1048000010BD0000100800200B4810B54068407D26
:1048100030B1012000F094FE08490889401C08814D
:104820000749002008600548343803C8BDE8104037
:10483000091A0020FFF778BFF0000020440800208C
:1048400054F5014070B586B0FFF7BAFF494D4A4EA6
:1048500005F1340458B100F0BDF8A078002869D003
:10486000FEF7AEFA06B0BDE87040FFF769BC2078ED
:10487000012802D0022804D008E000F01DFF28B172
:1048800070E0307804286DD003286BD0FEF798FADA
:1048900000F0A0F8A07868B1FFF752FC01F0C8FA68
:1048A000022840D303208DF80000684601F06CFA1E
:1048B00006B070BDFFF732FD20B100206968FFF738
:1048C00033FFEBE72078F0B1012816D0022817D08B
:1048D0002A48FCF78EFB687E0128DFD100F090F8B3
:1048E0000028DBD12078D8B1012811D00228D5D0FA
:1048F00022481A30FCF77DFBD0E700F099F8EAE790
:1049000000F01AF9E7E700206968FFF70DFFE2E71A
:1049100001F09AFC0028C1D101F014FC0028BDD19F
:10492000FFF75AFFBAE706B01448BDE870403630CA
:10493000FCF75FBB2078022808D0FEF741FA6968CF
:1049400006B00020BDE87040FFF7EEBE30780428C6
:1049500008D0032806D0FEF733FA06B0BDE8704051
:1049600000F0EAB8686806B04008BDE87040FFF79C
:10497000CFBE000010080020F0000020D504090080
:10498000024610B50020014622FA01F303F00103AC
:10499000C1F10704A3400343491CC9B2D8B2082996
:1049A000F2D310BD2DE9F041002406462546182714
:1049B000E80026FA00F0C0B2FFF7E2FF694207EB19
:1049C000C101884020436D1CEDB20446042DEFD395
:1049D000BDE8F0810348416809B1491E4160FFF715
:1049E00071BA000044080020014840697047000087
:1049F000100800200149486170470000100800209D
:104A000004480178022902D04068002800D0012023
:104A100070470000440800200148406870470000CB
:104A2000100800200149486070470000100800206D
:104A30002DE9F04186B000F0E7FA01F005FC3A4DAF
:104A400005F1340420B3688BB0B3218981423BD394
:104A50000121002001F03CFB01F04CFA2689804640
:104A6000648901F04DFA074600F002FB014601207F
:104A70008DF80000ADF808608DF80C70CDF804805A
:104A8000ADF80A408DF80D10684601F07DF944E05C
:104A900001F0CEF9022840D3FFF7B2FF68B1FEF76C
:104AA00065F9D0BB287E20B9FEF748F9E168884255
:104AB00033D1FFF757FD30E006E0E068FEF744F938
:104AC0000020FEF759F9F4E7FEF73CFC10B1174857
:104AD000FCF78FFAFEF71EF915490968884202D0E3
:104AE0006089401C608113484078A0B9FFF788FFB7
:104AF00088B101F005FA064600F0BAFAA17D8DF8FA
:104B000006108DF8050007228DF800208DF804604E
:104B1000684601F039F9FFF7E3FC296806B0012087
:104B2000BDE8F041FFF700BE100800208105090034
:104B300008150040F000002070B50024FEF7EAF8E8
:104B40000D4D2968884207D0FEF7E4F82860FEF78B
:104B5000F5F80A49012488750948641E0078044262
:104B600001D1FFF711F9054834384168BDE87040BC
:104B70000020FFF7D9BD00000815004044080020C0
:104B8000F00000200149C860FFF79CB91008002020
:104B900001498860FFF796B91008002010B5044657
:104BA000012181F310880748017821B1407D10B1BF
:104BB0000548FCF71EFA204601F04CFB002080F36C
:104BC000108810BD440800206803090001F04BBBA9
:104BD00010B5012282F3108801F052FB58B1084849
:104BE000817819B9407D08B1FFF7B8FD002080F346
:104BF0001088012010BD002080F3108810BD000037
:104C000044080020014890F8300070471008002048
:104C1000024981F8300002490860704710080020FE
:104C20000C1500400149087770470000100800206B
:104C300070B51149114A0025487802EB0010027B3B
:104C400022B10F4AD2F80C2102B10125807A0870F6
:104C5000012000F0E5FB0B4C1DB1A068806800B19D
:104C600080476068002806D00179002903D0BDE89C
:104C7000704000F01BB870BD800800206870000014
:104C8000001000401001002007480069012805D0ED
:104C9000022805D0032805D100F09AB800F04CB9DD
:104CA00000F0E4B87047000080080020827B0021FB
:104CB00093000B4A1344C3F81019C37B02EB830221
:104CC000C2F81019427B0121837BC07B01FA02F2FA
:104CD00001FA03F3814003481A430A430260704714
:104CE00000F0014008F501404279054BC0790121EF
:104CF00003EB80000AB10166704701637047000052
:104D00000060004082680021C2F84011C17B094A5E
:104D1000CB0009490B44C3F81025C37B826801EB23
:104D2000C301C1F81425C17B0120884003490860F4
:104D3000704700001011004000F0014004F50140F0
:104D40002DE9F0410746886800260C46C0F840610E
:104D50008868097B1A4D00F5A07005EBC101C1F808
:104D600010056278E178207B00F094FC607B05EB15
:104D7000C000C0F81075617BA06805EBC101C1F8E7
:104D800014051048C0F80C61C0F81061A17B0E48F2
:104D900005EBC101C1F810056278E178A07B00F055
:104DA00067FC217B0120627B00FA01F100FA02F22C
:104DB0001143A27B9040014304480160BDE8F081AB
:104DC00000F00140001000400C11004004F50140CB
:104DD0002DE9F0411F4E0220002530700320707035
:104DE00075603575B0691C4C401CB061C4F80C513D
:104DF000C4F80051C4F81051C4F80451C4F8285143
:104E0000C4F80052681EC4F808030120FBF75AFBDF
:104E1000124FB868007D50B1114800684042B0752B
:104E2000C4F81C510120A0610E49800208600C48A2
:104E300044380068F168884202D00B48FCF7D9F882
:104E4000B868C068002802D0BDE8F0410047BDE85E
:104E5000F0810000800800200010004010010020B8
:104E60004815004008F5014051040A0010B52D4CCA
:104E7000D4F80C01012802D02B48FCF7BAF8D4F87A
:104E80001001012803D02848401CFCF7B2F8D4F8E0
:104E90000001012803D02448801CFCF7AAF8D4F8AC
:104EA000040118B12048C01CFCF7A3F80020C4F886
:104EB0000C01C4F81001C4F80001C4F80401C4F8DE
:104EC00008010221C4F800120121C4F808130822C5
:104ED000C4F80423154A0323154C13701075506051
:104EE000606890B1027912B1FFF7E0FE0DE0027840
:104EF0005AB1027B437B807B01FA02F201FA03F391
:104F000081400C481A430A430260A068006900B15E
:104F10008047A0688068002802D0BDE810400047A4
:104F200010BD000000100040F3030A0080080020BC
:104F30001001002008F501402DE9F0412A4DD5F877
:104F40000001012802D02948FCF753F8D5F80401E4
:104F5000012803D02548401CFCF74BF82448016881
:104F6000244801700021C5F80011C5F80411C5F8E6
:104F70000811491EC5F808130126C5F804638168A5
:104F80001D4F097D09B1B1023960446814B320791D
:104F900000B3617BDFF86480A06808EBC10100F515
:104FA000A070C1F810056279E179607B00F072FBB6
:104FB000607B06FA00F03860207B114908EBC000E6
:104FC000C0F810156279E179207B00F051FB207B5D
:104FD00086403E600B480649091FC06808600B20E8
:104FE000C5F80002BDE8F08100100040BD030A00D2
:104FF000081500401001002004F5014000F00140B8
:105000000C1100408008002070B50120FBF765FA04
:105010000120FBF757FA144C4FF0FF30C4F8080397
:105020000026C4F80062C4F8106101202061A0616C
:105030000E4D2878012813D0022813D0032811D050
:105040005FF00100FDF7D2FEC4F810612E706E759E
:10505000002000F0E5F9BDE870400120FBF748BAF8
:105060000620EFE70220EDE7001000408008002056
:1050700001480078704700001001002001F01F0176
:105080004FF4003343EA0121830009481844C0F873
:105090001015D0F810150AB941F48011C0F8101598
:1050A000D0F8101541F00301C0F81015704700004A
:1050B0000060004008480069012806D0022806D098
:1050C000032806D00548FBF794BF00F09BB800F01A
:1050D00007B800F0F7B800008008002038050A0083
:1050E0002DE9F047DFF8FC800421012088F800104A
:1050F000D8F81810491CC8F81810FBF7E3F93A481B
:1051000000683A4E30703A4C0025C4F80C51C4F88F
:105110000051C4F81051C4F804511020C4F804031D
:105120000820C4F80803B068DFF8C8900127007DA4
:10513000A0B1304808380068400502D42E48FBF77B
:1051400058FF294840300068404288F81600C4F8EB
:105150001C51A7614FF48061C9F80010D4F8000118
:1051600018B125480930FBF744FFD4F80C0118B1F9
:1051700021480A30FBF73DFF4FF0E020A846D0F869
:10518000000210F0020F03D01B480B30FBF731FF79
:105190007568CDB12878B8B1C4F80C81697B184A1C
:1051A000164802EBC101C1F810056A78E978687BFE
:1051B00000F05EFA687B0F4907FA00F0091F0860EB
:1051C000E87B8740C9F80070B068C06800B18047CC
:1051D000B068417D002903D003490068091F0860B9
:1051E000BDE8F0878008002008150040100100206D
:1051F0000010004008F50140C5040A000C110040F1
:1052000000F001402DE9F041294C0026C4F80C6162
:10521000C4F80061C4F81061C4F80861C4F80461FE
:10522000012004F58074FBF74DF90820C4F804024E
:105230000125C4F808520720C4F800011D4844683D
:10524000002C32D0207920B1207B1B4905FA00F0D8
:1052500008602078002828D0A068C0F84061A17BB1
:10526000164FA06807EBC10100F5A070C1F810054A
:105270006278E178A07B00F00DFAA068C0F8406188
:10528000E17B0F4807EBC101C1F81005E17BA06885
:1052900007EBC101C1F81405A17B05FA01F0E17B20
:1052A0008D4005492843091F0860BDE8F0810000D2
:1052B000001000401001002008F5014000F00140FE
:1052C0000C11004070B5234CD4F80C01012802D019
:1052D0002148FBF78EFED4F81001012803D01E48A8
:1052E000401CFBF786FED4F80001012803D01A48C1
:1052F000801CFBF77EFE0020C4F80C01C4F81001EE
:10530000C4F80001C4F80401411EC4F80813C4F82D
:105310000002124C626872B1117861B1557B0123B1
:1053200003FA05F1957BD27B03FA05F593400C4A0D
:105330002943194311600B49032208704A704860E1
:105340000875A0680069002802D0BDE870400047D9
:1053500070BD000000100040FA040A001001002097
:1053600008F501408008002070B506460C46012073
:10537000FBF7B3F8FFF748FE244D25482649C5E959
:1053800001460024047003264670446004610475DD
:10539000447584751F4808601E48F030091F086076
:1053A0001E48016821F0010141F080710160012077
:1053B000FBF79EF8686838B3017909B9017819B329
:1053C0008168C1F808650422C1F81025027CC2F189
:1053D0008102C1F8402540F20112C1F80022C1F853
:1053E00004450122CA60C1F84041017921B14279E6
:1053F0008179C079FFF742FE6868017821B142786F
:105400008178C078FFF73AFE014870BD1001002096
:10541000800800201410004064F50140741700401B
:105420002DE9F041174C00250746C4F80052164EEE
:10543000307803281CD0681EC4F80803C4F80C5147
:10544000032070700120FBF73DF800BFC4F8005145
:10545000C4F81051C4F8045175603575002F0FD091
:105460000A488068006900280AD0BDE8F04100477A
:105470006FF00800C4F808030820C4F80403E5E747
:10548000BDE8F081001000408008002010010020DD
:105490002DE9F0470746DFF8908022484FF0FF31B2
:1054A00000EB0716C8F808130120FBF70BF81F4C98
:1054B0000025DFF87C9065756770D9F80800032F28
:1054C0000268A2604168C4E90315A56130686060A4
:1054D00019D2337AC8F80032C8F80C51C8F8105104
:1054E000F37A14481BB10160006828B108E002603B
:1054F000006828B9104801E00F48401DFBF779FD0E
:10550000717AC8F80413D9F80800007D28B1022F79
:1055100003D10A49A5757802086001206075BDE8CD
:10552000F087000068700000001000408008002034
:1055300010010020041500409C020A0004F50140FF
:105540002DE9F05F404C82464048667800EB061734
:10555000607D012802D03E48FBF74BFD207D18B14D
:105560003B48401CFBF745FD012500212575DFF870
:10557000E490A0466175032E47D2BAF1000F3CD1EA
:10558000D9F80440BCB32279AAB38A460846A16878
:10559000C1F84001217BDFF8C0B0A0680BEBC1016E
:1055A00000F5A070C1F810056279E179207B00F068
:1055B00071F82A49C1F80CA1607B29490BEBC000A6
:1055C000C0F810156279E179607B00F051F8217B19
:1055D000627B05FA01F005FA02F1084321490860EF
:1055E000D9F80400204A81791268CA4012F0010FEC
:1055F00001D18068056038680560022E01D0012E57
:1056000007D1B97A88F8001003E011482530FBF77C
:10561000F0FCD9F80800007D002813D0022E11D12B
:1056200010480068400503D409482A30FBF7E1FC24
:105630000E480068002805D1BDE8F05F04482B3013
:10564000FBF7D7BCBDE8F09F800800206870000021
:10565000B8020A001001002000F0014000100040D4
:105660000C11004004F501401005005004150040E5
:10567000064B03EBC0000AB1054A01E0044A303A88
:1056800002EB8101C0F814157047000000F00140E2
:1056900060600040064B03EBC0000AB1054A01E020
:1056A000044A303202EB8101C0F814157047000043
:1056B00000F00140306000400348D0F804010128A8
:1056C00000D00020704700000010004030B5154A9F
:1056D00001460020D2F8104423460AE0DB681D7919
:1056E000854205D1401C0A28F6DB4FF0FF3030BD63
:1056F0001B68002BF2D1431CF9D0CB681871D2F88B
:10570000103443B1DB68CC681B682360D2F81024E6
:10571000D268116030BDC2F81014C96800220A6056
:1057200030BD0000A8030020F0B595B01C4615461A
:105730000F4608461A9E00F001FB182109A8FAF747
:105740000AFE0E96CDE909540023082203A9384623
:1057500000F009FB05980690BDF81000ADF81C009C
:10576000BDF81200ADF81E0000208DF8210003984E
:10577000082600F00300012802D0022818D032E0E9
:1057800003983346850AC0F3C2008DF820000398C1
:105790000FA9C0F38314A200384600F0E4FA09A868
:1057A000009006AB22460FA9284600F023FA1AE023
:1057B0000398840DC0F3C2008DF82000082C01D29C
:1057C000254600E0082533462A460FA9384600F052
:1057D000CAFA2E44641B09AB06AA29460FA800F09A
:1057E00071F9002CEAD1384600F0AEFA15B0F0BDE0
:1057F0007047012001F03EBA084810B50178084A08
:10580000515C19B1001D00F0A9FF02E00C3000F05E
:10581000A3FEBDE81040002001F02CBA34000020A7
:105820000000002008B5034A00924023024AFFF717
:105830007BFF08BD0D6B0000100200200A4A012901
:1058400002EBC00007D0022907D0032907D00429A2
:1058500007D000207047022070470420704700796D
:1058600070474079704700001072000010B5FFF7D4
:10587000C0FF04210348FFF729FF02490120C9683E
:10588000487110BD007200002DE9F0478CB0FBF7A5
:1058900055FA18B100200CB0BDE8F0877D4C00200F
:1058A000C4F81804BFF34F8F7B49A06802900D68BD
:1058B0004FF00008284004EB80000BE0D4F81804F7
:1058C00070B961680298814201D8A160E2E728407E
:1058D00004EB80000C3002A9FCF744FF0028EDD156
:1058E000002003AA029901EA050304EB8303491C83
:1058F000DB6842F82030401C02910228F2D3039862
:1059000000F00300022802D001284DD0A7E0039840
:105910005022810D8946B2EB905F00D850210E468F
:1059200066F39F50039008315C4800F0BEF9070011
:1059300078D000F003FA4346082203A9384600F065
:105940001AFA029908F1080A2940681A8000001D15
:10595000864222D94F4D0C3530B1C2B204EB8101E1
:10596000301A90460C3104E02946F2B200259046E8
:105970002846C6B25346384600F0FDF90AEB080344
:1059800025B132462946384600F0F5F9029909F169
:10599000030001EB900002903BE004EB81015346D1
:1059A000324638460C31EFE70398C0F383100628DF
:1059B00000D30620039960F38911C1F38310801C82
:1059C00003918100354800F070F9070047D000F0DE
:1059D000B5F94346082203A9384600F0CCF908F18E
:1059E000080800260FE00298434600EA0501401C23
:1059F00004EB81010290042238460C3100F0BBF91F
:105A000008F10408761C0398C0F38310B042EAD86A
:105A100047B1D4F81054D4F8180478B1384600F0DF
:105A200093F931E01BE0E8684079012804D12A6845
:105A30002846394612689047E8680568002DF2D17B
:105A4000384600F081F90020FBF723F8D4F8180459
:105A500008B90298A0600020FBF71DF814E0D4F804
:105A6000104405E02168204689688847E06804689A
:105A7000002CF7D10A480B49401AC008022101EB5B
:105A8000004009A100F01AF8FBF758F980F0010076
:105A900001E70000A8030020500000205072000021
:105AA00048720000107200004261636B656E64739F
:105AB00020666C75736865640000000000231A4658
:105AC00001F044B82DE9F0470E4680461C46924648
:105AD000082940D894F80C900020207319461046ED
:105AE00000F08CFF0025B54206D218F805201BA156
:105AF0002046FDF72DFC03E01AA12046FDF728FC07
:105B00006D1C082DEFD318A12046FDF721FC0025C0
:105B1000B54212D218F805707E2F08D8FAF7FEFBAE
:105B20000068C05D10F03E0F01D03A4600E02E2222
:105B30000EA12046FDF70CFC03E00DA12046FDF769
:105B400007FC6D1C082DE3D301222146504600F0CE
:105B500037FF84F80C90BDE8F08700002025303234
:105B600078000000202020007C0000002563000059
:105B700020000000064910B500200870054800F01C
:105B8000E1F8002803D1044800F08DFB002010BD8F
:105B9000A80300205072000038700000024803493A
:105BA000401AC008704700005072000010720000D8
:105BB00013B56846FCF758FF08B100201CBD024829
:105BC000009950F831001CBD1072000070B50848F3
:105BD0000125D0F81044057007E0E06845712168A0
:105BE000204649688847E0680468002CF5D170BDFC
:105BF000A80300202DE9FF4781460C9D00200C469C
:105C00002F7B2873984616462946184600F0F6FE64
:105C1000072E42D2DFE806F004090F161F2A3600CD
:105C200049462846FDF794FB37E049462846226856
:105C3000FDF78EFB31E0D4E9002349462846FDF705
:105C400087FB2AE0A0680090D4E900234946284653
:105C5000FDF77EFB21E0D4E90201CDE90001D4E9A2
:105C6000002349462846FDF773FB16E004F10800BF
:105C700007C88DE80700D4E9002349462846FDF708
:105C800067FB0AE004F108000FC88DE80F00D4E9B3
:105C9000002349462846FDF75BFB00222946404683
:105CA00000F08EFE2F73BDE8FF872DE9F041058AD5
:105CB00080462D1F4819C01CB0FBF5F0C6B2404607
:105CC000FCF7D3FF041E19D0002020710120607161
:105CD000E58000272546761EC4F800800BE040468C
:105CE000FCF7C3FF60B16179491C6171286005460A
:105CF0007F1CC0F80080B742F1D32046BDE8F08198
:105D0000204600F002F80020F8E72DE9F04145793F
:105D100001466B1E002201E00968521C9A42FBD327
:105D20000F680146002605E038460C68FCF7BCFF0A
:105D30002146761CAE42F7D3BDE8F0810121001D5B
:105D4000FCF777BFFCF7C5BF10B504460121001D65
:105D5000FCF785FF10F0FF0F04D12046BDE810408E
:105D6000FFF7D3BF10BD1CB501920122009201AA1A
:105D7000FCF73AFE1CBD1CB501920022009201AA5C
:105D8000FCF732FE1CBD000070B51A4C05462068B9
:105D900010B91948FBF72DF9D4F8D4000A2803D319
:105DA0001548401CFBF725F9D4F8CC0000EB800027
:105DB00004EB800115F8040B08712DCD8860CA60D2
:105DC0000B614D61D4F8D400401CC4F8D400D4F861
:105DD000CC00401CC4F8CC00D4F8CC1000200A2918
:105DE00001D3C4F8CC004FF0E0214FF40010C1F80B
:105DF000000270BD9C0800204A000B0010B5040092
:105E000002D10948FBF7F5F8084941F8CC4B0020CE
:105E100041F874098867C8674FF0E0214FF400101B
:105E2000C1F8000110BD00003E000B009C080020DE
:105E300010B5074CD4F8D4000A2802D90548FBF75E
:105E4000D8F8D4F8D400C0F10A00C0B210BD0000E8
:105E50009C08002079000B00094902220A60BFF368
:105E60006F8FBFF34F8F0A1D106006480268002A2B
:105E7000FCD000200860BFF36F8FBFF34F8F7047D7
:105E800004E5014000E4014010B500F00302904336
:105E9000D200FF24944003689140A343CA180949E3
:105EA00001230B60BFF36F8FBFF34F8F0260064873
:105EB0000268002AFCD000200860BFF36F8FBFF398
:105EC0004F8F10BD04E5014000E40140F0B51546D8
:105ED0000E460746002404E0315D3819FFF7D4FF71
:105EE000641CAC42F8D3F0BD0148C06870470000A4
:105EF0007409002001488068704700007409002080
:105F0000014840687047000074090020014981F889
:105F10008100704774090020FDF73EB870B5FDF7A9
:105F200041F800240E4E2546204600F0A7FC04F15F
:105F3000080000F0A3FC3555641C082CF4D3094874
:105F40000121057045608560C5600561456180F887
:105F5000805080F85850C56780F8811070BD0000EF
:105F60001C01002074090020FDF748B8FDF7F2B8C5
:105F70002DE9FF4F81B0444FDDE90EA8032600252F
:105F8000F86F0C46AB4610B94048FBF732F838784A
:105F9000032803D03D48401CFBF72BF8F86FB946A7
:105FA0004178C8072FD199F8810060B30027019884
:105FB000E8B3039A584662F31700C1F3410161F355
:105FC0001F6009EB84018A6BCAF800B0C8F800B002
:105FD0000090904234D0204600F078FC051E07EA7D
:105FE00005072DD004F1080109EB810200999161A8
:105FF00004990D4223D0264E305D00B3204600F0B8
:1060000032F910B105E00127D1E720482830FAF72E
:10601000F0FF204600F029F9CAF80000BAF1000F9D
:106020000AD018B919482E30FAF7E3FF00E01BE058
:1060300006F804B0022603E014483230F4E70126E3
:1060400077B1204600F02DF9C8F8000018B11048CB
:106050000121015506E00C485830C8F8000001E065
:10606000C8F800B00DB107E004264C46D9F87C0012
:10607000FCF7C4FFC4F87CB089F800B000F068F801
:1060800005B03046BDE8F08F740900202D010C00EA
:106090001C01002010B50C4C207810B10B48FAF709
:1060A000A8FF00F007FC00280DD0FF220270417805
:1060B00041F00601417000214318491C9A702029C3
:1060C000FAD30321217010BD7409002007010C00D0
:1060D00070B51A4C05460E462078012804D00228D7
:1060E00002D01748FAF785FFB5B12078012803D010
:1060F0001348401DFAF77DFFE06818B91048801D6D
:10610000FAF777FFE068007820B1606800F0DEFB06
:10611000022502E0002500E004254EB1606800F091
:10612000A4F8A168814203D005481D30FAF761FF49
:106130000020207000F00CF8284670BD7409002083
:10614000CC000C00014890F88000704774090020D2
:106150002DE9F041104C207800281AD194F88000E5
:10616000002816D10825012600276069FCF770FF7A
:1061700018B184F88060606920616069401C6061CA
:10618000082800D1676194F88000002801D16D1EB5
:10619000EBD1BDE8F08100007409002070B5224CFD
:1061A000207810B12148FAF724FF94F880000025E8
:1061B000F8B12069606000F074F8A06018B91B485D
:1061C000C01DFAF716FFA0684078C00705D194F803
:1061D000810010B10220E56009E0606800F02BF852
:1061E000032806D200F066FBE06010B101202070A9
:1061F00002E02078002815D0A06818B90B4820309C
:10620000FAF7F7FE2069606004EB8000C17E491C4C
:10621000C17684F88050C27EA068417862F3420162
:106220004170012070BD00007409002098000C002E
:106230000830FCF791BE0830FCF70ABF0830FCF7C5
:1062400019BF0830FCF76ABF0148007870470000AA
:106250007409002010B5044600F018FB2046BDE884
:106260001040FCF779BEFCF7F3BE70B50446FCF7AE
:1062700001FF050002D0204600F008FB284670BD53
:1062800070B50E4604460025FCF786FE38B121465F
:106290003046FCF711FF10B1FFF75AFF01252846E1
:1062A00070BDFCF73BBF826800219160826811617C
:1062B000826851618268D160826851608068016043
:1062C000704700000148007870470000240100205A
:1062D00004480178817041780170001D50F8210058
:1062E00000470000240100200249887048700870AF
:1062F00070470000240100200148407870470000EA
:106300002401002010B50446022802D30248FAF7FF
:1063100070FE0248447010BD33000D0024010020BF
:106320004058002800D00120704708B50022425094
:106330004058009008BDD0F80403084000D0012068
:1063400070474058002800D00120704708B500224F
:1063500042504058009008BD0121B1EB507F01D15F
:10636000012070470020704770B50D4600F092FB89
:1063700004000FD00020FAF78CFB207920B1002018
:10638000FAF789FB112070BD0120256020710020E3
:10639000FAF781FB002070BD10B500F07BFB0028F0
:1063A00002D000210160017110BD000001490248C6
:1063B00000F088BCC0010020002000402DE9F04121
:1063C0000546007916460F4600EB40012D4A01EBC9
:1063D000C00102EB810494F82A1011B10820BDE835
:1063E000F081294951F820102868FFF7BDFF08B156
:1063F0001120F4E739462846FAF762FB66603869EF
:10640000206030004FF001062FD03F7F4FF48E7197
:106410002868FFF78AFF4FF4A2712868FFF785FF0D
:1064200028681A49C0F8041328684FEA471140F356
:106430000730002804DB00F1E02080F8001405E0BC
:1064400000F00F0000F1E02080F8141D286840F3F0
:106450000730002809DB00F01F0106FA01F14009AE
:10646000800000F1E020C0F8001128680421C0F885
:1064700000150020A061E06184F8290044F8140FA1
:10648000A675ACE7C0010020F46F00008000020098
:106490002DE9F05F054600790B4600EB400101EB6A
:1064A000C000244901EB8004284600F045F810B1F3
:1064B0001120BDE8F09F62614FF00009C4F8209000
:1064C000A36084F828904FF48E784E4641462868A1
:1064D000FFF72BFF28684FF0010AC0F808A02146FB
:1064E000286800F07FFB606808BBD5F800B06769DA
:1064F0000FE000BF94F8280008B10F2615E04146D0
:106500005846FFF70DFF0028F4D02146584600F00A
:1065100069FB206AB842F2D3574641462868FFF724
:10652000FFFE0028F9D02868C760C4F814903046F0
:10653000BFE70000C0010020007900EB400101EB43
:10654000C000044901EB80004069002800D0012010
:1065500070470000C00100202DE9F0470446007993
:106560004FF0000900EB400101EBC000284901EBAE
:1065700080072068C0F800957868B0B12068254988
:10658000C0F80813206840F3073000280DDB00F046
:106590001F02012191404009800000F1E020C0F875
:1065A0008011BFF34F8FBFF36F8F2068D0F80C2599
:1065B000D0F81485D0F80865D0F810554FF0FF31A9
:1065C000C0F81415C0F80C152068C0F80815C0F8FC
:1065D0001015501C02D01046FCF7F6FFB8F1FF3F33
:1065E00002D04046FCF7F0FF681C02D02846FCF7BA
:1065F000EBFF701C02D03046FCF7E6FF2068FFF787
:10660000CBFE87F82A90C7F80490BDE8F087000019
:10661000C0010020840202000149024800F000BCD1
:10662000EC010020002000402DE9F041054616460F
:1066300000790F46154A00EBC00102EB810494F883
:10664000201011B10820BDE8F081114951F8201047
:106650002868FFF789FE08B11120F4E7394628467B
:10666000FAF772FA6660386920601EB1397F2846F1
:10667000FCF734F828680821C0F800150020A06154
:10668000E0616061012184F82010DCE7EC0100206A
:10669000F86F00002DE9F04704460E4600792749BF
:1066A00000EBC00001EB800517463046FFF754FEB3
:1066B00030B1204600F044F820B11120BDE8F08749
:1066C0001020FBE76F61AE604FF490774FF0000849
:1066D00039462068FFF73AFE4FF4AC763146206821
:1066E000FFF734FE2068AA686969C0F84425C0F83D
:1066F000481520684FF00109C0F808906868D0B9C3
:10670000BA4651462068FFF71CFE0746314620680E
:10671000FFF717FE0743F4D010B14FF00F0808E061
:106720002068C0F80C9031462068FFF70AFE002868
:10673000F9D0002068614046C0E70000EC0100206D
:106740000079054900EBC00001EB8000406900289A
:1067500000D0012070470000EC0100202DE9F04737
:10676000064600793D4900EBC00001EB8005346826
:1067700068680127A8B13A49C4F80813306840F3A3
:10678000073000280DDB00F01F0107FA01F1400976
:10679000800000F1E020C0F88011BFF34F8FBFF3FD
:1067A0006F8FD4F8000220F02000C4F80002A8691E
:1067B0004FF4A27820B141462046FFF7C7FD67603D
:1067C0004FF4AC7949462046FFF7C0FDE7604746E5
:1067D00049462046FFF7B5FD0028F9D0A86928B141
:1067E00039462046FFF7ADFD0028F1D04FF0000AF2
:1067F000C4F800A53068D0F80C25D0F81495D0F86E
:106800000885D0F810754FF0FF31C0F80C15C0F8AE
:1068100014153068C0F80815C0F81015501C02D0C7
:106820001046FCF7DAFEB9F1FF3F02D04846FCF70C
:10683000D4FE781C02D03846FCF7CFFEB8F1FF3FFB
:1068400002D04046FCF7C9FE2046FFF7A5FD85F8BB
:1068500020A0C5F804A0BDE8F0870000EC010020EE
:106860001003420003490860034801680029FCD076
:106870007047000004E5014000E40140024A0021A5
:1068800002EB8000816170477409002010B5044656
:10689000064890F8801021B10069A04201D1FFF7AD
:1068A00057FC03490020085510BD00007409002062
:1068B0001C01002010B5044CE06F002802D1FCF749
:1068C00049FCE06710BD00007409002070B5094D57
:1068D0000446E86F10B90848FAF78BFB04F1080189
:1068E000E86FFCF7E9FB002802D00020E8670120F0
:1068F00070BD0000740900202E020C002DE9F05F2D
:106900002A4F06464FF0A04A4FF0010B00243819D9
:1069100090F95010491C3CD090F85000314620F0BE
:10692000C0052846FCF7EDF920B3204600F040F8FA
:1069300081460AEB8500D0F80007C0F30148B8F1A2
:10694000020F18D002212846FCF776FE0BFA05F15B
:10695000CAF820152846FAF7FDF957F820204AB161
:106960004846B9F1030F11D0B8F1020F05D0B8F1C4
:10697000030F07D00DE00321E5E74846B9F1010F09
:1069800004D006E04846B9F1020F02D1014628467C
:106990009047641C042CBAD3324601210020FCF736
:1069A0005DFE30680028B1D1BDE8F09F6401002091
:1069B0000249084490F850008009704764010020A3
:1069C00010B50C46017A052908D0407A38B108483C
:1069D00008A102682046FCF7BBFC00E01AB106A142
:1069E0002046FCF7B5FC2046BDE81040FCF7BDBCD6
:1069F00080000020257300000D0A000038B5C38810
:106A00000D46044633B114A0009015A216A12846E5
:106A1000FCF79EFC217A05291CD0607A48B1A08839
:106A2000FEF70CFF164951F8202016A12846FCF766
:106A30008FFCA0880021FFF7BBF803461049207A9D
:106A4000143951F8202001B02846BDE830400EA18D
:106A5000FCF77EBC38BD00001B5B306D0000000001
:106A60001B5B313B33316D0025734C6F67732064C2
:106A7000726F70706564202825642925730D0A00E3
:106A800080000020257300003C25733E2025733ACA
:106A9000200000000349884201D1034870470020CC
:106AA00070470000002000401800002070B5054627
:106AB00088690C4600284FF4847128460AD0FFF7F5
:106AC00034FCD5F81805626AE1688854606A401C95
:106AD000606270BDFFF729FCD5F8180570BD1FB5C1
:106AE00001238DF80030CDE90121D0E9001268467C
:106AF00090471FBD1FB501238DF80030CDE901215E
:106B0000D0E90012684690471FBD000070B50D4CDB
:106B10000020D2B22070201D0B4D0378EB5C1BB11E
:106B2000001DFFF7B7FD02E00C30FFF7B1FC08B124
:106B3000F9F7A4FF6078002802D021780029FAD064
:106B400070BD000030000020000000202DE9F84F4B
:106B5000074622489146884605681E460122694636
:106B60001846FAF78DF8DFF878A060B30098002196
:106B70000446801C0AE000BF00EA050259F821C063
:106B80000AEB8202401C491CC2F80CC0B142F3D38C
:106B90004FEA1749FAF7E6F8611C29400AEB810130
:106BA00049EA00422C40CA600AEB8401C86867F3D6
:106BB000C50066F3891068F39F2020F00300401C95
:106BC00020F00400C8609AF8000001E0FEF75CFEC7
:106BD0000028FBD1FAF70CFABDE8F88F500000202E
:106BE000A803002070B50C4605464FF48E71FFF7E0
:106BF0009CFB216AA068415C206A401C2062C5F8A9
:106C00001C1570BD1FB500228DF80020029181680F
:106C100001914261D0E90012684690471FBD1FB53F
:106C200000228DF800200291816801914261D0E933
:106C30000012684690471FBD1FB50A4601788DF8BF
:106C4000001041680191017A8DF80810C068039026
:106C5000044850F82210001F50F822206846904740
:106C60001FBD000008000020014901200870704786
:106C70003000002010B588B0044620220E49684636
:106C8000F9F750FB06200090C01F0190029003907E
:106C90004FF0EB7006900CB1084A00E00022694604
:106CA0000748FCF7E1F808B1F9F7E8FE0448001FCF
:106CB000447008B010BD000018700000696C00003E
:106CC000340000202DE9FF470C4605464FF40071C3
:106CD000FFF731FB01274FF40178002618B34FF47A
:106CE000927949462846FFF71BFBE0B14946284602
:106CF000FFF71BFBC5F8088394F8290000B96F6003
:106D000002208DF80000D5F88004C5F880040390B7
:106D1000A0690290E0680190A661E661D4E90012E2
:106D20006846904728E004212846FFF704FB18B383
:106D30004FF484712846FFF7F3FAE8B1214628465C
:106D4000FFF7B4FE616AA069884215D1E06938B1E5
:106D5000E268616AA0612069E6616662E06008E05D
:106D600094F8290000B96F60C5F80883A661E2684D
:106D7000616A2046FFF7B3FE4FF48E7841462846FD
:106D8000FFF7CEFA80B16069216A814202D294F89D
:106D9000280028B341462846FFF7C7FA606918B1B2
:106DA00061692046FFF72EFF4FF4A278414628463E
:106DB000FFF7B6FA002818D041462846FFF7B5FA83
:106DC00094F8290000B12F60A06900280DD0A661B9
:106DD000E268616A04B02046BDE8F047FFF77FBE75
:106DE00021462846FFF7FEFEDEE7BDE8FF870000EC
:106DF0001FB50A4601788DF8001041680191017AAB
:106E00008DF80810C0680390044850F82210001F45
:106E100050F82220684690471FBD0000080000205F
:106E20002DE9FF410C464FF4927705463946FFF7AE
:106E300088FA0026B8B139462846FFF787FA0220BB
:106E40008DF80000D5F88004C5F880040390D5F8CB
:106E50003C050290E0680190A661E661D4E9001269
:106E60006846904723E04FF4887739462846FFF775
:106E700068FAE0B139462846FFF768FAD5F83C15BC
:106E8000A069884213D1E06960B1E268D5F80002D8
:106E900020F02000C5F80002E069A0612069E661E9
:106EA000E06001E0A661E2682046FFF723FE4FF4B0
:106EB000A27739462846FFF744FA68B13946284692
:106EC000FFF744FAA06938B1A661E661D5F83C1530
:106ED0002046E268FFF70EFE4FF4907631462846D2
:106EE000FFF72FFA60B131462846FFF72FFA01204D
:106EF000E860606920B1D5F84C152046FFF78FFE99
:106F00004FF4AC7631462846FFF71BFA00280ED026
:106F100031462846FFF71AFA6069002807D0D5F8ED
:106F20004C1504B02046BDE8F041FFF778BEBDE83F
:106F3000FF8100002DE9F05F8346DDE90A4A9946AA
:106F400090460D460846012703E000BFB0FBF8F06D
:106F50007F1C4045FAD2B94500D94F465FEACA7056
:106F600012D18CB15FEA8A7002D5B9F1000F01D05D
:106F7000202607E0302605E031465846641EF9F722
:106F8000C5FE0CB1A742F7D35FF00106B9F1010FBE
:106F900002D9A9F1010903E0B5FBF6F0404502D39F
:106FA00006FB08F6F2E7DFF83C9000BFB5FBF6F011
:106FB00000FB165519F800105846F9F7A7FEB6FB66
:106FC000F8F6002EF2D15FEACA7009D0002C07D083
:106FD000A74205D220215846641EF9F797FEF5E72F
:106FE000BDE8F09FFC6F0000111213140D0E0F107E
:106FF00000000050AD6300001966000030313233EC
:107000003435363738394142434445462558000027
:10701000F9570000F1570000FFFFFFFFFFFFFFFFE0
:10702000FFFFFFFFFFFFFFFF000000000000000068
:107030000000D60106010000100300207F000000C0
:107040009003002032536601172D391A440C400D6D
:10705000490D3E1A2D0C4D000000000000000000FC
:107060000338FDD8704700000010004010110040A8
:1070700003100000010000000010004000000000AC
:107080000B0204000000000004100040000000009B
:107090000701030100000000004040404040404024
:1070A00040404141414141404040404040404040DB
:1070B000404040404040404040050202020202027F
:1070C00002020202020202020220202020202020CE
:1070D00020202002020202020202909090909090E2
:1070E00010101010101010101010101010101010A0
:1070F0001010101002020202020288888888888814
:1071000008080808080808080808080808080808FF
:1071100008080808020202024000000099700000FE
:107120007761726E696E6700646562756700000062
:107130001B5B313B33306D001B5B306D000000008A
:107140001B5B313B33316D001B5B313B33326D00D8
:107150001B5B313B33336D001B5B313B33346D00C4
:107160001B5B313B33356D001B5B313B33366D00B0
:107170001B5B313B33376D00696E666F00000000AA
:107180006572726F720000004750494F544500000D
:107190005052530055415254000000005541525482
:1071A000450000006170705F627574746F6E00005E
:1071B0006170705F74696D6572000000736F727446
:1071C0006C69737400000000756172745F6C6F67A6
:1071D0005F6261636B656E64000000006170700047
:1071E000647200000000002034010000B8030000B9
:1071F000B0720000340100209C2A0000E809000061
:107200000C70000000000000C87100004800002061
:107210008871000000000000907100000000000074
:1072200094710000000000009C710000000000004C
:10723000A471000000000000B07100000000000018
:10724000BC71000000000000DC71000000000303BE
:107250005C000020540000205C0000205002002050
:1072600018000000013A642000409420004042FFD2
:107270000220FF33807133207133787133287133EA
:107280003871333071334071334871335071335832
:107290007133607133687103207071041190D003F1
:1072A000C205064404192A3F4D3345487309480076
:0400000500000201F4
:00000001FF
