:020000040000FA
:1000000008080020150200001D0200001F02000069
:100010002102000023020000250200000000000071
:1000200000000000000000000000000027020000A7
:1000300029020000000000002B0200002D02000039
:100040002F0200002F0200002F0200002F020000EC
:100050002F020000000000002F0200002F0200000D
:100060002F0200002F0200002F0200002F020000CC
:100070002F0200002F0200002F0200002F020000BC
:100080002F0200002F0200002F0200002F020000AC
:100090002F0200002F0200002F0200002F0200009C
:1000A0002F0200002F0200000000000000000000EE
:1000B0002F0200002F0200000000000000000000DE
:1000C0000000000000000000000000000000000030
:1000D0000000000000000000000000000000000020
:1000E0000000000000000000000000000000000010
:1000F0000000000000000000000000000000000000
:1001000000000000000000000000000000000000EF
:1001100000000000000000000000000000000000DF
:1001200000000000000000000000000000000000CF
:1001300000000000000000000000000000000000BF
:1001400000000000000000000000000000000000AF
:10015000000000000000000000000000000000009F
:10016000000000000000000000000000000000008F
:10017000000000000000000000000000000000007F
:10018000000000000000000000000000000000006F
:10019000000000000000000000000000000000005F
:1001A000000000000000000000000000000000004F
:1001B000000000000000000000000000000000003F
:1001C000000000000000000000000000000000002F
:1001D000000000000000000000000000000000001F
:1001E000000000000000000000000000000000000F
:1001F00000000000000000000000000000000000FF
:10020000DFF80CD000F018F800480047290500007E
:10021000080800200648804706480047FEE7FEE73A
:10022000FEE7FEE7FEE7FEE7FEE7FEE7FEE7FEE7A6
:100230005D02000001020000064C074D06E0E06888
:1002400040F0010394E8070098471034AC42F6D31D
:10025000FFF7DAFFC0050000E005000070B54FF0C1
:1002600080520024D2E94C100E2905D1D2F8443234
:10027000694DC3F342332B60082901D00E2908D100
:100280004FF08043C3F80C41C3F81041624B1B1F71
:100290001C60082901D00E2955D1604B1B68604DA8
:1002A0002B605E4B1B1D1B682D1D2B605B4B0833A9
:1002B0001B682D1D2B60594B0C331B682D1D2B60AB
:1002C000564B10331B682D1D2B60544B14331B6889
:1002D0002D1D2B60514B18331B68514D20352B6061
:1002E0004E4B1C331B682D1D2B604C4B20331B6861
:1002F0002D1D2B60494B24331B682D1D2B60474B54
:1003000028331B682D1D2B60444B2C331B682D1D7F
:100310002B60424B30331B68414D40352B603F4BC7
:1003200034331B682D1D2B603C4B38331B682D1D4F
:100330002B603A4B3C331B682D1D2B60374B4033F1
:100340001B682D1D2B60082904D1030002D1364DF6
:10035000344B2B60082904D1030002D1334DFB2319
:100360002B60334B082907D1050005D192F858526C
:100370001A6865F303021A60082904D1020002D149
:100380002C4D8A012A60082901D00E2906D12A4A5B
:100390001568ED0702D06FF0010515600E2903D135
:1003A0001A6842F00F021A604FF01022082906D195
:1003B000032804D9D2F8080217491C310860D2F882
:1003C00000021E4B002803DBD2F8040200280EDADC
:1003D000012000F0DFF81220C2F80002196800299D
:1003E000FCD0C2F8040218680028FCD00BE092F898
:1003F0000C02C0070CD0012000F0CCF8C2F80C426F
:1004000018680028FCD0002000F0C4F800F01CF8A8
:100410000C490B48086070BD3C0500400404001006
:1004200020C50040488103008C56004018F500406C
:10043000E40E0040409602400004004000E4014009
:100440000090D00300000020BFF34F8F05480168E3
:10045000054A01F4E06111430160BFF34F8F00BF13
:10046000FDE700000CED00E00400FA0502E008C81A
:10047000121F08C1002AFAD170477047002001E01E
:1004800001C1121F002AFBD1704700002DE9FC4179
:100490000646C0074FF000050ED0104F0024012281
:1004A000385D009500231146019500F055F8641C55
:1004B000042CF4D300F02EF8B0070DD5074E00241D
:1004C000361D0022305D032300951146019500F092
:1004D00043F8641C042CF4D3BDE8FC81B60500008D
:1004E00007490B5C4FF0A041D1F80425012098404A
:1004F00020EA0203C1F808351040C1F80C05704726
:10050000B60500000249085C012100F037B8000080
:10051000B605000010B500242046FFF7F3FF641C69
:10052000042CF9D310BD00000120FFF7AFFF094CE8
:100530004FF4FA784FF47A4700263046FFF7D0FFA1
:100540004546611C384688476D1EFAD1761C042E3C
:10055000F3DBF1E7B005000070B541EA4201DDE9E7
:1005600004564FF0A04441EA830141EA052104EB1F
:10057000800041EA0641C0F8001770BD01224FF02B
:10058000A043824011B1C3F808257047C3F80C2579
:100590007047000003490860034801680029FCD047
:1005A0007047000004E5014000E401400000000045
:1005B0000338FDD870470D0E0F100B0C18190000F2
:1005C000E005000000000020040000006C040000B2
:1005D000E405000004000020040800007C04000082
:0405E0000090D003B4
:0400000500000201F4
:00000001FF
