:020000040000FA
:10000000F05B0020490300005103000031020000B2
:1000100055030000570300005903000000000000D2
:100020000000000000000000000000005B03000072
:100030005D030000000000005F030000610300009A
:100040005107000063030000D10A000063030000B1
:100050006303000063030000AD04000063030000BD
:1000600063030000630300006303000063030000F8
:1000700063030000610700006303000063030000E6
:1000800063030000890700006303000063030000AE
:1000900063030000630300006303000063030000C8
:1000A00063030000630300006303000063030000B8
:1000B0006303000063030000000000000000000074
:1000C0006303000063030000630300006303000098
:1000D00063030000630300006303000000000000EE
:1000E0000000000000000000000000000000000010
:1000F0000000000000000000000000000000000000
:1001000000000000000000000000000000000000EF
:1001100000000000000000000000000000000000DF
:1001200000000000000000000000000000000000CF
:1001300000000000000000000000000000000000BF
:1001400000000000000000000000000000000000AF
:10015000000000000000000000000000000000009F
:10016000000000000000000000000000000000008F
:10017000000000000000000000000000000000007F
:10018000000000000000000000000000000000006F
:10019000000000000000000000000000000000005F
:1001A000000000000000000000000000000000004F
:1001B000000000000000000000000000000000003F
:1001C000000000000000000000000000000000002F
:1001D000000000000000000000000000000000001F
:1001E000000000000000000000000000000000000F
:1001F00000000000000000000000000000000000FF
:10020000DFF80CD000F014F9004800473924000052
:10021000F05B002000B583B002900091019244F29F
:10022000010071466A4600F09FFD03B000BD00006A
:10023000094B1EF0040F1CBFEFF309801847EFF3C2
:1002400008800649064A884201D8904202D88D4665
:100250004FF000001847000051050000F05B00203F
:10026000F03B002030B4044654E8000F0D4644E84B
:100270000053002BF8D1156030BC704730B40446F1
:1002800054E8000F40EA010544E80053002BF7D181
:10029000156030BC704730B4044654E8000F00EAE3
:1002A000010544E80053002BF7D1156030BC7047BE
:1002B00030B4044654E8000F80EA010544E80053D6
:1002C000002BF7D1156030BC704730B4044654E8B9
:1002D000000F00EB010544E80053002BF7D1156037
:1002E00030BC704730B4044654E8000FA0EB010561
:1002F00044E80053002BF7D1156030BC704770B450
:1003000004464FF0000054E8006F0D68AE4207BF8E
:1003100044E80023012044E800630E60002B1CBF6A
:100320000020F0E770BC704730B4044654E8000F7A
:1003300088422CBF451A054644E80053002BF5D1EE
:10034000156030BC704700000648804706480047EB
:10035000FEE7FEE7FEE7FEE7FEE7FEE7FEE7FEE775
:10036000FEE7FEE7F90700000102000000487047C1
:100370006CAE000010B5431A934209D28318881856
:1003800003E010F8011D03F8011D521EF9D210BD43
:1003900040EA01039B0703D009E008C9121F08C007
:1003A000042AFAD203E011F8013B00F8013B521E87
:1003B000F9D210BDD2B201E000F8012B491EFBD2E8
:1003C00070470022F6E710B513460A460446194660
:1003D000FFF7F0FF204610BD421C10F8011B00295A
:1003E000FBD1801A704730B504460020034600E078
:1003F0005B1C934203D2E05CCD5C401BF8D030BD67
:10040000034611F8012B00F8012B002AF9D11846F8
:10041000704710B54843044602F068F8002805D03C
:100420000021002C02D0641E0155FAE710BD000027
:10043000064C074D06E0E06840F0010394E8070031
:1004400098471034AC42F6D3FFF7DEFE0CC2000032
:100450002CC2000070B58C1810F8015B15F0070372
:1004600001D110F8013B2A1106D110F8012B03E04D
:1004700010F8016B01F8016B5B1EF9D12B0705D455
:100480000023521E0DD401F8013BFAE710F8013B9E
:10049000CB1A921C03E013F8015B01F8015B521EBA
:1004A000F9D5A142D8D3002070BD00002DE9F84352
:1004B0000025DFF894804FF4807601242F460095C4
:1004C000304605F045F938B1D8F80403204203D08E
:1004D000304605F033F92543361D64007F1CB6B263
:1004E000082FEDD34FF4BE74204605F031F948B122
:1004F000204605F023F945F000456A460121002019
:1005000005F05AF815F0FF0F16D0012600242E42F0
:100510000ED008EB8401D1F81005D1F81015C0F306
:1005200004200A4AC1F3014152F8242002B1904745
:100530007600641C082CEAD3002D02DA684606F027
:100540006BFEBDE8F883000000600040A0030020BF
:100550001CB5814605F0E4FB05F010FA0028FBD13C
:1005600030485FEA090507682F4830494FF0010617
:10057000A0EB01004FEAD00006EB004417D0204664
:100580002BA1AA6905F018FBD5E90201CDE900010C
:10059000D5E9002320462CA105F026FBE869009050
:1005A000D5E90423204636A105F015FB03E02046DB
:1005B0003DA105F0FDFA1B48001D0068800703D52A
:1005C0002046464905F0F4FADFF81481002500BF03
:1005D00006FA05F0384206D058F825201AB1204610
:1005E00040A105F0E9FA6D1C1A2DF1D3380606D5A5
:1005F0000C480C30026820463DA105F0DDFA3804B5
:1006000006D5084810300268204641A105F0D4FA0A
:100610000448C8300068C00700D000BE484600F05B
:1006200085F8000028ED00E0ACC200005CC20000CC
:1006300048415244204641554C5420617420307842
:100640002530385800000000202052303A20203059
:100650007825303858202052313A20203078253003
:100660003858202052323A2020307825303858200F
:100670002052333A202030782530385800000000CE
:1006800020205231323A2030782530385820204C02
:10069000523A202030782530385820205053523A92
:1006A0002030782530385800537461636B207669A8
:1006B0006F6C6174696F6E3A20737461636B207044
:1006C0006F696E746572206F7574736964652073E9
:1006D0007461636B20617265612E000000B50000DB
:1006E000F000002043617573653A2025732E0000E9
:1006F0004D656D4D616E616765204661756C742056
:10070000416464726573733A20307825303858003C
:10071000427573204661756C742041646472657320
:10072000733A20307825303858000000BFF34F8FDF
:1007300005480168054A01F4E06111430160BFF317
:100740004F8F00BFFDE700000CED00E00400FA054C
:1007500010B505F067FFBDE8104005F0CFBE000002
:10076000064882B0002101600068009004480068DB
:100770000449C0B2496802B00847000000D10040F7
:1007800008D50040D800002002490248091F096826
:1007900000680847E800002000F0C8B970B50E46B0
:1007A000144900EB400001EBC0051446E86A183517
:1007B00020B101280FD0022805D113E0284600F00F
:1007C000E9F9A04201D2002411E022463146284630
:1007D00000F018FA0BE0284600F0DCF9A042F4D251
:1007E0000446F2E73146284600F0DFF90446204689
:1007F00070BD000064130020F0B5A449A4484FF078
:1008000080540B68D4F830210078D4F83411551C8A
:10081000C0F3031006D0944601270026BCF1060F52
:1008200003D00AE003F0FF0CF6E7B4F82453DFF836
:1008300064C2C5F30425CCF80050DDB2062D06D104
:10084000032804D1DFF854C2934DCCF87450551CE2
:1008500004D09446BCF1060F03D00AE003F0FF0C6D
:10086000F8E7D4F84452DFF838C2C5F34235CCF883
:100870000050DDB2062D08D1032806D1894DD5F8E8
:1008800000C02CF0807CC5F800C0551C04D09446F4
:10089000BCF1060F03D00BE003F0FF0CF8E74FF0BC
:1008A0008045C5F80C61C5F810617D4D2D1F2E6087
:1008B000DDB2062D08D1032806D1DFF8E4C10325F7
:1008C0000CF1640CCCF80050DDB2062D10D10328D9
:1008D0000ED1DFF8D4C10525CCF80050724D783523
:1008E0002F60714D08352E600CF104063F253560F0
:1008F000551C04D016460D46062E03D05BE0DEB232
:100900000546F9E7ED1E012D55D9684D2D68684E55
:100910003560664D2D1D2D68361D3560634D0835DB
:100920002D68361D3560614D0C352D68361D3560DE
:100930005E4D10352D68361D35605C4D14352D68C3
:10094000361D3560594D18352D68594E20363560A5
:10095000564D1C352D68361D3560544D20352D689B
:10096000361D3560514D24352D68361D35604F4D8F
:1009700028352D68361D35604C4D2C352D68361DBB
:1009800035604A4D30352D68494E40363560474D0B
:1009900034352D68361D3560444D38352D68361D8B
:1009A0003560424D3C352D68361D35603F4D403534
:1009B0002D68361D3560551C03D01646062E02D014
:1009C00007E0DEB2FAE7D4F858523A4E05F04F0588
:1009D0003560551C03D01346062B02D008E0DBB26D
:1009E000FAE735480368DB0702D06FF001030360C4
:1009F000062A07D1C91E022904D93048016841F4EA
:100A00008061016027487438016841F47001016019
:100A1000BFF34F8FBFF36F8FD4E94C104FF010220C
:100A2000062907D1C01E032804D9D2F808021C49A0
:100A30001C310860D2F80002002803DBD2F804025F
:100A400000281FDA012006F0D1FA1521C2F80012A1
:100A50001B480368002BFCD0C2F80412016800296F
:100A6000FCD0002006F0C2FABFF34F8F0D48F038DB
:100A70000168144A01F4E06111430160BFF34F8F34
:100A800000BFFDE7114910480860F0BDE00F00F01D
:100A9000E80F00F0403501400DF0ADBA00C007404E
:100AA0003C050040FCED00E010560040040400103E
:100AB00020C50040E40E0040000400403C17004008
:100AC00000E401400400FA050090D003EC0100208E
:100AD00010B5054C206818B904A12B2000F0A4FA29
:100AE0002068BDE810400047D00000202E2E5C2E6C
:100AF0002E5C2E2E5C2E2E5C2E2E5C2E2E5C2E2E30
:100B00005C2E2E5C6D6F64756C65735C6E726678BE
:100B10005C647269766572735C7372635C70727325
:100B20005C6E7266785F7072732E630010B5124C43
:100B300002202061606111A0A06104F17800E061F1
:100B40004FF4006020620020A06260620BA1A164EB
:100B5000E06204F67801E1641021A065C4E9141094
:100B6000E06509A1E01DFFF74BFC08A12046FFF757
:100B700047FC2020A07110BD641300205465726DE5
:100B8000696E616C000000005254540053454747A1
:100B9000455200000269C1688A4203D88068401A41
:100BA000104400E0501A401E70472DE9F047C46819
:100BB0001746894606464FF000083069A04201D921
:100BC000051B02E0B168201A0D1AB0686D1E001BEB
:100BD000A84200D80546BD4200D33D4670682A466B
:100BE00020444946FFF7C6FBB0687F1B2C44A8444D
:100BF000A944A04200D10024F460002FDDD140467A
:100C0000BDE8F0872DE9F04104468846D4E90207A3
:100C1000C51BE168606816460844B54206D94146DE
:100C2000FFF7A8FBB819E060BDE8F0812A4641460D
:100C3000FFF7A0FB761B08EB050132466068FFF763
:100C400099FBE660F0E702E008C8121F08C1002A1D
:100C5000FAD170477047002001E001C1121F002A3D
:100C6000FBD1704730B58B1A8021815401210024BB
:100C700003E05518491C4455C9B29942F9D330BD17
:100C800030B58B1A0021DCB203E05518491C4455DD
:100C9000C9B29942F9D330BD70B58C1A0123002531
:100CA00005E0D61806445B1C06F8015CDBB2A342E3
:100CB000F7D3084400F8014C70BD002301E08354D1
:100CC000521C8A42FBD370477CB5DDE90645CDE96D
:100CD000004501F041FC7CBDFEB508AF97E870000F
:100CE0008DE8700001F083FCFEBDFEB508AF97E80B
:100CF00070008DE8700001F0EDFCFEBD01F020BD3C
:100D00007CB5DDE90645CDE9004501F025FD7CBD5A
:100D10007CB5DDE9065419B1012901D003487CBD39
:100D2000CDE9005401F040FD7CBD0000009FFFFFB5
:100D300010B54FF48C71012001F084FF040003D042
:100D400001F0C0FD204610BD002010BD10B50446C6
:100D500001F0B1FD2046BDE8104002F0BBBF01F03C
:100D6000B5BD01F019BE0000FEB514460E4607469B
:100D700072B604F0D5FF00BF04F000FE0028FBD1DE
:100D80001D4A1E496FF480403B18A2EB01014FF051
:100D900001004FEAD10100EB014519D0012B284693
:100DA00010D0324616A104F007FF1B480068C007A8
:100DB00000D000BE224603B031463846BDE8F040C0
:100DC00000F058B8D4E9003214A104F0FCFEECE7BE
:100DD000A06805F0F9FA0346D4E90001CDE9001056
:100DE0000296284614A1A26804F008FF28461CA118
:100DF00004F0DEFED9E70000C4C200005CC20000BF
:100E0000554E4B4E4F574E204641554C5420617421
:100E10002030782530385800F0ED00E0415353453C
:100E20005254494F4E204641494C4544206174205C
:100E300025733A25750000004552524F5220257502
:100E4000205B25735D2061742025733A25750D0A9A
:100E500050432061743A2030782530387800000003
:100E6000456E64206F66206572726F7220726570C5
:100E70006F72740008B501238DF800309DF80030C2
:100E8000144B186059609A606FF48041401807D085
:100E900001280FD1DA60D86800689861D86807E047
:100EA0001A61186980685861186900689861186942
:100EB0004068D861186858689868D868186958698F
:100EC0009869D86972B600BF9DF800000028FBD170
:100ED00062B608BD4C04002010B506F071FA012876
:100EE00003D004491D2000F09FF8BDE8104000F039
:100EF00013B80000E0B3000010B506F061FA012855
:100F000003D004492B2000F08FF8BDE8104000F01A
:100F10000BB80000E0B3000072B602480168491C3B
:100F200001607047E000002003490868401E086027
:100F300000D162B670470000E000002070B50546A1
:100F400008680C46411C04D004F0E3FB206804F060
:100F500007FB6068411C02D0002104F0EFFA296809
:100F6000A069C1F82405607D227D29681043C1F87D
:100F70006C05D4E900122868C0F81425C0F80C15D7
:100F8000207D012814D1A068411C02D0002104F06A
:100F9000D5FAE068411C04D004F0BBFBE06804F023
:100FA000DFFAD4E902122868C0F80825C0F8101545
:100FB00070BD70B5054608680C46411C04D004F0AD
:100FC000B2FB206804F0D6FA6068411C02D0002110
:100FD00004F0BDFA2968A069C1F82405607D217D6F
:100FE0002A680843C2F86C05D4E900122868C0F8E2
:100FF0000C15C0F81425207D012814D1A068411CCF
:1010000002D0002104F0A3FAE068411C04D004F0EF
:101010008AFBE06804F0AEFAD4E902122868C0F84E
:101020000825C0F8101570BD1CB56A46CDE9000151
:10103000002144F20200FFF797FE1CBD70B5049C2E
:101040002568102D02D248F2145070BD150702D049
:1010500048F2115070BD00F009F818B1BDE87040B9
:1010600006F006BA10202060002070BD2DE9FC4774
:1010700089460021984615460C4600F1090600F104
:101080001C070CE009EB0401CDE9001833461022DF
:101090000121384601F060FA010003D11034AC425E
:1010A000F0D30846BDE8FC872DE9F0470C464168BF
:1010B000002507464A884FF48079802A07D0C02A45
:1010C00005D04A4503D048F21850BDE8F0870B78A8
:1010D00000F1080200F11C064FF0000848F2175119
:1010E00007F10C00092B42D2DFE803F005050505E6
:1010F000090911111900012C0BD094B909E0012C38
:1011000000D074B987F8088001F0DCFB31E0022CD4
:1011100007D111211046FFF754F93046F4E7022CAD
:1011200001D00846D1E7054602F0C2FB7868408846
:10113000802805D0C02805D0484510D1042002E001
:10114000022000E0032002F08BFB01000AD02846B9
:1011500002F012FC48B106F08BF9054609E048F2AE
:10116000025506E048F2165503E0454601E048F214
:1011700003553C722846A8E70B4610B500F109015B
:1011800010221846FFF7F6F8002010BD10B5102207
:101190000930FFF7EFF8002010BD000070B542687D
:1011A000034600F11C0415780C30092D21D2DFE82C
:1011B00005F0050516160E0E16161900187A0128E8
:1011C0000DD052884FEA040001F080FB0DE01B7A3D
:1011D0005288012BF8D100BF01F0DEFB05E05288F8
:1011E0002046F9E7528802F08DFABDE8704006F01B
:1011F0003FB948F2035070BD10B541680A7800F15C
:101200001C010C30092A0FD2DFE802F00808080898
:10121000050508080A0001F04EFB03E00846FAE75E
:1012200002F000FB002010BD48F2035010BD2DE974
:10123000F0431546426889B000F11C04167800F1AD
:101240000902092E4AD2DFE806F005051A0E23230B
:101250003B3B3F00CDE90013017A13462A46204666
:1012600001F07AF934E00020079003A88DE80B0024
:10127000134607AA2946204601F02CFA28E0CDE9BA
:101280000013017A13462A46204601F0F1F91FE0C7
:101290000746002688461C4628070CD06FF0210020
:1012A00017E0A31908EB0602397A484601F048FA1C
:1012B00078B9103601E007F10C09AE42F1D312E023
:1012C0002A46FFF7D3FE03E02A460C3002F044FA28
:1012D00048B109B0BDE8F04306F0CAB848F2025080
:1012E00009B0BDE8F0830020FAE72DE9F04FADF535
:1012F0003F7D14460E468346B2F5C07F05D96FF098
:1013000037000DF53F7DBDE8F08F4FF4D071684692
:10131000FFF757F868A801F0D5FA200E8DF81000F5
:10132000200C8DF81100200A8DF8120020208DF875
:10133000170006AD8DF81340224631462846FFF7C8
:1013400019F88020285504F119080020BAA908547A
:10135000401C1028FBDB802268A801F01DFB070061
:1013600051D10025AA466E46CDF8B8A2CDF8BCA250
:10137000CDF8C0A244460DF52E79CDF8C4A217E0F1
:1013800000204946335C0A5C5A400A54401C10282D
:10139000F8DB1036102C01D3102000E02046241A70
:1013A000AEAB1A46012168A801F0CAF907002AD19C
:1013B000002CE5D1B2A828441022AEA9FEF7DAFF2E
:1013C0009DF803001035401C8DF80300202DCADB6A
:1013D0008022B2A968A801F0DFFA070013D1B6AEE7
:1013E0005C46002533461A46012168A801F0A8F999
:1013F000070008D1102231462046FEF7BBFF10340B
:101400001035202DEEDB68A801F055FA4FF4D071AD
:10141000684603F017FA2021B2A803F013FA10214E
:10142000BAA803F00FFA1021AEA803F00BFA1FB10F
:101430002021584603F006FA384662E741094A423D
:1014400000EB421010B5044A0124844052F82130C8
:10145000234342F8213010BD5C0100202DE9F04704
:101460000546861C91460F464FF0010A0020FFF703
:1014700033FD1B4C04F21C4860683860D4E901015C
:10148000184F401A3968081A0EE00121404603F04F
:101490009FFA00F077FF0146404603F099FAD4E93D
:1014A0000101401A3968081A401C8642EDD8B9F18A
:1014B000000F03D0052065F3891002E0062065F3D4
:1014C0009F5061683A68114004EB8101C860606810
:1014D000304460600020FFF70FFD5046BDE8F08704
:1014E000440F00208C01002070B50D4604460A29E7
:1014F00002D10D21FFF7F8FFA0682268411CA1600E
:101500001554D4E90101814204D32046BDE870405E
:1015100003F054BE70BD00000448816840688142F9
:1015200001D101207047002070470000440F0020C7
:101530007CB5DDE90645CDE9004501F089FB7CBDC0
:10154000FEB508AF97E870008DE8700001F0CBFBA6
:10155000FEBDFEB508AF97E870008DE8700001F0A1
:1015600003FCFEBD01F036BC10B54FF48A710120BA
:1015700001F068FB040003D001F0EAFC204610BD36
:10158000002010BD10B5044601F0DBFC2046BDE88C
:10159000104002F09FBB0000F0B503680C68406883
:1015A000496863401D4D484055FA83F10C78A5F514
:1015B000407101EB136601F58077367844EA0664E2
:1015C000C3F30746C3F30723BE5D4FEA064C01F59C
:1015D0000076F35C4CEA03231C4351FA80F107EBDD
:1015E000106309781B7841EA0361C0F30743C0F335
:1015F0000720F35C285C1B0443EA0020014384EAD3
:10160000316081EA304180EA3120136881EA30217B
:101610004B401360516841405160F0BDB8A30000D9
:1016200001F09ABC01F0D8BC13460A46022101F031
:1016300008BF13460A46052101F003BF10B5442137
:10164000012001F0FFFA040001D001F0F7FE20466E
:1016500010BD10B5044601F0E5FE2046BDE810407F
:1016600002F038BB70B50D4690B0044601464022EA
:101670006846FEF77FFE0026684600F075F8761C87
:101680000A2EF9D3009821680844009001986168F7
:10169000084401900298A168084402900398E16808
:1016A00008440390049821690844049005986169EE
:1016B000084405900698A169084406900798E169D6
:1016C000084407900898216A084408900998616ABC
:1016D000084409900A98A16A08440A900B98E16AA4
:1016E00008440B900C98216B08440C900D98616B8A
:1016F00008440D900E98A16B08440E900F98E16B72
:1017000008440F9000206946820011F82030AB5445
:1017100031F820302A441B0A537051F820301B0C3A
:10172000937051F82030401C1B0ED3701028EBD35F
:101730004021684603F086F810B070BD10B58421D2
:10174000012001F07FFA040003D001F0A5FE20463D
:1017500010BD002010BD10B5044601F097FE2046D4
:10176000BDE8104002F0B6BA2DE9F8430C248046DB
:10177000082304220021009400F036F80D250923E7
:10178000052201214046009500F02EF80E260A237E
:10179000062202214046009600F026F80F270B2370
:1017A000072203214046009700F01EF80A23052275
:1017B00000214046009700F017F80B230622012174
:1017C0004046009400F010F808230722022140460A
:1017D000009500F009F809230422032140460096F1
:1017E00000F002F8BDE8F88370B550F8215050F8C9
:1017F0002260049C2E4440F8216050F8245075402B
:101800004FEA354540F8245050F823602E4440F804
:10181000236050F8225075404FEA355540F8225069
:1018200050F82160354440F8215050F824106940A8
:101830004FEA316140F8241050F823400C4440F83E
:10184000234050F8221061404FEA716140F82210A5
:1018500070BD000010B5054CB2F5807F03D101F0DA
:1018600029FE002800D0204610BD0000009FFFFF89
:1018700010B501F059FE10F1510F00D1004810BD14
:10188000009FFFFF10B5E821012001F0DBF9040003
:1018900003D001F0E2FE204610BD002010BD10B5BF
:1018A000044601F0C9FE2046BDE8104002F012BA1D
:1018B0001FB590F8D01011F00F010CD0002200924B
:1018C000019202920392C1F110026946843002F043
:1018D000CCFF04B010BD0020FBE7000010B5054CA4
:1018E000B2F5807F03D101F0C8FE002800D0204669
:1018F00010BD0000009FFFFF0249084490F930002E
:1019000070470000A003002070B5084C050009D006
:1019100010342168002907D00868206049682846EB
:101920008847F6E70834F4E770BD00003C03002068
:10193000054A012120B1012805D19170FFF7E4BFCC
:1019400051700020FAE770473C03002070B5002476
:1019500004E00D5D165D75400555641C9C42F8D38E
:1019600070BD000030B100680549884205D048F2DA
:101970000250704748F20150704700207047000045
:101980006341455302681368526831B19A4202D3E9
:101990008068801A07E0981A70479A4201D3D01ADB
:1019A00070478068C01A401C7047000070B5D8B0FE
:1019B000002653965496559633485696FEF70CFDDE
:1019C00004460246304931A005F05AFE22462E490F
:1019D00031A000F03BFB0222344901A803F0E4F8F7
:1019E000050033483349A0EB01004FEAD0004FF027
:1019F000050101EB004401D0284624E0224901A85A
:101A0000203903F003F905001DD14F9650965196E9
:101A10004FA901A8529603F0E3F8050013D11A4824
:101A2000FEF7DAFC02461020579057A8009053ABFF
:101A3000154901A803F08EF8050004D101A803F0B0
:101A4000F7F8050009D003F00BF9034620462A46B3
:101A500019A104F0B8F858B070BD579853A9C2B294
:101A60001BA000F0F3FA08491022643153A8FEF7D6
:101A7000BAFC0028204604D01BA100BF04F098F84F
:101A8000E9E721A1FAE7000020000020506C61691D
:101A90006E20746578740000506C61696E20746506
:101AA000787420286865782900000000347C0000E4
:101AB000C4C200005CC200000D0A4572726F722041
:101AC0003D20307825780D0A25730D0A00000000AE
:101AD00043616C63756C61746564204D41432028DB
:101AE0006865782900000000414553204342435F68
:101AF0004D4143206578616D706C65206661696C4D
:101B000065642121210D0A00414553204342435F72
:101B10004D4143206578616D706C65206578656323
:101B200075746564207375636365737366756C6C37
:101B3000792E0D0A000000002DE9F04389B0884697
:101B400004466E4620213046FEF73BFC002504F19A
:101B500020091020211811F8012D521C12F0FF024B
:101B60000A7002D1401E0028F4DC334622460121CF
:101B7000484600F0E5FD070017D110351036202D3E
:101B8000E7DB694618F800200B5C53400B54401CFF
:101B90002028F7DB8022484600F0FEFE070004D133
:101BA00004AD95E80F0084E80F002021684602F09C
:101BB00049FE09B03846BDE8F083000010B50021A9
:101BC000024802F010FF80F3100010BD60130020E7
:101BD00010B50846114603F0A7F9002010BD00001B
:101BE00010B5002821D0114B0022001F196803E016
:101BF000814203D80A4649680029F9D152B11368D5
:101C0000841A9C4204D1006818441060104602E017
:101C1000506000E0186039B102680B1A934203D19A
:101C20000B681A4402604968416010BDF001002051
:101C300013460A46022102F064B813460A460521FB
:101C400002F05FB810B54FF4C871012000F0FAFF40
:101C5000040001D002F051F8204610BD10B5044632
:101C600002F03EF82046BDE8104002F033B8000014
:101C70002DE9F04F87B004460020019002900390B8
:101C80000490059001A802AB00901022194620464E
:101C900001F08CFE00286AD102989DF80F1000BA5E
:101CA00020F0FF039DF80B009DF8175003430398A5
:101CB000002600BA20F0FF00084304994FF0614766
:101CC00009BA21F0FF029DF813100A430599C4E9EF
:101CD0003266C4E9126609BA21F0FF01C4E9420381
:101CE0002943C4E92212042501F00106A6FB076C72
:101CF0005FEA52084FEA31015B0883EA060304EB0E
:101D0000C50648EAC0724FEA3000C6E93203C6E9A8
:101D100012124FEA6505002DE6DC022304EBC30135
:101D200001F14802F1E93260D2E9009582460120D2
:101D300017E000BF04EBC00CE346DCE9327C01EBAA
:101D4000C00877408CEA0A0CC8E9007CDBE9127C09
:101D500002EBC00887EA09078CEA050CC8E9007C99
:101D6000401C9842E6DB5B00082BD7DD002007B063
:101D7000BDE8F08F2DE9F84F8B46C97BDFF8ECE02A
:101D800001F00F0100EBC1044FF00F0CD4E9323128
:101D9000D4E912741BF80C50BCF10F0F05F00F09B9
:101DA0004FEA151A1BD01E073D0945EA047546EA9D
:101DB000141607F00F081C09CDF800803EF83830E3
:101DC00000EBC9081F0444EA017487EA1117D8E937
:101DD000323163407940D8E912746F4074401E0775
:101DE0003D0945EA047546EA141607F00F081C0978
:101DF0003EF8383000EBCA081F0444EA017487EA51
:101E00001117D8E9323163407940D8E912746F4034
:101E10007440BCF1010CBDD5080E1070080C507058
:101E2000080A9070180ED17040EA01201071180C49
:101E300040EA01405071180A40EA01609071D37184
:101E4000200E1072200C5072200A9072380ED4723C
:101E500040EA04201073380C40EA04405073380AFA
:101E600040EA04609073D773BDE8F88F68AD000056
:101E7000F0B50D4C0246002004F11C0504F13803B6
:101E80004AB154F82060964205D353F8206055F8C3
:101E90002070BE4207D153F820608E4203D8401C08
:101EA0000728EDD30020F0BD687C000010B5014686
:101EB0000020FFF7DDFF024951F8200010BD0000AF
:101EC000687C000018B112B1002011607047014811
:101ED00070470000009FFFFFF0B5002398B192B15A
:101EE00080240025156049B346181D4616F8017C6C
:101EF00007B1012747EA05031768AB4205D000BFC9
:101F00004FF0010503E01148F0BD4FF00005A1F1CD
:101F1000010C05FB0CF547EA0507176016F8015C94
:101F200002D04FF0010601E04FF0000615FB06F568
:101F300085EA0405ECB2491ED6D10CB1012000E0BF
:101F400000204FF41E4110FB01F0F0BD009FFFFF89
:101F5000F0B548B142B1431813F8013CCD1A1560F1
:101F60008B4203D9012202E00F48F0BD00221BB1D1
:101F70000024144300220CE00124FAE7865C5E4052
:101F8000AA4201D3012700E000277E432643F4B292
:101F9000521C8A42F2D30CB1012000E000204FF421
:101FA0001E4110FB01F0F0BD009FFFFF70B548B16E
:101FB00042B1431813F8013CCC1A14608B4203D988
:101FC000012202E0104870BD002223B10023134318
:101FD0000022491E0CE00123F9E7855CA24201D3EF
:101FE000012600E0002615FB06F51D43EBB2521C4E
:101FF0008A42F2D30BB1012000E000204FF41E41D1
:1020000010FB01F070BD0000009FFFFF30B5002302
:1020100080B17AB100241460A1B145181C4615F8AE
:10202000015C05B1012545EA04031568A34203D00C
:10203000012402E0044830BD00244C4325431560D0
:10204000491EEAD1002030BD009FFFFF2DE9F0417D
:102050000F4680461D481E491646401AC1080520F5
:1020600000EB01401346044642461AA103F0ABFDC3
:1020700003F084FC0028FBD1002516E0280709D1D5
:1020800045B120461AA103F093FD00BF03F076FC92
:102090000028FBD17A5D204616A103F08DFD00BF1C
:1020A00003F06CFC0028FBD16D1CB542E6D3204642
:1020B0000FA103F07DFD2046424610A103F07CFDF8
:1020C00003F05CFC0028FBD1BDE8F081C4C2000035
:1020D0005CC200002D2D2D2D20257320286C656EEF
:1020E0006774683A20257529202D2D2D2D0D0A00A5
:1020F0000D0A000025303278200000002D2D2D2DF6
:1021000020257320656E64202D2D2D2D0D0A0D0ABE
:10211000000000002DE9FC5F0E008346DDE90C475E
:10212000C6F1000098469246814600D40846012533
:1021300003E000BF90FBFAF06D1C5045FADAA845A9
:1021400000D9454624B1002E01DB780700D5641E76
:10215000B80702D5B8F1000F0AD0F80708D13CB192
:10216000A54205D220215846641EFFF7BDF9F6E7C7
:10217000002E02DA4E462D2102E0780703D52B21EE
:102180005846FFF7B1F907F0030002280BD1B8F168
:10219000000F08D13CB1A54205D230215846641E3B
:1021A000FFF7A2F9F6E7CDE900474346524631462C
:1021B000584605F065FCBDE8FC9F000070B50E4672
:1021C000054600684FF48E7104F00DF94FF4A271CA
:1021D000286804F008F928681549C0F8041328682D
:1021E000082E40F3073403D312A14520FEF71CFF4D
:1021F0007007000E002C04DB04F1E02484F80004D6
:1022000005E004F00F0101F1E02181F8140D2868C8
:1022100040F30730002809DB00F01F020121914044
:102220004009800000F1E020C0F8001170BD0000FE
:10223000800002002E2E5C2E2E5C2E2E5C2E2E5C3C
:102240002E2E5C2E2E5C2E2E5C2E2E5C696E7465FE
:1022500067726174696F6E5C6E7266785C6E7266CE
:10226000785F676C75652E680000000070B50E46DB
:10227000044600684FF4887104F0C6F84FF490717A
:10228000206804F0C1F84FF49271206804F0BCF8A3
:102290004FF4A271206804F0B7F84FF4AC712068D5
:1022A00004F0B2F820681549C0F804132068082E1D
:1022B00040F3073503D312A14520FEF7B5FE7007A2
:1022C000000E002D04DB05F1E02585F8000405E093
:1022D00005F00F0101F1E02181F8140D206840F3B1
:1022E0000730002809DB00F01F020121914040095E
:1022F000800000F1E020C0F8001170BD1003420022
:102300002E2E5C2E2E5C2E2E5C2E2E5C2E2E5C2E07
:102310002E5C2E2E5C2E2E5C696E74656772617465
:10232000696F6E5C6E7266785C6E7266785F676C01
:1023300075652E68000000000246002012685307F1
:1023400013D502F00300012802D002280CD105E0C9
:10235000C2F383100B68801C184404E00223086851
:1023600003EB925210440860012070470268134644
:1023700002E08A4204D01268002AFAD10B600160A0
:10238000704770472DE9FF410026274802F01DFBEA
:102390002548001F074602F018FB244C2449A0687A
:1023A00000900D6800E000986946284004EB80002A
:1023B0000C30FFF7C1FF0028F5D101AA009901EA0E
:1023C000050304EB8303491CDB6842F82030401C02
:1023D00000910228F2D3019800F0030001281AD0DE
:1023E00002280ED013494FF4AF70FEF71DFE384699
:1023F00002F0E8FA08B10098A06004B03046BDE8E9
:10240000F0810198032101EB90500099BDF80A601A
:1024100001EB900005E00198BDF80A60C0F383105D
:1024200008440090E3E700005C130020440F002004
:102430008C01002024BE00004FF48041002003F0F6
:1024400043FC18B11AA2B321FDF7E4FE03F06EFAC3
:102450001B481C49401AC008052101EB00401AA185
:1024600003F0A6FB03F08AFA0028FBD102F0ECFC93
:1024700018B10FA2BA21FDF7CDFE002002F002FD37
:1024800002F01EFC18B10AA2BE21FDF7C3FE03F044
:10249000C3FC18B106A2C121FDF7BCFEFFF786FA06
:1024A00003F06CFA0028FBD103F068FAF8E70000AB
:1024B0002E2E5C2E2E5C2E2E5C6D61696E2E6300BE
:1024C000C4C200005CC20000414553204342435F48
:1024D0004D4143206578616D706C65207374617245
:1024E0007465642E0D0A0D0A00000000F0B50B3073
:1024F000154D20F007010024144A0FE003688B42B9
:102500000BD38B4205D95E1A43184768C3E90067AD
:1025100000E04368136002C004E0021D1068002858
:10252000ECD12046002802D1286808B10020F0BD77
:10253000064A07481060074A121A22F00702C0E94B
:10254000002401202860D7E7F4010020F0010020DA
:10255000F41B0020F03B00202DE9FF478146DDE918
:102560000C641F4615468846100704D06FF0210002
:1025700004B0BDE8F087B8F1000F1BD033E01022A3
:1025800031466846FDF7F6FE234632464146484648
:1025900000F0D6F80020215C3A5C51402154401CE8
:1025A0001028F8DB102269463846FDF7E3FE1034A8
:1025B000103D1036002DE2D117E00020315C3A5C6E
:1025C00051402154401C1028F8DB23461A4641464E
:1025D000484600F0B5F8102221463846FDF7CAFEFD
:1025E0001034103D1036002DE7D10020C0E72DE952
:1025F000F0471C68DDE90976DDF82080994615462C
:1026000082460F2C03D96FF02000BDE8F08799B106
:1026100028E02CB943461A460121504600F090F8B4
:1026200017F8010B18F80410414006F8011B08F8D0
:102630000400641C04F00F046D1EEAD214E02CB9EF
:1026400043461A460121504600F07AF818F8040073
:1026500017F8011B484006F8010B08F80400641C39
:1026600004F00F046D1EEAD20020C9F80040CCE748
:102670002DE9F04786B09946DDE90E5614460F461F
:102680008246E8461FE0102249466846FDF772FE82
:102690004B461A460121504600F052F817B92878E7
:1026A0008DF8100099F8000015F8011B484006F855
:1026B000010B012F01D18DF81000102208F101014A
:1026C0004846FDF757FE2046641EDCD206B0BDE842
:1026D000F08700002DE9F05F1468DDE90B76DDF886
:1026E00028A0984691460D4683460F2C22D96FF0BC
:1026F0002000BDE8F09F9CB9534642460121584650
:1027000000F01EF85FF0100008EB000111F8012D39
:10271000521C12F0FF020A7002D1401E0028F3DCA6
:1027200017F8010B1AF804104140641C06F8011B4D
:1027300004F00F046D1EDED20020C9F80040D8E777
:1027400030B4144601291A46214602D030BC01F0AB
:10275000E1BB30BC01F026BE2DE9F0478246DDE941
:10276000087614680020994690460D460F2C16D91D
:102770006FF02000BDE8F0873CB94B461A460121B6
:102780005046FFF7DDFF0028F4D117F8011B19F8B8
:1027900004205140641C06F8011B04F00F046D1E58
:1027A000EAD2C8F80040E5E72DE9F04F91B0834642
:1027B000DDE91A9415091E468A4602F00F086FF0EB
:1027C0002100102A74D3B2F1807F71D802AB324657
:1027D00001210BF58C70FFF7B3FF02AF06AE0028A6
:1027E00066D134E0B8F1000F0FD0BAF1000F0CD170
:1027F0005DB90DF1080C9CE80F000DF1300C8CE870
:102800000F0002A9084601F01AFB00204FEA070159
:1028100019F800200B5C5A403254401C1028F7D3A2
:1028200006AB1A4651465846FFF78AFF00283FD1AB
:102830003946325C0B5C5A402254401C1028F8D3B5
:1028400002A9084601F0FBFA09F1100910346D1EC7
:10285000C8D2B8F1000F2AD0BAF1000F04D002AFED
:10286000A4F11005002009E00CAFF9E7295C215420
:1028700019F800103A5C51403154401C4045F5D3E2
:1028800004E0295C3A5C51403154401C1028F8D3D4
:1028900006AB1A4651465846FFF752FF002807D1AB
:1028A000315C3A5C51402954401C1028F8D3002078
:1028B00011B0BDE8F08F002803D04FF48C7101F007
:1028C000C1BF70474FF48C71FDF77BBD2DE9F04F10
:1028D000C7B0054616460F466846FFF7F3FF05F1F9
:1028E00008043246394668466C6000F055F8469058
:1028F000F0BB00982860DDE9001000EB011101C970
:1029000001C401C901C401C944F8080B51F81C09EC
:1029100044F8040C2A6828E01E48002500F5905968
:1029200000F5B05A00F5D05C00F5F05B08C950FA2C
:1029300083F637786D1C59F82760C3F3072710F822
:1029400007805AF828707E40C3F3074700EB1363F3
:10295000C75D93F800805CF827705BF828305F4013
:102960007E4040C4042DE1DB2039521E002A00E0E5
:1029700008E0D1DC08682060486860608868A06072
:10298000C868E0606846FFF796FF469847B0BDE824
:10299000F08F0000607E0000F0B5802A07D0C02ACA
:1029A00007D0B2F5807F0BD06FF01F00F0BD0A2377
:1029B00000E00C23036000F10803002443600AE0F8
:1029C0000E23F7E701EB8405EE782D6866F31F65AB
:1029D00043F82450641CB4EB521FF3D3544A0168EB
:1029E000A2F508500A2904D00C292BD00E2928D191
:1029F00056E0002453F80C5B52F824104D4002CBF3
:102A0000C1F30726C1F30747865DC75D86EA07263F
:102A1000754000EB1166367885EA064550FA81F676
:102A20003678641C85EA06651D6053F80C6C6E40B0
:102A30005E6053F8085C75406940C3E902510A2C96
:102A4000D8D373E05FF000041D6852F824104D40A5
:102A50005969C1F30726C1F30747865DC75D86EA5A
:102A60000726754000EB1166367885EA064550FA70
:102A700081F63678641C85EA06659D615E686E4065
:102A8000DE619D6875401D62DE686E405E621D6994
:102A900075406940C3E90A511833082CD4D345E086
:102AA0005FF000051C6852F825104C40D969C1F34D
:102AB0000726C1F30747865DC75D86EA072674408F
:102AC00000EB1166367884EA064450FA81F63678CF
:102AD00084EA06661E625C6874405C629E686640BA
:102AE0009E62DC687440DC6250FA84F73F781E69AD
:102AF000C4F3074C7E40C4F3072710F80CC0C75D31
:102B000000EB14643F0287EA0C4724787E4086EA93
:102B100004641C635E696D1C66405E639C6974405E
:102B20006140C3E90E412033072DBBD30020F0BD27
:102B300060A00000F0B54C08DDE90576E508B1F5C8
:102B4000807F05D0B1F5007F02D06FF01F00F0BD8F
:102B50001C6034601060284438600020F0BD10B55F
:102B6000040007D0FFF7A7FE04F58C70BDE8104005
:102B7000FFF7A1BE10BD10B50446FFF7A3FE04F594
:102B80008C70BDE81040FFF79DBE70B586B00E4654
:102B9000044605A903A81546CDE9000104AB02AA25
:102BA00029463046FFF7C6FF00280CD104F58C708B
:102BB000059A0399FFF7F0FE002804D12046049AF5
:102BC0000299FFF783FE06B070BD70B586B00E4661
:102BD000044605A903A81546CDE9000104AB02AAE5
:102BE00029463046FFF7A6FF00280CD104F58C706B
:102BF000059A0399FFF7D0FE002804D12046049AD5
:102C00000299FFF7C9FE06B070BD70B5484304468F
:102C100003F0F5F8050002D02146FDF7D2FB284667
:102C200070BD02F027BC000010B50349034801F055
:102C300001FE002010BD0000232C00000B2C000022
:102C400000207047014A126810470000E001002090
:102C50002DE9FF478146DDE90C641F46154688468D
:102C6000100704D06FF0250004B0BDE8F087B8F17C
:102C7000000F1BD033E0102231466846FDF77AFB87
:102C8000234632464146484600F0A4F80020215C25
:102C90003A5C51402154401C1028F8DB1022694650
:102CA0003846FDF767FB1034103D1036002DE2D199
:102CB00017E00020315C3A5C51402154401C102840
:102CC000F8DB23461A464146484600F083F81022B6
:102CD00021463846FDF74EFB1034103D1036002DCE
:102CE000E7D10020C0E72DE9F0471C68DDE909764F
:102CF000DDF82080994615468246102C03D36FF0EC
:102D00002300BDE8F08799B128E02CB943461A4664
:102D10000121504600F05EF817F8010B18F8041076
:102D2000414006F8011B08F80400641C04F00F047D
:102D30006D1EEAD214E02CB943461A4601215046D2
:102D400000F048F818F8040017F8011B484006F88E
:102D5000010B08F80400641C04F00F046D1EEAD295
:102D60000020C9F80040CCE72DE9F05F1468DDE9E8
:102D70000B76DDF828A0984691460D468346102C28
:102D800022D36FF02300BDE8F09F9CB95346424622
:102D90000121584600F01EF85FF0100008EB00011A
:102DA00011F8012D521C12F0FF020A7002D1401ED0
:102DB0000028F3DC17F8010B1AF804104140641CDA
:102DC00006F8011B04F00F046D1EDED20020C9F8C6
:102DD0000040D8E72DE9FF4111681D4609BAD378B4
:102DE00040C821F0FF01194300915168D37909BA15
:102DF00021F0FF01194301919168D37A09BA21F0BA
:102E0000FF0119430291D168D27B09BA21F0FF0179
:102E10001143039104C8009951400091019950F861
:102E2000082B5140019150F8042C02995140029115
:102E300004C80399044651400391EEB302AF3A46E9
:102E400021466846761EFEF7A7FB08346A462146EF
:102E50003846FEF7A1FB08343A4621466846FEF79D
:102E60009BFB08346A4621463846FEF795FB08343A
:102E70003A4621466846FEF78FFB08346A462146EB
:102E80003846FEF789FB0834B6B102CC00980840FA
:102E9000019981EAF070019002CC08430099484002
:102EA000009003986168084302994840029054F8E2
:102EB000081B0840039900E003E081EAF0700390EA
:102EC000BDE7029821684840029003986168484035
:102ED00003900098A168484000900198E16848403C
:102EE00001900298000E28700298000C68700298F9
:102EF000000AA8700298E8700398000E28710398E1
:102F0000000C68710398000AA8710398E871009892
:102F1000000E28720098000C68720098000AA872CF
:102F20000098E8720198000E28730198000C6873ED
:102F30000198000AA8730198E87304B00020BDE866
:102F4000F081002803D04FF48A7101F07BBC7047F8
:102F50004FF48A71FDF735BA70B5C6B00446154610
:102F60000E466846FFF7F4FF2A463146684600F0F1
:102F700033F8050029D100982060042812D00021E0
:102F8000684600EB811050F8C42F62604268A2606E
:102F90008268E260C26822611622083802EBC10131
:102FA000143407E00121EBE704C8491E04C450F8BB
:102FB0000C2904C40029F7D150F8081D216041688C
:102FC00061608168A160C068E0606846FFF7B9FF92
:102FD00046B0284670BD00002DE9F04FC9B08946C3
:102FE0000446051D1646402125A8FDF7EAF94FF4D1
:102FF00088712846FDF7E5F9802E09D0C02E0BD048
:10300000B6F5807F08D06FF0230049B0BDE8F08F9F
:1030100003200027206002E0042001272060002018
:103020000DF1940805E000BF19F8001008F8001031
:10303000401CB0EBD60FF7D3C02E09D15FF00000D3
:1030400008EB0001401C0A7CD2430A760828F7D31B
:10305000F24B002035AA00BF03EBC0010C6891F8C9
:1030600003C024BA24F0FF0444EA0C0442F83040C0
:103070004C68C97924BA24F0FF040C4302EBC00168
:10308000401C4C600628E7D3402115A8FDF799F9AC
:10309000002015AC58F8201008EB800209BAD2784D
:1030A00021F0FF01114344F82010401C0828F1D3FF
:1030B0005FF0000004EB800154F820200B69401CF5
:1030C0005A400A620428F5D304F1280204F12000D2
:1030D000914635A98046FEF75FFA424637A9484631
:1030E000FEF75AFA5FF0000004EB800154F820303C
:1030F0000A6A401C5A400A620428F5D34A4639A994
:103100004046FEF749FA42463BA94846FEF744FAD4
:10311000802E16D95FF0000004EB8001401C0B6A82
:103120000A695A400A630428F6D323AA21A89046C4
:103130003DA90446FEF730FA22463FA94046FEF775
:103140002BFA1598019016980290179803901898EA
:10315000B3490490012001EB07110DF1040A0A188C
:1031600012F8012C9AB3C0EB001202F01F02DDF836
:1031700004C0029B0CFA02FCC2F12004E3408CEA7A
:10318000030C0AEB0013C3F800C0DDF808C0DDF83B
:103190000C800CFA02FC28FA04F88CEA080CC3F83C
:1031A00004C0DDF80CC0DDF810800CFA02FC28FA2F
:1031B00004F88CEA080CC3F808C0DDF810C00CFA5B
:1031C00002FC019AE2408CEA020CC3F80CC0401CDD
:1031D0000428C4D9924B0020203307EB870B03EB64
:1031E0000B1213565C1C03D05AF8204045F82340BC
:1031F000401C1428F5D3802E53D9199801901A98A1
:1032000002901B9803901C98049001200B18DB7807
:10321000ABB3C0EB001303F01F03DDF804C0DDF80F
:103220000880C3F120040CFA03FC28FA04F80AEB26
:1032300000198CEA080CC9F800C0DDF808C0DDF8F8
:103240000C800CFA03FC28FA04F88CEA080CC9F884
:1032500004C0DDF80CC0DDF810800CFA03FC28FA7D
:1032600004F88CEA080CC9F808C0DDF810C00CFAA4
:1032700003FC019BE3408CEA030CC9F80CC0401C22
:103280000428C3D900205446131893F91430B3F11D
:10329000FF3F03D054F820C045F823C0401C142839
:1032A000F2D31D9801901E9802901F9803902098C9
:1032B000049001200B18DB79ABB3C0EB001303F0D3
:1032C0001F03DDF804C0DDF80880C3F120040CFA08
:1032D00003FC28FA04F80AEB00198CEA080CC9F878
:1032E00000C0DDF808C0DDF80C800CFA03FC28FAF9
:1032F00004F88CEA080CC9F804C0DDF80CC0DDF84D
:1033000010800CFA03FC28FA04F88CEA080CC9F8BF
:1033100008C0DDF810C00CFA03FC019BE3408CEA06
:10332000030CC9F80CC0401C0428C3D90020131892
:1033300093F928305C1C03D05AF8204045F823400C
:10334000401C1428F3D3802E50D921980190229844
:103350000290239803902498049001200B18DB7AA4
:103360009BB3C0EB001303F01F03DDF804C0029C05
:103370000CFA03FCC3F12006F4408CEA040C0AEBBF
:103380000014C4F800C0DDF808C0DDF80C800CFAA9
:1033900003FC28FA06F88CEA080CC4F804C0DDF82F
:1033A0000CC0DDF810800CFA03FC28FA06F88CEA51
:1033B000080CC4F808C0DDF810C00CFA03FC019B2F
:1033C000F3408CEA030CC4F80CC0401C0428C5D997
:1033D00000205346111891F93C104C1C03D053F8AF
:1033E000204045F82140401C1428F3D30C4A00200B
:1033F000C03202EB8B0307EB470219564C1C07D077
:1034000000EB820405EB840455F82110C4F8801009
:10341000401C1428F1D30020F7E5000088A000002C
:10342000B8A4000010B5040007D000F0FBF9204656
:10343000BDE81040442101F005BA10BD4421FCF75D
:10344000C0BF2DE9F0411D460B4616460746012236
:103450002946184600F014FA04006FF00C0013D04F
:103460006169102910D1384600F0DCF92146384650
:1034700000F082FA002807D12A4631463846BDE8D6
:10348000F041012300F054BABDE8F081002802D0D9
:10349000842101F0D7B9704710B50446402101F0EE
:1034A000D1F9402104F1400001F0CCF94020C4F8EA
:1034B000800010BD184A0260184A4260184A8260B3
:1034C000184AC260CB780A6863F31F620261CB7945
:1034D0004A6863F31F624261CB7A8A6863F31F62B2
:1034E0008261CB7BCA6863F31F62C261CB7C0A69CD
:1034F00063F31F620262CB7D4A6963F31F6242621B
:10350000CB7E8A6963F31F628262CA7FC96962F3F4
:103510001F61C16200207047657870616E6420335E
:10352000322D62797465206B2DE9F0471F46914674
:103530000D460446002600F1400A0CE019F806107A
:1035400010F80A006D1E4140B955D4F88000401CA7
:10355000761CC4F88000002D6BD0D4F88000402881
:10356000ECD34DE051462046FEF77CF8206B401C22
:1035700000232063F118E01819F8012090F840C0EA
:10358000083382EA0C027A5401EB090290F8418078
:1035900092F801C039448CEA080C81F801C092F815
:1035A00002C090F842808CEA080C81F802C092F8C0
:1035B00003C090F843808CEA080C81F803C092F8AD
:1035C00004C090F844808CEA080C81F804C092F89A
:1035D00005C090F845808CEA080C81F805C092F887
:1035E00006C090F846808CEA080C81F806C0D279B3
:1035F00090F847004240CA71402BBBD3403D403653
:10360000402DAFD2ADB151462046FEF72BF8206BCE
:10361000401C2063002008E03118231819F801200D
:1036200093F840305A407A54401CA842F4D3C4F86E
:1036300080500020BDE8F08710B504000CD0FFF7E3
:1036400025FF04F1840001F007F90020E4E93400CB
:10365000C4E902002061207510BD10B50446FFF7D3
:103660001BFF04F1840001F0FDF80020E4E93400C0
:10367000C4E902002061207510BDFFF71BBF2DE9D2
:10368000F0410446D0F8E000984616460D46012861
:1036900005D002280BD06FF05300BDE8F081022066
:1036A000C4F8E0002046FEF703F90028F5D1F4E95C
:1036B0003620521940F10000E4E8032014F80C1BF6
:1036C000A4F16C000746F03C69B12A46314601F08E
:1036D000CCF80028E1D14346324629462046FFF780
:1036E00023FF0028D9E74346324629462046FFF704
:1036F0001BFF0028D1D12A464146384601F0B5F8D3
:10370000EFE7000070B5134D040012D0206880B1BF
:1037100079B10123204600F00BF900280AD1206876
:103720000078022807D0032805D0042803D02428D5
:1037300001D0284670BD24210120FFF783FA28B16B
:103740001021206401F07EF8002070BD014880380F
:1037500070BD0000009FFFFF2DE9FC5F15460F467E
:103760005FEA000A4FF0000924D0DAF8000008B33D
:1037700007B3DAF84040ECB14669206A18B3321A50
:10378000AA4220D204F1100840443946FCF7F2FD69
:103790002246334641461046FEF7D8F801A8234694
:1037A000009032461946504600F000F95FEA0009E1
:1037B00033D102E01A48BDE8FC9F206A301A2D1A66
:1037C000002107442162A819401EB0FBF6FB01202E
:1037D00014E02246334639461046FEF7B7F801A8F2
:1037E0002346009032461946504600F0DFF85FEA63
:1037F000000912D1AD1B374408F10100804658453D
:10380000E7D355B1216A04F1100008442A4639462D
:10381000FCF7B0FD206A284420624846CBE7000050
:10382000009FFFFF10B5040013D0206C28B12421A5
:1038300001F008F8206C00F04DFAE06B18B1216837
:103840008969C96A88472046BDE81040442100F0D4
:10385000F9BF10BD0068002800D040697047000023
:10386000064905E00A78824201D14868704708316C
:103870004A68002AF6D100207047000004AC00001E
:1038800030B50A4B0CE0A5692D78854207D16568F3
:103890008D4204D16478944201D1586830BD083318
:1038A0005C68002CEFD1002030BD000004AC0000AB
:1038B0004421FCF786BD0000026812B15278022A4A
:1038C00001D01148704705291AD2DFE801F003073B
:1038D0000D1115000D49C1600D4902E00D49C1608F
:1038E0000D490161002070470C49C1600C49F8E79F
:1038F0000C49C1600C49F4E70021C1600B49F0E7B5
:103900000148803070470000009FFFFF810C0000DD
:10391000511F0000650C0000D91E0000990C00002A
:10392000AD1F0000BB0C00000D200000C51E0000F4
:10393000F0B4104E04688CB1257CAD0702D46568E4
:1039400095420BD142600372012B0AD06578032D9A
:1039500007D0042D05D0052D03D033B13046F0BC7F
:103960007047A369C06B1B6A02E0A369C06B5B6A06
:10397000F0BC1847009FFFFF70B50C0005460ED045
:103980004421FCF71EFDA069806A8047E86340B1CE
:10399000002128462C60FFF78FFF002070BD0248F1
:1039A00070BD0148803870BD009FFFFF2DE9FF5FAB
:1039B00004460E9F0068DFF80CA29946154688461B
:1039C000E8B3002038602046FFF744FF06000ED021
:1039D0002168487801280ED006281BD00A78492A89
:1039E00022D04B46C84532D1626A42BB26E07648B7
:1039F00004B0BDE8F09FB54201D07448F8E73D60DF
:103A0000226894F90810E06B92694B46546842466C
:103A1000A047EDE73D60E06B04B04B4642462946C7
:103A2000BDE8F05F00F097B93D60E06B04B04B4635
:103A300042462946BDE8F05FFFF721BE00E004E002
:103A4000B5FBF6F206FB12520AB15046D0E704F17C
:103A5000280204F1140B039202280DD0121F032830
:103A600077D0042871D0052870D0564A80320928B2
:103A70006DD007286CD08DE094F9080010B10128B2
:103A800007D015E0E06820B1606A301AA84204D27D
:103A90000EE0606A301AA8420AD9616A2A4601EB30
:103AA0000B004146FCF766FC606A2844606249E00E
:103AB000606AE8B1A6EB000A584452464146FCF75A
:103AC00059FCCDE900B9226894F90810E06B9269BD
:103AD000039BD2F808C03246E047002888D13868F6
:103AE000B144304438600020D044A5EB0A05606240
:103AF00045B3B5FBF6F006FB10505FEA000A04D1AF
:103B0000207A10B9E06800B1B246A5EB0A0505EBD2
:103B1000080152465846FCF72DFC616A01EB0A0089
:103B200060627DB1CDE90089226894F90810E06BEC
:103B30009269039B94682A46A047002886D138687A
:103B400028443860002053E703E00EE015E01FE052
:103B50002EE0039E13468DE84003896994F90860BE
:103B6000E06BCC682A46314610E0CDE900898969CE
:103B7000E06B039B0C69294618E0CDF800B0CDE955
:103B800001898969E06B039B4C692946A04715E0D0
:103B9000606A08B110462BE7CDE90089896994F97C
:103BA0000860E06B8C692A463146039BA04705E01C
:103BB0008969E06B4246CC692946A0470028C2D1FA
:103BC0003D60BFE7009FFFFF809CFFFF809DFFFFE0
:103BD00010B504000BD004F12000FEF76CFE4FF48A
:103BE000A071204600F02EFE4FF6F070E06110BD8F
:103BF00010B504464FF4A071FCF7E3FB4FF6F070EC
:103C0000E06110BD2DE9F041044685694FF4C070B4
:103C1000E0B016460F46854203D8C5F5C071B142E3
:103C200004D26FF0370060B0BDE8F08180460146F5
:103C30006846FCF7C6FBD4E94E302A4669469847E9
:103C400010B16FF03300EEE7A5693FB136B10DEB6F
:103C5000050032463946FCF78DFB354469462A4655
:103C60000846FDF742FB050007D169462046FDF7EF
:103C700063FF050001D1012020614146684600F044
:103C8000E1FD2846CFE72DE9FF4704460020DDF897
:103C90003080009001900290039004F120001F46B4
:103CA00016460D468146FEF70DFEC4E94E56A06944
:103CB00008B92020A061802269464846FEF76CFEC4
:103CC000002804D1424639462046FFF79BFF04B046
:103CD000BDE8F0870149496808470000E00100207D
:103CE00010B5040008D0FFF79DFD2046BDE8104048
:103CF0004FF4C87100F0A6BD10BD4FF4C871FCF7B9
:103D000060BB2DE9F0411D460B46164607460122D1
:103D100029461846FFF7B4FD04006FF0130018D0D1
:103D20006169102915D13846FFF77CFD21463846D8
:103D3000FFF722FE00280CD101232A4631463846DF
:103D4000FFF7F6FD002804D13846BDE8F041FDF745
:103D50008FBFBDE8F0812DE9F04186B04FF0000C37
:103D60000D46044698466FF01306CDF814C09342F2
:103D700003D9A8EB0200A8420ED3D4E952737819F4
:103D800043EB0C01C71B71EB030305D36FF01F0757
:103D90000F233F1A8B4103D2304606B0BDE8F081B5
:103DA0001646C4E9520146E0102D01D22F4600E02C
:103DB00010271020211891F86721521C12F0FF02E1
:103DC00081F8672102D1401E0C28F3D805A8009085
:103DD00001AB102204F5B4712046FFF7E7FD00287F
:103DE000DBD101AA1CE0D4F8881141B9211816F8DA
:103DF00000C091F8783183EA0C0381F87831135CC4
:103E0000315C4B4008F80030D4F88811012906D104
:103E1000211891F878C18CEA030C81F878C1401C14
:103E2000B842E0D304F5BC7211462046FDF7A2FF6C
:103E3000ED1B3E44B844002DB6D10020ADE7F0B5EF
:103E40000A79D1F80530CC7842EA0322260642EA04
:103E500014228C780B7846EA044642EA14424C78E5
:103E6000D1F80D5046EA04261E430B7B91F80AC098
:103E700043EA0523CD7A42EA14642F0A2D063B4318
:103E800045EA0C4543EA1C4391F809C0097A45EA22
:103E90000C25B61943EA1C630D4344EB0402D90F09
:103EA000C9000827D1EB07014FF0870727FA01F770
:103EB00082EAE7714FEAD4726C195B4122430C0E1F
:103EC000C4710C0C84710C0A447186EA0706340E26
:103ED000017144EA0124C470340C44EA0144847042
:103EE0000C0644EA162141700670190EC173190CB4
:103EF0008173190A4173110E037341EA0321C172E0
:103F0000110C41EA03418172110A41EA03614172D5
:103F10000272F0BD2DE9F047CD780C6888B0436897
:103F200065F31F64009420CB6C400094CD794C68FD
:103F300065F31F64019420CB6C400194CD7A8C68AA
:103F400065F31F64029453F8085B6C400294CC7BC9
:103F5000C96864F31F61039153F8044C61400391F5
:103F600000684FF0FF3101EB6006FE4800F5806904
:103F700000F5006400F5406A0FE1009980CBC9B2FA
:103F8000DDF808C050F82110CCF3074C4F400399DE
:103F900054F82CC0C1F307218D00DDF80C8059F8CE
:103FA0000550494685EA0C056F40019DC8F3074856
:103FB0004FEA156C55465AF82CC087EA0C07DDF815
:103FC00004C004970CF0FF0C80CB50F82CC054F8C0
:103FD000288087EA0C07DDF800C0CCF3072C51F8E5
:103FE0002CC08CEA080C87EA0C07DDF808C04FEA01
:103FF0001C6C55F82CC087EA0C07DDF808C0059743
:104000000CF0FF0C53F8087B50F82CC0DDF8008052
:1040100087EA0C07DDF804C0C8F30748CCF3072C87
:1040200054F8288051F82CC08CEA080C87EA0C0759
:10403000DDF80CC04FEA1C6C55F82CC087EA0C0761
:10404000DDF80CC006970CF0FF0C53F8047C50F818
:104050002CC0DDF8048087EA0C07DDF808C0C8F33F
:104060000748CCF3072C54F8288051F82CC08CEA70
:10407000080C87EA0C07DDF800C04FEA1C6C55F805
:104080002CC087EA0C070797DDF810C053F8107BA7
:104090000CF0FF0CDDF8188050F82CC0C8F307486E
:1040A00087EA0C07DDF81CC054F82880CCF3072CF5
:1040B00051F82CC08CEA080C87EA0C07DDF814C014
:1040C000DDF81C804FEA1C6CC8F3074855F82CC07B
:1040D00087EA0C070097DDF814C053F80C7C0CF04D
:1040E000FF0C54F8288050F82CC087EA0C07DDF844
:1040F00010C0CCF3072C51F82CC08CEA080C87EACE
:104100000C07DDF818C0DDF810804FEA1C6CC8F30E
:10411000074855F82CC087EA0C070197DDF818C04E
:1041200053F8087C0CF0FF0C54F8288050F82CC091
:1041300087EA0C07DDF814C0CCF3072C51F82CC02B
:104140008CEA080C87EA0C07DDF81CC04FEA1C6CEF
:1041500055F82CC087EA0C070297DDF81CC053F80D
:10416000047C0CF0FF0C50F82CC087EA0C07DDF83B
:1041700018C0CCF3072C59F82C10DDF814C0CCF380
:10418000074C54F82CC081EA0C014F400499090EE9
:104190005AF821104F40761E0397002E3FF7EDAEE0
:1041A00000991E68C9B2029F50F82110C7F3074753
:1041B0004E40039954F82770C1F307218D00DDF8B4
:1041C0000CC059F8055049467D406E40019DCCF326
:1041D000074C2F0E55465AF827707E40019F0496D3
:1041E000FFB25E6850F8277054F82CC07E40009FE4
:1041F000C7F3072751F8277087EA0C077E40029F14
:104200003F0E55F827707E40029F0596FFB29E68CC
:1042100050F82770DDF800C07E40019FCCF3074CBA
:10422000C7F3072754F82CC051F8277087EA0C070A
:104230007E40039F3F0E55F827707E40039F0696F1
:10424000FFB2DE6850F82700019946400298C1F39A
:104250000741C0F3072054F8211059F820004840C6
:1042600046400098000E5AF820004640079619690B
:104270003D48049C50FA84F42478069D6140C6F3BE
:104280000724C5F30745045D455D240284EA05441F
:104290006140059C00EB1464247881EA046100917C
:1042A0005969059C50FA84F42478C6F307456140A7
:1042B000049C455DC4F30724045D240284EA05449C
:1042C0006140069C00EB1464247881EA046101914A
:1042D0009969069C50FA84F42478049D6140059CF9
:1042E000C5F30745C4F30724455D045D240284EA51
:1042F0000544614000EB1664247881EA0461029170
:10430000D96950FA86F31B78059C5940069BC4F383
:104310000744C3F30723045DC35C1B0283EA044321
:104320005940049B00EB1360007881EA0060039021
:10433000009810700098000A50700098000C90705F
:104340000098000ED070019810710198000A507109
:104350000198000C90710198000ED07102981072B3
:10436000029803E060900000608F0000000A507225
:1043700002982021000C90720298000ED0720398CF
:1043800010730398000A50730398000C90730398FD
:10439000000ED073684600F055FA08B00020BDE862
:1043A000F08700002DE9F047CD780C6888B04368AD
:1043B00065F31F64009420CB6C400094CD794C6869
:1043C00065F31F64019420CB6C400194CD7A8C6816
:1043D00065F31F64029453F8085B6C400294CC7B35
:1043E000C96864F31F61039153F8044C6140039161
:1043F00000684FF0FF3101EB6006FE4800F5806970
:1044000000F5006400F5406A0FE1009980CBC9B265
:10441000DDF808C050F82110CCF3074C4F4001994B
:1044200054F82CC0C1F307218D00DDF80C8059F839
:104430000550494685EA0C056F40039DC8F30748BF
:104440004FEA156C55465AF82CC087EA0C07DDF880
:1044500004C004970CF0FF0C80CB50F82CC054F82B
:10446000288087EA0C07DDF808C0CCF3072C51F848
:104470002CC08CEA080C87EA0C07DDF800C04FEA74
:104480001C6C55F82CC087EA0C07DDF808C00597AE
:104490000CF0FF0C53F8087B50F82CC0DDF80080BE
:1044A00087EA0C07DDF80CC0C8F30748CCF3072CEB
:1044B00054F8288051F82CC08CEA080C87EA0C07C5
:1044C000DDF804C04FEA1C6C55F82CC087EA0C07D5
:1044D000DDF80CC006970CF0FF0C53F8047C50F884
:1044E0002CC0DDF8048087EA0C07DDF800C0C8F3B3
:1044F0000748CCF3072C54F8288051F82CC08CEADC
:10450000080C87EA0C07DDF808C04FEA1C6C55F868
:104510002CC087EA0C070797DDF810C053F8107B12
:104520000CF0FF0CDDF8188050F82CC0C8F30748D9
:1045300087EA0C07DDF814C054F82880CCF3072C68
:1045400051F82CC08CEA080C87EA0C07DDF81CC077
:10455000DDF81C804FEA1C6CC8F3074855F82CC0E6
:1045600087EA0C070097DDF814C053F80C7C0CF0B8
:10457000FF0C54F8288050F82CC087EA0C07DDF8AF
:1045800018C0CCF3072C51F82CC08CEA080C87EA31
:104590000C07DDF810C0DDF810804FEA1C6CC8F382
:1045A000074855F82CC087EA0C070197DDF818C0BA
:1045B00053F8087C0CF0FF0C54F8288050F82CC0FD
:1045C00087EA0C07DDF81CC0CCF3072C51F82CC08F
:1045D0008CEA080C87EA0C07DDF814C04FEA1C6C63
:1045E00055F82CC087EA0C070297DDF81CC053F879
:1045F000047C0CF0FF0C50F82CC087EA0C07DDF8A7
:1046000010C0CCF3072C59F82C10DDF814C0CCF3F3
:10461000074C54F82CC081EA0C014F400699090E52
:104620005AF821104F40761E0397002E3FF7EDAE4B
:1046300000991E68C9B2029F50F82110C7F30747BE
:104640004E40019954F82770C1F307218D00DDF821
:104650000CC059F8055049467D406E40039DCCF38F
:10466000074C2F0E55465AF827707E40019F04963E
:10467000FFB25E6850F8277054F82CC07E40029F4D
:10468000C7F3072751F8277087EA0C077E40009F81
:104690003F0E55F827707E40029F0596FFB29E6838
:1046A00050F82770DDF800C07E40039FCCF3074C24
:1046B000C7F3072754F82CC051F8277087EA0C0776
:1046C0007E40019F3F0E55F827707E40039F06965F
:1046D000FFB2DE6850F82700019946400098C1F308
:1046E0000741C0F3072054F8211059F82000484032
:1046F00046400298000E5AF8200046400796196975
:104700003D48049C50FA84F42478069D6140059C41
:10471000C5F30745C4F30724455D045D240284EA1C
:104720000544614000EB1664247881EA046100913D
:104730005969059C50FA84F42478C6F30745614012
:10474000069C455DC4F30724045D240284EA054405
:104750006140049C00EB1464247881EA04610191B7
:104760009969069C50FA84F42478049D6140C6F34C
:104770000724C5F30745045D455D240284EA05442A
:104780006140059C00EB1464247881EA0461029185
:10479000D96950FA86F31B78059C5940049BC4F3F1
:1047A0000744C3F30723045DC35C1B0283EA04438D
:1047B0005940069B00EB1360007881EA006003908B
:1047C000009810700098000A50700098000C9070CB
:1047D0000098000ED070019810710198000A507175
:1047E0000198000C90710198000ED071029810721F
:1047F000029803E0607F0000607E0000000A5072B3
:1048000002982021000C90720298000ED07203983A
:1048100010730398000A50730398000C9073039868
:10482000000ED073684600F00DF808B00020BDE817
:10483000F0870000024AC2E9000100207047000032
:10484000E0010020002904D0024B0A4600211B6829
:1048500018477047E8010020002802D04821FFF7E0
:10486000F1BF70474821FFF7EDBF2DE9F047140075
:10487000884605464FF0000634D0686C05F13407D1
:10488000C8B1C0F11006B442384407D222464146AE
:10489000FBF770FD686C2044686423E032464146B3
:1048A000FBF768FD0020012368643A461946284654
:1048B00002F0A8FBA41B102C0CD34FEA141908EB30
:1048C000060201234946284602F09CFB06EB091626
:1048D00004F00F0434B108EB0601224638466C643C
:1048E000FBF748FD0020BDE8F08700002DE9F05FF0
:1048F0001E46DDF828B091468A46040003D12449BB
:104900009020FCF791FBB4F80680607908FB00F872
:10491000A8F10408464503D31D499E20FCF784FBFB
:10492000E788301DB0FBF7F1B0FBF7F207FB120090
:10493000D9F80050AA19424501D9A8EB0605C9F8D3
:10494000005001E02468491E0029FBD13E1A884628
:10495000AE4215D817E000BF2044001D0AEB080343
:10496000BBF1000F324602D00146184600E019465E
:10497000FBF700FD00202468AD1BB044AF4201D915
:104980002E4600E03E46002DE6D1BDE8F09F000037
:1049900084B9000030B5024651B101F0A9F90021F7
:1049A000074C08E034F821301568AB4202D11160A1
:1049B000002030BD491C8142F4D3052030BD0000E9
:1049C00000000000002100F009B8012100F010B83B
:1049D00008B56A46FBF779FC009808BD08B56A4639
:1049E000FBF759FC08BD08B56A46FBF73BFC08BD60
:1049F00008B56A46FBF742FC009808BD08B56A4650
:104A0000FBF770FC009808BD70B5040003D1134992
:104A1000FE20FCF709FB00252846FCF75DFA20681C
:104A200062680168914214D9491E01600D781CB971
:104A30000A49C220FCF7F8FA208AE16805FB001554
:104A40002068217A0278891A0279C9B28A4200D292
:104A500001710020FCF750FA284670BD40B90000F3
:104A600070B50C46050004D1104940F22110FCF746
:104A7000DBFA24B90D494FF49170FCF7D5FA002008
:104A8000FCF72AFA1DB90949CF20FCF7CDFAE868EE
:104A90002A68211A288AB1FBF0F11068431C1360C0
:104AA0000170BDE870400020FCF726BA40B9000054
:104AB00010B5040002D0206830B901E00E2010BD0E
:104AC0001749D920FCF7B0FA606818B91449DA2000
:104AD000FCF7AAFAA06818B91149DB20FCF7A4FA80
:104AE000E06818B90E49DC20FCF79EFA208A18B954
:104AF0000B49DD20FCF798FA207A61682268401A99
:104B0000C0B2116004E0226811684B1C1360087089
:104B1000401EC0B2F7D221680020087110BD00000D
:104B200040B90000C20800F007030120895C9840EA
:104B30000840704700F180400068002800D0012044
:104B4000704708B500F180400021016000680090C6
:104B500008BD00002DE9F8431E4690460F46044666
:104B6000089DFCF7FFFE002817D1C7B148F213508B
:104B7000002E12D0002D10D00095606833464246BA
:104B8000056A39462046A847002806D1204600F08D
:104B90004FF8002801D103492160BDE8F88348F2AD
:104BA0001050FAE75345416370B516460D4604466A
:104BB000FCF7D8FE18B1A0F50541023909D14DB175
:104BC0006560AA68204631469047002801D1034914
:104BD000216070BD48F2105070BD00006341455324
:104BE00070B50D460446FCF7BDFE00280AD160688A
:104BF00042692AB13DB129462046BDE870401047C0
:104C000048F2035070BD48F2105070BD70B50D46AB
:104C10000446FCF7A7FE002809D135B16068294693
:104C200002692046BDE87040104748F2105070BD40
:104C300010B50446FCF796FEA0F50541023908D0F0
:104C4000002805D16068C16820468847002121609E
:104C500010BD024A21689142F4D010BD5345416312
:104C600050B1094A002100BF52F83130834205D1CA
:104C700002EBC1004068704704A07047491C192925
:104C8000F2D305A0704700006C7B00004E6F2065DA
:104C900072726F72000000004572726F72206E6F48
:104CA000742072656C6174656420746F206E726626
:104CB0005F63727970746F206C69627261727900DF
:104CC0002DE9F0410B480C4D0C4F401BC60801204C
:104CD0003870002406E000BF55F8340080470028F3
:104CE00005D1641CB442F7D3022038700020BDE81F
:104CF000F08100003CC200002CC2000094000020A3
:104D000005480178022904D00078012801D000204C
:104D100070470120704700009400002038B5041D42
:104D2000002000F03FF900280ED12046FEF760FF7A
:104D3000002003460246009004492046FEF7A3FFE8
:104D4000BDE8384002F0B7BB38BD0000D11B000001
:104D500010B5001DFEF73CFF00F082F9002010BDE9
:104D60002DE9F0410F46064601F008FB68B11848EE
:104D70001849401AC008012101EB004016A100F0BB
:104D800017FF48F21950BDE8F081FFF7B9FF40B1B5
:104D9000184C194D606838B1A068A84204D10020B1
:104DA000F1E74FF40540EEE748F21750002EEAD144
:104DB000002FE8D10F4911480C316060FFF7AEFFBA
:104DC0000028E0D1A56062680D491160DBE70000B2
:104DD000C4C200005CC20000537461636B206F7634
:104DE0006572666C6F772064657465637465642EA4
:104DF00000000000980000206572E54BF8010020DB
:104E00006169614D70B50D4C0D4A48F20251A068C0
:104E1000904204D160680B4B02689A4201D0084668
:104E200070BD00210160A160FFF792FF0546206878
:104E300008B100F01FFB284670BD0000980000205C
:104E40006572E54B6169614D70B50C4C01252078A8
:104E500008B185260BE00020A06060602061E06062
:104E6000074801F015FB064601F0DCFA257001F059
:104E7000D1FA00B1A570304670BD00003C0300209F
:104E80003119000070B5174C0546207818B916A1E5
:104E9000D020FCF7C9F8A07838B115B169680120B5
:104EA00088470020FCF718F80CE00020FCF714F805
:104EB00025B10C4829461030FDF758FAE06808B9CA
:104EC00001F048FBE068401CE0600020FCF714F8AB
:104ED000E068002805D1BDE8704003A1EC20FCF794
:104EE000A3B870BD3C0300202E2E5C2E2E5C2E2E0F
:104EF0005C2E2E5C2E2E5C2E2E5C2E2E5C2E2E5CBE
:104F0000696E746567726174696F6E5C6E726678E3
:104F10005C6C65676163795C6E72665F6472765F14
:104F2000636C6F636B2E630070B506460C480C46CD
:104F30000078012811D00BA1BA20FCF775F80CE01D
:104F4000402C01D2254600E04025E9B2304600F071
:104F500047F80028F9D1641B2E44002CF0D170BD15
:104F6000A80000202E2E5C2E2E5C2E2E5C2E2E5C99
:104F70002E2E5C2E2E5C2E2E5C2E2E5C696E7465A1
:104F800067726174696F6E5C6E7266785C6C65677F
:104F90006163795C6E72665F6472765F726E672EB3
:104FA0006300000070B50B4C217809B1852070BDFD
:104FB00000B9094809490088A4F80100601C01F003
:104FC0000DFC0500F3D101F081FC01202070284682
:104FD00070BD0000A8000020587C0000BD670000E4
:104FE00070B50C460C4905460978012903D00BA180
:104FF0009120FCF719F822462946184801F0FAF8E2
:10500000044601F063FC2CB1052C03D003A1AB20B6
:10501000FCF70AF8204670BDA80000202E2E5C2E5A
:105020002E5C2E2E5C2E2E5C2E2E5C2E2E5C2E2EBA
:105030005C2E2E5C696E746567726174696F6E5C5C
:105040006E7266785C6C65676163795C6E72665FD0
:105050006472765F726E672E63000000E0C200002B
:1050600010B5094C2078012803D008A16A20FBF76D
:10507000DBFF01F063FC01F093FC144801F006F93A
:105080000020207010BD0000A80000202E2E5C2EF5
:105090002E5C2E2E5C2E2E5C2E2E5C2E2E5C2E2E4A
:1050A0005C2E2E5C696E746567726174696F6E5CEC
:1050B0006E7266785C6C65676163795C6E72665F60
:1050C0006472765F726E672E63000000E0C20000BB
:1050D000F0B505460478154889B0164640F82420F6
:1050E000124A0869121DA2F1080742F82400487FFD
:1050F000385520226846FBF73DF904942878385C3F
:1051000048B10EB10A4A00E000226946281D01F0AC
:10511000EBFD09B0F0BD0EB1064A00E00022694681
:1051200005F10C0001F082FCF3E70000B000002064
:105130003D7900007D7700000FB438B5040003D13D
:1051400010A11C20FBF770FF606918B90DA11D208C
:10515000FBF76AFF206818B90AA11E20FBF764FF5D
:10516000606818B907A11F20FBF75EFF05990029A9
:1051700005D006A800906A46204600F04DF838BCDD
:105180005DF814FB2E2E5C2E2E5C2E2E5C2E2E5CDB
:105190002E2E5C2E2E5C2E2E5C2E2E5C6578746579
:1051A000726E616C5C667072696E74665C6E72665B
:1051B0005F667072696E74662E63000010B504003D
:1051C00003D107A10B20FBF72FFFA268002A05D00F
:1051D000D4E90403216898470020A06010BD0000B6
:1051E0002E2E5C2E2E5C2E2E5C2E2E5C2E2E5C2EF9
:1051F0002E5C2E2E5C2E2E5C65787465726E616C52
:105200005C667072696E74665C6E72665F66707200
:10521000696E74662E6300002DE9FC4791460C46CA
:105220005FEA000804D183A140F25220FBF7FCFEA4
:10523000D8F8140020B97FA14FF41570FBF7F4FEE5
:10524000D8F8000020B97BA140F25520FBF7ECFE16
:10525000D8F8040020B977A140F25620FBF7E4FE0D
:10526000002C76D014F8011B39B125290ED0404608
:10527000FCF73AF920780028F4D198F80C000028BF
:1052800067D04046BDE8FC47FFF798BF00200122E9
:1052900021782B291BD02D2902D0302908D102E0FA
:1052A00040F0010001E040F00200641C002AEFD150
:1052B00000252A290ED02178A1F130020A2A11D224
:1052C00005EB850201EB4205641C303DF1E740F03F
:1052D0000400EAE7D9F800100B1DC9F8003009688E
:1052E000641C0D44217800232E290BD114F8011FD2
:1052F000A1F130020A2A05D203EB830201EB42033B
:10530000303BF3E76C290DD068290BD0692921D0F7
:105310000BDC252918D0582931D063290ED06429F7
:1053200015D117E014F8011FECE7702969D0732933
:1053300032D075291BD0782909D120E0D9F8000096
:10534000011DC9F8001001784046FCF7CDF8641C37
:1053500090E76CE0D9F800100A1DC9F80020096830
:10536000CDE900500A224046FCF7D4FEEFE7D9F819
:1053700000100A1DC9F8002009680A2206E0D9F8C1
:1053800000100A1DC9F8002009681022CDE900505C
:10539000404602F075FBDAE7D9F8001000270A1D35
:1053A000C9F800200E68C00705D112E04046761CFF
:1053B0007F1CFCF799F831780029F7D104E020210F
:1053C00040466D1EFCF790F8BD42C0D9002DF6D1C5
:1053D000BDE74EB13046FAF7FFFF074604E0202153
:1053E00040466D1EFCF780F8BD4206D9002DF6D16F
:1053F00003E04046761CFCF777F831780029F8D1B5
:10540000A5E7D9F80000011DC9F800100568302192
:105410004046FCF769F878214046FCF765F808201B
:105420000021CDE90001034610222946B0E7BDE87E
:10543000FC8700002E2E5C2E2E5C2E2E5C2E2E5C09
:105440002E2E5C2E2E5C2E2E5C2E2E5C65787465C6
:10545000726E616C5C667072696E74665C6E7266A8
:105460005F667072696E74665F666F726D61742ECE
:10547000630000002DE9F04106460C480078002842
:1054800012D0002E10D00025094F2C467819B042BA
:10549000204603D1BDE8F041FBF7D0BFFCF706FD85
:1054A000641C05441A2CF1D3BDE8F081580100209A
:1054B0006C0400202DE9FF411C46DDE90A78154601
:1054C0000E46684600F0B6F846EA450141EA840116
:1054D00041EA072242EA0841009A00EB8200C0F844
:1054E0000017BDE8FF812DE9FF411C46DDE90A7880
:1054F00015460E46684600F0CDF846EA450141EAF9
:10550000840141EA072242EA0841009A00EB820046
:10551000C0F80017BDE8FF811CB5002100910B46C3
:1055200001220191FFF7C6FF1CBD1CB500210091AF
:105530000B4601220191FFF7D6FF1CBD1CB50022CE
:105540000B46009211460192FFF7B4FF1CBD1CB53B
:1055500000220B46009211460192FFF7C4FF1CBDCA
:105560001CB5002100910B46012201911146FFF765
:10557000A1FF1CBD1CB5002100910B460122019129
:105580001146FFF7B0FF1CBD13B50C46684600F08E
:1055900029F8009900EB8101D1F8002722F440326C
:1055A000C1F80027009900EB8100D0F8001741EA0C
:1055B0000441C0F800171CBD38B5094B44181B68DE
:1055C00000936B4608E000BF53F82010D1F8205537
:1055D00020C2C1F82055401C8442F5D838BD0000D7
:1055E0005C7C000010B5006800F084F820B904A1CC
:1055F0004FF4E370FBF718FD4FF0A04010BD000022
:105600002E2E5C2E2E5C2E2E5C2E2E5C2E2E5C2ED4
:105610002E5C2E2E5C2E2E5C6D6F64756C65735C3B
:105620006E7266785C68616C2F6E72665F67706917
:105630006F2E680010B501684FF000004A0900D1D4
:10564000401E01F01F0201219140014204D104A13A
:105650004FF4E370FBF7E8FC4FF0A04010BD0000F2
:105660002E2E5C2E2E5C2E2E5C2E2E5C2E2E5C2E74
:105670002E5C2E2E5C2E2E5C6D6F64756C65735CDB
:105680006E7266785C68616C2F6E72665F677069B7
:105690006F2E680010B501684FF000004A0900D174
:1056A000401E01F01F0201219140014204D104A1DA
:1056B0004FF4E370FBF7B8FC4FF0A04010BD0000C2
:1056C0002E2E5C2E2E5C2E2E5C2E2E5C2E2E5C2E14
:1056D0002E5C2E2E5C2E2E5C6D6F64756C65735C7B
:1056E0006E7266785C68616C2F6E72665F67706957
:1056F0006F2E680042094FF0000100D1491E00F0F2
:105700001F00012282400A4201D001207047002080
:10571000704701B56846FFF78DFF009A012191405F
:10572000C0F8081508BD01B56846FFF7B3FF009A39
:1057300001219140C0F8081508BD0000034908B5D3
:105740000844002101600068009008BD006000402E
:1057500002494058012800D00020704700600040F6
:1057600000210846FFF7FCBAFFF74CBB30B5154ADD
:1057700001460020D2F8104423460AE0DB681D7978
:10578000854205D1401C0A28F6DB4FF0FF3030BDC2
:105790001B68002BF2D1431CF9D0CB681871D2F8EA
:1057A000103443B1DB68CC681B682360D2F8102446
:1057B000D268116030BDC2F81014C96800220A60B6
:1057C00030BD0000440F00207047FAF7E5BF704776
:1057D00008B5034A00924023024A00F005F808BDCC
:1057E000397500006C0D0020F0B595B01C461546CB
:1057F0000F4608461A9E00F0C2FB182109A8FAF7C6
:10580000E0FD0E96CDE909540023082203A938468D
:1058100000F0CAFB05980690BDF81000ADF81C001A
:10582000BDF81200ADF81E0000208DF8210003988D
:10583000082600F00300012802D0022818D032E028
:1058400003983346850AC0F3C2008DF82000039800
:105850000FA9C0F38314A200384600F0A5FB09A8E5
:10586000009006AB22460FA9284600F06DFA1AE018
:105870000398840DC0F3C2008DF82000082C01D2DB
:10588000254600E0082533462A460FA9384600F091
:105890008BFB2E44641B09AB06AA29460FA800F017
:1058A000BBF9002CEAD1384600F06FFB15B0F0BD13
:1058B0007047012001F080BF084810B50178084A00
:1058C000515C19B1001D01F00DFB02E00C3001F03C
:1058D000A3F9BDE81040002001F06EBF6801002070
:1058E000AC00002008B5034A00924023024AFFF7AB
:1058F0007BFF08BD89750000AC0D00200A4A012914
:1059000002EBC00007D0022907D0032907D00429E1
:1059100007D00020704702207047042070470079AC
:1059200070474079704700005CC2000010B5FFF777
:105930004CFF04210F48FFF719FF002803DA0E4936
:105940001B20FBF771FB0B480124C0684471FFF773
:10595000B0FF084804211030FFF708FF002803DAE1
:1059600005492220FBF760FB02481030C0684471F3
:1059700010BD00003CC20000D4BD00002DE9F0477E
:105980008CB0FBF7C9FD18B100200CB0BDE8F08762
:105990007D4C0020C4F81804BFF34F8F7B49A068EA
:1059A00002900D684FF00008284004EB80000BE0E7
:1059B000D4F8180470B961680298814201D8A160D6
:1059C000E2E7284004EB80000C3002A9FCF7B4FCAD
:1059D0000028EDD1002003AA029901EA050304EB97
:1059E0008303491CDB6842F82030401C02910228E6
:1059F000F2D3039800F00300022802D001284DD012
:105A0000A7E003985022810D8946B2EB905F00D841
:105A100050210E4666F39F50039008315C4800F019
:105A200065FA070078D000F0AAFA4346082203A9D5
:105A3000384600F0CBFA029908F1080A2940681AA2
:105A40008000001D864222D94F4D0C3530B1C2B2C4
:105A500004EB8101301A90460C3104E02946F2B281
:105A6000002590462846C6B25346384600F0AEFAA6
:105A70000AEB080325B132462946384600F0A6FA5B
:105A8000029909F1030001EB900002903BE004EB66
:105A900081015346324638460C31EFE70398C0F394
:105AA0008310062800D30620039960F38911C1F3FF
:105AB0008310801C03918100354800F017FA07001D
:105AC00047D000F05CFA4346082203A9384600F0AC
:105AD0007DFA08F1080800260FE00298434600EA24
:105AE0000501401C04EB81010290042238460C3170
:105AF00000F06CFA08F10408761C0398C0F38310D8
:105B0000B042EAD847B1D4F81054D4F8180478B1A8
:105B1000384600F03AFA31E01BE0E86840790128A5
:105B200004D12A682846394612689047E868056813
:105B3000002DF2D1384600F028FA0020FBF7CCF90E
:105B4000D4F8180408B90298A0600020FBF7D4F933
:105B500014E0D4F8104405E021682046896888479D
:105B6000E0680468002CF7D10A480B49401AC008C5
:105B7000022101EB004009A100F01AF8FBF7CCFC70
:105B800080F0010001E70000440F00208C0100209C
:105B9000CCC20000C4C200005CC200004261636B62
:105BA000656E647320666C75736865640000000040
:105BB00000231A4601F00CBD08B5012300926A4685
:105BC00001F006FD08BD1CB5CDE9002302236A469D
:105BD00001F0FEFC1CBD3EB5069C8DE81C000323B5
:105BE0006A4601F0F5FC3EBD7FB5DDE908458DE86C
:105BF0003C0004236A4601F0EBFC7FBD70B586B023
:105C00000DF1280C9CE870008DE87C0005236A46A5
:105C100001F0DEFC06B070BD2DE9F0470E4680466F
:105C20001C469246082940D894F80C900020207316
:105C30001946104601F078FB0025B54206D218F847
:105C400005201BA12046FFF777FA03E01AA12046A2
:105C5000FFF772FA6D1C082DEFD318A12046FFF74D
:105C60006BFA0025B54212D218F805707E2F08D8BD
:105C7000FAF77CFB0068C05D10F03E0F01D03A4699
:105C800000E02E220EA12046FFF756FA03E00DA1F8
:105C90002046FFF751FA6D1C082DE3D3012221465F
:105CA000504601F023FB84F80C90BDE8F08700001B
:105CB0002025303278000000202020007C000000E9
:105CC0002563000020000000064910B50020087080
:105CD000054800F058F9002803D1044800F040FBC3
:105CE000002010BD440F0020CCC20000547E0000F4
:105CF00002480349401AC00870470000CCC20000A7
:105D00005CC2000013B56846FEF744FE08B10020EF
:105D10001CBD0248009950F831001CBD5CC2000057
:105D200070B508480125D0F81044057007E0E06818
:105D300045712168204649688847E0680468002C5E
:105D4000F5D170BD440F00202DE9FF4781460C9D21
:105D500000200C462F7B2873984616462946184685
:105D600001F0E2FA072E42D2DFE806F004090F162E
:105D70001F2A360049462846FFF7DEF937E0494634
:105D800028462268FFF7D8F931E0D4E900234946D4
:105D90002846FFF7D1F92AE0A0680090D4E9002353
:105DA00049462846FFF7C8F921E0D4E90201CDE9C8
:105DB0000001D4E9002349462846FFF7BDF916E063
:105DC00004F1080007C88DE80700D4E9002349461C
:105DD0002846FFF7B1F90AE004F108000FC88DE882
:105DE0000F00D4E9002349462846FFF7A5F9002211
:105DF0002946404601F07AFA2F73BDE8FF871CB5AB
:105E00000024CDE9004001A9684600F015F800B172
:105E1000009400981CBD000010B500242046FBF73C
:105E20000DFB641C1A2CF9D30249012008700020D4
:105E300010BD0000580100202DE9F0478046284899
:105E40000E46007878B148F20E10B8F1000F08D075
:105E5000002E06D0306810B1B0F5807F06D948F228
:105E60000710BDE8F08748F20810FAE71A21FBF79F
:105E7000FFFF1C49DFF8689048F2041751F82040F2
:105E8000383109F1040951F8205025E02046FCF78B
:105E90000DF801466009424259F8200004EB421215
:105EA000D0404B4610F0010F14D06009424204EB81
:105EB000421253F820404FF0010C0CFA02FC24EA85
:105EC0000C0449F82040084800274219C8F800206F
:105ED000316003E00D44641C1A2CD7D33846C0E768
:105EE00058010020847C00006C0400202DE9F04162
:105EF000058A80462D1F4819C01CB0FBF5F0C6B2BC
:105F00004046FEF781FD041E19D0002020710120BB
:105F10006071E58000272546761EC4F800800BE0FE
:105F20004046FEF771FD60B16179491C61712860DE
:105F300005467F1CC0F80080B742F1D32046BDE87B
:105F4000F081204600F002F80020F8E72DE9F0414A
:105F5000457901466B1E002201E00968521C9A42F5
:105F6000FBD30F680146002605E038460C68FEF7B3
:105F700077FD2146761CAE42F7D3BDE8F0810121C2
:105F8000001DFEF725BDFEF793BD10B504460121A7
:105F9000001DFEF733FD10F0FF0F04D12046BDE8D1
:105FA0001040FFF7D3BF10BD1CB514460122CDE948
:105FB000002401AAFEF79AFC0198A04203D00249EE
:105FC000DA20FBF731F81CBD84B900001CB514467B
:105FD0000022CDE9002401AAFEF788FC0198A04226
:105FE00003D00249D020FBF71FF81CBD84B9000084
:105FF00008B500F1804001460068002220B1012070
:106000000A600968009108BD104608BD10B504007B
:1060100004D105A140F20D20FBF706F8204600F060
:106020006BF9A168081A10BD2E2E5C2E2E5C2E2E48
:106030005C2E2E5C2E2E5C2E2E5C2E2E5C2E2E5C6C
:10604000636F6D706F6E656E74735C6C69627261A4
:10605000726965735C71756575655C6E72665F719A
:10606000756575652E63000070B5040003D108A145
:106070007220FAF7D9FF206805684168204600F0D1
:1060800027F8A84201D1012070BD002070BD00009A
:106090002E2E5C2E2E5C2E2E5C2E2E5C2E2E5C2E3A
:1060A0002E5C2E2E5C2E2E5C636F6D706F6E656E97
:1060B00074735C6C69627261726965735C71756539
:1060C00075655C6E72665F71756575652E6300003F
:1060D00070B50C46050003D105495D20FAF7A4FF11
:1060E000A868A04201D9601C70BD002070BD0000EE
:1060F000286000002DE9F0410E4604004FF0000832
:1061000003D12CA17D20FAF78FFF1EB929A17E2093
:10611000FAF78AFF0020FAF7DFFE2046FFF7A4FF18
:10612000070009D0207C38B14FF004080020FAF7AE
:10613000E3FE4046BDE8F08120684568416820469E
:10614000FFF7C6FF2168486037B120680168204624
:10615000FFF7BEFF21680860E268012A14D0022A16
:1061600016D0042A19D0082A1CD06068314605FBD5
:106170000200FAF7FFF8204601F06EF921688A68FC
:106180008242D3D28860D1E7616830784855F2E71F
:106190006168308821F81500EDE76168306841F8E2
:1061A0002500E8E7D6E90001626802EBC502C2E912
:1061B0000001E0E72E2E5C2E2E5C2E2E5C2E2E5C37
:1061C0002E2E5C2E2E5C2E2E5C2E2E5C636F6D7040
:1061D0006F6E656E74735C6C69627261726965730F
:1061E0005C71756575655C6E72665F717565756508
:1061F0002E6300002DE9F04115460E4607004FF0D2
:10620000000404D111A14FF4D970FAF70DFF26B99B
:106210000EA140F2B310FAF707FF4FF00000002D77
:1062200011D0FAF759FE384601F016F9A84205D305
:106230002A463146384601F0DDF800E0052400200A
:10624000FAF75AFE2046BDE8F08100002E2E5C2EA3
:106250002E5C2E2E5C2E2E5C2E2E5C2E2E5C2E2E78
:106260005C2E2E5C636F6D706F6E656E74735C6C0C
:1062700069627261726965735C71756575655C6E82
:1062800072665F71756575652E63000010B5040058
:1062900004D109A14FF4F570FAF7C6FE0020FAF711
:1062A0001BFE20680021016041608160BDE8104054
:1062B0000846FAF721BE00002E2E5C2E2E5C2E2EF4
:1062C0005C2E2E5C2E2E5C2E2E5C2E2E5C2E2E5CDA
:1062D000636F6D706F6E656E74735C6C6962726112
:1062E000726965735C71756575655C6E72665F7108
:1062F000756575652E63000010B5040004D108A112
:106300004FF4FC70FAF790FE0020FAF7E5FD204606
:1063100001F0A2F804460020FAF7EEFD204610BD79
:106320002E2E5C2E2E5C2E2E5C2E2E5C2E2E5C2EA7
:106330002E5C2E2E5C2E2E5C636F6D706F6E656E04
:1063400074735C6C69627261726965735C717565A6
:1063500075655C6E72665F71756575652E630000AC
:10636000826800219160826811618268516182684F
:10637000D160826851608068016070470349684657
:10638000884201D20120704700207047F03B002076
:106390000C4A10B502F58C730EE0991AC91001EB86
:1063A000D171491002EBC1010C68844201D90B463E
:1063B00002E005D201F108029A42EED3002010BD9E
:1063C000486810BDFC7C000000B5FFF7E1FF002825
:1063D00000D1014800BD0000E87C000040580028C2
:1063E00000D00120704708B500224250405800906C
:1063F00008BDD0F80403084000D001207047405881
:10640000002800D00120704708B5002242504058B3
:10641000009008BD02480068002800D001207047A5
:1064200000040140084810B5007918B907A1972069
:10643000FAF7FAFD00F0E6F8144901200860024975
:10644000091F087010BD0000BC0000202E2E5C2E1D
:106450002E5C2E2E5C2E2E5C2E2E5C2E2E5C2E2E76
:106460005C2E2E5C6D6F64756C65735C6E72667805
:106470005C647269766572735C7372635C6E72667B
:10648000785F636C6F636B2E63000000180500403B
:1064900010B5040003D108A17E20FAF7C5FD164906
:1064A00000200A790AB1852010BD01220C600A7112
:1064B00000224A7110BD00002E2E5C2E2E5C2E2E66
:1064C0005C2E2E5C2E2E5C2E2E5C2E2E5C2E2E5CD8
:1064D0006D6F64756C65735C6E7266785C6472690E
:1064E000766572735C7372635C6E7266785F636C00
:1064F0006F636B2E63000000BC00002070B54FF48A
:1065000080763046FEF716FB114CB50560B130467B
:10651000FEF717FB0120C5F80803607920B90120B8
:1065200060712168002088474FF482763046FEF77C
:1065300001FB00280AD03046FEF703FB0220C5F815
:1065400008032168BDE870400120084770BD0000C5
:10655000BC00002070B51348007918B912A1C420FE
:10656000FAF762FD4FF48270FEF7EBFA0220410762
:10657000C1F804031C4B196841F0807018601B4877
:10658000026842F00104046044684FF40A5546680A
:10659000361BAE42FBD3026019601549012008602A
:1065A00070BD0000BC0000202E2E5C2E2E5C2E2E16
:1065B0005C2E2E5C2E2E5C2E2E5C2E2E5C2E2E5CE7
:1065C0006D6F64756C65735C6E7266785C6472691D
:1065D000766572735C7372635C6E7266785F636C0F
:1065E0006F636B2E63000000FCED00E0001000E024
:1065F000080000400121B1EB507F01D1012070471C
:106600000020704706480068012110F0010F06D1F4
:106610004FF0E020C02280F800248430C16770472A
:1066200000E100E070B54FF08040D0F804531A4C00
:1066300068070CD54FF48470FFF7DAFC38B1606856
:1066400018B916A1F020FAF7EFFC60688047A80699
:106650000DD54FF48A70FFF7CBFC40B1A06818B994
:106660000EA1F920FAF7E0FCA1680020884768062F
:1066700011D54FF48C70FFF7BBFC00280BD0A0683D
:1066800020B906A14FF48070FAF7CEFCA168BDE8EE
:1066900070400120084770BDC40000202E2E5C2EE3
:1066A0002E5C2E2E5C2E2E5C2E2E5C2E2E5C2E2E24
:1066B0005C2E2E5C6D6F64756C65735C6E726678B3
:1066C0005C647269766572735C7372635C6E726629
:1066D000785F706F7765722E6300000070B50D46AD
:1066E000040003D10DA15120FAF79EFC204600F0D2
:1066F00075FE04000FD00020FAF7EEFB207920B1E0
:106700000020FAF7F9FB112070BD012025602071EF
:106710000020FAF7F1FB002070BD00002E2E5C2E49
:106720002E5C2E2E5C2E2E5C2E2E5C2E2E5C2E2EA3
:106730005C2E2E5C6D6F64756C65735C6E72667832
:106740005C647269766572735C7372635C70727399
:106750005C6E7266785F7072732E630010B5040011
:1067600003D106A17520FAF75FFC204600F036FE43
:10677000002802D000210160017110BD2E2E5C2E78
:106780002E5C2E2E5C2E2E5C2E2E5C2E2E5C2E2E43
:106790005C2E2E5C6D6F64756C65735C6E726678D2
:1067A0005C647269766572735C7372635C70727339
:1067B0005C6E7266785F7072732E630001B5694615
:1067C0000548FFF797FC0448FFF74EFC002801D06E
:1067D00000F0B4F808BD0000E0C2000070B50E463D
:1067E000040003D118A11820FAF71EFC1EB916A147
:1067F0001920FAF719FC234D287808B1852070BDBF
:106800006E602078C00704D01F48016841F0010184
:1068100001601E48D0F8001221F00101C0F80012FA
:106820006478082C03D31AA14520FAF7FDFB26490A
:10683000600181F8000401204FF0E0224103C2F81A
:1068400000112870002070BD2E2E5C2E2E5C2E2E86
:106850005C2E2E5C2E2E5C2E2E5C2E2E5C2E2E5C44
:106860006D6F64756C65735C6E7266785C6472697A
:10687000766572735C7372635C6E7266785F726E5B
:10688000672E6300D800002004D5004000D00040EF
:106890002E2E5C2E2E5C2E2E5C2E2E5C2E2E5C2E32
:1068A0002E5C2E2E5C2E2E5C696E74656772617490
:1068B000696F6E5C6E7266785C6E7266785F676C2C
:1068C00075652E68000000000DE000E0094808B57D
:1068D0000078012803D008A13020FAF7A5FB16495B
:1068E000002214480A60096800910121C0F80413CD
:1068F000016008BDD80000202E2E5C2E2E5C2E2EAE
:106900005C2E2E5C2E2E5C2E2E5C2E2E5C2E2E5C93
:106910006D6F64756C65735C6E7266785C647269C9
:10692000766572735C7372635C6E7266785F726EAA
:10693000672E630000D0004000D10040074810B52A
:106940000078012803D006A13820FAF76DFB13491F
:106950000120C1F80803091D086010BDD8000020FF
:106960002E2E5C2E2E5C2E2E5C2E2E5C2E2E5C2E61
:106970002E5C2E2E5C2E2E5C6D6F64756C65735CC8
:106980006E7266785C647269766572735C7372634A
:106990005C6E7266785F726E672E630000D0004096
:1069A00010B50D4C2078012803D00CA13F20FAF738
:1069B0003BFB19490120C1F80803091D0860410388
:1069C0004FF0E0220020C2F88011BFF34F8FBFF3D9
:1069D0006F8F207010BD0000D80000202E2E5C2E7E
:1069E0002E5C2E2E5C2E2E5C2E2E5C2E2E5C2E2EE1
:1069F0005C2E2E5C6D6F64756C65735C6E72667870
:106A00005C647269766572735C7372635C6E7266E5
:106A1000785F726E672E630000D000400149024823
:106A200000F0F6BEFC030020002000402DE9F041FC
:106A300017460D00064603D11AA18420FAF7F4FA8E
:106A40003079284A00EB400101EBC00102EB8104E0
:106A500094F82A1011B10820BDE8F081224951F8BC
:106A600020103068FFF73AFE08B11120F4E72946FC
:106A70003046FAF763FA6760286920601FB1297F02
:106A80003046FBF79BFB30680421C0F8001500205E
:106A9000A061E06184F8290044F8140F0121A17578
:106AA000DAE700002E2E5C2E2E5C2E2E5C2E2E5C45
:106AB0002E2E5C2E2E5C2E2E5C2E2E5C6D6F647541
:106AC0006C65735C6E7266785C647269766572730D
:106AD0005C7372635C6E7266785F756172742E634C
:106AE00000000000FC030020607C00002DE9F05F46
:106AF000054600790F4600EB400101EBC0002D492F
:106B0000164601EB800494F82A00012803D02AA13C
:106B1000F220FAF789FA1FB927A1F320FAF784FACD
:106B20001EB925A1F420FAF77FFA284600F064F890
:106B300010B11120BDE8F09F66614FF00009C4F864
:106B40002090A76084F828904FF48E784E464146F6
:106B50002868FFF748FC28684FF0010AC0F808A031
:106B60002146286800F0E0FD606800BBD5F800B061
:106B700067690EE094F8280008B10F2615E0414639
:106B80005846FFF72BFC0028F4D02146584600F069
:106B9000CBFD206AB842F2D3574641462868FFF73A
:106BA0001DFC0028F9D02868C760C4F8149030464E
:106BB000C0E70000FC0300202E2E5C2E2E5C2E2E43
:106BC0005C2E2E5C2E2E5C2E2E5C2E2E5C2E2E5CD1
:106BD0006D6F64756C65735C6E7266785C64726907
:106BE000766572735C7372635C6E7266785F7561F2
:106BF00072742E6300000000007900EB400101EB8D
:106C0000C000044901EB80004069002800D0012049
:106C100070470000FC0300202DE9F047044600798E
:106C20004FF0000900EB400101EBC000284901EBE7
:106C300080072068C0F800957868B0B120682549C1
:106C4000C0F80813206840F3073000280DDB00F07F
:106C50001F02012191404009800000F1E020C0F8AE
:106C60008011BFF34F8FBFF36F8F2068D0F80C25D2
:106C7000D0F81485D0F80865D0F810554FF0FF31E2
:106C8000C0F81415C0F80C152068C0F80815C0F835
:106C90001015501C02D01046FEF73EFCB8F1FF3F25
:106CA00002D04046FEF738FC681C02D02846FEF7AA
:106CB00033FC701C02D03046FEF72EFC2068FFF734
:106CC0004DFD87F82A90C7F80490BDE8F0870000D2
:106CD000FC030020840202000149024800F046BE85
:106CE00028040020002000402DE9F04117460D0047
:106CF000064603D118A1A920FAF796F93079264A59
:106D000000EBC00102EB810494F8201011B10820BF
:106D1000BDE8F081214951F820103068FFF7DEFC12
:106D200008B11120F4E729463046FAF742F96760C6
:106D3000286920601FB1297F3046FBF797FA306839
:106D40000821C0F800150020A061E0616061012108
:106D500084F82010DCE700002E2E5C2E2E5C2E2EF8
:106D60005C2E2E5C2E2E5C2E2E5C2E2E5C2E2E5C2F
:106D70006D6F64756C65735C6E7266785C64726965
:106D8000766572735C7372635C6E7266785F756150
:106D90007274652E6300000028040020647C0000EB
:106DA0002DE9F04704460F460079364900EBC00054
:106DB00001EB8005164695F82000012804D032A189
:106DC00040F22D10FAF730F927B92FA14FF4977040
:106DD000FAF72AF926B92CA140F22F10FAF724F974
:106DE000207908B9FF2E04D927A14FF49870FAF73B
:106DF0001BF93846FFF7FEFB30B1204600F064F87F
:106E000020B11120BDE8F0871020FBE76E61AF6074
:106E10004FF490774FF0000839462068FFF7F4FAF6
:106E20004FF4AC7631462068FFF7EEFA2068AA6886
:106E30006969C0F84425C0F8481520684FF0010979
:106E4000C0F808906868D0B9BA4651462068FFF784
:106E5000D6FA074631462068FFF7D1FA0743F4D047
:106E600010B14FF00F0808E02068C0F80C903146D0
:106E70002068FFF7C4FA0028F9D000206861404676
:106E8000C0E70000280400202E2E5C2E2E5C2E2E43
:106E90005C2E2E5C2E2E5C2E2E5C2E2E5C2E2E5CFE
:106EA0006D6F64756C65735C6E7266785C64726934
:106EB000766572735C7372635C6E7266785F75611F
:106EC0007274652E630000000079054900EBC00074
:106ED00001EB80004069002800D0012070470000CD
:106EE000280400202DE9F047064600793D4900EBD3
:106EF000C00001EB8005346868680127A8B13A49F1
:106F0000C4F80813306840F3073000280DDB00F0A8
:106F10001F0107FA01F14009800000F1E020C0F8EC
:106F20008011BFF34F8FBFF36F8FD4F8000220F0B2
:106F30002000C4F80002A8694FF4A27820B14146AD
:106F40002046FFF761FA67604FF4AC794946204666
:106F5000FFF75AFAE760474649462046FFF74FFADF
:106F60000028F9D0A86928B139462046FFF747FA2A
:106F70000028F1D04FF0000AC4F800A53068D0F81E
:106F80000C25D0F81495D0F80885D0F810754FF07E
:106F9000FF31C0F80C15C0F814153068C0F808159A
:106FA000C0F81015501C02D01046FEF7BEFAB9F119
:106FB000FF3F02D04846FEF7B8FA781C02D03846A8
:106FC000FEF7B3FAB8F1FF3F02D04046FEF7ADFA44
:106FD0002046FFF7C3FB85F820A0C5F804A0BDE854
:106FE000F0870000280400201003420003490860D5
:106FF000034801680029FCD07047000004E5014007
:1070000000E401402DE9FF4F96B000211391D0E933
:1070100000318E4681681291C16815910EEB9E0178
:107020001491129901EB910111911599056B01EBE6
:10703000910BD0E908218946D0E90A418A4600210E
:10704000179E1091B1427CD2139E189901EB060C49
:107050009CF80310DCF8007061F31F6702979CF83E
:107060000770DCF80460DCF8088067F31F669CF8A2
:107070000B70002167F31F689CF80F70DCF80CC0E0
:1070800067F31F6C029FBA1841EB0107029219EBDC
:10709000070741EB0102BE194A41A21841EB010961
:1070A00012EB080849EB01041AEB040241EB010959
:1070B00012EB0C0449EB0107DDF864C0029A674447
:1070C000C14607EB050AA2FB0357A6FB0BC815EB4D
:1070D0000C05DDF844C047EB0807A9FB0CC815EB0D
:1070E0000C05DDF850C047EB0807A4FB0CC815EBF6
:1070F0000C0547EB0807CDE90175A2FB0E75A6FB51
:1071000003C817EB0C0745EB0805A9FB0BC817EBE9
:107110000C07DDF844C045EB0805A4FB0CC817EBD1
:107120000C07DDF850C045EB0805AAFB0CC817EBAF
:107130000C0C45EB0805CDE9075C129DA2FB055739
:1071400000E061E0A6FB0EC815EB0C0547EB080755
:10715000A9FB03C815EB0C0547EB0807A4FB0BC8FC
:1071600015EB0C05DDF844C047EB0807AAFB0CC87B
:1071700015EB0C0C47EB0807CDE9057C159D129F1C
:10718000A2FB0552A6FB0776ED197241A9FB0E760C
:10719000ED197241A4FB03462C197241AAFB0B6541
:1071A000A6196A41DDE9075C019F0AFB03F91CEBA4
:1071B0000708DDE9057C4D411CEB05044F4116EB4A
:1071C000070A4A4102EB0907029DBA08551941EB2B
:1071D000010627F00302C446AA184E411CEB06091B
:1071E00041EB0106A41941EB01051AEB050A07F072
:1071F0000308494118EB0105139901F1100113919E
:10720000109901F101011BE70563C0E90829C0E9F4
:107210000A4A1AB0BDE8F08F2DE9F84F2E4E054608
:107220004FF001090024311991F95000401C46D05B
:1072300091F85000294620F0C0073846FDF772FC4F
:1072400070B3204600F04AF8824668460097FEF781
:10725000C9F9009900EB8100D0F80007C0F301489C
:10726000B8F1020F1DD002213846FEF78DF96846AD
:107270000097FEF7B7F9009A09FA02F1C0F8201555
:107280003846FAF739FB56F820204AB15046BAF191
:10729000030F11D0B8F1020F05D0B8F1030F07D0DA
:1072A0000DE00321E0E75046BAF1010F04D006E0FB
:1072B0005046BAF1020F02D1014638469047641C8D
:1072C000042CB0D32A4601210020FEF775F9286866
:1072D0000028A7D1BDE8F88FA00300200249084488
:1072E00090F8500080097047A003002010B50C46AC
:1072F000017A052908D0407A38B1084808A1026807
:107300002046FDF719FF00E01AB106A12046FDF75F
:1073100013FF2046BDE81040FDF750BFBC01002020
:10732000257300000D0A000038B5C3880D460446D9
:1073300033B114A0009015A216A12846FDF7FCFE5B
:10734000217A05291CD0607A48B1A088FEF7D6FAC8
:10735000164951F8202016A12846FDF7EDFEA08819
:107360000021FEF7CFFC03461049207A143951F86A
:10737000202001B02846BDE830400EA1FDF7DCBE5C
:1073800038BD00001B5B306D000000001B5B313B13
:1073900033316D0025734C6F67732064726F7070AA
:1073A0006564202825642925730D0A00BC0100208E
:1073B000257300003C25733E2025733A2000000011
:1073C000EFF30580C005C00D01D001207047EFF339
:1073D000148040F30000401C7047000003498842BD
:1073E00001D1034870470020704700000020004092
:1073F000D00000202DE9F047044600681646894673
:10740000076800212046FAF7BDFA0546D4F80C803B
:107410006068AE4207FB08010DD808FB06F248463B
:10742000F8F7A8FFA168B819884200D900202168A0
:107430000860BDE8F08708FB05F842464846F8F7C3
:1074400099FFE268751B6A4309EB08006168F8F769
:1074500091FF20680560ECE701680A68496891427D
:1074600001D3881A70478068801A0844401C70470E
:1074700048F2115110F5A24F1AD009DC10F5C34F94
:1074800010D010F5C24F0BD010F5C14F05D10CE054
:1074900010F1220F04D0002801D048F21650704796
:1074A0000846704748F21550704748F2035070473D
:1074B00048F21750704710F1380F07D010F1360F0F
:1074C00007D0002801D048F21650704748F21150FA
:1074D000704748F21450704770B5054688690C46ED
:1074E00000284FF4847128460AD0FEF77CFFD5F8B7
:1074F0001805626AE1688854606A401C606270BD69
:10750000FEF771FFD5F8180570BD1FB501238DF882
:107510000030CDE90121D0E90012684690471FBD37
:107520001FB501238DF80030CDE90121D0E900120B
:10753000684690471FBD00002DE9F04114008846C1
:1075400018D000250E4F032608EB05012246002027
:10755000F9F724F90544241A40B93878002809D0ED
:1075600008494FF47A408847761E05D001203870CC
:10757000002CE9D1BDE8F08100203870FAE7000066
:1075800060010020217E000070B50E4C0020D2B2B8
:107590002070201D0C4D0378EB5C1BB1001DFFF724
:1075A000FFFB02E00C30FFF7A1FA18B1074A2D21CA
:1075B000F8F730FE6078002802D021780029FAD050
:1075C00070BD000064010020AC00002088BD0000F8
:1075D0002DE9F84F054627489146884606681F461C
:1075E000012269461846F9F739FFDFF88CA0B0B3DD
:1075F000009800210446801C0AE000BF00EA060251
:1076000059F821C00AEB8202401C491CC2F80CC088
:10761000B942F3D3B9462F0CFAF7D0FA8346FEF7F6
:1076200067FBB84204D8154940F28310F9F7FCFC17
:10763000601C30400AEB800047EA0B423440C260D5
:107640000AEB8400C16865F3C50169F3891168F329
:107650009F2121F00301491C21F00401C1609AF827
:10766000000001E0FEF78AF90028FBD1FAF789FE55
:10767000BDE8F88F8C010020440F002024BE0000DC
:107680002DE9F0410F468046174818491646401A22
:10769000C108052000EB014013460446424614A1F0
:1076A000FEF791FAFEF76AF90028FBD100250AE0FF
:1076B0007A5D204615A1FEF77FFA00BFFEF75EF95E
:1076C0000028FBD16D1CB542F2D320460EA1FEF777
:1076D0006FFA204642460EA1FEF76EFAFEF74EF90B
:1076E0000028FBD1BDE8F081C4C200005CC20000EC
:1076F0002D2D2D2D257320286C656E6774683A201A
:10770000257529202D2D2D2D0D0A00002563000043
:107710002D2D2D2D20257320656E64202D2D2D2DD2
:107720000D0A0D0A0000000070B50C4605464FF426
:107730008E71FEF758FE216AA068415C206A401CE9
:107740002062C5F81C1570BD1FB500228DF8002001
:107750000291816801914261D0E900126846904728
:107760001FBD1FB500228DF8002002918168019194
:107770004261D0E90012684690471FBD1FB50A4616
:1077800001788DF8001041680191017A8DF8081098
:10779000C0680390044850F82210001F50F82220BF
:1077A000684690471FBD0000B40000200149012039
:1077B000087070476401002010B588B0044620228C
:1077C0000F496846F8F7D6FD06200090C01F0190CB
:1077D000029003904FF0EB7006900CB1094A00E064
:1077E000002269460848FDF773FC18B1074A1D21BD
:1077F000F8F710FD0448001F447008B010BD0000E9
:10780000347E0000AD7700006801002088BD0000D4
:107810002DE9FF470C4605464FF40071FEF7E9FDE0
:1078200001274FF40178002618B34FF492794946A6
:107830002846FEF7D3FDE0B149462846FEF7D3FDC2
:10784000C5F8088394F8290000B96F6002208DF80C
:107850000000D5F88004C5F880040390A069029068
:10786000E0680190A661E661D4E90012684690479D
:1078700028E004212846FEF7BCFD18B34FF48471BC
:107880002846FEF7ABFDE8B121462846FFF724FE67
:10789000616AA069884215D1E06938B1E268616A1D
:1078A000A0612069E6616662E06008E094F8290062
:1078B00000B96F60C5F80883A661E268616A204676
:1078C000FFF723FE4FF48E7841462846FEF786FDEB
:1078D00080B16069216A814202D294F8280028B3FD
:1078E00041462846FEF77FFD606918B16169204670
:1078F000FFF72AFF4FF4A27841462846FEF76EFDB7
:10790000002818D041462846FEF76DFD94F829005E
:1079100000B12F60A06900280DD0A661E268616AFD
:1079200004B02046BDE8F047FFF7EFBD21462846EA
:10793000FFF7FAFEDEE7BDE8FF8700001FB50A4645
:1079400001788DF8001041680191017A8DF80810D6
:10795000C0680390044850F82210001F50F82220FD
:10796000684690471FBD0000B40000202DE9FF418C
:107970000C464FF4927705463946FEF740FD002647
:10798000B8B139462846FEF73FFD02208DF80000C9
:10799000D5F88004C5F880040390D5F83C05029022
:1079A000E0680190A661E661D4E90012684690475C
:1079B00023E04FF4887739462846FEF720FDE0B1F2
:1079C00039462846FEF720FDD5F83C15A0698842C7
:1079D00013D1E06960B1E268D5F8000220F0200020
:1079E000C5F80002E069A0612069E661E06001E09D
:1079F000A661E2682046FFF793FD4FF4A27739466F
:107A00002846FEF7FCFC68B139462846FEF7FCFC28
:107A1000A06938B1A661E661D5F83C152046E26858
:107A2000FFF77EFD4FF4907631462846FEF7E7FCDF
:107A300060B131462846FEF7E7FC0120E860606946
:107A400020B1D5F84C152046FFF78BFE4FF4AC76ED
:107A500031462846FEF7D3FC00280ED03146284692
:107A6000FEF7D2FC6069002807D0D5F84C1504B0A9
:107A70002046BDE8F041FFF774BEBDE8FF8100007D
:107A80002DE9F05F8346DDE90A4A994690460D46A6
:107A90000846012703E000BFB0FBF8F07F1C40451B
:107AA000FAD2B94500D94F465FEACA7012D18CB1FB
:107AB0005FEA8A7002D5B9F1000F01D0202607E0F5
:107AC000302605E031465846641EF9F70DFD0CB12D
:107AD000A742F7D35FF00106B9F1010F02D9A9F16E
:107AE000010903E0B5FBF6F0404502D306FB08F6BA
:107AF000F2E7DFF83C9000BFB5FBF6F000FB16554F
:107B000019F800105846F9F7EFFCB6FBF8F6002E0E
:107B1000F2D15FEACA7009D0002C07D0A74205D283
:107B200020215846641EF9F7DFFCF5E7BDE8F09F19
:107B3000D87C000010B54FF40C710120FBF782F8DF
:107B4000040001D0FBF717F8204610BD10B5040063
:107B500006D0FBF704F82046BDE81040FCF7BAB8A1
:107B600010BDFBF712B8FBF730B80000008500002D
:107B700040B2000001850000C8B10000028500008D
:107B800028B3000003850000D4B000000485000085
:107B900010B1000010850000BCAE0000118500008F
:107BA000D4AF0000128500003CAF00001385000038
:107BB000FCAE00001485000000B200001585000036
:107BC0007CAF00001685000080B200001785000021
:107BD00000B30000188500002CB0000019850000DB
:107BE000A0AF000040850000B8AF00004185000054
:107BF000B8B200004285000090B10000438500004B
:107C000014B00000508500009CAE000060850000AC
:107C1000C0B30000618500009CB0000062850000D8
:107C200060B000007085000054AF00007185000056
:107C300070AE00000600800034010000A9100000B2
:107C4000F91100009D1100008D1100007911000054
:107C50002F1200003D10000001060000000000503F
:107C60001D6A0000D96C00002000000040000000E8
:107C70002000000040000000800000000001000023
:107C800000080000000000000000000000000000EC
:107C90000800000010000000180000001A0000009A
:107CA00000000000000000000800000010000000BC
:107CB000180000001A0000001A0000000000000078
:107CC00000000000000000000001000000030000B0
:107CD00000070000000900003031323334353637F8
:107CE0003839414243444546556E6B6E6F776E207E
:107CF0006572726F7220636F64650000000000009F
:107D00002CBD000001000000ECBB000002000000E0
:107D1000E0B900000300000060BC000004000000A7
:107D2000B4BC00000500000094BB00000600000089
:107D300030BB0000070000009CBC000008000000F1
:107D4000A8BB0000090000000CBC00000A000000F5
:107D500014BD00000B000000C8B900000C000000BA
:107D6000C0BB00000D00000064BD00000E0000005C
:107D70008CBC00000F000000C8BC00001000000018
:107D8000FCBC00001100000078BD00008000000075
:107D900048BB00008100000084BA0000820000009F
:107DA00044BA00008300000024BA000084000000F0
:107DB00060BA0000850000006CBB00008600000077
:107DC00074BC00009000000010BB00009100000097
:107DD00004BA000092000000D4BB00000082000042
:107DE000DCBC00000182000028BC00000282000010
:107DF00044BC000000840000A0BA00000184000020
:107E000038BD000002840000E8BA000003840000CE
:107E1000C4BA0000D1570000CF570000C957000076
:107E20000338FDD870470000E5580000B95800003D
:107E3000B1580000FFFFFFFFFFFFFFFFFFFFFFFF45
:107E4000FFFFFFFF00000000000000000000D6015F
:107E500006010000AC0E00207F0000002C0F002067
:107E6000637C777BF26B6FC53001672BFED7AB76F7
:107E7000CA82C97DFA5947F0ADD4A2AF9CA472C0A2
:107E8000B7FD9326363FF7CC34A5E5F171D831150F
:107E900004C723C31896059A071280E2EB27B27530
:107EA00009832C1A1B6E5AA0523BD6B329E32F84A8
:107EB00053D100ED20FCB15B6ACBBE394A4C58CFA0
:107EC000D0EFAAFB434D338545F9027F503C9FA874
:107ED00051A3408F929D38F5BCB6DA2110FFF3D242
:107EE000CD0C13EC5F974417C4A77E3D645D1973F6
:107EF00060814FDC222A908846EEB814DE5E0BDBF0
:107F0000E0323A0A4906245CC2D3AC629195E47926
:107F1000E7C8376D8DD54EA96C56F4EA657AAE0880
:107F2000BA78252E1CA6B4C6E8DD741F4BBD8B8A1B
:107F3000703EB5664803F60E613557B986C11D9E81
:107F4000E1F8981169D98E949B1E87E9CE5528DFF8
:107F50008CA1890DBFE6426841992D0FB054BB1624
:107F6000C66363A5F87C7C84EE777799F67B7B8D7E
:107F7000FFF2F20DD66B6BBDDE6F6FB191C5C554CC
:107F80006030305002010103CE6767A9562B2B7D6C
:107F9000E7FEFE19B5D7D7624DABABE6EC76769A25
:107FA0008FCACA451F82829D89C9C940FA7D7D87D3
:107FB000EFFAFA15B25959EB8E4747C9FBF0F00BAF
:107FC00041ADADECB3D4D4675FA2A2FD45AFAFEA3B
:107FD000239C9CBF53A4A4F7E47272969BC0C05B21
:107FE00075B7B7C2E1FDFD1C3D9393AE4C26266AE2
:107FF0006C36365A7E3F3F41F5F7F70283CCCC4FC3
:108000006834345C51A5A5F4D1E5E534F9F1F10803
:10801000E2717193ABD8D873623131532A15153F91
:108020000804040C95C7C752462323659DC3C35E4D
:1080300030181828379696A10A05050F2F9A9AB579
:108040000E070709241212361B80809BDFE2E23DF7
:10805000CDEBEB264E2727697FB2B2CDEA75759F2F
:108060001209091B1D83839E582C2C74341A1A2E56
:10807000361B1B2DDC6E6EB2B45A5AEE5BA0A0FB11
:10808000A45252F6763B3B4DB7D6D6617DB3B3CE04
:108090005229297BDDE3E33E5E2F2F711384849701
:1080A000A65353F5B9D1D16800000000C1EDED2C05
:1080B00040202060E3FCFC1F79B1B1C8B65B5BEDEA
:1080C000D46A6ABE8DCBCB4667BEBED97239394BF6
:1080D000944A4ADE984C4CD4B05858E885CFCF4AE1
:1080E000BBD0D06BC5EFEF2A4FAAAAE5EDFBFB167C
:1080F000864343C59A4D4DD76633335511858594D4
:108100008A4545CFE9F9F91004020206FE7F7F8116
:10811000A05050F0783C3C44259F9FBA4BA8A8E360
:10812000A25151F35DA3A3FE804040C0058F8F8A0A
:108130003F9292AD219D9DBC70383848F1F5F50411
:1081400063BCBCDF77B6B6C1AFDADA754221216312
:1081500020101030E5FFFF1AFDF3F30EBFD2D26DF1
:1081600081CDCD4C180C0C1426131335C3ECEC2F19
:10817000BE5F5FE1359797A2884444CC2E1717392C
:1081800093C4C45755A7A7F2FC7E7E827A3D3D4733
:10819000C86464ACBA5D5DE73219192BE673739558
:1081A000C06060A0198181989E4F4FD1A3DCDC7F15
:1081B00044222266542A2A7E3B9090AB0B88888307
:1081C0008C4646CAC7EEEE296BB8B8D32814143CC7
:1081D000A7DEDE79BC5E5EE2160B0B1DADDBDB7647
:1081E000DBE0E03B64323256743A3A4E140A0A1E1F
:1081F000924949DB0C06060A4824246CB85C5CE40E
:108200009FC2C25DBDD3D36E43ACACEFC46262A665
:10821000399191A8319595A4D3E4E437F279798B1B
:10822000D5E7E7328BC8C8436E373759DA6D6DB77B
:10823000018D8D8CB1D5D5649C4E4ED249A9A9E053
:10824000D86C6CB4AC5656FAF3F4F407CFEAEA25CE
:10825000CA6565AFF47A7A8E47AEAEE910080818A1
:108260006FBABAD5F07878884A25256F5C2E2E72C1
:10827000381C1C2457A6A6F173B4B4C797C6C651C0
:10828000CBE8E823A1DDDD7CE874749C3E1F1F2150
:10829000964B4BDD61BDBDDC0D8B8B860F8A8A85CD
:1082A000E07070907C3E3E4271B5B5C4CC6666AA63
:1082B000904848D806030305F7F6F6011C0E0E1287
:1082C000C26161A36A35355FAE5757F969B9B9D054
:1082D0001786869199C1C1583A1D1D27279E9EB9C0
:1082E000D9E1E138EBF8F8132B9898B32211113348
:1082F000D26969BBA9D9D970078E8E89339494A7A6
:108300002D9B9BB63C1E1E2215878792C9E9E9204A
:1083100087CECE49AA5555FF50282878A5DFDF7AA9
:10832000038C8C8F59A1A1F8098989801A0D0D172A
:1083300065BFBFDAD7E6E631844242C6D06868B886
:10834000824141C3299999B05A2D2D771E0F0F11E3
:108350007BB0B0CBA85454FC6DBBBBD62C16163AE0
:10836000A5C6636384F87C7C99EE77778DF67B7B7A
:108370000DFFF2F2BDD66B6BB1DE6F6F5491C5C5C8
:108380005060303003020101A9CE67677D562B2B68
:1083900019E7FEFE62B5D7D7E64DABAB9AEC767621
:1083A000458FCACA9D1F82824089C9C987FA7D7DCF
:1083B00015EFFAFAEBB25959C98E47470BFBF0F0AB
:1083C000EC41ADAD67B3D4D4FD5FA2A2EA45AFAF37
:1083D000BF239C9CF753A4A496E472725B9BC0C01D
:1083E000C275B7B71CE1FDFDAE3D93936A4C2626DE
:1083F0005A6C3636417E3F3F02F5F7F74F83CCCCBF
:108400005C683434F451A5A534D1E5E508F9F1F1FF
:1084100093E2717173ABD8D8536231313F2A15158D
:108420000C0804045295C7C7654623235E9DC3C349
:1084300028301818A13796960F0A0505B52F9A9A75
:10844000090E0707362412129B1B80803DDFE2E2F3
:1084500026CDEBEB694E2727CD7FB2B29FEA75752B
:108460001B1209099E1D838374582C2C2E341A1A52
:108470002D361B1BB2DC6E6EEEB45A5AFB5BA0A00D
:10848000F6A452524D763B3B61B7D6D6CE7DB3B300
:108490007B5229293EDDE3E3715E2F2F97138484FD
:1084A000F5A6535368B9D1D1000000002CC1EDED01
:1084B000604020201FE3FCFCC879B1B1EDB65B5BE6
:1084C000BED46A6A468DCBCBD967BEBE4B723939F2
:1084D000DE944A4AD4984C4CE8B058584A85CFCFDD
:1084E0006BBBD0D02AC5EFEFE54FAAAA16EDFBFB78
:1084F000C5864343D79A4D4D5566333394118585D0
:10850000CF8A454510E9F9F90604020281FE7F7F12
:10851000F0A0505044783C3CBA259F9FE34BA8A85C
:10852000F3A25151FE5DA3A3C08040408A058F8F06
:10853000AD3F9292BC219D9D4870383804F1F5F50D
:10854000DF63BCBCC177B6B675AFDADA634221210E
:10855000302010101AE5FFFF0EFDF3F36DBFD2D2ED
:108560004C81CDCD14180C0C352613132FC3ECEC15
:10857000E1BE5F5FA2359797CC884444392E171728
:108580005793C4C4F255A7A782FC7E7E477A3D3D2F
:10859000ACC86464E7BA5D5D2B32191995E6737354
:1085A000A0C0606098198181D19E4F4F7FA3DCDC11
:1085B000664422227E542A2AAB3B9090830B888803
:1085C000CA8C464629C7EEEED36BB8B83C281414C3
:1085D00079A7DEDEE2BC5E5E1D160B0B76ADDBDB43
:1085E0003BDBE0E0566432324E743A3A1E140A0A1B
:1085F000DB9249490A0C06066C482424E4B85C5C0A
:108600005D9FC2C26EBDD3D3EF43ACACA6C4626261
:10861000A8399191A431959537D3E4E48BF2797917
:1086200032D5E7E7438BC8C8596E3737B7DA6D6D77
:108630008C018D8D64B1D5D5D29C4E4EE049A9A94F
:10864000B4D86C6CFAAC565607F3F4F425CFEAEACA
:10865000AFCA65658EF47A7AE947AEAE181008089D
:10866000D56FBABA88F078786F4A2525725C2E2EBD
:1086700024381C1CF157A6A6C773B4B45197C6C6BC
:1086800023CBE8E87CA1DDDD9CE87474213E1F1F4C
:10869000DD964B4BDC61BDBD860D8B8B850F8A8AC9
:1086A00090E07070427C3E3EC471B5B5AACC66665F
:1086B000D89048480506030301F7F6F6121C0E0E83
:1086C000A3C261615F6A3535F9AE5757D069B9B950
:1086D000911786865899C1C1273A1D1DB9279E9EBC
:1086E00038D9E1E113EBF8F8B32B98983322111144
:1086F000BBD2696970A9D9D989078E8EA7339494A2
:10870000B62D9B9B223C1E1E9215878720C9E9E946
:108710004987CECEFFAA5555785028287AA5DFDFA5
:108720008F038C8CF859A1A180098989171A0D0D26
:10873000DA65BFBF31D7E6E6C6844242B8D0686882
:10874000C3824141B0299999775A2D2D111E0F0FDF
:10875000CB7BB0B0FCA85454D66DBBBB3A2C1616DC
:1087600063A5C6637C84F87C7799EE777B8DF67B76
:10877000F20DFFF26BBDD66B6FB1DE6FC55491C5C4
:10878000305060300103020167A9CE672B7D562B64
:10879000FE19E7FED762B5D7ABE64DAB769AEC761D
:1087A000CA458FCA829D1F82C94089C97D87FA7DCB
:1087B000FA15EFFA59EBB25947C98E47F00BFBF0A7
:1087C000ADEC41ADD467B3D4A2FD5FA2AFEA45AF33
:1087D0009CBF239CA4F753A47296E472C05B9BC019
:1087E000B7C275B7FD1CE1FD93AE3D93266A4C26DA
:1087F000365A6C363F417E3FF702F5F7CC4F83CCBB
:10880000345C6834A5F451A5E534D1E5F108F9F1FB
:108810007193E271D873ABD831536231153F2A1589
:10882000040C0804C75295C723654623C35E9DC345
:108830001828301896A13796050F0A059AB52F9A71
:1088400007090E0712362412809B1B80E23DDFE2EF
:10885000EB26CDEB27694E27B2CD7FB2759FEA7527
:10886000091B1209839E1D832C74582C1A2E341A4E
:108870001B2D361B6EB2DC6E5AEEB45AA0FB5BA009
:1088800052F6A4523B4D763BD661B7D6B3CE7DB3FC
:10889000297B5229E33EDDE32F715E2F84971384F9
:1088A00053F5A653D168B9D100000000ED2CC1EDFD
:1088B00020604020FC1FE3FCB1C879B15BEDB65BE2
:1088C0006ABED46ACB468DCBBED967BE394B7239EE
:1088D0004ADE944A4CD4984C58E8B058CF4A85CFD9
:1088E000D06BBBD0EF2AC5EFAAE54FAAFB16EDFB74
:1088F00043C586434DD79A4D3355663385941185CC
:1089000045CF8A45F910E9F9020604027F81FE7F0E
:1089100050F0A0503C44783C9FBA259FA8E34BA858
:1089200051F3A251A3FE5DA340C080408F8A058F02
:1089300092AD3F929DBC219D38487038F504F1F509
:10894000BCDF63BCB6C177B6DA75AFDA216342210A
:1089500010302010FF1AE5FFF30EFDF3D26DBFD2E9
:10896000CD4C81CD0C14180C13352613EC2FC3EC11
:108970005FE1BE5F97A2359744CC884417392E1724
:10898000C45793C4A7F255A77E82FC7E3D477A3D2B
:1089900064ACC8645DE7BA5D192B32197395E67350
:1089A00060A0C060819819814FD19E4FDC7FA3DC0D
:1089B000226644222A7E542A90AB3B9088830B88FF
:1089C00046CA8C46EE29C7EEB8D36BB8143C2814BF
:1089D000DE79A7DE5EE2BC5E0B1D160BDB76ADDB3F
:1089E000E03BDBE0325664323A4E743A0A1E140A17
:1089F00049DB9249060A0C06246C48245CE4B85C06
:108A0000C25D9FC2D36EBDD3ACEF43AC62A6C4625D
:108A100091A8399195A43195E437D3E4798BF27913
:108A2000E732D5E7C8438BC837596E376DB7DA6D73
:108A30008D8C018DD564B1D54ED29C4EA9E049A94B
:108A40006CB4D86C56FAAC56F407F3F4EA25CFEAC6
:108A500065AFCA657A8EF47AAEE947AE0818100899
:108A6000BAD56FBA7888F078256F4A252E725C2EB9
:108A70001C24381CA6F157A6B4C773B4C65197C6B8
:108A8000E823CBE8DD7CA1DD749CE8741F213E1F48
:108A90004BDD964BBDDC61BD8B860D8B8A850F8AC5
:108AA0007090E0703E427C3EB5C471B566AACC665B
:108AB00048D8904803050603F601F7F60E121C0E7F
:108AC00061A3C261355F6A3557F9AE57B9D069B94C
:108AD00086911786C15899C11D273A1D9EB9279EB8
:108AE000E138D9E1F813EBF898B32B981133221140
:108AF00069BBD269D970A9D98E89078E94A733949E
:108B00009BB62D9B1E223C1E87921587E920C9E942
:108B1000CE4987CE55FFAA5528785028DF7AA5DFA1
:108B20008C8F038CA1F859A1898009890D171A0D22
:108B3000BFDA65BFE631D7E642C6844268B8D0687E
:108B400041C3824199B029992D775A2D0F111E0FDB
:108B5000B0CB7BB054FCA854BBD66DBB163A2C16D8
:108B60006363A5C67C7C84F8777799EE7B7B8DF672
:108B7000F2F20DFF6B6BBDD66F6FB1DEC5C55491C0
:108B800030305060010103026767A9CE2B2B7D5660
:108B9000FEFE19E7D7D762B5ABABE64D76769AEC19
:108BA000CACA458F82829D1FC9C940897D7D87FAC7
:108BB000FAFA15EF5959EBB24747C98EF0F00BFBA3
:108BC000ADADEC41D4D467B3A2A2FD5FAFAFEA452F
:108BD0009C9CBF23A4A4F753727296E4C0C05B9B15
:108BE000B7B7C275FDFD1CE19393AE3D26266A4CD6
:108BF00036365A6C3F3F417EF7F702F5CCCC4F83B7
:108C000034345C68A5A5F451E5E534D1F1F108F9F7
:108C1000717193E2D8D873AB3131536215153F2A85
:108C200004040C08C7C7529523236546C3C35E9D41
:108C3000181828309696A13705050F0A9A9AB52F6D
:108C40000707090E1212362480809B1BE2E23DDFEB
:108C5000EBEB26CD2727694EB2B2CD7F75759FEA23
:108C600009091B1283839E1D2C2C74581A1A2E344A
:108C70001B1B2D366E6EB2DC5A5AEEB4A0A0FB5B05
:108C80005252F6A43B3B4D76D6D661B7B3B3CE7DF8
:108C900029297B52E3E33EDD2F2F715E84849713F5
:108CA0005353F5A6D1D168B900000000EDED2CC1F9
:108CB00020206040FCFC1FE3B1B1C8795B5BEDB6DE
:108CC0006A6ABED4CBCB468DBEBED96739394B72EA
:108CD0004A4ADE944C4CD4985858E8B0CFCF4A85D5
:108CE000D0D06BBBEFEF2AC5AAAAE54FFBFB16ED70
:108CF0004343C5864D4DD79A3333556685859411C8
:108D00004545CF8AF9F910E9020206047F7F81FE0A
:108D10005050F0A03C3C44789F9FBA25A8A8E34B54
:108D20005151F3A2A3A3FE5D4040C0808F8F8A05FE
:108D30009292AD3F9D9DBC2138384870F5F504F105
:108D4000BCBCDF63B6B6C177DADA75AF2121634206
:108D500010103020FFFF1AE5F3F30EFDD2D26DBFE5
:108D6000CDCD4C810C0C141813133526ECEC2FC30D
:108D70005F5FE1BE9797A2354444CC881717392E20
:108D8000C4C45793A7A7F2557E7E82FC3D3D477A27
:108D90006464ACC85D5DE7BA19192B32737395E64C
:108DA0006060A0C0818198194F4FD19EDCDC7FA309
:108DB000222266442A2A7E549090AB3B8888830BFB
:108DC0004646CA8CEEEE29C7B8B8D36B14143C28BB
:108DD000DEDE79A75E5EE2BC0B0B1D16DBDB76AD3B
:108DE000E0E03BDB323256643A3A4E740A0A1E1413
:108DF0004949DB9206060A0C24246C485C5CE4B802
:108E0000C2C25D9FD3D36EBDACACEF436262A6C459
:108E10009191A8399595A431E4E437D379798BF20F
:108E2000E7E732D5C8C8438B3737596E6D6DB7DA6F
:108E30008D8D8C01D5D564B14E4ED29CA9A9E04947
:108E40006C6CB4D85656FAACF4F407F3EAEA25CFC2
:108E50006565AFCA7A7A8EF4AEAEE9470808181095
:108E6000BABAD56F787888F025256F4A2E2E725CB5
:108E70001C1C2438A6A6F157B4B4C773C6C65197B4
:108E8000E8E823CBDDDD7CA174749CE81F1F213E44
:108E90004B4BDD96BDBDDC618B8B860D8A8A850FC1
:108EA000707090E03E3E427CB5B5C4716666AACC57
:108EB0004848D89003030506F6F601F70E0E121C7B
:108EC0006161A3C235355F6A5757F9AEB9B9D06948
:108ED00086869117C1C158991D1D273A9E9EB927B4
:108EE000E1E138D9F8F813EB9898B32B111133223C
:108EF0006969BBD2D9D970A98E8E89079494A7339A
:108F00009B9BB62D1E1E223C87879215E9E920C93E
:108F1000CECE49875555FFAA28287850DFDF7AA59D
:108F20008C8C8F03A1A1F859898980090D0D171A1E
:108F3000BFBFDA65E6E631D74242C6846868B8D07A
:108F40004141C3829999B0292D2D775A0F0F111ED7
:108F5000B0B0CB7B5454FCA8BBBBD66D16163A2CD4
:108F600052096AD53036A538BF40A39E81F3D7FB9E
:108F70007CE339829B2FFF87348E4344C4DEE9CBE8
:108F8000547B9432A6C2233DEE4C950B42FAC34E5D
:108F9000082EA16628D924B2765BA2496D8BD12513
:108FA00072F8F66486689816D4A45CCC5D65B692B7
:108FB0006C704850FDEDB9DA5E154657A78D9D845B
:108FC00090D8AB008CBCD30AF7E45805B8B345067B
:108FD000D02C1E8FCA3F0F02C1AFBD0301138A6B95
:108FE0003A9111414F67DCEA97F2CFCEF0B4E673C5
:108FF00096AC7422E7AD3585E2F937E81C75DF6E73
:1090000047F11A711D29C5896FB7620EAA18BE1BD8
:10901000FC563E4BC6D279209ADBC0FE78CD5AF47E
:109020001FDDA8338807C731B11210592780EC5FC4
:1090300060517FA919B54A0D2DE57A9F93C99CEF20
:10904000A0E03B4DAE2AF5B0C8EBBB3C8353996121
:10905000172B047EBA77D626E169146355210C7D5F
:1090600051F4A7507E4165531A17A4C33A275E9660
:109070003BAB6BCB1F9D45F1ACFA58AB4BE3039375
:109080002030FA55AD766DF688CC7691F5024C25F8
:109090004FE5D7FCC52ACBD726354480B562A38FD0
:1090A000DEB15A4925BA1B6745EA0E985DFEC0E15C
:1090B000C32F7502814CF0128D4697A36BD3F9C66E
:1090C000038F5FE715929C95BF6D7AEB955259DA45
:1090D000D4BE832D587421D349E069298EC9C84470
:1090E00075C2896AF48E797899583E6B27B971DD1B
:1090F000BEE14FB6F088AD17C920AC667DCE3AB45C
:1091000063DF4A18E51A31829751336062537F4515
:10911000B16477E0BB6BAE84FE81A01CF9082B9490
:10912000704868588F45FD1994DE6C87527BF8B7FC
:10913000AB73D323724B02E2E31F8F576655AB2A02
:10914000B2EB28072FB5C20386C57B9AD33708A593
:10915000302887F223BFA5B202036ABAED16825CFB
:109160008ACF1C2BA779B492F307F2F04E69E2A1E3
:1091700065DAF4CD0605BED5D134621FC4A6FE8AD9
:10918000342E539DA2F355A0058AE132A4F6EB7567
:109190000B83EC394060EFAA5E719F06BD6E1051E3
:1091A0003E218AF996DD063DDD3E05AE4DE6BD4623
:1091B00091548DB571C45D050406D46F605015FFE0
:1091C0001998FB24D6BDE997894043CC67D99E778F
:1091D000B0E842BD07898B88E7195B3879C8EEDBB8
:1091E000A17C0A477C420FE9F8841EC900000000F8
:1091F00009808683322BED481E1170AC6C5A724E7A
:10920000FD0EFFFB0F8538563DAED51E362D392796
:109210000A0FD964685CA6219B5B54D124362E3A90
:109220000C0A67B19357E70FB4EE96D21B9B919E41
:1092300080C0C54F61DC20A25A774B691C121A16F8
:10924000E293BA0AC0A02AE53C22E043121B171D94
:109250000E090D0BF28BC7AD2DB6A8B9141EA9C807
:1092600057F11985AF75074CEE99DDBBA37F60FD03
:10927000F701269F5C72F5BC44663BC55BFB7E3400
:109280008B432976CB23C6DCB6EDFC68B8E4F163EA
:10929000D731DCCA426385101397224084C611205F
:1092A000854A247DD2BB3DF8AEF93211C729A16DA4
:1092B0001D9E2F4BDCB230F30D8652EC77C1E3D00C
:1092C0002BB3166CA970B999119448FA47E9642236
:1092D000A8FC8CC4A0F03F1A567D2CD8223390EF06
:1092E00087494EC7D938D1C18CCAA2FE98D40B3653
:1092F000A6F581CFA57ADE28DAB78E263FADBFA4CA
:109300002C3A9DE45078920D6A5FCC9B547E466265
:10931000F68D13C290D8B8E82E39F75E82C3AFF548
:109320009F5D80BE69D0937C6FD52DA9CF2512B3E8
:10933000C8AC993B10187DA7E89C636EDB3BBB7BF8
:10934000CD2678096E5918F4EC9AB701834F9AA884
:10935000E6956E65AAFFE67E21BCCF08EF15E8E62C
:10936000BAE79BD94A6F36CEEA9F09D429B07CD69A
:1093700031A4B2AF2A3F2331C6A5943035A266C0CE
:10938000744EBC37FC82CAA6E090D0B033A7D81583
:10939000F104984A41ECDAF77FCD500E1791F62F81
:1093A000764DD68D43EFB04DCCAA4D54E49604DFF4
:1093B0009ED1B5E34C6A881BC12C1FB84665517F0E
:1093C0009D5EEA04018C355DFA877473FB0B412EB8
:1093D000B3671D5A92DBD252E91056336DD647134C
:1093E0009AD7618C37A10C7A59F8148EEB133C890B
:1093F000CEA927EEB761C935E11CE5ED7A47B13C4E
:109400009CD2DF5955F2733F1814CE7973C737BF1A
:1094100053F7CDEA5FFDAA5BDF3D6F147844DB862E
:10942000CAAFF381B968C43E3824342CC2A3405F6C
:10943000161DC372BCE2250C283C498BFF0D9541DB
:1094400039A80171080CB3DED8B4E49C6456C1900D
:109450007BCB8461D532B670486C5C74D0B857420F
:109460005051F4A7537E4165C31A17A4963A275E5C
:10947000CB3BAB6BF11F9D45ABACFA58934BE30371
:10948000552030FAF6AD766D9188CC7625F5024CF4
:10949000FC4FE5D7D7C52ACB802635448FB562A3CC
:1094A00049DEB15A6725BA1B9845EA0EE15DFEC058
:1094B00002C32F7512814CF0A38D4697C66BD3F96A
:1094C000E7038F5F9515929CEBBF6D7ADA95525941
:1094D0002DD4BE83D35874212949E069448EC9C86C
:1094E0006A75C28978F48E796B99583EDD27B97117
:1094F000B6BEE14F17F088AD66C920ACB47DCE3A58
:109500001863DF4A82E51A31609751334562537F11
:10951000E0B1647784BB6BAE1CFE81A094F9082B8C
:1095200058704868198F45FD8794DE6CB7527BF8F8
:1095300023AB73D3E2724B0257E31F8F2A6655ABFE
:1095400007B2EB28032FB5C29A86C57BA5D337088F
:10955000F2302887B223BFA5BA02036A5CED1682F7
:109560002B8ACF1C92A779B4F0F307F2A14E69E2DF
:10957000CD65DAF4D50605BE1FD134628AC4A6FED5
:109580009D342E53A0A2F35532058AE175A4F6EB63
:10959000390B83ECAA4060EF065E719F51BD6E10DF
:1095A000F93E218A3D96DD06AEDD3E05464DE6BD1F
:1095B000B591548D0571C45D6F0406D4FF605015DC
:1095C000241998FB97D6BDE9CC8940437767D99E8B
:1095D000BDB0E8428807898B38E7195BDB79C8EEB4
:1095E00047A17C0AE97C420FC9F8841E00000000F4
:1095F0008309808648322BEDAC1E11704E6C5A7276
:10960000FBFD0EFF560F85381E3DAED527362D3992
:10961000640A0FD921685CA6D19B5B543A24362E8C
:10962000B10C0A670F9357E7D2B4EE969E1B9B913D
:109630004F80C0C5A261DC20695A774B161C121AF4
:109640000AE293BAE5C0A02A433C22E01D121B1790
:109650000B0E090DADF28BC7B92DB6A8C8141EA903
:109660008557F1194CAF7507BBEE99DDFDA37F60FF
:109670009FF70126BC5C72F5C544663B345BFB7EFC
:10968000768B4329DCCB23C668B6EDFC63B8E4F1E6
:10969000CAD731DC10426385401397222084C6115B
:1096A0007D854A24F8D2BB3D11AEF9326DC729A1A0
:1096B0004B1D9E2FF3DCB230EC0D8652D077C1E308
:1096C0006C2BB31699A970B9FA1194482247E96432
:1096D000C4A8FC8C1AA0F03FD8567D2CEF22339002
:1096E000C787494EC1D938D1FE8CCAA23698D40B4F
:1096F000CFA6F58128A57ADE26DAB78EA43FADBFC6
:10970000E42C3A9D0D5078929B6A5FCC62547E4661
:10971000C2F68D13E890D8B85E2E39F7F582C3AF44
:10972000BE9F5D807C69D093A96FD52DB3CF2512E4
:109730003BC8AC99A710187D6EE89C637BDB3BBBF4
:1097400009CD2678F46E591801EC9AB7A8834F9A80
:1097500065E6956E7EAAFFE60821BCCFE6EF15E828
:10976000D9BAE79BCE4A6F36D4EA9F09D629B07C96
:10977000AF31A4B2312A3F2330C6A594C035A266CA
:1097800037744EBCA6FC82CAB0E090D01533A7D87F
:109790004AF10498F741ECDA0E7FCD502F1791F67D
:1097A0008D764DD64D43EFB054CCAA4DDFE49604F0
:1097B000E39ED1B51B4C6A88B8C12C1F7F4665510A
:1097C000049D5EEA5D018C3573FA87742EFB0B41B4
:1097D0005AB3671D5292DBD233E91056136DD64748
:1097E0008C9AD7617A37A10C8E59F81489EB133C07
:1097F000EECEA92735B761C9EDE11CE53C7A47B14A
:10980000599CD2DF3F55F273791814CEBF73C73716
:10981000EA53F7CD5B5FFDAA14DF3D6F867844DB2A
:1098200081CAAFF33EB968C42C3824345FC2A34068
:1098300072161DC30CBCE2258B283C4941FF0D95D7
:109840007139A801DE080CB39CD8B4E4906456C109
:10985000617BCB8470D532B674486C5C42D0B8570B
:10986000A75051F465537E41A4C31A175E963A2758
:109870006BCB3BAB45F11F9D58ABACFA03934BE36D
:10988000FA5520306DF6AD76769188CC4C25F502F0
:10989000D7FC4FE5CBD7C52A44802635A38FB562C8
:1098A0005A49DEB11B6725BA0E9845EAC0E15DFE54
:1098B0007502C32FF012814C97A38D46F9C66BD366
:1098C0005FE7038F9C9515927AEBBF6D59DA95523D
:1098D000832DD4BE21D35874692949E0C8448EC968
:1098E000896A75C27978F48E3E6B995871DD27B913
:1098F0004FB6BEE1AD17F088AC66C9203AB47DCE54
:109900004A1863DF3182E51A336097517F4562530D
:1099100077E0B164AE84BB6BA01CFE812B94F90888
:1099200068587048FD198F456C8794DEF8B7527BF4
:10993000D323AB7302E2724B8F57E31FAB2A6655FA
:109940002807B2EBC2032FB57B9A86C508A5D3378B
:1099500087F23028A5B223BF6ABA0203825CED16F3
:109960001C2B8ACFB492A779F2F0F307E2A14E69DB
:10997000F4CD65DABED50605621FD134FE8AC4A6D1
:10998000539D342E55A0A2F3E132058AEB75A4F65F
:10999000EC390B83EFAA40609F065E711051BD6EDB
:1099A0008AF93E21063D96DD05AEDD3EBD464DE61B
:1099B0008DB591545D0571C4D46F040615FF6050D8
:1099C000FB241998E997D6BD43CC89409E7767D987
:1099D00042BDB0E88B8807895B38E719EEDB79C8B0
:1099E0000A47A17C0FE97C421EC9F88400000000F0
:1099F00086830980ED48322B70AC1E11724E6C5A72
:109A0000FFFBFD0E38560F85D51E3DAE3927362D8E
:109A1000D9640A0FA621685C54D19B5B2E3A243688
:109A200067B10C0AE70F935796D2B4EE919E1B9B39
:109A3000C54F80C020A261DC4B695A771A161C12F0
:109A4000BA0AE2932AE5C0A0E0433C22171D121B8C
:109A50000D0B0E09C7ADF28BA8B92DB6A9C8141EFF
:109A6000198557F1074CAF75DDBBEE9960FDA37FFB
:109A7000269FF701F5BC5C723BC544667E345BFBF8
:109A800029768B43C6DCCB23FC68B6EDF163B8E4E2
:109A9000DCCAD7318510426322401397112084C657
:109AA000247D854A3DF8D2BB3211AEF9A16DC7299C
:109AB0002F4B1D9E30F3DCB252EC0D86E3D077C104
:109AC000166C2BB3B999A97048FA1194642247E92E
:109AD0008CC4A8FC3F1AA0F02CD8567D90EF2233FE
:109AE0004EC78749D1C1D938A2FE8CCA0B3698D44B
:109AF00081CFA6F5DE28A57A8E26DAB7BFA43FADC2
:109B00009DE42C3A920D5078CC9B6A5F4662547E5D
:109B100013C2F68DB8E890D8F75E2E39AFF582C340
:109B200080BE9F5D937C69D02DA96FD512B3CF25E0
:109B3000993BC8AC7DA71018636EE89CBB7BDB3BF0
:109B40007809CD2618F46E59B701EC9A9AA8834F7C
:109B50006E65E695E67EAAFFCF0821BCE8E6EF1524
:109B60009BD9BAE736CE4A6F09D4EA9F7CD629B092
:109B7000B2AF31A423312A3F9430C6A566C035A2C6
:109B8000BC37744ECAA6FC82D0B0E090D81533A77B
:109B9000984AF104DAF741EC500E7FCDF62F179179
:109BA000D68D764DB04D43EF4D54CCAA04DFE496EC
:109BB000B5E39ED1881B4C6A1FB8C12C517F466506
:109BC000EA049D5E355D018C7473FA87412EFB0BB0
:109BD0001D5AB367D25292DB5633E91047136DD644
:109BE000618C9AD70C7A37A1148E59F83C89EB1303
:109BF00027EECEA9C935B761E5EDE11CB13C7A4746
:109C0000DF599CD2733F55F2CE79181437BF73C712
:109C1000CDEA53F7AA5B5FFD6F14DF3DDB86784426
:109C2000F381CAAFC43EB968342C3824405FC2A364
:109C3000C372161D250CBCE2498B283C9541FF0DD3
:109C4000017139A8B3DE080CE49CD8B4C190645605
:109C500084617BCBB670D5325C74486C5742D0B807
:109C6000F4A750514165537E17A4C31A275E963A54
:109C7000AB6BCB3B9D45F11FFA58ABACE303934B69
:109C800030FA5520766DF6ADCC769188024C25F5EC
:109C9000E5D7FC4F2ACBD7C53544802662A38FB5C4
:109CA000B15A49DEBA1B6725EA0E9845FEC0E15D50
:109CB0002F7502C34CF012814697A38DD3F9C66B62
:109CC0008F5FE703929C95156D7AEBBF5259DA9539
:109CD000BE832DD47421D358E0692949C9C8448E64
:109CE000C2896A758E7978F4583E6B99B971DD270F
:109CF000E14FB6BE88AD17F020AC66C9CE3AB47D50
:109D0000DF4A18631A3182E551336097537F456209
:109D10006477E0B16BAE84BB81A01CFE082B94F984
:109D20004868587045FD198FDE6C87947BF8B752F0
:109D300073D323AB4B02E2721F8F57E355AB2A66F6
:109D4000EB2807B2B5C2032FC57B9A863708A5D387
:109D50002887F230BFA5B223036ABA0216825CEDEF
:109D6000CF1C2B8A79B492A707F2F0F369E2A14ED7
:109D7000DAF4CD6505BED50634621FD1A6FE8AC4CD
:109D80002E539D34F355A0A28AE13205F6EB75A45B
:109D900083EC390B60EFAA40719F065E6E1051BDD7
:109DA000218AF93EDD063D963E05AEDDE6BD464D17
:109DB000548DB591C45D057106D46F045015FF60D4
:109DC00098FB2419BDE997D64043CC89D99E776783
:109DD000E842BDB0898B8807195B38E7C8EEDB79AC
:109DE0007C0A47A1420FE97C841EC9F800000000EC
:109DF000808683092BED48321170AC1E5A724E6C6E
:109E00000EFFFBFD8538560FAED51E3D2D3927368A
:109E10000FD9640A5CA621685B54D19B362E3A2484
:109E20000A67B10C57E70F93EE96D2B49B919E1B35
:109E3000C0C54F80DC20A261774B695A121A161CEC
:109E400093BA0AE2A02AE5C022E0433C1B171D1288
:109E5000090D0B0E8BC7ADF2B6A8B92D1EA9C814FB
:109E6000F119855775074CAF99DDBBEE7F60FDA3F7
:109E700001269FF772F5BC5C663BC544FB7E345BF4
:109E80004329768B23C6DCCBEDFC68B6E4F163B8DE
:109E900031DCCAD76385104297224013C611208453
:109EA0004A247D85BB3DF8D2F93211AE29A16DC798
:109EB0009E2F4B1DB230F3DC8652EC0DC1E3D07700
:109EC000B3166C2B70B999A99448FA11E96422472A
:109ED000FC8CC4A8F03F1AA07D2CD8563390EF22FA
:109EE000494EC78738D1C1D9CAA2FE8CD40B369847
:109EF000F581CFA67ADE28A5B78E26DAADBFA43FBE
:109F00003A9DE42C78920D505FCC9B6A7E46625459
:109F10008D13C2F6D8B8E89039F75E2EC3AFF5823C
:109F20005D80BE9FD0937C69D52DA96F2512B3CFDC
:109F3000AC993BC8187DA7109C636EE83BBB7BDBEC
:109F4000267809CD5918F46E9AB701EC4F9AA88378
:109F5000956E65E6FFE67EAABCCF082115E8E6EF20
:109F6000E79BD9BA6F36CE4A9F09D4EAB07CD6298E
:109F7000A4B2AF313F23312AA59430C6A266C035C2
:109F80004EBC377482CAA6FC90D0B0E0A7D8153377
:109F900004984AF1ECDAF741CD500E7F91F62F1775
:109FA0004DD68D76EFB04D43AA4D54CC9604DFE4E8
:109FB000D1B5E39E6A881B4C2C1FB8C165517F4602
:109FC0005EEA049D8C355D01877473FA0B412EFBAC
:109FD000671D5AB3DBD25292105633E9D647136D40
:109FE000D7618C9AA10C7A37F8148E59133C89EBFF
:109FF000A927EECE61C935B71CE5EDE147B13C7A42
:10A00000D2DF599CF2733F5514CE7918C737BF730E
:10A01000F7CDEA53FDAA5B5F3D6F14DF44DB867822
:10A02000AFF381CA68C43EB924342C38A3405FC260
:10A030001DC37216E2250CBC3C498B280D9541FFCF
:10A04000A80171390CB3DE08B4E49CD856C1906401
:10A05000CB84617B32B670D56C5C7448B85742D003
:10A0600001000000020000000400000008000000E1
:10A0700010000000200000004000000080000000F0
:10A080001B00000036000000A09E667F3BCC908B3A
:10A09000B67AE8584CAA73B2C6EF372FE94F82BEA2
:10A0A00054FF53A5F1D36F1C10E527FADE682D1D70
:10A0B000B05688C2B3E6C1FD70822CECB327C0E570
:10A0C000E4855735EA0CAE4123EF6B934519A52182
:10A0D000ED0E4F4E1D6592BD86B8AF8F7CEB1FCE47
:10A0E0003E30DC5F5EC50B1AA6E139CAD5475D3D3F
:10A0F000D9015AD651566C4D8B0D9A66FBCCB02DBA
:10A1000074122B20F0B18499DF4CCBC2347E7605DB
:10A110006DB7A931D11704D714583A61DE1B111C51
:10A12000320F9C165318F222FE44CFB2C3B57A9177
:10A130002408E8A860FC6950AAD0A07DA189629794
:10A14000545B1E95E0FF64D210C40048A3F775DB92
:10A150008A03E6DA093FDD94875C8302CD4A9033B7
:10A160007367F6F39D7FBFE2529BD826C837C63B84
:10A1700081966F4B13BE632EE979A78C9F6EBC8EC0
:10A1800029F5F9B62FFDB4597898066AE74671BAF1
:10A19000D425AB4288A28DFA7207B955F8EEAC0A05
:10A1A00036492A683C38F1A44028D37BBBC943C157
:10A1B00015E3ADF477C7809EE00558D9674E81CB93
:10A1C000C90BAE6AD5185D8246DFD6278A324B426C
:10A1D000DB1C9E9C3ACA257B0D715F1FF8D73E9D04
:10A1E0007C60B9BEBC8B16344DC37295AB8EBA7A07
:10A1F000B302B4ADA2ACD89A171A35CCF799615A0C
:10A20000E8245640E1630933BF98978568FCEC0A5F
:10A21000DA6F5362A32E08AF28B074C2BD3622385D
:10A22000641E392CA630E544FD889F65876BF423B6
:10A230004810D151C0F9D2A055A141FA4313C42FFF
:10A24000A8B63C2BC1FFC8A52089009047EFEAB70C
:10A250001506CDB5127EBB290FB807049B94216665
:10A26000E6CEEDE73BFE7FC5A437B14C916E8D760F
:10A27000032DDE96267DC65CD3F24F193FDC791D97
:10A2800052EBF36D5EFB69B2F0310CD4CF8CE2750A
:10A29000A94A578411451BF5E40E73AAF1DD591440
:10A2A0006C9254D07870E3498050A7F677938683F8
:10A2B0002AC75BE9EE8F013D38411676D99360F2EB
:10A2C00072C2AB9A750657A091F7B5C9A28CD2900D
:10A2D000F607A7278EB249DE435CD7C73EF58F67E6
:10A2E0001F186EAF2FE2850D53F09C65EAA3AE9E5A
:10A2F000EC802D6BA82B36A6C5864D33FD6658968F
:10A300003A09951078D842CCEF26E5611A3F3B8296
:10A31000B6DBD498E88B02EB0A2C1DB06F8D880E4B
:10A3200019874E0BA90C79117F22E759E1DA3DC854
:10A3300012047454307EB428556850BED0C431CB5A
:10A340002AAD0FCA70FF326908620024D1FBBAED52
:10A350004581736D849FEE4AC32EC101E62548995D
:10A36000B9B37BF9CEBFDF7129CD6C13649B639DBC
:10A37000C04BB7A5895FB117F4BCD346CF375E4752
:10A3800094FAFC5B97FE5AAC3C4C0335F323B85D62
:10A390006A92D5214451C67D3983DCAA7C77560563
:10A3A0001BA415341E1CF8522014E9BDDDE4A1E005
:10A3B0008AF1D67ABBE3404F702CB3C0E457EAAEC3
:10A3C000236B45A5ED4F1D9286AF7C1F3EDC5E0BD7
:10A3D000A639D55DD95A516C8B9AFBB0742BF08499
:10A3E000DFCB34766DA9D104143ADE11329C53F2DE
:10A3F000FECFC37A24E86069AAA0A162541EE0647B
:10A400001000A3758AE609DD8783CD9073F69DBFA2
:10A4100052D8C8C6816F1363E9A79FBC29F92FB42E
:10A420007806E771D4AB888D72B9F8AC362A3CF166
:10A4300040D3BB4315AD778082EC27E585350C41D1
:10A44000EF9319210E4E65BDB88FEBCE305FC51A64
:10A45000E1CA473D01D6564D0D66CC2D1220B1996B
:10A460004CC27E05B73117D758611B1C0F16182236
:10A4700044B2B59108A8FC50D07D89975B95FFD276
:10A48000C448F7DB03DA3F945C024A3367F37FE2A8
:10A490009B26373B964BBE2E798C6E8EF5B6FD59BA
:10A4A000986A46BA2542A2FA0755EE0A496838A4C6
:10A4B000287BC9C1E3F4C79E01010101000000002F
:10A4C0000101010100000000010001010101000182
:10A4D00001010100010100010001020308090A0B4A
:10A4E00026272425171415161BFFFF1AFFFFFFFF51
:10A4F000FFFFFFFFFFFFFFFFFFFFFFFFFFFFFFFF6C
:10A50000040506070C0D0E0F10111213FF1819FF8A
:10A510001F1C1D1EFFFFFFFFFFFFFFFFFFFFFFFFD1
:10A52000FFFFFFFFFFFFFFFF000102033D3E3F3C37
:10A53000FFFFFFFF1B18191A23202122FFFFFFFF37
:10A5400008090A0B10111213FFFFFFFF272425260D
:10A55000FFFFFFFF0C0D0E0F3A3B38391F1C1D1E6D
:10A56000FFFFFFFF0405060741424340141516177D
:10A57000FFFFFFFF2B28292A15161714FFFFFFFFE7
:10A58000121310110B08090A0F0C0D0E191A1B18C3
:10A590001D1E1F1C12131011FFFFFFFFFFFFFFFF07
:10A5A00002000000FD0C0000C90C0000D90C0000E6
:10A5B000010D0000EB0C0000000000000000000096
:10A5C000630D00005F0D0000310D00004D0D000017
:10A5D0000201000080000000CCBE0000000000006E
:10A5E0000000000010000000A0A500000301000012
:10A5F000C0000000D8BE0000000000000000000005
:10A6000010000000A0A500000401000000010000EF
:10A61000E4BE000000000000000000001000000088
:10A62000A0A500000502000080000000F0BE0000B0
:10A63000100000000000000010000000A0A50000B5
:10A6400006020000C0000000FCBE00001000000078
:10A650000000000010000000A0A50000070200009C
:10A660000001000008BF0000100000000000000012
:10A6700010000000A0A500000803000080000000FA
:10A6800014BF0000100000000000000010000000D7
:10A69000A0A5000009030000C000000024BF0000C6
:10A6A000100000000000000010000000A0A5000045
:10A6B0000A0300000001000034BF00001000000089
:10A6C0000000000010000000A0A5000043040000EE
:10A6D0008000000044BF00001000000000000000E7
:10A6E00010000000A0A5000044040000C00000000D
:10A6F00050BF00001000000000000000100000002B
:10A70000A0A5000045040000000100005CBF00009F
:10A71000100000000000000010000000A0A50000D4
:10A720000B0500008000000068BF00001000000062
:10A730000000000010000000A0A500000C050000B3
:10A74000C000000074BF0000100000000000000006
:10A7500010000000A0A500000D0500000001000091
:10A7600080BF00001000000000000000100000008A
:10A77000A0A5000002000000000000000000000092
:10A78000000000000000000000000000110D0000AB
:10A7900000000000677B0000637B0000357B000049
:10A7A0004D7B000046090000000100008CBF000046
:10A7B00010000000000000001000000074A700005E
:10A7C000470900000002000098BF000010000000D0
:10A7D000000000001000000074A70000020000004C
:10A7E0000000000000000000000000000000000069
:10A7F000000000000000000000000000311C00000C
:10A80000311C0000451C00005D1C00000E0600000D
:10A8100080000000A4BF00000C0000000100000048
:10A8200010000000DCA700000F060000C0000000C0
:10A83000B0BF00000C00000001000000100000008C
:10A84000DCA700001006000000010000BCBF0000F3
:10A850000C0000000100000010000000DCA7000058
:10A8600002000000000000000000000000000000E6
:10A8700000000000000000000000000000000000D8
:10A8800029160000291600003D160000531600008E
:10A890002B08000080000000C8BF00000C00000072
:10A8A000010000001000000060A800002C0800005B
:10A8B000C0000000D4BF00000C0000000100000038
:10A8C0001000000060A800002D080000000100003A
:10A8D000E0BF00000C0000000100000010000000BC
:10A8E00060A800000500000065150000311500009B
:10A8F000411500000000000053150000000000009A
:10A900000000000025160000211600006915000057
:10A91000851500001101000080000000ECBF000060
:10A92000000000000000000010000000E4A800008B
:10A9300012010000C000000000C000000000000084
:10A940000000000010000000E4A800001301000057
:10A950000001000014C00000000000000000000022
:10A9600010000000E4A800001402000080000000B5
:10A9700028C00000100000000000000010000000CF
:10A98000E4A8000015020000C00000003CC0000068
:10A99000100000000000000010000000E4A800000B
:10A9A000160200000001000050C00000100000006E
:10A9B0000000000010000000E4A8000017030000E1
:10A9C0008000000064C000001000000000000000D3
:10A9D00010000000E4A8000018030000C000000000
:10A9E00078C000001000000000000000100000000F
:10A9F000E4A8000019030000000100008CC0000062
:10AA0000100000000000000010000000E4A800009A
:10AA10001A05000080000000A0C000001000000027
:10AA20000000000010000000E4A800001B0500006A
:10AA3000C0000000B4C000001000000000000000D2
:10AA400010000000E4A800001C0500000001000048
:10AA5000C8C000001000000000000000100000004E
:10AA6000E4A8000005000000000000000000000055
:10AA700000000000000000000000000000000000D6
:10AA8000000000003B1C00003B1C0000451C0000B7
:10AA90005D1C00001D06000080000000DCC00000FE
:10AAA0000C000000010000001000000064AA00007B
:10AAB0001E060000C0000000F0C000000C000000F6
:10AAC000010000001000000064AA00001F06000042
:10AAD0000001000004C100000C00000001000000A3
:10AAE0001000000064AA0000050000000000000043
:10AAF0000000000000000000000000000000000056
:10AB000000000000000000003316000033160000B3
:10AB10003D160000531600002E08000080000000C3
:10AB200018C100000C00000001000000100000002F
:10AB3000E8AA00002F080000C00000002CC100009F
:10AB40000C0000000100000010000000E8AA000056
:10AB5000300800000001000040C100000C000000AF
:10AB60000100000010000000E8AA00000900000039
:10AB700000000000000000000000000000000000D5
:10AB800000000000000000007118000055180000CF
:10AB9000551800003D170000571700004807000037
:10ABA0000001000054C100000C0000000000000083
:10ABB000010000006CAB0000090000000000000074
:10ABC0000000000000000000000000000000000085
:10ABD0000000000000000000DD180000DD1800008B
:10ABE000851800009F180000490A000000010000BD
:10ABF00060C100000C000000000000000100000027
:10AC0000B8AB000002000000D0A500000300000067
:10AC1000ECA500000400000008A6000005000000EC
:10AC200024A600000600000040A600000700000067
:10AC30005CA600000800000078A6000009000000E3
:10AC400094A600000A000000B0A600004300000027
:10AC5000CCA6000044000000E8A60000450000006B
:10AC600004A700000B00000020A700000C0000005B
:10AC70003CA700000D00000058A70000460000009F
:10AC8000A4A7000047000000C0A700000E000000BD
:10AC90000CA800000F00000028A800001000000011
:10ACA00044A800002B00000090A800002C00000029
:10ACB000ACA800002D000000C8A800001100000092
:10ACC00014A900001200000030A9000013000000C9
:10ACD0004CA900001400000068A900001500000045
:10ACE00084A9000016000000A0A9000017000000C1
:10ACF000BCA9000018000000D8A90000190000003D
:10AD0000F4A900001A00000010AA00001B000000B7
:10AD10002CAA00001C00000048AA00001D00000032
:10AD200094AA00001E000000B0AA00001F0000004E
:10AD3000CCAA00002E00000018AB00002F0000007D
:10AD400034AB00003000000050AB000048000000B1
:10AD50009CAB000049000000E8AB000000000000D0
:10AD600000000000000000000000000000000000E3
:10AD7000201C00000000000040380000000000001F
:10AD8000602400000000000080700000000000004F
:10AD9000A06C000000000000C0480000000000009F
:10ADA000E05400000000000000E10000000000008E
:10ADB00020FD00000000000040D90000000000005D
:10ADC00060C500000000000080910000000000004D
:10ADD000A08D000000000000C0A9000000000000DD
:10ADE000E0B500000000000000404040404040400E
:10ADF000404041414141414040404040404040404E
:10AE000040404040404040404005020202020202F1
:10AE10000202020202020202022020202020202040
:10AE20002020200202020202020290909090909054
:10AE30001010101010101010101010101010101012
:10AE40001010101002020202020288888888888886
:10AE50000808080808080808080808080808080872
:10AE6000080808080202020240000000E9AD0000E4
:10AE700052657365656420726571756972656420D9
:10AE80002872657365656420636F756E74657220E2
:10AE90006F766572666C6F77656429004D657373B4
:10AEA0006167652070616464696E672069732063FF
:10AEB0006F727275707465642E0000004F6E6520AD
:10AEC0006F72206D6F7265206F66207468652069EF
:10AED0006E70757420617267756D656E747320662F
:10AEE0006F7220746869732066756E6374696F6E23
:10AEF00020776173204E554C4C0000004F6E65204A
:10AF00006F72206D6F7265206F6620746865206FA8
:10AF1000757470757420617267756D656E747320D9
:10AF2000666F7220746869732066756E6374696FEA
:10AF30006E20776173204E554C4C0000496E707541
:10AF4000742064617461206E6F7420696E205241B8
:10AF50004D000000496E697469616C697A617469B9
:10AF60006F6E206F722073746172747570206F66DB
:10AF700020524E47206661696C656400412072650D
:10AF8000717569726564206D656D6F727920616C91
:10AF90006C6F636174696F6E206661696C656400D3
:10AFA000537461636B206F766572666C6F77206493
:10AFB0006574656374656400454343206B6579205F
:10AFC000776173206E6F7420696E697469616C6952
:10AFD0007A656400546865206C656E677468206FDC
:10AFE00066206F6E65206F72206D6F7265206F66D0
:10AFF0002074686520696E70757420617267756D64
:10B00000656E74732077617320696E76616C696414
:10B010000000000050726F7669646564206B65798A
:10B0200020697320696E76616C69640053697A6582
:10B03000206F6620746865206B6579206973206EC7
:10B040006F7420737570706F7274656420627920FC
:10B0500063686F6F73656E206261636B656E640019
:10B0600053697A65206F6620746865204D414320DE
:10B070002874616729206973206E6F74207375705E
:10B08000706F7274656420696E2074686973204102
:10B09000454144206D6F64650000000053697A6586
:10B0A000206F6620746865206E6F6E63652069731B
:10B0B000206E6F7420737570706F72746564206990
:10B0C0006E20746869732041454144206D6F64654A
:10B0D000000000005468652066756E6374696F6EC9
:10B0E000207761732063616C6C6564207769746894
:10B0F00020612066656174757265207468617420D2
:10B10000697320756E617661696C61626C650000BF
:10B110005468652066756E6374696F6E20636F7521
:10B120006C64206E6F742062652063616C6C656472
:10B130002062656361757365207468652063727948
:10B1400070746F206261636B656E64207761732039
:10B15000627573792E20506C65617365207265721B
:10B16000756E207468652063727970746F677261A0
:10B170007068696320726F7574696E6520617420F0
:10B1800061206C617465722074696D650000000057
:10B190005369676E61747572652076657269666958
:10B1A000636174696F6E20636865636B207265709C
:10B1B0006F7274656420696E76616C69642073696E
:10B1C000676E61747572650041206E756C6C2070DD
:10B1D0006F696E746572207761732070726F766923
:10B1E00064656420666F722074686520636F6E7496
:10B1F00065787420737472756374757265000000ED
:10B20000546865206C656E677468206F662074688A
:10B2100065206F6E65206F72206D6F7265206F758F
:10B220007470757420617267756D656E74732077C4
:10B23000617320746F6F20736D616C6C000000008F
:10B240006E72665F63727970746F5F696E69742085
:10B25000776173206E6F742063616C6C656420701D
:10B2600072696F7220746F207468697320637279D9
:10B2700070746F2066756E6374696F6E00000000F5
:10B28000416E20696E7465726E616C206572726FBA
:10B2900072206F63637572726564207768656E20D3
:10B2A00063616C6C696E6720746869732066756E83
:10B2B0006374696F6E0000005075626C6963206191
:10B2C0006E642070726976617465206B6579207098
:10B2D000726F766964656420746F2045434448202A
:10B2E0006861766520646966666572656E7420744F
:10B2F00079706573206F66206375727665730000E0
:10B30000496E76616C696420636F6D62696E617409
:10B31000696F6E206F6620696E707574207061723F
:10B32000616D65746572730054686520636F6E7437
:10B3300065787420776173206E6F7420696E69740C
:10B3400069616C697A6564207072696F7220746FCC
:10B3500020746869732063616C6C206F722069745B
:10B360002077617320636F727275707465642E202C
:10B37000506C656173652063616C6C207468652036
:10B38000636F72726573706F6E64696E6720696E49
:10B3900069742066756E6374696F6E20666F7220C3
:10B3A00074686520616C676F726974686D20746F72
:10B3B00020696E697469616C697A6520697400003E
:10B3C0004D4143206E6F74206D61746368696E67D0
:10B3D00020656E637279707465642074657874009A
:10B3E0002E2E5C2E2E5C2E2E5C2E2E5C2E2E5C2E97
:10B3F0002E5C2E2E5C2E2E5C636F6D706F6E656EF4
:10B4000074735C6C69627261726965735C7574698E
:10B410006C5C6170705F7574696C5F706C61746690
:10B420006F726D2E63000000446174612062757359
:10B43000206572726F72202872657475726E206159
:10B4400064647265737320696E2074686520737418
:10B4500061636B206672616D65206973206E6F7425
:10B460002072656C6174656420746F207468652057
:10B47000696E737472756374696F6E207468617439
:10B480002063617573656420746865206572726FEE
:10B4900072290000446174612062757320657272C4
:10B4A0006F72202850432076616C7565207374613B
:10B4B000636B656420666F722074686520657863CD
:10B4C000657074696F6E2072657475726E20706F2E
:10B4D000696E747320746F2074686520696E73746C
:10B4E00072756374696F6E2074686174206361752E
:10B4F00073656420746865206661756C742900004A
:10B5000043617573653A204275734661756C7420AA
:10B510006F6E206120766563746F72207461626C57
:10B5200065207265616420647572696E6720657854
:10B5300063657074696F6E2070726F636573736991
:10B540006E672E005468652070726F636573736F49
:10B550007220686173206578656375746564206125
:10B560006E2053444956206F722055444956206935
:10B570006E737472756374696F6E20776974682076
:10B58000612064697669736F72206F6620300000F5
:10B590005468652070726F636573736F72206861A1
:10B5A0007320617474656D7074656420746F2065B8
:10B5B00078656375746520616E20696E7374727549
:10B5C0006374696F6E2074686174206D616B65735C
:10B5D00020696C6C6567616C20757365206F6620EF
:10B5E000746865204550535200000000546865207F
:10B5F00070726F636573736F72206861732061741A
:10B6000074656D7074656420616E20696C6C65672B
:10B61000616C206C6F6164206F66204558435F52F7
:10B62000455455524E20746F207468652050432C49
:10B63000206173206120726573756C74206F6620C1
:10B64000616E20696E76616C696420636F6E7465EB
:10B6500078742C206F7220616E20696E76616C693F
:10B6600064204558435F52455455524E2076616CD4
:10B67000756500005468652070726F636573736F41
:10B680007220617474656D707465642061206C6FE4
:10B690006164206F722073746F7265206174206121
:10B6A000206C6F636174696F6E20746861742064CC
:10B6B0006F6573206E6F74207065726D697420748D
:10B6C0006865206F7065726174696F6E00000000BC
:10B6D00041204D656D4D616E616765206661756CD9
:10B6E00074206F6363757272656420647572696E2D
:10B6F0006720666C6F6174696E672D706F696E7418
:10B70000206C617A7920737461746520707265733E
:10B710006572766174696F6E000000004120627589
:10B7200073206661756C74206F63637572726564F3
:10B7300020647572696E6720666C6F6174696E67EC
:10B740002D706F696E74206C617A792073746174E6
:10B750006520707265736572766174696F6E000042
:10B760005468652070726F636573736F72206861CF
:10B770007320617474656D7074656420746F2065E6
:10B7800078656375746520616E20756E64656669A1
:10B790006E656420696E737472756374696F6E0090
:10B7A000496E737472756374696F6E20627573206D
:10B7B0006572726F720000005468652070726F636A
:10B7C0006573736F722068617320617474656D7046
:10B7D00074656420746F20616363657373206120F6
:10B7E000636F70726F636573736F7200556E7374FD
:10B7F00061636B20666F7220616E2065786365708F
:10B8000074696F6E2072657475726E206861732042
:10B81000636175736564206F6E65206F72206D6F54
:10B820007265206163636573732076696F6C617400
:10B83000696F6E7300000000537461636B696E671B
:10B8400020666F7220616E20657863657074696F21
:10B850006E20656E74727920686173206361757300
:10B860006564206F6E65206F72206D6F7265206158
:10B8700063636573732076696F6C6174696F6E734F
:10B88000000000005468652070726F636573736F09
:10B890007220686173206D61646520616E20756E31
:10B8A000616C69676E6564206D656D6F727920618A
:10B8B0006363657373000000556E737461636B207E
:10B8C000666F7220616E20657863657074696F6E53
:10B8D0002072657475726E20686173206361757380
:10B8E0006564206F6E65206F72206D6F72652042F7
:10B8F00075734661756C7473000000005374616366
:10B900006B696E6720666F7220616E206578636573
:10B910007074696F6E20656E74727920686173202F
:10B92000636175736564206F6E65206F72206D6F43
:10B930007265204275734661756C74730000000077
:10B940002E2E5C2E2E5C2E2E5C2E2E5C2E2E5C2E31
:10B950002E5C2E2E5C2E2E5C636F6D706F6E656E8E
:10B9600074735C6C69627261726965735C62616C4C
:10B970006C6F635C6E72665F62616C6C6F632E638A
:10B98000000000002E2E5C2E2E5C2E2E5C2E2E5CD7
:10B990002E2E5C2E2E5C2E2E5C2E2E5C636F6D7018
:10B9A0006F6E656E74735C6C6962726172696573E7
:10B9B0005C6D656D6F626A5C6E72665F6D656D6F02
:10B9C000626A2E63000000004E52465F4552524F9D
:10B9D000525F494E56414C49445F44415441000036
:10B9E0004E52465F4552524F525F534F4654444564
:10B9F000564943455F4E4F545F454E41424C454486
:10BA0000000000004E52465F4552524F525F46457D
:10BA100041545552455F4E4F545F454E41424C454F
:10BA2000440000004E52465F4552524F525F4D5502
:10BA30005445585F554E4C4F434B5F4641494C452A
:10BA4000440000004E52465F4552524F525F4D55E2
:10BA50005445585F4C4F434B5F4641494C45440069
:10BA60004E52465F4552524F525F4D555445585FB6
:10BA7000434F4E445F494E49545F4641494C45440B
:10BA8000000000004E52465F4552524F525F4D55E6
:10BA90005445585F494E49545F4641494C4544001E
:10BAA0004E52465F4552524F525F424C455F49509D
:10BAB00053505F52585F504B545F5452554E434160
:10BAC000544544004E52465F4552524F525F424CDD
:10BAD000455F495053505F504545525F52454A4576
:10BAE00043544544000000004E52465F4552524FB9
:10BAF000525F424C455F495053505F4C494E4B5F3B
:10BB0000444953434F4E4E454354454400000000C2
:10BB10004E52465F4552524F525F4150495F4E4F21
:10BB2000545F494D504C454D454E5445440000002E
:10BB30004E52465F4552524F525F4E4F545F5355DF
:10BB400050504F52544544004E52465F4552524F5A
:10BB5000525F4D4F44554C455F4E4F545F494E49DF
:10BB60005449414C495A4544000000004E52465F3A
:10BB70004552524F525F4D4F44554C455F414C52D8
:10BB8000454144595F494E495449414C495A4544FD
:10BB9000000000004E52465F4552524F525F4E4FDA
:10BBA000545F464F554E44004E52465F4552524FE9
:10BBB000525F494E56414C49445F535441544500ED
:10BBC0004E52465F4552524F525F444154415F537B
:10BBD000495A45004E52465F4552524F525F494FB7
:10BBE0005F50454E44494E47000000004E52465FAC
:10BBF0004552524F525F5356435F48414E444C4565
:10BC0000525F4D495353494E470000004E52465F24
:10BC10004552524F525F494E56414C49445F4C4544
:10BC20004E475448000000004E52465F4552524F66
:10BC3000525F4452565F5457495F4552525F414EDE
:10BC400041434B004E52465F4552524F525F445261
:10BC5000565F5457495F4552525F444E41434B0033
:10BC60004E52465F4552524F525F494E5445524ED6
:10BC7000414C00004E52465F4552524F525F535462
:10BC80004F524147455F46554C4C00004E52465F6F
:10BC90004552524F525F4E554C4C00004E52465F3B
:10BCA0004552524F525F494E56414C49445F5041B4
:10BCB00052414D004E52465F4552524F525F4E4FD9
:10BCC0005F4D454D000000004E52465F4552524FB9
:10BCD000525F464F5242494444454E004E52465FE1
:10BCE0004552524F525F4452565F5457495F455236
:10BCF000525F4F56455252554E0000004E52465F1D
:10BD00004552524F525F494E56414C49445F41445F
:10BD1000445200004E52465F4552524F525F494EC8
:10BD200056414C49445F464C414753004E52465F92
:10BD300053554343455353004E52465F4552524F6D
:10BD4000525F424C455F495053505F4348414E4E0D
:10BD5000454C5F414C52454144595F455849535405
:10BD6000530000004E52465F4552524F525F5449B5
:10BD70004D454F55540000004E52465F4552524FBC
:10BD8000525F4255535900002E2E5C2E2E5C2E2EF3
:10BD90005C2E2E5C2E2E5C2E2E5C2E2E5C2E2E5CAF
:10BDA000636F6D706F6E656E74735C6C69627261E7
:10BDB000726965735C6C6F675C7372635C6E7266EC
:10BDC0005F6C6F675F6261636B656E645F75617204
:10BDD000742E63002E2E5C2E2E5C2E2E5C2E2E5C7E
:10BDE0002E2E5C2E2E5C2E2E5C2E2E5C636F6D70C4
:10BDF0006F6E656E74735C6C696272617269657393
:10BE00005C6C6F675C7372635C6E72665F6C6F67AD
:10BE10005F64656661756C745F6261636B656E64B7
:10BE2000732E63002E2E5C2E2E5C2E2E5C2E2E5C2E
:10BE30002E2E5C2E2E5C2E2E5C2E2E5C636F6D7073
:10BE40006F6E656E74735C6C696272617269657342
:10BE50005C6C6F675C7372635C6E72665F6C6F675D
:10BE60005F66726F6E74656E642E63007761726ECA
:10BE7000696E670064656275670000001B5B313B9B
:10BE800033306D001B5B306D000000001B5B313BED
:10BE900033316D001B5B313B33326D001B5B313B3B
:10BEA00033336D001B5B313B33346D001B5B313B27
:10BEB00033356D001B5B313B33366D001B5B313B13
:10BEC00033376D00696E666F000000004145532DE9
:10BED0003132382D454342004145532D3139322D01
:10BEE000454342004145532D3235362D45434200EE
:10BEF0004145532D3132382D434243004145532DA6
:10BF00003139322D434243004145532D3235362DD0
:10BF1000434243004145532D3132382D434642318F
:10BF2000323800004145532D3139322D43464231DC
:10BF3000323800004145532D3235362D43464231CB
:10BF4000323800004145532D3132382D4F464200E2
:10BF50004145532D3139322D4F4642004145532D35
:10BF60003235362D4F4642004145532D3132382D62
:10BF7000435452004145532D3139322D4354520020
:10BF80004145532D3235362D435452004145532DF2
:10BF90003132382D585453004145532D3235362D0A
:10BFA000585453004145532D3132382D47434D00ED
:10BFB0004145532D3139322D47434D004145532DD5
:10BFC0003235362D47434D004145532D3132382D02
:10BFD00043434D004145532D3139322D43434D00EC
:10BFE0004145532D3235362D43434D0043414D4598
:10BFF0004C4C49412D3132382D4543420000000060
:10C0000043414D454C4C49412D3139322D45434238
:10C010000000000043414D454C4C49412D3235361E
:10C020002D4543420000000043414D454C4C4941E1
:10C030002D3132382D4342430000000043414D452D
:10C040004C4C49412D3139322D4342430000000010
:10C0500043414D454C4C49412D3235362D434243E9
:10C060000000000043414D454C4C49412D313238D0
:10C070002D4346423132380043414D454C4C4941F5
:10C080002D3139322D4346423132380043414D453E
:10C090004C4C49412D3235362D4346423132380021
:10C0A00043414D454C4C49412D3132382D4354527A
:10C0B0000000000043414D454C4C49412D3139327F
:10C0C0002D4354520000000043414D454C4C494122
:10C0D0002D3235362D4354520000000043414D456A
:10C0E0004C4C49412D3132382D47434D0000000062
:10C0F00043414D454C4C49412D3139322D47434D3B
:10C100000000000043414D454C4C49412D3235362D
:10C110002D47434D0000000043414D454C4C4941E3
:10C120002D3132382D43434D0000000043414D4531
:10C130004C4C49412D3139322D43434D0000000014
:10C1400043414D454C4C49412D3235362D43434DED
:10C1500000000000434841434841323000000000E5
:10C1600043484143484132302D504F4C59313330D0
:10C1700035000000636C6F636B000000726E670037
:10C18000434C4F434B0000004750494F544500007B
:10C1900050525300524E4700554152540000000087
:10C1A00055415254450000006170705F62757474AF
:10C1B0006F6E00006170705F74696D6572000000E1
:10C1C000686172646661756C740000006D656D5F16
:10C1D0006D6E677200000000736F72746C69737427
:10C1E000000000007274745F6C6F675F6261636B64
:10C1F000656E6400756172745F6C6F675F62616326
:10C200006B656E640000000061707000F4C2000095
:10C2100000000020F801000054040000E0C300000A
:10C22000F8010020F8590000560C0000292C0000ED
:10C23000412C00006157000069570000147E000087
:10C2400000000000E4C100007C010020287E000006
:10C2500000000000F4C100008401002074C100004F
:10C26000000000007CC100000000000080C1000050
:10C270000000000088C100000000000090C1000024
:10C280000000000094C100000000000098C1000000
:10C2900000000000A0C1000000000000A8C10000D4
:10C2A00000000000B4C1000000000000C0C1000098
:10C2B00000000303CCC1000000000000D8C1000052
:10C2C0000000000008C200000000030398010020E5
:10C2D0009001002098010020EC0D002018000000C3
:10C2E00094030020500300204000000001000000E3
:10C2F0000000000018354E4F524449432053454D2D
:10C3000049434F4E445543544F52414553264D41A6
:10C310004320544553544578616D706C65207374A7
:10C3200072696E672064656D6F6E0C2B61740E19F7
:10C33000291E204342435F2D0019242E2054657886
:10C3400074206973203634206279746573206C6FB1
:10C350006E672E00115C254289D6109CC43B8C0A66
:10C36000CF52EBB933242360B76374B61AEC0C23B5
:10C3700038B85AD010411AA0142394B41A28041AB9
:10C38000B81C1AFC041A1C14A9401B90B53C1904D3
:10C390009AB818811A84301A441C01151220BA4028
:10C3A00008319AFF08690C01181AB070236CBE1A84
:10C3B000C4041A74041A84041A7C041A8C041A948F
:10C3C000041A9C041AA4041AAC041AB4041ABC0477
:10C3D00023130423E11B33C7032B90D00651000025
:0400000500000201F4
:00000001FF
