:020000040000FA
:1000000078200020150200001D0200001F020000E1
:100010002102000023020000250200000000000071
:1000200000000000000000000000000027020000A7
:1000300029020000000000002B0200002D02000039
:100040002F0200002F0200002F0200002F020000EC
:100050002F0200002F0200005D0200002F020000AE
:10006000D90500002F0200002F0200002F0200001F
:100070002F0200002F0200002F0200002F020000BC
:100080002F0200002F0200002F0200002F020000AC
:100090002F0200002F0200002F0200002F0200009C
:1000A0002F0200002F0200002F0200002F0200008C
:1000B0002F0200002F0200000000000000000000DE
:1000C0002F0200002F0200002F0200002F0200006C
:1000D0002F0200002F0200002F020000000000008D
:1000E0000000000000000000000000000000000010
:1000F0000000000000000000000000000000000000
:1001000000000000000000000000000000000000EF
:1001100000000000000000000000000000000000DF
:1001200000000000000000000000000000000000CF
:1001300000000000000000000000000000000000BF
:1001400000000000000000000000000000000000AF
:10015000000000000000000000000000000000009F
:10016000000000000000000000000000000000008F
:10017000000000000000000000000000000000007F
:10018000000000000000000000000000000000006F
:10019000000000000000000000000000000000005F
:1001A000000000000000000000000000000000004F
:1001B000000000000000000000000000000000003F
:1001C000000000000000000000000000000000002F
:1001D000000000000000000000000000000000001F
:1001E000000000000000000000000000000000000F
:1001F00000000000000000000000000000000000FF
:10020000DFF80CD000F018F800480047C9070000DC
:10021000782000200648804706480047FEE7FEE7B2
:10022000FEE7FEE7FEE7FEE7FEE7FEE7FEE7FEE7A6
:100230000103000001020000064C074D06E0E068E3
:1002400040F0010394E8070098471034AC42F6D31D
:10025000FFF7DAFF7C0D00009C0D00002DE9F8434C
:100260000025DFF894804FF4807601242F46009516
:10027000304600F035FB38B1D8F80403204203D0F3
:10028000304600F023FB2543361D64007F1CB6B2C8
:10029000082FEDD34FF4BE74204600F021FB48B187
:1002A000204600F013FB45F000456A46012100207E
:1002B00000F0E6FA15F0FF0F16D0012600242E42BA
:1002C0000ED008EB8401D1F81005D1F81015C0F359
:1002D00004200A4AC1F3014152F8242002B1904798
:1002E0007600641C082CEAD3002D02DA684600F080
:1002F000DFFCBDE8F8830000006000401C00002027
:10030000F0B5A449A4484FF080540B68D4F83021CC
:100310000078D4F83411551CC0F3031006D094466D
:1003200001270026BCF1060F03D00AE003F0FF0C02
:10033000F6E7B4F82453DFF864C2C5F30425CCF81B
:100340000050DDB2062D06D1032804D1DFF854C2D7
:10035000934DCCF87450551C04D09446BCF1060F54
:1003600003D00AE003F0FF0CF8E7D4F84452DFF8BA
:1003700038C2C5F34235CCF80050DDB2062D08D1A5
:10038000032806D1894DD5F800C02CF0807CC5F833
:1003900000C0551C04D09446BCF1060F03D00BE0FE
:1003A00003F0FF0CF8E74FF08045C5F80C61C5F885
:1003B00010617D4D2D1F2E60DDB2062D08D1032862
:1003C00006D1DFF8E4C103250CF1640CCCF8005031
:1003D000DDB2062D10D103280ED1DFF8D4C10525DA
:1003E000CCF80050724D78352F60714D08352E6075
:1003F0000CF104063F253560551C04D016460D4609
:10040000062E03D05BE0DEB20546F9E7ED1E012DB6
:1004100055D9684D2D68684E3560664D2D1D2D6887
:10042000361D3560634D08352D68361D3560614DCC
:100430000C352D68361D35605E4D10352D68361D26
:1004400035605C4D14352D68361D3560594D1835B5
:100450002D68594E20363560564D1C352D68361D99
:100460003560544D20352D68361D3560514D24358D
:100470002D68361D35604F4D28352D68361D356089
:100480004C4D2C352D68361D35604A4D30352D6864
:10049000494E40363560474D34352D68361D356040
:1004A000444D38352D68361D3560424D3C352D683C
:1004B000361D35603F4D40352D68361D3560551C65
:1004C00003D01646062E02D007E0DEB2FAE7D4F8D3
:1004D00058523A4E05F04F053560551C03D013466F
:1004E000062B02D008E0DBB2FAE735480368DB07E9
:1004F00002D06FF001030360062A07D1C91E02294A
:1005000004D93048016841F480610160274874389B
:10051000016841F470010160BFF34F8FBFF36F8F2B
:10052000D4E94C104FF01022062907D1C01E032831
:1005300004D9D2F808021C491C310860D2F8000224
:10054000002803DBD2F8040200281FDA012000F0A3
:1005500095FB1521C2F800121B480368002BFCD044
:10056000C2F8041201680029FCD0002000F086FBCC
:10057000BFF34F8F0D48F0380168144A01F4E06171
:1005800011430160BFF34F8F00BFFDE711491048D1
:100590000860F0BDE00F00F0E80F00F040350140CA
:1005A0000DF0ADBA00C007403C050040FCED00E096
:1005B000105600400404001020C50040E40E004026
:1005C000000400403C17004000E401400400FA052C
:1005D0000090D003180000202DE9F047104E0427AA
:1005E00000244FF4A0784FF4803900BF08EB840555
:1005F00009FA04F0715961B1D6F80413014208D028
:100600002946304600F074F90648D0E90021284612
:100610009047641CE4B2BC42E8D3BDE8F087000018
:10062000008000406800002002E008C8121F08C1D6
:10063000002AFAD170477047002001E001C1121F63
:10064000002AFBD17047000072B609480068C00755
:1006500000D000BEBFF34F8F0548E4380168054A5B
:1006600001F4E06111430160BFF34F8F00BFFDE76C
:10067000F0ED00E00400FA050EB500210091CDE98F
:1006800001106A4644F20100FFF7DEFF0EBD00F0E4
:1006900003B800F009B8000072B602480168491CAE
:1006A000016070471400002003490868401E08607C
:1006B00000D162B6704700001400002005494FF0D9
:1006C000FF32082841F8202002D3084480F83C205B
:1006D000704700001C000020F0B54FF0FF3512B14C
:1006E0000023082601E0082309260C4C05E000BF82
:1006F00054F823707F1C04D05B1CB342F8D3284607
:10070000F0BD26185DB286F8245044F82310002A64
:10071000F5D1E11881F83C00F1E700001C00002051
:100720000249084490F92400704700001C00002092
:100730000121814003484068014201D001207047F7
:10074000002070470C00002001218140080300D0E8
:10075000012070473EB5194802A900680290112097
:1007600000F006F908B1FFF787FF0020014600906E
:100770000123134A134800F00BFA01A800F076F9A0
:1007800008B1FFF779FF0F480468112004F5A07441
:1007900000F04CF9024621469DF8040000F096F95D
:1007A00008B1FFF769FF9DF8040000F0B1F908B146
:1007B000FFF762FF112000F041F93EBD6C0D000013
:1007C000400D0300000000201CB500F029F808B11E
:1007D000FFF752FF00F092F808B1FFF74DFF09490B
:1007E000094AD1E90101CDE900016946074800F055
:1007F000E5F908B1FFF740FFFFF7ACFF034800F051
:10080000B9F9FEE76C0D0000690D00000000002042
:10081000C20800F007030120895C98400840704737
:100820000448017809B1852070470121017000203A
:10083000704700000800002070B541EA4201DDE980
:1008400004564FF0A04441EA830141EA052104EB3C
:10085000800041EA0641C0F8001770BD4FF0A04289
:1008600002EB8000D0F8002722F44032C0F80027C5
:10087000D0F8002742EA0141C0F800177047000095
:1008800038B5094B44181B6800936B4608E000BF5D
:1008900053F82010D1F8205520C2C1F82055401C33
:1008A0008442F5D838BD0000780D000042094FF0B1
:1008B000000100D1491E00F01F00012282400A42BF
:1008C00001D001207047002070470000034908B59F
:1008D0000844002101600068009008BD00600040ED
:1008E00002494058012800D00020704700600040B5
:1008F00008B5002242504058009008BD70B5194D0F
:1009000095F8490008B1082070BD0024661E2046F5
:10091000FFF7CCFF10B1281980F82460641CE4B202
:10092000202CF4D300242046FFF7C8FE641CE4B258
:10093000092CF8D300200D4945F8450F0A4CC0207A
:1009400081F8000401264020891FC1F800014FF4FE
:10095000BE70FFF7BBFFA004C4F804032E71002093
:1009600070BD00001C0000200060004006E000E0B8
:100970002DE9FC4104462A480F462044002590F901
:100980002410491C01D0082544E0B978002651B351
:10099000012200212046FFF79FFE411C21D0830049
:1009A00020483A7818447978D0F81035DFF878C0C4
:1009B00003EA0C03C0F81035D0F810354FF4F85C9A
:1009C0000CEA042C43EA0C034FF4403C0CEA0242CC
:1009D0004FF4801C0CEA01510A431343C0F8103550
:1009E00004E0042516E0FE2180F824107A78012026
:1009F000A0404FF0A041012A0FD0C1F80C05012200
:100A000020460096002311460196FFF715FF204669
:100A100000F040F92846BDE8FC81C1F80805EEE782
:100A20001C00002000600040FFE0ECFF10B500F06B
:100A300017F80149084410BD006000400649084409
:100A400090F92400810005480844D0F8101541F0C1
:100A50000301C0F8101570471C0000200060004022
:100A600010B5FFF75DFE8006000E10BD2DE9F047C2
:100A70000427144E814600244FF001080020FFF7A0
:100A800006FE08FA04F5354203D02046FFF750FE73
:100A900058B10020FFF7FDFD27B104F10104AE437A
:100AA000E4B2EBD13846BDE8F087074908FA04F014
:100AB00000274A681043486089F800403846FFF72D
:100AC000E8FDEFE7FFFF0F000C0000202DE9F041EB
:100AD00014460D00074612D08CB10026FFF734FEF5
:100AE00078B13846FFF724FE68B1084800EBC7002C
:100AF000C0F81055C0F814453046BDE8F0810E200E
:100B0000FBE70726F8E70826F6E7000000F00140BB
:100B100070B5044601260025A640FFF715FE18B162
:100B20002046FFF705FE18B102480660284670BD52
:100B30000825FBE704F501402DE9F04106460D4686
:100B40004FF4803400681746AC404BB14FF4A071AD
:100B500001EB8501FFF7CCFE3068C0F8044301E0EB
:100B6000C0F80843306800EB8500C0F84075BDE868
:100B7000F0810000016801220A600079034A00EB5D
:100B8000400002EB800002210172704768000020E3
:100B9000F0B40468049E40F20115D4F800728D4050
:100BA000AF43C4F800720468D4F800521D43C4F87F
:100BB00000523346F0BCFFF7BFBF00002DE9F04103
:100BC00004460E4600792C4900EB400001EB8007FB
:100BD000387A10B10820BDE8F0813A6070680025CD
:100BE0004FF4A078786006E008EB85012068FFF7F5
:100BF0007FFE6D1CEDB26079A842F5D82068F178CF
:100C000040F3073000284FEA411104DB00F1E020F7
:100C100080F8001405E000F00F0000F1E02080F8FB
:100C2000141D2068012140F30730002809DB00F083
:100C30001F0201FA02F24009800000F1E020C0F832
:100C4000002120687278D0F8043562F30103C0F8FF
:100C500004352068B278D0F8083562F30103C0F893
:100C6000083520683278D0F8103562F30303C0F8F5
:100C7000103539720020AEE7680000200349086093
:100C8000034801680029FCD07047000004E50140DA
:100C900000E4014010B50549C20800F00703885C74
:100CA00001249C402043885410BD000061000020B6
:100CB0002DE9F05FDFF89C8006464FF0A0494FF029
:100CC000010A98F9440000274546401C37D095F8A2
:100CD0004400314620F0C0042046FFF799FD08B3D8
:100CE000384600F039F8834609EB8400D0F8000755
:100CF000C0F30147022F16D002212046FFF7AEFDB8
:100D00000AFA04F1C9F820152046FFF709FD55F845
:100D100020203AB15846BBF1030F0DD0022F04D06A
:100D2000032F06D00BE00321E7E7BBF1010F03D04F
:100D300005E0BBF1020F02D1014620469047324642
:100D400001210020FFF79CFD30680028B9D1BDE8E3
:100D5000F09F00001C0000200249084490F8440065
:100D6000800970471C00002070470000030001004C
:100D70000400030600000000000000509C0D00006D
:100D8000000000201C00000028060000B80D000034
:100D90001C0000205C20000038060000008000409D
:100DA000000400000000000000000000000000003F
:080DB000000000000090D003D8
:0400000500000201F4
:00000001FF
